:100000006F008013130000001300000013000000B5
:100010001300000013000000130000001300000094
:1000200013000000130101F82320310023221100E6
:10003000232421002326310023284100232A5100B4
:10004000232C6100232E71002320810223229102A0
:100050002324A1022326B1022328C102232AD1028C
:10006000232CE102232EF102232001052322110576
:10007000232421052326310523284105232A510560
:10008000232C6105232E710523208107232291074C
:100090002324A1072326B1072328C107232AD10738
:1000A000232CE107232EF1071300000013000000AA
:1000B0001300000013000000832041008321C100D1
:1000C0000322010183224101032381018323C10112
:1000D0000324010283244102032581028325C102F6
:1000E0000326010383264103032781038327C103DA
:1000F0000328010483284104032981048329C104BE
:10010000032A0105832A4105032B8105832BC105A1
:10011000032C0106832C4106032D8106832DC10685
:10012000032E0107832E4107032F8107832FC10769
:1001300013010108130000001711000013010188CA
:10014000130540011300000013000000130000001D
:100150001305F5FFE31805FE170500401305C5F16B
:1001600097050040938545F16308B50023200500FD
:10017000130545006FF05FFF170500401305C5EF3D
:100180001301C1FF97050040938505EF630EB5008D
:1001900083260500130545002320A100E780060003
:1001A000032501006FF01FFE1301410017030040FB
:0801B000E70043E56F000000C9
:020000044000BA
:10000000130101FE232E8100130401029307100047
:100010002324F4FE930720002322F4FE93073000EC
:100020002320F4FE032784FE832744FE3307F700D2
:10003000832704FEB307F7002326F4FE8327C4FEBC
:10004000938717002326F4FE8327C4FE9387270097
:100050002326F4FE0327C4FE832704FEB307F7001C
:100060002326F4FEB70700900327C4FE23A0E70071
:040070006FF09FFD91
:0400000300000138C0
:00000001FF
