:0200000480007A
:10000000971000009380000137513412130181676B
:100010006F0080001301000023A0000023A2200035
:1000200097100000938080FF1301F0FF9301F0FF11
:1000300037D2ED0F130292BA6F0080021301000055
:100040009301000013020000B741658793811132CC
:100050006F008002130100009301000013020000F2
:1000600037E1BC9A130101EF6FF01FFE130100008E
:10007000930100001302000023A0000023A220002F
:1000800023A4300023A6400097140000938484F733
:1000900017150000130585F91301F0FF9301F0FF18
:1000A0001302F0FF9302F0FF3753555513035355D6
:1000B00083AC040003AC4400EF00C001B72122224E
:1000C00093812122EF0F0003B742444493824244BC
:1000D0006F004004371111111301111167800000E6
:1000E00013010000930100001302000093020000BE
:1000F00013030000373233331302323367800F00AB
:10010000130100009301000013020000930200009D
:1001100013030000B3C3900133C48F0123202500D3
:10012000232235002324450023265500232865007B
:10013000232A7500232C850097140000938404ED76
:1001400017150000130545F01301F0FF9301F0FFB0
:100150001302F0FF9302F0FF1303F0FF03AC04005F
:1001600083AC44006F004002B77177779381717759
:1001700067800F00130100009301000013020000CC
:100180009302000013030000376166661301616685
:10019000EFFF9FFD3792888813028288EF000001ED
:1001A00037B3AAAA1303A3AA6F004002B7A2999972
:1001B0009382929967800000130100009301000070
:1001C000130200009302000013030000B3C38F0169
:1001D00033C4900123202500232235002324450029
:1001E0002326550023286500232A7500232C85002B
:1001F00017150000130505E297150000938585E6A5
:10020000370610F01306C6F26306B5028326C50052
:100210002320D600832685002320D6008326450090
:100220002320D600832605002320D60013050501D0
:100230006FF09FFD370510F0130505F22320050030
:0402400000000000BA
:10100000BC000080C800008094010080A001008026
:10101000FFFFFFFFFFFFFFFFFFFFFFFFFFFFFFFFE0
:10102000FFFFFFFFFFFFFFFFFFFFFFFFFFFFFFFFD0
:10103000FFFFFFFFFFFFFFFFFFFFFFFFFFFFFFFFC0
:10104000FFFFFFFFFFFFFFFFFFFFFFFFFFFFFFFFB0
:10105000FFFFFFFFFFFFFFFFFFFFFFFFFFFFFFFFA0
:040000058000000077
:00000001FF
