:0200000480007A
:100000009710000093800000171100001301810277
:1000100083A1000013E2110093E2F17F13E3F1FFEB
:1000200093E3010013E401802320310023224100E7
:10003000232451002326610023287100232A8100F4
:1000400097100000938040FC17110000130101007D
:1000500003A40000936414001365F47F9365F4FF18
:1000600013660400936604802320810023229100FC
:100070002324A1002326B1002328C100232AD10074
:1000800097100000938080F817110000130181FD84
:1000900083A6000013E7160093E7F67F13E8F6FF48
:1000A00093E8060013E906802320D1002322E10013
:1000B0002324F1002326010123281101232A2101F1
:1000C000971000009380C0F417110000130101FB8A
:1000D00003A9000093691900136AF97F936AF9FF75
:1000E000136B0900936B0980232021012322310126
:1000F000232441012326510123286101232A710170
:1001000097100000938000F117110000130181F88F
:1001100083AB000013EC1B0093ECFB7F13EDFBFFA4
:1001200093ED0B0013EE0B8023207101232281013C
:10013000232491012326A1012328B101232AC101EF
:10014000171D0000130D4DED971D0000938D0DF64A
:10015000032E0D00936E0E0113EF0E02936F0F042A
:1001600093E00F0813E100109361018023A0CD01FB
:1001700023A2DD0123A4ED0123A6FD0123A81D0078
:1001800023AA2D0023AC3D0097100000938000E9C6
:1001900017110000130141F383A2000013E01200C5
:1001A0002320010097100000938080E717110000C2
:1001B0001301C1F183A2000013E01200936210004A
:1001C000232001002322510097100000938080E536
:1001D00017110000130101F083A1000013E20100D8
:1001E0009362020013E302001367030093670700A2
:1001F00013E80700936C080013ED0C00936D0D00DD
:1002000023203100232241002324A1012326B10110
:1002100017150000130505E297150000938585EC7E
:10022000370610F01306C6F26306B5028326C50032
:100230002320D600832685002320D6008326450070
:100240002320D600832605002320D60013050501B0
:100250006FF09FFD370510F0130505F22320050010
:04026000000000009A
:101000000000000001000000FFFFFFFFFFFFFF7F67
:10101000000000800D0000007856341298BADCFE03
:10102000145892360000000000000000000000008C
:10103000FFFFFFFFFFFFFFFFFFFFFFFFFFFFFFFFC0
:10104000FFFFFFFFFFFFFFFFFFFFFFFFFFFFFFFFB0
:10105000FFFFFFFFFFFFFFFFFFFFFFFFFFFFFFFFA0
:10106000FFFFFFFFFFFFFFFFFFFFFFFFFFFFFFFF90
:10107000FFFFFFFFFFFFFFFFFFFFFFFFFFFFFFFF80
:10108000FFFFFFFFFFFFFFFFFFFFFFFFFFFFFFFF70
:10109000FFFFFFFFFFFFFFFFFFFFFFFFFFFFFFFF60
:1010A000FFFFFFFFFFFFFFFFFFFFFFFFFFFFFFFF50
:1010B000FFFFFFFFFFFFFFFFFFFFFFFFFFFFFFFF40
:1010C000FFFFFFFFFFFFFFFFFFFFFFFFFFFFFFFF30
:1010D000FFFFFFFFFFFFFFFFFFFFFFFFFFFFFFFF20
:040000058000000077
:00000001FF
