:0200000480007A
:100000009710000093800001B7CFAAAA938FBFBBBF
:1000100023A0F00137F1F1111301212223902000D8
:1000200097120000938252FFA3AF02FEB74C33F346
:10003000938C4C4FA39F92FF171400001304F4FD00
:10004000A3200400B7FFF555938F6F66A310F4014A
:10005000971500009385C57C23A00580379677F718
:100060001306868F2390C580170700001307977B20
:10007000A32F077EB71709999387A7AAA31FF77E17
:1000800097180000938888FA37D911111309C9C04D
:10009000B71922229389B9BB371A3333130AEAEE10
:1000A000B7EA4444938ADAD0370B7777130B0B0FF8
:1000B000B71B6666938BFBFF239E28FF239F38FFA9
:1000C00023904801239158012392680123937801DA
:1000D000171B0000130B0BF6B74065879380103297
:1000E00023201B00375034121300806723100B00AD
:1000F000971A0000938A0AF183A00A0023A0000047
:10010000B73922119389493483AB0A0023903B010C
:10011000971B0000938B4BEF171C0000130C0CF285
:1001200023200C0083AC0B0023109C01171D000042
:10013000130D0DF123200D00B73C5476938C0C2148
:1001400023109D01930C0000171E0000130E8EEF6C
:1001500023200E00B7DDAB89938DFDDE2310BE0199
:10016000130ECEFF971E0000938E0EEE23A00E00FE
:1001700023A20E00B76D7214938D6D832390BE0180
:1001800003AF0E002392EE0197100000938040EC25
:1001900023A000003751389613011120B751812553
:1001A0009381319623902000239030001715000092
:1001B000130545E6971500009385C5E9370610F04D
:1001C0001306C6F26306B5028326C5002320D600B7
:1001D000832685002320D600832645002320D600D1
:1001E000832605002320D600130505016FF09FFD2F
:1001F000370510F0130505F223200500000000006C
:0402000000000000FA
:1010000034100080F0DEBC9A0000000000000000F8
:10101000FFFFFFFFFFFFFFFFFFFFFFFFFFFFFFFFE0
:10102000FFFFFFFFFFFFFFFFFFFFFFFFFFFFFFFFD0
:10103000FFFFFFFFFFFFFFFFFFFFFFFFFFFFFFFFC0
:10104000FFFFFFFFFFFFFFFFFFFFFFFFFFFFFFFFB0
:040000058000000077
:00000001FF
