:0200000480007A
:1000000017110000130101001309000093080000FC
:10001000B328190323201101130A000093091000CB
:10002000B3293A0323223101130B0000930AF0FF96
:10003000B32A5B0323245101130C0000B70B00808B
:10004000938BFBFFB32B7C0323267101130D000060
:10005000B70C0080B32C9D032328910117110000D9
:10006000130181FB130E1000930D0000B32DBE038E
:100070002320B101130F1000930E1000B32EDF03E5
:100080002322D10193011000930FF0FFB3AFF103CE
:100090002324F10113041000370200801302F2FF41
:1000A000332244022326410093051000B704008048
:1000B000B3A495022328910017110000130101F742
:1000C0009306F0FF1306000033A6C6022320C100EA
:1000D0009307F0FF1307100033A7E7022322E10084
:1000E0009308F0FF1308F0FF33A80803232401014D
:1000F0009309F0FF370900801309F9FF33A9290399
:1001000023262101930AF0FF370A008033AA4A030D
:100110002328410117110000130181F2B70B008061
:10012000938BFBFF130B000033AB6B0323206101A8
:10013000B70C0080938CFCFF130C100033AC8C03C5
:1001400023228101B70D0080938DFDFF130DF0FF79
:1001500033ADAD032324A101B70E0080938EFEFFC3
:10016000370E0080130EFEFF33AECE032326C101EF
:10017000B70F0080938FFFFF370F008033AFEF037F
:100180002328E101171100001301C1EC37020080A0
:1001900093010000B321320223203100B704008014
:1001A0001304100033A48402232281003706008048
:1001B0009305F0FFB325B6022324B1003707008072
:1001C000B70600809386F6FFB326D7022326D10018
:1001D00037080080B7070080B327F8022328F10012
:1001E00017150000130505E297150000938585EEAD
:1001F000370610F01306C6F26306B5028326C50063
:100200002320D600832685002320D60083264500A0
:100210002320D600832605002320D60013050501E0
:100220006FF09FFD370510F0130505F22320050040
:0402300000000000CA
:10100000FFFFFFFFFFFFFFFFFFFFFFFFFFFFFFFFF0
:10101000FFFFFFFFFFFFFFFFFFFFFFFFFFFFFFFFE0
:10102000FFFFFFFFFFFFFFFFFFFFFFFFFFFFFFFFD0
:10103000FFFFFFFFFFFFFFFFFFFFFFFFFFFFFFFFC0
:10104000FFFFFFFFFFFFFFFFFFFFFFFFFFFFFFFFB0
:10105000FFFFFFFFFFFFFFFFFFFFFFFFFFFFFFFFA0
:10106000FFFFFFFFFFFFFFFFFFFFFFFFFFFFFFFF90
:10107000FFFFFFFFFFFFFFFFFFFFFFFFFFFFFFFF80
:10108000FFFFFFFFFFFFFFFFFFFFFFFFFFFFFFFF70
:10109000FFFFFFFFFFFFFFFFFFFFFFFFFFFFFFFF60
:1010A000FFFFFFFFFFFFFFFFFFFFFFFFFFFFFFFF50
:1010B000FFFFFFFFFFFFFFFFFFFFFFFFFFFFFFFF40
:1010C000FFFFFFFFFFFFFFFF000000000000000028
:040000058000000077
:00000001FF
