:0200000480007A
:100000006F00C004732F2034930F8000630AFF0336
:10001000930F90006306FF03930FB0006302FF038A
:10002000170F0080130F0FFE63040F0067000F000F
:10003000732F203463540F006F004000136E9E53E3
:10004000171F00002320CFFD6FF09FFF732540F1A5
:100050006310050073251030635805000F00F00F82
:10006000130E100073000000130E00009702000032
:10007000938282F973905230735020307350303035
:1000800073504030970200809382C2F7638C020065
:10009000739052109302B01A739022307323203061
:1000A000E39E62F873500030970200009382420191
:1000B00073901234732540F173002030B70001FFB4
:1000C000938000F093F1F0F0B70E01FF938E0EF0E5
:1000D000130E20006394D11BB710F00F938000FF24
:1000E00093F1000F930E000F130E30006398D11997
:1000F000B700FF009380F00F93F1F070930EF000C3
:10010000130E4000639CD117B7F00FF09380F000FE
:1001100093F1000F930E0000130E50006390D1175F
:10012000B70001FF938000F093F0000F930E0000E2
:10013000130E60006394D01513020000B710F00F87
:10014000938000FF93F1F0701383010013021200FB
:1001500093022000E31452FE930E0070130E700001
:10016000631ED31113020000B700FF009380F00F4D
:1001700093F1000F1300000013830100130212001B
:1001800093022000E31252FE930E000F130E800024
:100190006316D30F13020000B7F00FF09380F00046
:1001A00093F1F0F01300000013000000138301002E
:1001B0001302120093022000E31052FEB7FE0FF06C
:1001C000938EFE00130E9000631AD30B13020000EF
:1001D000B710F00F938000FF93F1F070130212003C
:1001E00093022000E31652FE930E0070130EA0003F
:1001F0006396D10913020000B700FF009380F00F4F
:100200001300000093F1000F13021200930220006C
:10021000E31452FE930E000F130EB0006390D1074B
:1002200013020000B7F00FF09380F00013000000FD
:100230001300000093F1F0701302120093022000EB
:10024000E31252FE930EF000130EC0006398D10328
:100250009370000F930E0000130ED0006390D00334
:10026000B700FF009380F00F13F0F070930E0000C2
:10027000130EE0006314D001631CC0010F00F00FE7
:1002800063000E00131E1E00136E1E00730000009C
:100290000F00F00F130E100073000000731000C069
:1002A000000000000000000000000000000000004E
:1002B000000000000000000000000000000000003E
:0402C000000000003A
:1010000000000000000000000000000000000000E0
:1010100000000000000000000000000000000000D0
:1010200000000000000000000000000000000000C0
:1010300000000000000000000000000000000000B0
:081040000000000000000000A8
:040000058000200057
:00000001FF
