:0200000480007A
:100000006F00C004732F2034930F8000630AFF0336
:10001000930F90006306FF03930FB0006302FF038A
:10002000170F0080130F0FFE63040F0067000F000F
:10003000732F203463540F006F004000136E9E53E3
:10004000171F00002320CFFD6FF09FFF732540F1A5
:100050006310050073251030635805000F00F00F82
:10006000130E100073000000130E00009702000032
:10007000938282F973905230735020307350303035
:1000800073504030970200809382C2F7638C020065
:10009000739052109302B01A739022307323203061
:1000A000E39E62F873500030970200009382420191
:1000B00073901234732540F173002030B700008034
:1000C00013010000B3D12040B70E0080130E2000B2
:1000D0006394D159B700008013011000B3D12040C0
:1000E000B70E00C0130E30006398D157B7000080E0
:1000F00013017000B3D12040B70E00FF130E400073
:10010000639CD155B70000801301E000B3D12040BB
:10011000B70EFEFF130E50006390D155B70000805C
:10012000938010001301F001B3D12040930EF0FF33
:10013000130E60006392D153B70000809380F0FFEC
:1001400013010000B3D12040B70E0080938EFEFF54
:10015000130E70006392D151B70000809380F0FFBE
:1001600013011000B3D12040B70E0040938EFEFF64
:10017000130E80006392D14FB70000809380F0FF90
:1001800013017000B3D12040B70E0001938EFEFF23
:10019000130E90006392D14DB70000809380F0FF62
:1001A0001301E000B3D12040B70E0200938EFEFF92
:1001B000130EA0006392D14BB70000809380F0FF34
:1001C0001301F001B3D12040930E0000130EB000D4
:1001D0006394D149B7808181938010181301000086
:1001E000B3D12040B78E8181938E1E18130EC000AC
:1001F0006394D147B7808181938010181301100058
:10020000B3D12040B7CEC0C0938E0E0C130ED000D9
:100210006394D145B78081819380101813017000D9
:10022000B3D12040B70E03FF938E3E30130EE00093
:100230006394D143B7808181938010181301E0004B
:10024000B3D12040B70EFEFF938E6E60130EF00008
:100250006394D141B7808181938010181301F0011C
:10026000B3D12040930EF0FF130E00016396D13FEF
:10027000B780818193801018130100FCB3D1204016
:10028000B78E8181938E1E18130E10016396D13D97
:10029000B780818193801018130110FCB3D12040E6
:1002A000B7CEC0C0938E0E0C130E20016396D13BC7
:1002B000B780818193801018130170FCB3D1204066
:1002C000B70E03FF938E3E30130E30016396D13983
:1002D000B7808181938010181301E0FCB3D12040D6
:1002E000B70EFEFF938E6E60130E40016396D137FA
:1002F000B7808181938010181301F0FFB3D12040A3
:10030000930EF0FF130E50016398D135B7000080B3
:1003100013017000B3D02040B70E00FF130E600130
:10032000639CD033B70000801301E00033D120403C
:10033000B70EFEFF130E70016310D13393007000EF
:10034000B3D01040930E0000130E80016396D0319D
:1003500013020000B700008013017000B3D12040E9
:10036000138301001302120093022000E31452FED3
:10037000B70E00FF130E90016310D32F130200007D
:10038000B70000801301E000B3D12040130000004B
:10039000138301001302120093022000E31252FEA5
:1003A000B70EFEFF130EA0016318D32B130200003B
:1003B000B70000801301F001B3D12040130000000A
:1003C00013000000138301001302120093022000A7
:1003D000E31052FE930EF0FF130EB001631ED327FD
:1003E00013020000B700008013017000B3D1204059
:1003F0001302120093022000E31652FEB70E00FF14
:10040000130EC001639AD12513020000B7000080CB
:100410001301E00013000000B3D1204013021200CA
:1004200093022000E31452FEB70EFEFF130ED0011C
:100430006394D12313020000B70000801301F00180
:100440001300000013000000B3D12040130212007B
:1004500093022000E31252FE930EF0FF130EE00110
:10046000639CD11F13020000B7000080130000003E
:1004700013017000B3D12040130212009302200038
:10048000E31452FEB70E00FF130EF0016396D11D68
:1004900013020000B7000080130000001301E00009
:1004A00013000000B3D12040130212009302200079
:1004B000E31252FEB70EFEFF130E0002639ED11927
:1004C00013020000B70000801300000013000000BA
:1004D0001301F001B3D12040130212009302200057
:1004E000E31252FE930EF0FF130E10026396D11723
:1004F0001302000013017000B7000080B3D1204048
:100500001302120093022000E31652FEB70E00FF02
:10051000130E20026392D115130200001301E000B4
:10052000B700008013000000B3D120401302120076
:1005300093022000E31452FEB70EFEFF130E3002AA
:10054000639CD111130200001301F001B700008079
:100550001300000013000000B3D12040130212006A
:1005600093022000E31252FE930EF0FF130E40029E
:100570006394D10F130200001301700013000000F8
:10058000B7000080B3D12040130212009302200074
:10059000E31452FEB70E00FF130E5002639ED10B00
:1005A000130200001301E00013000000B7000080F8
:1005B00013000000B3D12040130212009302200068
:1005C000E31252FEB70EFEFF130E60026396D109CE
:1005D000130200001301F0011300000013000000DB
:1005E000B7000080B3D12040130212009302200014
:1005F000E31252FE930EF0FF130E7002639ED105BC
:100600009300F00033511040930E0000130E80024F
:100610006314D1059300000233D10040930E000211
:10062000130E9002631AD103B3500040930E0000E2
:10063000130EA0026392D003930000403711000014
:100640001301018033D02040930E0000130EB0023E
:100650006314D001631CC0010F00F00F63000E0093
:10066000131E1E00136E1E00730000000F00F00F1B
:10067000130E100073000000731000C00000000093
:040680000000000076
:1010000000000000000000000000000000000000E0
:1010100000000000000000000000000000000000D0
:1010200000000000000000000000000000000000C0
:1010300000000000000000000000000000000000B0
:081040000000000000000000A8
:040000058000200057
:00000001FF
