:1000000013000000130000001300000013000000A4
:100010001300000013000000130000009300A00074
:100020001300000013000000130000001300000084
:100030001300000013000000130000001301400132
:100040001300000013000000130000001300000064
:100050001300000013000000130000009381E00172
:100060001300000013000000130000001300000044
:100070001300000013000000130000003382210071
:100080001300000013000000130000001300000024
:100090001300000013000000130000009300A000F4
:1000A000130140019381E00133822100130000001D
:1000B00013000000130000001300000013000000F4
:1000C00013000000130000001300000013000000E4
:1000D00013000000130000001300000013000000D4
:1000E00013000000130000001300000013000000C4
:1000F00013000000130000001300000013000000B4
:1001000013000000130000001300000013000000A3
:100110001300000013000000130000009302100001
:100120001300000013000000130000001300000083
:100130001300000013000000130000006F00000413
:100140001300000013000000130000001300000063
:100150001300000013000000130000001303200030
:100160001300000013000000130000001300000043
:100170001300000013000000130000009303300080
:100180001300000013000000130000001300000023
:100190001300000013000000130000009302100081
:0C01A0006F008000130320009303300068
:0400000540000000B7
:00000001FF
