:0200000480007A
:10000000930400009700000093800001739050302B
:100010006F00400173101F3463940400730020309C
:1000200067000F00130E0000170F0000130F0F34AE
:10003000B70000803782008037C1ADDE1301F1EEDA
:1000400023A020002320220083A10000631E313062
:1000500083210200631A3130B7021A077390023A03
:100060007323003A63926230B702191A93824230C6
:100070007390123AB7120F009382A2907390223AB3
:100080007323203A6392622EB7221E1C9382029041
:100090007390323AB70200207390023B7323003B07
:1000A0006394622C9302F0FF7390123BB7022020FE
:1000B0007390223BB74200209382F2FF7390323B51
:1000C000B74200209382F2FF7390423BB742002078
:1000D0009382F2FF7390523BB70200239382F2FFA8
:1000E0007390623BB70204229382F2FF7390723BDB
:1000F000B7020D207390823BB7020E207390923BA3
:100100009302F0FF7390A23B930200007390B23B06
:10011000930200007390C23B930200007390D23BA5
:10012000930200007390E23B9302F0FF7390F23B66
:100130003701C1001301E1FE23A02000232022008B
:1001400083A1000063123122930100008321020089
:10015000631C3120130E1000170F0000130F0F2126
:10016000B7129A07938282807390023A7323003AFF
:10017000639C621EB700808037C1ADDE1301F1EED3
:1001800023A02000170F0000130F0F0183A1000010
:100190006F00801D130E2000170F0000130F0F1D9E
:1001A000B7021A077390023A7323003A638E621AF9
:1001B0007350303B7323303B6318031A7350203B5A
:1001C0007323203B6302031AB700808037C1ADDE82
:1001D0001301F1EE23A02000170F0000130F0F01F1
:1001E00083A100006F004018130E3000170F0000AD
:1001F000130FCF17B702FF0073A0323B7323303BBE
:10020000639462169302F00F73A0323B7323303B6A
:10021000B702FF009382F20F63986214B702FF00E7
:1002200073B0323B7323303B9302F00F639E621234
:10023000B702FF009382F20F73B0023A7323003AC1
:10024000B7029A0763926212B702FF00938272703C
:1002500073A0023A7323003AB7029A07938272702E
:1002600063946210130E4000170F0000130F0F105D
:1002700017010000130101017310113473002030C5
:10028000130E5000170F0000130F4F0E37C1ADDED5
:100290001301F1EEB700808023A02000170F0000AB
:1002A000130F0F0183A100006F00000C130E6000FC
:1002B000170F0000130F8F0B37C1ADDE1301F1EEE6
:1002C000B700008823A0200083A10000130E700057
:1002D000170F0000130F8F09B7000089938000FFEC
:1002E00083A10000170F0000130F0F0123A030009F
:1002F0006F008007130E8000170F0000130F4F01CF
:10030000930410007350303A6F000006130E800003
:10031000B7221E1C938202907323303A63966204C4
:10032000130E9000170F0000130F4F0493040000EA
:100330001701000013010101731011347300203004
:10034000130E9000170F0000130F4F0193041000BD
:100350007350A03B6F004001130E90009302F0FF1A
:100360007323A03B63886200370110F0130141F250
:100370002320C101370110F0130101F223200100F5
:040000058000000077
:00000001FF
