
/home/spinalvm/hdl/riscv-compliance/work//C.JAL.elf:     file format elf32-littleriscv


Disassembly of section .text.init:

80000000 <_start>:
80000000:	0001                	nop
80000002:	0001                	nop
80000004:	0001                	nop
80000006:	0001                	nop
80000008:	0001                	nop
8000000a:	0001                	nop
8000000c:	0001                	nop
8000000e:	0001                	nop
80000010:	0001                	nop
80000012:	0001                	nop
80000014:	0001                	nop
80000016:	0001                	nop
80000018:	0001                	nop
8000001a:	0001                	nop
8000001c:	0001                	nop
8000001e:	0001                	nop
80000020:	0001                	nop
80000022:	0001                	nop
80000024:	0001                	nop
80000026:	0001                	nop
80000028:	0001                	nop
8000002a:	0001                	nop
8000002c:	0001                	nop
8000002e:	0001                	nop
80000030:	0001                	nop
80000032:	0001                	nop
80000034:	0001                	nop
80000036:	0001                	nop
80000038:	0001                	nop
8000003a:	0001                	nop
8000003c:	0001                	nop
8000003e:	0001                	nop
80000040:	0001                	nop
80000042:	0001                	nop
80000044:	0001                	nop
80000046:	0001                	nop
80000048:	0001                	nop
8000004a:	0001                	nop
8000004c:	0001                	nop
8000004e:	0001                	nop
80000050:	0001                	nop
80000052:	0001                	nop
80000054:	0001                	nop
80000056:	0001                	nop
80000058:	0001                	nop
8000005a:	0001                	nop
8000005c:	0001                	nop
8000005e:	0001                	nop
80000060:	0001                	nop
80000062:	0001                	nop
80000064:	0001                	nop
80000066:	0001                	nop
80000068:	0001                	nop
8000006a:	0001                	nop
8000006c:	0001                	nop
8000006e:	0001                	nop
80000070:	0001                	nop
80000072:	0001                	nop
80000074:	0001                	nop
80000076:	0001                	nop
80000078:	0001                	nop
8000007a:	0001                	nop
8000007c:	0001                	nop
8000007e:	0001                	nop
80000080:	0001                	nop
80000082:	0001                	nop
80000084:	0001                	nop
80000086:	0001                	nop
80000088:	0001                	nop
8000008a:	0001                	nop
8000008c:	0001                	nop
8000008e:	0001                	nop
80000090:	0001                	nop
80000092:	0001                	nop
80000094:	0001                	nop
80000096:	0001                	nop
80000098:	0001                	nop
8000009a:	0001                	nop
8000009c:	0001                	nop
8000009e:	0001                	nop
800000a0:	0001                	nop
800000a2:	0001                	nop
800000a4:	0001                	nop
800000a6:	0001                	nop
800000a8:	0001                	nop
800000aa:	0001                	nop
800000ac:	0001                	nop
800000ae:	0001                	nop
800000b0:	0001                	nop
800000b2:	0001                	nop
800000b4:	0001                	nop
800000b6:	0001                	nop
800000b8:	0001                	nop
800000ba:	0001                	nop
800000bc:	0001                	nop
800000be:	0001                	nop
800000c0:	0001                	nop
800000c2:	0001                	nop
800000c4:	0001                	nop
800000c6:	0001                	nop
800000c8:	0001                	nop
800000ca:	0001                	nop
800000cc:	0001                	nop
800000ce:	0001                	nop
800000d0:	0001                	nop
800000d2:	0001                	nop
800000d4:	0001                	nop
800000d6:	0001                	nop
800000d8:	0001                	nop
800000da:	0001                	nop
800000dc:	0001                	nop
800000de:	0001                	nop
800000e0:	0001                	nop
800000e2:	0001                	nop
800000e4:	0001                	nop
800000e6:	0001                	nop
800000e8:	0001                	nop
800000ea:	0001                	nop
800000ec:	0001                	nop
800000ee:	00001117          	auipc	sp,0x1
800000f2:	f1210113          	addi	sp,sp,-238 # 80001000 <codasip_signature_start>
800000f6:	4401                	li	s0,0
800000f8:	2029                	jal	80000102 <_start+0x102>
800000fa:	00012437          	lui	s0,0x12
800000fe:	3ab40413          	addi	s0,s0,939 # 123ab <_start-0x7ffedc55>
80000102:	c022                	sw	s0,0(sp)
80000104:	00001117          	auipc	sp,0x1
80000108:	f0010113          	addi	sp,sp,-256 # 80001004 <test_2_res>
8000010c:	4485                	li	s1,1
8000010e:	2029                	jal	80000118 <_start+0x118>
80000110:	000124b7          	lui	s1,0x12
80000114:	3ab48493          	addi	s1,s1,939 # 123ab <_start-0x7ffedc55>
80000118:	c026                	sw	s1,0(sp)
8000011a:	00001117          	auipc	sp,0x1
8000011e:	eee10113          	addi	sp,sp,-274 # 80001008 <test_3_res>
80000122:	55fd                	li	a1,-1
80000124:	2029                	jal	8000012e <_start+0x12e>
80000126:	000125b7          	lui	a1,0x12
8000012a:	3ab58593          	addi	a1,a1,939 # 123ab <_start-0x7ffedc55>
8000012e:	c02e                	sw	a1,0(sp)
80000130:	00001117          	auipc	sp,0x1
80000134:	edc10113          	addi	sp,sp,-292 # 8000100c <test_4_res>
80000138:	00008637          	lui	a2,0x8
8000013c:	fff60613          	addi	a2,a2,-1 # 7fff <_start-0x7fff8001>
80000140:	2029                	jal	8000014a <_start+0x14a>
80000142:	00012637          	lui	a2,0x12
80000146:	3ab60613          	addi	a2,a2,939 # 123ab <_start-0x7ffedc55>
8000014a:	c032                	sw	a2,0(sp)
8000014c:	00001117          	auipc	sp,0x1
80000150:	ec410113          	addi	sp,sp,-316 # 80001010 <test_5_res>
80000154:	66a1                	lui	a3,0x8
80000156:	2029                	jal	80000160 <_start+0x160>
80000158:	000126b7          	lui	a3,0x12
8000015c:	3ab68693          	addi	a3,a3,939 # 123ab <_start-0x7ffedc55>
80000160:	c036                	sw	a3,0(sp)
80000162:	00001517          	auipc	a0,0x1
80000166:	e9e50513          	addi	a0,a0,-354 # 80001000 <codasip_signature_start>
8000016a:	00001597          	auipc	a1,0x1
8000016e:	eb658593          	addi	a1,a1,-330 # 80001020 <_end>
80000172:	f0100637          	lui	a2,0xf0100
80000176:	f2c60613          	addi	a2,a2,-212 # f00fff2c <_end+0x700fef0c>

8000017a <complience_halt_loop>:
8000017a:	00b50c63          	beq	a0,a1,80000192 <complience_halt_break>
8000017e:	4554                	lw	a3,12(a0)
80000180:	c214                	sw	a3,0(a2)
80000182:	4514                	lw	a3,8(a0)
80000184:	c214                	sw	a3,0(a2)
80000186:	4154                	lw	a3,4(a0)
80000188:	c214                	sw	a3,0(a2)
8000018a:	4114                	lw	a3,0(a0)
8000018c:	c214                	sw	a3,0(a2)
8000018e:	0541                	addi	a0,a0,16
80000190:	b7ed                	j	8000017a <complience_halt_loop>

80000192 <complience_halt_break>:
80000192:	f0100537          	lui	a0,0xf0100
80000196:	f2050513          	addi	a0,a0,-224 # f00fff20 <_end+0x700fef00>
8000019a:	00052023          	sw	zero,0(a0)
8000019e:	0000                	unimp
	...

Disassembly of section .data:

80001000 <codasip_signature_start>:
80001000:	ffff                	0xffff
80001002:	ffff                	0xffff

80001004 <test_2_res>:
80001004:	ffff                	0xffff
80001006:	ffff                	0xffff

80001008 <test_3_res>:
80001008:	ffff                	0xffff
8000100a:	ffff                	0xffff

8000100c <test_4_res>:
8000100c:	ffff                	0xffff
8000100e:	ffff                	0xffff

80001010 <test_5_res>:
80001010:	ffff                	0xffff
80001012:	ffff                	0xffff
	...
