
/home/spinalvm/hdl/riscv-compliance/work//C.SW.elf:     file format elf32-littleriscv


Disassembly of section .text.init:

80000000 <_start>:
80000000:	0001                	nop
80000002:	0001                	nop
80000004:	0001                	nop
80000006:	0001                	nop
80000008:	0001                	nop
8000000a:	0001                	nop
8000000c:	0001                	nop
8000000e:	0001                	nop
80000010:	0001                	nop
80000012:	0001                	nop
80000014:	0001                	nop
80000016:	0001                	nop
80000018:	0001                	nop
8000001a:	0001                	nop
8000001c:	0001                	nop
8000001e:	0001                	nop
80000020:	0001                	nop
80000022:	0001                	nop
80000024:	0001                	nop
80000026:	0001                	nop
80000028:	0001                	nop
8000002a:	0001                	nop
8000002c:	0001                	nop
8000002e:	0001                	nop
80000030:	0001                	nop
80000032:	0001                	nop
80000034:	0001                	nop
80000036:	0001                	nop
80000038:	0001                	nop
8000003a:	0001                	nop
8000003c:	0001                	nop
8000003e:	0001                	nop
80000040:	0001                	nop
80000042:	0001                	nop
80000044:	0001                	nop
80000046:	0001                	nop
80000048:	0001                	nop
8000004a:	0001                	nop
8000004c:	0001                	nop
8000004e:	0001                	nop
80000050:	0001                	nop
80000052:	0001                	nop
80000054:	0001                	nop
80000056:	0001                	nop
80000058:	0001                	nop
8000005a:	0001                	nop
8000005c:	0001                	nop
8000005e:	0001                	nop
80000060:	0001                	nop
80000062:	0001                	nop
80000064:	0001                	nop
80000066:	0001                	nop
80000068:	0001                	nop
8000006a:	0001                	nop
8000006c:	0001                	nop
8000006e:	0001                	nop
80000070:	0001                	nop
80000072:	0001                	nop
80000074:	0001                	nop
80000076:	0001                	nop
80000078:	0001                	nop
8000007a:	0001                	nop
8000007c:	0001                	nop
8000007e:	0001                	nop
80000080:	0001                	nop
80000082:	0001                	nop
80000084:	0001                	nop
80000086:	0001                	nop
80000088:	0001                	nop
8000008a:	0001                	nop
8000008c:	0001                	nop
8000008e:	0001                	nop
80000090:	0001                	nop
80000092:	0001                	nop
80000094:	0001                	nop
80000096:	0001                	nop
80000098:	0001                	nop
8000009a:	0001                	nop
8000009c:	0001                	nop
8000009e:	0001                	nop
800000a0:	0001                	nop
800000a2:	0001                	nop
800000a4:	0001                	nop
800000a6:	0001                	nop
800000a8:	0001                	nop
800000aa:	0001                	nop
800000ac:	0001                	nop
800000ae:	0001                	nop
800000b0:	0001                	nop
800000b2:	0001                	nop
800000b4:	0001                	nop
800000b6:	0001                	nop
800000b8:	0001                	nop
800000ba:	0001                	nop
800000bc:	0001                	nop
800000be:	0001                	nop
800000c0:	0001                	nop
800000c2:	0001                	nop
800000c4:	0001                	nop
800000c6:	0001                	nop
800000c8:	0001                	nop
800000ca:	0001                	nop
800000cc:	0001                	nop
800000ce:	0001                	nop
800000d0:	0001                	nop
800000d2:	0001                	nop
800000d4:	0001                	nop
800000d6:	0001                	nop
800000d8:	0001                	nop
800000da:	0001                	nop
800000dc:	0001                	nop
800000de:	0001                	nop
800000e0:	0001                	nop
800000e2:	0001                	nop
800000e4:	0001                	nop
800000e6:	0001                	nop
800000e8:	0001                	nop
800000ea:	0001                	nop
800000ec:	0001                	nop
800000ee:	00001117          	auipc	sp,0x1
800000f2:	f1210113          	addi	sp,sp,-238 # 80001000 <codasip_signature_start>
800000f6:	4401                	li	s0,0
800000f8:	00001617          	auipc	a2,0x1
800000fc:	f1c60613          	addi	a2,a2,-228 # 80001014 <test_data>
80000100:	c200                	sw	s0,0(a2)
80000102:	4200                	lw	s0,0(a2)
80000104:	c022                	sw	s0,0(sp)
80000106:	00001117          	auipc	sp,0x1
8000010a:	efe10113          	addi	sp,sp,-258 # 80001004 <test_2_res>
8000010e:	4485                	li	s1,1
80000110:	00001797          	auipc	a5,0x1
80000114:	f0478793          	addi	a5,a5,-252 # 80001014 <test_data>
80000118:	c3c4                	sw	s1,4(a5)
8000011a:	43c4                	lw	s1,4(a5)
8000011c:	c026                	sw	s1,0(sp)
8000011e:	00001117          	auipc	sp,0x1
80000122:	eea10113          	addi	sp,sp,-278 # 80001008 <test_3_res>
80000126:	557d                	li	a0,-1
80000128:	00001497          	auipc	s1,0x1
8000012c:	eec48493          	addi	s1,s1,-276 # 80001014 <test_data>
80000130:	c488                	sw	a0,8(s1)
80000132:	4488                	lw	a0,8(s1)
80000134:	c02a                	sw	a0,0(sp)
80000136:	00001117          	auipc	sp,0x1
8000013a:	ed610113          	addi	sp,sp,-298 # 8000100c <test_4_res>
8000013e:	000086b7          	lui	a3,0x8
80000142:	fff68693          	addi	a3,a3,-1 # 7fff <_start-0x7fff8001>
80000146:	00001717          	auipc	a4,0x1
8000014a:	ece70713          	addi	a4,a4,-306 # 80001014 <test_data>
8000014e:	cb14                	sw	a3,16(a4)
80000150:	4b14                	lw	a3,16(a4)
80000152:	c036                	sw	a3,0(sp)
80000154:	00001117          	auipc	sp,0x1
80000158:	ebc10113          	addi	sp,sp,-324 # 80001010 <test_5_res>
8000015c:	67a1                	lui	a5,0x8
8000015e:	00001617          	auipc	a2,0x1
80000162:	eb660613          	addi	a2,a2,-330 # 80001014 <test_data>
80000166:	de7c                	sw	a5,124(a2)
80000168:	5e7c                	lw	a5,124(a2)
8000016a:	c03e                	sw	a5,0(sp)
8000016c:	00001517          	auipc	a0,0x1
80000170:	e9450513          	addi	a0,a0,-364 # 80001000 <codasip_signature_start>
80000174:	00001597          	auipc	a1,0x1
80000178:	f2c58593          	addi	a1,a1,-212 # 800010a0 <_end>
8000017c:	f0100637          	lui	a2,0xf0100
80000180:	f2c60613          	addi	a2,a2,-212 # f00fff2c <_end+0x700fee8c>

80000184 <complience_halt_loop>:
80000184:	00b50c63          	beq	a0,a1,8000019c <complience_halt_break>
80000188:	4554                	lw	a3,12(a0)
8000018a:	c214                	sw	a3,0(a2)
8000018c:	4514                	lw	a3,8(a0)
8000018e:	c214                	sw	a3,0(a2)
80000190:	4154                	lw	a3,4(a0)
80000192:	c214                	sw	a3,0(a2)
80000194:	4114                	lw	a3,0(a0)
80000196:	c214                	sw	a3,0(a2)
80000198:	0541                	addi	a0,a0,16
8000019a:	b7ed                	j	80000184 <complience_halt_loop>

8000019c <complience_halt_break>:
8000019c:	f0100537          	lui	a0,0xf0100
800001a0:	f2050513          	addi	a0,a0,-224 # f00fff20 <_end+0x700fee80>
800001a4:	00052023          	sw	zero,0(a0)
	...

Disassembly of section .data:

80001000 <codasip_signature_start>:
80001000:	ffff                	0xffff
80001002:	ffff                	0xffff

80001004 <test_2_res>:
80001004:	ffff                	0xffff
80001006:	ffff                	0xffff

80001008 <test_3_res>:
80001008:	ffff                	0xffff
8000100a:	ffff                	0xffff

8000100c <test_4_res>:
8000100c:	ffff                	0xffff
8000100e:	ffff                	0xffff

80001010 <test_5_res>:
80001010:	ffff                	0xffff
80001012:	ffff                	0xffff

80001014 <test_data>:
80001014:	ffff                	0xffff
80001016:	ffff                	0xffff
80001018:	ffff                	0xffff
8000101a:	ffff                	0xffff
8000101c:	ffff                	0xffff
8000101e:	ffff                	0xffff
80001020:	ffff                	0xffff
80001022:	ffff                	0xffff
80001024:	ffff                	0xffff
80001026:	ffff                	0xffff
80001028:	ffff                	0xffff
8000102a:	ffff                	0xffff
8000102c:	ffff                	0xffff
8000102e:	ffff                	0xffff
80001030:	ffff                	0xffff
80001032:	ffff                	0xffff
80001034:	ffff                	0xffff
80001036:	ffff                	0xffff
80001038:	ffff                	0xffff
8000103a:	ffff                	0xffff
8000103c:	ffff                	0xffff
8000103e:	ffff                	0xffff
80001040:	ffff                	0xffff
80001042:	ffff                	0xffff
80001044:	ffff                	0xffff
80001046:	ffff                	0xffff
80001048:	ffff                	0xffff
8000104a:	ffff                	0xffff
8000104c:	ffff                	0xffff
8000104e:	ffff                	0xffff
80001050:	ffff                	0xffff
80001052:	ffff                	0xffff
80001054:	ffff                	0xffff
80001056:	ffff                	0xffff
80001058:	ffff                	0xffff
8000105a:	ffff                	0xffff
8000105c:	ffff                	0xffff
8000105e:	ffff                	0xffff
80001060:	ffff                	0xffff
80001062:	ffff                	0xffff
80001064:	ffff                	0xffff
80001066:	ffff                	0xffff
80001068:	ffff                	0xffff
8000106a:	ffff                	0xffff
8000106c:	ffff                	0xffff
8000106e:	ffff                	0xffff
80001070:	ffff                	0xffff
80001072:	ffff                	0xffff
80001074:	ffff                	0xffff
80001076:	ffff                	0xffff
80001078:	ffff                	0xffff
8000107a:	ffff                	0xffff
8000107c:	ffff                	0xffff
8000107e:	ffff                	0xffff
80001080:	ffff                	0xffff
80001082:	ffff                	0xffff
80001084:	ffff                	0xffff
80001086:	ffff                	0xffff
80001088:	ffff                	0xffff
8000108a:	ffff                	0xffff
8000108c:	ffff                	0xffff
8000108e:	ffff                	0xffff
80001090:	ffff                	0xffff
80001092:	ffff                	0xffff
	...
