
rv32ui-p-srai:     file format elf32-littleriscv


Disassembly of section .text.init:

80000000 <_start>:
80000000:	04c0006f          	j	8000004c <reset_vector>

80000004 <trap_vector>:
80000004:	34202f73          	csrr	t5,mcause
80000008:	00800f93          	li	t6,8
8000000c:	03ff0a63          	beq	t5,t6,80000040 <write_tohost>
80000010:	00900f93          	li	t6,9
80000014:	03ff0663          	beq	t5,t6,80000040 <write_tohost>
80000018:	00b00f93          	li	t6,11
8000001c:	03ff0263          	beq	t5,t6,80000040 <write_tohost>
80000020:	80000f17          	auipc	t5,0x80000
80000024:	fe0f0f13          	addi	t5,t5,-32 # 0 <_start-0x80000000>
80000028:	000f0463          	beqz	t5,80000030 <trap_vector+0x2c>
8000002c:	000f0067          	jr	t5
80000030:	34202f73          	csrr	t5,mcause
80000034:	000f5463          	bgez	t5,8000003c <handle_exception>
80000038:	0040006f          	j	8000003c <handle_exception>

8000003c <handle_exception>:
8000003c:	539e6e13          	ori	t3,t3,1337

80000040 <write_tohost>:
80000040:	00001f17          	auipc	t5,0x1
80000044:	fdcf2023          	sw	t3,-64(t5) # 80001000 <tohost>
80000048:	ff9ff06f          	j	80000040 <write_tohost>

8000004c <reset_vector>:
8000004c:	f1402573          	csrr	a0,mhartid
80000050:	00051063          	bnez	a0,80000050 <reset_vector+0x4>
80000054:	30102573          	csrr	a0,misa
80000058:	00055863          	bgez	a0,80000068 <reset_vector+0x1c>
8000005c:	0ff0000f          	fence
80000060:	00100e13          	li	t3,1
80000064:	00000073          	ecall
80000068:	00000e13          	li	t3,0
8000006c:	00000297          	auipc	t0,0x0
80000070:	f9828293          	addi	t0,t0,-104 # 80000004 <trap_vector>
80000074:	30529073          	csrw	mtvec,t0
80000078:	30205073          	csrwi	medeleg,0
8000007c:	30305073          	csrwi	mideleg,0
80000080:	30405073          	csrwi	mie,0
80000084:	80000297          	auipc	t0,0x80000
80000088:	f7c28293          	addi	t0,t0,-132 # 0 <_start-0x80000000>
8000008c:	00028c63          	beqz	t0,800000a4 <reset_vector+0x58>
80000090:	10529073          	csrw	stvec,t0
80000094:	1ab00293          	li	t0,427
80000098:	30229073          	csrw	medeleg,t0
8000009c:	30202373          	csrr	t1,medeleg
800000a0:	f8629ee3          	bne	t0,t1,8000003c <handle_exception>
800000a4:	30005073          	csrwi	mstatus,0
800000a8:	00000297          	auipc	t0,0x0
800000ac:	01428293          	addi	t0,t0,20 # 800000bc <test_2>
800000b0:	34129073          	csrw	mepc,t0
800000b4:	f1402573          	csrr	a0,mhartid
800000b8:	30200073          	mret

800000bc <test_2>:
800000bc:	00000093          	li	ra,0
800000c0:	4000d193          	srai	gp,ra,0x0
800000c4:	00000e93          	li	t4,0
800000c8:	00200e13          	li	t3,2
800000cc:	2bd19463          	bne	gp,t4,80000374 <fail>

800000d0 <test_3>:
800000d0:	800000b7          	lui	ra,0x80000
800000d4:	4010d193          	srai	gp,ra,0x1
800000d8:	c0000eb7          	lui	t4,0xc0000
800000dc:	00300e13          	li	t3,3
800000e0:	29d19a63          	bne	gp,t4,80000374 <fail>

800000e4 <test_4>:
800000e4:	800000b7          	lui	ra,0x80000
800000e8:	4070d193          	srai	gp,ra,0x7
800000ec:	ff000eb7          	lui	t4,0xff000
800000f0:	00400e13          	li	t3,4
800000f4:	29d19063          	bne	gp,t4,80000374 <fail>

800000f8 <test_5>:
800000f8:	800000b7          	lui	ra,0x80000
800000fc:	40e0d193          	srai	gp,ra,0xe
80000100:	fffe0eb7          	lui	t4,0xfffe0
80000104:	00500e13          	li	t3,5
80000108:	27d19663          	bne	gp,t4,80000374 <fail>

8000010c <test_6>:
8000010c:	800000b7          	lui	ra,0x80000
80000110:	00108093          	addi	ra,ra,1 # 80000001 <begin_signature+0xffffe001>
80000114:	41f0d193          	srai	gp,ra,0x1f
80000118:	fff00e93          	li	t4,-1
8000011c:	00600e13          	li	t3,6
80000120:	25d19a63          	bne	gp,t4,80000374 <fail>

80000124 <test_7>:
80000124:	800000b7          	lui	ra,0x80000
80000128:	fff08093          	addi	ra,ra,-1 # 7fffffff <begin_signature+0xffffdfff>
8000012c:	4000d193          	srai	gp,ra,0x0
80000130:	80000eb7          	lui	t4,0x80000
80000134:	fffe8e93          	addi	t4,t4,-1 # 7fffffff <begin_signature+0xffffdfff>
80000138:	00700e13          	li	t3,7
8000013c:	23d19c63          	bne	gp,t4,80000374 <fail>

80000140 <test_8>:
80000140:	800000b7          	lui	ra,0x80000
80000144:	fff08093          	addi	ra,ra,-1 # 7fffffff <begin_signature+0xffffdfff>
80000148:	4010d193          	srai	gp,ra,0x1
8000014c:	40000eb7          	lui	t4,0x40000
80000150:	fffe8e93          	addi	t4,t4,-1 # 3fffffff <_start-0x40000001>
80000154:	00800e13          	li	t3,8
80000158:	21d19e63          	bne	gp,t4,80000374 <fail>

8000015c <test_9>:
8000015c:	800000b7          	lui	ra,0x80000
80000160:	fff08093          	addi	ra,ra,-1 # 7fffffff <begin_signature+0xffffdfff>
80000164:	4070d193          	srai	gp,ra,0x7
80000168:	01000eb7          	lui	t4,0x1000
8000016c:	fffe8e93          	addi	t4,t4,-1 # ffffff <_start-0x7f000001>
80000170:	00900e13          	li	t3,9
80000174:	21d19063          	bne	gp,t4,80000374 <fail>

80000178 <test_10>:
80000178:	800000b7          	lui	ra,0x80000
8000017c:	fff08093          	addi	ra,ra,-1 # 7fffffff <begin_signature+0xffffdfff>
80000180:	40e0d193          	srai	gp,ra,0xe
80000184:	00020eb7          	lui	t4,0x20
80000188:	fffe8e93          	addi	t4,t4,-1 # 1ffff <_start-0x7ffe0001>
8000018c:	00a00e13          	li	t3,10
80000190:	1fd19263          	bne	gp,t4,80000374 <fail>

80000194 <test_11>:
80000194:	800000b7          	lui	ra,0x80000
80000198:	fff08093          	addi	ra,ra,-1 # 7fffffff <begin_signature+0xffffdfff>
8000019c:	41f0d193          	srai	gp,ra,0x1f
800001a0:	00000e93          	li	t4,0
800001a4:	00b00e13          	li	t3,11
800001a8:	1dd19663          	bne	gp,t4,80000374 <fail>

800001ac <test_12>:
800001ac:	818180b7          	lui	ra,0x81818
800001b0:	18108093          	addi	ra,ra,385 # 81818181 <begin_signature+0x1816181>
800001b4:	4000d193          	srai	gp,ra,0x0
800001b8:	81818eb7          	lui	t4,0x81818
800001bc:	181e8e93          	addi	t4,t4,385 # 81818181 <begin_signature+0x1816181>
800001c0:	00c00e13          	li	t3,12
800001c4:	1bd19863          	bne	gp,t4,80000374 <fail>

800001c8 <test_13>:
800001c8:	818180b7          	lui	ra,0x81818
800001cc:	18108093          	addi	ra,ra,385 # 81818181 <begin_signature+0x1816181>
800001d0:	4010d193          	srai	gp,ra,0x1
800001d4:	c0c0ceb7          	lui	t4,0xc0c0c
800001d8:	0c0e8e93          	addi	t4,t4,192 # c0c0c0c0 <begin_signature+0x40c0a0c0>
800001dc:	00d00e13          	li	t3,13
800001e0:	19d19a63          	bne	gp,t4,80000374 <fail>

800001e4 <test_14>:
800001e4:	818180b7          	lui	ra,0x81818
800001e8:	18108093          	addi	ra,ra,385 # 81818181 <begin_signature+0x1816181>
800001ec:	4070d193          	srai	gp,ra,0x7
800001f0:	ff030eb7          	lui	t4,0xff030
800001f4:	303e8e93          	addi	t4,t4,771 # ff030303 <begin_signature+0x7f02e303>
800001f8:	00e00e13          	li	t3,14
800001fc:	17d19c63          	bne	gp,t4,80000374 <fail>

80000200 <test_15>:
80000200:	818180b7          	lui	ra,0x81818
80000204:	18108093          	addi	ra,ra,385 # 81818181 <begin_signature+0x1816181>
80000208:	40e0d193          	srai	gp,ra,0xe
8000020c:	fffe0eb7          	lui	t4,0xfffe0
80000210:	606e8e93          	addi	t4,t4,1542 # fffe0606 <begin_signature+0x7ffde606>
80000214:	00f00e13          	li	t3,15
80000218:	15d19e63          	bne	gp,t4,80000374 <fail>

8000021c <test_16>:
8000021c:	818180b7          	lui	ra,0x81818
80000220:	18108093          	addi	ra,ra,385 # 81818181 <begin_signature+0x1816181>
80000224:	41f0d193          	srai	gp,ra,0x1f
80000228:	fff00e93          	li	t4,-1
8000022c:	01000e13          	li	t3,16
80000230:	15d19263          	bne	gp,t4,80000374 <fail>

80000234 <test_17>:
80000234:	800000b7          	lui	ra,0x80000
80000238:	4070d093          	srai	ra,ra,0x7
8000023c:	ff000eb7          	lui	t4,0xff000
80000240:	01100e13          	li	t3,17
80000244:	13d09863          	bne	ra,t4,80000374 <fail>

80000248 <test_18>:
80000248:	00000213          	li	tp,0
8000024c:	800000b7          	lui	ra,0x80000
80000250:	4070d193          	srai	gp,ra,0x7
80000254:	00018313          	mv	t1,gp
80000258:	00120213          	addi	tp,tp,1 # 1 <_start-0x7fffffff>
8000025c:	00200293          	li	t0,2
80000260:	fe5216e3          	bne	tp,t0,8000024c <test_18+0x4>
80000264:	ff000eb7          	lui	t4,0xff000
80000268:	01200e13          	li	t3,18
8000026c:	11d31463          	bne	t1,t4,80000374 <fail>

80000270 <test_19>:
80000270:	00000213          	li	tp,0
80000274:	800000b7          	lui	ra,0x80000
80000278:	40e0d193          	srai	gp,ra,0xe
8000027c:	00000013          	nop
80000280:	00018313          	mv	t1,gp
80000284:	00120213          	addi	tp,tp,1 # 1 <_start-0x7fffffff>
80000288:	00200293          	li	t0,2
8000028c:	fe5214e3          	bne	tp,t0,80000274 <test_19+0x4>
80000290:	fffe0eb7          	lui	t4,0xfffe0
80000294:	01300e13          	li	t3,19
80000298:	0dd31e63          	bne	t1,t4,80000374 <fail>

8000029c <test_20>:
8000029c:	00000213          	li	tp,0
800002a0:	800000b7          	lui	ra,0x80000
800002a4:	00108093          	addi	ra,ra,1 # 80000001 <begin_signature+0xffffe001>
800002a8:	41f0d193          	srai	gp,ra,0x1f
800002ac:	00000013          	nop
800002b0:	00000013          	nop
800002b4:	00018313          	mv	t1,gp
800002b8:	00120213          	addi	tp,tp,1 # 1 <_start-0x7fffffff>
800002bc:	00200293          	li	t0,2
800002c0:	fe5210e3          	bne	tp,t0,800002a0 <test_20+0x4>
800002c4:	fff00e93          	li	t4,-1
800002c8:	01400e13          	li	t3,20
800002cc:	0bd31463          	bne	t1,t4,80000374 <fail>

800002d0 <test_21>:
800002d0:	00000213          	li	tp,0
800002d4:	800000b7          	lui	ra,0x80000
800002d8:	4070d193          	srai	gp,ra,0x7
800002dc:	00120213          	addi	tp,tp,1 # 1 <_start-0x7fffffff>
800002e0:	00200293          	li	t0,2
800002e4:	fe5218e3          	bne	tp,t0,800002d4 <test_21+0x4>
800002e8:	ff000eb7          	lui	t4,0xff000
800002ec:	01500e13          	li	t3,21
800002f0:	09d19263          	bne	gp,t4,80000374 <fail>

800002f4 <test_22>:
800002f4:	00000213          	li	tp,0
800002f8:	800000b7          	lui	ra,0x80000
800002fc:	00000013          	nop
80000300:	40e0d193          	srai	gp,ra,0xe
80000304:	00120213          	addi	tp,tp,1 # 1 <_start-0x7fffffff>
80000308:	00200293          	li	t0,2
8000030c:	fe5216e3          	bne	tp,t0,800002f8 <test_22+0x4>
80000310:	fffe0eb7          	lui	t4,0xfffe0
80000314:	01600e13          	li	t3,22
80000318:	05d19e63          	bne	gp,t4,80000374 <fail>

8000031c <test_23>:
8000031c:	00000213          	li	tp,0
80000320:	800000b7          	lui	ra,0x80000
80000324:	00108093          	addi	ra,ra,1 # 80000001 <begin_signature+0xffffe001>
80000328:	00000013          	nop
8000032c:	00000013          	nop
80000330:	41f0d193          	srai	gp,ra,0x1f
80000334:	00120213          	addi	tp,tp,1 # 1 <_start-0x7fffffff>
80000338:	00200293          	li	t0,2
8000033c:	fe5212e3          	bne	tp,t0,80000320 <test_23+0x4>
80000340:	fff00e93          	li	t4,-1
80000344:	01700e13          	li	t3,23
80000348:	03d19663          	bne	gp,t4,80000374 <fail>

8000034c <test_24>:
8000034c:	40405093          	srai	ra,zero,0x4
80000350:	00000e93          	li	t4,0
80000354:	01800e13          	li	t3,24
80000358:	01d09e63          	bne	ra,t4,80000374 <fail>

8000035c <test_25>:
8000035c:	02100093          	li	ra,33
80000360:	40a0d013          	srai	zero,ra,0xa
80000364:	00000e93          	li	t4,0
80000368:	01900e13          	li	t3,25
8000036c:	01d01463          	bne	zero,t4,80000374 <fail>
80000370:	01c01c63          	bne	zero,t3,80000388 <pass>

80000374 <fail>:
80000374:	0ff0000f          	fence
80000378:	000e0063          	beqz	t3,80000378 <fail+0x4>
8000037c:	001e1e13          	slli	t3,t3,0x1
80000380:	001e6e13          	ori	t3,t3,1
80000384:	00000073          	ecall

80000388 <pass>:
80000388:	0ff0000f          	fence
8000038c:	00100e13          	li	t3,1
80000390:	00000073          	ecall
80000394:	c0001073          	unimp
80000398:	0000                	unimp
8000039a:	0000                	unimp
8000039c:	0000                	unimp
8000039e:	0000                	unimp
800003a0:	0000                	unimp
800003a2:	0000                	unimp
800003a4:	0000                	unimp
800003a6:	0000                	unimp
800003a8:	0000                	unimp
800003aa:	0000                	unimp
800003ac:	0000                	unimp
800003ae:	0000                	unimp
800003b0:	0000                	unimp
800003b2:	0000                	unimp
800003b4:	0000                	unimp
800003b6:	0000                	unimp
800003b8:	0000                	unimp
800003ba:	0000                	unimp
800003bc:	0000                	unimp
800003be:	0000                	unimp
800003c0:	0000                	unimp
800003c2:	0000                	unimp
