
rv32ui-p-bgeu:     file format elf32-littleriscv


Disassembly of section .text.init:

80000000 <_start>:
80000000:	04c0006f          	j	8000004c <reset_vector>

80000004 <trap_vector>:
80000004:	34202f73          	csrr	t5,mcause
80000008:	00800f93          	li	t6,8
8000000c:	03ff0a63          	beq	t5,t6,80000040 <write_tohost>
80000010:	00900f93          	li	t6,9
80000014:	03ff0663          	beq	t5,t6,80000040 <write_tohost>
80000018:	00b00f93          	li	t6,11
8000001c:	03ff0263          	beq	t5,t6,80000040 <write_tohost>
80000020:	80000f17          	auipc	t5,0x80000
80000024:	fe0f0f13          	addi	t5,t5,-32 # 0 <_start-0x80000000>
80000028:	000f0463          	beqz	t5,80000030 <trap_vector+0x2c>
8000002c:	000f0067          	jr	t5
80000030:	34202f73          	csrr	t5,mcause
80000034:	000f5463          	bgez	t5,8000003c <handle_exception>
80000038:	0040006f          	j	8000003c <handle_exception>

8000003c <handle_exception>:
8000003c:	539e6e13          	ori	t3,t3,1337

80000040 <write_tohost>:
80000040:	00001f17          	auipc	t5,0x1
80000044:	fdcf2023          	sw	t3,-64(t5) # 80001000 <tohost>
80000048:	ff9ff06f          	j	80000040 <write_tohost>

8000004c <reset_vector>:
8000004c:	f1402573          	csrr	a0,mhartid
80000050:	00051063          	bnez	a0,80000050 <reset_vector+0x4>
80000054:	30102573          	csrr	a0,misa
80000058:	00055863          	bgez	a0,80000068 <reset_vector+0x1c>
8000005c:	0ff0000f          	fence
80000060:	00100e13          	li	t3,1
80000064:	00000073          	ecall
80000068:	00000e13          	li	t3,0
8000006c:	00000297          	auipc	t0,0x0
80000070:	f9828293          	addi	t0,t0,-104 # 80000004 <trap_vector>
80000074:	30529073          	csrw	mtvec,t0
80000078:	30205073          	csrwi	medeleg,0
8000007c:	30305073          	csrwi	mideleg,0
80000080:	30405073          	csrwi	mie,0
80000084:	80000297          	auipc	t0,0x80000
80000088:	f7c28293          	addi	t0,t0,-132 # 0 <_start-0x80000000>
8000008c:	00028c63          	beqz	t0,800000a4 <reset_vector+0x58>
80000090:	10529073          	csrw	stvec,t0
80000094:	1ab00293          	li	t0,427
80000098:	30229073          	csrw	medeleg,t0
8000009c:	30202373          	csrr	t1,medeleg
800000a0:	f8629ee3          	bne	t0,t1,8000003c <handle_exception>
800000a4:	30005073          	csrwi	mstatus,0
800000a8:	00000297          	auipc	t0,0x0
800000ac:	01428293          	addi	t0,t0,20 # 800000bc <test_2>
800000b0:	34129073          	csrw	mepc,t0
800000b4:	f1402573          	csrr	a0,mhartid
800000b8:	30200073          	mret

800000bc <test_2>:
800000bc:	00200e13          	li	t3,2
800000c0:	00000093          	li	ra,0
800000c4:	00000113          	li	sp,0
800000c8:	0020f663          	bleu	sp,ra,800000d4 <test_2+0x18>
800000cc:	35c01263          	bne	zero,t3,80000410 <fail>
800000d0:	01c01663          	bne	zero,t3,800000dc <test_3>
800000d4:	fe20fee3          	bleu	sp,ra,800000d0 <test_2+0x14>
800000d8:	33c01c63          	bne	zero,t3,80000410 <fail>

800000dc <test_3>:
800000dc:	00300e13          	li	t3,3
800000e0:	00100093          	li	ra,1
800000e4:	00100113          	li	sp,1
800000e8:	0020f663          	bleu	sp,ra,800000f4 <test_3+0x18>
800000ec:	33c01263          	bne	zero,t3,80000410 <fail>
800000f0:	01c01663          	bne	zero,t3,800000fc <test_4>
800000f4:	fe20fee3          	bleu	sp,ra,800000f0 <test_3+0x14>
800000f8:	31c01c63          	bne	zero,t3,80000410 <fail>

800000fc <test_4>:
800000fc:	00400e13          	li	t3,4
80000100:	fff00093          	li	ra,-1
80000104:	fff00113          	li	sp,-1
80000108:	0020f663          	bleu	sp,ra,80000114 <test_4+0x18>
8000010c:	31c01263          	bne	zero,t3,80000410 <fail>
80000110:	01c01663          	bne	zero,t3,8000011c <test_5>
80000114:	fe20fee3          	bleu	sp,ra,80000110 <test_4+0x14>
80000118:	2fc01c63          	bne	zero,t3,80000410 <fail>

8000011c <test_5>:
8000011c:	00500e13          	li	t3,5
80000120:	00100093          	li	ra,1
80000124:	00000113          	li	sp,0
80000128:	0020f663          	bleu	sp,ra,80000134 <test_5+0x18>
8000012c:	2fc01263          	bne	zero,t3,80000410 <fail>
80000130:	01c01663          	bne	zero,t3,8000013c <test_6>
80000134:	fe20fee3          	bleu	sp,ra,80000130 <test_5+0x14>
80000138:	2dc01c63          	bne	zero,t3,80000410 <fail>

8000013c <test_6>:
8000013c:	00600e13          	li	t3,6
80000140:	fff00093          	li	ra,-1
80000144:	ffe00113          	li	sp,-2
80000148:	0020f663          	bleu	sp,ra,80000154 <test_6+0x18>
8000014c:	2dc01263          	bne	zero,t3,80000410 <fail>
80000150:	01c01663          	bne	zero,t3,8000015c <test_7>
80000154:	fe20fee3          	bleu	sp,ra,80000150 <test_6+0x14>
80000158:	2bc01c63          	bne	zero,t3,80000410 <fail>

8000015c <test_7>:
8000015c:	00700e13          	li	t3,7
80000160:	fff00093          	li	ra,-1
80000164:	00000113          	li	sp,0
80000168:	0020f663          	bleu	sp,ra,80000174 <test_7+0x18>
8000016c:	2bc01263          	bne	zero,t3,80000410 <fail>
80000170:	01c01663          	bne	zero,t3,8000017c <test_8>
80000174:	fe20fee3          	bleu	sp,ra,80000170 <test_7+0x14>
80000178:	29c01c63          	bne	zero,t3,80000410 <fail>

8000017c <test_8>:
8000017c:	00800e13          	li	t3,8
80000180:	00000093          	li	ra,0
80000184:	00100113          	li	sp,1
80000188:	0020f463          	bleu	sp,ra,80000190 <test_8+0x14>
8000018c:	01c01463          	bne	zero,t3,80000194 <test_8+0x18>
80000190:	29c01063          	bne	zero,t3,80000410 <fail>
80000194:	fe20fee3          	bleu	sp,ra,80000190 <test_8+0x14>

80000198 <test_9>:
80000198:	00900e13          	li	t3,9
8000019c:	ffe00093          	li	ra,-2
800001a0:	fff00113          	li	sp,-1
800001a4:	0020f463          	bleu	sp,ra,800001ac <test_9+0x14>
800001a8:	01c01463          	bne	zero,t3,800001b0 <test_9+0x18>
800001ac:	27c01263          	bne	zero,t3,80000410 <fail>
800001b0:	fe20fee3          	bleu	sp,ra,800001ac <test_9+0x14>

800001b4 <test_10>:
800001b4:	00a00e13          	li	t3,10
800001b8:	00000093          	li	ra,0
800001bc:	fff00113          	li	sp,-1
800001c0:	0020f463          	bleu	sp,ra,800001c8 <test_10+0x14>
800001c4:	01c01463          	bne	zero,t3,800001cc <test_10+0x18>
800001c8:	25c01463          	bne	zero,t3,80000410 <fail>
800001cc:	fe20fee3          	bleu	sp,ra,800001c8 <test_10+0x14>

800001d0 <test_11>:
800001d0:	00b00e13          	li	t3,11
800001d4:	800000b7          	lui	ra,0x80000
800001d8:	fff08093          	addi	ra,ra,-1 # 7fffffff <begin_signature+0xffffdfff>
800001dc:	80000137          	lui	sp,0x80000
800001e0:	0020f463          	bleu	sp,ra,800001e8 <test_11+0x18>
800001e4:	01c01463          	bne	zero,t3,800001ec <test_11+0x1c>
800001e8:	23c01463          	bne	zero,t3,80000410 <fail>
800001ec:	fe20fee3          	bleu	sp,ra,800001e8 <test_11+0x18>

800001f0 <test_12>:
800001f0:	00c00e13          	li	t3,12
800001f4:	00000213          	li	tp,0
800001f8:	f00000b7          	lui	ra,0xf0000
800001fc:	fff08093          	addi	ra,ra,-1 # efffffff <begin_signature+0x6fffdfff>
80000200:	f0000137          	lui	sp,0xf0000
80000204:	2020f663          	bleu	sp,ra,80000410 <fail>
80000208:	00120213          	addi	tp,tp,1 # 1 <_start-0x7fffffff>
8000020c:	00200293          	li	t0,2
80000210:	fe5214e3          	bne	tp,t0,800001f8 <test_12+0x8>

80000214 <test_13>:
80000214:	00d00e13          	li	t3,13
80000218:	00000213          	li	tp,0
8000021c:	f00000b7          	lui	ra,0xf0000
80000220:	fff08093          	addi	ra,ra,-1 # efffffff <begin_signature+0x6fffdfff>
80000224:	f0000137          	lui	sp,0xf0000
80000228:	00000013          	nop
8000022c:	1e20f263          	bleu	sp,ra,80000410 <fail>
80000230:	00120213          	addi	tp,tp,1 # 1 <_start-0x7fffffff>
80000234:	00200293          	li	t0,2
80000238:	fe5212e3          	bne	tp,t0,8000021c <test_13+0x8>

8000023c <test_14>:
8000023c:	00e00e13          	li	t3,14
80000240:	00000213          	li	tp,0
80000244:	f00000b7          	lui	ra,0xf0000
80000248:	fff08093          	addi	ra,ra,-1 # efffffff <begin_signature+0x6fffdfff>
8000024c:	f0000137          	lui	sp,0xf0000
80000250:	00000013          	nop
80000254:	00000013          	nop
80000258:	1a20fc63          	bleu	sp,ra,80000410 <fail>
8000025c:	00120213          	addi	tp,tp,1 # 1 <_start-0x7fffffff>
80000260:	00200293          	li	t0,2
80000264:	fe5210e3          	bne	tp,t0,80000244 <test_14+0x8>

80000268 <test_15>:
80000268:	00f00e13          	li	t3,15
8000026c:	00000213          	li	tp,0
80000270:	f00000b7          	lui	ra,0xf0000
80000274:	fff08093          	addi	ra,ra,-1 # efffffff <begin_signature+0x6fffdfff>
80000278:	00000013          	nop
8000027c:	f0000137          	lui	sp,0xf0000
80000280:	1820f863          	bleu	sp,ra,80000410 <fail>
80000284:	00120213          	addi	tp,tp,1 # 1 <_start-0x7fffffff>
80000288:	00200293          	li	t0,2
8000028c:	fe5212e3          	bne	tp,t0,80000270 <test_15+0x8>

80000290 <test_16>:
80000290:	01000e13          	li	t3,16
80000294:	00000213          	li	tp,0
80000298:	f00000b7          	lui	ra,0xf0000
8000029c:	fff08093          	addi	ra,ra,-1 # efffffff <begin_signature+0x6fffdfff>
800002a0:	00000013          	nop
800002a4:	f0000137          	lui	sp,0xf0000
800002a8:	00000013          	nop
800002ac:	1620f263          	bleu	sp,ra,80000410 <fail>
800002b0:	00120213          	addi	tp,tp,1 # 1 <_start-0x7fffffff>
800002b4:	00200293          	li	t0,2
800002b8:	fe5210e3          	bne	tp,t0,80000298 <test_16+0x8>

800002bc <test_17>:
800002bc:	01100e13          	li	t3,17
800002c0:	00000213          	li	tp,0
800002c4:	f00000b7          	lui	ra,0xf0000
800002c8:	fff08093          	addi	ra,ra,-1 # efffffff <begin_signature+0x6fffdfff>
800002cc:	00000013          	nop
800002d0:	00000013          	nop
800002d4:	f0000137          	lui	sp,0xf0000
800002d8:	1220fc63          	bleu	sp,ra,80000410 <fail>
800002dc:	00120213          	addi	tp,tp,1 # 1 <_start-0x7fffffff>
800002e0:	00200293          	li	t0,2
800002e4:	fe5210e3          	bne	tp,t0,800002c4 <test_17+0x8>

800002e8 <test_18>:
800002e8:	01200e13          	li	t3,18
800002ec:	00000213          	li	tp,0
800002f0:	f00000b7          	lui	ra,0xf0000
800002f4:	fff08093          	addi	ra,ra,-1 # efffffff <begin_signature+0x6fffdfff>
800002f8:	f0000137          	lui	sp,0xf0000
800002fc:	1020fa63          	bleu	sp,ra,80000410 <fail>
80000300:	00120213          	addi	tp,tp,1 # 1 <_start-0x7fffffff>
80000304:	00200293          	li	t0,2
80000308:	fe5214e3          	bne	tp,t0,800002f0 <test_18+0x8>

8000030c <test_19>:
8000030c:	01300e13          	li	t3,19
80000310:	00000213          	li	tp,0
80000314:	f00000b7          	lui	ra,0xf0000
80000318:	fff08093          	addi	ra,ra,-1 # efffffff <begin_signature+0x6fffdfff>
8000031c:	f0000137          	lui	sp,0xf0000
80000320:	00000013          	nop
80000324:	0e20f663          	bleu	sp,ra,80000410 <fail>
80000328:	00120213          	addi	tp,tp,1 # 1 <_start-0x7fffffff>
8000032c:	00200293          	li	t0,2
80000330:	fe5212e3          	bne	tp,t0,80000314 <test_19+0x8>

80000334 <test_20>:
80000334:	01400e13          	li	t3,20
80000338:	00000213          	li	tp,0
8000033c:	f00000b7          	lui	ra,0xf0000
80000340:	fff08093          	addi	ra,ra,-1 # efffffff <begin_signature+0x6fffdfff>
80000344:	f0000137          	lui	sp,0xf0000
80000348:	00000013          	nop
8000034c:	00000013          	nop
80000350:	0c20f063          	bleu	sp,ra,80000410 <fail>
80000354:	00120213          	addi	tp,tp,1 # 1 <_start-0x7fffffff>
80000358:	00200293          	li	t0,2
8000035c:	fe5210e3          	bne	tp,t0,8000033c <test_20+0x8>

80000360 <test_21>:
80000360:	01500e13          	li	t3,21
80000364:	00000213          	li	tp,0
80000368:	f00000b7          	lui	ra,0xf0000
8000036c:	fff08093          	addi	ra,ra,-1 # efffffff <begin_signature+0x6fffdfff>
80000370:	00000013          	nop
80000374:	f0000137          	lui	sp,0xf0000
80000378:	0820fc63          	bleu	sp,ra,80000410 <fail>
8000037c:	00120213          	addi	tp,tp,1 # 1 <_start-0x7fffffff>
80000380:	00200293          	li	t0,2
80000384:	fe5212e3          	bne	tp,t0,80000368 <test_21+0x8>

80000388 <test_22>:
80000388:	01600e13          	li	t3,22
8000038c:	00000213          	li	tp,0
80000390:	f00000b7          	lui	ra,0xf0000
80000394:	fff08093          	addi	ra,ra,-1 # efffffff <begin_signature+0x6fffdfff>
80000398:	00000013          	nop
8000039c:	f0000137          	lui	sp,0xf0000
800003a0:	00000013          	nop
800003a4:	0620f663          	bleu	sp,ra,80000410 <fail>
800003a8:	00120213          	addi	tp,tp,1 # 1 <_start-0x7fffffff>
800003ac:	00200293          	li	t0,2
800003b0:	fe5210e3          	bne	tp,t0,80000390 <test_22+0x8>

800003b4 <test_23>:
800003b4:	01700e13          	li	t3,23
800003b8:	00000213          	li	tp,0
800003bc:	f00000b7          	lui	ra,0xf0000
800003c0:	fff08093          	addi	ra,ra,-1 # efffffff <begin_signature+0x6fffdfff>
800003c4:	00000013          	nop
800003c8:	00000013          	nop
800003cc:	f0000137          	lui	sp,0xf0000
800003d0:	0420f063          	bleu	sp,ra,80000410 <fail>
800003d4:	00120213          	addi	tp,tp,1 # 1 <_start-0x7fffffff>
800003d8:	00200293          	li	t0,2
800003dc:	fe5210e3          	bne	tp,t0,800003bc <test_23+0x8>

800003e0 <test_24>:
800003e0:	00100093          	li	ra,1
800003e4:	0000fa63          	bleu	zero,ra,800003f8 <test_24+0x18>
800003e8:	00108093          	addi	ra,ra,1
800003ec:	00108093          	addi	ra,ra,1
800003f0:	00108093          	addi	ra,ra,1
800003f4:	00108093          	addi	ra,ra,1
800003f8:	00108093          	addi	ra,ra,1
800003fc:	00108093          	addi	ra,ra,1
80000400:	00300e93          	li	t4,3
80000404:	01800e13          	li	t3,24
80000408:	01d09463          	bne	ra,t4,80000410 <fail>
8000040c:	01c01c63          	bne	zero,t3,80000424 <pass>

80000410 <fail>:
80000410:	0ff0000f          	fence
80000414:	000e0063          	beqz	t3,80000414 <fail+0x4>
80000418:	001e1e13          	slli	t3,t3,0x1
8000041c:	001e6e13          	ori	t3,t3,1
80000420:	00000073          	ecall

80000424 <pass>:
80000424:	0ff0000f          	fence
80000428:	00100e13          	li	t3,1
8000042c:	00000073          	ecall
80000430:	c0001073          	unimp
80000434:	0000                	unimp
80000436:	0000                	unimp
80000438:	0000                	unimp
8000043a:	0000                	unimp
8000043c:	0000                	unimp
8000043e:	0000                	unimp
80000440:	0000                	unimp
80000442:	0000                	unimp
