
rv32ui-p-beq:     file format elf32-littleriscv


Disassembly of section .text.init:

80000000 <_start>:
80000000:	04c0006f          	j	8000004c <reset_vector>

80000004 <trap_vector>:
80000004:	34202f73          	csrr	t5,mcause
80000008:	00800f93          	li	t6,8
8000000c:	03ff0a63          	beq	t5,t6,80000040 <write_tohost>
80000010:	00900f93          	li	t6,9
80000014:	03ff0663          	beq	t5,t6,80000040 <write_tohost>
80000018:	00b00f93          	li	t6,11
8000001c:	03ff0263          	beq	t5,t6,80000040 <write_tohost>
80000020:	80000f17          	auipc	t5,0x80000
80000024:	fe0f0f13          	addi	t5,t5,-32 # 0 <_start-0x80000000>
80000028:	000f0463          	beqz	t5,80000030 <trap_vector+0x2c>
8000002c:	000f0067          	jr	t5
80000030:	34202f73          	csrr	t5,mcause
80000034:	000f5463          	bgez	t5,8000003c <handle_exception>
80000038:	0040006f          	j	8000003c <handle_exception>

8000003c <handle_exception>:
8000003c:	539e6e13          	ori	t3,t3,1337

80000040 <write_tohost>:
80000040:	00001f17          	auipc	t5,0x1
80000044:	fdcf2023          	sw	t3,-64(t5) # 80001000 <tohost>
80000048:	ff9ff06f          	j	80000040 <write_tohost>

8000004c <reset_vector>:
8000004c:	f1402573          	csrr	a0,mhartid
80000050:	00051063          	bnez	a0,80000050 <reset_vector+0x4>
80000054:	30102573          	csrr	a0,misa
80000058:	00055863          	bgez	a0,80000068 <reset_vector+0x1c>
8000005c:	0ff0000f          	fence
80000060:	00100e13          	li	t3,1
80000064:	00000073          	ecall
80000068:	00000e13          	li	t3,0
8000006c:	00000297          	auipc	t0,0x0
80000070:	f9828293          	addi	t0,t0,-104 # 80000004 <trap_vector>
80000074:	30529073          	csrw	mtvec,t0
80000078:	30205073          	csrwi	medeleg,0
8000007c:	30305073          	csrwi	mideleg,0
80000080:	30405073          	csrwi	mie,0
80000084:	80000297          	auipc	t0,0x80000
80000088:	f7c28293          	addi	t0,t0,-132 # 0 <_start-0x80000000>
8000008c:	00028c63          	beqz	t0,800000a4 <reset_vector+0x58>
80000090:	10529073          	csrw	stvec,t0
80000094:	1ab00293          	li	t0,427
80000098:	30229073          	csrw	medeleg,t0
8000009c:	30202373          	csrr	t1,medeleg
800000a0:	f8629ee3          	bne	t0,t1,8000003c <handle_exception>
800000a4:	30005073          	csrwi	mstatus,0
800000a8:	00000297          	auipc	t0,0x0
800000ac:	01428293          	addi	t0,t0,20 # 800000bc <test_2>
800000b0:	34129073          	csrw	mepc,t0
800000b4:	f1402573          	csrr	a0,mhartid
800000b8:	30200073          	mret

800000bc <test_2>:
800000bc:	00200e13          	li	t3,2
800000c0:	00000093          	li	ra,0
800000c4:	00000113          	li	sp,0
800000c8:	00208663          	beq	ra,sp,800000d4 <test_2+0x18>
800000cc:	2bc01863          	bne	zero,t3,8000037c <fail>
800000d0:	01c01663          	bne	zero,t3,800000dc <test_3>
800000d4:	fe208ee3          	beq	ra,sp,800000d0 <test_2+0x14>
800000d8:	2bc01263          	bne	zero,t3,8000037c <fail>

800000dc <test_3>:
800000dc:	00300e13          	li	t3,3
800000e0:	00100093          	li	ra,1
800000e4:	00100113          	li	sp,1
800000e8:	00208663          	beq	ra,sp,800000f4 <test_3+0x18>
800000ec:	29c01863          	bne	zero,t3,8000037c <fail>
800000f0:	01c01663          	bne	zero,t3,800000fc <test_4>
800000f4:	fe208ee3          	beq	ra,sp,800000f0 <test_3+0x14>
800000f8:	29c01263          	bne	zero,t3,8000037c <fail>

800000fc <test_4>:
800000fc:	00400e13          	li	t3,4
80000100:	fff00093          	li	ra,-1
80000104:	fff00113          	li	sp,-1
80000108:	00208663          	beq	ra,sp,80000114 <test_4+0x18>
8000010c:	27c01863          	bne	zero,t3,8000037c <fail>
80000110:	01c01663          	bne	zero,t3,8000011c <test_5>
80000114:	fe208ee3          	beq	ra,sp,80000110 <test_4+0x14>
80000118:	27c01263          	bne	zero,t3,8000037c <fail>

8000011c <test_5>:
8000011c:	00500e13          	li	t3,5
80000120:	00000093          	li	ra,0
80000124:	00100113          	li	sp,1
80000128:	00208463          	beq	ra,sp,80000130 <test_5+0x14>
8000012c:	01c01463          	bne	zero,t3,80000134 <test_5+0x18>
80000130:	25c01663          	bne	zero,t3,8000037c <fail>
80000134:	fe208ee3          	beq	ra,sp,80000130 <test_5+0x14>

80000138 <test_6>:
80000138:	00600e13          	li	t3,6
8000013c:	00100093          	li	ra,1
80000140:	00000113          	li	sp,0
80000144:	00208463          	beq	ra,sp,8000014c <test_6+0x14>
80000148:	01c01463          	bne	zero,t3,80000150 <test_6+0x18>
8000014c:	23c01863          	bne	zero,t3,8000037c <fail>
80000150:	fe208ee3          	beq	ra,sp,8000014c <test_6+0x14>

80000154 <test_7>:
80000154:	00700e13          	li	t3,7
80000158:	fff00093          	li	ra,-1
8000015c:	00100113          	li	sp,1
80000160:	00208463          	beq	ra,sp,80000168 <test_7+0x14>
80000164:	01c01463          	bne	zero,t3,8000016c <test_7+0x18>
80000168:	21c01a63          	bne	zero,t3,8000037c <fail>
8000016c:	fe208ee3          	beq	ra,sp,80000168 <test_7+0x14>

80000170 <test_8>:
80000170:	00800e13          	li	t3,8
80000174:	00100093          	li	ra,1
80000178:	fff00113          	li	sp,-1
8000017c:	00208463          	beq	ra,sp,80000184 <test_8+0x14>
80000180:	01c01463          	bne	zero,t3,80000188 <test_8+0x18>
80000184:	1fc01c63          	bne	zero,t3,8000037c <fail>
80000188:	fe208ee3          	beq	ra,sp,80000184 <test_8+0x14>

8000018c <test_9>:
8000018c:	00900e13          	li	t3,9
80000190:	00000213          	li	tp,0
80000194:	00000093          	li	ra,0
80000198:	fff00113          	li	sp,-1
8000019c:	1e208063          	beq	ra,sp,8000037c <fail>
800001a0:	00120213          	addi	tp,tp,1 # 1 <_start-0x7fffffff>
800001a4:	00200293          	li	t0,2
800001a8:	fe5216e3          	bne	tp,t0,80000194 <test_9+0x8>

800001ac <test_10>:
800001ac:	00a00e13          	li	t3,10
800001b0:	00000213          	li	tp,0
800001b4:	00000093          	li	ra,0
800001b8:	fff00113          	li	sp,-1
800001bc:	00000013          	nop
800001c0:	1a208e63          	beq	ra,sp,8000037c <fail>
800001c4:	00120213          	addi	tp,tp,1 # 1 <_start-0x7fffffff>
800001c8:	00200293          	li	t0,2
800001cc:	fe5214e3          	bne	tp,t0,800001b4 <test_10+0x8>

800001d0 <test_11>:
800001d0:	00b00e13          	li	t3,11
800001d4:	00000213          	li	tp,0
800001d8:	00000093          	li	ra,0
800001dc:	fff00113          	li	sp,-1
800001e0:	00000013          	nop
800001e4:	00000013          	nop
800001e8:	18208a63          	beq	ra,sp,8000037c <fail>
800001ec:	00120213          	addi	tp,tp,1 # 1 <_start-0x7fffffff>
800001f0:	00200293          	li	t0,2
800001f4:	fe5212e3          	bne	tp,t0,800001d8 <test_11+0x8>

800001f8 <test_12>:
800001f8:	00c00e13          	li	t3,12
800001fc:	00000213          	li	tp,0
80000200:	00000093          	li	ra,0
80000204:	00000013          	nop
80000208:	fff00113          	li	sp,-1
8000020c:	16208863          	beq	ra,sp,8000037c <fail>
80000210:	00120213          	addi	tp,tp,1 # 1 <_start-0x7fffffff>
80000214:	00200293          	li	t0,2
80000218:	fe5214e3          	bne	tp,t0,80000200 <test_12+0x8>

8000021c <test_13>:
8000021c:	00d00e13          	li	t3,13
80000220:	00000213          	li	tp,0
80000224:	00000093          	li	ra,0
80000228:	00000013          	nop
8000022c:	fff00113          	li	sp,-1
80000230:	00000013          	nop
80000234:	14208463          	beq	ra,sp,8000037c <fail>
80000238:	00120213          	addi	tp,tp,1 # 1 <_start-0x7fffffff>
8000023c:	00200293          	li	t0,2
80000240:	fe5212e3          	bne	tp,t0,80000224 <test_13+0x8>

80000244 <test_14>:
80000244:	00e00e13          	li	t3,14
80000248:	00000213          	li	tp,0
8000024c:	00000093          	li	ra,0
80000250:	00000013          	nop
80000254:	00000013          	nop
80000258:	fff00113          	li	sp,-1
8000025c:	12208063          	beq	ra,sp,8000037c <fail>
80000260:	00120213          	addi	tp,tp,1 # 1 <_start-0x7fffffff>
80000264:	00200293          	li	t0,2
80000268:	fe5212e3          	bne	tp,t0,8000024c <test_14+0x8>

8000026c <test_15>:
8000026c:	00f00e13          	li	t3,15
80000270:	00000213          	li	tp,0
80000274:	00000093          	li	ra,0
80000278:	fff00113          	li	sp,-1
8000027c:	10208063          	beq	ra,sp,8000037c <fail>
80000280:	00120213          	addi	tp,tp,1 # 1 <_start-0x7fffffff>
80000284:	00200293          	li	t0,2
80000288:	fe5216e3          	bne	tp,t0,80000274 <test_15+0x8>

8000028c <test_16>:
8000028c:	01000e13          	li	t3,16
80000290:	00000213          	li	tp,0
80000294:	00000093          	li	ra,0
80000298:	fff00113          	li	sp,-1
8000029c:	00000013          	nop
800002a0:	0c208e63          	beq	ra,sp,8000037c <fail>
800002a4:	00120213          	addi	tp,tp,1 # 1 <_start-0x7fffffff>
800002a8:	00200293          	li	t0,2
800002ac:	fe5214e3          	bne	tp,t0,80000294 <test_16+0x8>

800002b0 <test_17>:
800002b0:	01100e13          	li	t3,17
800002b4:	00000213          	li	tp,0
800002b8:	00000093          	li	ra,0
800002bc:	fff00113          	li	sp,-1
800002c0:	00000013          	nop
800002c4:	00000013          	nop
800002c8:	0a208a63          	beq	ra,sp,8000037c <fail>
800002cc:	00120213          	addi	tp,tp,1 # 1 <_start-0x7fffffff>
800002d0:	00200293          	li	t0,2
800002d4:	fe5212e3          	bne	tp,t0,800002b8 <test_17+0x8>

800002d8 <test_18>:
800002d8:	01200e13          	li	t3,18
800002dc:	00000213          	li	tp,0
800002e0:	00000093          	li	ra,0
800002e4:	00000013          	nop
800002e8:	fff00113          	li	sp,-1
800002ec:	08208863          	beq	ra,sp,8000037c <fail>
800002f0:	00120213          	addi	tp,tp,1 # 1 <_start-0x7fffffff>
800002f4:	00200293          	li	t0,2
800002f8:	fe5214e3          	bne	tp,t0,800002e0 <test_18+0x8>

800002fc <test_19>:
800002fc:	01300e13          	li	t3,19
80000300:	00000213          	li	tp,0
80000304:	00000093          	li	ra,0
80000308:	00000013          	nop
8000030c:	fff00113          	li	sp,-1
80000310:	00000013          	nop
80000314:	06208463          	beq	ra,sp,8000037c <fail>
80000318:	00120213          	addi	tp,tp,1 # 1 <_start-0x7fffffff>
8000031c:	00200293          	li	t0,2
80000320:	fe5212e3          	bne	tp,t0,80000304 <test_19+0x8>

80000324 <test_20>:
80000324:	01400e13          	li	t3,20
80000328:	00000213          	li	tp,0
8000032c:	00000093          	li	ra,0
80000330:	00000013          	nop
80000334:	00000013          	nop
80000338:	fff00113          	li	sp,-1
8000033c:	04208063          	beq	ra,sp,8000037c <fail>
80000340:	00120213          	addi	tp,tp,1 # 1 <_start-0x7fffffff>
80000344:	00200293          	li	t0,2
80000348:	fe5212e3          	bne	tp,t0,8000032c <test_20+0x8>

8000034c <test_21>:
8000034c:	00100093          	li	ra,1
80000350:	00000a63          	beqz	zero,80000364 <test_21+0x18>
80000354:	00108093          	addi	ra,ra,1
80000358:	00108093          	addi	ra,ra,1
8000035c:	00108093          	addi	ra,ra,1
80000360:	00108093          	addi	ra,ra,1
80000364:	00108093          	addi	ra,ra,1
80000368:	00108093          	addi	ra,ra,1
8000036c:	00300e93          	li	t4,3
80000370:	01500e13          	li	t3,21
80000374:	01d09463          	bne	ra,t4,8000037c <fail>
80000378:	01c01c63          	bne	zero,t3,80000390 <pass>

8000037c <fail>:
8000037c:	0ff0000f          	fence
80000380:	000e0063          	beqz	t3,80000380 <fail+0x4>
80000384:	001e1e13          	slli	t3,t3,0x1
80000388:	001e6e13          	ori	t3,t3,1
8000038c:	00000073          	ecall

80000390 <pass>:
80000390:	0ff0000f          	fence
80000394:	00100e13          	li	t3,1
80000398:	00000073          	ecall
8000039c:	c0001073          	unimp
800003a0:	0000                	unimp
800003a2:	0000                	unimp
800003a4:	0000                	unimp
800003a6:	0000                	unimp
800003a8:	0000                	unimp
800003aa:	0000                	unimp
800003ac:	0000                	unimp
800003ae:	0000                	unimp
800003b0:	0000                	unimp
800003b2:	0000                	unimp
800003b4:	0000                	unimp
800003b6:	0000                	unimp
800003b8:	0000                	unimp
800003ba:	0000                	unimp
800003bc:	0000                	unimp
800003be:	0000                	unimp
800003c0:	0000                	unimp
800003c2:	0000                	unimp
