
rv32ud-p-fdiv:     file format elf32-littleriscv


Disassembly of section .text.init:

80000000 <_start>:
80000000:	04c0006f          	j	8000004c <reset_vector>

80000004 <trap_vector>:
80000004:	34202f73          	csrr	t5,mcause
80000008:	00800f93          	li	t6,8
8000000c:	03ff0a63          	beq	t5,t6,80000040 <write_tohost>
80000010:	00900f93          	li	t6,9
80000014:	03ff0663          	beq	t5,t6,80000040 <write_tohost>
80000018:	00b00f93          	li	t6,11
8000001c:	03ff0263          	beq	t5,t6,80000040 <write_tohost>
80000020:	80000f17          	auipc	t5,0x80000
80000024:	fe0f0f13          	addi	t5,t5,-32 # 0 <_start-0x80000000>
80000028:	000f0463          	beqz	t5,80000030 <trap_vector+0x2c>
8000002c:	000f0067          	jr	t5
80000030:	34202f73          	csrr	t5,mcause
80000034:	000f5463          	bgez	t5,8000003c <handle_exception>
80000038:	0040006f          	j	8000003c <handle_exception>

8000003c <handle_exception>:
8000003c:	5391e193          	ori	gp,gp,1337

80000040 <write_tohost>:
80000040:	00001f17          	auipc	t5,0x1
80000044:	fc3f2023          	sw	gp,-64(t5) # 80001000 <tohost>
80000048:	ff9ff06f          	j	80000040 <write_tohost>

8000004c <reset_vector>:
8000004c:	00000093          	li	ra,0
80000050:	00000113          	li	sp,0
80000054:	00000193          	li	gp,0
80000058:	00000213          	li	tp,0
8000005c:	00000293          	li	t0,0
80000060:	00000313          	li	t1,0
80000064:	00000393          	li	t2,0
80000068:	00000413          	li	s0,0
8000006c:	00000493          	li	s1,0
80000070:	00000513          	li	a0,0
80000074:	00000593          	li	a1,0
80000078:	00000613          	li	a2,0
8000007c:	00000693          	li	a3,0
80000080:	00000713          	li	a4,0
80000084:	00000793          	li	a5,0
80000088:	00000813          	li	a6,0
8000008c:	00000893          	li	a7,0
80000090:	00000913          	li	s2,0
80000094:	00000993          	li	s3,0
80000098:	00000a13          	li	s4,0
8000009c:	00000a93          	li	s5,0
800000a0:	00000b13          	li	s6,0
800000a4:	00000b93          	li	s7,0
800000a8:	00000c13          	li	s8,0
800000ac:	00000c93          	li	s9,0
800000b0:	00000d13          	li	s10,0
800000b4:	00000d93          	li	s11,0
800000b8:	00000e13          	li	t3,0
800000bc:	00000e93          	li	t4,0
800000c0:	00000f13          	li	t5,0
800000c4:	00000f93          	li	t6,0
800000c8:	f1402573          	csrr	a0,mhartid
800000cc:	00051063          	bnez	a0,800000cc <reset_vector+0x80>
800000d0:	00000297          	auipc	t0,0x0
800000d4:	01028293          	addi	t0,t0,16 # 800000e0 <reset_vector+0x94>
800000d8:	30529073          	csrw	mtvec,t0
800000dc:	18005073          	csrwi	satp,0
800000e0:	00000297          	auipc	t0,0x0
800000e4:	02028293          	addi	t0,t0,32 # 80000100 <reset_vector+0xb4>
800000e8:	30529073          	csrw	mtvec,t0
800000ec:	800002b7          	lui	t0,0x80000
800000f0:	fff28293          	addi	t0,t0,-1 # 7fffffff <_end+0xffffdeff>
800000f4:	3b029073          	csrw	pmpaddr0,t0
800000f8:	01f00293          	li	t0,31
800000fc:	3a029073          	csrw	pmpcfg0,t0
80000100:	30405073          	csrwi	mie,0
80000104:	00000297          	auipc	t0,0x0
80000108:	01428293          	addi	t0,t0,20 # 80000118 <reset_vector+0xcc>
8000010c:	30529073          	csrw	mtvec,t0
80000110:	30205073          	csrwi	medeleg,0
80000114:	30305073          	csrwi	mideleg,0
80000118:	00000193          	li	gp,0
8000011c:	00000297          	auipc	t0,0x0
80000120:	ee828293          	addi	t0,t0,-280 # 80000004 <trap_vector>
80000124:	30529073          	csrw	mtvec,t0
80000128:	00100513          	li	a0,1
8000012c:	01f51513          	slli	a0,a0,0x1f
80000130:	00054c63          	bltz	a0,80000148 <reset_vector+0xfc>
80000134:	0ff0000f          	fence
80000138:	00100193          	li	gp,1
8000013c:	05d00893          	li	a7,93
80000140:	00000513          	li	a0,0
80000144:	00000073          	ecall
80000148:	80000297          	auipc	t0,0x80000
8000014c:	eb828293          	addi	t0,t0,-328 # 0 <_start-0x80000000>
80000150:	00028a63          	beqz	t0,80000164 <reset_vector+0x118>
80000154:	10529073          	csrw	stvec,t0
80000158:	0000b2b7          	lui	t0,0xb
8000015c:	10928293          	addi	t0,t0,265 # b109 <_start-0x7fff4ef7>
80000160:	30229073          	csrw	medeleg,t0
80000164:	30005073          	csrwi	mstatus,0
80000168:	00002537          	lui	a0,0x2
8000016c:	30052073          	csrs	mstatus,a0
80000170:	00305073          	csrwi	fcsr,0
80000174:	00000297          	auipc	t0,0x0
80000178:	01428293          	addi	t0,t0,20 # 80000188 <test_2>
8000017c:	34129073          	csrw	mepc,t0
80000180:	f1402573          	csrr	a0,mhartid
80000184:	30200073          	mret

80000188 <test_2>:
80000188:	00200193          	li	gp,2
8000018c:	00002517          	auipc	a0,0x2
80000190:	e7450513          	addi	a0,a0,-396 # 80002000 <test_2_data>
80000194:	00053007          	fld	ft0,0(a0)
80000198:	00853087          	fld	ft1,8(a0)
8000019c:	01053107          	fld	ft2,16(a0)
800001a0:	01852683          	lw	a3,24(a0)
800001a4:	01c52303          	lw	t1,28(a0)
800001a8:	1a1071d3          	fdiv.d	ft3,ft0,ft1
800001ac:	00353027          	fsd	ft3,0(a0)
800001b0:	00452383          	lw	t2,4(a0)
800001b4:	00052503          	lw	a0,0(a0)
800001b8:	001015f3          	fsflags	a1,zero
800001bc:	00100613          	li	a2,1
800001c0:	1ed51663          	bne	a0,a3,800003ac <fail>
800001c4:	1e731463          	bne	t1,t2,800003ac <fail>
800001c8:	1ec59263          	bne	a1,a2,800003ac <fail>

800001cc <test_3>:
800001cc:	00300193          	li	gp,3
800001d0:	00002517          	auipc	a0,0x2
800001d4:	e5050513          	addi	a0,a0,-432 # 80002020 <test_3_data>
800001d8:	00053007          	fld	ft0,0(a0)
800001dc:	00853087          	fld	ft1,8(a0)
800001e0:	01053107          	fld	ft2,16(a0)
800001e4:	01852683          	lw	a3,24(a0)
800001e8:	01c52303          	lw	t1,28(a0)
800001ec:	1a1071d3          	fdiv.d	ft3,ft0,ft1
800001f0:	00353027          	fsd	ft3,0(a0)
800001f4:	00452383          	lw	t2,4(a0)
800001f8:	00052503          	lw	a0,0(a0)
800001fc:	001015f3          	fsflags	a1,zero
80000200:	00100613          	li	a2,1
80000204:	1ad51463          	bne	a0,a3,800003ac <fail>
80000208:	1a731263          	bne	t1,t2,800003ac <fail>
8000020c:	1ac59063          	bne	a1,a2,800003ac <fail>

80000210 <test_4>:
80000210:	00400193          	li	gp,4
80000214:	00002517          	auipc	a0,0x2
80000218:	e2c50513          	addi	a0,a0,-468 # 80002040 <test_4_data>
8000021c:	00053007          	fld	ft0,0(a0)
80000220:	00853087          	fld	ft1,8(a0)
80000224:	01053107          	fld	ft2,16(a0)
80000228:	01852683          	lw	a3,24(a0)
8000022c:	01c52303          	lw	t1,28(a0)
80000230:	1a1071d3          	fdiv.d	ft3,ft0,ft1
80000234:	00353027          	fsd	ft3,0(a0)
80000238:	00452383          	lw	t2,4(a0)
8000023c:	00052503          	lw	a0,0(a0)
80000240:	001015f3          	fsflags	a1,zero
80000244:	00000613          	li	a2,0
80000248:	16d51263          	bne	a0,a3,800003ac <fail>
8000024c:	16731063          	bne	t1,t2,800003ac <fail>
80000250:	14c59e63          	bne	a1,a2,800003ac <fail>

80000254 <test_5>:
80000254:	00500193          	li	gp,5
80000258:	00002517          	auipc	a0,0x2
8000025c:	e0850513          	addi	a0,a0,-504 # 80002060 <test_5_data>
80000260:	00053007          	fld	ft0,0(a0)
80000264:	00853087          	fld	ft1,8(a0)
80000268:	01053107          	fld	ft2,16(a0)
8000026c:	01852683          	lw	a3,24(a0)
80000270:	01c52303          	lw	t1,28(a0)
80000274:	5a0071d3          	fsqrt.d	ft3,ft0
80000278:	00353027          	fsd	ft3,0(a0)
8000027c:	00452383          	lw	t2,4(a0)
80000280:	00052503          	lw	a0,0(a0)
80000284:	001015f3          	fsflags	a1,zero
80000288:	00100613          	li	a2,1
8000028c:	12d51063          	bne	a0,a3,800003ac <fail>
80000290:	10731e63          	bne	t1,t2,800003ac <fail>
80000294:	10c59c63          	bne	a1,a2,800003ac <fail>

80000298 <test_6>:
80000298:	00600193          	li	gp,6
8000029c:	00002517          	auipc	a0,0x2
800002a0:	de450513          	addi	a0,a0,-540 # 80002080 <test_6_data>
800002a4:	00053007          	fld	ft0,0(a0)
800002a8:	00853087          	fld	ft1,8(a0)
800002ac:	01053107          	fld	ft2,16(a0)
800002b0:	01852683          	lw	a3,24(a0)
800002b4:	01c52303          	lw	t1,28(a0)
800002b8:	5a0071d3          	fsqrt.d	ft3,ft0
800002bc:	00353027          	fsd	ft3,0(a0)
800002c0:	00452383          	lw	t2,4(a0)
800002c4:	00052503          	lw	a0,0(a0)
800002c8:	001015f3          	fsflags	a1,zero
800002cc:	00000613          	li	a2,0
800002d0:	0cd51e63          	bne	a0,a3,800003ac <fail>
800002d4:	0c731c63          	bne	t1,t2,800003ac <fail>
800002d8:	0cc59a63          	bne	a1,a2,800003ac <fail>

800002dc <test_16>:
800002dc:	01000193          	li	gp,16
800002e0:	00002517          	auipc	a0,0x2
800002e4:	dc050513          	addi	a0,a0,-576 # 800020a0 <test_16_data>
800002e8:	00053007          	fld	ft0,0(a0)
800002ec:	00853087          	fld	ft1,8(a0)
800002f0:	01053107          	fld	ft2,16(a0)
800002f4:	01852683          	lw	a3,24(a0)
800002f8:	01c52303          	lw	t1,28(a0)
800002fc:	5a0071d3          	fsqrt.d	ft3,ft0
80000300:	00353027          	fsd	ft3,0(a0)
80000304:	00452383          	lw	t2,4(a0)
80000308:	00052503          	lw	a0,0(a0)
8000030c:	001015f3          	fsflags	a1,zero
80000310:	01000613          	li	a2,16
80000314:	08d51c63          	bne	a0,a3,800003ac <fail>
80000318:	08731a63          	bne	t1,t2,800003ac <fail>
8000031c:	08c59863          	bne	a1,a2,800003ac <fail>

80000320 <test_7>:
80000320:	00700193          	li	gp,7
80000324:	00002517          	auipc	a0,0x2
80000328:	d9c50513          	addi	a0,a0,-612 # 800020c0 <test_7_data>
8000032c:	00053007          	fld	ft0,0(a0)
80000330:	00853087          	fld	ft1,8(a0)
80000334:	01053107          	fld	ft2,16(a0)
80000338:	01852683          	lw	a3,24(a0)
8000033c:	01c52303          	lw	t1,28(a0)
80000340:	5a0071d3          	fsqrt.d	ft3,ft0
80000344:	00353027          	fsd	ft3,0(a0)
80000348:	00452383          	lw	t2,4(a0)
8000034c:	00052503          	lw	a0,0(a0)
80000350:	001015f3          	fsflags	a1,zero
80000354:	00100613          	li	a2,1
80000358:	04d51a63          	bne	a0,a3,800003ac <fail>
8000035c:	04731863          	bne	t1,t2,800003ac <fail>
80000360:	04c59663          	bne	a1,a2,800003ac <fail>

80000364 <test_8>:
80000364:	00800193          	li	gp,8
80000368:	00002517          	auipc	a0,0x2
8000036c:	d7850513          	addi	a0,a0,-648 # 800020e0 <test_8_data>
80000370:	00053007          	fld	ft0,0(a0)
80000374:	00853087          	fld	ft1,8(a0)
80000378:	01053107          	fld	ft2,16(a0)
8000037c:	01852683          	lw	a3,24(a0)
80000380:	01c52303          	lw	t1,28(a0)
80000384:	5a0071d3          	fsqrt.d	ft3,ft0
80000388:	00353027          	fsd	ft3,0(a0)
8000038c:	00452383          	lw	t2,4(a0)
80000390:	00052503          	lw	a0,0(a0)
80000394:	001015f3          	fsflags	a1,zero
80000398:	00100613          	li	a2,1
8000039c:	00d51863          	bne	a0,a3,800003ac <fail>
800003a0:	00731663          	bne	t1,t2,800003ac <fail>
800003a4:	00c59463          	bne	a1,a2,800003ac <fail>
800003a8:	02301063          	bne	zero,gp,800003c8 <pass>

800003ac <fail>:
800003ac:	0ff0000f          	fence
800003b0:	00018063          	beqz	gp,800003b0 <fail+0x4>
800003b4:	00119193          	slli	gp,gp,0x1
800003b8:	0011e193          	ori	gp,gp,1
800003bc:	05d00893          	li	a7,93
800003c0:	00018513          	mv	a0,gp
800003c4:	00000073          	ecall

800003c8 <pass>:
800003c8:	0ff0000f          	fence
800003cc:	00100193          	li	gp,1
800003d0:	05d00893          	li	a7,93
800003d4:	00000513          	li	a0,0
800003d8:	00000073          	ecall
800003dc:	c0001073          	unimp
800003e0:	0000                	unimp
800003e2:	0000                	unimp
800003e4:	0000                	unimp
800003e6:	0000                	unimp
800003e8:	0000                	unimp
800003ea:	0000                	unimp
800003ec:	0000                	unimp
800003ee:	0000                	unimp
800003f0:	0000                	unimp
800003f2:	0000                	unimp
800003f4:	0000                	unimp
800003f6:	0000                	unimp
800003f8:	0000                	unimp
800003fa:	0000                	unimp
800003fc:	0000                	unimp
800003fe:	0000                	unimp
80000400:	0000                	unimp
80000402:	0000                	unimp

Disassembly of section .data:

80002000 <test_2_data>:
80002000:	d4f1                	beqz	s1,80001fcc <fromhost+0xf8c>
80002002:	53c8                	lw	a0,36(a5)
80002004:	400921fb          	0x400921fb
80002008:	b0dd                	j	800018ee <fromhost+0x8ae>
8000200a:	89f1                	andi	a1,a1,28
8000200c:	bf0a                	fsd	ft2,440(sp)
8000200e:	4005                	c.li	zero,1
80002010:	0000                	unimp
80002012:	0000                	unimp
80002014:	0000                	unimp
80002016:	0000                	unimp
80002018:	83ec                	0x83ec
8000201a:	7ddbf6c3          	0x7ddbf6c3
8000201e:	3ff2                	fld	ft11,312(sp)

80002020 <test_3_data>:
80002020:	0000                	unimp
80002022:	0000                	unimp
80002024:	4800                	lw	s0,16(s0)
80002026:	6666c093          	xori	ra,a3,1638
8000202a:	6666                	flw	fa2,88(sp)
8000202c:	4c66                	lw	s8,88(sp)
8000202e:	00004093          	xori	ra,zero,0
80002032:	0000                	unimp
80002034:	0000                	unimp
80002036:	0000                	unimp
80002038:	29a5                	jal	800024b0 <_end+0x3b0>
8000203a:	3e19                	jal	80001b50 <fromhost+0xb10>
8000203c:	f8b4                	fsw	fa3,112(s1)
8000203e:	          	jal	t6,7ff1dd8c <_start-0xe2274>

80002040 <test_4_data>:
80002040:	d4f1                	beqz	s1,8000200c <test_2_data+0xc>
80002042:	53c8                	lw	a0,36(a5)
80002044:	400921fb          	0x400921fb
80002048:	0000                	unimp
8000204a:	0000                	unimp
8000204c:	0000                	unimp
8000204e:	3ff0                	fld	fa2,248(a5)
80002050:	0000                	unimp
80002052:	0000                	unimp
80002054:	0000                	unimp
80002056:	0000                	unimp
80002058:	d4f1                	beqz	s1,80002024 <test_3_data+0x4>
8000205a:	53c8                	lw	a0,36(a5)
8000205c:	400921fb          	0x400921fb

80002060 <test_5_data>:
80002060:	d4f1                	beqz	s1,8000202c <test_3_data+0xc>
80002062:	53c8                	lw	a0,36(a5)
80002064:	400921fb          	0x400921fb
80002068:	0000                	unimp
8000206a:	0000                	unimp
8000206c:	0000                	unimp
8000206e:	0000                	unimp
80002070:	0000                	unimp
80002072:	0000                	unimp
80002074:	0000                	unimp
80002076:	0000                	unimp
80002078:	916f587b          	0x916f587b
8000207c:	5bf8                	lw	a4,116(a5)
8000207e:	3ffc                	fld	fa5,248(a5)

80002080 <test_6_data>:
80002080:	0000                	unimp
80002082:	0000                	unimp
80002084:	8800                	0x8800
80002086:	000040c3          	fmadd.s	ft1,ft0,ft0,ft0,rmm
8000208a:	0000                	unimp
8000208c:	0000                	unimp
8000208e:	0000                	unimp
80002090:	0000                	unimp
80002092:	0000                	unimp
80002094:	0000                	unimp
80002096:	0000                	unimp
80002098:	0000                	unimp
8000209a:	0000                	unimp
8000209c:	0000                	unimp
8000209e:	4059                	c.li	zero,22

800020a0 <test_16_data>:
800020a0:	0000                	unimp
800020a2:	0000                	unimp
800020a4:	0000                	unimp
800020a6:	bff0                	fsd	fa2,248(a5)
800020a8:	0000                	unimp
800020aa:	0000                	unimp
800020ac:	0000                	unimp
800020ae:	0000                	unimp
800020b0:	0000                	unimp
800020b2:	0000                	unimp
800020b4:	0000                	unimp
800020b6:	0000                	unimp
800020b8:	0000                	unimp
800020ba:	0000                	unimp
800020bc:	0000                	unimp
800020be:	7ff8                	flw	fa4,124(a5)

800020c0 <test_7_data>:
800020c0:	0000                	unimp
800020c2:	0000                	unimp
800020c4:	6000                	flw	fs0,0(s0)
800020c6:	4065                	c.li	zero,25
800020c8:	0000                	unimp
800020ca:	0000                	unimp
800020cc:	0000                	unimp
800020ce:	0000                	unimp
800020d0:	0000                	unimp
800020d2:	0000                	unimp
800020d4:	0000                	unimp
800020d6:	0000                	unimp
800020d8:	74f5                	lui	s1,0xffffd
800020da:	ce96                	sw	t0,92(sp)
800020dc:	2744                	fld	fs1,136(a4)
800020de:	402a                	0x402a

800020e0 <test_8_data>:
800020e0:	a105                	j	80002500 <_end+0x400>
800020e2:	c70a                	sw	sp,140(sp)
800020e4:	94df 3e85 0000      	0x3e8594df
800020ea:	0000                	unimp
800020ec:	0000                	unimp
800020ee:	0000                	unimp
800020f0:	0000                	unimp
800020f2:	0000                	unimp
800020f4:	0000                	unimp
800020f6:	0000                	unimp
800020f8:	7f99                	lui	t6,0xfffe6
800020fa:	4789c0e3          	blt	s3,s8,80002d5a <_end+0xc5a>
800020fe:	3f3a                	fld	ft10,424(sp)
