
rv32ui-p-sh:     file format elf32-littleriscv


Disassembly of section .text.init:

80000000 <_start>:
80000000:	04c0006f          	j	8000004c <reset_vector>

80000004 <trap_vector>:
80000004:	34202f73          	csrr	t5,mcause
80000008:	00800f93          	li	t6,8
8000000c:	03ff0a63          	beq	t5,t6,80000040 <write_tohost>
80000010:	00900f93          	li	t6,9
80000014:	03ff0663          	beq	t5,t6,80000040 <write_tohost>
80000018:	00b00f93          	li	t6,11
8000001c:	03ff0263          	beq	t5,t6,80000040 <write_tohost>
80000020:	80000f17          	auipc	t5,0x80000
80000024:	fe0f0f13          	addi	t5,t5,-32 # 0 <_start-0x80000000>
80000028:	000f0463          	beqz	t5,80000030 <trap_vector+0x2c>
8000002c:	000f0067          	jr	t5
80000030:	34202f73          	csrr	t5,mcause
80000034:	000f5463          	bgez	t5,8000003c <handle_exception>
80000038:	0040006f          	j	8000003c <handle_exception>

8000003c <handle_exception>:
8000003c:	539e6e13          	ori	t3,t3,1337

80000040 <write_tohost>:
80000040:	00001f17          	auipc	t5,0x1
80000044:	fdcf2023          	sw	t3,-64(t5) # 80001000 <tohost>
80000048:	ff9ff06f          	j	80000040 <write_tohost>

8000004c <reset_vector>:
8000004c:	f1402573          	csrr	a0,mhartid
80000050:	00051063          	bnez	a0,80000050 <reset_vector+0x4>
80000054:	30102573          	csrr	a0,misa
80000058:	00055863          	bgez	a0,80000068 <reset_vector+0x1c>
8000005c:	0ff0000f          	fence
80000060:	00100e13          	li	t3,1
80000064:	00000073          	ecall
80000068:	00000e13          	li	t3,0
8000006c:	00000297          	auipc	t0,0x0
80000070:	f9828293          	addi	t0,t0,-104 # 80000004 <trap_vector>
80000074:	30529073          	csrw	mtvec,t0
80000078:	30205073          	csrwi	medeleg,0
8000007c:	30305073          	csrwi	mideleg,0
80000080:	30405073          	csrwi	mie,0
80000084:	80000297          	auipc	t0,0x80000
80000088:	f7c28293          	addi	t0,t0,-132 # 0 <_start-0x80000000>
8000008c:	00028c63          	beqz	t0,800000a4 <reset_vector+0x58>
80000090:	10529073          	csrw	stvec,t0
80000094:	1ab00293          	li	t0,427
80000098:	30229073          	csrw	medeleg,t0
8000009c:	30202373          	csrr	t1,medeleg
800000a0:	f8629ee3          	bne	t0,t1,8000003c <handle_exception>
800000a4:	30005073          	csrwi	mstatus,0
800000a8:	00000297          	auipc	t0,0x0
800000ac:	01428293          	addi	t0,t0,20 # 800000bc <test_2>
800000b0:	34129073          	csrw	mepc,t0
800000b4:	f1402573          	csrr	a0,mhartid
800000b8:	30200073          	mret

800000bc <test_2>:
800000bc:	00002097          	auipc	ra,0x2
800000c0:	f4408093          	addi	ra,ra,-188 # 80002000 <begin_signature>
800000c4:	0aa00113          	li	sp,170
800000c8:	00209023          	sh	sp,0(ra)
800000cc:	00009183          	lh	gp,0(ra)
800000d0:	0aa00e93          	li	t4,170
800000d4:	00200e13          	li	t3,2
800000d8:	45d19e63          	bne	gp,t4,80000534 <fail>

800000dc <test_3>:
800000dc:	00002097          	auipc	ra,0x2
800000e0:	f2408093          	addi	ra,ra,-220 # 80002000 <begin_signature>
800000e4:	ffffb137          	lui	sp,0xffffb
800000e8:	a0010113          	addi	sp,sp,-1536 # ffffaa00 <_end+0x7fff89e0>
800000ec:	00209123          	sh	sp,2(ra)
800000f0:	00209183          	lh	gp,2(ra)
800000f4:	ffffbeb7          	lui	t4,0xffffb
800000f8:	a00e8e93          	addi	t4,t4,-1536 # ffffaa00 <_end+0x7fff89e0>
800000fc:	00300e13          	li	t3,3
80000100:	43d19a63          	bne	gp,t4,80000534 <fail>

80000104 <test_4>:
80000104:	00002097          	auipc	ra,0x2
80000108:	efc08093          	addi	ra,ra,-260 # 80002000 <begin_signature>
8000010c:	beef1137          	lui	sp,0xbeef1
80000110:	aa010113          	addi	sp,sp,-1376 # beef0aa0 <_end+0x3eeeea80>
80000114:	00209223          	sh	sp,4(ra)
80000118:	0040a183          	lw	gp,4(ra)
8000011c:	beef1eb7          	lui	t4,0xbeef1
80000120:	aa0e8e93          	addi	t4,t4,-1376 # beef0aa0 <_end+0x3eeeea80>
80000124:	00400e13          	li	t3,4
80000128:	41d19663          	bne	gp,t4,80000534 <fail>

8000012c <test_5>:
8000012c:	00002097          	auipc	ra,0x2
80000130:	ed408093          	addi	ra,ra,-300 # 80002000 <begin_signature>
80000134:	ffffa137          	lui	sp,0xffffa
80000138:	00a10113          	addi	sp,sp,10 # ffffa00a <_end+0x7fff7fea>
8000013c:	00209323          	sh	sp,6(ra)
80000140:	00609183          	lh	gp,6(ra)
80000144:	ffffaeb7          	lui	t4,0xffffa
80000148:	00ae8e93          	addi	t4,t4,10 # ffffa00a <_end+0x7fff7fea>
8000014c:	00500e13          	li	t3,5
80000150:	3fd19263          	bne	gp,t4,80000534 <fail>

80000154 <test_6>:
80000154:	00002097          	auipc	ra,0x2
80000158:	eba08093          	addi	ra,ra,-326 # 8000200e <tdat8>
8000015c:	0aa00113          	li	sp,170
80000160:	fe209d23          	sh	sp,-6(ra)
80000164:	ffa09183          	lh	gp,-6(ra)
80000168:	0aa00e93          	li	t4,170
8000016c:	00600e13          	li	t3,6
80000170:	3dd19263          	bne	gp,t4,80000534 <fail>

80000174 <test_7>:
80000174:	00002097          	auipc	ra,0x2
80000178:	e9a08093          	addi	ra,ra,-358 # 8000200e <tdat8>
8000017c:	ffffb137          	lui	sp,0xffffb
80000180:	a0010113          	addi	sp,sp,-1536 # ffffaa00 <_end+0x7fff89e0>
80000184:	fe209e23          	sh	sp,-4(ra)
80000188:	ffc09183          	lh	gp,-4(ra)
8000018c:	ffffbeb7          	lui	t4,0xffffb
80000190:	a00e8e93          	addi	t4,t4,-1536 # ffffaa00 <_end+0x7fff89e0>
80000194:	00700e13          	li	t3,7
80000198:	39d19e63          	bne	gp,t4,80000534 <fail>

8000019c <test_8>:
8000019c:	00002097          	auipc	ra,0x2
800001a0:	e7208093          	addi	ra,ra,-398 # 8000200e <tdat8>
800001a4:	00001137          	lui	sp,0x1
800001a8:	aa010113          	addi	sp,sp,-1376 # aa0 <_start-0x7ffff560>
800001ac:	fe209f23          	sh	sp,-2(ra)
800001b0:	ffe09183          	lh	gp,-2(ra)
800001b4:	00001eb7          	lui	t4,0x1
800001b8:	aa0e8e93          	addi	t4,t4,-1376 # aa0 <_start-0x7ffff560>
800001bc:	00800e13          	li	t3,8
800001c0:	37d19a63          	bne	gp,t4,80000534 <fail>

800001c4 <test_9>:
800001c4:	00002097          	auipc	ra,0x2
800001c8:	e4a08093          	addi	ra,ra,-438 # 8000200e <tdat8>
800001cc:	ffffa137          	lui	sp,0xffffa
800001d0:	00a10113          	addi	sp,sp,10 # ffffa00a <_end+0x7fff7fea>
800001d4:	00209023          	sh	sp,0(ra)
800001d8:	00009183          	lh	gp,0(ra)
800001dc:	ffffaeb7          	lui	t4,0xffffa
800001e0:	00ae8e93          	addi	t4,t4,10 # ffffa00a <_end+0x7fff7fea>
800001e4:	00900e13          	li	t3,9
800001e8:	35d19663          	bne	gp,t4,80000534 <fail>

800001ec <test_10>:
800001ec:	00002097          	auipc	ra,0x2
800001f0:	e2408093          	addi	ra,ra,-476 # 80002010 <tdat9>
800001f4:	12345137          	lui	sp,0x12345
800001f8:	67810113          	addi	sp,sp,1656 # 12345678 <_start-0x6dcba988>
800001fc:	fe008213          	addi	tp,ra,-32
80000200:	02221023          	sh	sp,32(tp) # 20 <_start-0x7fffffe0>
80000204:	00009183          	lh	gp,0(ra)
80000208:	00005eb7          	lui	t4,0x5
8000020c:	678e8e93          	addi	t4,t4,1656 # 5678 <_start-0x7fffa988>
80000210:	00a00e13          	li	t3,10
80000214:	33d19063          	bne	gp,t4,80000534 <fail>

80000218 <test_11>:
80000218:	00002097          	auipc	ra,0x2
8000021c:	df808093          	addi	ra,ra,-520 # 80002010 <tdat9>
80000220:	00003137          	lui	sp,0x3
80000224:	09810113          	addi	sp,sp,152 # 3098 <_start-0x7fffcf68>
80000228:	ffb08093          	addi	ra,ra,-5
8000022c:	002093a3          	sh	sp,7(ra)
80000230:	00002217          	auipc	tp,0x2
80000234:	de220213          	addi	tp,tp,-542 # 80002012 <tdat10>
80000238:	00021183          	lh	gp,0(tp) # 0 <_start-0x80000000>
8000023c:	00003eb7          	lui	t4,0x3
80000240:	098e8e93          	addi	t4,t4,152 # 3098 <_start-0x7fffcf68>
80000244:	00b00e13          	li	t3,11
80000248:	2fd19663          	bne	gp,t4,80000534 <fail>

8000024c <test_12>:
8000024c:	00c00e13          	li	t3,12
80000250:	00000213          	li	tp,0
80000254:	ffffd0b7          	lui	ra,0xffffd
80000258:	cdd08093          	addi	ra,ra,-803 # ffffccdd <_end+0x7fffacbd>
8000025c:	00002117          	auipc	sp,0x2
80000260:	da410113          	addi	sp,sp,-604 # 80002000 <begin_signature>
80000264:	00111023          	sh	ra,0(sp)
80000268:	00011183          	lh	gp,0(sp)
8000026c:	ffffdeb7          	lui	t4,0xffffd
80000270:	cdde8e93          	addi	t4,t4,-803 # ffffccdd <_end+0x7fffacbd>
80000274:	2dd19063          	bne	gp,t4,80000534 <fail>
80000278:	00120213          	addi	tp,tp,1 # 1 <_start-0x7fffffff>
8000027c:	00200293          	li	t0,2
80000280:	fc521ae3          	bne	tp,t0,80000254 <test_12+0x8>

80000284 <test_13>:
80000284:	00d00e13          	li	t3,13
80000288:	00000213          	li	tp,0
8000028c:	ffffc0b7          	lui	ra,0xffffc
80000290:	ccd08093          	addi	ra,ra,-819 # ffffbccd <_end+0x7fff9cad>
80000294:	00002117          	auipc	sp,0x2
80000298:	d6c10113          	addi	sp,sp,-660 # 80002000 <begin_signature>
8000029c:	00000013          	nop
800002a0:	00111123          	sh	ra,2(sp)
800002a4:	00211183          	lh	gp,2(sp)
800002a8:	ffffceb7          	lui	t4,0xffffc
800002ac:	ccde8e93          	addi	t4,t4,-819 # ffffbccd <_end+0x7fff9cad>
800002b0:	29d19263          	bne	gp,t4,80000534 <fail>
800002b4:	00120213          	addi	tp,tp,1 # 1 <_start-0x7fffffff>
800002b8:	00200293          	li	t0,2
800002bc:	fc5218e3          	bne	tp,t0,8000028c <test_13+0x8>

800002c0 <test_14>:
800002c0:	00e00e13          	li	t3,14
800002c4:	00000213          	li	tp,0
800002c8:	ffffc0b7          	lui	ra,0xffffc
800002cc:	bcc08093          	addi	ra,ra,-1076 # ffffbbcc <_end+0x7fff9bac>
800002d0:	00002117          	auipc	sp,0x2
800002d4:	d3010113          	addi	sp,sp,-720 # 80002000 <begin_signature>
800002d8:	00000013          	nop
800002dc:	00000013          	nop
800002e0:	00111223          	sh	ra,4(sp)
800002e4:	00411183          	lh	gp,4(sp)
800002e8:	ffffceb7          	lui	t4,0xffffc
800002ec:	bcce8e93          	addi	t4,t4,-1076 # ffffbbcc <_end+0x7fff9bac>
800002f0:	25d19263          	bne	gp,t4,80000534 <fail>
800002f4:	00120213          	addi	tp,tp,1 # 1 <_start-0x7fffffff>
800002f8:	00200293          	li	t0,2
800002fc:	fc5216e3          	bne	tp,t0,800002c8 <test_14+0x8>

80000300 <test_15>:
80000300:	00f00e13          	li	t3,15
80000304:	00000213          	li	tp,0
80000308:	ffffb0b7          	lui	ra,0xffffb
8000030c:	bbc08093          	addi	ra,ra,-1092 # ffffabbc <_end+0x7fff8b9c>
80000310:	00000013          	nop
80000314:	00002117          	auipc	sp,0x2
80000318:	cec10113          	addi	sp,sp,-788 # 80002000 <begin_signature>
8000031c:	00111323          	sh	ra,6(sp)
80000320:	00611183          	lh	gp,6(sp)
80000324:	ffffbeb7          	lui	t4,0xffffb
80000328:	bbce8e93          	addi	t4,t4,-1092 # ffffabbc <_end+0x7fff8b9c>
8000032c:	21d19463          	bne	gp,t4,80000534 <fail>
80000330:	00120213          	addi	tp,tp,1 # 1 <_start-0x7fffffff>
80000334:	00200293          	li	t0,2
80000338:	fc5218e3          	bne	tp,t0,80000308 <test_15+0x8>

8000033c <test_16>:
8000033c:	01000e13          	li	t3,16
80000340:	00000213          	li	tp,0
80000344:	ffffb0b7          	lui	ra,0xffffb
80000348:	abb08093          	addi	ra,ra,-1349 # ffffaabb <_end+0x7fff8a9b>
8000034c:	00000013          	nop
80000350:	00002117          	auipc	sp,0x2
80000354:	cb010113          	addi	sp,sp,-848 # 80002000 <begin_signature>
80000358:	00000013          	nop
8000035c:	00111423          	sh	ra,8(sp)
80000360:	00811183          	lh	gp,8(sp)
80000364:	ffffbeb7          	lui	t4,0xffffb
80000368:	abbe8e93          	addi	t4,t4,-1349 # ffffaabb <_end+0x7fff8a9b>
8000036c:	1dd19463          	bne	gp,t4,80000534 <fail>
80000370:	00120213          	addi	tp,tp,1 # 1 <_start-0x7fffffff>
80000374:	00200293          	li	t0,2
80000378:	fc5216e3          	bne	tp,t0,80000344 <test_16+0x8>

8000037c <test_17>:
8000037c:	01100e13          	li	t3,17
80000380:	00000213          	li	tp,0
80000384:	ffffe0b7          	lui	ra,0xffffe
80000388:	aab08093          	addi	ra,ra,-1365 # ffffdaab <_end+0x7fffba8b>
8000038c:	00000013          	nop
80000390:	00000013          	nop
80000394:	00002117          	auipc	sp,0x2
80000398:	c6c10113          	addi	sp,sp,-916 # 80002000 <begin_signature>
8000039c:	00111523          	sh	ra,10(sp)
800003a0:	00a11183          	lh	gp,10(sp)
800003a4:	ffffeeb7          	lui	t4,0xffffe
800003a8:	aabe8e93          	addi	t4,t4,-1365 # ffffdaab <_end+0x7fffba8b>
800003ac:	19d19463          	bne	gp,t4,80000534 <fail>
800003b0:	00120213          	addi	tp,tp,1 # 1 <_start-0x7fffffff>
800003b4:	00200293          	li	t0,2
800003b8:	fc5216e3          	bne	tp,t0,80000384 <test_17+0x8>

800003bc <test_18>:
800003bc:	01200e13          	li	t3,18
800003c0:	00000213          	li	tp,0
800003c4:	00002117          	auipc	sp,0x2
800003c8:	c3c10113          	addi	sp,sp,-964 # 80002000 <begin_signature>
800003cc:	000020b7          	lui	ra,0x2
800003d0:	23308093          	addi	ra,ra,563 # 2233 <_start-0x7fffddcd>
800003d4:	00111023          	sh	ra,0(sp)
800003d8:	00011183          	lh	gp,0(sp)
800003dc:	00002eb7          	lui	t4,0x2
800003e0:	233e8e93          	addi	t4,t4,563 # 2233 <_start-0x7fffddcd>
800003e4:	15d19863          	bne	gp,t4,80000534 <fail>
800003e8:	00120213          	addi	tp,tp,1 # 1 <_start-0x7fffffff>
800003ec:	00200293          	li	t0,2
800003f0:	fc521ae3          	bne	tp,t0,800003c4 <test_18+0x8>

800003f4 <test_19>:
800003f4:	01300e13          	li	t3,19
800003f8:	00000213          	li	tp,0
800003fc:	00002117          	auipc	sp,0x2
80000400:	c0410113          	addi	sp,sp,-1020 # 80002000 <begin_signature>
80000404:	000010b7          	lui	ra,0x1
80000408:	22308093          	addi	ra,ra,547 # 1223 <_start-0x7fffeddd>
8000040c:	00000013          	nop
80000410:	00111123          	sh	ra,2(sp)
80000414:	00211183          	lh	gp,2(sp)
80000418:	00001eb7          	lui	t4,0x1
8000041c:	223e8e93          	addi	t4,t4,547 # 1223 <_start-0x7fffeddd>
80000420:	11d19a63          	bne	gp,t4,80000534 <fail>
80000424:	00120213          	addi	tp,tp,1 # 1 <_start-0x7fffffff>
80000428:	00200293          	li	t0,2
8000042c:	fc5218e3          	bne	tp,t0,800003fc <test_19+0x8>

80000430 <test_20>:
80000430:	01400e13          	li	t3,20
80000434:	00000213          	li	tp,0
80000438:	00002117          	auipc	sp,0x2
8000043c:	bc810113          	addi	sp,sp,-1080 # 80002000 <begin_signature>
80000440:	000010b7          	lui	ra,0x1
80000444:	12208093          	addi	ra,ra,290 # 1122 <_start-0x7fffeede>
80000448:	00000013          	nop
8000044c:	00000013          	nop
80000450:	00111223          	sh	ra,4(sp)
80000454:	00411183          	lh	gp,4(sp)
80000458:	00001eb7          	lui	t4,0x1
8000045c:	122e8e93          	addi	t4,t4,290 # 1122 <_start-0x7fffeede>
80000460:	0dd19a63          	bne	gp,t4,80000534 <fail>
80000464:	00120213          	addi	tp,tp,1 # 1 <_start-0x7fffffff>
80000468:	00200293          	li	t0,2
8000046c:	fc5216e3          	bne	tp,t0,80000438 <test_20+0x8>

80000470 <test_21>:
80000470:	01500e13          	li	t3,21
80000474:	00000213          	li	tp,0
80000478:	00002117          	auipc	sp,0x2
8000047c:	b8810113          	addi	sp,sp,-1144 # 80002000 <begin_signature>
80000480:	00000013          	nop
80000484:	11200093          	li	ra,274
80000488:	00111323          	sh	ra,6(sp)
8000048c:	00611183          	lh	gp,6(sp)
80000490:	11200e93          	li	t4,274
80000494:	0bd19063          	bne	gp,t4,80000534 <fail>
80000498:	00120213          	addi	tp,tp,1 # 1 <_start-0x7fffffff>
8000049c:	00200293          	li	t0,2
800004a0:	fc521ce3          	bne	tp,t0,80000478 <test_21+0x8>

800004a4 <test_22>:
800004a4:	01600e13          	li	t3,22
800004a8:	00000213          	li	tp,0
800004ac:	00002117          	auipc	sp,0x2
800004b0:	b5410113          	addi	sp,sp,-1196 # 80002000 <begin_signature>
800004b4:	00000013          	nop
800004b8:	01100093          	li	ra,17
800004bc:	00000013          	nop
800004c0:	00111423          	sh	ra,8(sp)
800004c4:	00811183          	lh	gp,8(sp)
800004c8:	01100e93          	li	t4,17
800004cc:	07d19463          	bne	gp,t4,80000534 <fail>
800004d0:	00120213          	addi	tp,tp,1 # 1 <_start-0x7fffffff>
800004d4:	00200293          	li	t0,2
800004d8:	fc521ae3          	bne	tp,t0,800004ac <test_22+0x8>

800004dc <test_23>:
800004dc:	01700e13          	li	t3,23
800004e0:	00000213          	li	tp,0
800004e4:	00002117          	auipc	sp,0x2
800004e8:	b1c10113          	addi	sp,sp,-1252 # 80002000 <begin_signature>
800004ec:	00000013          	nop
800004f0:	00000013          	nop
800004f4:	000030b7          	lui	ra,0x3
800004f8:	00108093          	addi	ra,ra,1 # 3001 <_start-0x7fffcfff>
800004fc:	00111523          	sh	ra,10(sp)
80000500:	00a11183          	lh	gp,10(sp)
80000504:	00003eb7          	lui	t4,0x3
80000508:	001e8e93          	addi	t4,t4,1 # 3001 <_start-0x7fffcfff>
8000050c:	03d19463          	bne	gp,t4,80000534 <fail>
80000510:	00120213          	addi	tp,tp,1 # 1 <_start-0x7fffffff>
80000514:	00200293          	li	t0,2
80000518:	fc5216e3          	bne	tp,t0,800004e4 <test_23+0x8>
8000051c:	0000c537          	lui	a0,0xc
80000520:	eef50513          	addi	a0,a0,-273 # beef <_start-0x7fff4111>
80000524:	00002597          	auipc	a1,0x2
80000528:	adc58593          	addi	a1,a1,-1316 # 80002000 <begin_signature>
8000052c:	00a59323          	sh	a0,6(a1)
80000530:	01c01c63          	bne	zero,t3,80000548 <pass>

80000534 <fail>:
80000534:	0ff0000f          	fence
80000538:	000e0063          	beqz	t3,80000538 <fail+0x4>
8000053c:	001e1e13          	slli	t3,t3,0x1
80000540:	001e6e13          	ori	t3,t3,1
80000544:	00000073          	ecall

80000548 <pass>:
80000548:	0ff0000f          	fence
8000054c:	00100e13          	li	t3,1
80000550:	00000073          	ecall
80000554:	c0001073          	unimp
80000558:	0000                	unimp
8000055a:	0000                	unimp
8000055c:	0000                	unimp
8000055e:	0000                	unimp
80000560:	0000                	unimp
80000562:	0000                	unimp
80000564:	0000                	unimp
80000566:	0000                	unimp
80000568:	0000                	unimp
8000056a:	0000                	unimp
8000056c:	0000                	unimp
8000056e:	0000                	unimp
80000570:	0000                	unimp
80000572:	0000                	unimp
80000574:	0000                	unimp
80000576:	0000                	unimp
80000578:	0000                	unimp
8000057a:	0000                	unimp
8000057c:	0000                	unimp
8000057e:	0000                	unimp
80000580:	0000                	unimp
80000582:	0000                	unimp

Disassembly of section .data:

80002000 <begin_signature>:
80002000:	beefbeef          	jal	t4,7fffd3ee <_start-0x2c12>

80002002 <tdat2>:
80002002:	beefbeef          	jal	t4,7fffd3f0 <_start-0x2c10>

80002004 <tdat3>:
80002004:	beefbeef          	jal	t4,7fffd3f2 <_start-0x2c0e>

80002006 <tdat4>:
80002006:	beefbeef          	jal	t4,7fffd3f4 <_start-0x2c0c>

80002008 <tdat5>:
80002008:	beefbeef          	jal	t4,7fffd3f6 <_start-0x2c0a>

8000200a <tdat6>:
8000200a:	beefbeef          	jal	t4,7fffd3f8 <_start-0x2c08>

8000200c <tdat7>:
8000200c:	beefbeef          	jal	t4,7fffd3fa <_start-0x2c06>

8000200e <tdat8>:
8000200e:	beefbeef          	jal	t4,7fffd3fc <_start-0x2c04>

80002010 <tdat9>:
80002010:	beefbeef          	jal	t4,7fffd3fe <_start-0x2c02>

80002012 <tdat10>:
80002012:	0000beef          	jal	t4,8000d012 <_end+0xaff2>
80002016:	0000                	unimp
80002018:	0000                	unimp
8000201a:	0000                	unimp
8000201c:	0000                	unimp
8000201e:	0000                	unimp
