
rv32ud-p-fcvt:     file format elf32-littleriscv


Disassembly of section .text.init:

80000000 <_start>:
80000000:	04c0006f          	j	8000004c <reset_vector>

80000004 <trap_vector>:
80000004:	34202f73          	csrr	t5,mcause
80000008:	00800f93          	li	t6,8
8000000c:	03ff0a63          	beq	t5,t6,80000040 <write_tohost>
80000010:	00900f93          	li	t6,9
80000014:	03ff0663          	beq	t5,t6,80000040 <write_tohost>
80000018:	00b00f93          	li	t6,11
8000001c:	03ff0263          	beq	t5,t6,80000040 <write_tohost>
80000020:	80000f17          	auipc	t5,0x80000
80000024:	fe0f0f13          	addi	t5,t5,-32 # 0 <_start-0x80000000>
80000028:	000f0463          	beqz	t5,80000030 <trap_vector+0x2c>
8000002c:	000f0067          	jr	t5
80000030:	34202f73          	csrr	t5,mcause
80000034:	000f5463          	bgez	t5,8000003c <handle_exception>
80000038:	0040006f          	j	8000003c <handle_exception>

8000003c <handle_exception>:
8000003c:	5391e193          	ori	gp,gp,1337

80000040 <write_tohost>:
80000040:	00001f17          	auipc	t5,0x1
80000044:	fc3f2023          	sw	gp,-64(t5) # 80001000 <tohost>
80000048:	ff9ff06f          	j	80000040 <write_tohost>

8000004c <reset_vector>:
8000004c:	00000093          	li	ra,0
80000050:	00000113          	li	sp,0
80000054:	00000193          	li	gp,0
80000058:	00000213          	li	tp,0
8000005c:	00000293          	li	t0,0
80000060:	00000313          	li	t1,0
80000064:	00000393          	li	t2,0
80000068:	00000413          	li	s0,0
8000006c:	00000493          	li	s1,0
80000070:	00000513          	li	a0,0
80000074:	00000593          	li	a1,0
80000078:	00000613          	li	a2,0
8000007c:	00000693          	li	a3,0
80000080:	00000713          	li	a4,0
80000084:	00000793          	li	a5,0
80000088:	00000813          	li	a6,0
8000008c:	00000893          	li	a7,0
80000090:	00000913          	li	s2,0
80000094:	00000993          	li	s3,0
80000098:	00000a13          	li	s4,0
8000009c:	00000a93          	li	s5,0
800000a0:	00000b13          	li	s6,0
800000a4:	00000b93          	li	s7,0
800000a8:	00000c13          	li	s8,0
800000ac:	00000c93          	li	s9,0
800000b0:	00000d13          	li	s10,0
800000b4:	00000d93          	li	s11,0
800000b8:	00000e13          	li	t3,0
800000bc:	00000e93          	li	t4,0
800000c0:	00000f13          	li	t5,0
800000c4:	00000f93          	li	t6,0
800000c8:	f1402573          	csrr	a0,mhartid
800000cc:	00051063          	bnez	a0,800000cc <reset_vector+0x80>
800000d0:	00000297          	auipc	t0,0x0
800000d4:	01028293          	addi	t0,t0,16 # 800000e0 <reset_vector+0x94>
800000d8:	30529073          	csrw	mtvec,t0
800000dc:	18005073          	csrwi	satp,0
800000e0:	00000297          	auipc	t0,0x0
800000e4:	02028293          	addi	t0,t0,32 # 80000100 <reset_vector+0xb4>
800000e8:	30529073          	csrw	mtvec,t0
800000ec:	800002b7          	lui	t0,0x80000
800000f0:	fff28293          	addi	t0,t0,-1 # 7fffffff <_end+0xffffdf8f>
800000f4:	3b029073          	csrw	pmpaddr0,t0
800000f8:	01f00293          	li	t0,31
800000fc:	3a029073          	csrw	pmpcfg0,t0
80000100:	30405073          	csrwi	mie,0
80000104:	00000297          	auipc	t0,0x0
80000108:	01428293          	addi	t0,t0,20 # 80000118 <reset_vector+0xcc>
8000010c:	30529073          	csrw	mtvec,t0
80000110:	30205073          	csrwi	medeleg,0
80000114:	30305073          	csrwi	mideleg,0
80000118:	00000193          	li	gp,0
8000011c:	00000297          	auipc	t0,0x0
80000120:	ee828293          	addi	t0,t0,-280 # 80000004 <trap_vector>
80000124:	30529073          	csrw	mtvec,t0
80000128:	00100513          	li	a0,1
8000012c:	01f51513          	slli	a0,a0,0x1f
80000130:	00054c63          	bltz	a0,80000148 <reset_vector+0xfc>
80000134:	0ff0000f          	fence
80000138:	00100193          	li	gp,1
8000013c:	05d00893          	li	a7,93
80000140:	00000513          	li	a0,0
80000144:	00000073          	ecall
80000148:	80000297          	auipc	t0,0x80000
8000014c:	eb828293          	addi	t0,t0,-328 # 0 <_start-0x80000000>
80000150:	00028a63          	beqz	t0,80000164 <reset_vector+0x118>
80000154:	10529073          	csrw	stvec,t0
80000158:	0000b2b7          	lui	t0,0xb
8000015c:	10928293          	addi	t0,t0,265 # b109 <_start-0x7fff4ef7>
80000160:	30229073          	csrw	medeleg,t0
80000164:	30005073          	csrwi	mstatus,0
80000168:	00002537          	lui	a0,0x2
8000016c:	30052073          	csrs	mstatus,a0
80000170:	00305073          	csrwi	fcsr,0
80000174:	00000297          	auipc	t0,0x0
80000178:	01428293          	addi	t0,t0,20 # 80000188 <test_2>
8000017c:	34129073          	csrw	mepc,t0
80000180:	f1402573          	csrr	a0,mhartid
80000184:	30200073          	mret

80000188 <test_2>:
80000188:	00200193          	li	gp,2
8000018c:	00002517          	auipc	a0,0x2
80000190:	e7450513          	addi	a0,a0,-396 # 80002000 <test_2_data>
80000194:	00052683          	lw	a3,0(a0)
80000198:	00452703          	lw	a4,4(a0)
8000019c:	00200593          	li	a1,2
800001a0:	d2058053          	fcvt.d.w	ft0,a1
800001a4:	00053027          	fsd	ft0,0(a0)
800001a8:	00452583          	lw	a1,4(a0)
800001ac:	00052503          	lw	a0,0(a0)
800001b0:	00101073          	fsflags	zero
800001b4:	16d51263          	bne	a0,a3,80000318 <fail>
800001b8:	16e59063          	bne	a1,a4,80000318 <fail>

800001bc <test_3>:
800001bc:	00300193          	li	gp,3
800001c0:	00002517          	auipc	a0,0x2
800001c4:	e4850513          	addi	a0,a0,-440 # 80002008 <test_3_data>
800001c8:	00052683          	lw	a3,0(a0)
800001cc:	00452703          	lw	a4,4(a0)
800001d0:	ffe00593          	li	a1,-2
800001d4:	d2058053          	fcvt.d.w	ft0,a1
800001d8:	00053027          	fsd	ft0,0(a0)
800001dc:	00452583          	lw	a1,4(a0)
800001e0:	00052503          	lw	a0,0(a0)
800001e4:	00101073          	fsflags	zero
800001e8:	12d51863          	bne	a0,a3,80000318 <fail>
800001ec:	12e59663          	bne	a1,a4,80000318 <fail>

800001f0 <test_4>:
800001f0:	00400193          	li	gp,4
800001f4:	00002517          	auipc	a0,0x2
800001f8:	e1c50513          	addi	a0,a0,-484 # 80002010 <test_4_data>
800001fc:	00052683          	lw	a3,0(a0)
80000200:	00452703          	lw	a4,4(a0)
80000204:	00200593          	li	a1,2
80000208:	d2158053          	fcvt.d.wu	ft0,a1
8000020c:	00053027          	fsd	ft0,0(a0)
80000210:	00452583          	lw	a1,4(a0)
80000214:	00052503          	lw	a0,0(a0)
80000218:	00101073          	fsflags	zero
8000021c:	0ed51e63          	bne	a0,a3,80000318 <fail>
80000220:	0ee59c63          	bne	a1,a4,80000318 <fail>

80000224 <test_5>:
80000224:	00500193          	li	gp,5
80000228:	00002517          	auipc	a0,0x2
8000022c:	df050513          	addi	a0,a0,-528 # 80002018 <test_5_data>
80000230:	00052683          	lw	a3,0(a0)
80000234:	00452703          	lw	a4,4(a0)
80000238:	ffe00593          	li	a1,-2
8000023c:	d2158053          	fcvt.d.wu	ft0,a1
80000240:	00053027          	fsd	ft0,0(a0)
80000244:	00452583          	lw	a1,4(a0)
80000248:	00052503          	lw	a0,0(a0)
8000024c:	00101073          	fsflags	zero
80000250:	0cd51463          	bne	a0,a3,80000318 <fail>
80000254:	0ce59263          	bne	a1,a4,80000318 <fail>

80000258 <test_10>:
80000258:	00a00193          	li	gp,10
8000025c:	00002517          	auipc	a0,0x2
80000260:	dc450513          	addi	a0,a0,-572 # 80002020 <test_10_data>
80000264:	00053007          	fld	ft0,0(a0)
80000268:	00853087          	fld	ft1,8(a0)
8000026c:	01053107          	fld	ft2,16(a0)
80000270:	01852683          	lw	a3,24(a0)
80000274:	01c52303          	lw	t1,28(a0)
80000278:	401071d3          	fcvt.s.d	ft3,ft0
8000027c:	420181d3          	fcvt.d.s	ft3,ft3
80000280:	00353027          	fsd	ft3,0(a0)
80000284:	00452383          	lw	t2,4(a0)
80000288:	00052503          	lw	a0,0(a0)
8000028c:	001015f3          	fsflags	a1,zero
80000290:	00000613          	li	a2,0
80000294:	08d51263          	bne	a0,a3,80000318 <fail>
80000298:	08731063          	bne	t1,t2,80000318 <fail>
8000029c:	06c59e63          	bne	a1,a2,80000318 <fail>

800002a0 <test_11>:
800002a0:	00b00193          	li	gp,11
800002a4:	00002517          	auipc	a0,0x2
800002a8:	d9c50513          	addi	a0,a0,-612 # 80002040 <test_11_data>
800002ac:	00052007          	flw	ft0,0(a0)
800002b0:	00452087          	flw	ft1,4(a0)
800002b4:	00852107          	flw	ft2,8(a0)
800002b8:	00c52683          	lw	a3,12(a0)
800002bc:	420001d3          	fcvt.d.s	ft3,ft0
800002c0:	4011f1d3          	fcvt.s.d	ft3,ft3
800002c4:	e0018553          	fmv.x.w	a0,ft3
800002c8:	001015f3          	fsflags	a1,zero
800002cc:	00000613          	li	a2,0
800002d0:	04d51463          	bne	a0,a3,80000318 <fail>
800002d4:	04c59263          	bne	a1,a2,80000318 <fail>

800002d8 <test_12>:
800002d8:	00002597          	auipc	a1,0x2
800002dc:	d8858593          	addi	a1,a1,-632 # 80002060 <begin_signature>
800002e0:	0005b107          	fld	ft2,0(a1)
800002e4:	40117153          	fcvt.s.d	ft2,ft2
800002e8:	42010153          	fcvt.d.s	ft2,ft2
800002ec:	0025b027          	fsd	ft2,0(a1)
800002f0:	0005a503          	lw	a0,0(a1)
800002f4:	0045a583          	lw	a1,4(a1)
800002f8:	00002797          	auipc	a5,0x2
800002fc:	d5878793          	addi	a5,a5,-680 # 80002050 <test_12_data>
80000300:	0007a383          	lw	t2,0(a5)
80000304:	0047a783          	lw	a5,4(a5)
80000308:	00c00193          	li	gp,12
8000030c:	00751663          	bne	a0,t2,80000318 <fail>
80000310:	00f59463          	bne	a1,a5,80000318 <fail>
80000314:	02301063          	bne	zero,gp,80000334 <pass>

80000318 <fail>:
80000318:	0ff0000f          	fence
8000031c:	00018063          	beqz	gp,8000031c <fail+0x4>
80000320:	00119193          	slli	gp,gp,0x1
80000324:	0011e193          	ori	gp,gp,1
80000328:	05d00893          	li	a7,93
8000032c:	00018513          	mv	a0,gp
80000330:	00000073          	ecall

80000334 <pass>:
80000334:	0ff0000f          	fence
80000338:	00100193          	li	gp,1
8000033c:	05d00893          	li	a7,93
80000340:	00000513          	li	a0,0
80000344:	00000073          	ecall
80000348:	c0001073          	unimp
8000034c:	0000                	unimp
8000034e:	0000                	unimp
80000350:	0000                	unimp
80000352:	0000                	unimp
80000354:	0000                	unimp
80000356:	0000                	unimp
80000358:	0000                	unimp
8000035a:	0000                	unimp
8000035c:	0000                	unimp
8000035e:	0000                	unimp
80000360:	0000                	unimp
80000362:	0000                	unimp
80000364:	0000                	unimp
80000366:	0000                	unimp
80000368:	0000                	unimp
8000036a:	0000                	unimp
8000036c:	0000                	unimp
8000036e:	0000                	unimp
80000370:	0000                	unimp
80000372:	0000                	unimp
80000374:	0000                	unimp
80000376:	0000                	unimp
80000378:	0000                	unimp
8000037a:	0000                	unimp
8000037c:	0000                	unimp
8000037e:	0000                	unimp
80000380:	0000                	unimp
80000382:	0000                	unimp

Disassembly of section .data:

80002000 <test_2_data>:
80002000:	0000                	unimp
80002002:	0000                	unimp
80002004:	0000                	unimp
80002006:	4000                	lw	s0,0(s0)

80002008 <test_3_data>:
80002008:	0000                	unimp
8000200a:	0000                	unimp
8000200c:	0000                	unimp
8000200e:	c000                	sw	s0,0(s0)

80002010 <test_4_data>:
80002010:	0000                	unimp
80002012:	0000                	unimp
80002014:	0000                	unimp
80002016:	4000                	lw	s0,0(s0)

80002018 <test_5_data>:
80002018:	0000                	unimp
8000201a:	ffc0                	fsw	fs0,60(a5)
8000201c:	ffff                	0xffff
8000201e:	          	jal	gp,8000601e <_end+0x3fae>

80002020 <test_10_data>:
80002020:	0000                	unimp
80002022:	0000                	unimp
80002024:	0000                	unimp
80002026:	bff8                	fsd	fa4,248(a5)
80002028:	0000                	unimp
8000202a:	0000                	unimp
8000202c:	0000                	unimp
8000202e:	0000                	unimp
80002030:	0000                	unimp
80002032:	0000                	unimp
80002034:	0000                	unimp
80002036:	0000                	unimp
80002038:	0000                	unimp
8000203a:	0000                	unimp
8000203c:	0000                	unimp
8000203e:	bff8                	fsd	fa4,248(a5)

80002040 <test_11_data>:
80002040:	0000                	unimp
80002042:	bfc0                	fsd	fs0,184(a5)
80002044:	0000                	unimp
80002046:	0000                	unimp
80002048:	0000                	unimp
8000204a:	0000                	unimp
8000204c:	0000                	unimp
8000204e:	bfc0                	fsd	fs0,184(a5)

80002050 <test_12_data>:
80002050:	0000                	unimp
80002052:	0000                	unimp
80002054:	0000                	unimp
80002056:	7ff8                	flw	fa4,124(a5)
80002058:	0000                	unimp
8000205a:	0000                	unimp
8000205c:	0000                	unimp
8000205e:	0000                	unimp

80002060 <begin_signature>:
80002060:	8004                	0x8004
80002062:	ffff                	0xffff
80002064:	ffff                	0xffff
80002066:	7ffc                	flw	fa5,124(a5)
80002068:	0000                	unimp
8000206a:	0000                	unimp
8000206c:	0000                	unimp
8000206e:	0000                	unimp
