:0200000480007A
:10000000970000009380400B130E10009300100027
:100010001301300093802000639E2008130E2000FF
:10002000B70067F537F10F901303004093011000FC
:1000300093022000B3036300B3817100B3827200A6
:100040002320310023A00000032201006394420614
:100050001303C3FF93800001130101010F5000003F
:10006000E31603FC130E3000B70067F537F10F906D
:10007000130300409301200093023000B303630098
:10008000B3817100B382720003220100232031008A
:1000900023A000000F50000003220100639C4200D7
:1000A0001303C3FF9380000113010101E31403FC58
:1000B0006F000001370110F0130141F22320C1014C
:1000C000370110F0130101F223200100130000009A
:1000D00013000000130000001300000013000000D4
:0400E0001300000009
:00000001FF
