:0200000480007A
:10000000930E0000970000009380005973905030C9
:10001000130E1000977000009380C0FE3721262732
:100020001301415283A0400063922054130E20001C
:10003000970000009380000273901034B7200000F6
:100040009380008073900030730020306F00005266
:10005000130E3000B71000009380008073900030C2
:10006000970000009380400173901034730020309B
:100070006F00C04F130E400097800000938080F8FF
:10008000373136371301415383A040006390204E2F
:10009000130E5000971000009380C07617210000C7
:1000A000130141F6135121001361110123A0200017
:1000B00097200000938000F5370100801351210044
:1000C0001361F10023A02000130E500097200000C0
:1000D00093804083173100001301C1F213512100B6
:1000E0001361110123A0200097300000938000F4D9
:1000F00017910000130101F1135121001361F10167
:1001000023A02000973000009380C0F317A10000C7
:10011000130141EF135121001361310123A020008D
:1001200097300000938040F217A10000130181ED89
:10013000135121001361710123A0200097300000AA
:100140009380C0F017A100001301C1EB13512100EF
:100150001361910123A0200097300000938040EFAD
:1001600017A10000130101EA135121001361B1012D
:1001700023A02000973000009380C0ED17A100005D
:10018000130141E8135121001361F10023A0200065
:10019000130E5000972000009380C08617010000C6
:1001A000130141E6135121001361F10123A0200046
:1001B000130E5000972000009380C09423A00000ED
:1001C000B700040073A0001097100000938080E334
:1001D00093D0C00037010080B3E020007390001876
:1001E000130E6000B7A000909380800037514A4BF7
:1001F0001301819483A00000639A2036130E7000CF
:10020000B7A00090938000363701EEAA13011100C9
:1002100023A0200083A00000639A2034130E8000E6
:1002200097C00020938040DE3771767713014157E5
:1002300083A00000639C2032130E9000B7A000A0A2
:10024000938000363701EEAA1301210023A020007D
:1002500083A00000639C2030130EA0007350001890
:1002600097900000938000103701EEAA130111004F
:1002700083A00000639C202E130EB00097A0000006
:100280009380400E3701EEAA1301210083A00000E5
:10029000639E202C971000009380C0D693D0C0009E
:1002A00037010080B3E0200073900018130EC000E7
:1002B000930E1000170F0000130F0F0173000000C2
:1002C0006F00C02A130ED000170F0000130F4F014C
:1002D000B70000B083A080006F004029130EE0003B
:1002E000170F0000130F4F01B70000B023A4100038
:1002F0006F00C027130EF000170F0000130F4F01FF
:10030000B70000B0678000006F004026130E0001A8
:10031000930E0000B70001909380800037615A5B14
:100320001301819583A0000063922024B7100190EF
:100330009380800037615A5B1301819583A0000090
:1003400063962022B73001909380800037615A5B1A
:100350001301819583A00000639A2020130E1001E1
:10036000B7100190938000363701EEAA13013100D7
:1003700023A0200083A00000639A201E130E2001FA
:100380009700000093808001372101901301010143
:10039000670001006F00801D130E3001930E1000E6
:1003A000170F0000130F8F01B720019093800001F9
:1003B00083A000006F00801B170F0000130F8F0138
:1003C000B73001909380000123A010006F00001A45
:1003D000170F0000130F8F01B710019093800001D9
:1003E000678000006F008018130E5001930E00000C
:1003F000B700080073A00010B72001909380800020
:1004000037615A5B1301819583A000006390201629
:10041000B700080073B00010930E0000130E4001E7
:10042000B7400190938000383701EEAA13015100C4
:1004300023A0200083A00000639A2012B7000400CC
:1004400073B00010930E1000170F0000130F8F01F0
:10045000B71001909380806423A010006F000011FA
:10046000130E2003930E0000B700040073A00010C9
:10047000732500187310001897200000938080B82F
:1004800037010080135121001361F10123A02000E6
:10049000731005189300001073B00010970000004F
:1004A0009380800173901014730000127300201069
:1004B0006F00C00B130E3003B710019093808000C3
:1004C00037615A5B1301819583A000006390200A75
:1004D000B7A000A0938040323701EEAA130181003B
:1004E00023A0200083A0000063922008130E400385
:1004F00097000000938080013721019013010101D2
:10050000670001006F008006130E5003930E100069
:10051000170F0000130F8F01B7400190938000392F
:10052000678000006F008004130E6003930E1000BC
:10053000170F0000130F8F01B740019093804039CF
:1005400083A000006F008002130E7003930E100052
:10055000170F0000130F8F01B7400190938080396F
:1005600023A010006F0080006F008001930E000038
:1005700073000000370110F0130141F22320C10184
:10058000930E200073000000370110F0130101F2F8
:1005900023200100E3800EFEF3202034F3201034EA
:1005A000F3200030F320303493002000E38E1EFC53
:1005B00073101F347300203013000000130000007C
:1005C00013000000130000001300000013000000DF
:1005D00013000000130000001300000013000000CF
:1005E00013000000130000001300000013000000BF
:1005F00013000000130000001300000013000000AF
:1010000000000000130000001300000013000000A7
:101010001300000013000000130000001300000084
:101020001300000013000000130000001300000074
:101030001300000013000000130000001300000064
:101040001300000013000000130000001300000054
:102000000000000013000000130000001300000097
:102010001300000013000000130000001300000074
:102020001300000013000000130000001300000064
:102030001300000013000000130000001300000054
:102040001300000013000000130000001300000044
:103000000000000013000000130000001300000087
:103010001300000013000000130000001300000064
:103020001300000013000000130000001300000054
:103030001300000013000000130000001300000044
:103040001300000013000000130000001300000034
:104000000000000013000000130000001300000077
:104010001300000013000000130000001300000054
:104020001300000013000000130000001300000044
:104030001300000013000000130000001300000034
:104040001300000013000000130000001300000024
:10500000000102030405060708090A0B0C0D0E0F28
:105010001300000013000000130000001300000044
:105020001300000013000000130000001300000034
:105030001300000013000000130000001300000024
:105040001300000013000000130000001300000014
:10600000101112131415161718191A1B1C1D1E1F18
:106010001300000013000000130000001300000034
:106020001300000013000000130000001300000024
:106030001300000013000000130000001300000014
:106040001300000013000000130000001300000004
:10700000202122232425262728292A2B2C2D2E2F08
:107010001300000013000000130000001300000024
:107020001300000013000000130000001300000014
:107030001300000013000000130000001300000004
:1070400013000000130000001300000013000000F4
:10800000303132333435363738393A3B3C3D3E3FF8
:108010001300000013000000130000001300000014
:108020001300000013000000130000001300000004
:1080300013000000130000001300000013000000F4
:1080400013000000130000001300000013000000E4
:10900000404142434445464748494A4B4C4D4E4FE8
:109010001300000013000000130000001300000004
:1090200013000000130000001300000013000000F4
:1090300013000000130000001300000013000000E4
:1090400013000000130000001300000013000000D4
:10A00000505152535455565758595A5B5C5D5E5FD8
:10A010006780000013000000130000001300000020
:10A0200013000000130000001300000013000000E4
:10A0300013000000130000001300000013000000D4
:10A0400013000000130000001300000013000000C4
:10A0500013000000130000001300000013000000B4
:10B00000606162636465666768696A6B6C6D6E6FC8
:10B0100013000000130000001300000013000000E4
:10B0200013000000130000001300000013000000D4
:10B0300013000000130000001300000013000000C4
:10B0400013000000130000001300000013000000B4
:10C00000707172737475767778797A7B7C7D7E7FB8
:10C010000000000000000000000000000000000020
:10C020000000000000000000000000000000000010
:10C030000000000000000000000000000000000000
:10C0400000000000000000000000000000000000F0
:040000058000000077
:00000001FF
