:0200000480007A
:100000006F00000B1300000013000000130000003D
:100010001300000013000000130000001300000094
:10002000232E11FE232C51FE232A61FE232871FE6C
:100030002326A1FE2324B1FE2322C1FE2320D1FECC
:10004000232EE1FC232CF1FC232A01FD232811FDA2
:100050002326C1FD2324D1FD2322E1FD2320F1FD30
:10006000130101FCEF00403A8320C1038322810386
:1000700003234103832301030325C1028325810256
:1000800003264102832601020327C1018327810140
:100090000328410183280101032EC100832E810022
:1000A000032F4100832F010013010104730020304E
:1000B00097110000938181BD138181A01705000075
:1000C0001305C53C970500009385453C6308B500C2
:1000D00023200500130545006FF05FFF17050000A2
:1000E0001305853A1301C1FF970500009385C539B3
:1000F000630EB50083260500130545002320A100EB
:10010000E7800600032501006FF01FFE1301410088
:10011000371500001305058873104530372500009A
:100120001305858073100530EF00C0196F000000C3
:10013000130101FE232E8100130401022326A4FED5
:100140008327C4FE23A007008327C4FE23A407003F
:10015000130000000324C1011301010267800000A5
:10016000130101FE232E8100130401022326A4FEA5
:10017000130000000324C101130101026780000085
:10018000130101FE232E8100130401022326A4FE85
:100190008327C4FE23A207008327C4FE1307F0FFB2
:1001A00023A0E700130000000324C1011301010292
:1001B00067800000130101FE232E81001304010259
:1001C0002326A4FE8327C4FE83A7470093D70701F5
:1001D00093F7F70F138507000324C10113010102F0
:1001E00067800000130101FE232E81001304010229
:1001F0002326A4FE8327C4FE83A7470093D7870145
:10020000138507000324C101130101026780000068
:10021000130101FE232E1100232C8100130401027F
:100220002326A4FE2324B4FE130000000325C4FEED
:10023000EFF05FF893070500E38A07FE8327C4FE0B
:10024000032784FE23A0E700130000008320C101E0
:10025000032481011301010267800000130101FEE4
:10026000232E8100130401022326A4FE2324B4FEBE
:10027000832784FE03A7C7008327C4FE23A4E700C7
:10028000832784FE83A707001387F7FF832784FE55
:1002900083A74700939787003367F700832784FE7F
:1002A00083A78700939707013367F7008327C4FE6E
:1002B00023A6E700130000000324C101130101027B
:1002C00067800000130101FD23261102232481020F
:1002D00013040103930710002322F4FE9307200068
:1002E0002320F4FE93073000232EF4FC232604FE83
:1002F000B70702F013850701EFF09FE8370502F01A
:10030000EFF01FE6B70702F013850704EFF05FE296
:10031000B70702F0373700001307F7ED23A0E70017
:10032000B70702F0938707041307703E23A2E70084
:10033000B70702F093870704370701001307270068
:1003400023A0E700B70702F0938707011307F00027
:1003500023A0E700B70702F09387070113071000F7
:1003600023A2E700B70700F01307F00F23A4E7006C
:10037000B70700F023A20700B70701F0130720001A
:1003800023A2E700B70701F01307100423A0E7003A
:10039000832744FE0327C4FEB307F7002326F4FE99
:1003A000032704FE8327C4FDB307F7000327C4FE19
:1003B000B307F7002326F4FE232404FE6F00000198
:1003C000832784FE938717002324F4FE032784FEEB
:1003D000B7C700009387F734E3F4E7FEB70700F0F0
:1003E00083A7470093F607FCB70700F083A74700F1
:1003F0009387170013F7F703B70700F033E7E6001A
:1004000023A2E7006FF0DFF8130101FF232681002C
:1004100013040101B70702F09387070183A70700C0
:1004200093F7170063800704B70700F003A747009E
:10043000B70700F01347070823A2E700B70702F049
:10044000938707011307100023A0E7006F008001C6
:10045000B70701F003A70700B70701F01377F70FFD
:1004600023A0E700B70701F083A7470093F7072011
:10047000E39007FE130000000324C10013010101F3
:040480006780000091
:040484000000000074
:040000058000000077
:00000001FF
