:0200000480007A
:10000000B72F0000938F0F8073900F3015A8130047
:100010000000130000001300000013000000130094
:100020000000130000001300000013000000130084
:100030000000130000001300000013000000010086
:10004000970200009382020C73905230814001416C
:100050008141014281420143814301448144014580
:100060008145014681460147814701488148014950
:100070008149014A814A014B814B014C814C014D20
:10008000814D014E814E014F814F971102009381A6
:1000900061C8170502001305E54A9795030093858B
:1000A000256A01461122170502001305253E970512
:1000B00002009385C5450146C52817A50300130511
:1000C000656897B503009385A56737B6ABAB130694
:1000D000B6BAD92817B103001301C166EF50906F6B
:1000E000860293D21200F512638802008242110147
:1000F0006F00001073002030824211017300203025
:10010000711116C0F3222034E3CC02FC82421101AB
:10011000130141F806C20AC40EC612C816CA1ACC88
:100120001ECE22D026D22AD42ED632D836DA3ADCC7
:100130003EDEC2C0C6C2CAC4CEC6D2C8D6CADACC97
:10014000DECEE2D0E6D2EAD4EED6F2D8F6DAFADCA7
:10015000FEDE73252034F32510340A8601A07310C7
:10016000153492402241B2414242D2426243F243AC
:10017000025492542255B2554256D2566257F25703
:10018000064896482649B649464AD64A664BF64B33
:10019000065C965C265DB65D465ED65E665FF65F83
:1001A0001301C1077300203010C16374B50011053D
:1001B000E5BF828000000000000000000000000099
:1001C000000000000000000000000000000000002F
:1001D000000000000000000000000000000000001F
:1001E000000000000000000000000000000000000F
:1001F000197106C00AC20EC412C616C81ACA1ECC8D
:1002000022CE26D02AD22ED432D636D83ADA3EDCC6
:1002100042DEC6C0CAC2CEC4D2C6D6C8DACADECC96
:10022000E2CEE6D0EAD2EED4F2D6F6D8FADAFEDCA6
:100230009702020083A2C22823A02200F3221034D6
:1002400096DEEF00002B1701020003216127024117
:10025000F65273901234B72200009382028873A082
:10026000023082403242C2425243E24372448254DC
:100270001255A2553256C2565257E2577258864806
:100280001649A649364AC64A564BE64B764C865C1A
:10029000165DA65D365EC65E565FE65F0961730059
:1002A0002030970202009382E22923A0120023A2A9
:1002B000220023A4320023A6420023A8520023AA2E
:1002C000620023AC720023AE820023A0920223A21C
:1002D000A20223A4B20223A6C20223A8D20223AA06
:1002E000E20223ACF20223AE020323A0120523A2F2
:1002F000220523A4320523A6420523A8520523AADA
:10030000620523AC720523AE820523A0920723A2C7
:10031000A20723A4B20723A6C20723A8D20723AAB1
:10032000E20723ACF207EF40F0531701020003216C
:1003300021190241F65273901234B72200009382C1
:10034000028873A0023082403242C2425243E243EA
:10035000724482541255A2553256C2565257E25731
:10036000725886481649A649364AC64A564BE64B45
:10037000764C865C165DA65D365EC65E565FE65FB1
:10038000096173002030970202009382A21B83A0B0
:10039000020003A1420083A1820003A2C20083A243
:1003A000020103A3420183A3820103A4C20183A427
:1003B000020203A5420283A5820203A6C20283A60B
:1003C000020303A7420383A7820303A8C20383A8EF
:1003D000020403A9420483A9820403AAC20483AAD3
:1003E000020503AB420583AB820503ACC20583ACB7
:1003F000020603AD420683AD820603AEC20683AE9B
:10040000020703AFC20983AF820782807370043092
:10041000197106C00AC20EC412C616C81ACA1ECC6A
:1004200022CE26D02AD22ED432D636D83ADA3EDCA4
:1004300042DEC6C0CAC2CEC4D2C6D6C8DACADECC74
:10044000E2CEE6D0EAD2EED4F2D6F6D8FADAFEDC84
:100450009702020083A2C20623A0220086DEEF20BC
:10046000C05B170102000321A1050241F6527390FF
:100470001234B72200009382028873A002308240B7
:100480003242C2425243E243724482541255A25550
:100490003256C2565257E257725886481649A649F4
:1004A000364AC64A564BE64B764C865C165DA65DD0
:1004B000365EC65E565FE65F09617300203073707A
:1004C000043001A07310453082807325403073F0F2
:1004D00043308280970700009387A7FE232EB5FE46
:1004E0002322C5FA232635F82320F5F8130505F84D
:1004F0008280411106C6EF405034EF10B03901E55B
:10050000B24041018280B24041016F200051930707
:1005100085007D575CC118C55CC51CC9232005003A
:1005200082802328050082805C41DCC1984798C501
:1005300098474CC38CC788C91C4185071CC1828061
:100540009041FD57130785006314F60039A83E87D4
:100550005C439443E37DD6FEDCC18CC798C54CC395
:1005600088C91C4185071CC1828018495C43EDB7CE
:10057000584114451C4914C71845544154C3D84325
:100580006314A7001845D8C32328050088437D15A8
:1005900088C382803041AE8701CE4C455841B29528
:1005A0004CC563E4E5000C414CC53E856F30904D71
:1005B0008280411122C406C62A8426C2EF20103F41
:1005C0003C44635BF0025C5085CB9304440209A871
:1005D0003C44FD173CC43C446350F0025C5089CF5E
:1005E0002685EF2030056DD5EF2010253C44FD1702
:1005F0003CC43C44E344F0FEFD573CC4EF20503D76
:10060000EF20D03A7C40635BF0021C4885CB93041A
:10061000040109A87C40FD177CC07C406350F002B7
:100620001C4889CF2685EF20F0006DD5EF20D02023
:100630007C40FD177CC07C40E344F0FEFD577CC04D
:100640002244B240924441016F20903829C54111A3
:1006500022C426C22A8406C6AE84EF203035344038
:100660005C5C1840232C0402B387F6027D5670C0F0
:1006700018C430C4B386D740BA9736975CC058C404
:1006800091EC1C489DE3EF20B034B24022449244E8
:100690000545410182807370043001A013050401F7
:1006A000BD3513054402A535F9BF13050401EF203C
:1006B00060788547E319F5FC913BF1B701E573706C
:1006C000043001A0011126CA4AC84EC606CE22CC6B
:1006D000B2892E89AA84A5C53305B502130555052F
:1006E000EF3010222A8435C1930745051CC144DC34
:1006F00023202405EF20902B34405C5C18407D566D
:10070000B387F602232C040270C018C430C413054A
:100710000401B386D740BA9736975CC058C4C53B2E
:1007200013054402ED33EF20B02A23083405228557
:10073000F2406244D2444249B249056182801305C5
:100740004005EF30F01B2A8401E57370043001A0EE
:1007500000C071BF01E57370043001A06375B5007E
:100760007370043001A0411122C409462E848145D2
:1007700006C6A93711C500DDB2402244410182807E
:100780007370043001A05D7186C6A2C4A6C2CAC03F
:100790004EDE52DC56DA5AD85ED632C6630A051CE3
:1007A0006382051C89476399F600585D8547630598
:1007B000F7007370043001A03689AE842A84EF20DC
:1007C000300A11E5B24781C77370043001A0EF20F1
:1007D000F01D185C5C5C014B894BFD59130A040148
:1007E000930A44026365F70C63077919B247638182
:1007F000072463150B002808EF20E076EF20501D3A
:10080000EF101000EF20901A7C40639437012322F0
:1008100004043C446394370123240404EF20501B58
:100820006C002808EF204076631E051EEF2010188C
:10083000185C5C5C630CF70AEF209019EF2010172E
:100840003C44634FF00039A85685EF20A05E19C1E3
:10085000EF20807E3C44FD173CC43C446354F000D0
:100860005C50FDF323243405EF209016EF20101484
:100870007C40634FF00039A85285EF20A05B19C17E
:10088000EF20807B7C40FD177CC07C406354F000EF
:100890001C48FDF323223405EF209013EF10501B6A
:1008A000054BEF20B010185C5C5CE37FF7F2304042
:1008B0006305060C631F09120844A685EF30901CDF
:1008C0001C4434405840B6971CC463EAE70A1C5CD9
:1008D00014405850850714C41CDC5DC7130544023E
:1008E000EF20405585476311F50AC9A8EF20500E47
:1008F000B2455285EF20C035EF20500B3C44634F8A
:10090000F00039A85685EF20E05219C1EF20C072DF
:100910003C44FD173CC43C446354F0005C50FDF380
:1009200023243405EF20D00AEF2050087C40634F89
:10093000F00039A85285EF20E04F19C1EF20C06FB9
:100940007C40FD177CC07C406354F0001C48FDF3E4
:1009500023223405EF20D007EF10900F31F17D34C2
:10096000054B81B73C41E38F07E27370043001A06F
:100970007370043001A0304021E61C4085C71C5C28
:10098000585085071CDC39FBEF2090040545B64024
:10099000264496440649F259625AD25A425BB25BE7
:1009A000616182804840EF20C0771C5C5850232250
:1009B000040085071CDCE31307F279D5813CE9B715
:1009C0004844A685EF30100C3C4058441440B3070F
:1009D000F0403E9758C4637CD7025840BA975CC435
:1009E00009475C506306E902185C050718DCC9DF9B
:1009F000F5B54844A685EF30F0083C405844144013
:100A0000B307F0403E9758C4E37CD7FCF9B75C507D
:100A1000185C79DB185C7D1718DC185C050718DC9E
:100A2000A5D76DBD22857136EF109002014585B7BF
:100A3000EF20007A0145A1BF411126C2AA84130507
:100A4000400522C406C6EF30A06B2A8415CD232CA6
:100A50000502FD577CC10547410558DC3CC42322F3
:100A60000400232004002324040023260400232060
:100A7000040423089404613C13054402493C814664
:100A800001468145228501332285B24022449244A9
:100A9000410182800DC5411122C426C206C64AC04A
:100AA000032945002A84EF20E05A8144630CA90001
:100AB000B2402244268502499244410182807370EB
:100AC000043001A05C448544FD175CC4F5F3814605
:100AD0000146814522854539E1BF397106DE22DCB8
:100AE00026DA4AD84ED652D432C635CD8149DDC138
:100AF0003689AE842A84130A05012DA0EF20406DAB
:100B0000EF20C06A6C002808EF20004831E1EF2098
:100B1000E069185C5C5C6305F702EF20606BEF2016
:100B2000206B8549EF208068185C5C5C6360F7048B
:100B3000B24799CFE39409FC2808EF20C0427DBF5B
:100B4000EF200069B2455285EF208010C130C1BF4F
:100B5000EF200068F2506254D2544259B259225ADE
:100B60000145216182807370043001A0304015EE90
:100B70001C4095C71C5C585085071CDC39E7EF20EA
:100B80002065F2506254D2544259B259225A054556
:100B9000216182803C41A9DF7370043001A048408C
:100BA000EF20205823220400F1B7631909020844FA
:100BB000A685EF30206D1C4434405840B6971CC4C5
:100BC000E3EAE7FA1C401CC475B713054402EF20A2
:100BD00060268547E315F5FA153855B74844A685CC
:100BE000EF30406A3C4058441440B307F0403E9711
:100BF00058C46375D7005840BA975CC48947E31B53
:100C0000F9F61C5CA5DB1C5CFD171CDCA5B7397173
:100C100006DE22DC26DA4AD84ED652D432C663012A
:100C2000050E81446388050CB6892E892A84130A2F
:100C3000450231A0EF20C059EF2080598544EF20B4
:100C4000E0561C5CBDE3B24795CF8DC8EF204058FD
:100C5000EF20C0556C002808EF20003305E5EF2099
:100C6000E0541C5CE1FBEF20A0561C409DC7B24540
:100C70005285EF10F07DEFF06FF97DBF2808EF206F
:100C8000802EE9B7EF20C054F2506254D25442593A
:100C9000B259225A014521618280EF2020514840FB
:100CA000EF20003EEF20C052D9B73040444409CE77
:100CB0005840B387C4005CC463E4E7001C405CC4D4
:100CC0004C444A85EF30005C639F09021C5C18406D
:100CD000FD171CDC01E7EF20205448C01C489DC7CD
:100CE00013050401EF20001585476311F502EFF0AD
:100CF000EFF129A83C41E38907F27370043001A0A9
:100D00007370043001A05C5044C481EFEF20404C6C
:100D1000F2506254D2544259B259225A05452161C7
:100D2000828013054402EF20E0106DD1C9B725C1C0
:100D3000B1C9011122CC26CA4AC852C406CE4EC639
:100D40008947B68432892E8A2A846399F600585DD1
:100D500085476301F7067370043001A0EFF0EFF6EA
:100D6000185C5C5CAA896367F70281444E85EFF0EA
:100D70006FF5F240624426854249D244B249224A84
:100D8000056182803C41D5D77370043001A0737037
:100D9000043001A0304049E21C40DDCB1C5C7D5793
:100DA00085071CDC3C446388E7083C448544850790
:100DB0003CC46DBFEFF06FF1185C5C5CAA89636D99
:100DC000F702304071DA4844D285EF30A04B3C4006
:100DD00058441440B307F0403E9758C46375D70099
:100DE0005840BA975CC48947E39AF4FA1C5CDDD793
:100DF0001C5CFD171CDC5DB7304059DE4844D285D1
:100E0000EF3040483C4058441440B307F0403E9710
:100E100058C4E367D7FCD9BFDDF40844D285EF306E
:100E200060461C4434405840B6971CC4E3E8E7F6DB
:100E30001C401CC4A5B75C5085448DDB13054402DF
:100E4000EF10507F05D5E30309F22320990039BF45
:100E50004840EF20002D2322040089B731CD3C41CA
:100E600081C77370043001A01C41B1CB011122CCA9
:100E700026CA2A844AC84EC606CE2E89EFF0EFE471
:100E8000185C5C5CAA898144637DF7001C5C7D571B
:100E900085071CDC3C446389E7023C4485448507A4
:100EA0003CC44E85EFF00FE2F24062442685424991
:100EB000D244B249056182807370043001A05C4164
:100EC000D5D77370043001A05C5099E38544D1BF3D
:100ED00013054402EF10107675D9E30909FE854722
:100EE0002320F900E5B7397106DE22DC26DA4AD87C
:100EF0004ED652D456D232C66302051C638A051AF6
:100F0000B68AAE892A84EF20A01511E5B24781C7C1
:100F10007370043001A0EF2060291C5C63920714F9
:100F2000B247638E070A2808EF20E003FD54130937
:100F30004402130A0401EF20A029EF10600CEF20F7
:100F4000E0267C4063949700232204043C4463948D
:100F5000970023240404EF20A0276C002808EF202A
:100F6000A00263130518EF2060241C5CADCFEF20B6
:100F70002026EF20A0233C44634FF00039A84A8587
:100F8000EF10506B19C1EF20200B3C44FD173CC4FF
:100F90003C446354F0005C50FDF324C4EF20402334
:100FA000EF20C0207C40634FF00039A85285EF103D
:100FB000706819C1EF2040087C40FD177CC07C4060
:100FC0006354F0001C48FDF364C0EF206020EF1074
:100FD0002028EF20A01D1C5CC1E7B247A9FFEF202D
:100FE000201F014555A0EF20A01E1C40DDC7B245C3
:100FF0004A85EF10F045EF20601B3C44634FF00042
:1010000039A84A85EF10106319C1EF20E0023C4473
:10101000FD173CC43C446354F0005C50FDF324C411
:10102000EF20001BEF2080187C40634FF00039A8B0
:101030005285EF10306019C1EF2000007C40FD1791
:101040007CC07C406354F0001C48FDF364C0EF207A
:101050002018EF10E01F31C9EF2040151C5CB5DFF0
:10106000CE8522854444EFF0EFD2639C0A041C5CD9
:101070001840FD171CDC01E7EF20001A48C01C488F
:10108000A1EFEF20E0140545F2506254D2544259CA
:10109000B259225A925A21618280EF202011484091
:1010A000EF10107EEF20C01299B7EFF02FB66DB79A
:1010B0003C41E38707E47370043001A0737004308F
:1010C00001A05C5044C4D5DF13054402EF109056D4
:1010D0004DD9EFF0AFB375B713050401EF1090557C
:1010E0008547E310F5FAF5B72285EFF08FCCEF10C6
:1010F0002016014551BF1DC9411122C44AC006C670
:1011000026C244412E892A84EF10D0746383A4023E
:1011100081464A8681452285F93385476300F50279
:10112000B2402244924402494101828073700430EB
:1011300001A05C44054585075CC4DDB75C448507B8
:101140005CC4F9BF15CDADC9011122CC26CA4AC86D
:101150004EC652C42A8406CE3289AE89EFF0EFB66D
:101160001C5C2A8A814485E35285EFF0AFB5F240DA
:10117000624426854249D244B249224A05618280AE
:101180007370043001A0304001CE4C445C40B295F5
:101190004CC463E4F5000C404CC44E85EF30800E27
:1011A0001C5C7D57FD171CDC7C40638CE7007C4099
:1011B000854485077CC04DBF3C41D9D7737004304E
:1011C00001A01C4899E3854445B713050401EF10BD
:1011D000704675D9E30909FE85472320F900E5B774
:1011E00021C93C41A1CDA1CB011122CC26CA4AC8BC
:1011F00052C42A8406CE4EC62E8AEFF00FAD1C5C78
:101200002A89814491CB8329C400D2852285EFF0BD
:101210006FB88544232634014A85EFF0AFAAF24027
:10122000624426854249D244B249224A05618280FD
:101230007370043001A07370043001A0EDDF73708F
:10124000043001A001E57370043001A0411122C4F3
:101250002A8406C6EF109075005CEF107077B240DC
:10126000228522444101828001E57370043001A08F
:10127000411106C622C42A84EF1050731C5C405CE6
:101280001D8CEF10F0742285B2402244410182800F
:1012900019C1085D82807370043001A01DCD97874D
:1012A000030093872746D843630CE502D847630CB5
:1012B000E504D84B6307E504D84F6302E504D8532F
:1012C000630DE502D8576308E502D85B6303E502C6
:1012D000D85F630EE5006F20D0747370043001A0F6
:1012E00001470E07BA9723A007006F2090731D4790
:1012F000CDBF1947FDB71547EDB71147DDB70D470E
:10130000CDB70947F9BF0547E9BF684582806CC57D
:10131000828003450505828009C5085D13351500E7
:1013200082807370043001A019C51C5D485D1D8D5D
:101330001335150082807370043001A09787030075
:101340009387473C984305C3984705C7984B05C703
:10135000984F05C7985305C7985705C7985B15C799
:10136000985F15C3828001470E07BA978CC3C8C324
:1013700082800547D5BF0947C5BF0D47F5B711475F
:10138000E5B71547D5B71D47C5B71947F1BF9787CB
:10139000030093872737D8436308E502D847630BD8
:1013A000E502D84B630AE502D84F6309E502D8533A
:1013B0006308E502D8576307E502D85B6308E502D6
:1013C000D85F6303A702828001470E07BA9723A064
:1013D000070082800547D5BF0947C5BF0D47F5B750
:1013E0001147E5B71547D5B71D47C5B71947F1BF31
:1013F000411122C426C24AC02A8406C6AE8432895C
:10140000EF10D05A7840FD576314F70023220404EC
:101410003844FD576314F70023240404EF10505B95
:101420001C5C99E74A86A68513054402EF10501507
:10143000EF10D0573C44635BF0025C5085CB9304C3
:10144000440209A83C44FD173CC43C446350F002EC
:101450005C5089CF2685EF10F01D6DD5EF10D03D83
:101460003C44FD173CC43C44E344F0FEFD573CC4FF
:10147000EF101056EF1090537C40635BF0021C4855
:1014800085CB9304040109A87C40FD177CC07C40F7
:101490006350F0021C4889CF2685EF10B0196DD536
:1014A000EF1090397C40FD177CC07C40E344F0FE97
:1014B000FD577CC02244B2409244024941016F1062
:1014C000305197F701009387A7FF944317F7010066
:1014D0001307C7FD1843C8C2636EE502411122C459
:1014E00006C617F70100130767FD2A8408438C43DB
:1014F0009105EFF0EF8497F70100938767F99C431C
:101500006376F40097F7010023A487F8B2402244E1
:101510004101828017F70100130707FA08438C4343
:1015200091056FF0EF8197F70100938767F9984372
:1015300094437C43FD177CC3FC4299E37360043001
:1015400082801DC179714ECE56CA06D6BE8A22D47B
:1015500026D24AD052CC5AC85EC69147BA8963F89F
:10156000E7007370043001A07370043001A02A8B6F
:10157000AE843289B68B428A6308082213050006BE
:10158000EF2010382A84630C05200A09232845031C
:101590004A869305500A5285EF20D05C03C70400A9
:1015A0001C587119230AE40203C704003E991379F9
:1015B000C9FF79C783C71400A30AF40283C71400C4
:1015C000E1C383C72400230BF40283C72400CDCBDF
:1015D00083C73400A30BF40283C73400D5C383C789
:1015E0004400230CF40283C74400D9CB83C75400C2
:1015F000A30CF40283C75400C1C783C76400230D42
:10160000F40283C76400ADCF83C77400A30DF40256
:1016100083C77400B5C783C78400230EF40283C751
:101620008400B9CF83C79400A30EF40283C794004B
:10163000A1CB83C7A400230FF40283C7A400A9C3CE
:1016400083C7B400A30FF40283C7B40095CB83C74C
:10165000C4002300F40483C7C4009DC383C7D4001F
:10166000A300F40483C7D40081CF83C7E40023011F
:10167000F40483C7E40089C783C7F400A301F4041A
:10168000130A44005285A3010404232634032328AB
:101690003405232A0404EFE0DFE813058401EFE0BA
:1016A0005FE89547B3873741232C040400C81CCC5E
:1016B00040D023220404232E04045E86DA854A8562
:1016C000EFE05FE108C063840A0023A08A00737022
:1016D000043017F901001309E9DC8327090097F4A6
:1016E00001009384E4DD91C798409C407C438507CA
:1016F0007CC317F701001307A7DB1C43850797F688
:10170000010023A7F6DA9C40CDCB8327090089EBA3
:101710009C40DC5763E6F90097F7010023A287DAC3
:1017200097F70100938707D7984397F601009386B0
:10173000A6D75C549442050717F60100232CE6D483
:1017400038C463F6F60017F70100232FF7D451478A
:10175000B387E70217F50100130585E6D2853E95AC
:10176000EFE09FDC8327090089C79C40FC43639519
:10177000070E83270900054499C79C40DC5763F492
:101780003701EFE0BFC82285B2502254925402596B
:10179000F249624AD24A424BB24B4561828052853D
:1017A000EF2030287D54C5B713152600EF205015C3
:1017B0002A8AE31505DC7D54F9B797F7010023A1C8
:1017C00087D018438547E31DF7F417F5010013058B
:1017D00025DFEFE0DFD317F501001305A5DFEFE00C
:1017E0001FD317F50100130525E0EFE05FD217F5D1
:1017F00001001305A5E0EFE09FD117F501001305E7
:1018000025E1EFE0DFD017FB0100130BABE15A85B8
:10181000EFE0FFCF97FA0100938A0AE25685EFE0E6
:101820001FCF17F50100130565E2EFE05FCE17F556
:1018300001001305E5E2EFE09FCD17F50100130568
:1018400065E3EFE0DFCC97F7010023A967C797F7BF
:10185000010023A357C7E9B5984094407C43FD1786
:101860007CC3FC42E39707F07360043019B7411161
:1018700022C406C626C24AC02A847370043097F474
:101880000100938424C29C40F9E311E497F701001E
:10189000938707C38043130944004A85EFE05FCD77
:1018A0001C5489C713058401EFE09FCCCA8517F546
:1018B00001001305E5DAEFE03FC797F701009387D2
:1018C00067BF984397F701009387C7BC9C43050700
:1018D00097F6010023A0E6BE9840850797F6010021
:1018E00023AAF6BA01CB97F70100938767BD984307
:1018F000784349EF9C40B1C797F70100938747BCF5
:101900009843630F870873700430984039EB17F7DA
:1019100001001307A7BA14439442A5E27D5797F636
:10192000010023A7E6B6984009CF9843784311CB2E
:10193000984394437C43FD177CC3FC4299E3736056
:101940000430B2402244924402494101828097F718
:1019500001009387E7B698439C437C4385077CC38B
:101960002DB794439843F8420507F8C217F70100D2
:101970001307C7B414439442D5D218435847584765
:10198000584397F6010023A5E6B071BF98439443EE
:101990007C43FD177CC3FC42B1FF7360043099BFE8
:1019A00097F70100938787AE9C4381C7737004301B
:1019B00001A02244B2409244024941016FE01FA5B8
:1019C00041C517F701001307A7AF14438147638B85
:1019D000A606411106C622C426C27370043097F6CB
:1019E0000100938626AC9C4291C710431C437C4265
:1019F00085077CC29C42AA84404981C71C43FC43A2
:101A0000B9E797F70100938767AB9C43638A870424
:101A100097F70100938747AA9C436383870497F74E
:101A20000100938727C56308F40297F701009387A5
:101A300027C36300F4028547B240224492443E85A6
:101A4000410182803E8582807370043001A0E13CB8
:101A50004DBF9147D5B79C5493B717008907E9BF8D
:101A60008947D9BF7370043097F70100938787A324
:101A7000984309EF15C59C43485581CB97F7010062
:101A8000938707A49843784315E3828017F70100F2
:101A9000130707A314431843F8420507F8C261FD72
:101AA00017F701001307C7A10843F1B79843944300
:101AB0007C43FD177CC3FC42E9FB736004308280E9
:101AC000411122C42A8406C6EFE03FA011E497F733
:101AD00001009387E79E80434054EFE0BF9EB240F1
:101AE0002285224441018280914763F5B7007370DB
:101AF000043001A0011122CC06CE26CA4AC84EC627
:101B000052C42A847370043017F9010013098999AB
:101B100083270900D5EF79C43C486389F50817F796
:101B200001001307E79963FCB7001443638C860C2C
:101B300018434457B3B4950093C4140029A0044338
:101B4000818C93B4140058546384E70A1C4C2CC84D
:101B500063C607009547B385B7400CCC93172700A1
:101B6000BA97584897F90100938989A58A07CE97B3
:101B7000631BF702130A44005285EFE07F9F17F7BB
:101B80000100130767925C5418436376F70017F758
:101B90000100232BF7905147B387E702D2853385A5
:101BA000F900EFE07F9899C0EFE05F868327090096
:101BB00081CB97F701009387A7909C43FC439DEB53
:101BC000F2406244D2444249B249224A05618280CD
:101BD00097F701009387C78E98439C437C43850702
:101BE0007CC31DF897F701009387878D80432DB73D
:101BF0004CD4A9BF6244F240D2444249B249224A7D
:101C0000056115B2814481B725C1011126CA97F437
:101C100001009384E48A9C4006CE22CC4AC84EC67A
:101C2000638DA7027370043017F9010013098987C7
:101C30008327090091C798409C407C4385077CC35B
:101C4000584997F701009387E7A26302F7028327B9
:101C5000090081C79C40FC43A5EBF2406244D2449A
:101C60004249B249056182807370043001A01C555D
:101C700017F701001307879DE38BE7FCE9FB930946
:101C800045002A844E85EFE0BF8E17F70100130749
:101C9000A7815C5418436376F70017F701002325EA
:101CA000F7805147B387E70217F501001305459107
:101CB000CE853E95EFE05F879C405854DC57E36843
:101CC000F7F8EFE0AFF461B76244F240D244424922
:101CD000B249056189B815CD011122CC26CA4AC87E
:101CE0002A8406CE4EC6EFE04FFE584897F7010013
:101CF000938747982A8981446300F7024A85EFE079
:101D00006FFCF240624426854249D244B2490561E3
:101D100082807370043001A01C5417F50100130574
:101D2000E592E38DA7FCF9FB97E70100938707761F
:101D30009C43A9EB97E70100938787789C43445421
:101D400093094400DC574E85B3B4F400EFE05F82A2
:101D500017E70100130747755C54184393C4140038
:101D60006376F70017E701002320F7745147B38724
:101D7000E70217F501001305A584CE853E95EFE037
:101D8000AFFAADBF93058401EFE00FFA85BF0111F3
:101D9000056506CE22CC26CA4AC84EC652C456C2D3
:101DA000EF200036630E051CAA8413050006EF2001
:101DB00020352A84630A051E05669305500A04D956
:101DC0002685EF20205A04588567F117BE94B7473F
:101DD0004C4593879744930944005CD84E85230C67
:101DE0000402A30104042326040223280404232A52
:101DF0000404EFE00FF313058401EFE08FF2954741
:101E0000232C0404F19800C81CCC40D023220404E5
:101E1000232E04040146971500009385E5B126851D
:101E2000EFE04FEB08C07370043017E901001309AD
:101E300069678327090097E401009384646891C768
:101E400098409C407C4385077CC317E7010013073B
:101E500027661C43850797E6010023ABF6649C4088
:101E6000C9C38327090081EB9C40DC5789E797E7CA
:101E7000010023A7876497E701009387A7619C432C
:101E800097E601009386466258549442850717E608
:101E900001002321F6603CC463F6E60097E70100E9
:101EA00023A4E76093172700BA978A0717E5010074
:101EB000130505713E95CE85EFE00FE783270900F6
:101EC00081C79C40FC43F1E78327090091C39C40F4
:101ED000EF10704985476304F50E5DE173700430BF
:101EE00001A097E7010023AD875C18438547E31401
:101EF000F7F817E501001305A56CEFE04FE117E5D2
:101F000001001305256DEFE08FE017E501001305D3
:101F1000A56DEFE0CFDF17E501001305256EEFE0BB
:101F20000FDF17E501001305A56EEFE04FDE97EA1E
:101F30000100938A2A6F5685EFE06FDD17EA0100F2
:101F4000130A8A6F5285EFE08FDC17E50100130555
:101F5000E56FEFE0CFDB17E5010013056570EFE0FB
:101F60000FDB17E501001305E570EFE04FDA97E7A7
:101F7000010023A5575597E7010023AF4753E5BD5F
:101F8000F2406244D2444249B249224A924A05612F
:101F90008280984094407C43FD177CC3FC42E395CB
:101FA00007F2736004300DB76244F2404249B2490F
:101FB000224A924A2685D24405616F20802673709A
:101FC0000430FD5717E701002324F74C624497E7DC
:101FD000010023A9A74CF240D2444249B249224A07
:101FE000924A97E7010023A3074C05616FE06FABAE
:101FF0007370043097E7010023A6074A6FE0AFB87B
:1020000017E70100130787481C4385071CC382801C
:102010007370043097E701009387C748984305E33E
:1020200017E701001307874808439C4381CB97E7D4
:1020300001009387E7489843784301EF828017E7D0
:1020400001001307E74714431843F8420507F8C295
:10205000C1BF984394437C43FD177CC3FC42F9FF06
:10206000736004308280411106C622C4EFE0EFC5E0
:1020700097E70100938787438043EFE0AFC4B24006
:10208000228522444101828097E7010093874742DD
:1020900088438280797106D622D426D24AD04ECE89
:1020A00052CC56CA5AC85EC697E701009387073ECE
:1020B0009C43B1EF17E701001307473F1C43850717
:1020C00097E6010023A4F63E832A0700638F0A06E1
:1020D00097E701009387C73B9C43814463F1FA086B
:1020E00097E901009389C94D17EA0100130A4A3D97
:1020F00083270A008546D85793172700BA978A077F
:10210000BE9983A7090063FFF600854421A897E7DD
:1021100001009387E7389C438144850717E7010056
:102120002320F73897E70100938747379C4391C3F3
:102130008544B2502254268502599254F249624A8B
:10214000D24A424BB24B4561828017E4010013042E
:10215000E4361C409C43DDC37370043001A017E4D7
:1021600001001304A43597E901009389694517EA32
:102170000100130AEA3417EB0100130BEB321C4089
:102180009C43B5C31C40DC4703A9C7008327490013
:10219000930B49005E8563EEFA04EFE06FBD832781
:1021A00089021305890199C3EFE08FBC8327C90217
:1021B00003270B00DE85139527003E950A054E95F3
:1021C0006376F70017E701002320F72EEFE0CFB585
:1021D00083270A000327C902DC57E362F7FA1C4091
:1021E00085449C43C5F3FD5717E701002322F72AD6
:1021F00001B717E70100232DF728DDBD17E7010020
:102200001307872B1C40184397E6010023A8E62AF2
:1022100017E701002322F72A97E701009387C727D2
:102220009C43850717E701002328F7261C409C43A1
:1022300099E7FD5717E70100232CF72451BD1C40F7
:10224000DC47DC47DC4317E701002323F72449B5CB
:1022500097E7010093878723984301E77370043061
:1022600001A0011106CE22CC26CA4AC84EC652C4CD
:1022700056C25AC07370043097E4010093848422DC
:10228000984061EB98437D1797E6010023A0E62074
:102290009C43D9EB97E70100938787219C43C9C7EB
:1022A00097EA0100938ACA3117EA0100130ACA1F8C
:1022B00017E901001309C920854919A83385EA00E7
:1022C000EFE08FA6832709005854DC576379F704A1
:1022D00083A7CA08C1CF83A78A09C0471305840111
:1022E000EFE00FA9130B44005A85EFE06FA85C5490
:1022F00083260A00DA85139527003E950A052A876A
:102300005695E3FDF6FA17E70100232FF718EFE0E3
:10231000AFA1832709005854DC57E36BF7FA97E71E
:10232000010023AD37176DB701449C4081CB97E77F
:1023300001009387E7189C43FC4395E72285F24010
:102340006244D2444249B249224A924A024B056150
:10235000828017E701001307A71614431843F842B9
:102360000507F8C205B7EFF00F9CC9BF17E40100DD
:10237000130404131C4095C31C40054999CF193B15
:1023800009C597E7010023AB27111C40FD1717E78C
:1023900001002327F7101C40FDF397E70100938706
:1023A000E70F98438547E311F7F8EFE02F860544E0
:1023B000ADBF11CD81E57370043001A017E70100B6
:1023C0001307C70C1C4399C77370043001A07370C6
:1023D000043001A0411122C406C6144318418506E9
:1023E00017E601002324D60A97E601009386060C1F
:1023F00094423304B70000C163F7E602637FE40050
:1024000063FD860097E701009387870B88431105DA
:10241000EFE00F962285EFF0CF8A1D3D01C9B24053
:10242000224441018280E36FE4FCD9BF2244B240E0
:1024300041016FD0BFFD11C917E701001307070560
:102440001C4391C77370043001A06FD03FFC411151
:1024500006C622C41843AA87050797E6010023A7EA
:10246000E60297E601009386A60517E70100130729
:10247000E703184388423304F7001105EFE04F8F5C
:102480002285EFF00F84E93311E52244B240410187
:102490006FD0DFF7B240224441018280411122C453
:1024A00006C697E70100938767FE9C4301448507B2
:1024B00017E70100232CF7FC97E70100938747FFFC
:1024C0009C4363E3F50C17EE0100130EEE1497E244
:1024D00001009382220E01440147854F1303500AE5
:1024E00021A0311E6387C20D83278EFFBA85F5DBDD
:1024F0008327CEFFDC43232EFEFE6382C71B03AF80
:10250000C700DC432A97814E232EFEFE6385C70752
:1025100083A8C70093874803232017015CC383A7C0
:1025200088042326F7011CC783A7C8021CCB83A7F6
:102530000805232C07005CCB03A808038347080089
:10254000639A6704C287850783C60700B38507417E
:10255000E38B66FE8981C205C181231EB700850E0B
:102560001307070263001F058327CEFFDC43232EDA
:10257000FEFEE39FC7F983274E00232EFEFE49BFD0
:102580001A9419C223200600E1312285B240224468
:10259000410182808145231EB700850E1307070283
:1025A000E3141FFD769413175400311EBA85E39D82
:1025B000C2F397E70100938767F003AE0700832714
:1025C0000E00FDE397E70100938707EF03AE0700D6
:1025D00083270E006398071617EE0100130E4EFEB8
:1025E00083270E0A639D071E83274E0BD9DB8327A3
:1025F0008E0B97EE0100938E6E08DC4317E7010007
:10260000232CF7066381D73383AFC700DC4333073E
:10261000B500014397E6010023A0F6060D4F89425D
:102620009308500A6386D707C8479307450308C332
:102630005CC33C452326E7011CC75C551CCB1C55DD
:1026400099C3232657003C49232C07005CCB032861
:102650000503834708006395172BC287850783C648
:102660000700B3850741E38B16FF8981C205C1814D
:10267000231EB700050313070702E383AFF0832788
:102680008E0BDC4397E6010023A8F6FEE39ED7F904
:1026900083270E0C97E6010023A0F6FE71B783276F
:1026A0004E00232EFEFEA1BD83274E00130F8E0089
:1026B000D4432322DE00638CE625B307E500D8422D
:1026C00083A2C600814E2322EE00894F1303500AD5
:1026D0006305EF068328C7001387480323A017016B
:1026E000D8C303A7880423A6F70198C703A7C80285
:1026F00098CB03A7080523AC0700D8CB03A8080391
:10270000034708006318671C4287050783460700D4
:10271000B3050741E38B66FE8981C205C181239E13
:10272000B700850E93870702638E121B83264E0027
:10273000D8422322EE00E31FEFF80327CE00232226
:10274000EE0049BF83274E00130F8E00DC43232287
:10275000FE006389E71B83A2C700DC43AA95814E74
:102760002322FE00894F1303500A6305FF0683A846
:10277000C7009387480323A01501DCC183A7880401
:1027800023A6F5019CC583A7C8029CC983A7080599
:1027900023AC0500DCC903A808038347080063973E
:1027A0006710C287850783C6070033870741E38B1D
:1027B00066FE098342074183239EE500850E9385CB
:1027C0000502638D120F83274E00DC432322FE0097
:1027D000E31FFFF88327CE002322FE0049BF832793
:1027E0004E0A17EF0100130F2FE8DC4317E7010033
:1027F000232AF7E66382E71383A2C700DC43AA9586
:10280000814E17E70100232FF7E4914F1303500A7D
:102810006387E70783A8C7009387480323A01501B0
:10282000DCC183A7880423A6F5019CC583A7C80241
:102830009CC983A7080523AC0500DCC903A80803CD
:102840008347080063946704C287850783C607002F
:1028500033870741E38B66FE098342074183239E4A
:10286000E500850E93850502638A120383274E0ACD
:10287000DC4317E701002327F7DEE39DE7F9832711
:10288000CE0A17E70100232FF7DC69B70147239E23
:10289000E500850E93850502E39A12FD83274E0B12
:1028A000769493155400E38E07CC91B30147239E91
:1028B000E500850E93850502E39712F117EE0100FE
:1028C000130E0ED083270E0A769493155400E38DD1
:1028D00007D031B78145239EB700850E9387070245
:1028E000E39612E597E70100938707BD03AE070063
:1028F00076949315540083270E00E38F07CC99B587
:102900008145BDB38327CE002322FE00A9B58326CF
:10291000CE002322DE0055B38327CE0A17E701003D
:102920002322F7D4D1BD83270E0C17E701002325FE
:10293000F7D4D9B9797126D24AD04ECE52CC56CAE4
:102940005AC85EC606D622D497E90100938909B415
:1029500017E901001309C9C617EA0100130A8AB46E
:1029600097EA0100938ACAB597EB0100938B4BB4A9
:1029700097E40100938404B4054B21A883A70900C0
:102980000324090A850717E701002321F7B0C9309E
:1029900011E89C40E5F783270900E37CFBFEEFD0BC
:1029A000FFA6C5BF7370043083270A00B9E38327ED
:1029B000C90AC04713054400EFD09FBB83A70B0093
:1029C000FD1717E701002325F7AE9C40FD1717E719
:1029D00001002321F7AE83270A0089C783A70A00D5
:1029E000FC4385E30858EF10D0032285EF107003F5
:1029F0004DB703A70A0083A70A007C4385077CC361
:102A00007DB703A70A0083A60A007C43FD177CC399
:102A1000FC42E9FB73600430F1B797E7010093874C
:102A2000E7A69C43DDE3411106C697E7010023A713
:102A300007A617E701001307A7A81C43B7A6A5A57B
:102A40009386565A9C5B8C43639BD500D043631896
:102A5000B60094476395C600DC476388D7000843F7
:102A60000C4393854503EF20807397E6010093861E
:102A7000A6A3904217E70100130787B411A89C4250
:102A8000B9CB9C42FD1717E60100232FF6A0904218
:102A900093172600B2978A07BA979C43EDD39042CA
:102AA00093172600B2978A07B305F700D441A10710
:102AB000BA97D442D4C16383F602DC46B24017E72A
:102AC0000100232FF79E41018280854717E701000F
:102AD0002326F79C82807370043001A0D14733060F
:102AE000F602D442329754C3C9BF01114AC806CE78
:102AF00022CC26CA4EC62A897370043097E401009E
:102B00009384449A9C4017E401001304649BD9E722
:102B10006314090003290400930949004E85EFD08E
:102B20003FA58327890289C713058901EFD05FA4D8
:102B3000CE8517E501001305E5B3EFD0FF9E9C405D
:102B400081C71C40FC43ADE31C40638B27079C40BE
:102B50009DCF737004309C40C1EB97E701009387D1
:102B6000E7959843184325EBFD5717E7010023210C
:102B7000F7929C4089CF1C40FC4391CB18401440F5
:102B80007C43FD177CC3FC4299E373600430F24040
:102B90006244D2444249B2490561828018401C40D7
:102BA0007C4385077CC3ADB7184014407C43FD17B8
:102BB0007CC3FC42D1FB736004301C40E39927F9CD
:102BC0009C40A1C397E701009387478C9C43ADCB02
:102BD0007370043001A09C43DC47DC47DC4317E7FB
:102BE00001002327F78A71B718401C407C438507F2
:102BF0007CC397E701009387678C984318432DD7D0
:102C0000D9BF97E701009387A78A17E70100130749
:102C1000279B9C430327470B631DF700F240624448
:102C200097E7010023AE0788D2444249B2490561C3
:102C300082806244F240D2444249B2490561F1BB0C
:102C40006244F240D2444249B24905616FD00FFC60
:102C50003DC9411126C297E40100938464864AC0AD
:102C60002E898C4006C622C4E105EFD07F8D8840B6
:102C70001105EFD0FF8FFD57630AF90497E70100B4
:102C80009387C782804398409C434A9440C3636CB7
:102C9000F40497E701009387678288438C4091058D
:102CA000EFD01F8A97D701009387877E9C43637676
:102CB000F40097D7010023AD877CB24022449244B0
:102CC0000249410182807370043001A08C4022448B
:102CD000B2409244024917E501001305A5999105F8
:102CE00041016FD07F8497D701009387E77C8843A9
:102CF00022448C40B24092440249910541016FD078
:102D00003F8411C997D70100938747789C4399E77F
:102D10007370043001A07370043001A0411126C209
:102D200097D401009384C4799840AE878C40B7064D
:102D30000080D58F06C622C41CCFE1053284EFD0B7
:102D4000AFFE88401105EFD0BF82FD57630EF4003F
:102D500097D70100938787758843B24092442295A4
:102D6000224441016FE0EFF58C402244B24092448E
:102D700017E5010013050590910541016FD0CFFAC9
:102D800025CD411126C297D40100938464734AC0B3
:102D90002E898C4006C622C4E1053284EFD0CFF8DC
:102DA00088401105EFD0CFFC8547630AF40497D71C
:102DB00001009387A76F804398409C434A9440C387
:102DC000636CF40497D701009387476F88438C4066
:102DD0009105EFD0EFF697D701009387676B9C437F
:102DE0006376F40097D7010023A4876AB240224497
:102DF00092440249410182807370043001A08C40EA
:102E00002244B2409244024917E501001305858629
:102E1000910541016FD04FF197D701009387C769A2
:102E2000884322448C40B2409244024991054101BA
:102E30006FD00FF1411106C622C426C25C45C047BF
:102E400035CC930484012685EFD08FF297D701000B
:102E50009387C7639C43B5E7930444002685EFD06E
:102E60002FF197D701009387276458549C4363F64A
:102E7000E70097D7010023A9E76293172700BA97C5
:102E80008A0717D501001305A573A6853E95EFD0D7
:102E9000AFE997D701009387A7629C435854014537
:102EA000DC5763F8E700854717D701002328F75E52
:102EB0000545B2402244924441018280737004303F
:102EC00001A0A68517D5010013054578EFD0CFE501
:102ED000C9B797D701009387675B9C4381E77370FD
:102EE000043001A0411106C622C426C2B7070080E3
:102EF0004045CD8F1CC12DC4EFD08FE79304440013
:102F00002685EFD0EFE697D701009387E75958540D
:102F10009C4363F6E70097D7010023A7E758931770
:102F20002700BA978A0717D50100130565693E95F2
:102F3000A685EFD06FDF97D70100938767589C4332
:102F400058540145DC5763F8E700854717D701005F
:102F50002326F7540545B240224492444101828021
:102F60007370043001A011CD97D701009387C75229
:102F7000984397D70100938767539C4318C15CC15E
:102F800082807370043001A055C1D1CD411106C6B5
:102F900022C42A877370043097D801009388885020
:102FA00083A7080091CB97D701009387675194437B
:102FB0009C43FC428507FCC217D301001303034F57
:102FC0009C4103260300FD560144638FD70217DEA0
:102FD0000100130E6E4C03250E0003280700544316
:102FE0006305A80005446371D6023308D640054442
:102FF000637CF80003250E00918F03260300B6972B
:103000009CC108C350C3014483A7080081CB97D754
:1030100001009387E74A9C43FC4381EF2285B2403D
:103020002244410182807370043001A07370043027
:1030300001A0EFE04FCFDDB7854717D70100232F61
:10304000F744828019C1684582800145828011C1A0
:103050006CC5828097D7010093878746884382801A
:1030600097D70100938707449C43054589CB97D7A1
:1030700001009387A7418843133515000605828018
:1030800031CD011126CA97D40100938464439C403A
:1030900006CE22CC4AC84EC65855DC576379F70293
:1030A0001C4D63C707009C40D4579547958F1CCD96
:1030B00093172700BA97584917D9010013094950A7
:1030C0008A07CA97630DF7009C40DC575CD5F24035
:1030D0006244D2444249B2490561828082809309A8
:1030E00045002A844E85EFD0AFC89C4017D7010019
:1030F0001307873B1843DC575CD46376F70017D778
:1031000001002323F73A139527003E9562440A05F0
:10311000F240D244CE854A95B249424905616FD00A
:10312000AFC019CD411106C622C426C297D70100EF
:103130009387073980436307A4007370043001A0AC
:10314000014582807C4881E77370043001A05454AB
:103150003848FD177CC86383E60099C70145B24033
:103160002244924441018280930444002685EFD09A
:103170002FC03C4817D701001307073314431547E6
:103180001D8F5CD418CC63F6F60017D70100232DF1
:10319000F7305147B387E70217D5010013054542C1
:1031A000A6853E95EFD04FB8054555BF73700430E6
:1031B00097D701009387072F9C4391CB97D70100A6
:1031C0009387073098439C437C4385077CC3828068
:1031D00097D701009387072D9C438DC397D7010094
:1031E0009387072E9843784311CB984394437C43AD
:1031F000FD177CC3FC4299E373600430828097D74B
:1032000001009387E72B9043944398439547D45606
:10321000084E958F1CCF828097D701009387472A4D
:10322000984309C79443F84A0507F8CA884382803F
:1032300079714AD006D622D426D24ECE2A8973700E
:10324000043097D401009384E4259C4017D40100F6
:1032500013040427BDE31C40BC4F89E71C4005470D
:10326000F8CFD1E19C4081C71C40FC43F1EB737067
:1032700004309C408DEF1C40A84F11C56304090227
:103280001C4023AC07041C4023AE07049C4081C7AC
:103290001C40FC438DEBB250225492540259F24927
:1032A0004561828018403C4FFD173CCFE9BF184074
:1032B0001C407C4385077CC37DBF18401C407C4379
:1032C00085077CC349BF184014407C43FD177CC36D
:1032D000FC42F1F373600430B2502254925402590C
:1032E000F2494561828008402EC61105EFD04FA8F3
:1032F000B245FD576380F50697D701009387071BFA
:1033000083A9070018409C43AE992322370163EC40
:10331000F90497D701009387671A88430C409105F9
:10332000EFD00FA297D70100938787169C4363F6CF
:10333000F90097D7010023AD3715EFD02F8D1DB7BA
:10334000184014407C43FD177CC3FC428DF373602E
:10335000043031BF0C4017D501001305A53191058C
:10336000EFD08F9CD9BF97D701009387E71488438C
:103370000C409105EFD0CF9CC9B779714AD04ECEA1
:1033800006D622D426D252CC2E89B289737004304C
:1033900097D40100938404119C4017D401001304B6
:1033A0002412F9EF18408947784F630CF7001C404E
:1033B0001345F5FFB84F798DA8CF1C400547F8CFCE
:1033C000ADE69C4081C71C40FC43F5E373700430BC
:1033D0009C40B1E7638609001C40BC4F23A0F90064
:1033E000184085470145784F630BF7001C4013498F
:1033F000F9FF0545B84F3379E90023AC27051C4098
:1034000023AE07049C4081C71C40FC43C1E3B2507B
:10341000225492540259F249624A4561828018400E
:103420001C407C4385077CC375B7084036C6110530
:10343000EFD00F94B246FD576385F60897D7010089
:103440009387C70603AA070018409C43369A232295
:1034500047016363FA0897D70100938727068843DB
:103460000C409105EFD0CF8D97D70100938747028D
:103470009C436370FA0697D7010023AB470191A8DC
:1034800018401C407C4385077CC329BF184014406A
:103490007C43FD177CC3FC42BDFB73600430B2501B
:1034A000225492540259F249624A4561828018407E
:1034B00014407C43FD177CC3FC4289FB73600430DD
:1034C00031B70C4017D501001305C51A9105EFD08F
:1034D000AF85EFC0BFF3F5B597D701009387C7FD60
:1034E00088430C409105EFD0AF85E5B751C141113C
:1034F00006C622C426C24AC07370043097D40100A5
:10350000938444FA9C40B9EB99C23C4D9CC2B2876B
:103510008946704D74CD2E872A846386D70663FC56
:10352000F6048D456387B70091456395B700630046
:10353000D60C38CC8547630FF60405449C4081CBFC
:1035400097D701009387C7F79C43FC43A9E32285E3
:10355000B2402244924402494101828097D701003F
:10356000938707F698439C437C4385077CC369BFD8
:103570007370043001A08546E39ED7FA3C4D33E7D3
:10358000B70038CD45BF3C4D85073CCD65B7EFD082
:103590009FF975BF130944004A85EFC07FFD17D717
:1035A0000100130767F05C5418436376F70017D7E0
:1035B0000100232BF7EE5147B387E70217D501002F
:1035C00013050500CA853E95EFC01FF61C5481C740
:1035D0007370043001A097D70100938767EE9C4376
:1035E0005854DC57E3FBE7F4EFC05FE2B9B701449E
:1035F000B1B739CD011122CC26CA4AC84EC652C431
:1036000056C206CEBA89368AB2842E892A84EFC081
:10361000DFEBAA8A63050A003C4C2320FA00784CB1
:1036200089477CCC6389F40263F4970C8D466387E9
:10363000D40091466396D400630AF70A232C24052C
:103640008547631EF7061C5499CB7370043001A0A4
:103650007370043001A03C4C85073CCCD5B797D79C
:1036600001009387A7E29C43ADEB930444002685B9
:10367000EFC01FF017D70100130707E35C5418438E
:103680006376F70017D701002320F7E25147B3878D
:10369000E70217D501001305A5F2A6853E95EFC0F8
:1036A000BFE897D701009387A7E19C435854DC57A4
:1036B00063F7E70063850900854723A0F900054407
:1036C0005685EFC03FE02285F2406244D244424931
:1036D000B249224A924A056182809305840117D536
:1036E00001001305A5F6EFC03FE465BF0144C9BF63
:1036F0008547E397F4F43C4C33E92701232C240558
:1037000081B74DC1011122CC26CA2A844AC806CEEF
:103710004EC6AE84EFC07FDB8947744C7CCC3C4CFA
:1037200005472A8985073CCC6395E6061C5481C76A
:103730007370043001A097D70100938727D59C436D
:10374000ADE7930944004E85EFC09FE217D7010013
:10375000130787D55C5418436376F70017D7010029
:103760002324F7D45147B387E70217D50100130587
:1037700025E5CE853E95EFC03FDB97D701009387C7
:1037800027D49C435854DC5763F5E70099C085471C
:103790009CC06244F240D244B2494A854249056124
:1037A0006FC05FD27370043001A09305840117D5F8
:1037B00001001305A5E9EFC03FD7C1B7AA8729C506
:1037C0007370043017D701001307C7CD14439DE26F
:1037D000F04F894601456315D60023AE0704054521
:1037E0001C4381CB97D70100938787CD98437843BB
:1037F00015E3828097D60100938686CC904294424E
:103800007442850674C2E9B797D70100938747CB06
:103810009C437DB7984394437C43FD177CC3FC4293
:10382000E9FB7360043082805D71A6C2CAC052DCBD
:1038300056DA5AD85ED686C6A2C44EDE62D466D2A6
:103840006AD017D901001309A9C817DB0100130BAF
:103850006BC797D40100938424C797DA0100938A39
:10386000EAC6054AA54B832709009843630107125E
:10387000DC4783A90700EFE0AFF8EFE06FF983279B
:103880000B002A8C6362F50A97D7010023ACA7C20C
:1038900001466370351B8840B3858941EFD05FB521
:1038A000EFE01F9B630105128840814601462C0012
:1038B000EFD06FE34DD9A247E3C807FEC24983A703
:1038C000490189C713854900EFC09FCAEFE04FF453
:1038D00083270B002A8C636DF508A24717D70100D8
:1038E000232287BFE3E2FBFCB317FA0013F707219B
:1038F000631A071613F7770C6318071E93F707026E
:10390000C5D74E85EF00F01145B7DC47C04783AC03
:103910000700930944004E85EFC09FC55C50228587
:1039200082975C4C6384470B83270900984371FF9F
:1039300003A70A0097D6010023A686B997D60100EF
:1039400023A6F6B897D7010023A4E7B8EFE05F906D
:10395000A1BFDC47C04703AD0700930C4400668558
:10396000EFC01FC15C50228582975C4C638647097B
:1039700083270900984371FF03A70A0097D6010027
:1039800023A6F6B497D7010023A4E7B4B9B7EFE0B4
:103990002FE7EFE0EFE783270B002A8CE366F5F8CB
:1039A00083A70A00884081499043B385894117D78E
:1039B0000100232987B113361600EFD07FA3EFE073
:1039C0003F89E31305EEEFC07FA4F9BD1C4CCE8503
:1039D000E69763E9FC049C4089CF02CA66CC22CEFC
:1039E000EFF00FE88840814601464C08EFC0BFD990
:1039F00005FD7370043001A01C4CE685EA97636CEA
:103A0000FD049C4089CF02CA6ACC22CEEFF04FE57C
:103A10008840814601464C08EFC0FFD631F97370EB
:103A2000043001A0032509005CC000C8EFC05FB1ED
:103A3000E5BDEFE0FF8183270900DC47C047930C19
:103A400044006685EFC0DFB25C4C638F47035C5077
:103A50002285829791BD032509005CC000C8EFC094
:103A60003FAE39B7B24723ACF900A5CFE29723A206
:103A7000F90023A8390193854900636FFC0403A56D
:103A80000A00EFC0FFAB0DB51C4C00C83387F9002E
:103A900058C0636DEC02330C3C416363FC029C40F4
:103AA00089CF02CA4ECC22CEEFF08FDB8840814610
:103AB00001464C08EFC03FCD59F97370043001A0A6
:103AC00003A50A00E685EFC0BFA751B7032509008B
:103AD000E685EFC0FFA6A5BF03250900EFC05FA6DE
:103AE000E1B37370043001A0B24783A6890123A813
:103AF00039013387D70023A2E9006364EC04B307DC
:103B0000FC4063EBD70483A749024E85829783A7C5
:103B1000C901E39B47D983A68901B2479840B6976C
:103B200011CF02CA3ECC4ECEEFF08FD388408146F3
:103B300001464C08EFC03FC5E31805D6737004304A
:103B400001A06374FC00E370F7FC03250900938572
:103B50004900EFC0FF9E89BB03A50A009385490079
:103B6000EFC01F9E91B3411122C406C626C24AC0AF
:103B700017D4010013044495EFF04FE31C4095CB9C
:103B8000EFF00FE51C409DC381480148814709477C
:103B900081461306004097D50100938525821705BD
:103BA00000001305A5C8EFD0DF9939E97370043020
:103BB00001A017D90100130929AD4A85EFC03F952F
:103BC00097D40100938484AD2685EFC05F940146AD
:103BD000B145114597D7010023AC278F97D7010036
:103BE00023A6978EEFC09FAD17D70100232EA78C79
:103BF00011CD97C501009385E57BEFD02FF449B730
:103C0000B2402244924402494101828073700430E0
:103C100001A0A5C9797156CAAA8A1305C00222D487
:103C200026D24AD04ECE52CC06D65AC85EC63A8963
:103C3000B689328AAE84E9212A8405C9EFF00FD70C
:103C400097D70100938747889C439DCFEFF04FD8CB
:103C5000130544002320540104CC232E44012320C7
:103C6000340323222403EFC0DF8B2285B250225479
:103C700092540259F249624AD24A424BB24B4561D0
:103C800082807370043001A097DB0100938BCB9F7F
:103C90005E85EFC0DF8717DB0100130B2BA05A8571
:103CA000EFC0FF860146B145114597D7010023A11A
:103CB000778397D7010023AB6781EFC03FA017D769
:103CC00001002323A78001C997C501009385856E54
:103CD000EFD0CFE6A5BF7370043001A039C5011144
:103CE00022CC06CE26CA17C401001304E47D832823
:103CF00004002A88014563850802BA842EC23687EB
:103D000032C442C6954663C5B602EFF06FB5894727
:103D1000630BF5020840814601464C00EFC0BFA688
:103D2000F2406244D244056182807370043001A085
:103D30004C0081463A864685EFC07FFFF2406244E0
:103D4000D244056182800840814626864C00EFC03F
:103D50009FA3F9B719C1084182807370043001A094
:103D600001E57370043001A0411106C622C42A8403
:103D7000EFF0CFC348483334A000EFF06FC5228581
:103D8000B24022444101828001E57370043001A0F9
:103D9000411122C42A8406C6EFF04FC10050EFF053
:103DA0002FC3B240228522444101828001E5737015
:103DB000043001A0411122C426C22E84AA8406C662
:103DC000EFF0CFBE80D02244B240924441016FF068
:103DD0002FC04111714522C406C61D262A8411C573
:103DE000232005001105EFC08FF22285B240224446
:103DF0004101828001CDB70700FFED8F81C773704D
:103E0000043001A099E57370043001A07370043090
:103E100001A0011122CC4AC84EC652C456C206CED9
:103E200026CABA893689B28A2E842A8AEFF04FA32D
:103E300011E5638509007370043001A0EFE04F9C29
:103E400083240A00B37794006316090295C7638739
:103E50000A009347F4FFE58F2320FA00EFE04FBFFD
:103E6000F240624426854249D244B249224A924AEB
:103E700005618280E30DF4FCE38209FEB335500155
:103E8000E20563050900B7070004DD8D4E86C18D8C
:103E900013054A00EFE0FFE6EFE08FBB19E1EFC04A
:103EA000EFD6EFF0CFB593176500AA8963D8070066
:103EB000B7040001FD14B3F499005DB7EFF00FAF44
:103EC00083290A00B3773401631E090089CB638814
:103ED0000A009347F4FFB3F737012320FA00EFF00D
:103EE0002FAFF9B7E31DF4FEDDB701C9B70700FF37
:103EF000ED8F99C77370043001A07370043001A076
:103F0000411122C42A8406C626C24AC02E89EFF077
:103F1000EFA904409345F9FFB3F795001CC0EFF0FB
:103F20002FABB2402244268502499244410182804F
:103F3000411122C42A8406C6EFC02FD90040EFC029
:103F40006FD8B240228522444101828009C93707D7
:103F500000FFB3F7E50099C77370043001A07370D8
:103F6000043001A06F10307EB70700FFF18F81C7CA
:103F70007370043001A001E67370043001A00111D8
:103F800022CC4AC84EC652C406CE26CA3689AE894D
:103F90002A8A3284EFF0CF8C21E163050900737027
:103FA000043001A0EFE0CF8583240A00CE8552853E
:103FB000B3E49900613FB37794006307F406832468
:103FC0000A00EFE0EFA8F240624426854249D2445D
:103FD000B249224A05618280EFE08F8283240A0081
:103FE000CE855285B3E434019537B3F78400638DF1
:103FF0008702E30609FCB70500054A86C18D130553
:104000004A00EFE01FD0EFE0AFA419E1EFC00FC00E
:10401000EFF0EF9E93176500AA8463DF0700B707F0
:104020000001FD17FD8C45B783270A001344F4FFF8
:10403000E18F2320FA0071B7EFF04F9783240A0035
:10404000B3779400639787009347F4FFE58F2320AD
:10405000FA00EFF0EF97E1B7411122C406C62A84B7
:1040600026C2EFD0FFF95C4085C308489304C40022
:104070006316950015A0084863009502B705000275
:10408000EFE03FE55C40E5FB2285612A2244B24037
:10409000924441016FE0CF9B7370043001A009C9C5
:1040A000370700FFB3F7E50099C77370043001A02C
:1040B0007370043001A06F10106901C9B70700FFC9
:1040C000ED8F99C77370043001A07370043001A0A4
:1040D000411122C426C206C62A84AE84EFF00F8D99
:1040E000184093C7F4FFF98F1CC02244B240924499
:1040F00041016FF0EF8D19C1084D8280014582802A
:10410000411122C406C62A84EFD09FEF97C7010051
:104110009387473C9C43A1EBE56717C70100130752
:104120006759F11797C6010023ACE63A17C701009B
:104130002326F73A17C701002320F75897C7010035
:104140009387873917C701002326F756854717C776
:1041500001002329073817C70100232F073617C787
:1041600001002329F73619E8EFE08F8EEF10A00247
:1041700001442285B240224441018280130584001B
:1041800093773500C1EFE5671307F5FFE917E3ED16
:10419000E7FC97C601009386A6349C4229A0984369
:1041A00011C7BE86BA87D843E36BA7FE17C70100C5
:1041B00013078732E38AE7FA98434146138487005E
:1041C00098C2D843B306A7406378D6023388A700C5
:1041D0002322D800C8C38325480097C601009386D0
:1041E000263011A0BA8698425043E36DB6FE2320D4
:1041F000E80023A00601D84397C7010093878731C1
:104200009C43998F17C701002326F730EFE04F84B6
:1042100031DC2285B240224441018280719911052E
:104220009DB729C9411122C406C62A84EFD05FDD9B
:10423000930584FF0326C4FF17C701001307472A0D
:1042400011A03E871C43D443E3EDC6FE232CF4FEAD
:104250000CC397C701009387E72B98438327C4FFBC
:104260002244B240BA9717C701002325F72A41011B
:104270006FD01FFE828097C701009387A7298843CC
:10428000828082803367B5000D8BAA871DE7930873
:10429000D6FFAA982A87AE866371150303A8060085
:1042A00011079106232E07FFE36A17FF9347F5FFD7
:1042B000C697F19B9107BE95AA972A9663F3C70A02
:1042C0009386450013884700B3B6D70033B805017D
:1042D00033E7F50093C61600134818000D8BB3E6BC
:1042E000060113371700758F330EF64093861700BB
:1042F00029CF1337AE0031EB13532E002E88BE8624
:104300000147832808000507110823A0160191061C
:10431000E36967FE1377CEFFBA95BA976302EE049E
:1043200083C60500138717002380D700637AC7026E
:1043300083C6150013872700A380D7006372C702C6
:1043400003C725002381E7008280B307F640AE97BC
:10435000850503C7F5FF8506238FE6FEE39AF5FE84
:1043600082808280B367C5008D8BB308C500E9C326
:104370006371150FB307A0408D8B138737009546E7
:1043800093F5F50F130815003383A8407D1663736A
:10439000D70015476363E60CD5CF2300B50005476A
:1043A000638DE700A300B5000D4713082500639651
:1043B000E700130835002301B500139685004D8EE4
:1043C00013970501518F3303F34093968501D98EDE
:1043D00013562300AA97014794C305079107E36D7D
:1043E000C7FE1377C3FFB307E8006307E306238024
:1043F000B70013871700637C1703A380B7001387E8
:104400002700637617032381B70013873700637093
:104410001703A381B70013874700637A170123822C
:10442000B7001387570063741701A382B700828017
:1044300093F5F50F13978500D98D139705014D8FCF
:10444000E37715FFAA87910723AEE7FEE3ED17FF99
:10445000828082802A8895B78280AA8749BF834755
:1044600005002A8799C7050583470500EDFF198DCB
:1044700082800145828005058347F5FF850503C7D6
:10448000F5FF91C7E389E7FE3385E74082808147E6
:10449000E5BFAA87850503C7F5FF8507A38FE7FE5C
:1044A00075FB828083460500930700026397F60040
:1044B000050583460500E38DF6FE938756FD93F7C9
:1044C000D70F85C7AA87814585CE01458507138605
:1044D00006FD1317250083C607003A950605329599
:1044E000F5F699C13305A0408280938536FD834659
:1044F000150093B5150093071500E1FA0145D5B7EE
:10450000014582809C412380A7009C4185079CC176
:10451000828097C60100938626FD9C4217570300B0
:104520001307471A13861700BA972380A70097C569
:10453000010023ABC5FAA9476308F50093070004FF
:104540006305F6000145828075DE370610F0050729
:104550008347F7FF2320F6F09C42FD1797C5010023
:1045600023A4F5F8EDF7014582804D7123229114C3
:1045700023202115232A51132324811323261114C8
:1045800023248114232E3113232C41132328611358
:1045900023267113232291132320A113232EB1115B
:1045A000AA842E8932C6130C5002A54A83470900FB
:1045B00063808703B9CB804011A0A1CB2300F40016
:1045C00080400509050480C083470900E39787FF01
:1045D0000346190093081900C686130D0002FD5901
:1045E0007D5A0148130550059307D6FD93F7F70F41
:1045F000138916006363F52A17C70100130787A004
:104600008A07BA979C43BA9782878320C1140324F0
:10461000811483244114032901148329C113032A1B
:104620008113832A4113032B0113832BC112032C03
:104630008112832C4112032D0112832DC11171614E
:104640008280A14C02C4854763D50715B2478040DC
:10465000938B770093F68BFF03AB060083A946008C
:10466000938786003EC6668681465A85CE85EF10C2
:1046700040582AC8814763853723930D4101854BF4
:10468000668681465A85CE85EF10C02081466686B3
:104690002A8BAE89EF10E055A24723A0AD00938688
:1046A0001B00910D63843701B68BD9BFE37E9BFF5E
:1046B00063DD4601A2872380A70180407D1A93070E
:1046C00014009CC03E84E3C846FF93962B001C0850
:1046D000BE9631A8938777052300F4008040FD1B28
:1046E00093871B00050480C0F116E351F0EC9C4257
:1046F000E3E2FAFE93870703C5B79C4093060003E5
:1047000032472380D7009C4093064700C14C138654
:10471000170090C013068007A380C700804002C422
:10472000BA87050480C003AB0700814936C625BFA0
:10473000B24783AC0700938B470063840C1C635F14
:1047400040199307D0026319FD1683C70C0085C377
:1047500063DC09189440850C7D1A2380F6008040A4
:10476000050480C083C70C00E5F7635D400180400D
:10477000930700022300F40080407D1A050480C0E6
:10478000E31A0AFE5EC61DB502C48547A94CE3CFF5
:1047900007EBB24780409386470071B703C6160007
:1047A000CA8699B59C40930650022380D70080406A
:1047B000050480C0E5BBC14C02C471B5B24703C655
:1047C0001600CA8683A9070091073EC6E35E0AE089
:1047D0004E8AFD5911BD03C61600130DD002CA86BC
:1047E00021B59347FAFFFD8703C61600337AFA0016
:1047F000CA86DDBB03C61600130D0003CA86EDB3DF
:1048000083C51600930906FDCA86938705FD2E868B
:10481000E3EEFAFA93972900BE9985068609AE99C8
:1048200083C50600938909FD938705FD2E86E3F372
:10483000FAFE69BF32479C40144311073AC62380F1
:10484000D7008040050480C095B3854763D3070B2C
:10485000B24793867700E19A938786003EC683A984
:1048600046009C4263DC090A94401306D002B30759
:10487000F0402380C6008040B336F000B3093041D9
:10488000050480C03E8BB389D940A94C02C4E1BB6A
:1048900003C616000508CA8681BB9C40468921B71D
:1048A000E37D9BDD8547814B8546E3C547E131BD0F
:1048B00097CC0100938C0CB1CE856685EF007043D8
:1048C000330AAA40635C400180402300A401804079
:1048D0007D1A050480C0E31A0AFE014A83C70C0052
:1048E000E38207EAE3C809E6FD197D57E394E9E6A8
:1048F000ADBDB247938647009C4336C693D9F74176
:1049000095B7635640019307D002E313FDFA97CCA5
:104910000100938C2CAB930780021DBD3E8BA94CEC
:1049200002C4804089B34D71232E3113B709004072
:104930009387F9FF2324811423229114232C4113FC
:10494000232A511323261114232021152328611310
:104950002326711323248113232291132320A113CF
:10496000232EB1112A8A2EC417C401001304C4B720
:10497000975A0300938A0AD597B401009384047E62
:104980003EC693055002294513080004B70610F0EF
:1049900083470A006386B704C1C71840050A130697
:1049A0001700569797C8010023A0C8B42300F7004A
:1049B0006382A706E31E06FD17570300130787D07F
:1049C00005078347F7FF23A0F6F01C40FD1717C625
:1049D0000100232BF6B0EDF783470A00E39EB7FAF8
:1049E00083461A0013051A002A87930B00027D5B89
:1049F0007D5C014893055005A5489387D6FD93F744
:104A0000F70F130A170063E7F5348A07A6979C434C
:104A1000A6978287175703001307C7CA55F28DBFA1
:104A20008320C11403248114832441140329011415
:104A30008329C113032A8113832A4113032B0113F2
:104A4000832BC112032C8112832C4112032D0112DE
:104A5000832DC11171618280A14C014D854763DBBB
:104A60000719A2479D07E19B83AD070003AB4700F1
:104A7000138787003AC4668681466E85DA85EF1013
:104A800040172AC863066D351309410185496686BA
:104A900081466E85DA85EF00F05F66868146AA8DD5
:104AA0002E8BEF1000152320A90085091109E310B2
:104AB0006DFFE3FE9DFD13060004B70610F063D101
:104AC00089031C4013871700D69797C5010023ADB3
:104AD000E5A023807701630CC7047D1CE3C389FF35
:104AE000B2476800A548B386F9008A061C08BE963E
:104AF000294813030004370610F0E384A6E89C421B
:104B00009305000363F4F800930570051840AE9711
:104B100093051700569717CE01002327BE9C23004C
:104B2000F7006380072B638C6526F116F9B71757DA
:104B30000300130727B905078347F7FF23A0F6F003
:104B40001C40FD1797C5010023A0F59AEDF77D1CC9
:104B500071B71C40130600041387170097C50100A6
:104B600023A4E598B386FA00930500032380B600DA
:104B7000630FC73C890797C6010023A7F69656978F
:104B8000930680072300D70017570300130787B346
:104B9000B70610F0639EC70005078347F7FF23A001
:104BA000F6F01C40FD1717C60100232FF692EDF713
:104BB000A247C14C014D91072247014B832D0700AD
:104BC0003EC455BDA24783AC070013894700638EDE
:104BD0000C3A635480219307D002639EFB2E03C7D7
:104BE0000C00BA856310072025AC8547A94C014D00
:104BF000E3C907E7A2479107C1B7A2478346170059
:104C0000528703AB070091073EC4E3580CDE5A8C71
:104C10007D5BE5B383461700930BD0025287F1BB4F
:104C20009347FCFFFD8783461700337CFC005287C7
:104C3000E9B383461700930B000352877DBB0346FD
:104C40001700138B06FD5287930706FDB286E3EE2D
:104C5000F8FA93172B00DA9705078607B2970346F1
:104C60000700138B07FD930706FDB286E3F3F8FEFA
:104C700069BFA2451C402946984193861700D697E4
:104C800017C501002322D5862380E700138945003C
:104C90006300C72A930700046387F6204AC4D5B18E
:104CA000854763DE0729A24713877700619B930737
:104CB00087003EC4032B47001C43635A0B30184047
:104CC000130600049306170097C5010023AED58094
:104CD00056979305D0022300B7006387C62CB3070D
:104CE000F0403337F000330B6041BE8D330BEB40A7
:104CF000A94C014D49B38346170005085287F5B901
:104D0000834617005287D5B91C40930600041387C9
:104D1000170017B601002329E67CD6971306500228
:104D20002380C700E31FD7C41757030013078799D1
:104D3000B70610F005078347F7FF23A0F6F01C40E5
:104D4000FD1717B601002321F67AEDF71DB9C14C06
:104D5000014D29B31C40930600042A8A13871700CB
:104D600017B601002322E678D69713065002238057
:104D7000C700E318D7C0175703001307A794B70657
:104D800010F005078347F7FF23A0F6F01C40FD173E
:104D900017B60100232AF674EDF72A8ADDB61757F5
:104DA00003001307279205078347F7FF2320F6F038
:104DB0001C40FD1797B5010023A8F572EDF7F11619
:104DC0002DBB175703001307E78FF1FDF11635B31D
:104DD000E3FC9DCB8549C5B1014C03C70C00BA85E6
:104DE000E30E07EAFD58294513080004B70610F042
:104DF00063570B0A1C4013861700D69717B30100A0
:104E00002324C36E2380E7006384A5066304060998
:104E1000850C03C70C007D1CBA8579FBE35080E943
:104E20001C409305000213060004B70610F021A0F1
:104E30007D1CE3050CE613871700D6972380B70087
:104E400017B501002322E56ABA87E313C7FE175797
:104E500003001307278705078347F7FF23A0F6F012
:104E60001C40FD1717B501002320F568EDF7C9B701
:104E7000175703001307078541DE05078347F7FF30
:104E800023A0F6F01C40FD1717B60100232EF66490
:104E9000EDF7BDBF175703001307C782F9BF7D1B8E
:104EA000E31A1BF5A5BF175703001307A781B70621
:104EB00010F005078347F7FF23A0F6F01C40FD170D
:104EC00017B601002322F662EDF74AC45DBC97BC19
:104ED0000100938C2C4FDA856685212D330CAC4074
:104EE000E35D80EF1C4013060004B70610F021A01C
:104EF0007D1CE3030CEE13871700D6972380770100
:104F000097B5010023A2E55EBA87E313C7FE1747F2
:104F100003001307277B05078347F7FF23A0F6F05D
:104F20001C40FD1797B5010023A0F55CEDF7C9B74C
:104F30001747030013070779BDFA4AC499B4A2477B
:104F4000138747009C433AC413DBF741BDB31747AF
:104F5000030013072777B70610F005078347F7FF0D
:104F600023A0F6F01C40FD1717B60100232EF656BD
:104F7000EDF7854717B701002328F75693078007F9
:104F8000174703002300F77425B163568001930788
:104F9000D002E39EFBF297BC0100938CAC42130756
:104FA0008002930580023DBD97460300938686717B
:104FB000370610F0850603C7F6FF2320E6F01840F9
:104FC0007D1797B5010023A1E5526DF709BBBE8D92
:104FD000A94C014D4DB4B70710F023A0A7F201A0D2
:104FE0003971130341022ED29A8506CE32D436D6B9
:104FF0003AD83EDA42DC46DE1AC63532F240014586
:10500000216182805D711303810322D42AC632DCC0
:105010002A841A86680006D6BEC236DEBAC0C2C46A
:10502000C6C61ACEEFF06FD4B247238007003245D0
:10503000B250018D225461618280B70710F083A6BF
:1050400047F403A607F403A747F4E31AD7FE930631
:10505000067D33B6C600B305E60023A4D7F423A625
:10506000B7F48280B70710F003A747F403A607F44C
:1050700083A647F4E31AD7FE9306067D33B6C6002F
:1050800023A4D7F4B305E60023A6B7F493070008DA
:1050900073A047308280411122C406C697B7010031
:1050A0009387074517B401001304444498431C40F8
:1050B000930647069387470617B601002328F64252
:1050C000856717B601002325D642938777BB63C651
:1050D000D700B240224441018280FD779387C74ABE
:1050E0003E9797B7010023A5E740CD2C8547631075
:1050F000F50218408967938777320145E3DBE7FCC7
:10510000EFF07FED2244B24041016FC07FEE17B552
:1051100001001305A52BEFF0BFEC0945EFF0BFEB45
:105120002244B24041016FC0BFEC17B50100130526
:10513000A52B6FF0FFEA17B501001305652B6FF083
:105140003FEA411122C426C206C6856417B4010095
:105150001304842A938784380100FD17F5FF228504
:10516000EFF01FE8C5BF0945D9A8411106C6BD2407
:10517000054781476316E500B2403E8541018280C4
:1051800017B5010013058524EFF09FE5B24089476C
:105190003E85410182807370043001A0828073706B
:1051A000043001A0011122CC26CA4AC806CE2A84A6
:1051B000231701000149854411A0054950400840CA
:1051C00081469305E100EFB05F91E31895FE631A05
:1051D00009001844835707008507C207C1872310B9
:1051E000F7008357E10085072317F100C1BF7971EC
:1051F00022D426D24AD04ECE06D62A848149814472
:1052000005495040084081469305E100EFB03FA0BA
:10521000E31925FF8357E10063859700BE84854924
:10522000CDB78504639A09001844835707008507A2
:10523000C207C1872310F700C204C180D9B701118A
:105240004EC6AA89314506CE22CC26CA4AC8EFE00E
:105250003FEB2A84014689450545EFB02FC6130967
:10526000803E97B701009387672A08C02322240154
:105270001CC43145EFE0DFE8AA8408404E87A286CF
:1052800088C017B501001305E52788C48148014887
:1052900081471306004097B501009385251723A287
:1052A0000400170500001305C5F4EFC08FA9A686FA
:1052B00081480148014781471306004097B5010026
:1052C0009385451517050000130505EEEFC06FA780
:1052D0003145EFE0FFE22A84014689450545EFB0FC
:1052E000EFBD97B701009387072208C01CC4232293
:1052F00004003145EFE0DFE0AA840840A28623A243
:10530000240188C017B501001305652088C48148B1
:105310000148814701471306004097B50100938576
:10532000E50F170500001305C5ECEFC08FA14E87F0
:10533000A6868148014881471306004097B50100C1
:105340009385450E17050000130505E6EFC06F9F16
:105350003145EFE0FFDA2A84014689451545EFB073
:10536000EFB597B701009387271A08C023222401BD
:105370001CC43145EFE0DFD8AA840840A28623A2EE
:10538000240188C017B501001305851888C4814819
:105390000148814701471306004097B501009385F6
:1053A000E50817050000130525E0EFC08F9962445A
:1053B000F2404249B249A686D24481480148814719
:1053C00001471306004097B501009385A506170510
:1053D0000000130505E205616FC0AF9641114AC296
:1053E00022C626C44EC017B501001305251217B8F2
:1053F00001001308281183540500835E05008359BA
:10540000080017B901001309E90E035E08000354F0
:1054100025008315090017B701001307270E035352
:105420002500831707008353280003162700C209AD
:105430008358280093D9094183524500C20442048D
:10544000035F450083162900835F4800C184B3854C
:105450003541418403174700858F018EB335B00075
:10546000C20303154900B305B04093D30341B337DA
:10547000F0003336C000C202ED8F3306C040B38661
:10548000764093D2024193950F01F18FB336D0004D
:105490000356480033075740C1853244B306D04015
:1054A0003337E0000D8D3307E040F58F3335A00032
:1054B000F98F3305A04017B701002311D70517B79F
:1054C00001002319C70317B70100231A670217B792
:1054D00001002312170317B701002313E70317B7BF
:1054E0000100231BC700A244124982497D8D41015E
:1054F0008280AA95AA876385B70003C7070001E7E2
:105500003385A74082808507FDB7814863DA0500AF
:105510003305A040B337A000B305B0409D8DFD58C2
:1055200063D906003306C040B337C000B306D0408D
:105530009D8E32883683AA872E87639F061C97B676
:105540000100938626D763F1C50C416E6377C60BC5
:10555000130EF00F6373CE002143335E6600F296A4
:1055600003CE06001A9E130300023303C341630CEB
:105570000300B3956500335EC501331866003367D9
:10558000BE00B3176500135E0801B355C7031315BA
:105590000801418193D607013376C703B305B502ED
:1055A0004206D18E63F8B600C29663E5060163F346
:1055B000B600C2968D8E33F7C603C207C183B3D639
:1055C000C603B306D50213150701C98F63F8D700C8
:1055D000C29763E5070163F3D700C297958F33D570
:1055E00067008145638A0800B307A0403337F000A5
:1055F000B305B0403E85998D8280370E000141434E
:10560000E36DC6F5614391BF01E605483358680272
:1056100041676373E8081307F00F637307012143C1
:1056200033576800BA9603C606001A9613030002A1
:105630003303C34063190306B3850541935608013C
:1056400013150801418113D6070133F7D502B3D5ED
:10565000D5024207518FB305B5026378B700429770
:10566000636507016373B7004297B305B74033F72B
:10567000D502C207C183B3D5D502B305B502131550
:105680000701C98F63F8B700C29763E5070163F3A9
:10569000B700C2978D8FA1B7370700014143E3617F
:1056A000E8F86143B5BF3318680033DEC500935E88
:1056B00008013356C500B31765003355DE03B395B3
:1056C00065004D8E93150801C1819356060133770D
:1056D000DE033385A5024207558F6378A700429702
:1056E000636507016373A7004297B306A74033F7CA
:1056F000D60342064182B3D6D6034207B386D5020B
:10570000B365C70063F8D500C29563E5050163F38F
:10571000D500C295958D1DB7E3E6D5EC416863F5DC
:105720000605930EF00F33B8DE000E0833DE0601D7
:1057300017B30100130303B87293834E0300130ED3
:105740000002C29E330EDE4163170E0263E4B60010
:105750006369C500B307C540958D3335F5003387C0
:10576000A5403E85BA85BDBD370300014148E3EF42
:1057700066FA614865BF3357D601B396C601D98E24
:10578000B357D50133D7D501B395C501CD8F93D587
:1057900006013373B702139F0601135F0F0113D87D
:1057A00007013316C6013315C5013357B70242034B
:1057B00033680301B30FEF023A83637CF801369834
:1057C0001303F7FF6367D8006375F8011303E7FF5E
:1057D00036983308F841B37FB8023358B802C20F85
:1057E000B3050F03139F0701135F0F0133EFEF01A1
:1057F0004287637CBF00369F1307F8FF6367DF00B3
:105800006375BF001307E8FF369F4203C16F336320
:10581000E3009387FFFF13580601330FBF40B375B2
:10582000F30013530301F18F3387F502B307F3023B
:10583000B385050333030303BE95135807012E9860
:105840006373F8007E93C167FD17935508013378A1
:10585000F80042087D8F9A9542976366BF00631BEC
:10586000BF006379E5003306C7403337C700958D25
:10587000998D32873307E5403335E500B305BF40E6
:10588000898DB397D5013357C70133E5E700B3D509
:10589000C50189BBAE87328836872A836396062086
:1058A00097B80100938808A163FEC50A4167637435
:1058B000E60A1307F00F3337C7000E07B356E600AA
:1058C000B69883C60800369793060002998E99CA47
:1058D000B397D7003357E5003318D600B365F70008
:1058E0003313D50013550801B3D7A50213160801C9
:1058F00041829356030133F7A502B305F60242072E
:10590000D98E3E8763FCB600C2961387F7FF63E724
:10591000060163F5B6001387E7FFC2968D8EB3F7D5
:10592000A602420313530301B3D6A602C20733E310
:105930006700B305D6023685637BB30042931385B7
:10594000F6FF636603016374B3001385E6FF420745
:10595000498F81454DA8B70600014147E360D6F65F
:105960006147A9BF01E6854633D8C602C166637E9A
:10597000D8089306F00F63F306012147B356E800F9
:10598000B69883C60800BA9613070002158F49E738
:10599000B38707418545135608019318080193D82A
:1059A00008019356030133F7C702B3D7C702420772
:1059B000D98E3385F8023E8763FCA600C296138712
:1059C000F7FF63E7060163F5A6001387E7FFC296BA
:1059D000898EB3F7C602420313530301B3D6C6023E
:1059E000C20733E36700B388D8023685637B1301AF
:1059F00042931385F6FF63660301637413011385F5
:105A0000E6FF4207498F3A858280B7060001414789
:105A1000E366D8F661479DB73318E800B3D5D700E1
:105A20003313E500B356D50013550801B397E700CB
:105A300033F7A502B3E8F60093170801C18313D624
:105A40000801B3D5A5024207518FB386B7022E864F
:105A5000637CD70042971386F5FF63670701637580
:105A6000D7001386E5FF4297B306D74033F7A60267
:105A7000C20893D80801B3D6A6024207B385D7025D
:105A8000B3671701368763FCB700C2971387F6FF29
:105A900063E7070163F5B7001387E6FFC2978D8FB1
:105AA00093150601D98DC5BD63E2D514416763FE28
:105AB000E6021308F00F3337D8000E0733D8E6009C
:105AC00097A501009385057FC29503C8050093053E
:105AD00000023A98B385054185E10547E3E5F6F212
:105AE0003335C5001347150039BFB70500014147DD
:105AF000E3E6B6FC6147D9B733570601B396B60063
:105B0000D98E93DE060133D70701B378D703B39755
:105B1000B700335805013363F80093970601C1833A
:105B2000135803013316B6003357D703C20833E8BE
:105B30000801338FE7023A8E637CE8013698130E32
:105B4000F7FF6367D8006375E801130EE7FF369827
:105B50003308E841B378D8033358D803C208B38E6A
:105B6000070393170301C183B3E7F800428763FC7F
:105B7000D701B6971307F8FF63E7D70063F5D7019E
:105B80001307E8FFB697420EB387D741C16E33675C
:105B9000EE001388FEFF3373070193580701337833
:105BA00006014182330E03033388080393560E0126
:105BB0003303C30242939A96B388C80263F3060183
:105BC000F69813D60601B29863E01703E39317D94A
:105BD000C167FD17FD8EC206337EFE003315B5008A
:105BE000F2968145E371D5E27D17A5B38145014762
:105BF00019BDB2883687AA872E886398061C97A697
:105C000001009386266B63F8C50A4163637E6608CC
:105C10001303F00F6373C30021473353E6009A96D2
:105C200003CE0600130300023A9E3303C341630C04
:105C30000300B3956500335EC501B3186600336891
:105C4000BE00B317650013D608013377C802139559
:105C50000801418193D607013358C8024207D98E03
:105C60003308050363F80601C69663E5160163F37E
:105C70000601C696B386064133F7C602C207C18342
:105C8000B3D6C602B306D50213150701C98F63F850
:105C9000D700C69763E5170163F3D700C697958FC2
:105CA00033D5670081458280370300014147E366B1
:105CB00066F661479DB701E60546B358160341668F
:105CC00063F3C8081306F00F63731601214733D638
:105CD000E800B29603CE0600130300023A9E330397
:105CE000C34163190306B385154113D70801139502
:105CF0000801418113D60701B3F6E502B3D5E502E9
:105D0000C206D18EB305B50263F8B600C69663E548
:105D1000160163F3B600C696B385B640B3F6E50246
:105D2000C207C183B3D5E502B305B50213950601D9
:105D3000C98F63F8B700C69763E5170163F3B7002F
:105D4000C6978D8FB1BF370600014147E3E1C8F820
:105D50006147B5BFB398680033D7C501B317650075
:105D6000335EC50113D50801B376A702B39565006C
:105D7000336EBE0093950801C18113560E0133574F
:105D8000A702C206D18E3387E50263F8E600C69605
:105D900063E5160163F3E600C6963386E640B37604
:105DA000A602420E135E0E013356A602C2063386C9
:105DB000C502B3E5C60163F8C500C69563E51501E4
:105DC00063F3C500C695918D0DB7E3EED5EC416741
:105DD00063F5E604930EF00F33B7DE000E0733D3FE
:105DE000E60097A801009388E84C9A9883CE0800B3
:105DF000130E0002BA9E330EDE4163170E0263E4F7
:105E0000B6006369C500B307C540958D3335F5000D
:105E10003388A5403E85C28579B5B7080001414762
:105E2000E3EF16FB614765BF3357D601B396C60152
:105E3000D98EB357D50133D7D501B395C501CD8FD1
:105E400093D506013373B702139F0601135F0F0149
:105E500093D807013316C6013315C5013357B7026E
:105E60004203B36813013308EF023A8363FC08016D
:105E7000B6981303F7FF63E7D80063F5080113032F
:105E8000E7FFB698B3880841B3FFB802B3D8B802A9
:105E9000C20FB3051F03139F0701135F0F0133EFF9
:105EA000EF014687637CBF00369F1387F8FF636767
:105EB000DF006375BF001387E8FF369F4203C168A8
:105EC0003363E3009387F8FF13580601330FBF4095
:105ED000B375F30013530301F18F3387F502B30752
:105EE000F302B385050333030303BE95135807017B
:105EF0002E986373F8004693C167FD179355080108
:105F00003378F80042087D8F9A9542976366BF0008
:105F1000631BBF006379E5003306C7403337C70012
:105F2000958D998D32873307E5403335E500B3050C
:105F3000BF40898DB397D5013357C70133E5E700DB
:105F4000B3D5C5018DB3011122CC26CA2A84AE84F3
:105F50004AC84EC652C456C206CEEFC06F8A1C4015
:105F600003290401B7090001B3E59700930AC400AF
:105F70000CC08144FD19370A00021840638C2A03C3
:105F8000032609004A85B3654701B37636019317A6
:105F90005600758F0329490063C4070001E7F1BF6C
:105FA000E39DE6FC9317760063D30700D58CEFC022
:105FB0005FF2E1B793C4F4FFF98C04C0EFC04FA9BE
:105FC0000840F2406244D2444249B249224A924ACD
:105FD000056182804111094506C622C4EFF02FA653
:105FE00017F7FFFF1307670B814605469305400629
:105FF00017A501001305C540EFD0BFC119C92A84F8
:10600000EFC00F812A860147814685452285EFD062
:10601000FFCCEFB0DFD7B24022440145410182807E
:02000004800278
:100000009C47FEFF9A48FEFFA447FEFF9A48FEFF6A
:100010009A48FEFF9A48FEFF9A48FEFFBC47FEFF43
:100020009A48FEFF9A48FEFFD647FEFFE247FEFFD2
:100030009A48FEFFF447FEFF0048FEFF0048FEFF1F
:100040000048FEFF0048FEFF0048FEFF0048FEFF9C
:100050000048FEFF0048FEFF0048FEFF9A48FEFFF2
:100060009A48FEFF9A48FEFF9A48FEFF9A48FEFF14
:100070009A48FEFF9A48FEFF9A48FEFF9A48FEFF04
:100080009A48FEFF9A48FEFF9A48FEFF9A48FEFFF4
:100090009A48FEFF9A48FEFF9A48FEFF9A48FEFFE4
:1000A0009A48FEFF9A48FEFF9A48FEFF9A48FEFFD4
:1000B0009A48FEFF9A48FEFF9A48FEFF9A48FEFFC4
:1000C0009A48FEFF9A48FEFF9A48FEFF9A48FEFFB4
:1000D0009A48FEFF9A48FEFF9A48FEFF9A48FEFFA4
:1000E0009A48FEFF9A48FEFF9A48FEFF9A48FEFF94
:1000F0009A48FEFF9A48FEFF9A48FEFF9A48FEFF84
:100100003448FEFF4A48FEFF9A48FEFF9A48FEFF29
:100110009A48FEFF9A48FEFF9A48FEFF9A48FEFF63
:100120009A48FEFF9048FEFF9A48FEFF9A48FEFF5D
:100130004246FEFFFA46FEFF9A48FEFF9A48FEFF3F
:100140003047FEFF9A48FEFF8847FEFF9A48FEFFB1
:100150009A48FEFFB647FEFFA84BFEFFFC4BFEFF92
:10016000B04BFEFFFC4BFEFFFC4BFEFFFC4BFEFFCB
:10017000FC4BFEFFA24AFEFFFC4BFEFFFC4BFEFFCA
:10018000BC4AFEFFC84AFEFFFC4BFEFFDA4AFEFFF8
:10019000E64AFEFFE64AFEFFE64AFEFFE64AFEFFAB
:1001A000E64AFEFFE64AFEFFE64AFEFFE64AFEFF9B
:1001B000E64AFEFFFC4BFEFFFC4BFEFFFC4BFEFF46
:1001C000FC4BFEFFFC4BFEFFFC4BFEFFFC4BFEFF1F
:1001D000FC4BFEFFFC4BFEFFFC4BFEFFFC4BFEFF0F
:1001E000FC4BFEFFFC4BFEFFFC4BFEFFFC4BFEFFFF
:1001F000FC4BFEFFFC4BFEFFFC4BFEFFFC4BFEFFEF
:10020000FC4BFEFFFC4BFEFFFC4BFEFFFC4BFEFFDE
:10021000FC4BFEFFFC4BFEFFFC4BFEFFFC4BFEFFCE
:10022000FC4BFEFFFC4BFEFFFC4BFEFFFC4BFEFFBE
:10023000FC4BFEFFFC4BFEFFFC4BFEFFFC4BFEFFAE
:10024000FC4BFEFFFC4BFEFFFC4BFEFFFC4BFEFF9E
:10025000FC4BFEFFFC4BFEFF1A4BFEFF484BFEFF24
:10026000FC4BFEFFFC4BFEFFFC4BFEFFFC4BFEFF7E
:10027000FC4BFEFFFC4BFEFFFC4BFEFF9E4BFEFFCC
:10028000FC4BFEFFFC4BFEFF0049FEFFFA49FEFF60
:10029000FC4BFEFFFC4BFEFF6C4AFEFFFC4BFEFFDF
:1002A000924AFEFFFC4BFEFFFC4BFEFFF64BFEFFAF
:1002B000000102020303030304040404040404040D
:1002C00005050505050505050505050505050505DE
:1002D00006060606060606060606060606060606BE
:1002E00006060606060606060606060606060606AE
:1002F000070707070707070707070707070707078E
:10030000070707070707070707070707070707077D
:10031000070707070707070707070707070707076D
:10032000070707070707070707070707070707075D
:10033000080808080808080808080808080808083D
:10034000080808080808080808080808080808082D
:10035000080808080808080808080808080808081D
:10036000080808080808080808080808080808080D
:1003700008080808080808080808080808080808FD
:1003800008080808080808080808080808080808ED
:1003900008080808080808080808080808080808DD
:1003A00008080808080808080808080808080808CD
:1003B000546D725100000000546D7220537663003A
:1003C000286E756C6C2900004572726F7220696E20
:1003D00020416C74426C636B51207461736B7320A9
:1003E0000D0A00006D69616F750A00006D69616F2B
:1003F00075320A0068756E6772790A004368656332
:100400006B54696D6572000051436F6E7342310029
:100410005150726F644232005150726F6442330027
:1004200051436F6E734234005150726F6442350015
:0804300051436F6E7342360068
:100438001000000000000000017A5200017C010158
:100448001B0D02001000000018000000B650FEFF4F
:100458008A03000000000000100000002C000000CB
:100468002C54FEFF5E030000000000001000000096
:10047800400000007657FEFF540300000000000013
:08051000FC8F01000400000053
:040000058000004037
:00000001FF
