:0200000480007A
:10000000B72F0000938F0F8073900F3015A8130047
:100010000000130000001300000013000000130094
:100020000000130000001300000013000000130084
:100030000000130000001300000013000000010086
:10004000970200009382020C73905230814001416C
:100050008141014281420143814301448144014580
:100060008145014681460147814701488148014950
:100070008149014A814A014B814B014C814C014D20
:10008000814D014E814E014F814F971102009381A6
:1000900061D1170502001305E55297A5030093856A
:1000A000258101461122170502001305A546970573
:1000B00002009385E54E0146C52817A503001305E8
:1000C000657F97B503009385A57E37B6ABAB130666
:1000D000B6BAD92817B103001301C17DEF60F00A49
:1000E000860293D21200F512638802008242110147
:1000F0006F00001073002030824211017300203025
:10010000711116C0F3222034E3CC02FC82421101AB
:10011000130141F806C20AC40EC612C816CA1ACC88
:100120001ECE22D026D22AD42ED632D836DA3ADCC7
:100130003EDEC2C0C6C2CAC4CEC6D2C8D6CADACC97
:10014000DECEE2D0E6D2EAD4EED6F2D8F6DAFADCA7
:10015000FEDE73252034F32510340A8601A07310C7
:10016000153492402241B2414242D2426243F243AC
:10017000025492542255B2554256D2566257F25703
:10018000064896482649B649464AD64A664BF64B33
:10019000065C965C265DB65D465ED65E665FF65F83
:1001A0001301C1077300203010C16374B50011053D
:1001B000E5BF828000000000000000000000000099
:1001C000000000000000000000000000000000002F
:1001D000000000000000000000000000000000001F
:1001E000000000000000000000000000000000000F
:1001F000197106C00AC20EC412C616C81ACA1ECC8D
:1002000022CE26D02AD22ED432D636D83ADA3EDCC6
:1002100042DEC6C0CAC2CEC4D2C6D6C8DACADECC96
:10022000E2CEE6D0EAD2EED4F2D6F6D8FADAFEDCA6
:100230009702020083A2023323A02200F32210348B
:1002400096DEEF00002B170102000321A1310241CD
:10025000F65273901234B72200009382028873A082
:10026000023082403242C2425243E24372448254DC
:100270001255A2553256C2565257E2577258864806
:100280001649A649364AC64A564BE64B764C865C1A
:10029000165DA65D365EC65E565FE65F0961730059
:1002A0002030970202009382E23123A0120023A2A1
:1002B000220023A4320023A6420023A8520023AA2E
:1002C000620023AC720023AE820023A0920223A21C
:1002D000A20223A4B20223A6C20223A8D20223AA06
:1002E000E20223ACF20223AE020323A0120523A2F2
:1002F000220523A4320523A6420523A8520523AADA
:10030000620523AC720523AE820523A0920723A2C7
:10031000A20723A4B20723A6C20723A8D20723AAB1
:10032000E20723ACF207EF5000041701020003219B
:1003300061230241F65273901234B7220000938277
:10034000028873A0023082403242C2425243E243EA
:10035000724482541255A2553256C2565257E25731
:10036000725886481649A649364AC64A564BE64B45
:10037000764C865C165DA65D365EC65E565FE65FB1
:10038000096173002030970202009382A22383A0A8
:10039000020003A1420083A1820003A2C20083A243
:1003A000020103A3420183A3820103A4C20183A427
:1003B000020203A5420283A5820203A6C20283A60B
:1003C000020303A7420383A7820303A8C20383A8EF
:1003D000020403A9420483A9820403AAC20483AAD3
:1003E000020503AB420583AB820503ACC20583ACB7
:1003F000020603AD420683AD820603AEC20683AE9B
:10040000020703AFC20983AF820782807370043092
:10041000197106C00AC20EC412C616C81ACA1ECC6A
:1004200022CE26D02AD22ED432D636D83ADA3EDCA4
:1004300042DEC6C0CAC2CEC4D2C6D6C8DACADECC74
:10044000E2CEE6D0EAD2EED4F2D6F6D8FADAFEDC84
:100450009702020083A2021123A0220086DEEF2071
:10046000300B170102000321E10F0241F652739095
:100470001234B72200009382028873A002308240B7
:100480003242C2425243E243724482541255A25550
:100490003256C2565257E257725886481649A649F4
:1004A000364AC64A564BE64B764C865C165DA65DD0
:1004B000365EC65E565FE65F09617300203073707A
:1004C000043001A07310453082807325403073F0F2
:1004D00043308280970700009387A7FE232EB5FE46
:1004E0002322C5FA232635F82320F5F8130505F84D
:1004F0008280411106C6EF403064EF10506701E57D
:10050000B24041018280B24041016F207000011170
:100510004EC6AA891305800326CA52C406CE22CC31
:100520004AC856C2AE84328AEF30706D630B050C38
:1005300097070200938707FF9C432A84B5CBB5E059
:10054000130944004A8544D4231A0402232844038F
:1005500023203401692613058401512697070200E0
:10056000938707FC984348548947B384974000C851
:1005700040D004CC6369A70293172500AA978A0785
:10058000170502001305C50B3E95CA85A12E05452A
:10059000F2406244D2444249B249224A924A056139
:1005A0008280854471BF9707020023ABA7F6E9B7A5
:1005B000170502001305C5089707020023A487F654
:1005C0002926170502001305E5080126970A0200EF
:1005D000938A8A095685D52C170902001309090A3E
:1005E0004A85E524170502001305850AF92C9707AB
:1005F000020023AD57F39707020023A727F3A9D0E2
:100600004DB77D5571B7011126CA4AC8970402003B
:10061000938444F117090200130949F09C4022CC4D
:10062000032409004EC606CE2A9413854700AE89DE
:10063000F52C8C4083270900C0C16375F40297072D
:100640000200938767EE884391054D2C638509026C
:100650008C406244F240D24442494E85B249E105A1
:10066000056169AC97070200938747EC88439105C1
:100670007124E39F09FCF2406244D2444249B249EA
:100680000561828079714AD04ECE06D622D426D218
:1006900052CC56CA5AC85EC617090200130949FA55
:1006A0008327090597090200938989E7B9C3737005
:1006B00004308327C905C04713058401852C736066
:1006C000043093044400268595245C5483A60900D5
:1006D000A685139527003E950A052A874A9563F754
:1006E000F61417070200232DF7E2ED2A83270905E8
:1006F000DDFFEF10903F970702009387E7E19843F3
:10070000970A0200938A8AE183A70A00198D1707C6
:1007100002002321A7E0170A0200130A2AE1970B1F
:100720000200938B6BE0170B0200130BABDE51CD75
:1007300085077D15170702002322F7DE1707020041
:10074000232AA7DC03270A0081EF83A60B001706E4
:100750000200232BE6DC170702002329D7DC3687AB
:100760001443F1D658474047584063FAE700C1B7F1
:10077000D84783A70A004047584063E5E7047370F1
:10078000043093044400268555221C54130584012B
:1007900091C3692A736004305C5403A70900A685DD
:1007A000139527003E950A054A956376F7001707CB
:1007B00002002327F7D63D2283270A0098434DFBEA
:1007C00083A70A0003250B0025F583A60900170758
:1007D00002002323F7D4939726003387D7000A0714
:1007E0004A97184335E385CA9387F6FF1397270086
:1007F0003E970A074A97184331E391CB9387E6FF68
:10080000139727003E970A074A97184305EB1707E7
:1008100002002327F7D0B250225492540259F249D1
:10082000624AD24A424BB24B456182803305E900AD
:10083000552883270905E39C07E665BDBE86170793
:100840000200232FF7CC8A07B6978A073307F900EF
:100850005443A1073E99DC425CC363852703C84724
:100860002254B2509707020023AEA7CA92540259ED
:10087000F249624AD24A424BB24B032305000C595B
:1008800045610283DC435CC3D9BF411106C626C261
:1008900022C45C45C0479304840126854128A6856F
:1008A000170502001305C5DE352897070200938758
:1008B00067C79C434854B240DC57224492443335C6
:1008C000F5001345150041018280930785007D578F
:1008D0005CC118C55CC51CC9232005008280232883
:1008E000050082805C41DCC1984798C598474CC39D
:1008F0008CC788C91C4185071CC182809041FD5767
:10090000130785006314F60039A83E875C439443BF
:10091000E37DD6FEDCC18CC798C54CC388C91C4199
:1009200085071CC1828018495C43EDB758411445C6
:100930001C4914C71845544154C3D8436314A70035
:100940001845D8C32328050088437D1588C38280B5
:100950003041AE8701CE4C455841B2954CC563E459
:10096000E5000C414CC53E856F30B041828041119D
:1009700022C406C62A8426C2EF2030333C44635B7F
:10098000F0025C5085CB9304440209A83C44FD1757
:100990003CC43C446350F0025C5089CF2685EF2074
:1009A00040796DD5EF2030193C44FD173CC43C44E0
:1009B000E344F0FEFD573CC4EF207031EF20F02EF1
:1009C0007C40635BF0021C4885CB9304040109A8BA
:1009D0007C40FD177CC07C406350F0021C4889CFEE
:1009E0002685EF2000756DD5EF20F0147C40FD17B3
:1009F0007CC07C40E344F0FEFD577CC02244B24002
:100A0000924441016F20B02C29CD011122CC2A84BF
:100A100006CE26CA4AC84EC62E89EF201029244089
:100A20004C5C832904002685EF50D0577D57232C3A
:100A30000402B3079540CE974E9578C048C0232452
:100A400034015CC438C4631109021C488DE7EF20EF
:100A50001028F2406244D2444249B249054505613A
:100A600082807370043001A013050401B93D1305A1
:100A70004402A13DE9BF13050401EF20806B8547C7
:100A8000E317F5FC6132E1B701E57370043001A0B2
:100A9000011126CA4AC84EC606CE22CCAA842E8987
:100AA000B289A5C9EF50105013055505EF30301528
:100AB0002A8435C5930745051CC144DC2320240541
:100AC000EF20B01E24404C5C032904002685EF5023
:100AD000704DFD56232C0402B30795403307A9003F
:100AE000CA9774C058C05CC434C4130504012324DD
:100AF0002401E13B13054402C93BEF20501D2308AC
:100B000034052285F2406244D2444249B24905612B
:100B1000828013054005EF30900E2A8401E5737042
:100B2000043001A000C051BF01E57370043001A082
:100B30006375B5007370043001A0411122C40946E9
:100B40002E84814506C6893711C500DDB240224496
:100B5000410182807370043001A05D7186C6A2C419
:100B6000A6C2CAC04EDE52DC56DA5AD85ED632C6AB
:100B7000630B051C6383051C89476399F600585D68
:100B800085476305F7007370043001A03689AE8491
:100B90002A84EF20C07C11E5B24781C7737004300E
:100BA00001A0EF209010185C5C5C014B894BFD5953
:100BB000130A0401930A44026365F70C6308791968
:100BC000B2476383072463150B002808EF20806970
:100BD000EF20F00FEF106070EF20300D7C40639439
:100BE0003701232204043C44639437012324040482
:100BF000EF20F00D6C002808EF20E068631005205E
:100C0000EF20B00A185C5C5C630CF70AEF20300C34
:100C1000EF20B0093C44634FF00039A85685EF201F
:100C2000405119C1EF2020713C44FD173CC43C44A5
:100C30006354F0005C50FDF323243405EF203009A9
:100C4000EF20B0067C40634FF00039A85285EF20BA
:100C5000404E19C1EF20206E7C40FD177CC07C40C7
:100C60006354F0001C48FDF323223405EF203006C6
:100C7000EF10B00B054BEF205003185C5C5CE37F7A
:100C8000F7F230406306060C631109140844A68588
:100C9000EF30300F1C4434405840B6971CC463EB0F
:100CA000E70A1C5C14405850850714C41CDC45CB73
:100CB00013054402EF20E04785476312F50AD1A8E7
:100CC000EF20F000B2455285EF206028EF20E07D54
:100CD0003C44634FF00039A85685EF20804519C188
:100CE000EF2060653C44FD173CC43C446354F00075
:100CF0005C50FDF323243405EF20607DEF20E07A83
:100D00007C40634FF00039A85285EF20804219C122
:100D1000EF2060627C40FD177CC07C406354F00093
:100D20001C48FDF323223405EF20607AEF10E07FAA
:100D300031F1EFF0AFED054B3DBF3C41E38E07E2F3
:100D40007370043001A07370043001A0304029E6B4
:100D50001C4085C71C5C585085071CDC31FBEF200C
:100D600000770545B640264496440649F259625A32
:100D7000D25A425BB25B616182804840EF20406A98
:100D80001C5C58502322040085071CDCE31207F288
:100D900079D5EFF0AFE7E1B74844A685EF30607E44
:100DA0003C4058441440B307F0403E9758C4637C1D
:100DB000D7025840BA975CC409475C506306E90201
:100DC000185C050718DCC1DFE5B54844A685EF309F
:100DD000407B3C4058441440B307F0403E9758C411
:100DE000E37CD7FCF9B75C50185C79DB185C7D17A5
:100DF00018DC185C050718DCBDD35DBD2285853E77
:100E0000EF10A0720145B9BFEF20606C014599BF9A
:100E1000411126C2AA841305400522C406C6EF303C
:100E2000005E2A8415CD232C0502FD577CC10547A1
:100E3000410558DC3CC42322040023200400232461
:100E40000400232604002320040423089404B53C52
:100E5000130544029D3C8146014681452285F539B2
:100E60002285B24022449244410182800DC5411145
:100E700022C426C206C64AC0032945002A84EF20A0
:100E8000404D8144630CA900B240224426850249AA
:100E90009244410182807370043001A05C44854417
:100EA000FD175CC4F5F38146014681452285753105
:100EB000E1BF25C1B1C9011122CC26CA4AC852C41A
:100EC00006CE4EC68947B68432892E8A2A84639913
:100ED000F600585D85476301F7067370043001A082
:100EE000EFF0AFDE185C5C5CAA896367F7028144AF
:100EF0004E85EFF02FDDF240624426854249D24410
:100F0000B249224A056182803C41D5D773700430D2
:100F100001A07370043001A0304049E21C40DDCBD9
:100F20001C5C7D5785071CDC3C446388E7083C4417
:100F3000854485073CC46DBFEFF02FD9185C5C5C1D
:100F4000AA89636DF702304071DA4844D285EF30E8
:100F500040633C4058441440B307F0403E9758C4A7
:100F60006375D7005840BA975CC48947E39AF4FA8E
:100F70001C5CDDD71C5CFD171CDC5DB7304059DE06
:100F80004844D285EF30E05F3C4058441440B307FA
:100F9000F0403E9758C4E367D7FCD9BFDDF408445E
:100FA000D285EF30005E1C4434405840B6971CC4D4
:100FB000E3E8E7F61C401CC4A5B75C5085448DDB14
:100FC00013054402EF20E01605D5E30309F22320C0
:100FD000990039BF4840EF20A0442322040089B77C
:100FE00031CD3C4181C77370043001A01C41B1CBAD
:100FF000011122CC26CA2A844AC84EC606CE2E89A2
:10100000EFF0AFCC185C5C5CAA898144637DF7008B
:101010001C5C7D5785071CDC3C446389E7023C442B
:10102000854485073CC44E85EFF0CFC9F240624449
:1010300026854249D244B2490561828073700430EA
:1010400001A05C41D5D77370043001A05C5099E3D6
:101050008544D1BF13054402EF20A00D75D9E309E3
:1010600009FE85472320F900E5B7397106DE22DC49
:1010700026DA4AD84ED652D456D232C66302051C5E
:10108000638A051AB68AAE892A84EF20402D11E5BD
:10109000B24781C77370043001A0EF2000411C5C8F
:1010A00063920714B247638E070A2808EF20801B5B
:1010B000FD5413094402130A0401EF204041EF10CC
:1010C000C021EF20803E7C406394970023220404DB
:1010D0003C446394970023240404EF20403F6C00B9
:1010E0002808EF20401A63130518EF20003C1C5C11
:1010F000ADCFEF20C03DEF20403B3C44634FF000BC
:1011000039A84A85EF20E00219C1EF20C0223C44F3
:10111000FD173CC43C446354F0005C50FDF324C410
:10112000EF20E03AEF2060387C40634FF00039A8B0
:101130005285EF20000019C1EF20E01F7C40FD1711
:101140007CC07C406354F0001C48FDF364C0EF2079
:101150000038EF10803DEF2040351C5CC1E7B247FE
:10116000A9FFEF20C036014555A0EF2040361C40B6
:10117000DDC7B2454A85EF10905DEF2000333C4457
:10118000634FF00039A84A85EF10B07A19C1EF20FB
:10119000801A3C44FD173CC43C446354F0005C504E
:1011A000FDF324C4EF20A032EF2020307C40634FB9
:1011B000F00039A85285EF10D07719C1EF20A017A1
:1011C0007C40FD177CC07C406354F0001C48FDF35C
:1011D00064C0EF20C02FEF10403531C9EF20E02C64
:1011E0001C5CB5DFCE8522854444EFF06FF6639C2E
:1011F0000A041C5C1840FD171CDC01E7EF20A0313D
:1012000048C01C48A1EFEF20802C0545F2506254E5
:10121000D2544259B259225A925A21618280EF2007
:10122000C0284840EF20A015EF20602A99B7EFF0C2
:10123000EF9D6DB73C41E38707E47370043001A074
:101240007370043001A05C5044C4D5DF1305440220
:10125000EF10306E4DD9EFF06F9B75B71305040199
:10126000EF10306D8547E310F5FAF5B72285EFF002
:101270000FF0EF10802B014551BF1DC9411122C451
:101280004AC006C626C244412E892A84EF20600C3B
:101290006383A40281464A8681452285F9338547C6
:1012A0006300F502B2402244924402494101828027
:1012B0007370043001A05C44054585075CC4DDB74C
:1012C0005C4485075CC4F9BF15CDADC9011122CCC2
:1012D00026CA4AC84EC652C42A8406CE3289AE896E
:1012E000EFF0AF9E1C5C2A8A814485E35285EFF0C3
:1012F0006F9DF240624426854249D244B249224A57
:10130000056182807370043001A0304001CE4C44EE
:101310005C40B2954CC463E4F5000C404CC44E856F
:10132000EF3020261C5C7D57FD171CDC7C40638C55
:10133000E7007C40854485077CC04DBF3C41D9D740
:101340007370043001A01C4899E3854445B7130528
:101350000401EF10105E75D9E30909FE85472320CB
:10136000F900E5B721C93C41A1CDA1CB011122CCA7
:1013700026CA4AC852C42A8406CE4EC62E8AEFF028
:10138000CF941C5C2A89814491CB8329C400D285E7
:101390002285EFF0EFDB8544232634014A85EFF008
:1013A0006F92F240624426854249D244B249224AB1
:1013B000056182807370043001A07370043001A055
:1013C000EDDF7370043001A001E57370043001A0FB
:1013D000411122C42A8406C6EF20200D005CEF20B4
:1013E000000FB240228522444101828001E57370E2
:1013F000043001A0411106C622C42A84EF20E00A6D
:101400001C5C405C1D8CEF20800C2285B240224485
:101410004101828019C1085D82807370043001A08F
:101420001DCD978703009387E744D843630CE502FB
:10143000D847630CE504D84B6307E504D84F630233
:10144000E504D853630DE502D8576308E502D85B7D
:101450006303E502D85F630EE5006F30600C7370C4
:10146000043001A001470E07BA9723A007006F3090
:10147000200B1D47CDBF1947FDB71547EDB71147E5
:10148000DDB70D47CDB70947F9BF0547E9BF684547
:1014900082806CC5828003450505828009C5085D90
:1014A0001335150082807370043001A019C51C5DCE
:1014B000485D1D8D1335150082807370043001A0C6
:1014C000411122C426C24AC006C62A842E89B2848B
:1014D00073700430EF10707D185C5C5C630BF70474
:1014E000EF10F07E7360043073700430185C5C5C45
:1014F0000145636AF70073600430B24022449244AD
:10150000024941018280304029C20844CA85EF3037
:1015100040071C4434405840B6971CC463E4E700BD
:101520001C401CC41C5C585085071CDC1DE705458D
:10153000D9B7EF10D0798DE873600430B2402244FF
:10154000924402490145410182801C40E1FF48402C
:10155000EF10106D23220400F1B713054402EFF0E1
:10156000CFB271D56D5541BF930504012685EFF0CB
:101570008F8973600430715549B7411122C406C682
:101580002A84737004301C5D89EB25E2736004309B
:10159000B24022440145410182807360043073707F
:1015A00004301C5D014599E773600430B240224469
:1015B000410182802E8730404C445C40B2954CC43F
:1015C00063E4F5000C404CC41C5C3A85FD171CDC40
:1015D000EF20307B1C4899E30545F9B7130504015A
:1015E000EFF0AFAA75D96D55C1B7930545023285A5
:1015F000EFF06F817360043071554DBF411126C209
:1016000006C622C4185D5C5DB2846368F700B24010
:101610002244268592444101828030412A8415CAA1
:101620000845EF2010761C4434405840B6971CC43F
:1016300063E4E7001C401CC41C5C85071CDCE1F86B
:101640005C50F1D713054402EFF02FA4B334A0008F
:101650007DBF1C41F5F34841EF10905C232204004C
:10166000E1BF1C5DA9C7411106C622C426C25C4564
:10167000032805045841C2975CC563E4E7001C4198
:101680005CC5145D2E87BE859387F6FF1CDDB28492
:101690002A8442863A85EF20D06E9C4099E31C480C
:1016A00089EBB240224492440545410182800145C4
:1016B000828013050401EFF04F9D65D585479CC0DE
:1016C000CDB7978703009387E71A984305C39847D8
:1016D00005C7984B05C7984F05C7985305C7985736
:1016E00005C7985B15C7985F15C3828001470E0731
:1016F000BA978CC3C8C382800547D5BF0947C5BF09
:101700000D47F5B71147E5B71547D5B71D47C5B71D
:101710001947F1BF978703009387C715D84363081C
:10172000E502D847630BE502D84B630AE502D84FC0
:101730006309E502D8536308E502D8576307E50259
:10174000D85B6308E502D85F6303A7028280014784
:101750000E07BA9723A0070082800547D5BF094727
:10176000C5BF0D47F5B71147E5B71547D5B71D47B5
:10177000C5B71947F1BF411122C426C24AC02A8405
:1017800006C6AE843289EF1050527840FD5763147C
:10179000F700232204043844FD576314F700232480
:1017A0000404EF10D0521C5C99E74A86A685130505
:1017B0004402EF10D00CEF10504F3C44635BF0023A
:1017C0005C5085CB9304440209A83C44FD173CC4FB
:1017D0003C446350F0025C5089CF2685EF107015B1
:1017E0006DD5EF1050353C44FD173CC43C44E344F8
:1017F000F0FEFD573CC4EF10904DEF10104B7C40B5
:10180000635BF0021C4885CB9304040109A87C406B
:10181000FD177CC07C406350F0021C4889CF2685B0
:10182000EF1030116DD5EF1010317C40FD177CC0EA
:101830007C40E344F0FEFD577CC02244B240924419
:10184000024941016F10B0481DC179714ECE52CC92
:1018500006D63E8A22D426D24AD056CA5AC85EC676
:10186000A547BA8963F8E7007370043001A073706C
:10187000043001A02A8BAE843289B68BC28A6307FA
:10188000082213050006EF2090372A84630B0520F9
:101890000A09232855034A869305500A5685EF20E6
:1018A000505C03C704001C587119230AE40203C7E3
:1018B00004003E991379C9FF79C783C71400A30AAE
:1018C000F40283C71400E1C383C72400230BF4028E
:1018D00083C72400CDCB83C73400A30BF40283C796
:1018E0003400D5C383C74400230CF40283C74400EB
:1018F000D9CB83C75400A30CF40283C75400C1C7DB
:1019000083C76400230DF40283C76400ADCF83C78F
:101910007400A30DF40283C77400B5C783C78400A5
:10192000230EF40283C78400B9CF83C79400A30EAB
:10193000F40283C79400A1CB83C7A400230FF40251
:1019400083C7A400A9C383C7B400A30FF40283C74D
:10195000B40095CB83C7C4002300F40483C7C4003C
:101960009DC383C7D400A300F40483C7D40081CFF0
:1019700083C7E4002301F40483C7E40089C783C755
:10198000F400A301F404930A44005685A30104045F
:101990002326340323283405232A0404EFE03FF4EC
:1019A00013058401EFE0BFF3A947B3873741232C28
:1019B000040400C81CCC40D023220404232E0404B9
:1019C0005E86DA854A85EFE0FFB008C063040A004E
:1019D00023208A007370043017F901001309C9B677
:1019E0008327090097F401009384C4B791C79840F6
:1019F0009C407C4385077CC317F70100130787B51C
:101A00001C43850797F6010023A6F6B49C40C5CB7E
:101A10008327090017FB0100130BCBC889EB9C40FF
:101A2000DC5763E6F90097F7010023AD87B297F71B
:101A30000100938767B09C4317F70100130707B1B4
:101A400048541843850797F6010023A7F6AE3CC417
:101A50006376A70097F7010023AAA7AED145EF4010
:101A60007054D6855A95EFE0FFE78327090081C7B8
:101A70009C40FC43B5E383270900054499C79C407B
:101A8000DC5763F43701EFE07F982285B25022548F
:101A900092540259F249624AD24A424BB24B4561D2
:101AA00082805685EF20D0277D54C5B713152600B8
:101AB000EF20F014AA8AE31605DC7D54F9B797F7F6
:101AC000010023A187AA184385476301F70217FB8A
:101AD0000100130B2BBDA1BF984094407C43FD1720
:101AE0007CC3FC42C9FB7360043071B7014A17FB29
:101AF0000100130B2BBBA94B5285D145EF40904AF7
:101B0000050A5A95EFE07FDCE3187AFF97FB0100A6
:101B1000938BCBC55E85EFE05FDB17FA0100130AFC
:101B20002AC65285EFE07FDA17F50100130585C656
:101B3000EFE0BFD917F50100130505C7EFE0FFD8A7
:101B400017F50100130585C7EFE03FD897F70100AF
:101B500023A877A197F7010023A247A1C9BD41118E
:101B600022C406C626C24AC02A847370043097F481
:101B700001009384649D9C40F9E311E497F7010010
:101B80009387479E8043130944004A85EFE01FDA9C
:101B90001C5489C713058401EFE05FD9CA8517F586
:101BA0000100130565C0EFE0FFD397F701009387AD
:101BB000A79A984397F70100938707989C430507D6
:101BC00097F6010023AAE6989840850797F601004A
:101BD00023A4F69601CB97F701009387A798984323
:101BE000784349EF9C40B1C797F7010093878797E7
:101BF0009843630F870873700430984039EB17F7E8
:101C000001001307E79514439442A5E27D5797F628
:101C1000010023A1E692984009CF9843784311CB65
:101C2000984394437C43FD177CC3FC4299E3736063
:101C30000430B2402244924402494101828097F725
:101C400001009387279298439C437C4385077CC37C
:101C50002DB794439843F8420507F8C217F70100DF
:101C60001307079014439442D5D218435847584756
:101C7000584397F6010023AFE68A71BF9843944317
:101C80007C43FD177CC3FC42B1FF7360043099BFF5
:101C900097F701009387C7899C4381C7737004300D
:101CA00001A02244B2409244024941016FE00FF684
:101CB00041C517F701001307E78A14438147638B77
:101CC000A606411106C622C426C27370043097F6D8
:101CD0000100938666879C4291C710431C437C4257
:101CE00085077CC29C42AA84404981C71C43FC43AF
:101CF000B9E797F701009387A7869C43638B870416
:101D000097F70100938787859C436384870497F73F
:101D100001009387A7AA6309F40297F7010093874C
:101D2000A7A86301F4028547B240224492443E854D
:101D3000410182803E8582807370043001A0EF40B3
:101D4000303A45BF9147CDB79C5493B717008907E8
:101D5000E1BF8947D1BF7370043097E701009387D3
:101D6000A77E984309EF15C59C43485581CB97E75B
:101D700001009387277F9843784315E3828017E714
:101D800001001307277E14431843F8420507F8C2E1
:101D900061FD17E701001307E77C0843F1B798439B
:101DA00094437C43FD177CC3FC42E9FB7360043021
:101DB0008280411122C42A8406C6EFE00FF111E4AB
:101DC00097E701009387077A80434054EFE08FEF55
:101DD000B2402285224441018280A54763F5B700C5
:101DE0007370043001A0011122CC06CE26CA4AC865
:101DF0004EC652C42A847370043017E901001309D7
:101E0000A97483270900CDEF71C43C486388F508A5
:101E100017E701001307077563FCB7001443638CD1
:101E2000860C18434457B3B4950093C4140029A0FA
:101E30000443818C93B4140058546383E70A1C4C08
:101E40002CC863C60700A947B385B7400CCC9317CD
:101E50002700BA97584897F901009389A9848A07FF
:101E6000CE97631AF702130A44005285EFE01FACC5
:101E700097E701009387876D48549C4363F6A7005A
:101E800097E7010023A4A76CD145EF40B011D2859C
:101E90004E95EFE03FA599C0EFE04FD783270900AB
:101EA00081CB97E701009387E76B9C43FC439DEB55
:101EB000F2406244D2444249B249224A05618280DA
:101EC00097E701009387076A98439C437C43850703
:101ED0007CC305FC97E701009387C768804335B74B
:101EE0004CD4B1BF6244F240D2444249B249224A82
:101EF00005616F40F01E814481B725C1011126CADA
:101F000097E40100938404669C4006CE22CC4AC824
:101F10004EC6638DA7027370043017E901001309E0
:101F2000A9628327090091C798409C407C4385079C
:101F30007CC3584997F70100938747886302F702EB
:101F40008327090081C79C40FC43A5EBF240624413
:101F5000D2444249B249056182807370043001A0C5
:101F60001C5517F701001307E782E38BE7FCE9FB39
:101F7000930945002A844E85EFE05F9B97E70100B7
:101F80009387C75C48549C4363F6A70097E701001A
:101F900023AEA75AD145EF40F00097E701009387A1
:101FA00067703E95CE85EFE0FF939C405854DC5718
:101FB000E368F7F8EFE08FC561B76244F240D244BE
:101FC0004249B24905616F40B01115CD011122CCD3
:101FD00026CA4EC62A8406CE4AC8EFE00FCF58481C
:101FE00097E701009387877DAA8981446300F70200
:101FF0004E85EFE02FCDF240624426854249D2441F
:10200000B249056182807370043001A01C5417E549
:10201000010013052578E38DA7FCF9FB97E7010084
:10202000938707519C43A9EB97E701009387875358
:102030009C43445413094400DC574A85B3B4F4006C
:10204000EFE0DF8E97E701009387475048549C43A9
:1020500093C4140063F6A70097E7010023A8A74ED6
:10206000D145EF40207497E701009387A763CA85A5
:102070003E95EFE03F87ADBF93058401EFE09F867B
:1020800085BF0111056506CE22CC26CA4AC84EC6B8
:1020900052C456C25AC0EF208036630E051AAA8475
:1020A00013050006EF20A0352A84630A051C056687
:1020B0009305500A04D92685EF20A05A0458856755
:1020C000F117BE94B7474C4593879744130A4400D1
:1020D0005CD85285230C0402A301040423260402C5
:1020E00023280404232A0404EFE06FFF130584016E
:1020F000EFE0EFFEA947232C0404F19800C81CCCA4
:1021000040D023220404232E040401469715000026
:102110009385E5B12685EFE0EFBB08C0737004300E
:1021200017E90100130949428327090097E40100D8
:102130009384444391C798409C407C4385077CC36B
:1021400017E70100130707411C43850797E60100C5
:1021500023A2F6409C40C9C38327090097E90100E8
:102160009389495481EB9C40DC5789E797E701004C
:1021700023AA873E97E701009387073C984397E699
:1021800001009386A63C5C549442050717E60100C3
:102190002324E63A38C463F6F60017E70100232744
:1021A000F73A139527003E950A05D2854E95EFE044
:1021B0006FF38327090081C79C40FC43DDE7832739
:1021C000090091C39C40EF10F04985476305F50C69
:1021D00059E17370043001A097E7010023A4873808
:1021E0001843854797E901009389C94BE314F7F831
:1021F000CE8A17EB0100130B6B575685D10AEFE01F
:10220000CFECE31C5BFF17E5010013052556EFE05B
:10221000CFEB97EA0100938AAA565685EFE0EFEAE2
:1022200017E5010013050557EFE02FEA17E5010058
:1022300013058557EFE06FE917E501001305055811
:10224000EFE0AFE897E7010023AC673197E70100C3
:1022500023A6573105B7F2406244D2444249B249FD
:10226000224A924A024B05618280984094407C4306
:10227000FD177CC3FC42A1F77360043089B7624448
:10228000F2404249B249224A924A024B2685D24440
:1022900005616F20E02873700430FD5717E70100D7
:1022A000232AF728624497E7010023AFA728F240CA
:1022B000D2444249B249224A924A024B97E701006E
:1022C00023A8072805616FD0DFFD7370043097E7FE
:1022D000010023AB07266FE00F8B17E70100130700
:1022E00027251C4385071CC382807370043097E741
:1022F000010093876725984305E317E7010013075B
:10230000272508439C4381CB97E7010093878725C6
:102310009843784301EF828017E701001307872471
:1023200014431843F8420507F8C2C1BF98439443C9
:102330007C43FD177CC3FC42F9FF7360043082804C
:10234000411106C622C4EFE04F9897E7010093873A
:1023500027208043EFE00F97B240228522444101BD
:10236000828097E701009387E71E88438280797116
:1023700006D622D426D24AD04ECE52CC56CA5AC8FD
:102380005EC697E701009387A71A9C43B1EF17E752
:1023900001001307E71B1C43850797E6010023A9EB
:1023A000F61A832A0700638F0A0697E701009387CE
:1023B00067189C43814463F1FA0897E90100938907
:1023C000692E17EA0100130AEA1983270A008546D5
:1023D000D85793172700BA978A07BE9983A7090091
:1023E00063FFF600854421A897E7010093878715CE
:1023F0009C438144850717E701002325F71497E7DD
:1024000001009387E7139C4391C38544B250225443
:10241000268502599254F249624AD24A424BB24B43
:102420004561828017E40100130484131C409C431F
:10243000DDC37370043001A017E4010013044412DB
:1024400097E901009389092617EA0100130A8A1106
:1024500017EB0100130B8B0F1C409C43B5C31C40B2
:10246000DC4703A9C70083274900930B49005E8519
:1024700063EEFA04EFE08FCB83278902130589010D
:1024800099C3EFE0AFCA8327C90203270B00DE859B
:10249000139527003E950A054E956376F70017E7DA
:1024A00001002325F70AEFE0EFC383270A00032783
:1024B000C902DC57E362F7FA1C4085449C43C5F32C
:1024C000FD5717E701002327F70601B717E70100BB
:1024D0002322F706DDBD17E70100130727081C407C
:1024E000184397E6010023ADE60617E7010023270E
:1024F000F70697E70100938767049C43850717E772
:102500000100232DF7021C409C4399E7FD5717E774
:1025100001002321F70251BD1C40DC47DC47DC43AE
:1025200017E701002328F70049B597E701009387D3
:102530002700984301E77370043001A0011106CE13
:1025400022CC26CA4AC84EC652C456C25AC073705C
:10255000043097E40100938424FF984061EB984392
:102560007D1797E6010023A5E6FC9C43D9EB97E78E
:102570000100938727FE9C43C9C797EA0100938A0D
:102580006A1217EA0100130A6AFC17E9010013092D
:1025900069FD854919A83385EA00EFE0AFB48327C8
:1025A00009005854DC576379F70483A70A0FC1CF99
:1025B00083A7CA0FC04713058401EFE02FB7130BA1
:1025C00044005A85EFE08FB65C5483260A00DA8512
:1025D000139527003E950A052A875695E3FDF6FADE
:1025E00017E701002324F7F6EFE0CFAF83270900B8
:1025F0005854DC57E36BF7FA97E7010023A237F54D
:102600006DB701449C4081CB97E70100938787F524
:102610009C43FC4395E72285F2406244D244424900
:10262000B249224A924A024B0561828017E70100B3
:10263000130747F314431843F8420507F8C205B7D8
:10264000EF40002AC9BF17E401001304A4EF1C40A7
:1026500095C31C40054999CF193B09C597E701006F
:1026600023A027EF1C40FD1717E70100232CF7ECF0
:102670001C40FDF397E70100938787EC984385475B
:10268000E311F7F8EFD09FD80544ADBF11CD81E538
:102690007370043001A017E70100130767E91C43BA
:1026A00099C77370043001A07370043001A0411108
:1026B00022C406C614431841850617E601002329E3
:1026C000D6E697E601009386A6E894423304B70065
:1026D00000C163F7E602637FE40063FD860097E7CD
:1026E0000100938727E888431105EFE02FA4228596
:1026F000EF40C0181D3D01C9B24022444101828013
:10270000E36FE4FCD9BF2244B24041016FD01FD037
:1027100011C917E701001307A7E11C4391C77370A4
:10272000043001A06FD09FCE411106C622C41843C9
:10273000AA87050797E6010023ACE6DE97E60100CD
:10274000938646E217E70100130787E018438842A3
:102750003304F7001105EFE06F9D2285EF40001272
:10276000E93311E52244B24041016FD03FCAB24083
:10277000224441018280411122C406C697E701002C
:10278000938707DB9C430144850717E7010023215A
:10279000F7DA97E701009387E7DB9C4363E0F512E4
:1027A00017EE0100130ECEFB97E201009382C2EEFA
:1027B00001440147854F1303500A21A0311E638D48
:1027C000C20B83278EFFBA86F5DB8327CEFFDC435F
:1027D000232EFEFE638AC70F03AFC700DC432A9790
:1027E000814E232EFEFE6385C70783A8C70093870B
:1027F0004803232017015CC383A788042326F7011D
:102800001CC783A7C8021CCB83A70805232C07007D
:102810005CCB03A808038347080063906704C28762
:10282000850783C60700B3850741E38B66FE898170
:10283000C205C181231EB700850E13070702630678
:102840001F038327CEFFDC43232EFEFEE39FC7F941
:1028500083274E00232EFEFE49BF8145231EB7006D
:10286000850E13070702E31E1FFD7694131754000D
:10287000311EBA86E397C2F597E70100938747CEEA
:1028800003AE070083270E00639D070E97E7010044
:102890009387C7CC03AE070083270E006392071807
:1028A00017EE0100130E0EE083274E109DE38327E1
:1028B0008E116395072019C223200600BD312285A1
:1028C000B24022444101828083274E00232EFEFE27
:1028D00021B783278E1017EF0100130F6FEDDC4334
:1028E00017E701002324F7EC6380E73383A2C700D6
:1028F000DC43AA96814E17E701002329F7EA914F9E
:102900001303500A6388E70783A8C7009387480327
:1029100023A01601DCC283A7880423A6F6019CC667
:1029200083A7C8029CCA83A7080523AC0600DCCA9B
:1029300003A80803834708006391672AC2878507B5
:1029400003C70700B3850741E30B67FE93D7250054
:10295000C207C183239EF600850E93860602638616
:10296000122983278E10DC4317E701002320F7E4A8
:10297000E39CE7F983270E1117E701002328F7E20C
:1029800061B783274E00130F8E00D4432322DE004D
:102990006388E629B307E500D84283A2C600814ECA
:1029A0002322EE00894F1303500A6306EF068328A3
:1029B000C7001387480323A01701D8C303A78804BF
:1029C00023A6F70198C703A7C80298CB03A7080559
:1029D00023AC0700D8CB03A80803034708006318FB
:1029E000671C4287050783460700B3050741E38B51
:1029F00066FE13D7250042074183239EE700850E1C
:102A000093870702638D121B83264E00D842232230
:102A1000EE00E31EEFF80327CE002322EE0041BFB5
:102A200083274E00130F8E00DC432322FE006384B5
:102A3000E71F83A2C700DC43AA96814E2322FE0033
:102A4000894F1303500A6306FF0683A8C7009387C4
:102A5000480323A01601DCC283A7880423A6F6013D
:102A60009CC683A7C8029CCA83A7080523AC06009E
:102A7000DCCA03A808038347080063966710C2876F
:102A8000850703C70700B3850741E30B67FE93D7AC
:102A90002500C207C183239EF600850E9386060299
:102AA000638B120F83274E00DC432322FE00E31EBC
:102AB000FFF88327CE002322FE0041BF8327CE11DB
:102AC00097EE0100938E0ED0DC4317E70100232917
:102AD000F7CE6384D71383AFC700DC433307D50039
:102AE000014397E6010023ADF6CC0D4F89429308D0
:102AF000500A6387D707C8479307450308C35CC3D9
:102B00003C452326E7011CC75C551CCB1C5599C3CB
:102B1000232657003C49232C07005CCB03280503E0
:102B20008347080063951705C287850783C607009A
:102B3000B3850741E38B16FF93D72500C207C183F6
:102B4000231EF700050313070702638AAF028327DA
:102B5000CE11DC4397E6010023A4F6C6E39DD7F926
:102B600083274E1297E6010023ACF6C469B781476C
:102B7000231EF700050313070702E39AAFFC1A941C
:102B8000E31C06D225BB8147239EF600850E938663
:102B90000602E39912F117EE0100130EAEB083277F
:102BA0004E10769493165400E38307D01DB301476B
:102BB000239EE700850E93870702E39712E597E7C8
:102BC00001009387A79903AE0700769493165400EB
:102BD00083270E00E38607CCA1B58147239EF6002C
:102BE000850E93860602E39E12D783278E11769474
:102BF00093165400E38107CCD1B583274E1217E713
:102C00000100232FF7BAC1BD83270E1117E701007A
:102C1000232EF7B8E1B98327CE002322FE0011BD91
:102C20008326CE002322DE00B5B3797126D24AD0A6
:102C30004ECE52CC56CA5AC85EC606D622D497E9A2
:102C400001009389E98E17E901001309A9A517EA84
:102C50000100130A6A8F97EA0100938AAA9097EB02
:102C60000100938B2B8F97E401009384E48E054B36
:102C700021A883A7090003244910850717E701004D
:102C80002328F78A5D3011E89C40E5F78327090087
:102C9000E37CFBFEEFD08FF7C5BF73700430832752
:102CA0000A00B9E383270911C04713054400EFD098
:102CB000FFC783A70B00FD1717E70100232CF78838
:102CC0009C40FD1717E701002328F78883270A0097
:102CD00089C783A70A00FC4385E30858EF10500416
:102CE0002285EF10F0034DB703A70A0083A70A005F
:102CF0007C4385077CC37DB703A70A0083A60A002F
:102D00007C43FD177CC3FC42E9FB73600430F1B7E0
:102D100097E701009387C7819C43DDE7411106C611
:102D200022C426C297E7010023AC078017E7010001
:102D3000130747831C43B7A6A5A59386565A9C5BE9
:102D40008C43639BD500D0436318B60094476395CA
:102D5000C600DC476388D70008430C4393854503CE
:102D6000EF20C07317D701001307477E144317E401
:102D700001001304249311A81C43A9CF1C43FD1781
:102D800097D6010023A4F67C144393972600B697A8
:102D90008A07A2979C43EDD3084393172500AA976F
:102DA0008A073307F4005443A107A297C44244C3DF
:102DB0006385F402DC44B240224417D70100232388
:102DC000F77A924441018280854717D70100232971
:102DD000F77682807370043001A0C440D145EF3093
:102DE000701C229544C1F9B701114AC806CE22CC05
:102DF00026CA4EC62A897370043097D40100938482
:102E0000A4749C4017D401001304C475D9E763145B
:102E1000090003290400930949004E85EFD01FB132
:102E20008327890289C713058901EFD03FB0CE857A
:102E300017E5010013058598EFD0DFAA9C4081C7F4
:102E40001C40FC43ADE31C40638B27079C409DCF97
:102E5000737004309C40C1EB97D701009387477093
:102E60009843184325EBFD5717D701002324F76C2F
:102E70009C4089CF1C40FC4391CB184014407C43BC
:102E8000FD177CC3FC4299E373600430F240624456
:102E9000D2444249B2490561828018401C407C43BB
:102EA00085077CC3ADB7184014407C43FD177CC335
:102EB000FC42D1FB736004301C40E39927F99C402D
:102EC000A1C397D701009387A7669C43ADCB7370CE
:102ED000043001A09C43DC47DC47DC4317D70100EA
:102EE000232AF76471B718401C407C4385077CC3D4
:102EF00097D701009387C766984318432DD7D9BF4A
:102F000097D701009387076517D7010013078779C3
:102F10009C4303278711631DF700F240624497D753
:102F2000010023A10764D2444249B249056182806D
:102F30006244F240D2444249B2490561D1BB624485
:102F4000F240D2444249B24905616FD02FCC3DC90D
:102F5000411126C297D401009384C4604AC02E89CF
:102F60008C4006C622C4E105EFD05F998840110568
:102F7000EFD0DF9BFD57630AF90497D701009387D1
:102F8000275D804398409C434A9440C3636CF4049B
:102F900097D701009387C75C88438C409105EFD099
:102FA000FF9597D701009387E7589C436376F40019
:102FB00097D7010023A08758B24022449244024987
:102FC000410182807370043001A08C402244B240E1
:102FD0009244024917D501001305457E9105410130
:102FE0006FD05F9097D7010093874757884322445B
:102FF0008C40B24092440249910541016FD01F902C
:1030000011C997D701009387A7529C4399E7737022
:10301000043001A07370043001A0411126C297D47E
:103020000100938424549840AE878C40B7060080FA
:10303000D58F06C622C41CCFE1053284EFD09F8A0B
:1030400088401105EFD09F8EFD57630EF40097D78F
:1030500001009387E74F8843B2409244229522446F
:1030600041016F30B0018C402244B240924417D5E8
:1030700001001305A574910541016FD0BF8625CDD0
:10308000411126C297D401009384C44D4AC02E89B1
:103090008C4006C622C4E1053284EFD0BF8488404C
:1030A0001105EFD0BF888547630AF40497D7010064
:1030B0009387074A804398409C434A9440C3636C7B
:1030C000F40497D701009387A74988438C40910562
:1030D000EFD0DF8297D701009387C7459C43637683
:1030E000F40097D7010023A78744B24022449244BA
:1030F0000249410182807370043001A08C40224457
:10310000B2409244024917D501001305256B910581
:1031100041016FD02FFD97D7010093872744884343
:1031200022448C40B24092440249910541016FD043
:10313000EFFC411106C622C426C25C45C04735CC0F
:10314000930484012685EFD06FFE97D70100938703
:10315000273E9C43B5E7930444002685EFD00FFD3E
:1031600097D701009387873E58549C4363F6E70046
:1031700097D7010023ACE73C93172700BA978A073B
:1031800017D5010013050552A6853E95EFD08FF5A2
:1031900097D701009387073D9C4358540145DC575E
:1031A00063F8E700854717D70100232BF73805455B
:1031B000B24022449244410182807370043001A0E5
:1031C000A68517D501001305E55CEFD0AFF1C9B7AF
:1031D00097D701009387C7359C4381E7737004300C
:1031E00001A0411106C622C426C2B707008040458F
:1031F000CD8F1CC12DC4EFD06FF3930444002685FE
:10320000EFD0CFF297D701009387473458549C43AF
:1032100063F6E70097D7010023AAE7329317270048
:10322000BA978A0717D501001305C5473E95A685AD
:10323000EFD04FEB97D701009387C7329C43585488
:103240000145DC5763F8E700854717D701002329BC
:10325000F72E0545B24022449244410182807370AA
:10326000043001A011CD97D701009387272D9843F3
:1032700097D701009387C72D9C4318C15CC18280FA
:103280007370043001A055C1D1CD411106C622C4CE
:103290002A877370043097D801009388E82A83A79F
:1032A000080091CB97D701009387C72B94439C4389
:1032B000FC428507FCC217D30100130363299C411C
:1032C00003260300FD560144638FD70217DE010079
:1032D000130ECE2603250E00032807005443630572
:1032E000A80005446371D6023308D6400544637CC8
:1032F000F80003250E00918F03260300B6979CC1AA
:1033000008C350C3014483A7080081CB97D70100AD
:10331000938747259C43FC4381EF2285B24022449A
:10332000410182807370043001A07370043001A0E9
:10333000EF30005BDDB7854717D701002322F72068
:10334000828019C1684582800145828011C16CC5A7
:10335000828097D701009387E7208843828097D7A0
:1033600001009387671E9C43054589CB97D70100D1
:103370009387071C8843133515000605828031CDDD
:10338000011126CA97D401009384C41D9C4006CE27
:1033900022CC4AC84EC65855DC576379F7021C4DFB
:1033A00063C707009C40D457A947958F1CCD93173E
:1033B0002700BA97584917D901001309A92E8A077F
:1033C000CA97630DF7009C40DC575CD5F24062441D
:1033D000D2444249B2490561828082809309450006
:1033E0002A844E85EFD08FD49C4017D70100130755
:1033F000E7151843DC575CD46376F70017D7010054
:103400002326F714139527003E9562440A05F240DF
:10341000D244CE854A95B249424905616FD08FCCDE
:1034200019CD411106C622C426C297D70100938741
:10343000671380436307A4007370043001A0014543
:1034400082807C4881E77370043001A0545438486E
:10345000FD177CC86383E60099C70145B24022444A
:10346000924441018280930444002685EFD00FCC22
:10347000284897D701009387670D9843A947898FFC
:1034800048D41CCC6376A70097D7010023A0A70CD3
:10349000D145EF30203197D701009387A7203E9583
:1034A000A685EFD02FC4054555BF7370043097D75C
:1034B0000100938767099C4391CB97D701009387BD
:1034C000670A98439C437C4385077CC3828097D7D7
:1034D0000100938767079C438DC397D701009387AB
:1034E00067089843784311CB984394437C43FD1776
:1034F0007CC3FC4299E373600430828097D701005B
:1035000093874706904394439843A947D456084E5F
:10351000958F1CCF828097D701009387A70498438B
:1035200009C79443F84A0507F8CA8843828079712D
:103530004AD006D622D426D24ECE2A8973700430C1
:1035400097D40100938444009C4017D401001304D5
:103550006401BDE31C40BC4F89E71C400547F8CF20
:10356000D1E19C4081C71C40FC43F1EB73700430F7
:103570009C408DEF1C40A84F11C5630409021C40FC
:1035800023AC07041C4023AE07049C4081C71C40A9
:10359000FC438DEBB250225492540259F2494561DA
:1035A000828018403C4FFD173CCFE9BF18401C40BB
:1035B0007C4385077CC37DBF18401C407C43850746
:1035C0007CC349BF184014407C43FD177CC3FC42B8
:1035D000F1F373600430B250225492540259F2490C
:1035E0004561828008402EC61105EFD02FB4B24548
:1035F000FD576380F50697D70100938767F583A988
:10360000070018409C43AE992322370163ECF9046C
:1036100097D701009387C7F488430C409105EFD0FA
:10362000EFAD97D701009387E7F09C4363F6F9006D
:1036300097D7010023A037F1EFC05FDD1DB7184019
:1036400014407C43FD177CC3FC428DF3736004304F
:1036500031BF0C4017D50100130545169105EFD079
:103660006FA8D9BF97D70100938747EF88430C40D5
:103670009105EFD0AFA8C9B779714AD04ECE06D622
:1036800022D426D252CC2E89B2897370043097D4BA
:103690000100938464EB9C4017D40100130484EC74
:1036A000F9EF18408947784F630CF7001C40134529
:1036B000F5FFB84F798DA8CF1C400547F8CFADE690
:1036C0009C4081C71C40FC43F5E3737004309C4070
:1036D000B1E7638609001C40BC4F23A0F9001840E5
:1036E00085470145784F630BF7001C401349F9FFEC
:1036F0000545B84F3379E90023AC27051C4023AEBC
:1037000007049C4081C71C40FC43C1E3B2502254D3
:1037100092540259F249624A4561828018401C4025
:103720007C4385077CC375B7084036C61105EFD0CA
:10373000EF9FB246FD576385F60897D70100938740
:1037400027E103AA070018409C43369A2322470129
:103750006363FA0897D70100938787E088430C409A
:103760009105EFD0AF9997D701009387A7DC9C43D1
:103770006370FA0697D7010023AE47DB91A8184083
:103780001C407C4385077CC329BF184014407C4300
:10379000FD177CC3FC42BDFB73600430B250225461
:1037A00092540259F249624A45618280184014409D
:1037B0007C43FD177CC3FC4289FB7360043031B746
:1037C0000C4017D50100130565FF9105EFD08F91CF
:1037D000EFC0DFC3F5B597D70100938727D888439B
:1037E0000C409105EFD08F91E5B751C1411106C64C
:1037F00022C426C24AC07370043097D40100938457
:10380000A4D49C40B9EB99C23C4D9CC2B287894676
:10381000704D74CD2E872A846386D70663FCF60428
:103820008D456387B70091456395B7006300D60C5B
:1038300038CC8547630FF60405449C4081CB97D76D
:103840000100938727D29C43FC43A9E32285B24021
:103850002244924402494101828097D70100938714
:1038600067D098439C437C4385077CC369BF7370D2
:10387000043001A08546E39ED7FA3C4D33E7B700FC
:1038800038CD45BF3C4D85073CCD65B7EF30400591
:1038900075BF130944004A85EFD04F8997D70100BF
:1038A0009387C7CA48549C4363F6A70097D7010083
:1038B00023AEA7C8D145EF20F06E97D701009387BC
:1038C00067DE3E95CA85EFD0EF811C5481C77370C7
:1038D000043001A097D701009387C7C89C43585470
:1038E000DC57E3FBE7F4EFC07FB2B9B70144B1B7EF
:1038F00039CD011122CC26CA4AC84EC652C456C27E
:1039000006CEBA89368AB2842E892A84EFC0FFBBDC
:10391000AA8A63050A003C4C2320FA00784C8947A8
:103920007CCC6389F40263F4970C8D466387D400E2
:1039300091466396D400630AF70A232C2405854731
:10394000631EF7061C5499CB7370043001A073708A
:10395000043001A03C4C85073CCCD5B797D701007B
:10396000938707BD9C43ADEB930444002685EFC0CD
:10397000FFFB97D70100938767BD48549C4363F6CC
:10398000A70097D7010023A3A7BCD145EF209061E2
:1039900097D70100938707D1A6853E95EFC09FF486
:1039A00097D70100938707BC9C435854DC5763F7B3
:1039B000E70063850900854723A0F9000544568583
:1039C000EFC05FB02285F2406244D2444249B2491E
:1039D000224A924A056182809305840117D501002D
:1039E000130545DBEFC01FF065BF0144C9BF854724
:1039F000E397F4F43C4C33E92701232C240581B7E9
:103A00004DC1011122CC26CA2A844EC606CE4AC810
:103A1000AE84EFC09FAB8947744C7CCC3C4C0547CF
:103A2000AA8985073CCC6395E6061C5481C7737050
:103A3000043001A097D70100938787AF9C43ADE77F
:103A4000130944004A85EFC07FEE97D701009387A2
:103A5000E7AF48549C4363F6A70097D7010023A71C
:103A6000A7AED145EF20105497D70100938787C3A5
:103A7000CA853E95EFC01FE797D70100938787AEB1
:103A80009C435854DC5763F5E70099C085479CC0B8
:103A90006244F240D24442494E85B24905616FC04A
:103AA0007FA27370043001A09305840117D5010033
:103AB000130545CEEFC01FE3C1B7AA8729C57370B0
:103AC000043017D70100130727A814439DE2F04FD5
:103AD000894601456315D60023AE070405451C43FE
:103AE00081CB97D701009387E7A79843784315E3E5
:103AF000828097D601009386E6A690429442744253
:103B0000850674C2E9B797D701009387A7A59C43A0
:103B10007DB7984394437C43FD177CC3FC42E9FB8B
:103B20007360043082805D71A6C2CAC052DC56DA6E
:103B30005AD85ED686C6A2C44EDE62D466D26AD099
:103B400017D90100130909A317DB0100130BCBA13F
:103B500097D40100938484A197DA0100938A4AA143
:103B6000054AA54B83270900984363010712DC47E8
:103B700083A90700EFE06FF6EFE02FF783270B0034
:103B80002A8C6362F50A97D7010023AFA79C0146F0
:103B90006370351B8840B3858941EFD0DFBDEFE00E
:103BA000DF98630105128840814601462C00EFD062
:103BB000CFCB4DD9A247E3C807FEC24983A749012D
:103BC00089C713854900EFC07FD6EFE00FF2832746
:103BD0000B002A8C636DF508A24717D70100232537
:103BE0008799E3E2FBFCB317FA0013F70721631A86
:103BF000071613F7770C6318071E93F70702C5D74C
:103C00004E85EF00F01145B7DC47C04783AC070095
:103C1000930944004E85EFC07FD15C502285829786
:103C20005C4C6384470B83270900984371FF03A70B
:103C30000A0097D6010023A9869397D6010023A9ED
:103C4000F69297D7010023A7E792EFE01F8EA1BF5E
:103C5000DC47C04703AD0700930C44006685EFC006
:103C6000FFCC5C50228582975C4C63864709832792
:103C70000900984371FF03A70A0097D6010023A902
:103C8000F68E97D7010023A7E78EB9B7EFE0EFE4F0
:103C9000EFE0AFE583270B002A8CE366F5F883A7F6
:103CA0000A00884081499043B385894117D70100B4
:103CB000232C878B13361600EFD0FFABEFE0FF8687
:103CC000E31305EEEFC08FF4F9BD1C4CCE85E697EB
:103CD00063E9FC049C4089CF02CA66CC22CEEFF097
:103CE0000FE88840814601464C08EFC01FE705FDFC
:103CF0007370043001A01C4CE685EA97636CFD04E8
:103D00009C4089CF02CA6ACC22CEEFF04FE58840B2
:103D1000814601464C08EFC05FE431F9737004300E
:103D200001A0032509005CC000C8EFC03FBDE5BD90
:103D3000EFE0AFFF83270900DC47C047930C440046
:103D40006685EFC0BFBE5C4C638F47035C50228525
:103D5000829791BD032509005CC000C8EFC01FBA5F
:103D600039B7B24723ACF900A5CFE29723A2F900F7
:103D700023A8390193854900636FFC0403A50A0059
:103D8000EFC0DFB70DB51C4C00C83387F90058C031
:103D9000636DEC02330C3C416363FC029C4089CFB1
:103DA00002CA4ECC22CEEFF08FDB8840814601461E
:103DB0004C08EFC09FDA59F97370043001A003A5D5
:103DC0000A00E685EFC09FB351B703250900E685D9
:103DD000EFC0DFB2A5BF03250900EFC03FB2E1B3DA
:103DE0007370043001A0B24783A6890123A839016A
:103DF0003387D70023A2E9006364EC04B307FC40D7
:103E000063EBD70483A749024E85829783A7C90134
:103E1000E39B47D983A68901B2479840B69711CF53
:103E200002CA3ECC4ECEEFF08FD388408146014689
:103E30004C08EFC09FD2E31805D67370043001A080
:103E40006374FC00E370F7FC0325090093854900C7
:103E5000EFC0DFAA89BB03A50A0093854900EFC024
:103E6000FFA991B3411122C406C626C24AC017C495
:103E700001001304A46FEFF04FE31C4095CBEFF06B
:103E80000FE51C409DC38148014881470947814691
:103E90001306004097C501009385455217050000A1
:103EA0001305A5C8EFD05F9A39E97370043001A0FB
:103EB00017D901001309C9914A85EFC01FA197D4F2
:103EC0000100938424922685EFC03FA00146B145AE
:103ED000114597C7010023AF276997C7010023A9A0
:103EE0009768EFC07FBA17C701002321A76811CDDB
:103EF00097C501009385054CEFD0AFFC49B7B240A0
:103F0000224492440249410182807370043001A02E
:103F1000A5C9797156CAAA8A1305C00222D426D22D
:103F20004AD04ECE52CC06D65AC85EC63A89B68919
:103F3000328AAE84E9212A8405C9EFF00FD797C7EA
:103F400001009387A7629C439DCFEFF04FD81305E4
:103F500044002320540104CC232E440123203403A5
:103F600023222403EFC0BF972285B25022549254DB
:103F70000259F249624AD24A424BB24B45618280B1
:103F80007370043001A097DB0100938B6B845E8516
:103F9000EFC0BF9317DB0100130BCB845A85EFC032
:103FA000DF920146B145114597C7010023A4775D13
:103FB00097C7010023AE675BEFC01FAD17C70100B5
:103FC0002326A75A01C997C501009385A53EEFD0C6
:103FD0004FEFA5BF7370043001A039C5011122CC89
:103FE00006CE26CA17C401001304445883280400CF
:103FF0002A88014563850802BA842EC2368732C4F6
:1040000042C6954663C5B602EFF06FB58947630BAC
:10401000F5020840814601464C00EFC01FB4F24053
:104020006244D244056182807370043001A04C0068
:1040300081463A864685EFC0DFE7F2406244D244CB
:10404000056182800840814626864C00EFC0FFB0A3
:10405000F9B719C1084182807370043001A001E5ED
:104060007370043001A0411106C622C42A84EFF007
:10407000CFC348483334A000EFF06FC52285B2406B
:1040800022444101828001E57370043001A0411196
:1040900022C42A8406C6EFF04FC10050EFF02FC3B0
:1040A000B240228522444101828001E573700430D0
:1040B00001A0411122C426C22E84AA8406C6EFF0B4
:1040C000CFBE80D02244B240924441016FF02FC055
:1040D0004111714522C406C61D262A8411C523201C
:1040E00005001105EFC06FFE2285B2402244410158
:1040F000828001CDB70700FFED8F81C77370043058
:1041000001A099E57370043001A07370043001A020
:10411000011122CC4AC84EC652C456C206CE26CA87
:10412000BA893689B28A2E842A8AEFF04FA311E524
:10413000638509007370043001A0EFE00F9A8324B7
:104140000A00B37794006316090295C763870A00D3
:104150009347F4FFE58F2320FA00EFE00FBDF24014
:10416000624426854249D244B249224A924A0561B4
:104170008280E30DF4FCE38209FEB3355001E205D1
:1041800063050900B7070004DD8D4E86C18D130558
:104190004A00EFE0FFE6EFE04FB919E1EFC00FA7EB
:1041A000EFF0CFB593176500AA8963D80700B7046D
:1041B0000001FD14B3F499005DB7EFF00FAF832950
:1041C0000A00B3773401631E090089CB63880A00B3
:1041D0009347F4FFB3F737012320FA00EFF02FAF36
:1041E000F9B7E31DF4FEDDB701C9B70700FFED8F96
:1041F00099C77370043001A07370043001A041119D
:1042000022C42A8406C626C24AC02E89EFF0EFA92E
:1042100004409345F9FFB3F795001CC0EFF02FABB6
:10422000B2402244268502499244410182804111D4
:1042300022C42A8406C6EFC04FA90040EFC08FA851
:10424000B240228522444101828009C9370700FF1C
:10425000B3F7E50099C77370043001A073700430A0
:1042600001A06F20A069B70700FFF18F81C77370AD
:10427000043001A001E67370043001A0011122CCCA
:104280004AC84EC652C406CE26CA3689AE892A8A84
:104290003284EFF0CF8C21E16305090073700430A4
:1042A00001A0EFE08F8383240A00CE855285B3E41A
:1042B0009900613FB37794006307F40683240A00F2
:1042C000EFE0AFA6F240624426854249D244B249AB
:1042D000224A05618280EFE04F8083240A00CE8568
:1042E0005285B3E434019537B3F78400638D8702B8
:1042F000E30609FCB70500054A86C18D13054A008F
:10430000EFE01FD0EFE06FA219E1EFC02F90EFF0C8
:10431000EF9E93176500AA8463DF0700B7070001CB
:10432000FD17FD8C45B783270A001344F4FFE18F86
:104330002320FA0071B7EFF04F9783240A00B37778
:104340009400639787009347F4FFE58F2320FA00DA
:10435000EFF0EF97E1B7411122C406C62A8426C2C6
:10436000EFD0BFF75C4085C308489304C4006316D0
:10437000950015A0084863009502B7050002EFE01C
:104380003FE55C40E5FB2285612A2244B24092442D
:1043900041016FE08F997370043001A009C937079C
:1043A00000FFB3F7E50099C77370043001A0737084
:1043B000043001A06F20805401C9B70700FFED8FC2
:1043C00099C77370043001A07370043001A04111CB
:1043D00022C426C206C62A84AE84EFF00F8D184090
:1043E00093C7F4FFF98F1CC02244B24092444101AC
:1043F0006FF0EF8D19C1084D828001458280411117
:1044000022C406C62A84EFD05FED97C701009387C8
:10441000A7169C43A1EBE56717C701001307073EEA
:10442000F11797C6010023AFE61417C7010023292F
:10443000F71417C701002325F73C97C7010093879E
:10444000E71317C70100232BF73A854717C7010069
:10445000232C071217C701002322071217C70100D8
:10446000232CF71019E8EFE04F8CEF10A002014465
:104470002285B24022444101828013058400937753
:104480003500C1EFE5671307F5FFE917E3EDE7FC3A
:1044900097C601009386060F9C4229A0984311C736
:1044A000BE86BA87D843E36BA7FE17C70100130780
:1044B000E70CE38AE7FA984341461384870098C2E1
:1044C000D843B306A7406378D6023388A7002322D7
:1044D000D800C8C38325480097C601009386860A82
:1044E00011A0BA8698425043E36DB6FE2320E8003F
:1044F00023A00601D84397C701009387A70A9C43CE
:10450000998F17C70100232FF708EFE00F8231DCE6
:104510002285B240224441018280719911059DB7E4
:1045200029C9411122C406C62A84EFD01FDB930596
:1045300084FF0326C4FF17C701001307A70411A0B7
:104540003E871C43D443E3EDC6FE232CF4FE0CC38C
:1045500097C701009387070598438327C4FF224428
:10456000B240BA9717C70100232EF70241016FD05E
:10457000DFFB828097C701009387C7028843828050
:1045800082803367B5000D8BAA871DE79308D6FF9D
:10459000AA982A87AE866371150303A8060011073F
:1045A0009106232E07FFE36A17FF9347F5FFC6978F
:1045B000F19B9107BE95AA972A9663F3C70A938643
:1045C000450013884700B3B6D70033B8050133E779
:1045D000F50093C61600134818000D8BB3E60601CC
:1045E00013371700758F330EF6409386170029CFC7
:1045F0001337AE0031EB13532E002E88BE860147D1
:10460000832808000507110823A016019106E36915
:1046100067FE1377CEFFBA95BA976302EE0483C69E
:104620000500138717002380D700637AC70283C66B
:10463000150013872700A380D7006372C70203C742
:1046400025002381E7008280B307F640AE978505F9
:1046500003C7F5FF8506238FE6FEE39AF5FE828009
:104660008280B367C5008D8BB308C500E9C3637151
:10467000150FB307A0408D8B13873700954693F530
:10468000F50F130815003383A8407D166373D70018
:1046900015476363E60CD5CF2300B5000547638D4E
:1046A000E700A300B5000D47130825006396E70057
:1046B000130835002301B500139685004D8E13971E
:1046C0000501518F3303F34093968501D98E13561C
:1046D0002300AA97014794C305079107E36DC7FE1E
:1046E0001377C3FFB307E8006307E3062380B7002F
:1046F00013871700637C1703A380B7001387270075
:10470000637617032381B70013873700637017039D
:10471000A381B70013874700637A17012382B7008C
:104720001387570063741701A382B700828093F543
:10473000F50F13978500D98D139705014D8FE377FA
:1047400015FFAA87910723AEE7FEE3ED17FF8280EE
:1047500082802A8895B78280AA8749BF834705004F
:104760002A8799C7050583470500EDFF198D8280CB
:104770000145828005058347F5FF850503C7F5FFE1
:1047800091C7E389E7FE3385E74082808147E5BF33
:10479000AA87850503C7F5FF8507A38FE7FE75FB8D
:1047A000828083460500930700026397F6000505A3
:1047B00083460500E38DF6FE938756FD93F7D70FEA
:1047C00085C7AA87814585CE01458507138606FDE5
:1047D0001317250083C607003A9506053295F5F6AE
:1047E00099C13305A0408280938536FD834615002C
:1047F00093B5150093071500E1FA0145D5B70145BA
:1048000082809C412380A7009C4185079CC18280B7
:1048100097C60100938686D79C421757030013075B
:1048200067FE13861700BA972380A70097C501007B
:1048300023AEC5D4A9476308F500930700046305B8
:10484000F6000145828075DE370610F005078347C4
:10485000F7FF2320F6F09C42FD1797C5010023A720
:10486000F5D2EDF7014582804D712322911423206A
:104870002115232A511323248113232611142324C1
:104880008114232E3113232C411323286113232653
:104890007113232291132320A113232EB111AA8473
:1048A0002E8932C6130C5002A54A83470900638043
:1048B0008703B9CB804011A0A1CB2300F400804036
:1048C0000509050480C083470900E39787FF034675
:1048D000190093081900C686130D0002FD597D5A70
:1048E0000148130550059307D6FD93F7F70F138979
:1048F00016006363F52A17B701001307A7708A072C
:10490000BA979C43BA9782878320C11403248114E9
:1049100083244114032901148329C113032A811319
:10492000832A4113032B0113832BC112032C811201
:10493000832C4112032D0112832DC11171618280DC
:10494000A14C02C4854763D50715B2478040938BBD
:10495000770093F68BFF03AB060083A9460093878D
:1049600086003EC6668681465A85CE85EF10901336
:104970002AC8814763853723930D4101854B66869D
:1049800081465A85CE85EF102034814666862A8B73
:10499000AE89EF103011A24723A0AD0093861B0013
:1049A000910D63843701B68BD9BFE37E9BFF63DD36
:1049B0004601A2872380A70180407D1A9307140037
:1049C0009CC03E84E3C846FF93962B001C08BE960D
:1049D00031A8938777052300F4008040FD1B93875F
:1049E0001B00050480C0F116E351F0EC9C42E3E2A9
:1049F000FAFE93870703C5B79C409306000332472E
:104A00002380D7009C4093064700C14C13861700B3
:104A100090C013068007A380C700804002C4BA87F5
:104A2000050480C003AB0700814936C625BFB247E5
:104A300083AC0700938B470063840C1C635F4019B1
:104A40009307D0026319FD1683C70C0085C363DC8E
:104A500009189440850C7D1A2380F60080400504D7
:104A600080C083C70C00E5F7635D40018040930779
:104A700000022300F40080407D1A050480C0E31A80
:104A80000AFE5EC61DB502C48547A94CE3CF07EBFD
:104A9000B24780409386470071B703C61600CA86A6
:104AA00099B59C40930650022380D70080400504AE
:104AB00080C0E5BBC14C02C471B5B24703C6160045
:104AC000CA8683A9070091073EC6E35E0AE04E8AC4
:104AD000FD5911BD03C61600130DD002CA8621B5BB
:104AE0009347FAFFFD8703C61600337AFA00CA8699
:104AF000DDBB03C61600130D0003CA86EDB383C5E4
:104B00001600930906FDCA86938705FD2E86E3EEFF
:104B1000FAFA93972900BE9985068609AE9983C54E
:104B20000600938909FD938705FD2E86E3F3FAFEBF
:104B300069BF32479C40144311073AC62380D7000F
:104B40008040050480C095B3854763D3070BB24707
:104B500093867700E19A938786003EC683A9460034
:104B60009C4263DC090A94401306D002B307F0406C
:104B70002380C6008040B336F000B30930410504FD
:104B800080C03E8BB389D940A94C02C4E1BB03C6A7
:104B900016000508CA8681BB9C40468921B7E37D83
:104BA0009BDD8547814B8546E3C547E131BD97CC09
:104BB0000100938C2C81CE856685EF003039330A55
:104BC000AA40635C400180402300A40180407D1A1C
:104BD000050480C0E31A0AFE014A83C70C00E38281
:104BE00007EAE3C809E6FD197D57E394E9E6ADBDA0
:104BF000B247938647009C4336C693D9F74195B791
:104C0000635640019307D002E313FDFA97BC0100FD
:104C1000938C4C7B930780021DBD3E8BA94C02C434
:104C2000804089B34D71232E3113B709004093871B
:104C3000F9FF2324811423229114232C4113232AC6
:104C40005113232611142320211523286113232611
:104C5000711323248113232291132320A113232EC4
:104C6000B1112A8A2EC417C4010013042492975A42
:104C70000300938A2AB997B401009384244E3EC658
:104C800093055002294513080004B70610F0834726
:104C90000A006386B704C1C71840050A1306170047
:104CA000569797C8010023A3C88E2300F70063829C
:104CB000A706E31E06FD175703001307A7B4050751
:104CC0008347F7FF23A0F6F01C40FD1717C601002D
:104CD000232EF68AEDF783470A00E39EB7FA834650
:104CE0001A0013051A002A87930B00027D5B7D5C76
:104CF000014893055005A5489387D6FD93F7F70F14
:104D0000130A170063E7F5348A07A6979C43A69712
:104D10008287175703001307E7AE55F28DBF832034
:104D2000C114032481148324411403290114832909
:104D3000C113032A8113832A4113032B0113832BED
:104D4000C112032C8112832C4112032D0112832DD9
:104D5000C11171618280A14C014D854763DB071948
:104D6000A2479D07E19B83AD070003AB4700138774
:104D700087003AC4668681466E85DA85EF108052D8
:104D80002AC863066D351309410185496686814647
:104D90006E85DA85EF00507366868146AA8D2E8B6C
:104DA000EF1040502320A90085091109E3106DFF81
:104DB000E3FE9DFD13060004B70610F063D18903DE
:104DC0001C4013871700D69797B5010023A0E57CF8
:104DD00023807701630CC7047D1CE3C389FFB247BE
:104DE0006800A548B386F9008A061C08BE962948C3
:104DF00013030004370610F0E384A6E89C429305F1
:104E0000000363F4F800930570051840AE9793050E
:104E10001700569717BE0100232ABE762300F7001D
:104E20006380072B638C6526F116F9B717570300CB
:104E30001307479D05078347F7FF23A0F6F01C40A3
:104E4000FD1797B5010023A3F574EDF77D1C71B72D
:104E50001C40130600041387170097B5010023A711
:104E6000E572B386FA00930500032380B600630F52
:104E7000C73C890797B6010023AAF6705697930698
:104E800080072300D700175703001307A797B7061B
:104E900010F0639EC70005078347F7FF23A0F6F0D5
:104EA0001C40FD1717B601002322F66EEDF7A2474E
:104EB000C14C014D91072247014B832D07003EC491
:104EC00055BDA24783AC070013894700638E0C3A97
:104ED000635480219307D002639EFB2E03C70C000E
:104EE000BA856310072025AC8547A94C014DE3C95D
:104EF00007E7A2479107C1B7A24783461700528729
:104F000003AB070091073EC4E3580CDE5A8C7D5B6F
:104F1000E5B383461700930BD0025287F1BB93474A
:104F2000FCFFFD8783461700337CFC005287E9B302
:104F300083461700930B000352877DBB034617007F
:104F4000138B06FD5287930706FDB286E3EEF8FA4F
:104F500093172B00DA9705078607B29703460700D9
:104F6000138B07FD930706FDB286E3F3F8FE69BFD6
:104F7000A2451C402946984193861700D69717B53D
:104F800001002325D5602380E700138945006300D5
:104F9000C72A930700046387F6204AC4D5B1854722
:104FA00063DE0729A24713877700619B9307870079
:104FB0003EC4032B47001C43635A0B3018401306B2
:104FC00000049306170097B5010023A1D55C5697FE
:104FD0009305D0022300B7006387C62CB307F040C7
:104FE0003337F000330B6041BE8D330BEB40A94CDF
:104FF000014D49B38346170005085287F5B983462A
:1050000017005287D5B91C40930600041387170078
:1050100017B60100232CE656D697130650022380BC
:10502000C700E31FD7C4174703001307A77DB706C0
:1050300010F005078347F7FF23A0F6F01C40FD178B
:1050400017B601002324F654EDF71DB9C14C014DEC
:1050500029B31C40930600042A8A1387170017B649
:1050600001002325E652D697130650022380C7007D
:10507000E318D7C0174703001307C778B70610F027
:1050800005078347F7FF23A0F6F01C40FD1717B66E
:105090000100232DF64EEDF72A8ADDB617470300EF
:1050A0001307477605078347F7FF2320F6F01C40D8
:1050B000FD1797B5010023ABF54CEDF7F1162DBBAD
:1050C0001747030013070774F1FDF11635B3E3FC2E
:1050D0009DCB8549C5B1014C03C70C00BA85E30ED1
:1050E00007EAFD58294513080004B70610F0635776
:1050F0000B0A1C4013861700D69717B3010023270D
:10510000C3482380E7006384A50663040609850C71
:1051100003C70C007D1CBA8579FBE35080E91C4075
:105120009305000213060004B70610F021A07D1CB1
:10513000E3050CE613871700D6972380B70017B551
:1051400001002325E544BA87E313C7FE1747030090
:105150001307476B05078347F7FF23A0F6F01C40B2
:10516000FD1717B501002323F542EDF7C9B717471F
:1051700003001307276941DE05078347F7FF23A0D4
:10518000F6F01C40FD1717B601002321F640EDF79D
:10519000BDBF174703001307E766F9BF7D1BE31A7E
:1051A0001BF5A5BF174703001307C765B70610F027
:1051B00005078347F7FF23A0F6F01C40FD1717B63D
:1051C00001002325F63CEDF74AC45DBC97BC010005
:1051D000938C4C1FDA856685952B330CAC40E35DD0
:1051E00080EF1C4013060004B70610F021A07D1CC0
:1051F000E3030CEE13871700D6972380770197B54A
:10520000010023A5E538BA87E313C7FE174703005B
:105210001307475F05078347F7FF23A0F6F01C40FD
:10522000FD1797B5010023A3F536EDF7C9B717476A
:1052300003001307275DBDFA4AC499B4A247138738
:1052400047009C433AC413DBF741BDB31747030043
:105250001307475BB70610F005078347F7FF23A046
:10526000F6F01C40FD1717B601002321F632EDF7CA
:10527000854717B70100232BF7309307800717479F
:1052800003002301F75825B1635680019307D0022C
:10529000E39EFBF297BC0100938CCC1213078002B3
:1052A000930580023DBD974603009386A6553706B9
:1052B00010F0850603C7F6FF2320E6F018407D179F
:1052C00097B5010023A4E52C6DF709BBBE8DA94C51
:1052D000014D4DB4B70710F023A0A7F201A039711A
:1052E000130341022ED29A8506CE32D436D63AD84E
:1052F0003EDA42DC46DE1AC63532F2400145216113
:1053000082805D711303810322D42AC632DC2A8491
:105310001A86680006D6BEC236DEBAC0C2C4C6C689
:105320001ACEEFF06FD4B247238007003245B25057
:10533000018D225461618280B70710F083A647F483
:1053400003A607F403A747F4E31AD7FE85669386FE
:1053500006FAB29633B6C600B305E60023A4D7F426
:1053600023A6B7F48280B70710F003A747F403A67B
:1053700007F483A647F4E31AD7FE8566938606FAF8
:10538000B29633B6C60023A4D7F4B305E60023A62D
:10539000B7F49307000873A047308280411122C4FC
:1053A00006C697B701009387E71E17B401001304E0
:1053B000241E98431C401306F07C930647069387EF
:1053C000470697B5010023A7D51C97B5010023A177
:1053D000F51C6346D600B240224441018280130787
:1053E000478997B7010023A7E71A812E85476310E5
:1053F000F502184085679387F7760145E3DDE7FC02
:10540000EFF05FED2244B24041016FC01FEC17B5D1
:1054100001001305A5FBEFF09FEC0945EFF09FEBB2
:105420002244B24041016FC05FEA17B50100130585
:1054300065FB6FF0DFEA17B50100130525FB6FF080
:105440001FEA411122C426C206C6856417B40100B2
:10545000130444FA938784380100FD17F5FF228571
:10546000EFF0FFE7C5BF41AA411106C6F924054781
:1054700081476316E500B2403E854101828017B541
:1054800001001305A5F4EFF09FE5B24089473E8582
:10549000410182807370043001A0828073700430F7
:1054A00001A0011126CA06CE22CC4AC84EC6835797
:1054B00045031307901DAA84638BE70A6368F70806
:1054C000D1CF1307801D639CE706139425009749ED
:1054D000030093892937338989000325090101468F
:1054E000CA85EFC08F89ED57630CF50E85476306BB
:1054F000F50017B701002325F70AB3878900885301
:105500000146CA85EFB0DFFBF1576304F508ED579C
:10551000630DF50A85476306F50017B701002321DF
:10552000F708B3878900884B7D56CA85EFC0EF84A2
:10553000F157E31AF5FA9307801D239AF402F2401B
:105540006244D2444249B249056182801307E01E99
:10555000638CE7041307F01EE393E7FE974903000B
:105560009389492E13942500338989005DBF1394D4
:105570002500974903009389E92CB3878900885354
:10558000338989000146CA85EFB09FF3F157E310D4
:10559000F5F89307E01E239AF402F2406244D244E5
:1055A0004249B2490561828013942500974903005E
:1055B0009389492933898900032509020146CA854F
:1055C000EFB01FF0ED57E317F5F49307F01E239AA1
:1055D000F402F2406244D2444249B24905618280F9
:1055E0009307901D239AF402F2406244D244424948
:1055F000B24905618280797122D426D24AD04ECE3A
:1056000006D602C6974403009384C42517490300B5
:10561000130949240144970900009389C9E8014608
:1056200091450545EFB04FC688C0014691450545F7
:10563000EFB08FC52320A900884081466C00014649
:10564000EFB0AFD1228685454E85EFA05FEC050413
:10565000914791041109E314F4FCB250225492547E
:105660000259F2494561828097B70100938707F399
:105670009C431307301F8507637CF70A79714AD072
:10568000174903001309091E22D426D24ECE52CC4C
:1056900006D697B7010023A307F04A849749030071
:1056A0009389491D17BA0100130A0AEF854408407F
:1056B00070002C0002C6EFB0DFFA630F950497B7B5
:1056C000010023AF97EC1104E31334FF83270A0092
:1056D000174403001304041897B901009389C9EB18
:1056E000850717B701002329F7EA854408400146DA
:1056F000CE85EFB0BFF011046306950097B70100A7
:1057000023A097EAE31489FEB2502254925402591E
:10571000F249624A45618280224783270A00630674
:10572000F70097B7010023AD97E6B247C9FB61BF09
:1057300017B701002324F7E6828097B7010093870B
:1057400027E688431335150082800000B305B500B5
:10575000930705006386B70003C7070063160700B9
:105760003385A74067800000938717006FF09FFE86
:10577000130101FB23229104232C410323229103D3
:10578000232611042324810423202105232E310301
:10579000232A510323286103232671032324810331
:1057A0002320A103232EB101930C0500138A0500C9
:1057B0009304000063DE05003305A0403337A000EA
:1057C000B305B040930C0500338AE5409304F0FF25
:1057D00063DA06003306C040B337C000B306D040DA
:1057E000B386F640930A06009389060013840C00E2
:1057F00013090A006396062817BB0100130B8BAB35
:105800006370CA16B70701006372F6149307F00FAE
:1058100063F4C70093098000B3573601330BFB00D4
:1058200083470B0013050002B3873701B309F54026
:10583000638C0900B3153A01B3D7FC00B31A3601E3
:1058400033E9B70033943C0113DB0A0193050B00E5
:1058500013050900EF00507C130A050093050B00A7
:10586000939B0A0113050900EF00907693DB0B016F
:105870009305050013850B00EF00D072131A0A017F
:1058800093570401B367FA0063FAA700B38757017F
:1058900063E6570163F4A700B38757013389A74034
:1058A00093050B0013050900EF001077130A05009C
:1058B00093050B0013050900EF0090711314040108
:1058C00093050500131A0A0113850B0013540401F4
:1058D000EF00506D33648A00637AA40033045401EE
:1058E000636654016374A400330454013304A44078
:1058F0003354340193050000638A0400330480406C
:10590000B3378000B305B040B385F54013050400FC
:105910008320C10403248104832441040329010456
:105920008329C103032A8103832A4103032B010333
:10593000832BC102032C8102832C4102032D01021F
:10594000832DC1011301010567800000B707000125
:1059500093090001E362F6EC930980016FF0DFEB3D
:10596000631A06009305000013051000EF0050664F
:10597000930A0500B707010063FAFA0E9307F00FC8
:1059800063F4570193098000B3D73A01330BFB004E
:1059900083470B001305000233095A41B3873701CF
:1059A000B309F540E38209EAB39A3A01335BFA009E
:1059B000B3153A01B3D7FC0093DB0A0133E9B70012
:1059C00013050B0093850B00EF001065130A05000B
:1059D00093850B00139C0A0113050B00EF00505F29
:1059E000135C0C019305050013050C00EF00905BA0
:1059F000131A0A0193570901B367FA0033943C0163
:105A000063FAA700B387570163E6570163F4A70061
:105A1000B3875701338BA74093850B0013050B0009
:105A2000EF00905F130A050093850B0013050B0030
:105A3000EF00105A9305050013050C00EF00905677
:105A400093160901131A0A0193D60601B366DA0008
:105A500063FAA600B386560163E6560163F4A60016
:105A6000B38656013389A6406FF01FDEB7070001E9
:105A700093090001E3EAFAF0930980016FF0DFF087
:105A80006376DA0093050A006FF01FE7B70701009D
:105A900063FAF604930BF00F33B5DB0013153500F2
:105AA00033D7A60097B701009387C780B387E70075
:105AB00083CB070093050002B38BAB00338B75419A
:105AC000631C0B0263E4460163EACC003384CC40E0
:105AD000B306DA4033B98C003389264193050900B7
:105AE0006FF09FE1B707000113050001E3EAF6FA42
:105AF000130580016FF0DFFAB3966601335D76011E
:105B0000336DDD00B35D7A01B3156A0133DC7C01CE
:105B100013540D01336CBC0013850D009305040074
:105B2000B3196601EF00504F930A05009305040076
:105B300013850D0033996C01931C0D01EF00504942
:105B400093DC0C01130A05009305050013850C0076
:105B5000EF005045939A0A0113570C0133E7EA000E
:105B6000930D0A00637EA7003307A701930DFAFF88
:105B70006368A7016376A700930DEAFF3307A701C7
:105B8000330AA7409305040013050A00EF00D0482C
:105B900093050400930A050013050A00EF00504323
:105BA000930505001304050013850C00EF00903FDA
:105BB00093150C01939A0A0193D50501B3E5BA0038
:105BC0001307040063FEA500B385A5011307F4FFC6
:105BD00063E8A50163F6A5001307E4FFB385A501FB
:105BE000939D0D01B70C0100B3EDED001384FCFF94
:105BF000B3F78D0033F48900338AA540138507007D
:105C0000930504002326F10093DD0D01EF00903988
:105C100093050400930A050013850D00EF009038EA
:105C200013DC090193050C002324A10013850D004A
:105C3000EF0050378327C10013040C0093050400C4
:105C4000130C050013850700EF00D0358326810073
:105C500013D70A013305D5003307A7006374D700B3
:105C6000330C9C01B70701009387F7FF9355070199
:105C70003377F70013170701B3F7FA00B3858501EF
:105C8000B307F7006366BA00631EBA00637CF900CD
:105C900033863741B3B7C700B385A541B385F54017
:105CA00093070600B307F9403339F900B305BA404A
:105CB000B385254133947501B3D767013364F4008C
:105CC000B3D565016FF05FC3130101FD232291027B
:105CD000232A510123261102232481022320210398
:105CE000232E3101232C4101232861012326710138
:105CF00023248101232291012320A101930A05007D
:105D000093840500639E063813040600930905007A
:105D100017A901001309095A63F8C512B707010052
:105D2000138B05006378F6101307F00F3337C700A5
:105D300013173700B357E6003309F900834609000B
:105D40003387E60093060002B386E640638C0600C4
:105D5000B394D40033D7EA003314D600336B9700E2
:105D6000B399DA00935A040193850A0013050B00D6
:105D7000EF00902A1309050093850A00931B040184
:105D800013050B00EF00D02493DB0B0193040500F7
:105D90009305050013850B00EF00D02013190901AE
:105DA00093D70901B367F900138A040063FEA700C3
:105DB000B3878700138AF4FF63E8870063F6A700C0
:105DC000138AE4FFB3878700B384A74093850A0052
:105DD00013850400EF0050241309050093850A0081
:105DE00013850400EF00D01E939909019304050068
:105DF000930505001319090113850B0093D90901B7
:105E0000EF00501AB36939011386040063FCA9003E
:105E1000B30934011386F4FF63E6890063F4A90033
:105E20001386E4FF13140A013364C400130A00004C
:105E30006F000013B707000113070001E36CF6EED3
:105E4000130780016FF01FEF138A0600631A060024
:105E50009305000013051000EF00901713040500D0
:105E6000B7070100637EF4129307F00F63F4870015
:105E7000130A8000B35744013309F90003470900AE
:105E80009306000233074701B386E6406394061287
:105E9000B3848440130A1000135B040193050B00C4
:105EA00013850400EF0050171309050093050B003C
:105EB00013850400931B0401EF00901193DB0B0189
:105EC000930405009305050013850B00EF00900D6A
:105ED0001319090193D70901B367F900938A0400E4
:105EE00063FEA700B3878700938AF4FF63E8870007
:105EF00063F6A700938AE4FFB3878700B384A740C3
:105F000093050B0013850400EF0010111309050021
:105F100093050B0013850400EF00900B9399090182
:105F200093040500930505001319090113850B005F
:105F300093D90901EF001007B369390113860400F2
:105F400063FCA900B30934011386F4FF63E68900FA
:105F500063F4A9001386E4FF13940A013364C400B8
:105F60001305040093050A008320C1020324810263
:105F700083244102032901028329C101032A8101EB
:105F8000832A4101032B0101832BC100032C8100D3
:105F9000832C4100032D01001301010367800000E1
:105FA000B7070001130A0001E366F4EC130A80014D
:105FB0006FF05FEC3314D40033DAE400B399DA0005
:105FC00033D7EA00935A0401B394D40093850A00AE
:105FD00013050A00336B9700EF0010041309050046
:105FE00093850A0013050A00931B0401EF00407E0D
:105FF00093DB0B01930405009305050013850B004B
:10600000EF00407A1319090113570B013367E900B8
:10601000138A0400637EA70033078700138AF4FF06
:10602000636887006376A700138AE4FF330787005D
:10603000B304A74093850A0013850400EF00C07DD8
:106040001309050093850A0013850400EF004078CA
:10605000930405009305050013850B00EF00807481
:1060600013170B011357070113190901B367E9004F
:106070001387040063FEA700B38787001387F4FF2C
:1060800063E8870063F6A7001387E4FFB387870000
:10609000131A0A01B384A740336AEA006FF0DFDF06
:1060A00063ECD51EB707010063F4F6041307F00F85
:1060B000B335D7009395350033D7B60097A70100C5
:1060C0009387471FB387E70003C70700130A00023F
:1060D0003307B700330AEA4063160A0213041000BC
:1060E000E3E096E833B6CA00134416006FF05FE7AA
:1060F000B707000193050001E3E0F6FC930580017A
:106100006FF09FFBB35CE600B3964601B3ECDC0096
:1061100033D4E40093DB0C01B397440133D7EA0096
:1061200093850B0013050400336BF700B319460188
:10613000EF00806E1309050093850B001305040022
:10614000139C0C01EF00C068135C0C019304050064
:106150009305050013050C00EF00C0641319090135
:1061600013570B013367E90013840400637EA70013
:10617000330797011384F4FF636897016376A700E0
:106180001384E4FF33079701B304A74093850B0002
:1061900013850400EF0040681309050093850B0088
:1061A00013850400EF00C062930405009305050009
:1061B00013050C00EF00005F93170B011319090181
:1061C00093D70701B367F9001386040063FEA700A5
:1061D000B38797011386F4FF63E8970163F6A7007E
:1061E0001386E4FFB387970113140401B70B010072
:1061F0003364C4001389FBFF337D240133F9290183
:10620000B384A7409305090013050D00EF008059E2
:10621000935C040193050900130B050013850C0022
:10622000EF00405893D90901130C0500938509002C
:1062300013850C00EF000057130905009385090032
:1062400013050D00EF0000563305850193570B0130
:106250003385A700637485013309790193570501DC
:10626000B387270163E6F402E392F4BCB7070100A9
:106270009387F7FF3375F50013150501337BFB009A
:1062800033964A0133056501130A0000E37AA6CC70
:106290001304F4FF6FF09FB9130A00001304000009
:1062A0006FF01FCC130101FB2324810423229104EE
:1062B000232E3103232291032326110423202105B9
:1062C000232C4103232A510323286103232671032E
:1062D000232481032320A103232EB101930C050065
:1062E000938905001304050093840500639E062628
:1062F00013090600138A060097AA0100938A8AFBF5
:1063000063F4C514B70701006376F6129307F00F24
:1063100063F4C700130A8000B3574601B38AFA003A
:1063200003C70A001305000233074701330AE5409B
:10633000630C0A00B395490133D7EC0033194601C9
:10634000B364B70033944C01935A090193850A0052
:1063500013850400EF00404C9309050093850A0063
:10636000131B090113850400EF008046135B0B012A
:106370009305050013050B00EF00C0429399090136
:1063800093570401B3E7F90063FAA700B387270125
:1063900063E6270163F4A700B3872701B384A7400E
:1063A00093850A0013850400EF0000479309050058
:1063B00093850A0013850400EF0080411314040143
:1063C000930505009399090113050B00135404016B
:1063D000EF00403D33E48900637AA40033042401D4
:1063E000636624016374A400330424013304A440CD
:1063F00033554401930500008320C1040324810424
:1064000083244104032901048329C103032A81034E
:10641000832A4103032B0103832BC102032C810236
:10642000832C4102032D0102832DC10113010105BB
:1064300067800000B7070001130A0001E36EF6EC65
:10644000130A80016FF05FED631A060093050000E8
:1064500013051000EF00C03713090500B70701004E
:10646000637AF90E9307F00F63F42701130A800093
:10647000B3574901B38AFA0003C70A0013050002A3
:10648000B384294133074701330AE540E30E0AEAA2
:1064900033194901B3DAE900B395490133D7EC0068
:1064A00093540901336BB70013850A0093850400E8
:1064B000EF0080369309050093850400931B0901C2
:1064C00013850A00EF00C03093DB0B019305050034
:1064D00013850B00EF00002D9399090193570B01D1
:1064E000B3E7F90033944C0163FAA700B38727019F
:1064F00063E6270163F4A700B3872701B38AA740A7
:106500009385040013850A00EF000031930905000C
:106510009385040013850A00EF00802B9305050086
:1065200013850B00EF00002893150B0193990901C7
:1065300093D50501B3E5B90063FAA500B38525013C
:1065400063E6250163F4A500B3852501B384A54066
:106550006FF09FDFB7070001130A0001E36AF9F04B
:10656000130A80016FF0DFF0E3E8D5E8B707010018
:1065700063FCF604930BF00F33B5DB001315350005
:1065800033D7A60097A701009387C7D2B387E70048
:1065900083CB070093050002B38BAB00338B7541AF
:1065A000631E0B0263E4360163EACC003384CC4003
:1065B000B386D94033B58C00B384A64013050400DC
:1065C000938504006FF05FE3B70700011305000136
:1065D000E3E8F6FA130580016FF09FFAB3966601BF
:1065E000335D7601336DDD0033D47901B3956901F4
:1065F00033DC7C0193540D01336CBC0013050400A3
:1066000093850400B31A6601EF000021130A050008
:10661000938504001305040033996C01931C0D014C
:10662000EF00001B93DC0C0113040500930505002B
:1066300013850C00EF000017131A0A0113570C0101
:106640003367EA00130A0400637EA7003307A7013B
:10665000130AF4FF6368A7016376A700130AE4FF37
:106660003307A701B309A7409385040013850900E8
:10667000EF00801A938504001304050013850900B8
:10668000EF000015930505009304050013850C0029
:10669000EF00401193150C011314040193D505016B
:1066A000B365B4001387040063FEA500B385A5019C
:1066B0001387F4FF63E8A50163F6A5001387E4FFE1
:1066C000B385A501131A0A01B70C0100336AEA0069
:1066D0001384FCFFB3778A0033F48A00B384A540A7
:1066E00013850700930504002326F100135A0A01BD
:1066F000EF00400B930905009305040013050A0001
:10670000EF00400A13DC0A01930D050093050C000D
:1067100013050A00EF0000098327C100130A0500D2
:1067200093050C0013850700EF00C0073305B50182
:1067300013D709013307A7006374B701330A9A011D
:10674000B70701009387F7FF935507013377F700E9
:1067500013170701B3F7F900B3854501B307F70035
:1067600063E6B400639EB400637CF900338657414E
:10677000B3B7C700B385A541B385F54093070600BD
:10678000B307F9403339F900B385B440B3852541E7
:1067900033947501B3D767013365F400B3D5650150
:1067A0006FF09FC5130605001305000093F6150052
:1067B000638406003305C50093D515001316160033
:1067C000E39605FE678000006340050663C6050684
:1067D00013860500930505001305F0FF630C060200
:1067E00093061000637AB6006358C00013161600B3
:1067F00093961600E36AB6FE1305000063E6C50033
:10680000B385C5403365D50093D6160013561600E0
:10681000E39606FE6780000093820000EFF05FFBC6
:1068200013850500678002003305A04063D805008A
:10683000B305B0406FF0DFF9B305B04093820000BC
:10684000EFF01FF93305A04067800200938200003B
:1068500063CA0500634C0500EFF09FF71385050040
:1068600067800200B305B040E35805FE3305A04041
:10687000EFF01FF63305B0406780020097A70100D4
:10688000938747CE944317A70100130767CC18439B
:10689000C8C2637BE50017A70100130727CC084394
:1068A0008C4391056FA08F85411122C406C617A79E
:1068B00001001307E7CA2A8408438C439105EFA01F
:1068C000EF8397A701009387E7C69C436376F400A4
:1068D00097A7010023A087C6B240224441018280CD
:1068E00097A70100938707C8984394437C43FD17FB
:1068F0007CC3FC4299E3736004308280011122CC96
:1069000026CA2A84AE844AC84EC652C456C206CE8F
:10691000EFB0BF9C1C4003290401B7090001B3E597
:106920009700930AC4000CC08144FD19370A000285
:106930001840638C2A03032609004A85B365470182
:10694000B376360193175600758F0329490063C447
:10695000070001E7F1BFE39DE6FC9317760063D3E0
:106960000700D58CEFC0DF86E1B793C4F4FFF98C44
:1069700004C0EFB09FBB0840F2406244D244424999
:10698000B249224A924A05618280411106C622C458
:10699000EFE07FC617F7FFFF130787A08146054684
:1069A0009305400617A50100130545A5EFD04FD666
:1069B00019C92A84EFB07F932A860147814685450D
:1069C0002285EFD08FE1EFB0CFEBB24022440145FA
:0469D000410182807F
:02000004800278
:100000009A4AFEFF984BFEFFA24AFEFF984BFEFF66
:10001000984BFEFF984BFEFF984BFEFFBA4AFEFF3F
:10002000984BFEFF984BFEFFD44AFEFFE04AFEFFCE
:10003000984BFEFFF24AFEFFFE4AFEFFFE4AFEFF1D
:10004000FE4AFEFFFE4AFEFFFE4AFEFFFE4AFEFF9C
:10005000FE4AFEFFFE4AFEFFFE4AFEFF984BFEFFF1
:10006000984BFEFF984BFEFF984BFEFF984BFEFF10
:10007000984BFEFF984BFEFF984BFEFF984BFEFF00
:10008000984BFEFF984BFEFF984BFEFF984BFEFFF0
:10009000984BFEFF984BFEFF984BFEFF984BFEFFE0
:1000A000984BFEFF984BFEFF984BFEFF984BFEFFD0
:1000B000984BFEFF984BFEFF984BFEFF984BFEFFC0
:1000C000984BFEFF984BFEFF984BFEFF984BFEFFB0
:1000D000984BFEFF984BFEFF984BFEFF984BFEFFA0
:1000E000984BFEFF984BFEFF984BFEFF984BFEFF90
:1000F000984BFEFF984BFEFF984BFEFF984BFEFF80
:10010000324BFEFF484BFEFF984BFEFF984BFEFF25
:10011000984BFEFF984BFEFF984BFEFF984BFEFF5F
:10012000984BFEFF8E4BFEFF984BFEFF984BFEFF59
:100130004049FEFFF849FEFF984BFEFF984BFEFF3B
:100140002E4AFEFF984BFEFF864AFEFF984BFEFFAD
:10015000984BFEFFB44AFEFFA64EFEFFFA4EFEFF8E
:10016000AE4EFEFFFA4EFEFFFA4EFEFFFA4EFEFFC7
:10017000FA4EFEFFA04DFEFFFA4EFEFFFA4EFEFFC6
:10018000BA4DFEFFC64DFEFFFA4EFEFFD84DFEFFF4
:10019000E44DFEFFE44DFEFFE44DFEFFE44DFEFFA7
:1001A000E44DFEFFE44DFEFFE44DFEFFE44DFEFF97
:1001B000E44DFEFFFA4EFEFFFA4EFEFFFA4EFEFF42
:1001C000FA4EFEFFFA4EFEFFFA4EFEFFFA4EFEFF1B
:1001D000FA4EFEFFFA4EFEFFFA4EFEFFFA4EFEFF0B
:1001E000FA4EFEFFFA4EFEFFFA4EFEFFFA4EFEFFFB
:1001F000FA4EFEFFFA4EFEFFFA4EFEFFFA4EFEFFEB
:10020000FA4EFEFFFA4EFEFFFA4EFEFFFA4EFEFFDA
:10021000FA4EFEFFFA4EFEFFFA4EFEFFFA4EFEFFCA
:10022000FA4EFEFFFA4EFEFFFA4EFEFFFA4EFEFFBA
:10023000FA4EFEFFFA4EFEFFFA4EFEFFFA4EFEFFAA
:10024000FA4EFEFFFA4EFEFFFA4EFEFFFA4EFEFF9A
:10025000FA4EFEFFFA4EFEFF184EFEFF464EFEFF20
:10026000FA4EFEFFFA4EFEFFFA4EFEFFFA4EFEFF7A
:10027000FA4EFEFFFA4EFEFFFA4EFEFF9C4EFEFFC8
:10028000FA4EFEFFFA4EFEFFFE4BFEFFF84CFEFF5D
:10029000FA4EFEFFFA4EFEFF6A4DFEFFFA4EFEFFDB
:1002A000904DFEFFFA4EFEFFFA4EFEFFF44EFEFFAB
:1002B000000102020303030304040404040404040D
:1002C00005050505050505050505050505050505DE
:1002D00006060606060606060606060606060606BE
:1002E00006060606060606060606060606060606AE
:1002F000070707070707070707070707070707078E
:10030000070707070707070707070707070707077D
:10031000070707070707070707070707070707076D
:10032000070707070707070707070707070707075D
:10033000080808080808080808080808080808083D
:10034000080808080808080808080808080808082D
:10035000080808080808080808080808080808081D
:10036000080808080808080808080808080808080D
:1003700008080808080808080808080808080808FD
:1003800008080808080808080808080808080808ED
:1003900008080808080808080808080808080808DD
:1003A00008080808080808080808080808080808CD
:1003B000546D725100000000546D7220537663003A
:1003C000286E756C6C2900004572726F7220696E20
:1003D00020787878207461736B73200D0A00000018
:1003E0006D69616F750A00006D69616F75320A0091
:1003F00068756E6772790A00436865636B54696D4E
:040400006572000021
:100404001000000000000000017A5200017C01018C
:100414001B0D020050000000180000005053FEFFA6
:100424005805000000440E507489039406990B810A
:1004340001880292049305950796089709980A9AE9
:100444000C9B0D036C010AC144C844C944D244D373
:1004540044D444D544D644D744D844D944DA44DBBC
:10046400440E00440B0000004C0000006C0000002F
:100474005458FEFFDC05000000440E3070890395DB
:1004840007810188029204930594069608970998B7
:100494000A990B9A0C0370020AC144C844C944D295
:1004A40044D344D444D544D644D744D844D944DA74
:1004B400440E00440B00000050000000BC0000008B
:1004C400E05DFEFF0005000000440E5074880289C0
:1004D400039305990B810192049406950796089756
:1004E40009980A9A0C9B0D0320010AC144C844C907
:1004F40044D244D344D444D544D644D744D844D92C
:0C05040044DA44DB440E00440B0000000D
:0805A000FC8F010009000000BE
:040000058000004037
:00000001FF
