:0200000480007A
:10000000B72F0000938F0F8073900F3015A8130047
:100010000000130000001300000013000000130094
:100020000000130000001300000013000000130084
:100030000000130000001300000013000000010086
:10004000970200009382020C73905230814001416C
:100050008141014281420143814301448144014580
:100060008145014681460147814701488148014950
:100070008149014A814A014B814B014C814C014D20
:10008000814D014E814E014F814F971102009381A6
:1000900021B4170502001305E536979503009385F3
:1000A000E571014611221705020013056531970518
:1000B00002009385A5310146C52817A50300130545
:1000C000257097B503009385656F37B6ABAB130604
:1000D000B6BAD92817B103001301816EEF40906BB7
:1000E000860293D21200F512638802008242110147
:1000F0006F00001073002030824211017300203025
:10010000711116C0F3222034E3CC02FC82421101AB
:10011000130141F806C20AC40EC612C816CA1ACC88
:100120001ECE22D026D22AD42ED632D836DA3ADCC7
:100130003EDEC2C0C6C2CAC4CEC6D2C8D6CADACC97
:10014000DECEE2D0E6D2EAD4EED6F2D8F6DAFADCA7
:10015000FEDE73252034F32510340A8601A07310C7
:10016000153492402241B2414242D2426243F243AC
:10017000025492542255B2554256D2566257F25703
:10018000064896482649B649464AD64A664BF64B33
:10019000065C965C265DB65D465ED65E665FF65F83
:1001A0001301C1077300203010C16374B50011053D
:1001B000E5BF828000000000000000000000000099
:1001C000000000000000000000000000000000002F
:1001D000000000000000000000000000000000001F
:1001E000000000000000000000000000000000000F
:1001F000197106C00AC20EC412C616C81ACA1ECC8D
:1002000022CE26D02AD22ED432D636D83ADA3EDCC6
:1002100042DEC6C0CAC2CEC4D2C6D6C8DACADECC96
:10022000E2CEE6D0EAD2EED4F2D6F6D8FADAFEDCA6
:100230009702020083A2021923A02200F3221034A5
:1002400096DEEF006030170102000321A117024182
:10025000F65273901234B72200009382028873A082
:10026000023082403242C2425243E24372448254DC
:100270001255A2553256C2565257E2577258864806
:100280001649A649364AC64A564BE64B764C865C1A
:10029000165DA65D365EC65E565FE65F0961730059
:1002A0002030970202009382E21523A0120023A2BD
:1002B000220023A4320023A6420023A8520023AA2E
:1002C000620023AC720023AE820023A0920223A21C
:1002D000A20223A4B20223A6C20223A8D20223AA06
:1002E000E20223ACF20223AE020323A0120523A2F2
:1002F000220523A4320523A6420523A8520523AADA
:10030000620523AC720523AE820523A0920723A2C7
:10031000A20723A4B20723A6C20723A8D20723AAB1
:10032000E20723ACF207EF40D03B170102000321A4
:1003300061090241F65273901234B7220000938291
:10034000028873A0023082403242C2425243E243EA
:10035000724482541255A2553256C2565257E25731
:10036000725886481649A649364AC64A564BE64B45
:10037000764C865C165DA65D365EC65E565FE65FB1
:10038000096173002030970202009382A20783A0C4
:10039000020003A1420083A1820003A2C20083A243
:1003A000020103A3420183A3820103A4C20183A427
:1003B000020203A5420283A5820203A6C20283A60B
:1003C000020303A7420383A7820303A8C20383A8EF
:1003D000020403A9420483A9820403AAC20483AAD3
:1003E000020503AB420583AB820503ACC20583ACB7
:1003F000020603AD420683AD820603AEC20683AE9B
:10040000020703AFC20983AF820782807370043092
:10041000197106C00AC20EC412C616C81ACA1ECC6A
:1004200022CE26D02AD22ED432D636D83ADA3EDCA4
:1004300042DEC6C0CAC2CEC4D2C6D6C8DACADECC74
:10044000E2CEE6D0EAD2EED4F2D6F6D8FADAFEDC84
:100450009702020083A202F723A0220086DEEF208B
:10046000E02E170102000321E1F50241F6527390DC
:100470001234B72200009382028873A002308240B7
:100480003242C2425243E243724482541255A25550
:100490003256C2565257E257725886481649A649F4
:1004A000364AC64A564BE64B764C865C165DA65DD0
:1004B000365EC65E565FE65F0961730020309707BF
:1004C00002009387E7F09843FD576305F7007370C8
:1004D000043001A07370043001A041112AC6B24754
:1004E000739047300100410182804111F327403071
:1004F0003EC673F04330B2473E85410182804111D0
:100500002AC62EC432C2B247F1173EC62247B247AE
:1005100098C3B247938787FA3EC61247B24798C33B
:10052000B247A1173EC68E873E87B24798C3B247EF
:10053000D1173EC6170700001307A7F8B24798C3A4
:10054000B2473E8541018280411106C6EF40F0115D
:10055000EF200003AA8799C3EF20401F0100B2409B
:1005600041018280797106D62AC62EC432C2130593
:100570008003EF30906C2ACCE247D5C79707020082
:10058000938707E49C4381EB97070200938747E337
:10059000624798C3D12E2247854763F4E700854719
:1005A0003EC4E247239A0702E2472247D8D7E247F0
:1005B000124798DBE247324798C3E24791073E85EE
:1005C0004521E247E1073E856129E247624798CB32
:1005D000E2476247D8D30947A2471D8FE24798CF29
:1005E000E247D85797070200938747F09C4363F987
:1005F000E700E247D85797070200938727EF98C391
:10060000E247D857BA878A07BA978A0717070200BE
:10061000130707E73E97E2479107BE853A85892988
:1006200085473ECE19A0FD573ECEF2473E85B250DB
:1006300045618280797106D62AC62EC497070200CA
:10064000938707EB9C433247BA973ECE9707020049
:10065000938707D79C4391073E85C12197070200E6
:10066000938707D69C437247D8C3970702009387A6
:1006700027E89C4372476371F7029707020093874C
:1006800067E5984397070200938787D39C439107B8
:10069000BE853A85312939A897070200938747E339
:1006A0009843970702009387A7D19C439107BE8583
:1006B0003A85FD2EA24791CB97070200938747D03A
:1006C0009C43E107BE852245E5260100B250456105
:1006D0008280011106CEA5A0737004309707020036
:1006E000938787DFDC47DC473EC6B247E1073E859C
:1006F0002D2173600430B24791073E853929B247F6
:10070000D85797070200938767DE9C4363F9E70099
:10071000B247D85797070200938747DD98C3B2477F
:10072000D857BA878A07BA978A07170702001307AC
:1007300027D53E97B2479107BE853A85152E970774
:100740000200938767D99C43C1FB0100F240056119
:100750008280011106CEEF10704D2A8797070200A4
:10076000938747D99C431D8F970702009387C7D86B
:1007700098C3F5A897070200938787D79C431387F0
:100780001700970702009387A7D698C39707020020
:10079000938787D69C431387F7FF970702009387B9
:1007A000A7D598C397070200938787D49C43CDEBC6
:1007B000970702009387C7D19C433EC69707020064
:1007C000938747D1984397070200938767D098C3D0
:1007D00097070200938707D0324798C351A0970725
:1007E00002009387E7CE9C43DC47DC473EC4A24728
:1007F000D843970702009387A7CF9C4363F3E70092
:10080000BDA073700430A24791073E853926A247E8
:100810009C5789C7A247E1073E85012673600430D3
:10082000A247D85797070200938747CC9C4363F9A8
:10083000E700A247D85797070200938727CB98C3B2
:10084000A247D857BA878A07BA978A0717070200BC
:10085000130707C33E97A2479107BE853A85092C27
:10086000970702009387C7C69C439C43ADFB97073D
:100870000200938767C89C43E39E07EE9707020038
:10088000938707C79843970702009387A7C698C323
:100890000100F24005618280011106CE1D3D553DEB
:1008A0001DA097070200938767C49C43D5CB970789
:1008B00002009387A7C39C431387F7FF97070200A3
:1008C0009387C7C298C397070200938727C29843AC
:1008D000970602009386C6BABA878A07BA978A072C
:1008E000B6979C43DDDF97070200938727C09843A4
:1008F000BA878A07BA978A0717070200130747B80B
:10090000BA973EC6B247DC43D843B247D8C3B247D2
:10091000D843B247A1076317F700B247DC43D84377
:10092000B247D8C3B247DC43D84797070200938742
:1009300027A998C397070200938787A89C439443ED
:10094000970702009387C7A79843970702009387EA
:1009500027A79C439C5BBE853A858296010011A027
:100960000100F24005618280011106CE02C605A099
:100970003247BA878A07BA978A0717070200130710
:1009800027B0BA973E855D20B24785073EC63247FD
:100990008547E3FFE7FC170502001305E5B0792062
:1009A00017050200130585B1512017050200130534
:1009B000A5B2AD2897070200938787B117070200F9
:1009C000130787AE98C3970702009387A7B017074E
:1009D00002001307A7AE98C30100F24005618280B0
:1009E000797106D62AC6B247DC47DC473ECCE247DF
:1009F000E1073E851D22E247E107BE85170502009B
:100A0000130585ADB520E247D857970702009387B5
:100A1000279B9C43DC576365F70085473ECE11A0BA
:100A200002CEF2473E85B2504561828041112AC60E
:100A3000B24713878700B247D8C3B2477D5798C7DC
:100A4000B24713878700B247D8C7B24713878700DA
:100A5000B24798CBB24723A0070001004101828032
:100A600041112AC6B24723A8070001004101828034
:100A700001112AC62EC4B247DC433ECEA2477247BC
:100A8000D8C3F2479847A24798C7F2479C472247E6
:100A9000D8C3F247224798C7A247324798CBB247FC
:100AA0009C4313871700B24798C3010005618280F9
:100AB00001112AC62EC4A2479C433ECC6247FD5773
:100AC0006316F700B2479C4B3ECE31A8B247A10750
:100AD0003ECE21A0F247DC433ECEF247DC439C43AE
:100AE0006247E379F7FEF247D843A247D8C3A2474B
:100AF000DC43224798C7A247724798C7F24722476C
:100B0000D8C3A247324798CBB2479C4313871700FC
:100B1000B24798C301000561828001112AC6B2471D
:100B20009C4B3ECEB247DC433247184798C7B2478A
:100B30009C4732475843D8C3F247DC4332476316D9
:100B4000F700B2479847F247D8C3B24723A8070037
:100B5000F2479C431387F7FFF24798C3F2479C4341
:100B60003E8505618280797106D622D42AC62EC4BC
:100B7000B2473ECEF24781E77370043001A0EF2008
:100B8000E078F2478043F247D85FF247BC43BE8526
:100B90003A85EF50E032AA873307F400F247D8C312
:100BA000F24723AC0702F2479843F24798C7F2474F
:100BB0008043F247DC5F1387F7FFF247BC43BE85F3
:100BC0003A85EF50E02FAA873307F400F247D8C7E1
:100BD000F2477D57F8C3F2477D57B8C7A24785E370
:100BE000F2479C4B95C7F247C1073E85EF10506214
:100BF0002A878547631EF700EFF05F8111A8F2474F
:100C0000C1073E852535F247938747023E85393D2A
:100C1000EF20A07285473E85B25022544561828004
:100C2000797106D62AC62EC4B287A303F10002CC7E
:100C3000B24781E77370043001A0A24799E302CE66
:100C400001A8A2453245EF50A027AA8785073ECECE
:100C5000F247938747053E85EF30207E2ACAD24768
:100C600085CFA24789E7D247524798C331A0D247E0
:100C700013874705D24798C3D2473247D8DFD247B8
:100C80002247B8C385455245F93DD2470347710015
:100C90002388E704D2473ECCE24781E773700430F3
:100CA00001A0E2473E85B25045618280797106D647
:100CB000AA87A307F10013054005EF3000782ACE7C
:100CC000F247B9CFF24723A20700F24723A007005B
:100CD000F24723A40700F24723A60700F24723ACFC
:100CE0000702F2470547D8DFF24723A00704F2477F
:100CF0007D57F8C3F2477D57B8C7F2470347F10065
:100D00002388E704F247C1073E850D33F2479387F6
:100D100047023E85213B814601468145724531228D
:100D2000F2473E85B25045618280797106D622D461
:100D30002AC6B2473ECCE24781E77370043001A077
:100D4000E247C043EF20A03EAA876313F402E247C4
:100D5000DC471387F7FFE247D8C7E247DC4791E754
:100D60008146014681456245C92085473ECE11A096
:100D700002CEF2473E85B25022544561828079719D
:100D800006D622D42AC62EC4B2473ECCE24781E71B
:100D90007370043001A0E247C043EF204039AA87B6
:100DA000631BF400E247DC4713871700E247D8C70C
:100DB00085473ECE0DA08146224681456245992653
:100DC0002ACE724785476318F700E247DC4713874E
:100DD0001700E247D8C7F2473E85B250225445611A
:100DE0008280797106D62AC62EC4B24781E7737015
:100DF000043001A02247B24763F5E7007370043066
:100E000001A0094681453245213D2ACEF24781C7DE
:100E1000F247224798DFF24781E77370043001A060
:100E2000F2473E85B25045618280397106DE2AC69E
:100E30002EC432C236C002D6B2473ED4A25781E792
:100E40007370043001A0A24781E7A257BC4399E325
:100E5000854711A0814781E77370043001A00247E4
:100E600089476317F700A257D85F85476314F700D7
:100E7000854711A0814781E77370043001A0EF20FE
:100E8000602CAA8799E3924799E3854711A081478F
:100E900081E77370043001A0EF204047A257985FAC
:100EA000A257DC5F6366F70002478947631FF702BA
:100EB0000246A24522555D2B2AD2A257DC5391CF80
:100EC000A257938747023E85EF1090342A878547C3
:100ED0006319F700EFF08FD329A0925799C3EFF071
:100EE000EFD2EF208045854779A8924789E7EF2028
:100EF000C044814749A8B25799E77C083E85EF1066
:100F0000D04885473ED6EF204043EF10A03BEF206E
:100F1000E03FA257F843FD576315F700A25723A2FD
:100F20000704A257B847FD576315F700A25723A43B
:100F30000704EF20804058007C08BA853E85EF10FA
:100F4000D047AA8785EF2255EF000072AA8795C384
:100F5000A257C1071247BA853E85EF10501222559D
:100F60003D25EF10E037AA87E39807F2EFF00FCAAC
:100F700025B72255292DEF10A03639BF2255012D56
:100F8000EF10003681473E85F250216182807971F1
:100F900006D62AC62EC432C236C0B2473ECCE2477D
:100FA00081E77370043001A0A24781E7E247BC43A8
:100FB00099E3854711A0814781E77370043001A050
:100FC000024789476317F700E247D85F85476314F4
:100FD000F700854711A0814781E77370043001A0B5
:100FE000EFF0AFD0AA873ECAE247985FE247DC5FE6
:100FF0006366F700024789476315F7040246A24576
:101000006245AD21E247B847FD576313F702E24757
:10101000DC538DC7E247938747023E85EF10501F90
:10102000AA8789CF924799CB9247054798C339A0A1
:10103000E247BC4713871700E247B8C785473ECE53
:1010400011A002CED2473E85EFF02FC9F2473E8570
:10105000B25045618280797106D62AC62EC4B24745
:101060003ECCE24781E77370043001A0E247BC4305
:1010700081C77370043001A0E2479C4381E7E247D7
:10108000DC4399E3854711A0814781E77370043001
:1010900001A0EFF08FC5AA873ECAE247985FE247FA
:1010A000DC5F6377F704E2479C5F13871700E24732
:1010B00098DFE247B847FD576313F702E247DC5376
:1010C0008DC7E247938747023E85EF107014AA87C9
:1010D00089CFA24799CBA247054798C339A0E247D9
:1010E000BC4713871700E247B8C785473ECE11A01B
:1010F00002CED2473E85EFF04FBEF2473E85B2505A
:1011000045618280397106DE2AC62EC432C236C0DD
:1011100002D6B2473ED4A25781E77370043001A0D3
:10112000A24781E7A257BC4399E3854711A08147B5
:1011300081E77370043001A0EF20C000AA8799E313
:10114000924799E3854711A0814781E77370043086
:1011500001A0EF20A01BA2579C5FB5CBA257DC4794
:101160003ED2A2452255F92E824795EFA2579C5FA9
:101170001387F7FFA25798DFA2579C4391E7EF2010
:1011800020232A87A257D8C3A2579C4B8DCFA257A2
:10119000C1073E85EF10D0072A8785476315F70200
:1011A000EFF0CFA60DA0A2571257D8C7A257DC5315
:1011B00099CBA257938747023E85EF107005AA8707
:1011C00099C3EFF0AFA4EF20401785475DA8924781
:1011D00089E7EF20801681476DA0B25799E77C0818
:1011E0003E85EF10901A85473ED6EF200015EF1090
:1011F000600DEF20A011A257F843FD576315F700CB
:10120000A25723A20704A257B847FD576315F7005A
:10121000A25723A40704EF20401258007C08BA8587
:101220003E85EF109019AA87A1EB2255CD2EAA87F3
:101230009DCFA2579C4391EBEF20400DA257DC437A
:101240003E85EF103073EF20400FA257938747027F
:101250001247BA853E85EF10806222550D2EEF10A1
:101260002008AA87E39707EEEFF04F9ADDB52255E5
:10127000392EEF10E006F1BD2255112EEF10400679
:1012800081473E85F25021618280797106D62AC657
:101290002EC432C2B2473ECCE24781E773700430BD
:1012A00001A0A24781E7E247BC4399E3854711A02B
:1012B000814781E77370043001A0EFF00FA3AA8784
:1012C0003ECAE2479C5FA1CBA2456245A52CE247FE
:1012D0009C5F1387F7FFE24798DFE247F843FD572B
:1012E0006312F702E2479C4B85C7E247C1073E8580
:1012F000EF100072AA8789CF924799CB9247054792
:1013000098C339A0E247FC4313871700E247F8C3AC
:1013100085473ECE11A002CED2473E85EFF0EF9B2F
:10132000F2473E85B25045618280797106D62AC661
:101330002EC4B2473ECCE24781E77370043001A06F
:10134000A24781E7E247BC4399E3854711A0814763
:1013500081E77370043001A0E247BC4381E77370FA
:10136000043001A0EFF06F98AA873ECAE2479C5F65
:1013700089CFE247DC473EC8A2456245E122E24709
:101380004247D8C785473ECE11A002CED2473E8500
:10139000EFF0AF94F2473E85B2504561828079719B
:1013A00006D62AC6B24781E77370043001A0EF1059
:1013B000F075B2479C5F3ECEEF103078F2473E8525
:1013C000B25045618280797106D62AC6B2473ECEB8
:1013D000F24781E77370043001A0EF103073F247D9
:1013E000D85FF2479C5FB307F7403ECCEF10F07434
:1013F000E2473E85B2504561828001112AC6B2475C
:1014000081E77370043001A0B2479C5F3ECEF24783
:101410003E8505618280797106D62AC6B2473ECEE6
:10142000F24781E77370043001A07245D5297245F7
:10143000EF30A0130100B2504561828041112AC6ED
:10144000B247FC473E854101828041112AC62EC425
:10145000B2472247F8C701004101828041112AC6E4
:10146000B24783C707053E8541018280797106D660
:101470002AC62EC432C202CEB247BC4391EFB24755
:101480009C43D5E7B247DC433E85EF10505C2ACE43
:10149000B24723A2070061A8924785EFB247984759
:1014A000B247BC433E86A2453A85EF30A01AB24708
:1014B0009847B247BC433E97B24798C7B247984750
:1014C000B247DC436365F706B2479843B24798C713
:1014D000B9A8B247D847B247BC433E86A2453A8531
:1014E000EF304017B247D847B247BC43B307F0408C
:1014F0003E97B247D8C7B247D847B2479C43637BB1
:10150000F700B247D843B247BC43B307F0403E9719
:10151000B247D8C712478947631BF700B2479C5FA1
:1015200099C7B2479C5F1387F7FFB24798DFB2476E
:101530009C5F13871700B24798DFF2473E85B25091
:1015400045618280011106CE2AC62EC4B247BC4333
:101550009DCBB247D847B247BC433E97B247D8C7A6
:10156000B247D847B247DC436366F700B2479843B7
:10157000B247D8C7B247D847B247BC433E86BA85C0
:101580002245EF30200D0100F240056182800111FB
:1015900006CE2AC6EF10905725A0B247DC5395C758
:1015A000B247938747023E85EF108046AA8799C3CA
:1015B000EF10006AB247BC471387F7FFB247B8C7BE
:1015C000B247BC47E34BF0FC11A00100B2477D5786
:1015D000B8C7EF109056EF1070531DA0B2479C4B48
:1015E0008DC7B247C1073E85EF108042AA8799C3D5
:1015F000EF100066B247FC431387F7FFB247F8C30A
:10160000B247FC43E34CF0FC11A00100B2477D5708
:10161000F8C3EF1090520100F240056182807971A9
:1016200006D62AC6EF10904EB2479C5F81E78547E9
:101630003ECE11A002CEEF105050F2473E85B25080
:101640004561828001112AC6B24781E77370043078
:1016500001A0B2479C5F81E785473ECE11A002CE34
:10166000F2473E8505618280797106D62AC6EF1061
:10167000F049B247985FB247DC5F6315F7008547D2
:101680003ECE11A002CEEF10504BF2473E85B25035
:101690004561828001112AC6B24781E77370043028
:1016A00001A0B247985FB247DC5F6315F70085473A
:1016B0003ECE11A002CEF2473E850561828079714F
:1016C00006D62AC62EC432C2B2473ECC737004304E
:1016D0006245593FAA878DC3924799CBE247C1071C
:1016E000BE851245EFE01FF573600430F157B9A0D5
:1016F00073600430814799A07360043073700430C4
:10170000E247985FE247DC5F6376F7020146A24555
:101710006245A93B85473ECEE247DC5389CFE2478D
:10172000938747023E85EFF0AFABAA8789C7ED5795
:101730003ECE11A002CE73600430F2473E85B25017
:1017400045618280797106D62AC62EC432C2B2475C
:101750003ECC73700430E2479C5F95E3924781CFA3
:10176000E24793874702BE851245EFE0BFEC736006
:101770000430F157BDA87360043081479DA87360A1
:10178000043073700430E2479C5FA5C3E247D8473A
:10179000E247BC433E97E247D8C7E247D847E24713
:1017A000DC436366F700E2479843E247D8C7E24765
:1017B0009C5F1387F7FFE24798DFE247D847E2478D
:1017C000BC433E86BA852245EF20D06885473ECE91
:1017D000E2479C4B81CFE247C1073E85EFF04FA027
:1017E000AA8789C7ED573ECE11A002CE73600430A0
:1017F000F2473E85B25045618280797106D62AC68D
:101800002EC432C2B2473ECEF247985FF247DC5F49
:101810006375F7020146A24572458939924791EFF7
:10182000F247DC5399CBF247938747023E85EFF0AE
:101830002F9BAA8799C3854711A092473E85B25036
:1018400045618280797106D62AC62EC432C2B2475B
:101850003ECCE2479C5FA5C7E247D847E247BC437E
:101860003E97E247D8C7E247D847E247DC43636682
:10187000F700E2479843E247D8C7E2479C5F1387E7
:10188000F7FFE24798DFE247D847E247BC433E868E
:10189000BA852245EF20105C92479C4391EFE247C6
:1018A0009C4B99CBE247C1073E85EFF06F93AA8727
:1018B00081C79247054798C385473ECE11A002CE07
:1018C000F2473E85B2504561828001112AC62EC47E
:1018D00002CE81A017870300130787EAF2478E071D
:1018E000BA979C4385E717870300130767E9F24718
:1018F0008E07BA97224798C317870300130747E854
:10190000F2478E07BA973247D8C301A8F247850736
:101910003ECE72479D47E3FFE7FA010005618280F2
:1019200001112AC602CE0DA817870300130747E549
:10193000F2478E07BA97DC433247631CF7001787DC
:1019400003001307E7E3F2478E07BA9723A00700C7
:1019500001A8F24785073ECE72479D47E3F6E7FCB4
:10196000010005618280797106D62AC62EC432C272
:10197000B2473ECEEF109019F247F843FD5763157A
:10198000F700F24723A20704F247B847FD57631553
:10199000F700F24723A40704EF10301AF2479C5FC8
:1019A00089EBF247938747021246A2453E85EF0036
:1019B000907E7245E93E0100B250456182803971E6
:1019C00006DE2ACE2ECC36C83AC63EC442C246C037
:1019D000B287231BF100F24781E77370043001A046
:1019E0003247A54763F5E7007370043001A08357C1
:1019F000610192453E85EF1080512AD4A257638F32
:101A00000712A257985B83566101B7070040FD1784
:101A1000B6978A07BA973ED29257F19B3ED2925719
:101A20008D8B81C77370043001A0835761013E879D
:101A300082463246E2452255EF10E0274246F24503
:101A40001255EFE0DFAB2A87A25798C3A24781C7A0
:101A5000A247225798C3EF10700B97F701009387A6
:101A600067BD9C431387170097F70100938787BCD6
:101A700098C397F701009387E7949C4395E397F702
:101A8000010093872794225798C397F70100938703
:101A900067BA98438547631AF702EF10C02C35A048
:101AA00097F701009387C7B99C4385E397F7010037
:101AB000938747919C43DC5732476368F70097F759
:101AC000010093872790225798C397F701009387C7
:101AD00027B89C431387170097F70100938747B7F0
:101AE00098C397F701009387A7B69843A257B8C742
:101AF000A257D85797F70100938747B49C4363F9DF
:101B0000E700A257D85797F70100938727B398C3E8
:101B1000A257D857BA878A07BA978A0717F70100DA
:101B20001307C79D3E97A2579107BE853A85EFE000
:101B30003FF485473ED6EF10500019A0FD573ED622
:101B4000325785476313F70297F70100938747AF32
:101B50009C4381CF97F701009387C7869C43DC574E
:101B6000324763F4E700EFE07F8AB2573E85F250D8
:101B700021618280797106D62AC6EF102079B2479A
:101B800099E797F701009387E7839C4311A0B24739
:101B90003ECEF24791073E85EFE03FF8F2479C5773
:101BA00091C7F247E1073E85EFE03FF7F247910723
:101BB000BE8517F50100130525A5EFE07FEB97F72C
:101BC00001009387A7A59C431387170097F701008F
:101BD0009387C7A498C397F70100938767A79C438F
:101BE0001387170097F70100938787A698C3EF1014
:101BF000C07497F701009387A7A49C439DCB97E7F8
:101C000001009387277C9C437247631EF70097F778
:101C10000100938767A49C4381C77370043001A0BF
:101C2000EFE0CFFE39A0EF10606EEF10A04BEF1089
:101C3000C0700100B25045618280797106D62AC613
:101C40002EC402CEB24781E77370043001A0A247D0
:101C500081E77370043001A097F701009387C79F55
:101C60009C4381C77370043001A0A92D97F7010030
:101C70009387879C9C433ECCB2479C432247BA97AC
:101C80003ECAB2479C436247637EF700B2479C431B
:101C900052476374F7025247E24763F0E702854711
:101CA0003ECE21A8B2479C4352476366F700524795
:101CB000E24763F4E70085473ECEB247524798C3F8
:101CC000F24789CF97E701009387C76F9C4391073D
:101CD0003E85EFE09FE45245EF10001B11252AC816
:101CE000C24799E3EFE08FF20100B2504561828074
:101CF000797106D62AC602CEB247A9C397F701006A
:101D0000938787959C4381C77370043001A05D2B36
:101D100097F70100938747929C433247BA973ECC8E
:101D200097E701009387076A9C4391073E85EFE0A0
:101D3000DFDE6245EF10401565232ACEF24799E3B6
:101D4000EFE0CFEC0100B25045618280797106D698
:101D50002AC6B2473ECCE24781E77370043001A047
:101D600097E70100938707669C4362476314F70077
:101D700002CEBDA0EF108059E247DC4B3ECAEF1007
:101D8000C05B97F70100938767869C435247630ABD
:101D9000F70097F701009387A7859C435247631587
:101DA000F70089473ECE2DA8524797F70100938749
:101DB0002787631BF700E2479C5781E78D473ECE9C
:101DC00005A089473ECE29A8524797F7010093877F
:101DD000A7836315F70091473ECE19A085473ECEF5
:101DE000F2473E85B25045618280797106D62AC697
:101DF000EF10C051B24799E797E701009387875CDE
:101E00009C4311A0B2473ECEF247DC573ECCEF10C8
:101E1000C052E2473E85B25045618280797106D654
:101E20002AC6EFE08FECAA873ECEB24799E797E744
:101E30000100938727599C4311A0B2473ECCE2474B
:101E4000DC573ECAF2473E85EFE02FE9D2473E8598
:101E5000B25045618280797106D62AC62EC402CE60
:101E60002247A54763F5E7007370043001A02247BD
:101E7000A54763F4E700A5473EC4EF102049B247E9
:101E800099E797E701009387E7539C4311A0B24776
:101E90003ECCE247BC4B3ECA5247A247630AF70E0C
:101EA0002247D24763F6E70297E7010093878751FD
:101EB0009C4362476308F70297E7010093878750C6
:101EC0009C43DC572247636FF70085473ECE19A835
:101ED00097E701009387074F9C4362476314F7001D
:101EE00085473ECEE247DC573EC8E247B84BE24763
:101EF000DC576315F700E2472247D8D7E24722476D
:101F0000B8CBE2479C4F63C707002947A2471D8F04
:101F1000E24798CFE247D44B4247BA878A07BA973D
:101F20008A0717E701001307675DBA976394F60005
:101F3000854711A08147B9C7E24791073E85EFE089
:101F4000DFBDE247D85797E701009387276F9C438F
:101F500063F9E700E247D85797E701009387076ED8
:101F600098C3E247D857BA878A07BA978A0717E70C
:101F700001001307A7583E97E2479107BE853A85AF
:101F8000EFE01FAF724785476314F700EFE00FC81B
:101F9000EF10A03A0100B25045618280797106D6F7
:101FA0002AC6EF10A036B24799E797E7010093875A
:101FB00067419C4311A0B2473ECEF24791073E8550
:101FC000EFE0BFB5F2479C5791C7F247E1073E8566
:101FD000EFE0BFB4F2479107BE8517E50100130596
:101FE0002564EFE0FFA8EF10403597E701009387E5
:101FF000673D9C4372476319F70497E70100938795
:1020000027649C4389CF97E701009387E7649C434B
:1020100081C77370043001A0EFE04FBF91A097E734
:1020200001009387E75F984397E7010093878760F4
:102030009C436319F70097E701009387A73823A013
:10204000070039A8212729A897E701009387475F50
:102050009C4399C7EF10802BEF10C008EF10E02DC4
:102060000100B2504561828001112AC602CEB247FA
:102070003ECCB24781E77370043001A0E247D84BF1
:1020800097E701009387C7596314F700854711A0AC
:10209000814795C3E247985797E701009387875593
:1020A000630BF700E2479C5799E3854711A08147EE
:1020B00099C385473ECEF2473E850561828079719E
:1020C00006D62AC6B2473ECEB24781E773700430C7
:1020D00001A0F247C9C797E701009387A72E9C4349
:1020E0007247630EF706EF1060227245B53F2A87EC
:1020F00085476314F706F24791073E85EFE0FFA19D
:10210000F247D85797E70100938747539C4363F9F9
:10211000E700F247D85797E701009387275298C303
:10212000F247D857BA878A07BA978A0717E7010094
:102130001307C73C3E97F2479107BE853A85EFE00B
:102140003F93F247D85797E701009387A7279C430F
:10215000DC576364F700EFE06FABEF10001E010087
:10216000B25045618280797106D62AC602CEB24746
:102170003ECCB24781E77370043001A0EFE0EFB6C8
:10218000AA873ECA6245CD352A8785476314F7087A
:1021900097E701009387474C9C43A5E7E247D85750
:1021A00097E70100938707229C43DC576364F7009D
:1021B00085473ECEE24791073E85EFE01F96E24716
:1021C000D85797E70100938767479C4363F9E70077
:1021D000E247D85797E701009387474698C3E247FD
:1021E000D857BA878A07BA978A0717E701001307F3
:1021F000E7303E97E2479107BE853A85EFE05F877B
:1022000011A8E247E107BE8517E501001305853EE9
:10221000EFE01F86D2473E85EFE02FACF2473E85C8
:10222000B25045618280011106CE81480148814744
:10223000014781461306004097E50100938585DC40
:1022400017150000130585A5EFF06FF72AC6324772
:1022500085476315F700EF10C06D2AC632478547E2
:102260006319F7027370043097E701009387873E84
:102270007D5798C397E701009387873C054798C32C
:1022800097E701009387473B23A00700EFE06F81AA
:1022900031A0B24781E77370043001A00100F24021
:1022A00005618280411106C67370043097E7010012
:1022B0009387073923A00700EFE0EF8C0100B240BD
:1022C0004101828097E70100938707399C43138778
:1022D000170097E701009387273898C30100828091
:1022E000011106CE02C697E701009387E7369C43AB
:1022F00081E77370043001A0EF10400197E70100FF
:10230000938787359C431387F7FF97E701009387EF
:10231000A73498C397E70100938707349C436390E1
:10232000071097E701009387E7309C436389070E06
:1023300059A097E701009387E72BDC47DC473EC4B1
:10234000A247E1073E85EFE04FFDA24791073E859A
:10235000EFE0AFFCA247D85797E701009387072E1D
:102360009C4363F9E700A247D85797E7010093879A
:10237000E72C98C3A247D857BA878A07BA978A0723
:1023800017E70100130787173E97A2479107BE85FD
:102390003A85EFE0EFEDA247D85797E70100938722
:1023A00067029C43DC576368F70097E70100938757
:1023B000A729054798C397E701009387A7239C4364
:1023C000ADFB97E701009387E7279C438DCF35A0AE
:1023D000452AAA8799C797E701009387E72605470B
:1023E00098C397E701009387E7259C431387F7FF7E
:1023F00097E701009387072598C397E70100938724
:1024000067249C43F1F797E701009387E7239843FC
:1024100085476316F70085473EC6EFD03FFFEF00C4
:10242000D071B2473E85F24005618280011106CE2F
:10243000EF00D06D97E70100938707209C433EC6CD
:10244000EF00B06FB2473E85F24005618280011116
:1024500006CEEFE08F89AA873EC697E701009387F3
:10246000A71D9C433EC4B2473E85EFE00F87A247BD
:102470003E85F2400561828097E701009387871BC4
:102480009C433E858280797106D62AC62EC432C20C
:1024900002CEA9473ECC3D3597E7010093878719C7
:1024A0009C4322476368F70CE247FD173ECCF24796
:1024B00096073247B306F7006247BA878A07BA978A
:1024C0008A0717E7010013076703BA970546BE8519
:1024D0003685EF00902A2A87F247BA973ECEE24728
:1024E000E1F7F247960732473E9797E70100938757
:1024F000E70F9C430946BE853A85EF0010282A87DE
:10250000F247BA973ECEF247960732473E9797E793
:1025100001009387E70D9C430946BE853A85EF008D
:10252000D0252A87F247BA973ECEF2479607324720
:10253000BA97114697E501009385050D3E85EF009A
:10254000D0232A87F247BA973ECEF2479607324702
:10255000BA970D4697E501009385850C3E85EF00FF
:10256000D0212A87F247BA973ECE924781C7924739
:1025700023A00700B533F2473E85B2504561828003
:10258000797106D602CE97E701009387E70C9C434A
:102590006395071897E701009387070A9C43138701
:1025A000170097E701009387270998C397E7010071
:1025B000938787089C433ECCE247B9EF97E7010039
:1025C0009387C7029C439C4381C77370043001A06A
:1025D00097E70100938787019C433ECA97E7010074
:1025E00093870701984397E701009387270098C3D3
:1025F00097E701009387C7FF524798C397E7010009
:102600009387C7049C431387170097E701009387BC
:10261000E70398C3EF00102D97E701009387870326
:102620009C4362476365F70C97E70100938707FCBB
:102630009C439C4399E3854711A0814781CB97E751
:102640000100938727017D5798C355A097E70100A4
:102650009387C7F99C43DC47DC473EC8C247DC434D
:102660003EC66247B2476379F70097E70100938758
:1026700067FE324798C3A5A8C24791073E85EFE0A1
:10268000CFC9C2479C5791C7C247E1073E85EFE0DB
:10269000CFC8C247D85797E70100938727FA9C43D2
:1026A00063F9E700C247D85797E70100938707F916
:1026B00098C3C247D857BA878A07BA978A0717E7D5
:1026C00001001307A7E33E97C2479107BE853A85ED
:1026D000EFE00FBAC247D85797E70100938787CE3C
:1026E0009C43DC57E362F7F485473ECE35BF97E75E
:1026F0000100938727CD9C43D85797E60100938626
:10270000E6DFBA878A07BA978A07B697984385475C
:1027100063F1E70285473ECE29A897E7010093873A
:1027200067F29C431387170097E70100938787F1AF
:1027300098C397E70100938727F19C4399C3854786
:102740003ECEF2473E85B25045618280011106CEF1
:1027500097E70100938747F09C4381CB97E70100FF
:10276000938787EE054798C339A297E701009387BF
:10277000A7ED23A0070097E701009387A7C49C4318
:102780009C5B3EC6B7A7A5A59387575A3EC4B247E0
:102790009C4322476314F702B24791079C432247A8
:1027A000631EF700B247A1079C4322476318F70056
:1027B000B247B1079C4322476308F70497E701003B
:1027C000938747C0984397E701009387A7BF9C432F
:1027D00093874703BE853A85EF20B00A35A097E777
:1027E00001009387A7E59C4381E77370043001A043
:1027F00097E70100938787E49C431387F7FF97E7E8
:1028000001009387A7E398C397E70100938707E345
:10281000984397E60100938666CEBA878A07BA97EF
:102820008A07B6979C43C5DF97E70100938707E1C6
:102830009843BA878A07BA978A0717E701001307F0
:10284000E7CBBA973EC29247DC43D8439247D8C3FE
:102850009247D8439247A1076317F7009247DC439A
:10286000D8439247D8C39247DC43D84797E7010043
:10287000938747B598C30100F24005618280797162
:1028800006D62AC62EC4B24781E77370043001A071
:1028900097E70100938707B39C43E107BE85324564
:1028A000EFE00FA197E701009387C7B19C43910721
:1028B0003E85EFE08FA62247FD576310F70297E7AA
:1028C0000100938727B09C439107BE8517E501005F
:1028D000130505D5EFE0CF9919A897E70100938775
:1028E000A7D59C432247BA973ECE7245712B010073
:1028F000B25045618280797106D62AC62EC432C292
:10290000B24781E77370043001A097E70100938715
:10291000A7D49C4381E77370043001A097E70100BE
:10292000938747AA9C43A24637070080558F98CFCC
:1029300097E70100938707A99C43E107BE853245CD
:10294000EFE00F9397E701009387C7A79C43910798
:102950003E85EFE08F9C1247FD576310F70297E723
:102960000100938727A69C439107BE8517E50100C8
:10297000130505CBEFE0CF8F19A897E701009387E8
:10298000A7CB9C431247BA973ECE7245F52901006A
:10299000B25045618280797106D62AC62EC432C2F1
:1029A000B24781E77370043001A097E70100938775
:1029B00067A19C43E107BE853245EFE06F8B97E747
:1029C0000100938727A09C4391073E85EFE0EF9499
:1029D000124785476310F70297E701009387879EA8
:1029E0009C439107BE8517E50100130565C3EFE021
:1029F0002F8819A897E70100938707C49C432247B3
:102A0000BA973ECE724549210100B250456182809D
:102A1000797106D62AC6B247DC47DC473ECCE2478E
:102A200081E77370043001A0E247E1073E85EFE0E3
:102A3000CF8E97E70100938727C29C43A1EBE24723
:102A400091073E85EFE06F8DE247D85797E7010089
:102A50009387C7BE9C4363F9E700E247D85797E7DF
:102A600001009387A7BD98C3E247D857BA878A0762
:102A7000BA978A0717E70100130747A83E97E2476E
:102A80009107BE853A85EFD0BFFE11A8E247E10766
:102A9000BE8517E501001305E5B5EFD07FFDE247E0
:102AA000D85797E701009387E7919C43DC5763FB76
:102AB000E70085473ECE97E701009387E7B80547D3
:102AC00098C311A002CEF2473E85B2504561828084
:102AD000797106D62AC62EC497E701009387C7B737
:102AE0009C4381E77370043001A02247B707008040
:102AF0005D8FB24798C3B247DC473ECCE24781E7DF
:102B00007370043001A03245EFE02F81E247910756
:102B10003E85EFE08F80E247D85797E70100938723
:102B2000E7B19C4363F9E700E247D85797E7010014
:102B30009387C7B098C3E247D857BA878A07BA972E
:102B40008A0717E701001307679B3E97E247910743
:102B5000BE853A85EFD0DFF1E247D85797E701000D
:102B6000938747869C43DC5763FBE70085473ECE4F
:102B700097E70100938747AD054798C311A002CEA0
:102B8000F2473E85B2504561828041112AC6B24764
:102B900081E77370043001A097E70100938707ABCA
:102BA0009843B24798C397E701009387E7A89843F3
:102BB000B247D8C3010041018280797106D62AC686
:102BC0002EC4B24781E77370043001A0A24781E7A9
:102BD0007370043001A01D2F97E701009387C7A5EC
:102BE0009C433ECCA2479843FD576314F70002CEA6
:102BF00091A8B247984397E70100938727A59C4384
:102C0000630AF700B247DC4362476365F700854714
:102C10003ECE0DA8B247DC4362471D8FA2479C43BE
:102C20006370F702A2479843B247D443E247B387A1
:102C3000F6403E97A24798C33245813F02CE19A085
:102C400085473ECEDD2DF2473E85B25045618280FC
:102C500097E701009387479F054798C3010082804B
:102C600001112AC6B24799C7B2473ECCE247FC479A
:102C70003ECE11A002CEF2473E8505618280011151
:102C80002AC62EC4B24791C7B2473ECEF24722476A
:102C9000F8C7010005618280011106CE2AC685228F
:102CA00097E701009387878598438547E3F9E7FE17
:102CB000EFD0CFF5EDB7397106DE2ACE2ECC32CA71
:102CC00036C8BA872317F10002D625A06247B2574B
:102CD000BA9703C70700F246B257B697238AE702AE
:102CE0006247B257BA9783C7070089CBB2578507A7
:102CF0003ED63257BD47E3FBE7FC11A00100F24787
:102D0000A38107045247A54763F4E700A5473ECADD
:102D1000F2475247D8D7F2475247B8CBF24723AAD7
:102D20000704F24791073E85EFD09FD3F247E107B2
:102D30003E85EFD0FFD2F247724798CB2947D24762
:102D40001D8FF24798CFF2477247D8D3F24723A29C
:102D50000704F24723AC0704F24723AE070401003F
:102D6000F25021618280011106CE02C60DA03247C9
:102D7000BA878A07BA978A0717D701001307077817
:102D8000BA973E85EFD09FCAB24785073EC6324705
:102D9000A547E3FEE7FC17E501001305A582EFD088
:102DA000FFC817E5010013052583EFD03FC817E5DD
:102DB000010013052584EFD07FC717E50100130537
:102DC000A584EFD0BFC617E5010013056585EFD0D8
:102DD000FFC597E701009387678117D701001307A5
:102DE000677E98C397E701009387878017D7010014
:102DF0001307877E98C30100F240056182800111AC
:102E000006CE8DA8EFF00FCC97D701009387C77F30
:102E10009C4393B7170093F7F70F3EC6EFF04FCCE4
:102E2000B247A9EBE52197D701009387E77DDC47FF
:102E3000DC473EC4A24791073E85EFD01FCE97D70F
:102E400001009387277F9C431387F7FF97D70100E3
:102E50009387477E98C397D701009387277C9C432D
:102E60001387F7FF97D701009387477B98C3F1211A
:102E70002245912C97D701009387477A9C43D9F339
:102E80000100F24005618280011106CE2AC697D763
:102E90000100938727539C433247D8C397D701003B
:102EA000938787799C4332476372F70297D7010073
:102EB00093870774984397D701009387A7509C4343
:102EC0009107BE853A85EFD0BFBE35A897D70100E0
:102ED0009387C771984397D701009387A74E9C4368
:102EE0009107BE853A85EFD0BFBC97D70100938785
:102EF00067769C4332476378F70097D70100938742
:102F00006775324798C30100F2400561828079718C
:102F100006D6AA872EC42317F100A24789EB835750
:102F2000E1008A073E85EF104051AA8711A0A24711
:102F30003ECCE24785C313050006EF1000502ACEB1
:102F4000F24789C7F247624798DB31A06245EF102C
:102F5000C06111A002CEF24781CFF247985B835740
:102F6000E1008A073E869305500A3A85EF104075C6
:102F7000F2473E85B25045618280397106DE22DC1F
:102F80002AC62EC432C202D6A2479C43638D070EC6
:102F9000A2473ED4A257DC43D843A257D8C3A25776
:102FA000D843A257A1076317F700A257DC43D843C1
:102FB000A257D8C3A257DC43DC473ED2A2473ED03B
:102FC0008257DC43D8438257D8C38257D8438257AD
:102FD000A1076317F7008257DC43D8438257D8C351
:102FE0008257DC43DC473ECEB25796073247BA974A
:102FF000724798C3B25796073247BA97724713077A
:103000004703D8C3B25796073247BA977247384733
:1030100098C7B25796073247BA971247D8C7B257E0
:1030200096073247BA977247585798CB12478D4741
:10303000631BF700F2479C5799C7B2579607324770
:10304000BA970947D8C7B25796073247BA97724717
:10305000384BD8CBB25796073247BA9723AC070004
:10306000F247945BB257960732473304F700368530
:103070000D20AA87231EF400B25785073ED672475B
:103080009257E31DF7F2B2573E85F2506254216128
:10309000828001112AC602CE39A0B24785073EC6FA
:1030A000F24785073ECEB24703C707009307500A91
:1030B000E305F7FEF24789833ECEF247C207C1839C
:1030C0003E8505618280011106CE2AC6B2479C5B0F
:1030D0003E85EF1080493245EF1020490100F24053
:1030E00005618280411197D70100938727509C4347
:1030F0009C4399E3854711A0814781CB97D7010075
:10310000938747557D5798C305A097D701009387AC
:10311000E74D9C43DC47DC473EC6B247D84397D7D0
:1031200001009387275398C3010041018280411118
:1031300097D70100938707299C433EC6B2473E8537
:1031400041018280411197D701009387674F9C43CB
:1031500081E785473EC619A897D701009387C74FD7
:103160009C4381E789473EC611A002C6B2473E850F
:1031700041018280797106D62AC6B2473ECEB24757
:10318000F9C3F247D85797D701009387A7239C43E9
:10319000DC57637AF70AF2479C4F63CC070097D756
:1031A0000100938727229C43DC5729471D8FF24754
:1031B00098CFF247D44BF247D857BA878A07BA97C5
:1031C0008A0717D7010013076733BA976394F6008D
:1031D000854711A08147A5C3F24791073E85EFD0EF
:1031E000DF9397D701009387E71D9C43D857F24799
:1031F000D8D7F247D85797D70100938727449C43E5
:1032000063F9E700F247D85797D701009387074340
:1032100098C3F247D857BA878A07BA978A0717D749
:1032200001001307A72D3E97F2479107BE853A8507
:10323000EFD01F8409A897D701009387A7189C4354
:10324000D857F247D8D70100B250456182807971D2
:1032500006D62AC6B2473ECC02CEB247DDC397D7C8
:103260000100938727169C4362476305F70073703C
:10327000043001A0E247FC4B81E77370043001A0E9
:10328000E247FC4B1387F7FFE247F8CBE247D857FA
:10329000E247BC4B6307F706E247FC4BBDE3E2475E
:1032A00091073E85EFD07F87E247B84BE247D8D7FA
:1032B000E247DC5729471D8FE24798CFE247D857AE
:1032C00097D70100938787379C4363F9E700E2476C
:1032D000D85797D701009387673698C3E247D857E6
:1032E000BA878A07BA978A0717D7010013070721F9
:1032F0003E97E2479107BE853A85EFD06FF7854745
:103300003ECEF2473E85B2504561828073700430F4
:1033100097D701009387C7329C4391CF97D701007D
:103320009387470A9C43F8430507F8C397D70100E2
:10333000938747099C430100828097D701009387B8
:1033400027309C438DCB97D701009387A7079C43D9
:10335000FC4395C397D701009387C7069C43F84366
:103360007D17F8C397D701009387C7059C43FC439B
:1033700099E37360043001008280411197D7010006
:10338000938747049C439C4F3EC697D70100938781
:1033900067039C43D85797D701009387A7029C43A4
:1033A000A9463387E64098CFB2473E8541018280E7
:1033B00097D70100938707019C4389CB97D70100DA
:1033C000938747009C43F84B0507F8CB97D701003C
:1033D000938747FF9C433E858280797106D62AC633
:1033E0002EC42D3797D701009387C7FD9C43BC4F50
:1033F000ADE397D701009387E7FC9C430547F8CFDF
:10340000A247A1CB97D701009387C7FB9C439107A5
:103410003E85EFD08FF02247FD576310F70297D714
:103420000100938727FA9C439107BE8517D50100B9
:103430001305051FEFD0CFE319A897D70100938795
:10344000A71F9C432247BA973ECE7245353CEFC03A
:10345000FFFBE535653D97D701009387A7F69C43B1
:10346000BC4F3ECCE2479DC3B24789CB97D7010002
:10347000938747F59C4323AC070409A897D701001D
:10348000938747F49C43B84F7D17B8CF97D7010077
:10349000938747F39C4323AE07044535E2473E85B7
:1034A000B25045618280797106D62AC62EC432C2D6
:1034B00036C0A93D97D701009387C7F09C43F84FCA
:1034C0008947630DF70697D701009387A7EF9C43C1
:1034D000B44F32471347F7FF758FB8CF97D7010026
:1034E000938747EE9C430547F8CF8247A1CB97D7F8
:1034F0000100938727ED9C4391073E85EFD0EFE1D4
:103500000247FD576310F70297D70100938787EBB7
:103510009C439107BE8517D5010013056510EFD0B8
:103520002FD519A897D70100938707119C4302470D
:10353000BA973ECC6245893AEFC05FEDFD3BF93367
:10354000924789CB97D701009387C7E79C43B84F31
:10355000924798C397D701009387C7E69C43F84FDB
:1035600085476314F70002CE31A897D701009387EF
:1035700067E59C43B44F22471347F7FF758FB8CFD9
:1035800085473ECE97D701009387C7E39C4323AE80
:1035900007046533F2473E85B250456182807971F8
:1035A00006D62AC62EC432C236C085473ECEB247A2
:1035B00081E77370043001A0B2473ECC813B824763
:1035C00089C7E247B84F824798C3E247FC4F3ECADB
:1035D000E2470947F8CF1247914763EEE704924765
:1035E0001397270097D70100938747A2BA9798436C
:1035F00097D70100938787A1BA978287E247B84F90
:10360000A2475D8FE247B8CF3DA0E247BC4F13878A
:103610001700E247B8CF05A0E2472247B8CF21A85C
:10362000524789476306F700E2472247B8CF21A0F7
:1036300002CE11A0010052478547631AF706E24700
:1036400091073E85EFD06FCDE247D85797D701005D
:103650009387C7FE9C4363F9E700E247D85797D7A3
:1036600001009387A7FD98C3E247D857BA878A0716
:10367000BA978A0717D70100130747E83E97E24732
:103680009107BE853A85EFD0AFBEE2479C5781C710
:103690007370043001A0E247D85797D70100938791
:1036A00067D29C43DC5763F4E700EFC03FD671312B
:1036B000F2473E85B25045618280397106DE2ACEDE
:1036C0002ECC32CA36C83AC685473ED6F24781E785
:1036D0007370043001A0F2473ED4EFC01FE1AA8707
:1036E0003ED2C24789C7A257B84FC24798C3A25714
:1036F000FC4F3ED0A2570947F8CF5247914763EE9F
:10370000E704D2471397270097D701009387479183
:10371000BA97984397D7010093878790BA97828783
:10372000A257B84FE2475D8FA257B8CF3DA0A2572E
:10373000BC4F13871700A257B8CF05A0A257624706
:10374000B8CF21A8025789476306F700A2576247FE
:10375000B8CF21A002D611A0010002578547631DF2
:10376000F708A2579C5781C77370043001A097D700
:103770000100938767EE9C43A1EBA25791073E851A
:10378000EFD0AFB9A257D85797D70100938707EB6F
:103790009C4363F9E700A257D85797D70100938756
:1037A000E7E998C3A257D857BA878A07BA978A0712
:1037B00017D70100130787D43E97A2579107BE85FC
:1037C0003A85EFD0EFAA11A8A257E107BE8517D519
:1037D0000100130525E2EFD0AFA9A257D85797D71C
:1037E0000100938727BE9C43DC5763F7E700B2478D
:1037F00081C7B247054798C392573E85EFC0FFCDBA
:10380000B2573E85F25021618280797106D62AC670
:103810002EC4B24781E77370043001A0B2473ECE98
:10382000EFC0BFCCAA873ECCF247FC4F3ECAF2475E
:103830000947F8CFF247BC4F13871700F247B8CFBC
:1038400052478547631DF708F2479C5781C773703D
:10385000043001A097D70100938707E09C43A1EBB8
:10386000F24791073E85EFD04FABF247D85797D735
:1038700001009387A7DC9C4363F9E700F247D85720
:1038800097D70100938787DB98C3F247D857BA8749
:103890008A07BA978A0717D70100130727C63E97EA
:1038A000F2479107BE853A85EFD08F9C11A8F24769
:1038B000E107BE8517D501001305C5D3EFD04F9B97
:1038C000F247D85797D701009387C7AF9C43DC577F
:1038D00063F7E700A24781C7A247054798C3E247BD
:1038E0003E85EFC09FBF0100B25045618280797173
:1038F00006D62AC6B2473ECCE24799E797D70100E1
:10390000938747AC9C4311A0E2473ECC0134E24789
:10391000F84F89476318F700E24723AE070485474D
:103920003ECE11A002CE113CF2473E85B250456119
:103930008280011106CE02C61D2B97D70100938706
:10394000E7D49C439DC3814801488147094781468C
:103950001306004097C501009385C56D170500004B
:103960001305051BEFE0AF852AC6B24781E77370E8
:10397000043001A0B2473E85F24005618280397172
:1039800006DE2ACE2ECC32CA36C83AC6E24799E3C2
:1039900002D62DA81305C002EF00302A2AD6B2574E
:1039A00095C7F121B257724798C3B257624798CF73
:1039B000B2575247D8CFB257424798D3B25732473F
:1039C000D8D3B25791073E85EFD08F89E24781E780
:1039D0007370043001A0B2573E85F250216182809D
:1039E000397106DE2ACE2ECC32CA36C83AC602D685
:1039F000F24781E77370043001A097D701009387E5
:103A0000E7C89C43B5CBE2473ED0D2473ED2F2470F
:103A10003ED46247954763C4E704EFF0AFF22A87CC
:103A200089476310F70297D70100938727C69C4305
:103A3000181081463246BA853E85EFD00FBF2AD690
:103A400025A897D70100938767C49C431810814627
:103A50000146BA853E85EFD04FBD2AD631A897D70B
:103A600001009387A7C29C43181081464246BA853D
:103A70003E85EFD0CFD12AD6B2573E85F250216194
:103A8000828001112AC6B2473ECEB24781E77370E9
:103A9000043001A0F2479C433E8505618280797124
:103AA00006D62AC62EC497D701009387A7BD9C438C
:103AB000DC47DC473ECEF24791073E85EFD0EF85ED
:103AC000F247D84F8547631BF702F247984FB2473A
:103AD000BA97B2462246BE857245B9222A878547E3
:103AE000631EF70001478146324681457245CD3D50
:103AF0002ACCE24781E77370043001A0F247DC531F
:103B0000724582970100B25045618280797106D674
:103B10002AC63C083E8541282ACEE247BE8572452A
:103B200019206922FDB7797106D62AC62EC4EFE0A6
:103B30006FF93C083E8545282ACEE247B9EFA247F7
:103B400099EB3247F24763E8E700EFE06FF9F2459F
:103B50003245B137A9A0A24781CF97D701009387FB
:103B6000A7B29C439C4393B7170093F7F70F3EC44B
:103B700097D70100938787B194433247F247B30741
:103B8000F7402246BE853685EFD0FFDDEFE04FF5EA
:103B9000AA8791E7EFC09F8719A0EFE06FF40100BB
:103BA000B2504561828001112AC697D701009387E0
:103BB00067AD9C439C4393B7170093F7F70F3E877D
:103BC000B24798C3B2479C4391EB97D701009387C4
:103BD00067AB9C43DC479C433ECE11A002CEF2472C
:103BE0003E8505618280797106D62AC6EFE01F8482
:103BF0002ACE97D701009387A7A99C437247637782
:103C0000F700692AB247054798C321A0B24723A00D
:103C1000070097D701009387A7A7724798C3F24779
:103C20003E85B25045618280797106D62AC62EC47F
:103C300032C236C002CEB2472247D8C3B24732475B
:103C400098CB2247924763E8E702124782471D8FCD
:103C5000B2479C4F6365F70085473ECE99A097D742
:103C60000100938767A29843B2479107BE853A85C2
:103C7000EFC01FE43DA0124782476379F700224757
:103C800082476365F70085473ECE21A897D701009C
:103C90009387479F9843B2479107BE853A85EFC007
:103CA0003FE1F2473E85B25045618280797106D688
:103CB000D9A0A24763C0070CC2473ECEF247DC4BF7
:103CC00091C7F24791073E85EFC03FE55C003E8516
:103CD000193F2ACCA2472547636FF708139727009F
:103CE00097C7010093878735BA97984397C7010014
:103CF0009387C734BA9782873247F2479C4FBA9767
:103D00003247BA866246BE857245393F2A87854763
:103D10006313F706F247DC5372458297F247D84F98
:103D20008547631AF7043247F2479C4FBA97014719
:103D300081463E868145724565312ACAD24785EF64
:103D40007370043001A03247F24798CFF2479C4F7E
:103D500081E77370043001A0F247984FE247BA97A9
:103D6000E2466246BE857245C13531A07245EF001C
:103D7000C07F11A0010097D70100938727919C4332
:103D8000380081460146BA853E85EFD0AFB7AA8795
:103D9000E39107F20100B25045618280797106D645
:103DA00071A097D701009387E78D9C43DC479C4324
:103DB0003ECC97D701009387E78C9C43DC47DC47D8
:103DC0003ECAD24791073E85EFC03FD5D247DC536C
:103DD00052458297D247D84F85476319F704D24797
:103DE0009C4F6247BA973EC84247E24763F4E702F6
:103DF000D2474247D8C3D247524798CB97D7010002
:103E0000938747889843D2479107BE853A85EFC08C
:103E10003FCA29A801478146624681455245C936B5
:103E20002AC6B24781E77370043001A097D701001A
:103E3000938747859C439C43ADF797D701009387B1
:103E400067849C433ECE97D701009387E7839843CE
:103E500097D701009387078398C397D7010093876B
:103E6000A782724798C30100B25045618280411118
:103E700006C6EFF0AFC997D70100938727819C430F
:103E8000C9E717C501001305657DEFC03FBA17C527
:103E900001001305E57DEFC07FB997C70100938747
:103EA000677E17C701001307677B98C397C7010098
:103EB0009387877D17C701001307877B98C3014647
:103EC000B1451145EFC0DFD52A8797C70100938719
:103ED000E77B98C397C701009387477B9C4381E7A3
:103EE0007370043001A097C701009387277A9C4321
:103EF00089CF97C70100938767799C4397C50100D5
:103F0000938545163E85EFD05F9CEFF00FC301000F
:103F1000B24041018280797106D62AC6B2473ECEB0
:103F2000B24781E77370043001A0EFF02FBEF24773
:103F3000DC4BB337F00093F7F70F3ECCEFF0EFBF59
:103F4000E2473E85B25045618280797106D62AC625
:103F5000B2473ECEB24781E77370043001A0EFF064
:103F6000EFBAF2479C533ECCEFF02FBDE2473E85BF
:103F7000B25045618280797106D62AC62EC4B247F6
:103F80003ECEB24781E77370043001A0EFF00FB866
:103F9000F247224798D3EFF04FBA0100B250456183
:103FA0008280011106CE714549292AC6B24789CBC4
:103FB000B24723A00700B24791073E85EFC01FA775
:103FC000B2473E85F24005618280397106DE2AC61D
:103FD0002EC432C236C0B2473ED402D21247B7070F
:103FE00000FFF98F81C77370043001A0924781E709
:103FF0007370043001A0EFF0EF94AA8799E3824731
:1040000099E3854711A0814781E77370043001A0CF
:10401000EFE04FABA2579C433ED0A24532458524EA
:104020000257A2475D8F9247F98F12476310F7023C
:104030000257A247D98F3ED6A2579843924793C7BB
:10404000F7FF7D8FA25798C302C025A0824799CF62
:10405000A257938647001247B7070005D98F02463B
:10406000BE853685EFE03F8902D621A0A2579C434A
:104070003ED6EFE0EFA62ACE8247B1CBF24799E3D6
:10408000EFC0CFB8EFF06FAF2AD63257B7070002B4
:10409000F98F85EBEFF08FA7A2579C433ED632579E
:1040A0009247F98F1247631AF700A2579843924735
:1040B00093C7F7FF7D8FA25798C3EFF00FA88547EE
:1040C0003ED23257B7070001FD17F98F3ED6B257DF
:1040D0003E85F250216182805D7186C62ACE2ECC4B
:1040E00032CA36C83AC6F2473EDA02DC02D8F24794
:1040F00081E77370043001A06247B70700FFF98FB2
:1041000081C77370043001A0E24781E77370043007
:1041100001A0EFF02F83AA8799E3B24799E385477F
:1041200011A0814781E77370043001A0EFE08F99FF
:10413000D2579C433ED64246E245325575242AD496
:10414000A25799CFB2573EDE02C6D247A9CBD2576B
:104150009843E24793C7F7FF7D8FD25798C381A05A
:10416000B24781E7B2573EDE1DA8D24791C76257DA
:10417000B7070001D98F3EDCC24791C76257B70726
:104180000004D98F3EDCD257938647006247E2573E
:10419000D98F3246BE853685EFE0EFF502DEEFE0DF
:1041A0002F942AD2B247B9CB925799E3EFC00FA60A
:1041B000EFF0AF9C2ADE7257B7070002F98F8DEB44
:1041C000EFF0CF94D2579C433EDE4246E245725513
:1041D000212CAA8799CBD24789CBD2579843E24763
:1041E00093C7F7FF7D8FD25798C3EFF00F9502D892
:1041F0007257B7070001FD17F98F3EDEF2573E8573
:10420000B64061618280797106D62AC62EC4B24753
:104210003ECEB24781E77370043001A02247B70752
:1042200000FFF98F81C77370043001A0EFF00F8E8B
:10423000F2479C433ECCF2479843A24793C7F7FF0F
:104240007D8FF24798C3EFF04F8FE2473E85B25023
:1042500045618280797106D62AC6B2473ECEEFC04C
:10426000CFA8AA873ECCF2479C433ECAE2473E8590
:10427000EFC0AFA6D2473E85B250456182805D71E6
:1042800086C62AC62EC402DCB2473ED802DAB2473E
:1042900081E77370043001A02247B70700FFF98F50
:1042A00081C77370043001A0C25791073ED6B25740
:1042B000A1073ED4EFE00F81B257DC473EDEC25784
:1042C0009843A2475D8FC25798C3BDA8F257DC43FD
:1042D0003ED2F2579C433ED002DA0257B70700FFA6
:1042E000F98F3ECE0257B7070001FD17F98F3ED078
:1042F0007247B7070004F98F89EBC257984382577A
:10430000F98F89CF85473EDA11A8C2579843825763
:10431000F98F02576314F70085473EDAD2579DC3E1
:104320007247B7070001F98F89C762578257D98F43
:104330003EDCC2579843B7070002D98FBE8572553D
:10434000EFE00FF992573EDE7257A257E310F7F8ED
:10435000C2579843E25793C7F7FF7D8FC25798C360
:10436000EFD01FF8C2579C433E85B6406161828002
:10437000797106D62AC6B2473ECEF24791073ECCA7
:10438000EFD05FF40DA0E247D847E247A1076315DD
:10439000F7007370043001A0E247DC47B705000264
:1043A0003E85EFE0EFF2E2479C43F1FF7245752A4C
:1043B000EFD01FF30100B25045618280011106CE9B
:1043C0002AC62EC4A24532455D3D0100F24005617A
:1043D0008280011106CE2AC62EC4A245324525355B
:1043E0000100F2400561828001112AC62EC432C24A
:1043F00002CE924781EB3247A247F98F81CF8547A2
:104400003ECE09A83247A247F98F22476314F7002E
:1044100085473ECEF2473E850561828001112AC65E
:10442000B2473ECCB24799E302CE21A0E2479C4F6F
:104430003ECEF2473E8505618280397106DE2AC68E
:1044400002D2EFD03FE8975703009387A7259C43FC
:1044500081EB5522975703009387C724054798C3DC
:10446000B24789CFA1473E87B247BA973EC6B24707
:104470008D8B89C7B247F19B91073EC6B247F9CBF6
:104480003247E567ED1763E7E70C9757030093871B
:1044900067203ED4975703009387C71F9C433ED69F
:1044A00031A0B2573ED4B2579C433ED6B257DC43FC
:1044B000324763F5E700B2579C43E5F73257975709
:1044C00003009387A71D6307F708A2579C43214762
:1044D000BA973ED2B2579843A25798C3B257D8431F
:1044E000B247B307F740214706076378F70432570E
:1044F000B247BA973ECEB257D843B2471D8FF24764
:10450000D8C3B2573247D8C3F247DC433ECC9757A3
:104510000300938727183ED021A082579C433ED0AA
:1045200082579C43DC436247E3E9E7FE82579843A6
:10453000F24798C38257724798C397C70100938781
:10454000A7E99843B257DC431D8F97C701009387B3
:10455000A7E898C3EFD0DFD8925799E3EF00D031A6
:1045600092573E85F25021618280797106D62AC623
:10457000B2473ECCB247BDC3A147B307F040624744
:10458000BA973ECCE2473ECAEFD0DFD3D247DC43F6
:104590003EC8975703009387E70F3ECE21A0F2470E
:1045A0009C433ECEF2479C43DC434247E3E9E7FEAF
:1045B000F2479843D24798C3F247524798C3D2472D
:1045C000D84397C70100938727E19C433E9797C73D
:1045D0000100938767E098C3EFD09FD00100B250ED
:1045E0004561828097C70100938707DF9C433E8522
:1045F000828001008280411197C701009387C7091B
:10460000F19B3EC6975703009387C708324798C36C
:10461000975703009387070823A2070097570300C3
:104620009387C70765677117D8C3975703009387A8
:10463000E70623A00700B2473EC4A247656771178B
:10464000D8C3A247175703001307470598C30100B3
:104650004101828001112AC62EC432C2A2473ECE39
:10466000B2473ECC3247A247D98F8D8BA1E319A820
:10467000F2479843E24798C3E24791073ECCF2479E
:1046800091073ECE9247F5173247BA976247E361EA
:10469000F7FE29A87247930717003ECEE24793869C
:1046A000170036CC034707002380E70032479247C4
:1046B000BA976247E360F7FEB2473E8505618280A4
:1046C00001112AC62EC432C232479247D98F8D8B30
:1046D0009DEFA24793F7F70F3ECAD247A207524772
:1046E000D98F3ECAD247C2075247D98F3ECAB24776
:1046F0003ECE39A0F247138747003ACE524798C3BF
:1047000032479247BA977247E366F7FE1DA0B24759
:104710003ECC11A8E247138717003ACC2247137703
:10472000F70F2380E70032479247BA976247E36367
:10473000F7FEB2473E850561828001112AC6B24765
:104740003ECE21A0F24785073ECEF24783C7070041
:10475000F5FB7247B247B307F7403E85056182809B
:1047600001112AC62EC4B247138717003AC683C761
:104770000700A30FF100A247138717003AC483C7AD
:104780000700230FF1008347F10199C70347F101A7
:104790008347E101E309F7FC0347F1018347E101A6
:1047A000B307F7403E850561828001112AC62EC4F9
:1047B000B2473ECE01002247930717003EC4F2479E
:1047C0009386170036CE034707002380E70083C790
:1047D0000700F5F3B2473E850561828001112AC6C4
:1047E00002CE02CC21A0B24785073EC6B24703C71E
:1047F000070093070002E308F7FEB24703C707006C
:104800009307D0026309F700B24703C70700930775
:10481000B0026311F704B24783C70700938737FDDF
:1048200093B7170093F7F70F3ECCB24785073EC604
:1048300015A07247BA878A07BA9786073ECEB24755
:10484000138717003AC683C70700938707FD72478F
:10485000BA973ECEB24783C70700E1FFE24789C758
:10486000F247B307F04011A0F2473E850561828010
:1048700001112AC6975703009387C7E49C43938688
:104880001700175703001307E7E314C332471377E2
:10489000F70F975603009386E6E6B6972380E70066
:1048A0003247A947630BF70097570300938787E1C7
:1048B0009843930700046315F70497570300938701
:1048C00067E43ECE05A8F247138717003ACE03C728
:1048D0000700B70710F0938707F098C397570300B6
:1048E000938747DE9C431387F7FF9757030093870F
:1048F00067DD98C3975703009387C7DC9C43E1F7B4
:1049000081473E85056182804D7123261114232441
:1049100081142322911423202115232E3113232CBB
:104920004113232A51132ACE2ECC32C836CA3AC696
:104930003EC442C223260112B2473E8A814AC24780
:1049400052485286D6863E85C285EF106007AA87F8
:104950002E883E86C2868327C1121387170023261E
:10496000E11232878A07141AB69723AEE7EEB247F0
:104970003E848144D247268763E8E702D2472687F0
:104980006396E700C247228763E0E702B2473E89A9
:1049900081494A86CE864245D245EF00B024AA8797
:1049A0002E883EC842CA49BF010029A0F247E2450D
:1049B00012458297A2471387F7FF3AC40327C11213
:1049C000E346F7FE25A88327C1128A07181ABA976B
:1049D00003A7C7EF8327C1128A07141AB69783A6C5
:1049E000C7EFA54763F5D7009307700519A0930794
:1049F0000003BA977247E2453E8502978327C112AA
:104A00001387F7FF2326E112E34FF0FA010083201A
:104A1000C11403248114832441140329011483291C
:104A2000C113032A8113832A4113716182804111CA
:104A30002AC62EC4A2460547635ED700B2479C43F0
:104A40009D07E19B93868700324714C303A8470064
:104A50009C4335A0224719CB324718431306470021
:104A6000B24690C21843BA87014811A8324718438A
:104A700013064700B24690C21843BA8701483E85E4
:104A8000C2854101828041112AC62EC4A246054733
:104A9000635ED700B2479C439D07E19B93868700E6
:104AA000324714C303A847009C4305A8224701CFFF
:104AB0003247184313064700B24690C21843BA87DC
:104AC0007D873A8819A83247184313064700B24633
:104AD00090C21843BA877D873A883E85C2854101D6
:104AE0008280397106DE22DC26DA2AC62EC432C262
:104AF00036C011A863070424924785073EC2B24717
:104B0000A24522858297924783C707003E84930778
:104B10005002E311F4FE924785073EC292473EC819
:104B200093070002A30BF100FD573ECEFD573ECC8C
:104B300002D09247138717003AC283C707003E840A
:104B40009307D4FD130750056364F71E13972700DE
:104B500097B7010093870752BA97984397B7010018
:104B600093874751BA9782879307D002A30BF1002E
:104B7000C9B793070003A30BF10065BF02CC6247DE
:104B8000BA878A07BA978607A297938707FD3ECC14
:104B9000924783C707003E849307F00263D68702DB
:104BA0009307900363C28702924785073EC2C1BF45
:104BB0008247138747003AC09C433ECC39A0F24756
:104BC000E3D907F602CEB5B70100F247E3D307F603
:104BD000E2473ECEFD573ECCA9BF825785073ED067
:104BE00089BF8247138747003AC09C433247A2459A
:104BF0003E850297B1A28247138747003AC084439B
:104C000089E497B4010093846446F2476357F00443
:104C1000034771019307D0026301F704E247BE85A1
:104C20002685EF00E0792A87F247998F3ECE11A8BA
:104C3000834771013247A2453E850297F247FD172F
:104C40003ECEF247E346F0FE09A8B247A2452285D0
:104C500082978504F247FD173ECE83C704003E8449
:104C60001DC0E247E3C307FEE247FD173ECCE24723
:104C7000E3DD07FC09A8B247A245130500028297AD
:104C8000F247FD173ECEF247E347F0FE55A88A876C
:104C900082553E85CD3BAA872E883ED442D6A25768
:104CA0003258C28763D90702B247A2451305D00222
:104CB0008297A255325681470148B386B740368560
:104CC00033B5A7003307C840B307A7403E87B68770
:104CD0003A883ED442D6A9473ED21DA8A9473ED223
:104CE00015A0A1473ED239A885473ED0B247A2457C
:104CF000130500038297B247A245130580078297E8
:104D0000C1473ED28A8782553E8515332AD42ED696
:104D10001257834771013E88F2472256B256A24588
:104D20003245DD3631A8B247A2452285829709A8CF
:104D3000B247A245130550028297C2473EC2010006
:104D4000D9B30100F2506254D254216182804111E2
:104D50002AC6B70710F0938707F2324798C301A01D
:104D60005D7106D62AC62EDA32DC36DEBAC0BEC285
:104D7000C2C4C6C69C0891173ECEF247BE863246D4
:104D80008145170500001305E5AEA13B81473E852F
:104D9000B2506161828001112AC62EC41EC2A24790
:104DA0003ECEF2479C4332471377F70F2380E7004C
:104DB000F2479C4313871700F24798C3010005612F
:104DC00082801D7106DE2AC62EC4B2C4B6C6BAC819
:104DD000BECAC2CCC6CE9C103ED25C084C08170698
:104DE0000000130686FB7D779346F7FF05651305E4
:104DF00005803388A5003378E8001368783B23A04A
:104E000007013295698F13677733D8C333F7D5001D
:104E10009315470137870300130737394D8F98C71C
:104E20003377D60093164701370703001307770639
:104E3000558FD8C70F100000B2473ED69C10A1175F
:104E40003ED422575C083E857C00BA862246BE8549
:104E50004939B24723800700B2473E87B257B307AC
:104E6000F7403E85F250256182804111370510F0F0
:104E7000130545F408412AC6370510F0130505F45B
:104E800008412AC4370510F0130545F40841B2481B
:104E9000E39EA8FC32452A83814313170300814611
:104EA0002245AA850146B3E7B6003368C700370735
:104EB00010F0130587F48565938505FA0146B386DE
:104EC000B700B688B3B8F8003307C800B387E80066
:104ED0003E87B6873A881CC12322050101004101A3
:104EE0008280411106C651379307000873A04730EE
:104EF0000100B24041018280011106CE2AC617B5D9
:104F000001001305A52CEFF0BFE50100F24005619B
:104F10008280011106CE2AC617B501001305852B24
:104F2000EFF01FE40100F24005618280797106D63E
:104F30002AC602CE29A00100F24785073ECE72475D
:104F4000856793877738E3D8E7FE17B50100130527
:104F5000E528EFF0FFE0F1BF411106C60D2A010080
:104F6000B24041018280011106CE02C635292A874E
:104F70008547630CF70017B501001305A526EFF070
:104F80003FDEB24793E727003EC6B2473E85F24078
:104F900005618280011106CE02C67D3F1707000021
:104FA00013076704814605469305400617B50100BF
:104FB0001305C524EFE0BF9C2AC6B24799CBEFD0BA
:104FC000EFC6AA87014781463E8685453245EFE018
:104FD0003FA102C4EFD02FA581473E85F240056175
:104FE0008280797106D62AC697B701009387C73D9C
:104FF0009C431387470697B701009387E73C98C304
:1050000097B701009387873C9C431387470697B760
:1050100001009387A73B98C397B701009387C73ACE
:1050200098439307F07C63D3E70497B70100938715
:10503000A7399C431387078397B701009387C73825
:1050400098C315372ACEF24799EB97B7010093879B
:10505000E737984385679387F77663DBE700F24786
:105060003E85EFF0DFCEEFD0EFA321A0010011A02D
:105070000100B250456182807370043001A00100CC
:10508000828041112AC62EC47370043001A0011120
:1050900006CE02C402C6BDA0014691450545EFB04B
:1050A0003FB8AA86174703001307C769B2478A07A4
:1050B000BA9794C3014691450545EFB07FB6AA86DD
:1050C0001747030013070769B2478A07BA9794C3C3
:1050D0001747030013070767B2478A07BA979C432D
:1050E000380081460146BA853E85EFB01FD432466E
:1050F00085451705000013056513EFB0AFC6B2472D
:1051000085073EC632478D47E3F8E7F80100F240D5
:1051100005618280011106CE974703009387C7641B
:105120009C4313871700974703009387E76398C34F
:10513000974703009387476398439307301F63F1B2
:10514000E70E974703009387276223A0070002C654
:10515000ADA002C2174703001307C75EB2478A0714
:10516000BA979C43540038003686BA853E85EFC016
:105170006FED2A8785476309F700974703009387F8
:10518000675E054798C33DA0224797470300938772
:10519000E75D9C436308F700974703009387875CAC
:1051A000054798C3924799C7974703009387875B42
:1051B000054798C3B24785073EC632478D47E3DAB5
:1051C000E7F8974703009387675A9C4313871700B4
:1051D000974703009387875998C302C635A8174796
:1051E000030013072757B2478A07BA979C43014623
:1051F00097450300938585573E85EFC00FE02A87CA
:1052000085476308F700974703009387A75505472D
:1052100098C3B24785073EC632478D47E3D1E7FCC6
:105220000100F24005618280797106D62AC62EC43B
:10523000B24783D747031307901D6388E70A130714
:10524000901D6348F70099CF1307801D638EE70414
:1052500089AA1307E01E6388E70E1307F01E638513
:10526000E71281A202CE174703001307A74EA247F9
:105270008A07BA979443A2471397270097470300DA
:105280009387074FBA977D56BE853685EFC08FCB83
:10529000AA873ECE7247F157631FF702B247130742
:1052A000801D239AE702F5A8174703001307874AD2
:1052B000A2478A07BA979443A247139727009747B4
:1052C00003009387E74ABA970146BE853685EFC04B
:1052D0006FC7AA873ECE7247ED57631AF700B247F1
:1052E0001307901D239AE7026DA885473ECE7247AB
:1052F00085476308F700974703009387A74605474C
:1053000098C302CE174703001307C743A2478A0773
:10531000BA979443A24713972700974703009387B0
:105320002745BA970146BE853685EFC04FB9AA8793
:105330003ECE7247F157631FF702B2471307E01ED4
:10534000239AE702B9A8174703001307A73FA2470C
:105350008A07BA979443A2471397270097470300F9
:1053600093870741BA970146BE853685EFC02FB5B2
:10537000AA873ECE7247ED57631AF700B24713076C
:10538000F01E239AE70231A885473ECE7247854733
:10539000E30AF7EC974703009387C73C054798C398
:1053A000D1B5B25045618280974703009387873B10
:1053B0009C4399C3814711A085473E8582800000A8
:1053C000B305B500930705006386B70003C7070060
:1053D000631607003385A740678000009387170096
:1053E0006FF09FFE130101FD23229102232A510138
:1053F000232611022324810223202103232E31019D
:10540000232C4101232861012326710123248101DA
:10541000232291012320A101930A05009384050012
:10542000639E0638130406009309050017B90100AE
:10543000130989DD63F8C512B7070100138B050056
:105440006378F6101307F00F3337C70013173700D0
:10545000B357E6003309F900834609003387E600B5
:1054600093060002B386E640638C0600B394D40032
:1054700033D7EA003314D600336B9700B399DA00C0
:10548000935A040193850A0013050B00EF00902A3C
:105490001309050093850A00931B040113050B00F3
:1054A000EF00D02493DB0B01930405009305050066
:1054B00013850B00EF00D0201319090193D70901C0
:1054C000B367F900138A040063FEA700B38787005F
:1054D000138AF4FF63E8870063F6A700138AE4FFEA
:1054E000B3878700B384A74093850A00138504001F
:1054F000EF0050241309050093850A00138504006A
:10550000EF00D01E9399090193040500930505004F
:105510001319090113850B0093D90901EF00501AE3
:10552000B36939011386040063FCA900B30934018F
:105530001386F4FF63E6890063F4A9001386E4FF91
:1055400013140A013364C400130A00006F0000132F
:10555000B707000113070001E36CF6EE13078001A3
:105560006FF01FEF138A0600631A06009305000010
:1055700013051000EF00901713040500B707010092
:10558000637EF4129307F00F63F48700130A800020
:10559000B35744013309F900034709009306000299
:1055A00033074701B386E64063940612B384844010
:1055B000130A1000135B040193050B00138504000C
:1055C000EF0050171309050093050B001385040025
:1055D000931B0401EF00901193DB0B019304050072
:1055E0009305050013850B00EF00900D13190901B9
:1055F00093D70901B367F900938A040063FEA700FB
:10560000B3878700938AF4FF63E8870063F6A700F7
:10561000938AE4FFB3878700B384A74093050B0008
:1056200013850400EF0010111309050093050B000A
:1056300013850400EF00900B939909019304050072
:10564000930505001319090113850B0093D909016E
:10565000EF001007B36939011386040063FCA90049
:10566000B30934011386F4FF63E6890063F4A900EB
:105670001386E4FF13940A013364C4001305040085
:1056800093050A008320C10203248102832441027E
:10569000032901028329C101032A8101832A4101CF
:1056A000032B0101832BC100032C8100832C4100BB
:1056B000032D01001301010367800000B7070001FB
:1056C000130A0001E366F4EC130A80016FF05FEC4B
:1056D0003314D40033DAE400B399DA0033D7EA00A4
:1056E000935A0401B394D40093850A0013050A0069
:1056F000336B9700EF0010041309050093850A002F
:1057000013050A00931B0401EF00407E93DB0B019D
:10571000930405009305050013850B00EF00407A04
:105720001319090113570B013367E900138A0400A9
:10573000637EA70033078700138AF4FF636887003E
:105740006376A700138AE4FF33078700B304A740FA
:1057500093850A0013850400EF00C07D130905003E
:1057600093850A0013850400EF0040789304050038
:105770009305050013850B00EF00807413170B01D0
:105780001357070113190901B367E90013870400D0
:1057900063FEA700B38787001387F4FF63E88700E1
:1057A00063F6A7001387E4FFB3878700131A0A0183
:1057B000B384A740336AEA006FF0DFDF63ECD51EE5
:1057C000B707010063F4F6041307F00FB335D700F1
:1057D0009395350033D7B60097B701009387C7A2DA
:1057E000B387E70003C70700130A00023307B700B7
:1057F000330AEA4063160A0213041000E3E096E855
:1058000033B6CA00134416006FF05FE7B707000114
:1058100093050001E3E0F6FC930580016FF09FFB28
:10582000B35CE600B3964601B3ECDC0033D4E4008D
:1058300093DB0C01B397440133D7EA0093850B0047
:1058400013050400336BF700B3194601EF00806EB7
:105850001309050093850B0013050400139C0C012C
:10586000EF00C068135C0C0193040500930505006C
:1058700013050C00EF00C0641319090113570B0145
:105880003367E90013840400637EA70033079701A0
:105890001384F4FF636897016376A7001384E4FF21
:1058A00033079701B304A74093850B0013850400C9
:1058B000EF0040681309050093850B001385040071
:1058C000EF00C062930405009305050013050C006A
:1058D000EF00005F93170B011319090193D707011C
:1058E000B367F9001386040063FEA700B38797012E
:1058F0001386F4FF63E8970163F6A7001386E4FFBD
:10590000B387970113140401B70B01003364C4007B
:105910001389FBFF337D240133F92901B384A740A8
:105920009305090013050D00EF008059935C0401F5
:1059300093050900130B050013850C00EF00405878
:1059400093D90901130C05009385090013850C00F8
:10595000EF000057130905009385090013050D009A
:10596000EF0000563305850193570B013385A700DF
:10597000637485013309790193570501B3872701C2
:1059800063E6F402E392F4BCB70701009387F7FFE4
:105990003375F50013150501337BFB0033964A017F
:1059A00033056501130A0000E37AA6CC1304F4FF63
:1059B0006FF09FB9130A0000130400006FF01FCCB2
:1059C000130101FB2324810423229104232E31039C
:1059D000232291032326110423202105232C410394
:1059E000232A5103232861032326710323248103DF
:1059F0002320A103232EB101930C050093890500F8
:105A00001304050093840500639E0626130906000F
:105A1000138A060097AA0100938A0A7F63F4C514CB
:105A2000B70701006376F6129307F00F63F4C7001F
:105A3000130A8000B3574601B38AFA0003C70A006D
:105A40001305000233074701330AE540630C0A00DF
:105A5000B395490133D7EC0033194601B364B7005D
:105A600033944C01935A090193850A00138504006D
:105A7000EF00404C9309050093850A00131B0901B0
:105A800013850400EF008046135B0B0193050500AE
:105A900013050B00EF00C0429399090193570401CD
:105AA000B3E7F90063FAA700B387270163E627018C
:105AB00063F4A700B3872701B384A74093850A0046
:105AC00013850400EF0000479309050093850A0041
:105AD00013850400EF0080411314040193050500B1
:105AE0009399090113050B0013540401EF00403D85
:105AF00033E48900637AA40033042401636624013B
:105B00006374A400330424013304A44033554401D6
:105B1000930500008320C1040324810483244104ED
:105B2000032901048329C103032A8103832A410332
:105B3000032B0103832BC102032C8102832C41021E
:105B4000032D0102832DC1011301010567800000AF
:105B5000B7070001130A0001E36EF6EC130A800197
:105B60006FF05FED631A0600930500001305100047
:105B7000EF00C03713090500B7070100637AF90E7B
:105B80009307F00F63F42701130A8000B35749010C
:105B9000B38AFA0003C70A0013050002B38429413F
:105BA00033074701330AE540E30E0AEA3319490196
:105BB000B3DAE900B395490133D7EC0093540901F6
:105BC000336BB70013850A0093850400EF0080361D
:105BD0009309050093850400931B090113850A00AE
:105BE000EF00C03093DB0B019305050013850B001C
:105BF000EF00002D9399090193570B01B3E7F900CA
:105C000033944C0163FAA700B387270163E62701A9
:105C100063F4A700B3872701B38AA74093850400E4
:105C200013850A00EF0000319309050093850400F5
:105C300013850A00EF00802B9305050013850B00E8
:105C4000EF00002893150B019399090193D50501E5
:105C5000B3E5B90063FAA500B385250163E6250124
:105C600063F4A500B3852501B384A5406FF09FDFE1
:105C7000B7070001130A0001E36AF9F0130A800173
:105C80006FF0DFF0E3E8D5E8B707010063FCF60446
:105C9000930BF00F33B5DB001315350033D7A60097
:105CA00097A7010093874756B387E70083CB070088
:105CB00093050002B38BAB00338B7541631E0B025F
:105CC00063E4360163EACC003384CC40B386D94028
:105CD00033B58C00B384A6401305040093850400FB
:105CE0006FF05FE3B707000113050001E3E8F6FA80
:105CF000130580016FF09FFAB3966601335D76015C
:105D0000336DDD0033D47901B395690133DC7C0157
:105D100093540D01336CBC001305040093850400FB
:105D2000B31A6601EF000021130A050093850400F1
:105D30001305040033996C01931C0D01EF00001B47
:105D400093DC0C01130405009305050013850C007A
:105D5000EF000017131A0A0113570C013367EA000A
:105D6000130A0400637EA7003307A701130AF4FF98
:105D70006368A7016376A700130AE4FF3307A7014E
:105D8000B309A7409385040013850900EF00801A2A
:105D9000938504001304050013850900EF00001526
:105DA000930505009304050013850C00EF004011D6
:105DB00093150C011314040193D50501B365B400C8
:105DC0001387040063FEA500B385A5011387F4FFC4
:105DD00063E8A50163F6A5001387E4FFB385A50179
:105DE000131A0A01B70C0100336AEA001384FCFF9E
:105DF000B3778A0033F48A00B384A5401385070083
:105E0000930504002326F100135A0A01EF00400B0A
:105E1000930905009305040013050A00EF00400AEA
:105E200013DC0A01930D050093050C0013050A000D
:105E3000EF0000098327C100130A050093050C0039
:105E400013850700EF00C0073305B50113D709011B
:105E50003307A7006374B701330A9A01B70701003B
:105E60009387F7FF935507013377F700131707015F
:105E7000B3F7F900B3854501B307F70063E6B40053
:105E8000639EB400637CF90033865741B3B7C70003
:105E9000B385A541B385F54093070600B307F940E4
:105EA0003339F900B385B440B38525413394750186
:105EB000B3D767013365F400B3D565016FF09FC5B3
:105EC000130605001305000093F615006384060011
:105ED0003305C50093D5150013161600E39605FE8D
:105EE000678000006340050663C60506138605004B
:105EF000930505001305F0FF630C060293061000DE
:105F0000637AB6006358C000131616009396160005
:105F1000E36AB6FE1305000063E6C500B385C5401D
:105F20003365D50093D6160013561600E39606FE89
:105F30006780000093820000EFF05FFB138505008F
:105F4000678002003305A04063D80500B305B04068
:105F50006FF0DFF9B305B04093820000EFF01FF956
:105F60003305A040678002009382000063CA0500E9
:105F7000634C0500EFF09FF7138505006780020072
:105F8000B305B040E35805FE3305A040EFF01FF61F
:085F90003305B04067800200F8
:02000004800278
:1000000049444C45000000002C36FEFFF435FEFF4D
:100010000236FEFF1036FEFF1836FEFF3C37FEFFAD
:100020000437FEFF1237FEFF2037FEFF2837FEFFA2
:10003000546D722053766300C03CFEFFC03CFEFF4F
:10004000C03CFEFF3E3DFEFF0E3DFEFF343DFEFF89
:10005000C03CFEFFC03CFEFF3E3DFEFF0E3DFEFFEE
:10006000546D725100000000286E756C6C29000000
:10007000C24AFEFFC04CFEFFB64CFEFFC04CFEFF66
:10008000C04CFEFFC04CFEFFC04CFEFF404BFEFFCD
:10009000C04CFEFFC04CFEFFF84AFEFF4E4BFEFF79
:1000A000C04CFEFF024BFEFF0C4BFEFF0C4BFEFF55
:1000B0000C4BFEFF0C4BFEFF0C4BFEFF0C4BFEFFF0
:1000C0000C4BFEFF0C4BFEFF0C4BFEFFC04CFEFF2B
:1000D000C04CFEFFC04CFEFFC04CFEFFC04CFEFFFC
:1000E000C04CFEFFC04CFEFFC04CFEFFC04CFEFFEC
:1000F000C04CFEFFC04CFEFFC04CFEFFC04CFEFFDC
:10010000C04CFEFFC04CFEFFC04CFEFFC04CFEFFCB
:10011000C04CFEFFC04CFEFFC04CFEFFC04CFEFFBB
:10012000C04CFEFFC04CFEFFC04CFEFFC04CFEFFAB
:10013000C04CFEFFC04CFEFFC04CFEFFC04CFEFF9B
:10014000C04CFEFFC04CFEFFC04CFEFFC04CFEFF8B
:10015000C04CFEFFC04CFEFFC04CFEFFC04CFEFF7B
:10016000C04CFEFFC04CFEFFC04CFEFFC04CFEFF6B
:10017000724BFEFF1E4CFEFFC04CFEFFC04CFEFF4C
:10018000C04CFEFFC04CFEFFC04CFEFFC04CFEFF4B
:10019000C04CFEFF6A4BFEFFC04CFEFFC04CFEFF92
:1001A000724CFEFF784CFEFFC04CFEFFC04CFEFFC1
:1001B000864BFEFFC04CFEFF6C4CFEFFC04CFEFFAA
:1001C000C04CFEFF904CFEFF6D69616F750A000028
:1001D0006D69616F75320A0068756E6772790A0021
:1001E0004572726F7220696E20787878207461731E
:1001F0006B73200D0A000000436865636B54696DE2
:1002000065720000000102020303030304040404F6
:100210000404040405050505050505050505050592
:100220000505050506060606060606060606060672
:10023000060606060606060606060606060606065E
:100240000606060607070707070707070707070742
:10025000070707070707070707070707070707072E
:10026000070707070707070707070707070707071E
:10027000070707070707070707070707070707070E
:1002800007070707080808080808080808080808F2
:1002900008080808080808080808080808080808DE
:1002A00008080808080808080808080808080808CE
:1002B00008080808080808080808080808080808BE
:1002C00008080808080808080808080808080808AE
:1002D000080808080808080808080808080808089E
:1002E000080808080808080808080808080808088E
:1002F000080808080808080808080808080808087E
:0403000008080808D9
:100304001000000000000000017A5200017C01018D
:100314001B0D02004C00000018000000C450FEFF3A
:10032400DC05000000440E307089039507810188C4
:100334000292049305940696089709980A990B9AD1
:100344000C0370020AC144C844C944D244D344D4FF
:1003540044D544D644D744D844D944DA440E00445E
:100364000B00000050000000680000005056FEFF23
:100374000005000000440E50748802890393059917
:100384000B810192049406950796089709980A9A96
:100394000C9B0D0320010AC144C844C944D244D370
:1003A40044D444D544D644D744D844D944DA44DB6D
:0803B400440E00440B000000A0
:1003CC00AAAAAAAA08000000FC8F010009000000DC
:040000058000004037
:00000001FF
