:0200000480007A
:10000000B72F0000938F0F8073900F306F00400365
:100010001300000013000000130000001300000094
:100020001300000013000000130000001300000084
:100030001300000013000000130000001300000074
:100040009702000093824211739052309300000097
:10005000130100009301000013020000930200004E
:100060001303000093030000130400009304000036
:10007000130500009305000013060000930600001E
:100080001307000093070000130800009308000006
:100090001309000093090000130A0000930A0000EE
:1000A000130B0000930B0000130C0000930C0000D6
:1000B000130D0000930D0000130E0000930E0000BE
:1000C000130F0000930F000097110200938181C964
:1000D000170502001305055B979503009385457A84
:1000E00013060000EF00001A170502001305454033
:1000F000970502009385854613060000EF008018DF
:1001000017A503001305057897B503009385457778
:1001100037B6ABAB1306B6BAEF00C01617B1030083
:1001200013014176EFA050189392120093D212005F
:100130009382D2FF638A02008322010013014100EF
:100140006F0000177300203083220100130141006B
:10015000730020301301C1FF23205100F32220340B
:10016000E3C402FC8322010013014100130141F8A2
:1001700023221100232421002326310023284100BB
:10018000232A5100232C6100232E71002320810299
:10019000232291022324A1022326B1022328C10293
:1001A000232AD102232CE102232EF1022320010570
:1001B0002322110523242105232631052328410567
:1001C000232A5105232C6105232E71052320810745
:1001D000232291072324A1072326B1072328C1073F
:1001E000232AD107232CE107232EF107732520347E
:1001F000F3251034130601006F000000731015344E
:1002000083204100032181008321C10003220101D9
:1002100083224101032381018323C10103240102BD
:1002200083244102032581028325C10203260103A1
:1002300083264103032781038327C1030328010485
:1002400083284104032981048329C104032A010569
:10025000832A4105032B8105832BC105032C01064D
:10026000832C4106032D8106832DC106032E010731
:10027000832E4107032F8107832FC1071301C10775
:10028000730020302320C5006376B50013054500B8
:100290006FF05FFF678000000000000000000000BA
:1002A000000000000000000000000000000000004E
:1002B000130101F8232011002322210023243100FF
:1002C0002326410023285100232A6100232C71009A
:1002D000232E8100232091022322A1022324B10294
:1002E0002326C1022328D102232AE102232CF10272
:1002F000232E010323201105232221052324310568
:100300002326410523285105232A6105232C710545
:10031000232E8105232091072322A1072324B1073F
:100320002326C1072328D107232AE107232CF1071D
:100330009702020083A2021F23A02200F32210349E
:10034000232E5106EF00C03B170102000321811D3F
:10035000032101008322C10773901234B7220000E9
:100360009382028873A00230832001000322C1001F
:100370008322010103234101832381010324C1015D
:100380008324010203254102832581020326C10241
:100390008326010303274103832781030328C10325
:1003A000832801040329410483298104032AC10409
:1003B000832A0105032B4105832B8105032CC105ED
:1003C000832C0106032D4106832D8106032EC106D1
:1003D000832E0107032F4107832F81071301010893
:1003E00073002030970202009382C22923A01200DA
:1003F00023A2220023A4320023A6420023A85200F5
:1004000023AA620023AC720023AE820023A09202D2
:1004100023A2A20223A4B20223A6C20223A8D202CC
:1004200023AAE20223ACF20223AE020323A01205A8
:1004300023A2220523A4320523A6420523A85205A0
:1004400023AA620523AC720523AE820523A092077E
:1004500023A2A20723A4B20723A6C20723A8D20778
:1004600023AAE20723ACF207EF60903117010200E4
:100470000321410B032101008322C1077390123431
:10048000B72200009382028873A00230832001000B
:100490000322C1008322010103234101832381013F
:1004A0000324C10183240102032541028325810223
:1004B0000326C10283260103032741038327810307
:1004C0000328C103832801040329410483298104EB
:1004D000032AC104832A0105032B4105832B8105CF
:1004E000032CC105832C0106032D4106832D8106B3
:1004F000032EC106832E0107032F4107832F810797
:1005000013010108730020309702020093828217C2
:1005100083A0020003A1420083A1820003A2C200C3
:1005200083A2020103A3420183A3820103A4C201A7
:1005300083A4020203A5420283A5820203A6C2028B
:1005400083A6020303A7420383A7820303A8C2036F
:1005500083A8020403A9420483A9820403AAC20453
:1005600083AA020503AB420583AB820503ACC20537
:1005700083AC020603AD420683AD820603AEC2061B
:1005800083AE020703AFC20983AF82076780000012
:1005900073700430130101F823201100232221007D
:1005A000232431002326410023285100232A6100FF
:1005B000232C7100232E8100232091022322A102EB
:1005C0002324B1022326C1022328D102232AE102D7
:1005D000232CF102232E01032320110523222105C0
:1005E000232431052326410523285105232A6105AB
:1005F000232C7105232E8105232091072322A10797
:100600002324B1072326C1072328D107232AE10782
:10061000232CF1079702020083A2C2F023A022003C
:10062000232E1106EF30003317010200032181EF62
:10063000032101008322C10773901234B722000006
:100640009382028873A00230832001000322C1003C
:100650008322010103234101832381010324C1017A
:100660008324010203254102832581020326C1025E
:100670008326010303274103832781030328C10342
:10068000832801040329410483298104032AC10426
:10069000832A0105032B4105832B8105032CC1050A
:1006A000832C0106032D4106832D8106032EC106EE
:1006B000832E0107032F4107832F810713010108B0
:1006C00073002030737004306F00000073104530E9
:1006D000678000007325403073F04330678000006E
:1006E00097070000938747FE232EB5FE2322C5FA05
:1006F000232635F82320F5F8130505F86780000058
:10070000130101FF23261100EF605004EF20805CED
:10071000631805008320C1001301010167800000F8
:100720008320C100130101016F30C02293078500AF
:100730001307F0FF2322F5002324E5002326F5000C
:100740002328F500232005006780000023280500EA
:10075000678000008327450023A2F50003A78700D8
:1007600023A4E50003A787002322B70023A4B70032
:1007700023A8A50083270500938717002320F500F1
:100780006780000003A605009307F0FF13078500AC
:100790006316F6006F008003138707008327470066
:1007A00083A60700E37AD6FE23A2F50023A4B700B0
:1007B00023A4E5002322B70023A8A5008327050072
:1007C000938717002320F5006780000003270501A9
:1007D000832747006FF05FFD0327450083268500D0
:1007E000832705012324D70003278500832645009E
:1007F0002322D70003A747006316A700032785001D
:1008000023A2E7002328050003A507001305F5FF31
:1008100023A0A70067800000032605049387050036
:10082000630406028325C50003274500B385C50080
:100830002326B50063E6E500832505002326B500E1
:10084000138507006F50C04C67800000130101FF43
:100850002324810023261100130405002322910084
:10086000EF30904283278404635AF00483274402C4
:1008700063860704930444026F0000028327840404
:100880009387F7FF2324F404832784046358F0023A
:10089000832744026384070213850400EF30C06D90
:1008A000E30E05FCEF30901A832784049387F7FF4B
:1008B0002324F40483278404E34CF0FC9307F0FF23
:1008C0002324F404EF30903FEF30103C832744049E
:1008D000635AF00483270401638607049304040128
:1008E0006F000002832744049387F7FF2322F40458
:1008F000832744046358F0028327040163840702BA
:1009000013850400EF304067E30E05FCEF30101450
:10091000832744049387F7FF2322F40483274404A6
:10092000E34CF0FC9307F0FF2322F404032481003E
:100930008320C10083244100130101016F3010386E
:1009400063000508130101FF232481002322910085
:10095000130405002326110093840500EF30D032E4
:10096000832604048327C40303270400232C0402E2
:10097000B387F6021306F0FF2322C4042324E40005
:100980002324C404B386D740B307F7003307D70046
:100990002322F4002326E400639804028327040141
:1009A000639E0702EF3090318320C1000324810051
:1009B000832441001305100013010101678000002A
:1009C000737004306F00000013050401EFF01FD6B0
:1009D00013054402EFF09FD56FF0DFFC130504010F
:1009E000EF30805993071000E31EF5FAEFF05FBA7D
:1009F0006FF05FFB63160500737004306F0000003A
:100A0000130101FE232A910023282101232631010D
:100A1000232E1100232C8100930906001389050061
:100A200093040500638E05083305B50213055505CB
:100A3000EF50800D13040500630C0508930745056E
:100A40002320F500232E940223202405EF30D02309
:100A5000832604048327C403032704001306F0FF3E
:100A6000B387F602232C04022322C4042324E400C7
:100A70002324C40413050401B386D740B307F70049
:100A80003307D7002322F4002326E400EFF01FCA27
:100A900013054402EFF09FC9EF30502223083405BC
:100AA000130504008320C101032481018324410133
:100AB000032901018329C10013010102678000009D
:100AC00013054005EF5040041304050063160500AC
:100AD000737004306F000000232084006FF09FF6D5
:100AE00063160500737004306F0000006376B50074
:100AF000737004306F000000130101FF2324810094
:100B0000130620001384050093050000232611001E
:100B1000EFF05FEE630C0500232C85028320C100FB
:100B20000324810013010101678000007370043009
:100B30006F000000130101FB23261104232481040C
:100B40002322910423202105232E3103232C41034A
:100B5000232A510323286103232671032326C1007E
:100B600063060528638C052693072000639CF60026
:100B70000327C503930710006306F7007370043062
:100B80006F0000001389060093840500130405001C
:100B9000EF30C06F631A05008327C100638607002A
:100BA000737004306F000000EF30100E03278403D1
:100BB0008327C403130B0000930B20009309F0FF5D
:100BC000130A0401930A44026364F710630479234F
:100BD0008327C1006382073663160B00130581016A
:100BE000EF304054EF30900DEF20C000EF30D009CF
:100BF0008327440463943701232204048327840455
:100C00006394370123240404EF30500B9305C10093
:100C100013058101EF30005463160530EF30D00624
:100C2000032784038327C4036304F710EF301009FC
:100C3000EF309005832784046346F0026F000003C1
:100C400013850A00EF30403363040500EF30006085
:100C5000832784049387F7FF2324F40483278404E1
:100C60006356F00083274402E39C07FC23243405E9
:100C7000EF30D004EF305001832744046346F00284
:100C80006F00000313050A00EF30002F6304050016
:100C9000EF30C05B832744049387F7FF2322F404DB
:100CA000832744046356F00083270401E39C07FC78
:100CB00023223405EF309000EF204027130B100063
:100CC000EF30807C032784038327C403E370F7F0AD
:100CD0000326040463040612631A091E0325840014
:100CE00093850400EF50C002832784008326040408
:100CF00003274400B387D7002324F40063E4E710FC
:100D00008327840383260400032744029387170064
:100D10002324D400232CF40263000710130544029B
:100D2000EF308025930710006318F50E6F00401414
:100D3000EF30C0788325C10013050A00EF20D0767C
:100D4000EF308074832784046346F0026F00000351
:100D500013850A00EF30402263040500EF30004F96
:100D6000832784049387F7FF2324F40483278404D0
:100D70006356F00083274402E39C07FC23243405D8
:100D8000EF30C073EF304070832744046346F002B5
:100D90006F00000313050A00EF30001E6304050016
:100DA000EF30C04A832744049387F7FF2322F404DB
:100DB000832744046356F00083270401E39C07FC67
:100DC00023223405EF30806FEF204016E31805EE44
:100DD000EFF00FFC130B10006FF09FEE832705045C
:100DE000E38407D8737004306F0000007370043020
:100DF0006F00000003260404631006088327040024
:100E0000638607048327840303274402938717001C
:100E1000232CF402E31407F0EF30406A13051000AE
:100E20008320C10403248104832441040329010491
:100E30008329C103032A8103832A4103032B01036E
:100E4000832BC102130101056780000003254400C4
:100E5000EF308056832784030327440223220400B3
:100E600093871700232CF402E31A07EAE30605FA36
:100E7000EFF00FF26FF05FFA0325C40093850400D2
:100E8000EF401069832704040327C400832604006D
:100E9000B307F0403307F7002326E400637ED7044E
:100EA00003274400B307F7002326F40013072000AC
:100EB000832744026304E90403278403130717000C
:100EC000232CE402E38A07F46FF05FE50325C400F6
:100ED00093850400EF40D063832704040327C400F4
:100EE00083260400B307F0403307F7002326E4000D
:100EF000E37ED7FA6FF0DFFA8327440203278403E7
:100F0000E30C07FA032784031307F7FF232CE402FB
:100F10000327840313071700232CE402E38E07EE54
:100F20006FF0DFDF13050400EFF05F92EF200000A9
:100F3000130500006FF0DFEEEF304058130500009E
:100F40006FF01FEE130101FF2322910093040500AF
:100F5000130540052324810023261100EF40D03AD9
:100F600013040500630C0504232C05029307F0FF0E
:100F70002322F5041307100013050501232EE402B4
:100F80002324F40423220400232004002324040047
:100F9000232604002320040423089404EFF00FF90F
:100FA00013054402EFF08FF89306000013060000CB
:100FB0009305000013050400EFF0DFB713050400EC
:100FC0008320C10003248100832441001301010117
:100FD0006780000063040504130101FF23248100DE
:100FE00023229100232611002320210103294500FB
:100FF00013040500EF308028930400006304A90265
:101000008320C1000324810013850400032901000B
:1010100083244100130101016780000073700430D4
:101020006F0000008327C400930410009387F7FF2C
:101030002326F400E39607FC930600001306000045
:101040009305000013050400EFF0DFAE6FF05FFBC7
:101050006302050A63880508130101FE232C810041
:10106000232A91002328210123244101232E11004A
:1010700023263101930720009384060013090600FC
:10108000138A050013040500639CF6000327C503BB
:10109000930710006302F70A737004306F000000BA
:1010A000EFF04FE3032784038327C403930905006C
:1010B0006366F7049304000013850900EFF00FE165
:1010C0008320C10103248101138504000329010148
:1010D000832441018329C100032A810013010102F5
:1010E0006780000083270504E38807F673700430E7
:1010F0006F000000737004306F00000003260404CA
:10110000631E060C8327040063860712832784036B
:101110001307F0FF93871700232CF402832784041E
:101120006388E70E832784049304100093871700D5
:101130002324F4046FF05FF8EFF0CFD90327840382
:101140008327C403930905006360F706032604049C
:10115000E30A06FA0325C40093050A00EF40503B5A
:10116000832704040327C40083260400B307F04048
:101170003307F7002326E4006378D70003274400F1
:10118000B307F7002326F40093072000E390F4F858
:1011900083278403E38C07F6832784039387F7FF71
:1011A000232CF4026FF09FF603260404E30C06F4EC
:1011B0000325C40093050A00EF40903583270404FB
:1011C0000327C40083260400B307F0403307F70069
:1011D0002326E400E364D7FA6FF09FFBE39C04F658
:1011E0000325840093050A00EF4090328327840092
:1011F0008326040403274400B387D7002324F40084
:10120000E3E6E7F0832704002324F4006FF01FF0E7
:101210008327440293041000E38007EA1305440285
:10122000EF209055E30A05E8E30809E82320990038
:101230006FF09FE803254400EF30001823220400DC
:101240006FF0DFEC6302050A83270504638607005D
:10125000737004306F00000083270500638A07085D
:10126000130101FE232C8100232A910013040500A1
:101270002328210123263101232E11001389050083
:10128000EFF04FC5032784038327C40393090500A8
:10129000930400006376F702832784031307F0FFAB
:1012A00093871700232CF40283278404638AE704BE
:1012B0008327840493041000938717002324F404E5
:1012C00013850900EFF08FC08320C1010324810141
:1012D0001385040003290101832441018329C100EE
:1012E0001301010267800000737004306F0000007A
:1012F00083274500E38607F6737004306F00000013
:101300008327440263960700930410006FF05FFB8D
:1013100013054402EF205046E30805FEE30609FEEC
:10132000930710002320F9006FF01FFE130101FC4A
:10133000232E1102232C8102232A91022328210328
:101340002326310323244103232251032326C100F2
:1013500063060528638C0526938A06009389050099
:1013600013040500EF209072631A05008327C10063
:1013700063860700737004306F000000EF30C01008
:10138000832784036394071C8327C10063800710AD
:1013900013058101EF2010599304F0FF1309440253
:1013A000130A0401EF308011EF10D004EF30C00DAC
:1013B000832744046394970023220404832784042E
:1013C0006394970023240404EF30400F9305C10079
:1013D00013058101EF20105863100524EF30C00A77
:1013E00083278403638A070AEF30400DEF30C0097A
:1013F000832784046346F0026F000003130509008D
:10140000EF20903763040500EF20506483278404A5
:101410009387F7FF2324F404832784046356F000A2
:1014200083274402E39C07FC23249404EF30000943
:10143000EF308005832744046346F0026F00000309
:1014400013050A00EF20503363040500EF201060FD
:10145000832744049387F7FF2322F404832744045B
:101460006356F00083270401E39C07FC23229404C5
:10147000EF30C004EF10902BEF300001832784037E
:101480006396070C8327C100E39E07F0EF3000034B
:10149000130500006F00800FEF3040028327040027
:1014A000638807108325C10013050900EF20C07F62
:1014B000EF20907D832784046346F0026F000003D1
:1014C00013050900EF20502B63040500EF2010588E
:1014D000832784049387F7FF2324F4048327840459
:1014E0006356F00083274402E39C07FC2324940402
:1014F000EF20D07CEF205079832744046346F0022C
:101500006F00000313050A00EF2010276304050095
:10151000EF20D053832744049387F7FF2322F4045A
:10152000832744046356F00083270401E39C07FCEF
:1015300023229404EF209078EF10501F63040508D5
:10154000EF20907483278403E38E07F293850900CC
:10155000130504008324C400EFF00FAC63940A0861
:1015600083278403032704009387F7FF232CF402C7
:1015700063160700EF20D07B2322A40083270401F9
:1015800063920708EF209073130510008320C103B6
:101590000324810383244103032901038329C10216
:1015A000032A8102832A410213010104678000009B
:1015B000EF20906D03254400EF201050EF201070B5
:1015C0006FF05FEEEFE0DFFC6FF09FF7832705041D
:1015D000E38407D8737004306F0000007370043028
:1015E0006F0000008327440223269400E38C07F851
:1015F00013054402EF205018E30605F8EFE05FF909
:101600006FF05FF813050401EF2010179307100027
:10161000E31AF5F66FF09FFE13050400EFF00FA339
:10162000EF10D010130500006FF05FF663000506A1
:10163000130101FF2324810023202101232611000F
:10164000232291008324450013890500130405001B
:10165000EF20D0426380A404930600001306090023
:101660009305000013050400EFF05FCC9307100012
:10167000630CF5028320C100032481008324410010
:101680000329010013010101678000007370043019
:101690006F0000008327C400130510009387170014
:1016A0002326F4006FF01FFD8327C40093871700E3
:1016B0002326F4006FF01FFC630805066386050C03
:1016C000130101FE232C8100232A910023282101EC
:1016D000232631012324410113040500232E110088
:1016E0001309060093890500EFE0DFFE83278403DA
:1016F000130A050093040000639C070213050A0007
:10170000EFE0DFFC8320C101032481011385040085
:1017100003290101832441018329C100032A810097
:101720001301010267800000737004306F00000035
:1017300003260404630406028325C40083274400AF
:10174000B385C5002326B40063E6F50083250400B5
:101750002326B40013850900EF40805B83278403B0
:101760001307F0FF9387F7FF232CF4028327440429
:101770006384E702832744049304100093871700CF
:101780002322F4046FF09FF783270504E38A07F20E
:10179000737004306F000000832704016396070014
:1017A000930410006FF09FF513050401EF20C07C37
:1017B000E30805FEE30609FE930710002320F90065
:1017C0006FF01FFE6306050883270504638A05087A
:1017D00063840708130101FE232C8100232A910052
:1017E000232821012324410113040500232E110085
:1017F00023263101138A0500EFE0DFED8327840300
:101800001309050093040000638E07008329C400B8
:1018100093050A0013050400EFF00F8093041000F5
:101820002326340113050900EFE05FEA8320C1019C
:10183000032481011385040003290101832441014C
:101840008329C100032A810013010102678000007F
:10185000737004306F000000737004306F0000007C
:10186000E38C07FE737004306F0000006316050000
:10187000737004306F000000130101FF2324810006
:101880001304050023261100EF20104003248403D5
:10189000EF20D0428320C1001305040003248100FF
:1018A00013010101678000006316050073700430A6
:1018B0006F000000130101FF232611002324810083
:1018C00013040500EF20503C832784030324C40342
:1018D0003304F440EF20903E130504008320C10040
:1018E00003248100130101016780000063060500E5
:1018F0000325850367800000737004306F000000CB
:1019000063080504978703009387C7F303A747007D
:101910006304E50403A7C7006302E50803A74701C2
:10192000630AE50603A7C7016302E50603A74702AA
:10193000630AE50403A7C7026302E50403A747039C
:10194000630AE50203A7C7036302E5026F40C033E1
:10195000737004306F000000130700001317370086
:10196000B387E70023A007006F4000321307700021
:101970006FF0DFFE130760006FF05FFE130750008B
:101980006FF0DFFD130740006FF05FFD13073000BD
:101990006FF0DFFC130720006FF05FFC13071000EF
:1019A0006FF0DFFB0325C504678000002326B50424
:1019B0006780000003450505678000006308050097
:1019C000032585031335150067800000737004300C
:1019D0006F000000630C0500832785030325C50302
:1019E0003305F5401335150067800000737004302F
:1019F0006F000000978703009387C7E403A70700E1
:101A00006300070403A787006308070403A707010F
:101A10006308070403A787016308070403A70702F5
:101A20006308070403A787026308070403A70703E3
:101A3000630C070403A7870363040704678000009F
:101A40001307000013173700B387E70023A0B70080
:101A500023A2A70067800000130710006FF09FFE0D
:101A6000130720006FF01FFE130730006FF09FFD7B
:101A7000130740006FF01FFD130750006FF09FFC2D
:101A8000130770006FF01FFC130760006FF09FFBDF
:101A900097870300938707DB03A747006300E504EC
:101AA00003A7C7006306E50403A747016306E5042F
:101AB00003A7C7016306E50403A747026306E5041D
:101AC00003A7C7026306E50403A74703630AE50407
:101AD00003A7C7036302A704678000001307000081
:101AE00013173700B387E70023A0070067800000C3
:101AF000130710006FF0DFFE130720006FF05FFE8A
:101B0000130730006FF0DFFD130740006FF05FFD3B
:101B1000130750006FF0DFFC130770006FF05FFCDD
:101B2000130760006FF0DFFB130101FF2324810026
:101B300023229100232021011304050023261100F4
:101B40009384050013090600EF20101403274404B2
:101B50009307F0FF6314F70023220404032784048F
:101B60009307F0FF6314F70023240404EF201015FB
:101B700083278403639A07001306090093850400F2
:101B800013054402EF20802EEF20101083278404D9
:101B9000635AF004832744026386070493044402D3
:101BA0006F000002832784049387F7FF2324F40443
:101BB000832784046358F002832744026384070266
:101BC00013850400EF20403BE30E05FCEF20006886
:101BD000832784049387F7FF2324F4048327840452
:101BE000E34CF0FC9307F0FF2324F404EF20100DE6
:101BF000EF20900983274404635AF00483270401EB
:101C000063860704930404016F00000283274404E1
:101C10009387F7FF2322F404832744046358F002D8
:101C2000832704016384070213850400EF20C03476
:101C3000E30E05FCEF208061832744049387F7FFC0
:101C40002322F40483274404E34CF0FC9307F0FFC1
:101C50002322F404032481008320C1008324410053
:101C600003290100130101016F20500597F70100BE
:101C70009387478B83A6070017F70100130747894F
:101C80000327070023A2A600636AE504130101FFEE
:101C9000232481002326110017F70100130747882A
:101CA000130405000325070083A50700938545005D
:101CB000EFE05FAD97F701009387C78383A7070025
:101CC0006376F40097F7010023A687828320C10082
:101CD00003248100130101016780000017F7010050
:101CE0001307C7830325070083A5070093854500D5
:101CF0006FE05FA997F701009387C78203A70700EA
:101D000083A60700832747049387F7FF2322F7045E
:101D100083A7460463940700736004306780000063
:101D200063020504130101FD232E3101232A510111
:101D300023261102938A0700232481022322910281
:101D400023202103232C4101232861012326710133
:101D5000930740009309070063FAE70073700430AB
:101D60006F000000737004306F000000130B05005B
:101D70009384050013090600938B0600130A0800DC
:101D80006302082C13050006EF30105813040500F9
:101D90006302052A131929002328450313060900A5
:101DA0009305500A13050A00EF40800803C704009A
:101DB000832704031309C9FF230AE40203C70400AD
:101DC000338927011379C9FF6306070E83C71400FF
:101DD000A30AF40283C71400638E070C83C7240090
:101DE000230BF40283C724006386070C83C73400E7
:101DF000A30BF40283C73400638E070A83C7440031
:101E0000230CF40283C744006386070A83C7540087
:101E1000A30CF40283C75400638E070883C76400D1
:101E2000230DF40283C764006386070883C7740028
:101E3000A30DF40283C77400638E070683C7840072
:101E4000230EF40283C784006386070683C79400C9
:101E5000A30EF40283C79400638E070483C7A40013
:101E6000230FF40283C7A4006386070483C7B4006A
:101E7000A30FF40283C7B400638E070283C7C400B4
:101E80002300F40483C7C4006386070283C7D40019
:101E9000A300F40483C7D400638E070083C7E40063
:101EA0002301F40483C7E4006386070083C7F400BA
:101EB000A301F404130A440013050A00A301040457
:101EC0002326340323283405232A0404EFE01F8843
:101ED00013058401EFE09F8793075000B3873741D4
:101EE000232C040423288400232CF40023228402BE
:101EF00023220404232E040413860B0093050B00F5
:101F000013050900EFE0CFFD2320A40063840A003D
:101F100023A08A007370043017E901001309C95E19
:101F20008327090097E401009384C45F638C070052
:101F300003A7040083A7040083274704938717009F
:101F40002322F70417E701001307C75C8327070064
:101F50009387170097E6010023AEF65A83A7040083
:101F6000638E070E83270900639C070083A7040084
:101F700083A7C70263E6F90097E7010023A4875A05
:101F800097E701009387475703A7070097E60100EB
:101F90009386C6578327C40283A60600130717003B
:101FA00017E60100232AE6542324E40463F6F6002E
:101FB00017E70100232CF75413074001B387E7020A
:101FC00017E501001305C57393050A003305F500F5
:101FD000EFE04FF8832709006388070083A7040018
:101FE00083A7470463900712832709001304100096
:101FF000638A070083A7040083A7C70263F437013D
:10200000EFE00FD9130504008320C10203248102ED
:1020100083244102032901028329C101032A81018A
:10202000832A4101032B0101832BC100130101030A
:102030006780000013050A00EF3010451304F0FF1D
:102040006FF05FFC13152600EF30102C130A05000B
:10205000E31A05D21304F0FF6FF0DFFA97E70100EF
:1020600023A2874C0327070093071000E31AF7F019
:1020700017E501001305C568EFE04FEB17E5010018
:1020800013054569EFE08FEA17E501001305C569FF
:10209000EFE0CFE917E501001305456AEFE00FE92E
:1020A00017E501001305C56AEFE04FE817EB0100E3
:1020B000130B4B6B13050B00EFE04FE797EA0100A2
:1020C000938A8A6B13850A00EFE04FE617E501005B
:1020D0001305C56BEFE08FE517E501001305456CAF
:1020E000EFE0CFE417E501001305C56CEFE00FE466
:1020F00097E7010023A6674397E7010023A0574312
:102100006FF01FE803A7040083A604008327470499
:102110009387F7FF2322F70483A74604E39607EC8F
:10212000736004306FF05FEC130101FF2324810022
:1021300023261100232291002320210113040500EE
:102140007370043097E401009384043C83A7040077
:10215000639E07106318040097E701009387873C8C
:1021600003A407001309440013050900EFE0CFE6BC
:10217000832784026386070013058401EFE0CFE51F
:102180009305090017E5010013058561EFE08FDC79
:1021900097E701009387473803A7070097E70100F7
:1021A0009387873583A707001307170097E6010079
:1021B00023A4E63603A704009387170097E60100DF
:1021C00023ACF632630C070097E70100938787354D
:1021D00003A7070003274704631C070E83A7040017
:1021E000638A070697E701009387C73303A70700B1
:1021F000630287107370043003A704006318070894
:1022000017E701001307C7318326070083A60600DE
:102210006392060A1307F0FF97E6010023ACE62C51
:1022200003A704006308070203A707000327470466
:102230006302070203A7070083A60700832747045A
:102240009387F7FF2322F70483A7460463940700CC
:10225000736004308320C100032481008324410083
:1022600003290100130101016780000097E70100C5
:102270009387472B03A7070083A7070083274704FB
:10228000938717002322F7046FF0DFEC83A6070083
:1022900003A7070003A746041307170023A2E604B9
:1022A00017E701001307C7278326070083A6060048
:1022B000E38206F6032707000327C7000327C700AA
:1022C0000327470097E6010023A6E6226FF05FF59B
:1022D00003A7070083A60700832747049387F7FF18
:1022E0002322F70483A74604E39A07EE73600430C1
:1022F0006FF0DFEE97E701009387871F83A7070042
:1023000063860700737004306F00000003248100AF
:102310008320C1008324410003290100130101012E
:102320006FE00FA76304050C17E701001307871F71
:1023300083260700930700006386A60A130101FFA6
:10234000232611002324810023229100737004307E
:1023500097E601009386461B83A70600638C07005F
:102360000326070083270700832746049387170067
:102370002322F60483A706009304050003244501E5
:10238000638807008327070083A747046394070631
:1023900097E701009387C71883A70700638C870618
:1023A00097E701009387871783A707006384870651
:1023B00097E70100938707406306F40497E701005D
:1023C0009387073E630CF402930710008320C1003B
:1023D00003248100832441001385070013010101B8
:1023E0006780000013850700678000007370043069
:1023F0006F000000EFF01F906FF09FF9930740000F
:102400006FF0DFFC83A7840293B717009387270040
:102410006FF0DFFB930720006FF05FFB73700430F9
:1024200097E701009387470E03A70700631607028B
:102430006304050483A707000325C502638C070016
:1024400097E701009387070E03A7070003274704B8
:10245000631C07026780000017E701001307870C61
:10246000832607000327070003A746041307170066
:1024700023A2E604E31005FC17E701001307870A0F
:10248000032507006FF01FFB03A7070083A60700C3
:10249000832747049387F7FF2322F70483A7460483
:1024A000E39A07FA7360043067800000130101FFAC
:1024B000232481001304050023261100EFE08FA1DF
:1024C0006318040097E701009387C70503A407007A
:1024D0000324C402EFE08F9F8320C1001305040092
:1024E000032481001301010167800000930740006D
:1024F00063F6B700737004306F000000130101FE33
:10250000232C8100232E1100232A9100232821014E
:102510002326310123244101130405007370043084
:1025200017E90100130949FE832709006392071088
:102530006300041283270405638EF50A17E7010080
:10254000130747FE63F0B70283260700638E8612E7
:10255000032707008324C702B3B4950093C4140073
:102560006F00000183240700B384844093B41400F7
:102570000327C4026386E70E832784012328B4045B
:1025800063C8070093075000B385B740232CB400FD
:1025900093172700B387E7000327440197E9010059
:1025A0009389091693972700B387F9006310F704FE
:1025B000130A440013050A00EFE00FA217E7010019
:1025C0001307C7F48327C402032707006376F700C5
:1025D00017E70100232CF7F213074001B387E70246
:1025E00093050A003385F900EFE0CF966384040079
:1025F000EFD01FFA83270900638C070097E70100DB
:10260000938747F283A7070083A74704639E0704C5
:102610008320C10103248101832441010329010195
:102620008329C100032A8100130101026780000091
:1026300097E70100938707EF03A7070083A7070029
:1026400083274704938717002322F704E31404EE3B
:1026500097E70100938707ED03A407006FF09FED54
:102660002326B4026FF05FF1032481018320C101AE
:1026700083244101032901018329C100032A810028
:10268000130101026FF00FE7930400006FF05FEE9B
:10269000630A0508130101FE232A910097E4010053
:1026A000938444E883A70400232E1100232C810087
:1026B00023282101232631016388A7047370043085
:1026C00017E90100130949E483270900638C070017
:1026D00003A7040083A704008327470493871700F8
:1026E0002322F7040327450197E701009387870C0E
:1026F000630EF702832709006388070083A704009D
:1027000083A74704639E07088320C1010324810136
:1027100083244101032901018329C100130101021E
:1027200067800000737004306F000000832785020B
:1027300017E7010013078705E38EE7FAE39C07FA22
:10274000930945001304050013850900EFE0CF88C5
:1027500017E70100130787DB8327C402032707005D
:102760006376F70017E701002322F7DA1307400129
:10277000B387E70217E50100130585F89385090083
:102780003305F500EFD01FFD83A704000327C40223
:1027900083A7C702E360F7F6EFD09FDF6FF09FF5E6
:1027A000032481018320C101832441010329010104
:1027B0008329C100130101026FF0CFD36302050624
:1027C000130101FE232C8100232A910023282101DB
:1027D00013040500232E110023263101EFD09FEFB3
:1027E0000327440197E701009387C7FC13090500FD
:1027F00093040000630AF70213050900EFD01FEDF0
:102800008320C101032481011385040003290101F0
:10281000832441018329C100130101026780000064
:10282000737004306F0000008327840217E50100F5
:102830001305C5F5E382A7FCE39007FC97E70100C9
:10284000938707CB83A707006394070697E70100E8
:10285000938747CD83A707008324C40293094400CC
:1028600083A7C70213850900B3B4F400EFD0DFF6E5
:1028700017E70100130787C98327C402032707004E
:1028800093C414006376F70017E701002320F7C80C
:1028900013074001B387E70217E50100130545E67A
:1028A000938509003305F500EFD0DFEA6FF0DFF420
:1028B00093058401EFD01FEA6FF01FF4130101FEAE
:1028C00037150000232E1100232C8100232A9100AC
:1028D00023282101232631012324410123225101F0
:1028E000EF308022630605249304050013050006DB
:1028F000EF3080211304050063000528371600001F
:102900009305500A2328950213850400EF304052A6
:1029100083240403B71700009387C7FFB384F40030
:10292000B7474C459387974493094400232AF40200
:1029300013850900230C0402A301040423260402C6
:1029400023280404232A0404EFD05FE01305840144
:10295000EFD0DFDF93075000232C040493F4C4FF6F
:1029600023288400232CF40023228402232204043D
:10297000232E04041306000097150000938585EAB2
:1029800013850400EFD0DFD52320A400737004303A
:1029900017E90100130949B78327090097E40100EB
:1029A000938444B8638C070003A7040083A7040042
:1029B00083274704938717002322F70417E70100B2
:1029C000130747B5832707009387170097E6010091
:1029D00023A2F6B483A704006388070A83270900AB
:1029E000639C070083A7040083A7C70263960700C0
:1029F00097E7010023A887B297E701009387C7AF45
:102A000083A7070097E60100938646B00327C40218
:102A100083A606009387170017E60100232EF6AC65
:102A20002324F40463F6E60097E7010023A0E7AE51
:102A300093172700B387E7009397270017E5010056
:102A4000130505CC3305F50093850900EFD09FD021
:102A5000832709006388070083A7040083A747042E
:102A6000639A070E832709006384070083A7040085
:102A7000EF201006930710006304F512631A050A8D
:102A8000737004306F00000097E7010023AC87A843
:102A90000327070093071000E310F7F617E501007E
:102AA000130505C6EFD09FC817E50100130585C6BD
:102AB000EFD0DFC717E50100130505C7EFD01FC72B
:102AC00017E50100130585C7EFD05FC617E50100C4
:102AD000130505C8EFD09FC597EA0100938A8AC8FD
:102AE00013850A00EFD09FC417EA0100130ACAC871
:102AF00013050A00EFD09FC317E50100130505C9B0
:102B0000EFD0DFC217E50100130585C9EFD01FC262
:102B100017E50100130505CAEFD05FC197E7010073
:102B200023A057A197E7010023AA479F6FF0DFEC8E
:102B30008320C10103248101832441010329010170
:102B40008329C100032A8100832A41001301010265
:102B50006780000003A7040083A6040083274704BE
:102B60009387F7FF2322F70483A74604E39C07EE2D
:102B7000736004306FF01FEF032481018320C101D3
:102B8000032901018329C100032A8100832A41000E
:102B90001385040083244101130101026F30C00E2C
:102BA000737004309307F0FF17E701002324F794B4
:102BB0000324810197E7010023A8A7948320C10182
:102BC00083244101032901018329C100032A8100D3
:102BD000832A410097E7010023AC07921301010209
:102BE0006FD05F807370043097E7010023AE0790C9
:102BF0006FD09F9117E701001307878F8327070086
:102C0000938717002320F70067800000737004305B
:102C100097E701009387478F03A707006318070210
:102C200017E701001307C78E0325070083A70700D6
:102C3000638C070097E701009387C78E03A70700FF
:102C400003274704631407026780000017E70100A9
:102C50001307478D832607000327070003A74604B1
:102C60001307170023A2E6046FF09FFB03A70700DA
:102C700083A60700832747049387F7FF2322F704DF
:102C800083A74604E39207FC73600430678000006A
:102C9000130101FF2326110023248100EFD09FA3FD
:102CA00097E701009387C78603A40700EFD01FA210
:102CB0008320C100130504000324810013010101D6
:102CC0006780000097E701009387C78403A507008A
:102CD00067800000130101FD2326110223248102D5
:102CE0002322910223202103232E3101232C410191
:102CF000232A5101232861012326710197D701005E
:102D00009387077F83A70700639A070617E70100E9
:102D100013070780832707009387170097D60100C2
:102D200023A8F67E832A0700638A0A0A97D7010040
:102D30009387477C83A707009304000063FEFA0A89
:102D400097E901009389C99B17DA0100130A8A7D6C
:102D500083270A009306100003A7C70293172700D2
:102D6000B387E70093972700B389F90083A7090089
:102D700063F4F602930410006F00000297D701007D
:102D80009387477883A70700930400009387170071
:102D900017D701002328F77697D701009387477646
:102DA00083A7070063840700930410008320C102F7
:102DB00003248102138504000329010283244102B4
:102DC0008329C101032A8101832A4101032B0101C7
:102DD000832BC100130101036780000017D4010099
:102DE000130404748327040083A707006388070C77
:102DF000737004306F00000017D401001304447294
:102E000097E901009389C98F17DA0100130A8A71C3
:102E100017DB0100130B8B6F8327040083A70700C8
:102E2000638007088327040083A7C70003A9C7009E
:102E300083274900930B490013850B0063EAFA06C8
:102E4000EFD09F99832789021305890163840700C6
:102E5000EFD09F988327C90203270B0093850B00AF
:102E6000139527003305F500131525003385A900B8
:102E70006376F70017D70100232AF768EFD09F8DFC
:102E800083270A000327C90283A7C702E366F7F86E
:102E9000832704009304100083A70700E39407F836
:102EA0009307F0FF17D701002326F7646FF05FEA5E
:102EB00017D701002320F7646FF09FE917D70100AF
:102EC0001307C765832704000327070097D601006F
:102ED00023A8E66417D701002322F76497D70100DF
:102EE0009387C76183A707009387170017D701004F
:102EF0002326F7608327040083A70700639A07004F
:102F00009307F0FF17D701002326F75E6FF01FE24B
:102F10008327040083A7C70083A7C70083A74700B0
:102F200017D701002328F75C6FF05FE097D7010007
:102F30009387075C03A707006316070073700430CC
:102F40006F000000130101FE232E1100232C8100CD
:102F5000232A910023282101232631012324410122
:102F600023225101232061017370043097D40100A2
:102F70009384845903A704006310071203A7070072
:102F80001307F7FF97D6010023A4E65683A707008F
:102F9000639E070A97D701009387C75783A7070047
:102FA0006386070A97DA0100938A8A7517DA0100A7
:102FB000130ACA5517D901001309C95693091000FD
:102FC0006F00C0013385EA00EFD0CFF883270900F6
:102FD0000327C40283A7C7026374F70683A7CA083E
:102FE0006380070E83A78A0903A4C7001305840121
:102FF000EFD08FFE130B440013050B00EFD0CFFD75
:103000008327C40283260A0093050B00139527002B
:103010003305F50013152500130705003385AA00B5
:10302000E3F2F6FA17D701002322F74EEFD08FF222
:10303000832709000327C40283A7C702E360F7FAC6
:1030400097D7010023AE374B6FF05FF913040000F0
:1030500083A70400638C070097D701009387874CF0
:1030600083A7070083A74704639807041305040098
:103070008320C1010324810183244101032901012B
:103080008329C100032A8100832A4100032B010008
:10309000130101026780000017D70100130787485A
:1030A000832607000327070003A74604130717001A
:1030B00023A2E6046FF09FECEFE0DFC36FF01FFB8D
:1030C00017D401001304044483270400638C07020F
:1030D000832704001309100063860702EFF09FBFE7
:1030E0006306050097D7010023AC2741832704001E
:1030F0009387F7FF17D701002326F74083270400A3
:10310000E39E07FC97D701009387873F03A707003B
:1031100093071000E31CF7F2EFD08FC713041000E1
:103120006FF01FF3630405026396050073700430AB
:103130006F00000017D701001307873B83270700A4
:10314000638A0700737004306F00000073700430EE
:103150006F000000130101FF2324810023261100CA
:1031600083260700032705009386160017D6010063
:103170002320D63897D601009386863983A6060089
:103180003304B7002320850063F0E6046372E40291
:1031900063F0860297D701009387C73803A507001D
:1031A00013054500EFD04FE313050400EFE01FAC1B
:1031B000EFF0DFD7630E05008320C10003248100F8
:1031C0001301010167800000E366E4FC6FF05FFC1F
:1031D000032481008320C100130101016FD04FBB84
:1031E000630E050017D701001307873083270700F8
:1031F00063880700737004306F0000006FD04FB910
:10320000130101FF23261100232481000327070057
:10321000930705001307170097D6010023AAE62C91
:1032200097D601009386063017D701001307472E63
:103230000327070003A506003304F7001305450024
:10324000EFD08FD913050400EFE05FA2EFF01FCE9F
:10325000631A0500032481008320C10013010101CA
:103260006FD00FB38320C10003248100130101013B
:1032700067800000130101FF232481002326110031
:1032800097D701009387C72683A707001304000080
:103290009387170017D70100232CF72497D7010035
:1032A0009387472783A7070063ECF50E17DE01001D
:1032B000130E8E4A97D201009382C243130400007A
:1032C00013070000930F10001303500A6F00C00093
:1032D000130ECEFE6386C21183278EFF930507006F
:1032E000E38807FE8327CEFF83A74700232EFEFE39
:1032F0006388C72103AFC70083A747003307E500F2
:10330000930E0000232EFEFE6380C70983A8C7002A
:1033100093874803232017012322F70083A78804FB
:103320002326F7012324F70083A7C8022328F700E8
:1033300083A70805232C0700232AF70003A8080306
:1033400083470800639A670693070800938717006E
:1033500083C60700B3850741E38A66FE93D525003F
:103360009395050193D50501231EB700938E1E008A
:1033700013070702630C1F058327CEFF83A74700AF
:10338000232EFEFEE394C7F983274E00232EFEFE74
:103390006FF0DFF7330464006304060023200600A7
:1033A000EFF0DFB8130504008320C100032481007F
:1033B000130101016780000093050000231EB70080
:1033C000938E1E0013070702E3181FFB3304D4017A
:1033D00013175400130ECEFE93050700E39EC2EFB1
:1033E00097D701009387C71303AE070083270E000A
:1033F000639E071097D701009387471203AE07001B
:1034000083270E006392071C17DE0100130E4E2F58
:1034100083270E0A6398072683274E0BE38E07F651
:1034200083278E0B97DE0100938E4E3983A74700CA
:1034300017D701002322F738638CD73D83AFC7002D
:1034400083A747003307B5001303000097D6010098
:1034500023A4F636130F3000930220009308500A7D
:103460006388D70903A5C700930745032320A70056
:103470002322F700832785042326E7012324F7006E
:103480008327C5022328F70083278502638407006A
:103490002326570083270505232C0700232AF7003E
:1034A0000328050383470800639C1733930708002C
:1034B0009387170083C60700B3850741E38A16FF89
:1034C00093D525009395050193D50501231EB700DB
:1034D0001303130013070702E38EAFEA83278E0B53
:1034E00083A7470097D6010023A8F62CE39CD7F7C3
:1034F00083270E0C97D6010023A0F62C6FF09FF6C1
:1035000083274E00232EFEFE6FF0DFDE83274E0062
:10351000130F8E0083A647002322DE00638CE62D66
:10352000B307E50003A7460083A2C600930E000080
:103530002322EE00930F20001303500A6300EF08CC
:103540008328C7001387480323A0170123A2E7009D
:1035500003A7880423A6F70123A4E70003A7C80252
:1035600023A8E70003A7080523AC070023AAE70068
:1035700003A8080303470800631A6722130708001B
:103580001307170083460700B3050741E38A66FE69
:1035900093D525009395050193D50501239EB7008A
:1035A000938E1E0093870702638C122183264E00A0
:1035B00003A746002322EE00E314EFF80327CE0012
:1035C0002322EE006FF0DFF783274E00130F8E00EB
:1035D00083A747002322FE006388E72183A2C70058
:1035E00083A74700B305B500930E00002322FE0019
:1035F000930F20001303500A6300FF0883A8C7003D
:103600009387480323A0150123A2F50083A788040C
:1036100023A6F50123A4F50083A7C80223A8F5007B
:1036200083A7080523AC050023AAF50003A8080317
:103630008347080063946714930708009387170073
:1036400083C6070033870741E38A66FE13572700C6
:103650001317070113570701239EE500938E1E00E1
:10366000938505026386121383274E0083A74700C4
:103670002322FE00E314FFF88327CE002322FE005E
:103680006FF0DFF783274E0A17DF0100130FCF110A
:1036900083A7470017D701002326F7106382E71797
:1036A00083A2C70083A74700B305B500930E0000AF
:1036B00017D701002328F70E930F40001303500A79
:1036C0006382E70983A8C7009387480323A01501F5
:1036D00023A2F50083A7880423A6F50123A4F500FF
:1036E00083A7C80223A8F50083A7080523AC05001B
:1036F00023AAF50003A8080383470800639C670416
:10370000930708009387170083C607003387074194
:10371000E38A66FE135727001317070113570701A3
:10372000239EE500938E1E0093850502638E12038F
:1037300083274E0A83A7470017D701002324F706E3
:10374000E392E7F98327CE0A17D70100232CF70469
:103750006FF05FF713070000239EE500938E1E00B5
:1037600093850502E39612FD83274E0B3304D401A3
:1037700093155400E38207C26FF09FCA130700003D
:10378000239EE500938E1E0093850502E39E12EDB5
:1037900017DE0100130ECEF683270E0A3304D40180
:1037A00093155400E38A07C66FF0DFED9305000020
:1037B000239EB700938E1E0093870702E39812DFC3
:1037C00097D70100938787D503AE07003304D40150
:1037D0009315540083270E00E38807C26FF0DFDEE5
:1037E000930500006FF09FCE8327CE002322FE00BA
:1037F0006FF0DFDE8326CE002322DE006FF05FD283
:103800008327CE0A17D70100232EF7F86FF05FE960
:1038100083270E0C17D701002320F7FA6FF01FC281
:10382000130101FD2322910223202103232E3101C4
:10383000232C4101232A51012328610123267101F0
:10384000232611022324810297D90100938949CAB2
:1038500017D901001309C9EA17DA0100130ACACA05
:1038600097DA0100938A0ACC97DB0100938B8BCA0D
:1038700097D40100938444CA130B10006F00000218
:1038800083A709000324090A9387170017D70100AB
:103890002320F7C6EFF08FE9631E040083A704001E
:1038A000E39007FE83270900E37AFBFEEFC05FCEBB
:1038B0006FF0DFFE7370043083270A00639E0704F5
:1038C0008327C90A03A4C70013054400EFC0DFF033
:1038D00083A70B009387F7FF17D70100232CF7C2AC
:1038E00083A704009387F7FF17D701002326F7C2A9
:1038F00083270A006388070083A70A0083A7470479
:103900006398070203250403EF2000381305040021
:10391000EF2080376FF09FF803A70A0083A70A0003
:1039200083274704938717002322F7046FF05FF97A
:1039300003A70A0083A60A00832747049387F7FF9B
:103940002322F70483A74604E39E07FA736004303A
:103950006FF05FFB97D70100938787B983A70700B4
:103960006396070E130101FF2326110097D701006C
:1039700023A807B817D701001307C7BA8327070082
:10398000B7A6A5A59386565A83A7070383A5070064
:10399000639ED50003A64700631AB60083A687007E
:1039A0006396C60083A7C700638AD7000325070074
:1039B0008325070093854503EF30807697D6010075
:1039C0009386C6B403A6060017D70100130747D392
:1039D0006F00000283A706006382070883A7060022
:1039E0009387F7FF17D601002322F6B203A606003D
:1039F00093172600B387C70093972700B307F700F4
:103A000083A70700E38807FC03A606009317260098
:103A1000B387C70093972700B305F70083A6450037
:103A200093878700B307F70083A6460023A2D5003B
:103A3000638AF60283A7C6008320C10017D701005E
:103A40002322F7AE130101016780000093071000E5
:103A500017D701002326F7AA67800000737004308F
:103A60006F000000930740013306F60283A646006C
:103A70003307C7002322D7006FF0DFFB130101FEDD
:103A800023282101232E1100232C8100232A9100B9
:103A900023263101130905007370043097D4010007
:103AA000938484A683A7040017D40100130484A779
:103AB000639C070C6314090003290400930949005F
:103AC00013850900EFC05FD1832789026386070051
:103AD00013058901EFC05FD09385090017D5010058
:103AE000130545CDEFC01FC783A7040063880700F7
:103AF0008327040083A747046394070A83270400ED
:103B00006384270D83A70400638207067370043063
:103B100083A704006398070E97D70100938747A0F7
:103B200003A70700032707006310070C9307F0FFA4
:103B300017D701002320F79C83A70400638807029E
:103B40008327040083A74704638207020327040036
:103B500083260400832747049387F7FF2322F70473
:103B600083A7460463940700736004308320C10177
:103B70000324810183244101032901018329C10018
:103B8000130101026780000003270400832704005B
:103B900083274704938717002322F7046FF09FF1D0
:103BA0000327040083260400832747049387F7FF35
:103BB0002322F70483A74604E39207F473600430DA
:103BC00083270400E39027F583A704006382070698
:103BD00097D701009387C79183A707006388070AD7
:103BE000737004306F00000083A7070083A7C7002D
:103BF00083A7C70083A7470017D70100232CF78EA0
:103C00006FF09FF3032704008327040083274704F2
:103C1000938717002322F70497D7010093874790D3
:103C200003A7070003270700E30207F06FF0DFFB9D
:103C300097D701009387078E17D70100130747AC6A
:103C400083A707000327470B6314F7028320C101F2
:103C50000324810197D7010023A6078C8324410107
:103C6000032901018329C1001301010267800000BB
:103C7000032481018320C10183244101032901011F
:103C80008329C100130101026FF0DFCC03248101FD
:103C90008320C10183244101032901018329C1003B
:103CA000130101026FC0DF8E6306050A130101FFD5
:103CB0002322910097D401009384C48623202101FC
:103CC0001389050083A50400232611002324810005
:103CD00093858501EFC01FAB03A5040013054500C4
:103CE000EFC09FAF9307F0FF630AF90697D7010073
:103CF0009387078203A4070003A7040083A7070094
:103D00003304240123228700636EF40697D7010051
:103D10009387078103A5070083A5040093854500C9
:103D2000EFC05FA697C701009387C77C83A70700F2
:103D30006376F40097C7010023AE877A8320C10021
:103D400003248100832441000329010013010101A0
:103D500067800000737004306F00000083A50400CA
:103D6000032481008320C100832441000329010032
:103D700017D50100130505A4938545001301010122
:103D80006FC05F9D97C701009387477903A5070020
:103D90000324810083A504008320C1008324410003
:103DA0000329010093854500130101016FC09F9D08
:103DB000630E050097C701009387877383A70700E9
:103DC000639A0700737004306F0000007370043052
:103DD0006F000000130101FF2322910097C401002E
:103DE0009384447403A704009387050083A504000B
:103DF000B7060080B3E7D7002326110023248100F3
:103E0000232CF7009385850113040600EFC09F94CF
:103E100003A5040013054500EFC01F9C9307F0FFA6
:103E20006304F40297C701009387876E03A5070018
:103E30008320C100832441003305850003248100D1
:103E4000130101016FD09FE283A5040003248100C8
:103E50008320C1008324410017D5010013058595F7
:103E600093854500130101016FC0DF8E6308050AC9
:103E7000130101FF2322910097C401009384846AF7
:103E8000232021011389050083A5040023261100A6
:103E9000232481009385850113040600EFC09F8BC6
:103EA00003A5040013054500EFC01F9393071000FE
:103EB000630AF40697C701009387876503A4070088
:103EC00003A7040083A707003304240123228700EB
:103ED000636EF40697C701009387876403A5070004
:103EE00083A5040093854500EFC0DF8997C70100D3
:103EF0009387476083A707006376F40097C70100A4
:103F000023AA875E8320C10003248100832441000B
:103F10000329010013010101678000007370043060
:103F20006F00000083A50400032481008320C100EA
:103F3000832441000329010017D50100130585875B
:103F400093854500130101016FC0DF8097C7010011
:103F50009387C75C03A507000324810083A50400A1
:103F60008320C1008324410003290100938545007B
:103F7000130101016FC01F81130101FF23261100EE
:103F800023248100232291008327C50003A4C700B6
:103F90006304040A9304840113850400EFC0DF83E3
:103FA00097C701009387C75483A70700639A070840
:103FB0009304440013850400EFC01F8297C70100DB
:103FC0009387C7540327C40283A7070063F6E7005B
:103FD00097C7010023ACE75293172700B387E70088
:103FE0009397270017C50100130585719385040079
:103FF0003305F500EFC00FF697C70100938787528E
:1040000083A707000327C4021305000083A7C70284
:1040100063FAE7009307100017C701002322F74E49
:10402000130510008320C100032481008324410074
:104030001301010167800000737004306F000000FD
:104040009385040017C5010013054574EFC08FF078
:104050006FF09FFA97C701009387874983A70700EE
:1040600063960700737004306F000000130101FFB6
:10407000232611002324810023229100B70700800A
:104080000324C500B3E7F5002320F5006308040806
:10409000EFC08FF49304440013850400EFC0CFF306
:1040A00097C70100938787460327C40283A70700A9
:1040B00063F6E70097C7010023AAE7449317270098
:1040C000B387E7009397270017C5010013054563E1
:1040D0003305F50093850400EFC0CFE797C70100D3
:1040E0009387474483A707000327C40213050000F2
:1040F00083A7C70263FAE7009307100017C7010000
:104100002320F740130510008320C1000324810001
:1041100083244100130101016780000073700430A3
:104120006F0000006304050297C701009387073DF5
:1041300003A7070097C701009387873D83A7070060
:104140002320E5002322F50067800000737004300F
:104150006F0000006304050E638E050C130101FF60
:1041600023261100232481001307050073700430F7
:1041700097C801009388483983A708006380070225
:1041800097C701009387073A83A6070083A7070014
:1041900083A746049387170023A2F60417C30100E0
:1041A0001303033783A70500032603009306F0FFDC
:1041B000130400006388D70417CE0100130E0E34D9
:1041C00003250E0003280700832647006306A80086
:1041D000130410006378D6023308D640130410008D
:1041E0006372F80203250E00B387C740032603005D
:1041F000B387D70023A0F5002320A7002322C70000
:104200001304000083A70800638C070097C7010010
:104210009387473183A7070083A747046394070266
:10422000130504008320C100032481001301010150
:1042300067800000737004306F00000073700430FA
:104240006F000000EFD01FAB6FF09FFD93071000D1
:1042500017C701002326F72A6780000063060500C0
:104260000325C50467800000130500006780000077
:10427000630405002326B5046780000097C701008A
:104280009387472A03A507006780000097C70100AE
:104290009387872783A7070013051000638C070007
:1042A00097C701009387C72403A50700133515009E
:1042B0001315150067800000630C0508130101FE4B
:1042C000232A910097C401009384C42583A7040086
:1042D000232E1100232C81002328210123263101C4
:1042E0000327C50283A7C7026376F70483278501E6
:1042F00063CC070083A7040083A6C702930750007E
:10430000B387D740232CF50093172700B387E70026
:104310000327450117C901001309893E9397270018
:10432000B307F9006308F70283A7040083A7C70255
:104330002326F5028320C101032481018324410146
:10434000032901018329C1001301010267800000D4
:1043500067800000930945001304050013850900D8
:10436000EFC08FC783A7040017C701001307071A00
:104370000327070083A7C7022326F4026376F7000A
:1043800017C701002324F718139527003305F500FC
:1043900003248101131525008320C10183244101D9
:1043A000938509003305A9008329C1000329010170
:1043B000130101026FC00FBA63060502130101FF6A
:1043C00023261100232481002322910097C7010096
:1043D0009387471503A40700630AA4007370043091
:1043E0006F0000001305000067800000832744056C
:1043F00063960700737004306F0000008326C402C8
:10440000032704059387F7FF232AF4046384E60057
:10441000638E0700130500008320C1000324810080
:1044200083244100130101016780000093044400CC
:1044300013850400EFC04FBA8327040517C7010096
:104440001307C70C83260700130750003307F740F4
:104450002326F402232CE40063F6F60017C70100BC
:104460002326F70A13074001B387E70217C50100A7
:1044700013050529938504003305F500EFC08FADC2
:10448000130510006FF05FF97370043097C70100D7
:104490009387870783A707006380070297C70100F8
:1044A0009387470803A7070083A7070083274704CC
:1044B000938717002322F7046780000097C7010045
:1044C0009387870483A70700638C070297C70100BF
:1044D0009387470503A707000327470463020702E2
:1044E00003A7070083A60700832747049387F7FFE6
:1044F0002322F70483A74604639407007360043003
:104500006780000097C701009387C70103A60700D3
:1045100083A6070003A707009307500083A6C602DF
:1045200003258601B387D740232CF700678000005E
:1045300097C70100938707FF03A70700630A0700D7
:1045400083A6070003A746051307170023AAE6045E
:1045500003A5070067800000130101FD232021034C
:10456000232611022324810223229102232E3101CA
:10457000130905007370043097C401009384C4F8D4
:1045800083A7040017C401001304C4F9639E070A3B
:104590008327040083A78705639A07008327040005
:1045A0001307100023AEE704639A050E83A70400E7
:1045B000638807008327040083A74704639A0714CE
:1045C0007370043083A704006394070683270400F4
:1045D00003A5870563080500630209048327040017
:1045E00023AC07048327040023AE070483A7040039
:1045F000638807008327040083A7470463920706A4
:104600008320C10203248102832441020329010281
:104610008329C101130101036780000003270400FF
:10462000832787059387F7FF232CF7046FF09FFB01
:104630000327040083270400832747049387170078
:104640002322F7046FF09FF8032704008327040058
:1046500083274704938717002322F7046FF05FF343
:104660000327040083260400832747049387F7FF6A
:104670002322F70483A74604E39407F87360043009
:104680008320C10203248102832441020329010201
:104690008329C10113010103678000000325040081
:1046A0002326B10013054500EFC00F938325C100F9
:1046B0009307F0FF6380F50897C70100938747E5EC
:1046C00083A907000327040083A70700B389B90063
:1046D0002322370163ECF90697C70100938747E46B
:1046E00003A507008325040093854500EFC08F894B
:1046F00097C70100938707E083A7070063F6F900D7
:1047000097C7010023A837DFEFB09FE86FF01FEADB
:104710000327040083260400832747049387F7FFB9
:104720002322F70483A74604E39C07E87360043060
:104730006FF01FE98325040017C5010013058507E5
:1047400093854500EFC00F816FF01FFC97C70100F4
:104750009387C7DC03A507008325040093854500E4
:10476000EFC04F826FF05FFA130101FD2320210398
:10477000232E3101232611022324810223229102B8
:10478000232C41011389050093090600737004303E
:1047900097C40100938444D783A7040017C4010081
:1047A000130444D8639C07140327040093072000D4
:1047B0000327C7056304F702832704001345F5FFA9
:1047C00003A787053375E50023ACA70483270400FE
:1047D0001307100023AEE704639A060A83A70400B8
:1047E000638807008327040083A7470463940716A0
:1047F0007370043083A70400639E07066388090072
:104800008327040083A7870523A0F900032704005A
:1048100093071000130500000327C705630EF70078
:10482000832704001349F9FF1305100003A7870528
:104830003379E90023AC27058327040023AE07045E
:1048400083A70400638807008327040083A7470425
:104850006392070C8320C102032481028324410256
:10486000032901028329C101032A810113010103E4
:104870006780000003270400832704008327470480
:10488000938717002322F7046FF05FF703250400D6
:104890002326D10013054500EFB01FF48326C10085
:1048A0009307F0FF638AF60C97C70100938747C60A
:1048B00003AA07000327040083A70700330ADA00CE
:1048C000232247016368FA0C97C70100938747C505
:1048D00003A507008325040093854500EFB09FEAF8
:1048E00097C70100938707C183A707006370FA0A7F
:1048F00097C7010023A047C16F00400903270400A8
:104900008327040083274704938717002322F70493
:104910006FF09FE9032704008326040083274704E0
:104920009387F7FF2322F70483A74604E39407F253
:10493000736004308320C102032481028324410276
:10494000032901028329C101032A81011301010303
:1049500067800000032704008326040083274704A0
:104960009387F7FF2322F70483A74604E39207E81F
:10497000736004306FF0DFE78325040017C5010082
:10498000130545E393854500EFB0DFDCEFB05FC072
:104990006FF0DFE497C70100938747B803A50700CE
:1049A0008325040093854500EFB0DFDD6FF01FFE27
:1049B000630A050C130101FF232611002324810043
:1049C00023229100232021017370043097C4010039
:1049D000938484B383A70400639607086386060064
:1049E0008327850523A0F600930706009306200081
:1049F0000326C505232ED5041387050013040500DF
:104A00006382D70A63F4F608930530006388B70021
:104A1000930540006396B700630CD610232CE40482
:104A200093071000630CF6081304100083A704001A
:104A3000638C070097C701009387C7AE83A7070061
:104A400083A7470463980706130504008320C10069
:104A50000324810083244100032901001301010183
:104A60006780000097C701009387C7AB03A70700C3
:104A700083A7070083274704938717002322F7049F
:104A80006FF0DFF5737004306F00000093061000C4
:104A9000E398D7F88327850533E7B700232CE5048F
:104AA0006FF01FF88327850593871700232CF504E3
:104AB0006FF01FF7EFD00FA46FF01FF91309440038
:104AC00013050900EFB05FD117C70100130707A452
:104AD0008327C402032707006376F70017C7010086
:104AE0002326F7A213074001B387E70217C5010089
:104AF000130505C1930509003305F500EFB09FC507
:104B00008327840263860700737004306F000000FF
:104B100097C70100938707A183A707000327C40253
:104B200083A7C702E3F2E7F0EFB09FA66FF0DFEFD5
:104B3000130400006FF09FEF63080508130101FEE6
:104B4000232C8100232A91002328210123263101CF
:104B50002324410123225101232E11009309070030
:104B6000138A060093040600138905001304050048
:104B7000EFB05FB6930A050063060A008327840539
:104B80002320FA000327C40593072000232EF404F2
:104B90006380F40463FA9710930630006388D400AE
:104BA000930640006396D400630CF70E232C240573
:104BB000930710006312F70A8327840263820702B7
:104BC000737004306F000000737004306F000000D9
:104BD0008327840593871700232CF4046FF05FFD6F
:104BE00097C701009387C79083A707006390070AC0
:104BF0009304440013850400EFB01FBE17C70100E3
:104C00001307C7908327C402032707006376F700C2
:104C100017C70100232CF78E13074001B387E70263
:104C200017C501001305C5AD938504003305F500D4
:104C3000EFB05FB297C701009387C78E83A70700C5
:104C40000327C40283A7C70263F8E700638609004D
:104C50009307100023A0F9001304100013850A0025
:104C6000EFB0DFA6130504008320C10103248101F6
:104C700083244101032901018329C100032A810002
:104C8000832A41001301010267800000930584011B
:104C900017C50100130585AFEFB0DFAB6FF09FF9CB
:104CA000130400006FF09FFB93071000E392F4F0F1
:104CB0008327840533E92701232C24056FF05FEF58
:104CC000630A050E130101FE232C8100232A9100A3
:104CD0001304050023282101232E1100232631016E
:104CE00093840500EFB01F9F930720008326C4051F
:104CF000232EF404832784051307100013090500ED
:104D000093871700232CF4046396E6088327840214
:104D100063860700737004306F00000097B70100CE
:104D20009387077D83A70700639A070893094400C8
:104D300013850900EFB05FAA17B701001307077DBD
:104D40008327C402032707006376F70017B7010023
:104D5000232EF77A13074001B387E70217C5010036
:104D60001305059A938509003305F500EFB09F9E62
:104D700097B701009387077B83A707000327C40227
:104D800083A7C70263F8E700638604009307100057
:104D900023A0F400032481018320C1018324410165
:104DA0008329C10013050900032901011301010230
:104DB0006FB0DF91737004306F00000093058401C1
:104DC00017C501001305859CEFB0DF986FF05FFAFF
:104DD00093070500630805067370043017B70100D8
:104DE0001307877283260700639E060203A6C70582
:104DF00093062000130500006316D60023AE0704B7
:104E00001305100083270700638C070097B7010084
:104E10009387477103A7070003274704631C070212
:104E20006780000097B601009386C66F03A6060050
:104E300083A6060083264604938616002322D60402
:104E40006FF0DFFA97B701009387C76D83A707005C
:104E50006FF09FF803A7070083A607008327470486
:104E60009387F7FF2322F70483A74604E39A07FA00
:104E70007360043067800000130101FB232291045A
:104E800023202105232C4103232A510323286103D6
:104E9000232671032326110423248104232E3103A6
:104EA00023248103232291032320A10317B90100A6
:104EB0001309496817BB0100130B0B6797B4010076
:104EC0009384C46697BA0100938A8A66130A100015
:104ED000930B90008327090003A7070063060716BA
:104EE00083A7C70083A90700EFD0DFD0EFD01FD280
:104EF00083270B00130C05006368F50C97B70100BE
:104F000023A4A762130600006376352303A50400DB
:104F1000B3858941EFC05FC1EFE04F81630605169D
:104F200003A504009306000013060000930581000A
:104F3000EFC0CFBFE30005FA83278100E3C207FE7D
:104F40008329010183A7490163860700138549006E
:104F5000EFB09F88EFD09FCB83270B00130C050089
:104F60006362F50C8327810017B70100232E875B4E
:104F7000E3E8FBFAB317FA0013F7072163100720E1
:104F800013F7770C6316072A93F70702E38A07F8EB
:104F900013850900EF00504F6FF09FF883A7C700FB
:104FA00003A4C70083AC07009309440013850900DC
:104FB000EFB09F828327440213050400E7800700B7
:104FC0008327C4016386470D8327090003A70700D1
:104FD000E31607FC03A70A0097B6010023A686552F
:104FE00097B6010023A6F65497B7010023A4E7540F
:104FF000EFD0DFF36FF0DFF283A7C70003A4C70091
:1050000003AD0700930C440013850C00EFB0CFFCF8
:105010008327440213050400E78007008327C401A7
:10502000638C470B8327090003A70700E31607FCDF
:1050300003A70A0097B6010023ACF64E97B701000C
:1050400023AAE74E6FF01FF2EFD0DFBAEFD01FBCFC
:1050500083270B00130C0500E368F5F683A70A000D
:1050600003A504009309000003A60700B385894146
:1050700017B70100232A874B13361600EFC0DFAAAB
:10508000EFD0DFEAE31E05E8EFB08FD06FF05FE905
:105090008327840193850900B387FC0063E2FC0841
:1050A00083A7040063860702232A0100232C9101B1
:1050B000232E8100EFF08F9D03A5040093060000CE
:1050C0001306000093054101EFB0DFA6E31E05EED5
:1050D000737004306F0000008327840193850C00F7
:1050E000B307FD006362FD0883A70400638607021F
:1050F000232A0100232CA101232E8100EFF00F9918
:1051000003A5040093060000130600009305410167
:10511000EFB05FA2E31805F0737004306F00000079
:10512000032509002322F40023288400EFB08FE533
:105130006FF09FE9EFD09FDF8327090083A7C700A7
:1051400003A4C700930C440013850C00EFB0CFE814
:105150008327C401638A470583274402130504009B
:10516000E78007006FF0DFDB032509002322F4004E
:1051700023288400EFB00FE16FF0DFEA8327C1003E
:1051800023ACF9006382070AB387870123A2F900E1
:1051900023A83901938549006362FC0803A50A002E
:1051A000EFB04FDE6FF0DFD7832784012328840020
:1051B0003387F9002322E400636AEC04330C3C419A
:1051C000636EFC0283A7040063860702232A0100A2
:1051D000232C3101232E8100EFF04F8B03A5040017
:1051E000930600001306000093054101EFB09F9461
:1051F000E31405F6737004306F00000003A50A0085
:1052000093850C00EFB00FD86FF01FF50325090050
:1052100093850C00EFB00FD76FF01FF40325090042
:10522000EFB04FD66FF0DFCF737004306F00000027
:105230008327C10083A6890123A839013387D700BA
:1052400023A2E9006362EC06B307FC4063EAD706D9
:1052500083A7490213850900E780070083A7C901D6
:10526000E39047CD83A689018327C10003A70400EB
:10527000B387D70063060702232A0100232CF1001D
:10528000232E3101EFF08F8003A504009306000068
:105290001306000093054101EFB0DF89E31205C852
:1052A000737004306F0000006374FC00E372F7FA5F
:1052B0000325090093854900EFB0CFCC6FF05FC69E
:1052C00003A50A0093854900EFB0CFCB6FF05FC50F
:1052D000130101FF232481002326110023229100C2
:1052E0002320210117B4010013044424EFF0CF99C7
:1052F0008327040063840704EFF04F9C8327040096
:10530000638A070293080000130800009307000057
:1053100013072000930600001306004097B5010014
:105320009385451117050000130545B5EFC05F9F34
:1053300063140506737004306F00000017B9010094
:105340001309894813050900EFB04FBE97B4010057
:105350009384C44813850400EFB04FBD13060000CA
:105360009305C0001305400097B7010023A4271D33
:1053700097B7010023AE971AEFB0CFE717B7010038
:105380002326A71A6306050297B501009385050A2F
:10539000EFC04FE66FF05FF68320C1000324810069
:1053A00083244100032901001301010167800000EB
:1053B000737004306F000000638A050A130101FD59
:1053C000232A5101930A05001305C00223248102F8
:1053D0002322910223202103232E3101232C41017A
:1053E00023261102232861012326710113090700D6
:1053F00093890600130A060093840500EF00C0702D
:1054000013040500630C0502EFF00F8897B7010045
:105410009387C71183A70700638E0704EFF00F8AF5
:105420001305440023205401232C9400232E44010F
:105430002320340323222403EFB04FB113050400CB
:105440008320C10203248102832441020329010233
:105450008329C101032A8101832A4101032B010110
:10546000832BC100130101036780000073700430B7
:105470006F00000097BB0100938B0B3513850B0069
:10548000EFB0CFAA17BB0100130B4B3513050B0070
:10549000EFB0CFA9130600009305C000130540002C
:1054A00097B7010023A8770997B7010023A26709DE
:1054B000EFB04FD417B70100232AA706630A0500EF
:1054C00097B50100938585F6EFC0CFD26FF01FF539
:1054D000737004306F000000630E0506130101FEB7
:1054E000232C8100232E1100232A910017B40100E0
:1054F0001304C403832804001308050013050000E7
:1055000063800804930407002322B1001387060078
:105510002324C100232601019306500063C0B60472
:10552000EFE0DFD693072000630EF50403250400A7
:10553000930600001306000093054100EFB08FDFD3
:105540008320C1010324810183244101130101024D
:1055500067800000737004306F0000009305410005
:10556000930600001306070013850800EFB05FAE36
:105570008320C1010324810183244101130101021D
:1055800067800000032504009306000013860400D2
:1055900093054100EFB00FDA6FF09FFA6306050044
:1055A0000325050067800000737004306F00000061
:1055B00063160500737004306F000000130101FFD3
:1055C000232611002324810013040500EFE0DFEB04
:1055D000032544013334A000EFE05FEE130504001F
:1055E0008320C100032481001301010167800000B2
:1055F00063160500737004306F000000130101FF93
:10560000232481001304050023261100EFE0DFE7C7
:1056100003240402EFE09FEA8320C1001305040085
:105620000324810013010101678000006316050057
:10563000737004306F000000130101FF2324810008
:1056400023229100138405009304050023261100F2
:10565000EFE09FE323A08402032481008320C100A4
:1056600083244100130101016FE05FE5130101FF95
:105670001305C0012324810023261100EF00C04838
:1056800013040500630805002320050013054500E9
:10569000EFB0CF89130504008320C10003248100EB
:1056A000130101016780000063020502B70700FFD4
:1056B000B3F7F50063860700737004306F000000D5
:1056C000639A0500737004306F000000737004303B
:1056D0006F000000130101FE232C8100232821010B
:1056E000232631012324410123225101232E1100BD
:1056F000232A91009309070013890600930A0600E4
:1057000013840500130A0500EFE05FB86318050075
:1057100063860900737004306F000000EFD08FCDF6
:1057200083240A00B3779400631209046382070498
:1057300063880A009347F4FFB3F797002320FA0029
:10574000EFD0CFFE8320C101032481011385040023
:1057500003290101832441018329C100032A810017
:10576000832A41001301010267800000E302F4FC78
:10577000E38809FCB3355001939585016306090060
:10578000B7070004B3E5F50013860900B3E585000B
:1057900013054A00EFE0CFE1EFD04FF963140500A5
:1057A000EFA01FDFEFE01FD69317650093090500F8
:1057B00063DA0700B70400019384F4FFB3F499009F
:1057C0006FF05FF8EFE05FCC83290A00B377340114
:1057D00063100902638A070063880A009347F4FF95
:1057E000B3F737012320FA00EFE05FCD6FF09FFCA5
:1057F000E31CF4FE6FF05FFE630C0500B70700FFCB
:10580000B3F7F500638A0700737004306F0000007F
:10581000737004306F000000130101FF2324810026
:1058200013040500232611002322910023202101C7
:1058300013890500EFE05FC5832404009345F9FF59
:10584000B3F795002320F400EFE05FC78320C10089
:1058500003248100138504000329010083244100EF
:105860001301010167800000130101FF232481005F
:105870001304050023261100EFA0DFE50324040034
:10588000EFA0DFE48320C10013050400032481009E
:105890001301010167800000630C0500370700FF5A
:1058A000B3F7E500638A0700737004306F000000EF
:1058B000737004306F0000006F500012B70700FFD4
:1058C000B377F60063860700737004306F00000042
:1058D00063160600737004306F000000130101FEB0
:1058E000232C810023282101232631012324410177
:1058F000232E1100232A91001389060093890500A5
:10590000130A050013040600EFE05F98631E050408
:1059100063060900737004306F000000EFD08FAD94
:1059200083240A009385090013050A00B3E4990053
:10593000EFF09FF6B3779400630AF40883240A001B
:10594000EFD0CFDE8320C101032481011385040041
:1059500003290101832441018329C100032A810015
:105960001301010267800000EFD0CFA883240A0052
:105970009385090013050A00B3E43401EFF0DFF169
:10598000B3F7840063848704E30A09FAB7050005C6
:1059900013060900B365B40013054A00EFE04FC1D8
:1059A000EFD0CFD863140500EFA09FBEEFE09FB506
:1059B000931765009304050063D40702B70700013D
:1059C0009387F7FFB3F4F4006FF0DFF783270A0043
:1059D0001344F4FFB3F787002320FA006FF05FF65B
:1059E000EFE09FAA83240A00B377940063988700AE
:1059F0009347F4FFB3F797002320FA00EFE01FACC2
:105A00006FF0DFFB130101FF232481002326110027
:105A10001304050023229100EFD0CF9D832744007B
:105A200063860702032504019304C40063189500EC
:105A30006F0080030325040163089502B705000287
:105A4000EFE04FE183274400E39607FE13050400CF
:105A5000EF008023032481008320C10083244100C0
:105A6000130101016FD08FCC737004306F00000000
:105A7000630C0500370700FFB3F7E500638A0700F2
:105A8000737004306F000000737004306F0000000A
:105A90006F409074630C0500B70700FFB3F7F50083
:105AA000638A0700737004306F0000007370043065
:105AB0006F000000130101FF2324810023229100C5
:105AC000232611001304050093840500EFE0DF9BFB
:105AD0000327040093C7F4FFB377F7002320F400F3
:105AE000032481008320C1008324410013010101AC
:105AF0006FE0DF9C630605000325850167800000D9
:105B00001305000067800000130101FF23248100BA
:105B10002326110013040500EFD0CF8D97B70100A5
:105B2000938787A183A70700639C0704B7970100A9
:105B300017B70100130707CC9387C7FF97B601007B
:105B400023A2E6A017B70100232CF79E17B7010088
:105B50002324F7CA97B701009387479E17B7010020
:105B6000232AF7C89307100017B70100232E079CBC
:105B700017B701002324079C17B70100232EF79ABB
:105B800063120402EFD08FBAEF10C0581304000064
:105B9000130504008320C1000324810013010101C7
:105BA0006780000013058400937735006398070C25
:105BB000B79701001307F5FF9387A7FFE3E4E7FC1E
:105BC00097B601009386069883A706006F004001F0
:105BD00003A70700630A07009386070093070700DF
:105BE00003A74700E366A7FE17B701001307079551
:105BF000E38AE7F803A70700130600011384870070
:105C000023A0E60003A74700B306A740637ED602A1
:105C10003388A7002322D80023A2A70083254800A9
:105C200097B60100938606926F00800093060700E6
:105C300003A7060003264700E36AB6FE2320E80018
:105C400023A0060103A7470097B701009387879F0A
:105C500083A70700B387E74017B701002324F79E07
:105C6000EFD0CFACE30204F2130504008320C1009F
:105C70000324810013010101678000001375C5FF33
:105C8000130545006FF0DFF263080506130101FFFD
:105C9000232481002326110013040500EFC09FF583
:105CA000930584FF0326C4FF17B7010013078789F4
:105CB0006F008000138707008327070083A6470033
:105CC000E3EAC6FE232CF4FE2320B70097B70100B9
:105CD0009387479703A707008327C4FF0324810006
:105CE0008320C100B387E70017B70100232CF79486
:105CF000130101016FD08FA36780000097B70100E7
:105D00009387479403A50700678000006780000021
:105D10003367B50013773700930705006312070454
:105D20009308D6FFB30815011307050093860500F5
:105D30006378150303A806001307470093864600FF
:105D4000232E07FFE36817FF9347F5FFB38717017B
:105D500093F7C7FF93874700B385F500B307F500B6
:105D60003306C50063F4C70C9386450013884700CB
:105D7000B3B6D70033B8050133E7F50093C6160074
:105D80001348180013773700B3E6060113371700DE
:105D90003377D700330EF640938617006308070663
:105DA0001337AE006314070613532E001388050043
:105DB00093860700130700008328080013071700C5
:105DC0001308480023A0160193864600E36667FE89
:105DD0001377CEFFB385E500B387E7006306EE04D3
:105DE00083C60500138717002380D700637EC70290
:105DF00083C6150013872700A380D7006376C702E8
:105E000003C725002381E70067800000B307F64041
:105E1000B387F5009385150003C7F5FF9386160039
:105E2000238FE6FEE398F5FE6780000067800000A0
:105E3000B367C50093F73700B308C5006382070E48
:105E400063761511B307A04093F737001387370027
:105E50009306500093F5F50F130815003383A840FF
:105E60001306F6FF6374D700130750006368E60E4D
:105E70006380070E2300B50013071000638EE70050
:105E8000A300B50013073000130825006396E70050
:105E9000130835002301B5001396850033E6C500CD
:105EA000139705013367E6003303F34093968501AA
:105EB000B366D70013562300B307F500130700009D
:105EC00023A0D7001307170093874700E36AC7FE94
:105ED0001377C3FFB307E8006300E3082380B7002C
:105EE00013871700637C1703A380B700138727006D
:105EF000637617032381B700138737006370170396
:105F0000A381B70013874700637A17012382B70084
:105F10001387570063741701A382B70067800000DE
:105F200093F5F50F13978500B365B7001397050137
:105F30003367B700E37415FF9307050093874700A5
:105F400023AEE7FEE3EC17FF6780000067800000E8
:105F5000130805006FF05FF46780000093070500E9
:105F60006FF0DFF78347050013070500638C070018
:105F70001305150083470500E39C07FE3305E54044
:105F800067800000130500006780000013051500FE
:105F90008347F5FF9385150003C7F5FF6388070066
:105FA000E386E7FE3385E740678000009307000043
:105FB0006FF05FFF930705009385150003C7F5FF9A
:105FC00093871700A38FE7FEE31807FE67800000A2
:105FD00083460500930700026398F6001305150039
:105FE00083460500E38CF6FE938756FD93F7D70FA3
:105FF0006380070493070500930500006388060487
:106000001305000093871700138606FD131725005C
:1060100083C607003305A700131515003305A60036
:10602000E39206FE638405003305A040678000000C
:10603000938536FD8346150093B51500930715002B
:10604000E39006FC130500006FF0DFFD1305000070
:106050006780000083A705002380A70083A70500B1
:106060009387170023A0F5006780000097A6010022
:106070009386C64D83A7060017370300130787785A
:1060800013861700B307F7002380A70097A5010028
:1060900023AEC54A9307A000630AF50093070004E6
:1060A0006308F6001305000067800000E30C06FE9D
:1060B000370610F0130717008347F7FF2320F6F089
:1060C00083A706009387F7FF97A5010023A0F54853
:1060D000E39207FE1305000067800000130101EB47
:1060E0002322911423202115232A511323248113C1
:1060F0002326111423248114232E3113232C41131E
:106100002328611323267113232291132320A11323
:10611000232EB11193040500138905002326C10025
:10612000130C5002930A9000834709006388870389
:10613000638C070603A404006F00800063860706D3
:106140002300F40003A4040013091900130414002D
:1061500023A0840083470900E39287FF03461900C8
:106160009308190093860800130D00029309F0FFAD
:10617000130AF0FF13080000130550059307D6FD1E
:1061800093F7F70F13891600636EF53A17A701000E
:10619000130747E793972700B387E70083A7070014
:1061A000B387E700678007008320C11403248114AC
:1061B00083244114032901148329C113032A811361
:1061C000832A4113032B0113832BC112032C811249
:1061D000832C4112032D0112832DC11113010115CE
:1061E00067800000930C80002324010093071000B7
:1061F00063DA071D8327C10003A40400938B770093
:1062000093F68BFF03AB060083A9460093878600B5
:106210002326F10013860C009306000013050B00E3
:1062200093850900EF2000482328A1009307000070
:1062300063803733930D4101930B100013860C00DC
:106240009306000013050B0093850900EF20400220
:106250009306000013860C00130B050093890500BC
:10626000EF2040448327810023A0AD0093861B00CC
:10627000938D4D0063863701938B06006FF01FFCF2
:10628000E37C9BFF63D24603930704002380A701AE
:1062900003A40400130AFAFF9307140023A0F400D8
:1062A00013840700E3C446FF93962B009307010174
:1062B000B386D7006F008002938777052300F40030
:1062C00003A40400938BFBFF93871B0013041400AB
:1062D00023A084009386C6FFE358F0E483A706005A
:1062E000E3ECFAFC938707036FF05FFD83A70400DC
:1062F000930600030327C1002380D70083A704006F
:1063000093064700930C00011386170023A0C400D6
:1063100013068007A380C70003A404002324010000
:10632000930707001304140023A0840003AB0700A5
:10633000930900002326D1006FF0DFED8327C10011
:1063400083AC0700938B470063880C28635C40256F
:106350009307D002631EFD2083C70C0063880702E9
:1063600063D8092483A60400938C1C00130AFAFF47
:106370002380F60003A404001304140023A0840067
:1063800083C70C00E39E07FC6352400303A4040090
:10639000930700022300F40003A40400130AFAFF89
:1063A0001304140023A08400E3160AFE23267101BF
:1063B0006FF09FD72324010093071000930CA000D7
:1063C000E3CA07E38327C10003A4040093864700C0
:1063D0006FF0DFF503C61600930609006FF01FDAB1
:1063E00083A70400930650022380D70003A404006F
:1063F0001304140023A084006FF01FD3930C00013A
:10640000232401006FF09FDE8327C10003C616001E
:106410009306090083A90700938747002326F1000C
:10642000E35E0AD4138A09009309F0FF6FF01FD5C9
:1064300003C61600130DD002930609006FF01FD497
:106440009347FAFF93D7F74103C61600337AFA0051
:10645000930609006FF09FD203C61600130D0003C8
:10646000930609006FF09FD183C51600930906FDBE
:1064700093060900938705FD13860500E3E2FAFA07
:1064800093972900B38937019386160093991900D1
:10649000B389B90083C50600938909FD938705FD7B
:1064A00013860500E3FEFAFC6FF09FF70327C10097
:1064B00083A7040083260700130747002326E10073
:1064C0002380D70003A404001304140023A0840035
:1064D0006FF09FC59307100063D4070F8327C10097
:1064E0009386770093F686FF938786002326F10034
:1064F00083A9460083A7060063DE090E83A6040075
:106500001306D002B307F0402380C60003A40400A2
:10651000B336F000B30930411304140023A0840003
:10652000138B0700B389D940930CA00023240100EA
:106530006FF05FCE03C6160013081800930609001B
:106540006FF0DFC383A70400138908006FF09FE991
:10655000E3729BCF93071000930B0000930610008B
:10656000E3C447D36FF05FD497AC0100938C0CED7C
:106570009385090013850C00EF10D007330AAA4059
:106580006352400303A404002300A40103A40400F5
:10659000130AFAFF1304140023A08400E3160AFE72
:1065A000130A000083C70C00E38207E0E3CC09DA9A
:1065B0009389F9FF1307F0FFE396E9DA6FF0DFDC68
:1065C0008327C1009386470083A707002326D100B5
:1065D00093D9F7416FF05FF2635640019307D00201
:1065E000E314FDF897AC0100938C4CE5930780020F
:1065F0006FF01FD7138B0700930CA000232401001A
:1066000003A404006FF01FC1130101EB232E31130B
:10661000B70900409387F9FF2324811423229114A2
:10662000232C4113232A511323261114232021152F
:10663000232861132326711323248113232291130A
:106640002320A113232EB111130A05002324B10026
:1066500017A40100130484EF973A0300938A8A1A5F
:1066600097A40100938484AF2326F1009305500280
:106670001305A00013080004B70610F083470A00B2
:10668000638EB7046388070A03270400130A1A00FD
:10669000130617003387EA0097A8010023A8C8EA69
:1066A0002300F7006380A708E31A06FD17370300ED
:1066B00013074715130717008347F7FF23A0F6F0CA
:1066C000832704009387F7FF17A601002320F6E82D
:1066D000E39207FE83470A00E396B7FA83461A005F
:1066E00013051A0013070500930B0002130BF0FFAC
:1066F000130CF0FF13080000930550059308900059
:106700009387D6FD93F7F70F130A170063ECF54450
:1067100093972700B387970083A70700B387970055
:1067200067800700173703001307C70DE31406F847
:106730006FF0DFF48320C1140324811483244114F7
:10674000032901148329C113032A8113832A4113C6
:10675000032B0113832BC112032C8112832C4112B2
:10676000032D0112832DC111130101156780000053
:10677000930C8000130D00009307100063DA0721CB
:10678000832781009387770093F787FF83AD070006
:1067900003AB4700138787002324E10013860C0016
:1067A0009306000013850D0093050B00EF10906F0A
:1067B0002328A10063086D451309410193091000C6
:1067C00013860C009306000013850D0093050B0043
:1067D000EF10102A13860C0093060000930D05009D
:1067E000138B0500EF10106C2320A900938919006A
:1067F00013094900E3166DFDE3F49DFD1306000443
:10680000B70610F063D489038327040013871700A9
:10681000B387FA0097A5010023AAE5D22380770168
:10682000630AC706130CFCFFE3C089FF8327C1007E
:106830001305C10093089000B386F90093962600D3
:1068400093070101B386D7001308A00013030004C7
:10685000370610F0E38CA6E083A70600930500033B
:1068600063F4F8009305700503270400B387B700AD
:10687000930517003387EA0017AE01002328BECC2A
:106880002300F70063860737638C65329386C6FF63
:106890006FF05FFC173703001307C7F613071700E5
:1068A0008347F7FF23A0F6F0832704009387F7FFC1
:1068B00097A5010023ACF5C8E39207FE130CFCFF7B
:1068C0006FF09FF683270400130600041387170058
:1068D00097A5010023ACE5C6B386FA009305000333
:1068E0002380B6006308C7509387270097A601004E
:1068F00023AEF6C43387EA00930680072300D7004F
:1069000017370300130707F0B70610F06392C702AA
:10691000130717008347F7FF23A0F6F0832704002F
:106920009387F7FF17A601002322F6C2E39207FE22
:1069300083278100930C0001130D0000938747000B
:1069400003278100130B0000832D07002324F1008F
:106950006FF0DFE48327810083AC070013894700D1
:10696000638E0C4C6358802B9307D0026394FB3EDC
:1069700003C70C00930507006314072A6F00002F5C
:1069800093071000930CA000130D0000E3CA07DF6B
:1069900083278100938747006FF09FFA8327810048
:1069A0008346170013070A0003AB070093874700CD
:1069B0002324F100E3560CD4130C0B00130BF0FF4F
:1069C0006FF01FD483461700930BD00213070A0001
:1069D0006FF01FD39347FCFF93D7F741834617000F
:1069E000337CFC0013070A006FF09FD18346170029
:1069F000930B000313070A006FF09FD003461700A4
:106A0000138B06FD13070A00930706FD9306060085
:106A1000E3E2F8FA93172B00B38767011307170017
:106A200093971700B387C70003460700138B07FD32
:106A3000930706FD93060600E3FEF8FC6FF09FF750
:106A400083258100832704001306A00003A7050007
:106A500093861700B387FA0017A501002328D5AE47
:106A60002380E700138945006300C73693070004BD
:106A70006384F62A232421016FF05FBF930710007F
:106A800063DE07358327810013877700137787FF3D
:106A9000930787002324F100032B47008327070077
:106AA00063560B3E032704001306000493061700E9
:106AB00097A5010023ACD5A83387EA009305D0023F
:106AC0002300B700638CC638B307F0403337F000BB
:106AD000330B6041938D0700330BEB40930CA00008
:106AE000130D00006FF09FCB8346170013081800AA
:106AF00013070A006FF0DFC08346170013070A0070
:106B00006FF01FC08327040093060004138717004B
:106B100017A60100232CE6A2B387FA001306500241
:106B20002380C700E314D7B417370300130787CDBA
:106B3000B70610F0130717008347F7FF23A0F6F0FE
:106B4000832704009387F7FF17A601002320F6A0F0
:106B5000E39207FE6FF09FB1930C0001130D00004C
:106B60006FF09FC18327040093060004130A0500F9
:106B70001387170017A60100232AE69CB387FA00A3
:106B8000130650022380C700E312D7AE1737030065
:106B9000130747C7B70610F0130717008347F7FF1F
:106BA00023A0F6F0832704009387F7FF17A60100C0
:106BB000232EF698E39207FE130A05006FF01FAB31
:106BC00017370300130707C4130717008347F7FF9E
:106BD0002320F6F0832704009387F7FF97A5010091
:106BE00023A6F596E39207FE9386C6FF6FF09FC635
:106BF00017370300130707C1E39805FC9386C6FF08
:106C00006FF05FC5E3FA9DBB930910006FF01FBFE3
:106C1000130C000003C70C0093050700E30C07E406
:106C20009308F0FF1305A00013080004B70610F046
:106C3000635E0B0C8327040013861700B387FA00EA
:106C400017A301002324C3902380E7006382A508D3
:106C50006308060B938C1C0003C70C00130CFCFF8D
:106C600093050700E31607FCE35680E18327040041
:106C70009305000213060004B70610F06F00C00071
:106C8000130CFCFFE3080CDE13871700B387FA0030
:106C90002380B70017A50100232AE58A9307070080
:106CA000E310C7FE173703001307C7B51307170014
:106CB0008347F7FF23A0F6F0832704009387F7FFAD
:106CC00017A501002324F588E39207FE6FF05FFB10
:106CD00017370300130707B3E30E06F61307170071
:106CE0008347F7FF23A0F6F0832704009387F7FF7D
:106CF00017A60100232CF684E39207FE6FF09FF5A0
:106D000017370300130707B06FF05FFD130BFBFF8E
:106D1000E3121BF36FF05FF517370300130787AE1D
:106D2000B70610F0130717008347F7FF23A0F6F00C
:106D3000832704009387F7FF17A601002328F68016
:106D4000E39207FE232421016FF05F92979C0100DC
:106D5000938CCC6E93050B0013850C00EF1080090B
:106D6000330CAC40E35880EB832704001306000487
:106D7000B70610F06F00C000130CFCFFE30A0CE82C
:106D800013871700B387FA002380770197950100D6
:106D900023AEE57A93070700E310C7FE1737030019
:106DA000130747A6130717008347F7FF23A0F6F042
:106DB000832704009387F7FF9795010023A8F578B0
:106DC000E39207FE6FF05FFB17370300130787A3FB
:106DD000E39806F4232421016FF05F898327810063
:106DE0001387470083A707002324E10013DBF74143
:106DF0006FF01FCB173703001307C7A0B70610F0BB
:106E0000130717008347F7FF23A0F6F0832704003A
:106E10009387F7FF17960100232AF672E39207FE85
:106E200093071000179701002322F772930780073A
:106E3000173703002308F79C6FF09FAF635680015C
:106E40009307D002E394FBF0979C0100938C0C5FB6
:106E500013078002930580026FF09FDC97360300D2
:106E60009386469A370610F09386160003C7F6FFFE
:106E70002320E6F0032704001307F7FF979501008E
:106E800023A6E56CE31207FE6FF01FC4938D070085
:106E9000930CA000130D00006FF05F90B70710F087
:106EA00023A0A7F26F000000130101FC13034102AD
:106EB0002322B10293050300232E11002324C102D3
:106EC0002326D1022328E102232AF102232C0103E5
:106ED000232E110323266100EFF00FF38320C1015D
:106EE000130500001301010467800000130101FB7A
:106EF00013038103232481022326A100232CC10232
:106F000013040500130603001305C1002326110214
:106F10002322F104232ED1022320E104232401059E
:106F200023261105232E6100EFF04F9B8327C1001C
:106F3000238007000325C1008320C102330585405B
:106F4000032481021301010567800000B70710F0D8
:106F500083A647F403A607F403A747F4E31AD7FE72
:106F6000B7160000938606FAB306D60033B6C600FD
:106F7000B305E60023A4D7F423A6B7F46780000086
:106F8000B70710F003A747F403A607F483A647F456
:106F9000E31AD7FEB7160000938606FAB306D600AA
:106FA00033B6C60023A4D7F4B305E60023A6B7F48E
:106FB0009307000873A0473067800000130101FFAA
:106FC0002324810023261100979701009387875877
:106FD000179401001304C45703A707008327040074
:106FE0001306F07C930647069387470697950100A2
:106FF00023A2D5569795010023ACF554634AD600D9
:107000008320C10003248100130101016780000077
:10701000130747899797010023AEE752EF0090547A
:10702000930710006316F50203270400B71700004A
:107030009387F77613050000E3D4E7FCEFF01FE633
:10704000032481008320C100130101016FB09FB9A7
:10705000179501001305053FEFF01FE5130520000C
:10706000EFF0DFE3032481008320C100130101015D
:107070006FB05FB7179501001305453E6FF0DFE273
:10708000179501001305053E6FF01FE2130101FF84
:10709000232481002322910023261100B71400002D
:1070A000179401001304843C938784381300000074
:1070B0009387F7FFE39C07FE13050400EFF0DFDE84
:1070C0006FF09FFE130500006F00103C130101FFDD
:1070D00023261100EF00104913071000930700004A
:1070E000631AE5008320C100138507001301010125
:1070F00067800000179501001305C534EFF0DFDA53
:107100008320C100930720001385070013010101AC
:1071100067800000737004306F000000678000001B
:10712000737004306F0000009797010093878743C6
:1071300003A7070083A74700130101F92324E102F5
:107140002326F10297970100938747422328610580
:107150002326710503AB070083AB47009797010017
:1071600093874741232C4105232A510503AA070091
:1071700083AA470097970100938747402320210760
:10718000232E310503A9070083A947002324810585
:10719000232291052320A105232EB10323261106C6
:1071A0002324810623229106930D0500930C0000F1
:1071B000179C0100130C0C3D370D00802324610146
:1071C0002326710123284101232A5101232C210167
:1071D000232E3101032581008325C10003260101EF
:1071E00083264101032481018324C101EF10900C07
:1071F0001306040093860400EF20D0192320A10277
:107200002322B102032501028325410203268102C4
:107210008326C102EF20D0751306000093060000FC
:10722000EF209007634205040325010283254102F4
:10723000032681028326C102EF20907303260C00EF
:1072400083264C00EF2080753325A000631A0500CB
:10725000E3960CF6930710002390FD006FF01FF6E5
:10726000930C10006FF09FF5832701020328410261
:107270000326810213870700B3470D018326C1024D
:1072800013050700938507006FF01FFB130101F939
:10729000979701009387872F2328610503AB070089
:1072A0002326710583AB4700979701009387872EAC
:1072B000232C410503AA070023246101232A510539
:1072C00083AA4700979701009387472D23267101D2
:1072D0002320210703A9070023284101232E31057C
:1072E00083A94700232A5101232C2101232E310198
:1072F000032781008327C100032601018326410162
:107300002324810623229106032481018324C101C1
:10731000232EB10393850700930D05001305070085
:107320002326110623248105232291052320A1056C
:10733000EF10D0781306040093860400EF20900528
:107340002324A1022326B102930C0000179C010004
:10735000130C4C23370D0080232461012326710177
:1073600023284101232A5101232C2101232E3101FD
:10737000032581008325C1000326010183264101E5
:10738000032481018324C101EF105073130604000C
:1073900093860400EF2010002320A1022322B102D3
:1073A0000325010283254102032681028326C102AF
:1073B000EF20105C1306000093060000EF20C06D64
:1073C000634205040325010283254102032681024D
:1073D0008326C102EF20D05903260C0083264C00DF
:1073E000EF20C05B3325A000631A0500E3960CF67E
:1073F000930710002390FD006FF01FF6930C100010
:107400006FF09FF5832701020328410203268102C2
:1074100013870700B3470D018326C1021305070038
:10742000938507006FF01FFB130101F72326A102CC
:107430001305000523248108232291082320210914
:10744000232E3107232C4107232A510723286107C4
:107450002326710723248107232291072320A107D4
:10746000232EB10523261108EFE00FEA97970100BC
:107470009387471303AB070083AB4700979701003F
:107480009387C71203AA070083AA470097970100B2
:107490009387471203A9070083A947009797010024
:1074A0009387C71103A4070083A44700979701009F
:1074B0009387471103A8470083A70700130C050013
:1074C000232601012324F1009797010093870710D9
:1074D00003A8470083A70700930C0000232A01019B
:1074E0002328F100979701009387C70E03A8470050
:1074F00083A70700232E0101232CF1009797010099
:107500009387C70D03A8470083A707002322010321
:107510002320F102979701009387C70C03AD070062
:1075200083AD4700232C0102232E010223200104F6
:107530002322010423200C0023220C0003258103B5
:107540008325C1031306000093060000EF10805648
:10755000232CA102232EB10223246C0123267C01BB
:10756000032581038325C10313060B0093860B00BB
:10757000EF104054232CA102232EB10223284C01EA
:10758000232A5C01032581038325C10313060A0016
:1075900093860A00EF100052232CA102232EB10281
:1075A000232C2C01232E3C01032581038325C103B9
:1075B0001306090093860900EF10C04F232CA10287
:1075C000232EB10223208C0223229C020325810357
:1075D0008325C1031306040093860400EF10804D39
:1075E00003268100232CA1028326C100232EB10291
:1075F0002324CC022326DC02032581038325C10337
:10760000EF10404B03260101232CA10283264101E8
:10761000232EB1022328CC02232ADC020325810376
:107620008325C103EF10004903268101232CA10209
:107630008326C101232EB102232CCC02232EDC028F
:10764000032581038325C103EF10C04603260102F1
:10765000232CA10283264102232EB1022320CC0435
:107660002322DC04032581038325C103EF1080441A
:10767000232CA102232EB1022324AC052326BC0512
:10768000032581038325C10313060D0093860D0096
:10769000EF104042232CA102232EB10203250C003F
:1076A00083254C000326010483264104EF1080400B
:1076B0002320A1042322B10403258C008325CC00C0
:1076C0000326010483264104EF10C03E2320A104B9
:1076D0002322B10403250C0183254C010326010458
:1076E00083264104EF10003D2320A1042322B1048E
:1076F00003258C018325CC01032601048326410444
:10770000EF10403B2320A1042322B10403250C02E7
:1077100083254C020326010483264104EF1080399F
:107720002320A1042322B10403258C028325CC024B
:107730000326010483264104EF10C0372320A1044F
:107740002322B10403250C0383254C0303260104E3
:1077500083264104EF1000362320A1042322B10424
:1077600003258C038325CC030326010483264104CF
:10777000EF1040342320A1042322B10403250C047C
:1077800083254C040326010483264104EF10803234
:107790002320A1042322B10403258C048325CC04D7
:1077A0000326010483264104EF10C0302320A104E6
:1077B0002322B104032581038325C1030326010489
:1077C00083264104EF20D01A2324A1042326B104E8
:1077D000032581048325C1041306000093060000DD
:1077E000EF20802B6342050497970100938787D988
:1077F0000325810403A607008325C10483A647004F
:10780000EF20C0193325A000631C0500E39C0CD0B9
:107810008327C102130710002390E7006FF09FD069
:10782000930C10006FF01FD097970100938707DC2F
:107830000325810403A607008325C10483A647000E
:10784000EF2080251355F5016FF01FFC130101F7A0
:107850002326A10213050005232481082322910871
:1078600023202109232E3107232C4107232A5107E6
:1078700023286107232671072324810723229107E8
:107880002320A107232EB10523261108EFE0CFA75F
:1078900097970100938707D603AB070083AB470098
:1078A00097970100938787D503AA070083AA47000B
:1078B00097970100938707D503A9070083A947007D
:1078C00097970100938787D403A4070083A44700F8
:1078D00097970100938707D403A8470083A7070061
:1078E000130C0500232201012320F10097970100CA
:1078F0009387C7D203A8470083A70700930C000013
:10790000232601012324F10097970100938787D153
:1079100003A8470083A70700232A01012328F100B9
:1079200097970100938787D003A8470083A7070094
:10793000232E0101232CF10097970100938787CF15
:1079400003A8470083A70700232201032320F10295
:1079500097970100938787CE03AD070083AD47005B
:10796000232C0102232E01022320010423220104DF
:1079700023206C0123227C01032581038325C1037D
:1079800013060B0093860B00EF10C012232CA102EC
:10799000232EB10223244C0123265C0103258103FD
:1079A0008325C10313060A0093860A00EF10801096
:1079B000232CA102232EB10223282C01232A3C01CF
:1079C000032581038325C10313060900938609005B
:1079D000EF10400E232CA102232EB102232C8C0089
:1079E000232E9C00032581038325C1031306040075
:1079F00093860400EF10000C03260100232CA10243
:107A000083264100232EB1022320CC022322DC0254
:107A1000032581038325C103EF10C00903268100DC
:107A2000232CA1028326C100232EB1022324CC02E1
:107A30002326DC02032581038325C103EF10800781
:107A400003260101232CA10283264101232EB1022A
:107A50002328CC02232ADC02032581038325C103CA
:107A6000EF10400503268101232CA1028326C101CA
:107A7000232EB102232CCC02232EDC02032581030A
:107A80008325C103EF10000303260102232CA1026A
:107A900083264102232EB1022320CC042322DC04BE
:107AA000032581038325C103EF10C000232CA1020D
:107AB000232EB1022324AC052326BC050325810314
:107AC0008325C10313060D0093860D00EF00907E01
:107AD000232CA102232EB10203250C0083254C0088
:107AE0000326010483264104EF00D07C2320A10457
:107AF0002322B10403258C008325CC000326010436
:107B000083264104EF00107B2320A1042322B1042B
:107B100003250C0183254C0103260104832641041F
:107B2000EF0050792320A1042322B10403258C0106
:107B30008325CC010326010483264104EF009077BE
:107B40002320A1042322B10403250C0283254C0227
:107B50000326010483264104EF00D0752320A104ED
:107B60002322B10403258C028325CC0203260104C1
:107B700083264104EF0010742320A1042322B104C2
:107B800003250C0383254C030326010483264104AB
:107B9000EF0050722320A1042322B10403258C039B
:107BA0008325CC030326010483264104EF00907053
:107BB0002320A1042322B10403250C0483254C04B3
:107BC0000326010483264104EF00D06E2320A10484
:107BD0002322B10403258C048325CC04032601044D
:107BE00083264104EF00106D2320A1042322B10459
:107BF000032581038325C103032601048326410451
:107C0000EF2000572324A1042326B1040325810477
:107C10008325C1041306000093060000EF10D0670F
:107C200063420504979701009387C7950325810454
:107C300003A607008325C10483A64700EF10105652
:107C40003325A000631C0500E39C0CD08327C102F0
:107C5000130710002390E7006FF09FD0930C1000E3
:107C60006FF01FD0979701009387479803258104F1
:107C700003A607008325C10483A64700EF10D06147
:107C80001355F5016FF01FFC130101FF2324810040
:107C900013070500130405009308000013080000F3
:107CA00093070000979601009386068B1306004009
:107CB000978501009385C57C17F5FFFF13050547E0
:107CC00023261100EFA0CF851307040093080000BE
:107CD0001308000093070000979601009386E6873B
:107CE00013060040978501009385057A17F5FFFF7D
:107CF0001305055AEFA0CF82130704009308000074
:107D000013080000930700009796010093860685EC
:107D100013060040978501009385857717050000BD
:107D2000130505B3EF90DFFF130704000324810060
:107D30008320C1009308000013080000930700008F
:107D4000979601009386A68113060040978501004F
:107D50009385857417F5FFFF1305456D1301010128
:107D60006F901FFC9786010083D6067F13071000D3
:107D7000978701009387477E130500006398E6000C
:107D800017870100231A077C1305100003D727006B
:107D9000930610006386E60203D74700930610009F
:107DA000130500006388E60283D7670013071000FD
:107DB00013050000630AF702130500006780000046
:107DC00017870100231B077803D74700930610008D
:107DD000E39CE6FC178701002312077883D767002E
:107DE00013071000E31AF7FC978701002399077621
:107DF00067800000B305B500930705006386B700F0
:107E000003C70700631607003385A740678000009B
:107E1000938717006FF09FFE9308000063DC050056
:107E20003305A040B337A000B305B040B385F5409B
:107E30009308F0FF63DA06003306C040B337C00092
:107E4000B306D040B386F64013080600138306003D
:107E500093070500138705006398062497860100A1
:107E60009386C64C63F8C50E370E0100637AC60DC3
:107E7000130EF00F6374CE0013038000335E6600B0
:107E8000B386C60103CE0600330E6E001303000254
:107E90003303C341630C0300B3956500335EC50132
:107EA000331866003367BE00B3176500135E080120
:107EB000B355C703131508011355050193D60701E0
:107EC0003376C703B305B50213160601B366D600B1
:107ED00063FAB600B386060163E6060163F4B600F2
:107EE000B3860601B386B64033F7C60393970701FE
:107EF00093D70701B3D6C603B306D50213150701FE
:107F0000B367F50063FAD700B387070163E607019B
:107F100063F4D700B3870701B387D74033D5670031
:107F200093050000638C0800B307A0403337F000CE
:107F3000B305B04013850700B385E54067800000B6
:107F4000370E000113030001E36AC6F31303800137
:107F50006FF0DFF263160600130810003358680252
:107F6000370701006372E80A1307F00F6374070113
:107F70001303800033576800B386E60003C606008B
:107F800033066600130300023303C340631803087B
:107F9000B3850541935608011315080113550501D2
:107FA00013D6070133F7D502B3D5D502131707014E
:107FB0003367C700B305B502637AB700330707011B
:107FC000636607016374B70033070701B305B74061
:107FD00033F7D5029397070193D70701B3D5D5029D
:107FE000B305B50213150701B367F50063FAB700CF
:107FF000B387070163E6070163F4B700B38707019E
:10800000B387B7406FF09FF13707000113030001FA
:10801000E362E8F6130380016FF0DFF533186800C0
:1080200033DEC500935E08013356C500B317650003
:108030003355DE03B39565003366B600931508012A
:1080400093D50501935606013377DE033385A502E8
:10805000131707013367D700637AA70033070701B7
:10806000636607016374A70033070701B306A740DF
:1080700033F7D6031316060113560601B3D6D603FB
:1080800013170701B386D502B365C70063FAD5009D
:10809000B385050163E6050163F4D500B3850501E9
:1080A000B385D5406FF01FEFE3EED5E6370801004A
:1080B00063FC0605930EF00F33B8DE00131838008A
:1080C00033DE060117830100130343263303C30184
:1080D000834E0300130E0002B38E0E01330EDE41F9
:1080E000631E0E0263E4B600636AC500B307C540B1
:1080F000B385D5403335F5003387A5401385070098
:10810000930507006FF01FE2370300011308000119
:10811000E3E866FA130880016FF09FFA3357D6013F
:10812000B396C601B366D700B357D50133D7D5018F
:10813000B395C501B3E7B70093D506013373B70212
:10814000139F0601135F0F0113D807013316C601F1
:108150003315C5013357B702131303013368030105
:10816000B30FEF0213030700637EF8013308D80052
:108170001303F7FF6368D8006376F8011303E7FF82
:108180003308D8003308F841B37FB8023358B80237
:10819000939F0F01B3050F03139F0701135F0F0197
:1081A00033EFEF0113070800637EBF00330FDF00DA
:1081B0001307F8FF6368DF006376BF001307E8FF6B
:1081C000330FDF0013130301B70F01003363E30024
:1081D0009387FFFF13580601330FBF40B375F300B9
:1081E00013530301B377F6003387F502B307F302A5
:1081F000B385050333030303B385F5001358070163
:108200003308B8006374F8003303F301B7070100C3
:108210009387F7FF935508013378F8001318080186
:108220003377F700B38565003307E8006366BF0066
:10823000631EBF00637CE5003306C7403337C700C9
:10824000B385D540B385E540130706003307E54005
:108250003335E500B305BF40B385A540B397D501DD
:108260003357C70133E5E700B3D5C5016FF09FCBA6
:108270009387050013080600138706001303050003
:1082800063960628978801009388480A63F6C50E0E
:10829000370701006378E60C1307F00F3337C70088
:1082A00013173700B356E600B388D80083C608001A
:1082B0003387E60093060002B386E640638C06002F
:1082C000B397D7003357E5003318D600B365F700EE
:1082D0003313D50013550801B3D7A50213160801AF
:1082E000135606019356030133F7A502B305F602B0
:1082F00013170701B366D7001387070063FEB600A4
:10830000B38606011387F7FF63E8060163F6B6003C
:108310001387E7FFB3860601B386B640B3F7A6021C
:108320001313030113530301B3D6A6029397070156
:1083300033E36700B305D60213850600637CB30000
:10834000330368001385F6FF636603016374B300AB
:108350001385E6FF131707013367A7009305000095
:108360006F00400EB706000113070001E36CD6F260
:10837000130780016FF01FF36316060093061000C9
:1083800033D8C602B70601006372D80C9306F00F0B
:1083900063F4060113078000B356E800B388D800E1
:1083A00083C60800B386E600130700023307D740F0
:1083B0006318070AB3870741930510001356080195
:1083C0009318080193D808019356030133F7C702A5
:1083D000B3D7C70213170701B366D7003385F80276
:1083E0001387070063FEA600B38606011387F7FF15
:1083F00063E8060163F6A6001387E7FFB38606016C
:10840000B386A640B3F7C602131303011353030147
:10841000B3D6C6029397070133E36700B388D80247
:1084200013850600637C1301330368001385F6FF90
:1084300063660301637413011385E6FF13170701D5
:108440003367A7001305070067800000B706000127
:1084500013070001E362D8F4130780016FF0DFF324
:108460003318E800B3D5D7003313E500B356D50071
:1084700013550801B397E70033F7A502B3E8F600F8
:108480009317080193D7070113D60801B3D5A502A6
:10849000131707013367C700B386B70213860500B9
:1084A000637ED700330707011386F5FF6368070172
:1084B0006376D7001386E5FF33070701B306D7407D
:1084C00033F7A6029398080193D80801B3D6A60201
:1084D00013170701B385D702B36717011387060087
:1084E00063FEB700B38707011387F6FF63E8070150
:1084F00063F6B7001387E6FFB3870701B387B7407A
:1085000093150601B3E5E5006FF05FEB63E6D51860
:108510003707010063F4E6041308F00F3337D8007F
:108520001317370033D8E60097850100938505E0DF
:10853000B385050103C80500930500023308E80070
:10854000B38505416396050213071000E3ECF6EED0
:108550003335C500134715006FF0DFEEB705000196
:1085600013070001E3E0B6FC130780016FF09FFBE7
:1085700033570601B396B600B366D70093DE060103
:1085800033D70701B378D703B397B7003358050142
:108590003363F8009397060193D70701135803013B
:1085A0003316B6003357D7039398080133E8080110
:1085B000338FE702130E0700637EE8013308D8000B
:1085C000130EF7FF6368D8006376E801130EE7FF28
:1085D0003308D8003308E841B378D8033358D803B8
:1085E00093980801B38E07039317030193D70701EC
:1085F000B3E7F8001307080063FED701B387D7007D
:108600001307F8FF63E8D70063F6D7011307E8FF05
:10861000B387D700131E0E01B387D741B70E0100F1
:108620003367EE001388FEFF337307019358070189
:108630003378060113560601330E0303338808030B
:1086400093560E013303C30233030301B38666005E
:10865000B388C80263F40601B388D80113D60601B3
:10866000B308160163E61703E39A17CFB7070100B3
:108670009387F7FFB3F6F60093960601337EFE006C
:108680003315B500B386C60193050000E37CD5DA47
:108690001307F7FF6FF09FCC93050000130700004E
:1086A0006FF05FDA93080600138706009307050052
:1086B00013880500639C062297860100938606C7EF
:1086C00063FCC50C37030100637E660A1303F00FD9
:1086D0006374C300130780003353E600B38666005B
:1086E00003CE060013030002330EEE003303C34132
:1086F000630C0300B3956500335EC501B3186600D3
:108700003368BE00B317650013D608013377C8027B
:10871000139508011355050193D607013358C80274
:1087200013170701B366D7003308050363FA060180
:10873000B386160163E6160163F40601B3861601DB
:10874000B386064133F7C6029397070193D7070113
:10875000B3D6C602B306D50213150701B367F500F9
:1087600063FAD700B387170163E6170163F4D700F4
:10877000B3871701B387D74033D56700930500004F
:10878000678000003703000113070001E36666F409
:10879000130780016FF05FF46316060013061000E4
:1087A000B35816033706010063F2C80A1306F00F28
:1087B000637416011307800033D6E800B386C60041
:1087C00003CE060013030002330EEE003303C34151
:1087D00063180308B385154113D7080113950801E1
:1087E0001355050113D60701B3F6E502B3D5E5022B
:1087F00093960601B3E6C600B305B50263FAB60068
:10880000B386160163E6160163F4B600B38616015B
:10881000B385B640B3F6E5029397070193D70701F6
:10882000B3D5E502B305B50213950601B367F500AC
:1088300063FAB700B387170163E6170163F4B70063
:10884000B3871701B387B7406FF01FF337060001F6
:1088500013070001E3E2C8F6130780016FF0DFF5AC
:10886000B398680033D7C501B3176500335EC501FF
:1088700013D50801B376A702B3956500336EBE0029
:108880009395080193D5050113560E013357A7029E
:1088900093960601B3E6C6003387E50263FAE60065
:1088A000B386160163E6160163F4E600B38616018B
:1088B0003386E640B376A602131E0E01135E0E0148
:1088C0003356A602939606013386C502B3E5C60168
:1088D00063FAC500B385150163E6150163F4C500AD
:1088E000B3851501B385C5406FF01FEFE3EAD5E806
:1088F0003707010063FCE604930EF00F33B7DE0088
:108900001317370033D3E60097880100938808A235
:10891000B388680083CE0800130E0002B38EEE0009
:10892000330EDE41631E0E0263E4B600636AC500C7
:10893000B307C540B385D5403335F5003388A5402E
:1089400013850700930508006FF09FE3B708000147
:1089500013070001E3E816FB130780016FF09FFA8D
:108960003357D601B396C601B366D700B357D501C6
:1089700033D7D501B395C501B3E7B70093D5060149
:108980003373B702139F0601135F0F0193D80701DA
:108990003316C6013315C5013357B702131303014C
:1089A000B36813013308EF021303070063FE0801E5
:1089B000B388D8001303F7FF63E8D80063F6080113
:1089C0001303E7FFB388D800B3880841B3FFB802A8
:1089D000B3D8B802939F0F01B3051F03139F07017C
:1089E000135F0F0133EFEF0113870800637EBF00B1
:1089F000330FDF001387F8FF6368DF006376BF0083
:108A00001387E8FF330FDF0013130301B7080100DA
:108A10003363E3009387F8FF13580601330FBF4019
:108A2000B375F30013530301B377F6003387F502F0
:108A3000B307F302B385050333030303B385F500DE
:108A4000135807013308B8006374F80033031301A7
:108A5000B70701009387F7FF935508013378F800B3
:108A6000131808013377F700B38565003307E80072
:108A70006366BF00631EBF00637CE5003306C7402A
:108A80003337C700B385D540B385E54013070600EB
:108A90003307E5403335E500B305BF40B385A54056
:108AA000B397D5013357C70133E5E700B3D5C50107
:108AB0006FF01FCD370810001308F8FF130101FEF7
:108AC000B378B80013D745019357D5012328210166
:108AD0001379F77F139738003378D800B3E7E700AE
:108AE00013D7460113183800232A91001377F77F14
:108AF00093D8F601232E11009356D601232C810022
:108B00002326310193D4F50133E306011315350013
:108B1000131636003308E9406394143B6354001F76
:108B2000631207143367C3006314070C9306F07FC6
:108B300013070800631CD830B3E6A700639806301B
:108B400093070000130500009396870063DE06007C
:108B5000130717009306F07F630CD774B70680FFE6
:108B60009386F6FFB3F7D7009396D70113553500D8
:108B700033E5A6009306F07F93D73700631ED70036
:108B80003365F5009307000063080500B707080088
:108B90001305000093040000B70610009386F6FF4B
:108BA000B3F7D700B70610801377F77F9386F6FFE9
:108BB00013174701B3F7D700B3E7E7003707008083
:108BC0001347F7FF8320C101032481019395F4012A
:108BD000B3F7E70033E7B70083244101032901011C
:108BE0008329C1009305070013010102678000007B
:108BF0009305F8FF639C05043306C5003335A600D2
:108C0000B3876700B387A70013071000130506009A
:108C10009396870063DC0622130717009306F07F04
:108C2000E300D7F2B70680FF9386F6FFB3F6D700CE
:108C300093551500137515009397F60133E5A500BC
:108C400033E5A70093D716006F0040201307F07F8D
:108C50006314E80233E7A700630007621307F07F9D
:108C60006F00C01E1307F07FE306E9FE37078000A0
:108C70003363E3009305080013078003634EB706D0
:108C80001307F0016342B704130700023307B7402C
:108C9000B356B6003318E3003316E6003368D80045
:108CA0003336C0003368C800B355B3003308A8009A
:108CB000B385F500B337A800B387F50013050800A6
:108CC000130709006FF0DFF4130700023358B300F5
:108CD000930600006388E50093060004B385B64060
:108CE000B316B30033E6C6003336C0003368C8009D
:108CF000930500006FF09FFB3368C3003338000119
:108D00006FF01FFF630A080E631E0908B3E6A70091
:108D1000639206029307F07F6318F7003365C30080
:108D200093070000E30205E2930703001305060022
:108D30006F00C0119306F0FF631CD8003305C50017
:108D4000B38767003336C500B387C7006FF05FECA9
:108D50009306F07F1348F8FFE302D7FC93068003E5
:108D600063C606099306F00163CA0605930500026F
:108D7000B3850541B3580501B396B7003315B50067
:108D8000B3E616013335A00033E5A60033D807015A
:108D90003305C50033086800B337C500B307F800D2
:108DA0006FF01FE79306F07FE30AD7F6B70680005F
:108DB00033080041B3E7D7006FF05FFA9308000271
:108DC000B3D607019305000063081801930500045A
:108DD00033880541B395070133E5A5003335A0007D
:108DE00033E5A600130800006FF09FFA33E5A700F3
:108DF0003335A0006FF01FFF130719009375F77F3D
:108E00009306100063C8B60833E7A7006314090689
:108E100063080744B366C3001307000063880602B3
:108E20003306C5003335A600B3876700B387A700B4
:108E3000939687001305060063DA0600370780FF64
:108E40001307F7FFB3F7E7001307100093767500D9
:108E5000E38C06CE9376F50013064000E386C6CE7B
:108E60009306450033B5A600B387A7001385060017
:108E70006FF09FCD630C073E3368C300E30008DE4C
:108E8000B7074000130500001307F07F93040000AC
:108E90006FF09FCB9306F07FE304D7CA3306C5007B
:108EA00033886700B337A6003308F8001315F801BC
:108EB000135616003365C500935718006FF01FF95D
:108EC000635E000F6312070A3367C300E30007C63F
:108ED0009306F8FF639E06023306C5403335C5008E
:108EE000B3876740B387A740130710001305060038
:108EF00093968700E3DC06F4370480001304F4FF44
:108F000033F4870093090500130907006F00002759
:108F10001307F07FE300E8D413078003634AD70800
:108F20001307F001634ED704130700023307D7403D
:108F3000B355D6003318E3003316E6003368B800A3
:108F40003336C0003368C800B356D3003308054138
:108F5000B386D740B3370501B387F6401305080041
:108F6000130709006FF0DFF81307F07FE304E9CE81
:108F7000370780003363E300930608006FF0DFF9E2
:108F8000130700023358D300130400006388E6007F
:108F900013040004B306D4403314D3003366C40072
:108FA0003336C0003368C800930600006FF01FFA24
:108FB0003368C300333800016FF01FFF630A080EE7
:108FC000631E0908B3E6A700639006029307F07FCB
:108FD0006316F7003365C3006308052A930703008F
:108FE000130506006F00C00F9306F0FF631ED80044
:108FF0003305A640B307F3403336A600B387C74016
:10900000938408006FF0DFEE9306F07F1348F8FFBB
:10901000E302D7FC9306800363C606099306F001BA
:1090200063CA060593050002B3850541335E050159
:10903000B396B7003315B500B3E6C6013335A000CB
:1090400033E5A60033D807013305A64033080341B2
:10905000B337A600B307F8406FF09FFA9306F07F8E
:10906000E30AD7F6B706800033080041B3E7D7001C
:109070006FF05FFA130E0002B3D6070193050000EC
:109080006308C8019305000433880541B3950701BF
:1090900033E5A5003335A00033E5A6001308000032
:1090A0006FF09FFA33E5A7003335A0006FF01FFF84
:1090B000130719001377F77F9306100063CAE608B9
:1090C000B3E6A7003367C30063140906639E060076
:1090D0006302071C93070300130506001307000033
:1090E000938408006FF09FD663000704B306C54061
:1090F000B335D500338767403307B74093158700F2
:1091000063DC05003305A640B307F3403336A60001
:10911000B387C7406FF09FFC33E5E600630A050C98
:109120009307070013850600130700006FF01FD296
:10913000639C0600630807169307030013050600E7
:10914000938408006FF09FB1E30A07B06FF05FD31C
:10915000B309C540338467403338350133040441D3
:109160001317840063520708B309A6403304F34081
:10917000B33736013304F44093840800630E0406C9
:1091800013050400EF109000130785FF9307F0010B
:1091900063CCE70693070002B387E7403314E4008B
:1091A000B3D7F90033E487003395E9006340270B18
:1091B00033072741930717009306F00163CEF604A7
:1091C000130700023307F7403356F500B316E400E7
:1091D0003315E500B3E6C6003335A00033E5A6003D
:1091E000B357F4006FF05FF433E58900E31805F836
:1091F000930700006F00800A13850900EF100079C3
:10920000130505026FF05FF8130485FD33948900A0
:10921000130500006FF09FF9130717FE13060002F5
:109220003357E400930600006388C70093060004E8
:10923000B386F640B316D4003365D5003335A000AD
:109240003365A700930700006FF01FEEB70780FF9C
:109250009387F7FF3307E940B377F4006FF01FBF40
:1092600093070300130506006FF01FEC930703003C
:10927000130506006FF09F9E930700001305000082
:109280001307F07F6FF05F8C930700009384080052
:109290006FF09F8B93070000130500001307000079
:1092A0006FF0DFBE13050000B70740006FF0DFBDB1
:1092B00093070000130500006FF01F8B130101FDE1
:1092C0002324810223229102232861011304050033
:1092D000130B0500B704100013D54501232021030B
:1092E000232E3101232671019384F4FF23261102DA
:1092F000232C4101232A51011375F57F930B06009E
:1093000093890600B3F4B40013D9F5016306050A86
:109310009307F07F6306F51093943400B70680003E
:10932000B3E4D400935ADB01B3EA9A0013143B0070
:10933000130A15C0130B000013D54901B704100020
:109340009384F4FF1375F57FB3F43401938F0B000E
:1093500093D9F901630205109307F07F6302F516B4
:10936000B707800093943400B3E4F40093D7DB0193
:10937000B3E79700939F3B00130515C01307000048
:1093800093162B00B3E6E6009386F6FF9305E00004
:10939000334639013305AA4063E0D51697750100BD
:1093A000938545F193962600B386B60083A6060002
:1093B000B386B60067800600B3EA6401638E0A06CE
:1093C0006380040413850400EF10405C930755FF8D
:1093D0001307C001634EF702930AD001130485FFFF
:1093E000B38AFA40B3948400B35A5B01B3EA9A009B
:1093F00033148B00130AD0C0330AAA406FF09FF3D6
:1094000013050B00EF108058130505026FF01FFCC9
:10941000930485FDB31A9B00130400006FF09FFDB9
:10942000B3EA640163820A02938A0400130AF07F9C
:10943000130B30006FF05FF013040000130A0000FC
:10944000130B10006FF05FEF13040000130AF07F9E
:10945000130B20006FF05FEEB3E77401638E070615
:109460006380040413850400EF104052130755FF76
:109470009307C00163CEE7029307D001930F85FFE6
:10948000B387E740B394F401B3D7FB00B3E7970089
:10949000B39FFB011306D0C03305A6406FF01FEE4B
:1094A00013850B00EF10804E130505026FF01FFCB3
:1094B000930785FDB397FB00930F00006FF09FFDAE
:1094C000B3E7740163820702938704001305F07FFA
:1094D000130730006FF0DFEA930F00001305000060
:1094E000130710006FF0DFE9930F00001305F07F02
:1094F000130720006FF0DFE863E657016390FA3648
:10950000636EF4359395FA01935614001317F40122
:1095100093DA1A0033E4D5009397870013D88F01AC
:109520003368F800935E0801B3D5DA03131E08010F
:10953000135E0E019356040193988F00B3F4DA037F
:10954000938F0500B307BE0293940401B3E696001F
:1095500063FEF600B3860601938FF5FF63E806010C
:1095600063F6F600938FE5FFB3860601B386F640F7
:1095700033D3D6031314040113540401B3F6D603F2
:1095800093070300B3056E0293960601B366D400F9
:1095900063FEB600B38606019307F3FF63E8060196
:1095A00063F6B6009307E3FFB38606013384B64043
:1095B000939F0F01B7050100B3EFFF001383F5FF81
:1095C00093D60F01B3F76F0013DF080133F3680080
:1095D000B3836702B3846602B307FF02B382E60374
:1095E000B386970093D70301B387D70063F497003E
:1095F000B382B20093D60701B3865600B7020100CA
:109600009382F2FFB3F5570093950501B3F353002E
:10961000B38575006368D40093870F006314D40486
:109620006372B70433071701B3321701B382020123
:10963000330454009387FFFF636688006314880235
:10964000636217036366D400639E8600637CB70081
:10965000330717019387EFFFB33F1701B38F0F0154
:109660003304F401B305B7403304D4403337B700B3
:109670003304E440930FF0FF63048812B352D40321
:1096800093D605013374D40313870200B30F5E022F
:109690001314040133E48600637EF40133040401EF
:1096A0001387F2FF636804016376F4011387E2FF16
:1096B000330404013304F441B356D40393950501F4
:1096C00093D505013374D403330EDE021314040161
:1096D00033E4850093850600637EC40133040401EE
:1096E0009385F6FF636804016376C4019385E6FF02
:1096F0003304040113170701B365B700139705017D
:10970000135707013304C44113DE0501B30E67028A
:1097100033036E02330ECF03330FEF0213D70E0164
:10972000330F6F003307E70163766700B706010068
:10973000330EDE00135307013303C301370E01005C
:10974000130EFEFFB376C70193960601B3FECE015A
:10975000B386D60163686400938F050063106404C8
:109760006380060433048800938FF5FF6364040369
:10977000636664006314640263F0D80213971800F0
:10978000B338170133880801938FE5FF33040401D0
:1097900093080700631464006384160193EF1F00AD
:1097A0009306F53F635AD01013F77F00630007025A
:1097B00013F7FF0093054000630AB70093854F003D
:1097C000B3BFF501B387F701938F050013977700B7
:1097D000635A0700370700FF1307F7FFB3F7E700E7
:1097E000930605401307E07F634AD7181397D70104
:1097F00093DF3F003367F70193D73700B7051000B9
:109800009385F5FFB3F7B700B70510809385F5FF93
:1098100093F6F67F93964601B3F7B7008320C10213
:10982000032481021316F601B3E7D700B3E6C7009D
:1098300083244102032901028329C101032A8101F2
:10984000832A4101032B0101832BC100130507006B
:109850009385060013010103678000001305F5FFDF
:10986000130700006FF05FCB1306090093870A000F
:10987000930F040013070B00930620006300D7101A
:10988000930630006302D70E93061000E31AD7F058
:1098900093070000130700006F00400913860900BA
:1098A0006FF09FFDB7070800930F0000130600003C
:1098B000130730006FF05FFC93051000B385D540AF
:1098C00013078003E346B7FC1307F0016344B706B0
:1098D0001305E5413397A700B3D6BF003395AF001A
:1098E0003367D7003335A0003367A700B3D7B7007D
:1098F00093767700638006029376F7009305400025
:10990000638AB6009306470033B7E600B387E700E3
:10991000138706009396870063CA06069396D701BD
:109920001357370033E7E60093D73700930600005C
:109930006FF0DFEC130710FE3307D7401308000267
:1099400033D7E70093060000638605011305E5435E
:10995000B396A70033E5F6013335A0003367A700BF
:10996000930700006FF0DFF8B70708001307000047
:109970009306F07F130600006FF05FE89307000086
:10998000130700009306F07F6FF05FE79307000076
:1099900013070000930610006FF05FE613D7450130
:1099A000B70710009387F7FF13D846019308050007
:1099B000930E05001377F77F1305F07F33F3B7009D
:1099C000130F0600B3F7D70093D5F5011378F87F8E
:1099D00093D6F601631AA700336E13011305E0FF57
:1099E000630C0E0867800000631AA80033E6C70006
:1099F0001305E0FF630A060867800000631007088C
:109A000033651301133515006316080033E6C700EC
:109A100063000606631A0500638ED5001305100067
:109A20006396050067800000E39E06FE1305F0FFC5
:109A300067800000E344E8FE635A07011305F0FF66
:109A4000E38205FE1305100067800000E3E867FC71
:109A5000631AF300E364DFFD13050000E3E0EEFFAB
:109A60006FF05FFCE36CF3FC1305000067800000FF
:109A7000E31C05FE6FF09FFAE30AE8F61305000009
:109A8000E30608F86FF05FF9E31807F83365130190
:109A9000133515006FF01FF813D74501B7071000F5
:109AA0009387F7FF13D8460193080500930E05002E
:109AB0001377F77F1305F07F33F3B700130F06001A
:109AC000B3F7D70093D5F5011378F87F93D6F60155
:109AD000631AA700336E130113052000630C0E08F0
:109AE00067800000631AA80033E6C7001305200052
:109AF000630A0608678000006310070833651301D6
:109B0000133515006316080033E6C7006300060628
:109B1000631A0500638ED5001305100063960500D7
:109B200067800000E39E06FE1305F0FF67800000DB
:109B3000E344E8FE635A07011305F0FFE38205FEE4
:109B40001305100067800000E3E867FC631AF30068
:109B5000E364DFFD13050000E3E0EEFF6FF05FFC60
:109B6000E36CF3FC1305000067800000E31C05FEB6
:109B70006FF09FFAE30AE8F613050000E30608F821
:109B80006FF05FF9E31807F833651301133515001B
:109B90006FF01FF8130101FD23202103232A510137
:109BA0003709100093DA4501232E3101232C41019E
:109BB00023286101232671011309F9FF23261102CD
:109BC000232481022322910293FAFA7F130B0500CA
:109BD000930B0600138A06003379B90093D9F50177
:109BE00063880A0A9307F07F6386FA1037048000BF
:109BF00013193900336989001354D50133642401E2
:109C000093143500938A1AC0130B000013554A01B0
:109C1000370910001309F9FF1375F57F33794901EE
:109C200013870B00135AFA01630405109307F07FA2
:109C30006304F516B7078000131939003369F9007A
:109C400093D7DB01B3E7270113973B00130515C03A
:109C50009306000093152B00B3E5D5003385AA00C9
:109C60009385F5FF9308E00033C6490113081500FA
:109C700063E0B81617650100130585679395250005
:109C8000B385A50083A50500B385A5006780050001
:109C90003364A900630E0406630009041305090078
:109CA000EF00D04E930755FF1307C001634CF70236
:109CB0001304D001930485FF3304F4403319990051
:109CC00033548B0033642401B3149B00930AD0C037
:109CD000B38AAA406FF05FF3EF00504B1305050203
:109CE0006FF05FFC130485FD33148B0093040000B8
:109CF0006FF0DFFD3364A9006304040293040500E0
:109D000013040900930AF07F130B30006FF01FF06B
:109D100093040000930A0000130B10006FF01FEF74
:109D200093040000930AF07F130B20006FF01FEEE6
:109D3000B3677901638E0706630009041305090000
:109D4000EF00D044930655FF9307C00163CED702BE
:109D50009307D001130785FFB387D7403319E90074
:109D6000B3D7FB00B3E727013397EB009306D0C0CE
:109D70003385A6406FF0DFED13850B00EF00104137
:109D8000130505026FF01FFC930785FDB397FB00D9
:109D9000130700006FF09FFDB3677901638207022C
:109DA000930709001305F07F930630006FF09FEAD8
:109DB0001307000013050000930610006FF09FE9E1
:109DC000130700001305F07F930620006FF09FE853
:109DD000B70F0100138FFFFF93D604011353070140
:109DE000B3F4E4013377E701B3089302B3059702B4
:109DF000B382E602338E580093D80501B388C801B8
:109E0000B38E660263F45800B38EFE0113D90801C5
:109E1000B3F8E80193DF0701B3F5E501B3F3E70118
:109E200093980801B388B800B3877602B38593028C
:109E3000B3849F02338EF40093D40501B384C4012C
:109E4000B386F60363F6F400B7070100B386F600A5
:109E500013DF0401B7090100330FDF009386F9FF18
:109E6000B3F4D400B3F5D5009357040193940401DF
:109E70003374D400B384B400B30687023309990065
:109E8000338EE702B30583023307F3023383C50140
:109E900093D50601B385650063F4C5013307370127
:109EA00013D30501B7090100B302E3001387F9FFDB
:109EB000B3F5E500B3F6E60033838302939505011D
:109EC000B385D5003387770233848F02338EFF0248
:109ED0003304E40093570301338487006374E40080
:109EE000330E3E01B70701009387F7FFB376F40006
:109EF0003373F30093960601B38E2E01B38666008A
:109F0000B3B49E00B386E601B3879600B38EBE005D
:109F1000B3B5BE0033835700B30FB300B3B6E60149
:109F2000B3B79700B3E7F60013540401333353007B
:109F3000B3B5BF00B3878700B365B300B387B7007D
:109F4000B387C70113D77F0193979700B3E7E70063
:109F500013979E00336717013337E00093DE7E01CD
:109F600093969F003367D7013367D70093967700A6
:109F700063DA0610935617001377170033E7E600ED
:109F80009396F7013367D70093D717009305F83FEF
:109F9000635EB00E93767700638006029376F700D7
:109FA00013054000638AA6009306470033B7E60016
:109FB000B387E700138706009396770063DA0600FD
:109FC000B70600FF9386F6FFB3F7D7009305084066
:109FD0009306E07F63CEB616935637001397D701EA
:109FE0003367D70093D73700B70610009386F6FF84
:109FF000B3F7D70093F6F57FB70510809385F5FF8B
:10A0000093964601B3F7B7008320C102032481026F
:10A010001316F601B3E7D700B3E6C7008324410265
:10A02000032901028329C101032A8101832A4101F5
:10A03000032B0101832BC100130507009385060044
:10A0400013010103678000001386090093070400D1
:10A050001387040093060B0093052000638AB60E55
:10A0600093053000638CB60C93051000E390B6F2B4
:10A0700093070000130700006F00800813060A0012
:10A080006FF09FFD130805006FF05FF013051000DF
:10A090003305B54093068003E3CCA6FC9306F0019C
:10A0A00063C4A6061308E841B3960701B355A70099
:10A0B00033170701B3E6B6003337E00033E7E600B5
:10A0C000B3D7A70093767700638006029376F700F4
:10A0D00093054000638AB6009306470033B7E60055
:10A0E000B387E700138706009396870063CA0606C6
:10A0F0009396D7011357370033E7E60093D737001D
:10A10000930500006FF05FEE930610FEB386B64035
:10A1100093080002B3D6D70093050000630615012B
:10A120001308E843B395070133E7E5003337E00050
:10A1300033E7E600930700006FF0DFF8B707080089
:10A14000130700009305F07F130600006FF0DFE9AE
:10A1500093070000130700009305F07F6FF0DFE81E
:10A160009307000013070000930510006FF0DFE76E
:10A17000370810001308F8FF130101FEB378B80088
:10A1800013D745019357D5013378D80023282101EF
:10A190001379F77F13973800B3E7E70093D8F601F8
:10A1A00013D74601131838009356D601232A91007D
:10A1B00033E30601232E1100232C810023263101D5
:10A1C0001377F77F9306F07F93D4F50113153500CD
:10A1D000131636006316D700B366C30063940600F7
:10A1E00093C818003308E9406394983A6354001FF9
:10A1F000631207143367C3006314070C9306F07FE0
:10A2000013070800631CD830B3E6A7006398063034
:10A2100093070000130500009396870063DE060095
:10A22000130717009306F07F630CD774B70680FFFF
:10A230009386F6FFB3F7D7009396D70113553500F1
:10A2400033E5A6009306F07F93D73700631ED7004F
:10A250003365F5009307000063080500B7070800A1
:10A260001305000093040000B70610009386F6FF64
:10A27000B3F7D700B70610801377F77F9386F6FF02
:10A2800013174701B3F7D700B3E7E700370700809C
:10A290001347F7FF8320C101032481019395F40143
:10A2A000B3F7E70033E7B700832441010329010135
:10A2B0008329C10093050700130101026780000094
:10A2C0009305F8FF639C05043306C5003335A600EB
:10A2D000B3876700B387A7001307100013050600B4
:10A2E0009396870063DC0622130717009306F07F1E
:10A2F000E300D7F2B70680FF9386F6FFB3F6D700E8
:10A3000093551500137515009397F60133E5A500D5
:10A3100033E5A70093D716006F0040201307F07FA6
:10A320006314E80233E7A700630007621307F07FB6
:10A330006F00C01E1307F07FE306E9FE37078000B9
:10A340003363E3009305080013078003634EB706E9
:10A350001307F0016342B704130700023307B74045
:10A36000B356B6003318E3003316E6003368D8005E
:10A370003336C0003368C800B355B3003308A800B3
:10A38000B385F500B337A800B387F50013050800BF
:10A39000130709006FF0DFF4130700023358B3000E
:10A3A000930600006388E50093060004B385B64079
:10A3B000B316B30033E6C6003336C0003368C800B6
:10A3C000930500006FF09FFB3368C3003338000132
:10A3D0006FF01FFF630A080E631E0908B3E6A700AB
:10A3E000639206029307F07F6318F7003365C3009A
:10A3F00093070000E30205E293070300130506003C
:10A400006F00C0119306F0FF631CD8003305C50030
:10A41000B38767003336C500B387C7006FF05FECC2
:10A420009306F07F1348F8FFE302D7FC93068003FE
:10A4300063C606099306F00163CA06059305000288
:10A44000B3850541B3580501B396B7003315B50080
:10A45000B3E616013335A00033E5A60033D8070173
:10A460003305C50033086800B337C500B307F800EB
:10A470006FF01FE79306F07FE30AD7F6B706800078
:10A4800033080041B3E7D7006FF05FFA930800028A
:10A49000B3D6070193050000630818019305000473
:10A4A00033880541B395070133E5A5003335A00096
:10A4B00033E5A600130800006FF09FFA33E5A7000C
:10A4C0003335A0006FF01FFF130719009375F77F56
:10A4D0009306100063C8B60833E7A70063140906A3
:10A4E00063080744B366C3001307000063880602CD
:10A4F0003306C5003335A600B3876700B387A700CE
:10A50000939687001305060063DA0600370780FF7D
:10A510001307F7FFB3F7E7001307100093767500F2
:10A52000E38C06CE9376F50013064000E386C6CE94
:10A530009306450033B5A600B387A7001385060030
:10A540006FF09FCD630C073E3368C300E30008DE65
:10A55000B7074000130500001307F07F93040000C5
:10A560006FF09FCB9306F07FE304D7CA3306C50094
:10A5700033886700B337A6003308F8001315F801D5
:10A58000135616003365C500935718006FF01FF976
:10A59000635E000F6312070A3367C300E30007C658
:10A5A0009306F8FF639E06023306C5403335C500A7
:10A5B000B3876740B387A740130710001305060051
:10A5C00093968700E3DC06F4370480001304F4FF5D
:10A5D00033F4870093090500130907006F00002773
:10A5E0001307F07FE300E8D413078003634AD7081A
:10A5F0001307F001634ED704130700023307D74057
:10A60000B355D6003318E3003316E6003368B800BC
:10A610003336C0003368C800B356D3003308054151
:10A62000B386D740B3370501B387F640130508005A
:10A63000130709006FF0DFF81307F07FE304E9CE9A
:10A64000370780003363E300930608006FF0DFF9FB
:10A65000130700023358D300130400006388E60098
:10A6600013040004B306D4403314D3003366C4008B
:10A670003336C0003368C800930600006FF01FFA3D
:10A680003368C300333800016FF01FFF630A080E00
:10A69000631E0908B3E6A700639006029307F07FE4
:10A6A0006316F7003365C3006308052A93070300A8
:10A6B000130506006F00C00F9306F0FF631ED8005D
:10A6C0003305A640B307F3403336A600B387C7402F
:10A6D000938408006FF0DFEE9306F07F1348F8FFD5
:10A6E000E302D7FC9306800363C606099306F001D4
:10A6F00063CA060593050002B3850541335E050173
:10A70000B396B7003315B500B3E6C6013335A000E4
:10A7100033E5A60033D807013305A64033080341CB
:10A72000B337A600B307F8406FF09FFA9306F07FA7
:10A73000E30AD7F6B706800033080041B3E7D70035
:10A740006FF05FFA130E0002B3D607019305000005
:10A750006308C8019305000433880541B3950701D8
:10A7600033E5A5003335A00033E5A600130800004B
:10A770006FF09FFA33E5A7003335A0006FF01FFF9D
:10A78000130719001377F77F9306100063CAE608D2
:10A79000B3E6A7003367C30063140906639E06008F
:10A7A0006302071C9307030013050600130700004C
:10A7B000938408006FF09FD663000704B306C5407A
:10A7C000B335D500338767403307B740931587000B
:10A7D00063DC05003305A640B307F3403336A6001B
:10A7E000B387C7406FF09FFC33E5E600630A050CB2
:10A7F0009307070013850600130700006FF01FD2B0
:10A80000639C060063080716930703001305060000
:10A81000938408006FF09FB1E30A07B06FF05FD335
:10A82000B309C540338467403338350133040441EC
:10A830001317840063520708B309A6403304F3409A
:10A84000B33736013304F44093840800630E0406E2
:10A8500013050400EF008013130785FF9307F00131
:10A8600063CCE70693070002B387E7403314E400A4
:10A87000B3D7F90033E487003395E9006340270B31
:10A8800033072741930717009306F00163CEF604C0
:10A89000130700023307F7403356F500B316E40000
:10A8A0003315E500B3E6C6003335A00033E5A60056
:10A8B000B357F4006FF05FF433E58900E31805F84F
:10A8C000930700006F00800A13850900EF00000C59
:10A8D000130505026FF05FF8130485FD33948900BA
:10A8E000130500006FF09FF9130717FE130600020F
:10A8F0003357E400930600006388C7009306000402
:10A90000B386F640B316D4003365D5003335A000C6
:10A910003365A700930700006FF01FEEB70780FFB5
:10A920009387F7FF3307E940B377F4006FF01FBF59
:10A9300093070300130506006FF01FEC9307030055
:10A94000130506006FF09F9E93070000130500009B
:10A950001307F07F6FF05F8C93070000938408006B
:10A960006FF09F8B93070000130500001307000092
:10A970006FF0DFBE13050000B70740006FF0DFBDCA
:10A9800093070000130500006FF01F8BB70701004D
:10A99000637AF5029307F00FB3B7A70093973700D8
:10A9A000130700023307F740B357F500176501009E
:10A9B0001305C597B307F50003C507003305A74086
:10A9C000678000003707000193070001E36AE5FC98
:10A9D000930780016FF0DFFC130101FE232C81003F
:10A9E000232A9100130405009384050023282101E4
:10A9F000232631012324410123225101232E11005A
:10AA0000EF804F9F8327040003290401B709000149
:10AA1000B3E59700930AC4002320B4009304000018
:10AA20009389F9FF370A00020327040063822A058D
:10AA30000326090013050900B3654701B376360103
:10AA40009317560033F7E6000329490063C6070051
:10AA5000631607006FF05FFDE398E6FC931776003E
:10AA600063D40700B3E4D400EF90CFDE6FF0DFFBD8
:10AA700093C4F4FFB3F4E40023209400EF800FCBE1
:10AA8000032504008320C1010324810183244101A3
:10AA9000032901018329C100032A8100832A41007F
:10AAA0001301010267800000130101FF130500007C
:10AAB0002326110023248100EFD00F9D17C7FFFF2D
:10AAC0001307075093060000130610009305200398
:10AAD000176501001305059AEFA01F8E630205029A
:10AAE00013040500EF808F92130605001307000082
:10AAF000930600009305100013050400EFA0DF9DEE
:10AB0000EF70DFDB8320C100032481001305000008
:08AB1000130101016780000040
:02000004800278
:10000000D463FEFF4465FEFFE063FEFF4465FEFF30
:100010004465FEFF4465FEFF4465FEFF0864FEFF85
:100020004465FEFF4465FEFF3064FEFF4064FEFF52
:100030004465FEFF5864FEFF6864FEFF6864FEFFCF
:100040006864FEFF6864FEFF6864FEFF6864FEFF8C
:100050006864FEFF6864FEFF6864FEFF4465FEFF9F
:100060004465FEFF4465FEFF4465FEFF4465FEFFF8
:100070004465FEFF4465FEFF4465FEFF4465FEFFE8
:100080004465FEFF4465FEFF4465FEFF4465FEFFD8
:100090004465FEFF4465FEFF4465FEFF4465FEFFC8
:1000A0004465FEFF4465FEFF4465FEFF4465FEFFB8
:1000B0004465FEFF4465FEFF4465FEFF4465FEFFA8
:1000C0004465FEFF4465FEFF4465FEFF4465FEFF98
:1000D0004465FEFF4465FEFF4465FEFF4465FEFF88
:1000E0004465FEFF4465FEFF4465FEFF4465FEFF78
:1000F0004465FEFF4465FEFF4465FEFF4465FEFF68
:10010000AC64FEFFD464FEFF4465FEFF4465FEFF61
:100110004465FEFF4465FEFF4465FEFF4465FEFF47
:100120004465FEFF3465FEFF4465FEFF4465FEFF47
:10013000E461FEFFEC62FEFF4465FEFF4465FEFFE6
:100140003C63FEFF4465FEFFB463FEFF4465FEFFB3
:100150004465FEFFFC63FEFFA069FEFF0C6AFEFF24
:10016000AC69FEFF0C6AFEFF0C6AFEFF0C6AFEFF24
:100170000C6AFEFF4468FEFF0C6AFEFF0C6AFEFF7D
:100180006C68FEFF7C68FEFF0C6AFEFF9468FEFF51
:10019000A468FEFFA468FEFFA468FEFFA468FEFF3B
:1001A000A468FEFFA468FEFFA468FEFFA468FEFF2B
:1001B000A468FEFF0C6AFEFF0C6AFEFF0C6AFEFFDD
:1001C0000C6AFEFF0C6AFEFF0C6AFEFF0C6AFEFF63
:1001D0000C6AFEFF0C6AFEFF0C6AFEFF0C6AFEFF53
:1001E0000C6AFEFF0C6AFEFF0C6AFEFF0C6AFEFF43
:1001F0000C6AFEFF0C6AFEFF0C6AFEFF0C6AFEFF33
:100200000C6AFEFF0C6AFEFF0C6AFEFF0C6AFEFF22
:100210000C6AFEFF0C6AFEFF0C6AFEFF0C6AFEFF12
:100220000C6AFEFF0C6AFEFF0C6AFEFF0C6AFEFF02
:100230000C6AFEFF0C6AFEFF0C6AFEFF0C6AFEFFF2
:100240000C6AFEFF0C6AFEFF0C6AFEFF0C6AFEFFE2
:100250000C6AFEFF0C6AFEFFE868FEFF2469FEFFE1
:100260000C6AFEFF0C6AFEFF0C6AFEFF0C6AFEFFC2
:100270000C6AFEFF0C6AFEFF0C6AFEFF9069FEFF2F
:100280000C6AFEFF0C6AFEFF1866FEFF6C67FEFF3D
:100290000C6AFEFF0C6AFEFFFC67FEFF0C6AFEFFA5
:1002A0002868FEFF0C6AFEFF0C6AFEFF006AFEFF74
:1002B000CC96FEFFE095FEFFEC95FEFFE095FEFF7D
:1002C000B896FEFFE095FEFFEC95FEFFCC96FEFF94
:1002D000CC96FEFFB896FEFFEC95FEFFB895FEFFAC
:1002E000B895FEFFB895FEFFF495FEFF6C9DFEFFEE
:1002F0006C9DFEFF909DFEFF609DFEFF609DFEFFDA
:10030000509EFEFF909DFEFF609DFEFF509EFEFFF3
:10031000609DFEFF909DFEFF5C9DFEFF5C9DFEFFCD
:100320005C9DFEFF509EFEFF0001020203030303DB
:100330000404040404040404050505050505050575
:100340000505050505050505060606060606060655
:10035000060606060606060606060606060606063D
:100360000606060606060606070707070707070725
:10037000070707070707070707070707070707070D
:1003800007070707070707070707070707070707FD
:1003900007070707070707070707070707070707ED
:1003A00007070707070707070808080808080808D5
:1003B00008080808080808080808080808080808BD
:1003C00008080808080808080808080808080808AD
:1003D000080808080808080808080808080808089D
:1003E000080808080808080808080808080808088D
:1003F000080808080808080808080808080808087D
:10040000080808080808080808080808080808086C
:10041000080808080808080808080808080808085C
:100420000808080808080808546D72510000000008
:10043000546D722053766300286E756C6C29000031
:100440004572726F7220696E20666C6F70732074D3
:1004500061736B73200D0A006D69616F750A00008E
:100460006D69616F75320A0068756E6772790A008E
:10047000436865636B54696D657200004D61746813
:10048000310000004D617468320000004D617468F5
:0C049000330000004D617468340000006F
:10049C001000000000000000017A5200017C0101F4
:1004AC001B0D020010000000180000006079FEFF18
:1004BC005804000000000000100000002C00000098
:1004CC00A47DFEFF340400000000000010000000BA
:1004DC0040000000C481FEFF10040000000000007A
:100560006AE67F50274C41C15305A3923ADD5E40B5
:1005700082E2C7985B53A240B29DEFA7C6B18CC080
:10058000FCA9F1D24D62503FAE47E17A145678C0D3
:10059000CDCCCCCC8CBCDF4039D6C56D340000C08E
:1005A000E5D022DBF93E2840E5D022DBF93E384099
:1005B000AC1C5A643B2F4240E5D022DBF93E484058
:1005C0001E85EB51B84E4E40AC1C5A643B2F524036
:1005D000C876BE9F1A375540E5D022DBF93E584019
:1005E000022B8716D9465B40FCA9F1D24D6250BF61
:1005F00000000000000016400000000000001A404B
:100600000000000000001E4000000000000021402B
:100610000000000000002340000000000000254012
:1006200000000000000027400000000000002940FA
:100630000000000000002B400000000000002D40E2
:08064000FC8F01000400000022
:040000058000004037
:00000001FF
