:0200000480007A
:10000000B72F0000938F0F8073900F3015A8130047
:100010000000130000001300000013000000130094
:100020000000130000001300000013000000130084
:100030000000130000001300000013000000010086
:10004000970200009382020C73905230814001416C
:100050008141014281420143814301448144014580
:100060008145014681460147814701488148014950
:100070008149014A814A014B814B014C814C014D20
:10008000814D014E814E014F814F971102009381A6
:10009000A1C5170502001305E54697950300938552
:1000A000256E01461122170502001305E53B970551
:1000B0000200938525430146C52817A503001305B3
:1000C000656C97B503009385A56B37B6ABAB13068C
:1000D000B6BAD92817B103001301C16AEF50505ABC
:1000E000860293D21200F512638802008242110147
:1000F0006F00001073002030824211017300203025
:10010000711116C0F3222034E3CC02FC82421101AB
:10011000130141F806C20AC40EC612C816CA1ACC88
:100120001ECE22D026D22AD42ED632D836DA3ADCC7
:100130003EDEC2C0C6C2CAC4CEC6D2C8D6CADACC97
:10014000DECEE2D0E6D2EAD4EED6F2D8F6DAFADCA7
:10015000FEDE73252034F32510340A8601A07310C7
:10016000153492402241B2414242D2426243F243AC
:10017000025492542255B2554256D2566257F25703
:10018000064896482649B649464AD64A664BF64B33
:10019000065C965C265DB65D465ED65E665FF65F83
:1001A0001301C1077300203010C16374B50011053D
:1001B000E5BF828000000000000000000000000099
:1001C000000000000000000000000000000000002F
:1001D000000000000000000000000000000000001F
:1001E000000000000000000000000000000000000F
:1001F000197106C00AC20EC412C616C81ACA1ECC8D
:1002000022CE26D02AD22ED432D636D83ADA3EDCC6
:1002100042DEC6C0CAC2CEC4D2C6D6C8DACADECC96
:10022000E2CEE6D0EAD2EED4F2D6F6D8FADAFEDCA6
:100230009702020083A2822623A02200F322103418
:1002400096DEEF00002B1701020003212125024159
:10025000F65273901234B72200009382028873A082
:10026000023082403242C2425243E24372448254DC
:100270001255A2553256C2565257E2577258864806
:100280001649A649364AC64A564BE64B764C865C1A
:10029000165DA65D365EC65E565FE65F0961730059
:1002A0002030970202009382E22523A0120023A2AD
:1002B000220023A4320023A6420023A8520023AA2E
:1002C000620023AC720023AE820023A0920223A21C
:1002D000A20223A4B20223A6C20223A8D20223AA06
:1002E000E20223ACF20223AE020323A0120523A2F2
:1002F000220523A4320523A6420523A8520523AADA
:10030000620523AC720523AE820523A0920723A2C7
:10031000A20723A4B20723A6C20723A8D20723AAB1
:10032000E20723ACF207EF4050501701020003210F
:10033000E1160241F65273901234B7220000938204
:10034000028873A0023082403242C2425243E243EA
:10035000724482541255A2553256C2565257E25731
:10036000725886481649A649364AC64A564BE64B45
:10037000764C865C165DA65D365EC65E565FE65FB1
:10038000096173002030970202009382A21783A0B4
:10039000020003A1420083A1820003A2C20083A243
:1003A000020103A3420183A3820103A4C20183A427
:1003B000020203A5420283A5820203A6C20283A60B
:1003C000020303A7420383A7820303A8C20383A8EF
:1003D000020403A9420483A9820403AAC20483AAD3
:1003E000020503AB420583AB820503ACC20583ACB7
:1003F000020603AD420683AD820603AEC20683AE9B
:10040000020703AFC20983AF820782807370043092
:10041000197106C00AC20EC412C616C81ACA1ECC6A
:1004200022CE26D02AD22ED432D636D83ADA3EDCA4
:1004300042DEC6C0CAC2CEC4D2C6D6C8DACADECC74
:10044000E2CEE6D0EAD2EED4F2D6F6D8FADAFEDC84
:100450009702020083A2820423A0220086DEEF20FE
:10046000E05717010200032161030241F652739025
:100470001234B72200009382028873A002308240B7
:100480003242C2425243E243724482541255A25550
:100490003256C2565257E257725886481649A649F4
:1004A000364AC64A564BE64B764C865C165DA65DD0
:1004B000365EC65E565FE65F09617300203073707A
:1004C000043001A07310453082807325403073F0F2
:1004D00043308280970700009387A7FE232EB5FE46
:1004E0002322C5FA232635F82320F5F8130505F84D
:1004F0008280411106C6EF407030EF10103401E5E4
:10050000B24041018280B24041016F20204D9307EB
:1005100085007D575CC118C55CC51CC9232005003A
:1005200082802328050082805C41DCC1984798C501
:1005300098474CC38CC788C91C4185071CC1828061
:100540009041FD57130785006314F60039A83E87D4
:100550005C439443E37DD6FEDCC18CC798C54CC395
:1005600088C91C4185071CC1828018495C43EDB7CE
:10057000584114451C4914C71845544154C3D84325
:100580006314A7001845D8C32328050088437D15A8
:1005900088C38280411122C406C626C23C412A84F7
:1005A00081EF1C41A5CF01451C5C85071CDCB240D6
:1005B0002244924441018280B2841DE608453E8671
:1005C000EF3070481C4434405840B6971CC4E3ECEC
:1005D000E7FC1C4001451CC41C5C85071CDCB240C8
:1005E000224492444101828048453E86EF30B04526
:1005F00038405C4414403307E040BA975CC463F56C
:10060000D7005C403E9758C48947E39EF4F81C5CD1
:10061000D9DB1C5C0145FD171CDC79B74841EF2094
:10062000702C2322040049B7011106CE22CC26CA21
:1006300060492AC615C0185C5C5C6365F70073707E
:10064000043001A0185C8144636BF700F2406244FF
:100650002685D244056182807370043001A02E8605
:1006600022856C00053F3844FD57AA846306F700D5
:100670003C4485073CC4D9BF5C50E9DB1305440208
:10068000EF20607761D58544D1B73041AE8701CE88
:100690004C455841B2954CC563E4E5000C414CC54E
:1006A0003E856F30503A8280797122D406D62A84F2
:1006B00026D24AD04ECE52CC56CAEF20502B3C44C4
:1006C000635CF002130A4402FD590549644889C875
:1006D000985CDC5C22C66367F7067370043001A087
:1006E0005C5099CB5285EF2000712DED3C44FD17F5
:1006F0003CC43C44E34CF0FCFD573CC4EF20702963
:10070000EF20F0267C406352F0021C4899CF9304FE
:1007100004012685EF20206E29E97C40FD177CC06E
:100720007C406354F0001C48EDF7FD577CC0EF207F
:100730005026B250225492540259F249624AD24A87
:1007400045618280985CE373F7FA01466C00268568
:100750009135BC44AA8A638D3701BC448507BCC46B
:10076000E3962AF9EF20700951B7EF20100975B709
:10077000DC50FDD713854402EF20E06775D1DDB76B
:1007800029C5411122C426C22A8406C6AE84EF20A0
:10079000101E34405C5C1840232C0402B387F60220
:1007A0007D5670C018C430C4B386D740BA97369708
:1007B0005CC058C491EC1C489DE3EF20901DB240F2
:1007C000224492440545410182807370043001A0A7
:1007D000130504012D3B13054402153BF9BF130516
:1007E0000401EF2040618547E319F5FC0531F1B7BD
:1007F00001E57370043001A0011126CA4AC84EC633
:1008000006CE22CCB2892E89AA84B5C53305B5029D
:1008100013059505EF30F00A2A8425C59307850551
:100820001CC144DC23202405EF20701434405C5CA0
:1008300018407D56B387F602232C040270C018C4FA
:1008400030C413050401B386D740BA9736975CC00D
:1008500058C47539130544025D39EF2090132308FD
:100860003405232A04042285F2406244D2444249DA
:10087000B2490561828013058005EF3090042A8417
:1008800001E57370043001A000C061BF797126D208
:10089000AA841305800522D406D64AD04ECE52CC67
:1008A000EF3030022A8421C9232C0502FD577CC178
:1008B0000547130A05013CC4528558DC2322040075
:1008C00023200400232404002326040023200404FE
:1008D00023089404232A04041D39130944024A8579
:1008E0003D313C4002C28DC37370043001A02285AB
:1008F000653BEF1050102285B25022549254025999
:10090000F249624A45618280EF20A07101E5924779
:10091000639C070AEF20B005185C5C5C8144FD59BC
:100920006362F7069247C1C381E42800EF20C05FED
:10093000EF203006EF102067EF2070037C406394B7
:100940003701232204043C44639437012324040424
:10095000EF2030044C002800EF20205F49F9EF2001
:100960001001185C5C5C6303F704EF2090022285A1
:10097000253BEF1050088544EF20607F185C5C5CDD
:10098000E372F7FA304021E61C40ADC701451C5C1C
:10099000784885071CDC39CB814522857131854734
:1009A0006313F500A534EF20C07EB1B7EF20607E61
:1009B00092455285EF20E0252285FD31EF10B003EE
:1009C0005DF9A93485444DBF7370043001A008441B
:1009D0008145EF3050071C4434405840B6971CC442
:1009E000E3E6E7FA1C4001451CC455B75C5089EBAF
:1009F0005DD94DBF4840EF20E06E2322040041BF87
:100A00004A85EF20403F8547E31FF5F861BF01E5C8
:100A10007370043001A06375B5007370043001A0D9
:100A2000411122C409462E84814506C6D13311C521
:100A300000DDB2402244410182807370043001A085
:100A4000397106DE22DC26DA4AD84ED652D456D286
:100A50005AD032C6630005106388050E8947639932
:100A6000F600585D85476305F7007370043001A0F8
:100A7000B6842E892A84EF20C05A11E5B24781C777
:100A80007370043001A0EF20806E185C5C5C8149BB
:100A9000094B7D5A930A04016367F706638F640B61
:100AA000B24763890712639509002808EF20C04701
:100AB000EF20206EEF10204FEF20606B7C4063949E
:100AC0004701232204043C44639447012324040483
:100AD000EF20206C6C002808EF2020476316050EDD
:100AE000EF20E068185C5C5C6302F704EF20606A4A
:100AF00022855D3EEF1020708549EF204067185C2D
:100B00005C5CE37DF7F8304039CA6399040C084413
:100B1000CA85EF3040731C4434405840B6971CC41B
:100B200063E1E7041C4001451CC42DA8EF2060666A
:100B3000B2455685EF20E00D2285BD36EF10A06B43
:100B400045FDE930854955BF3C41E38907F07370A5
:100B5000043001A07370043001A0304005EE1C4049
:100B6000D5C301451C5C784885071CDC51C7A685A8
:100B700022855D3C85476304F508EF2080610545CB
:100B8000F2506254D2544259B259225A925A025BDC
:100B9000216182804844CA85EF30E06A3C40584475
:100BA0001440B307F0403E9758C46378D7005840CC
:100BB000BA975CC48947E396F4FA1C5CDDD31C5CED
:100BC0000145FD171CDC79BF2285F93CEF10A062BE
:100BD00001457DB7EF20E05B01455DB74844CA851C
:100BE000EF3060663C4058441440B307F0403E97F5
:100BF00058C4E371D7FC65BF5C5099EB3DDDEFF065
:100C0000FF80A5BF4840EF20E04D2322040099BF9C
:100C100013054402EF20201E8547E310F5F6C5B703
:100C20000DC5411122C426C206C64AC0032945008B
:100C30002A84EF20403E8144630CA900B240224444
:100C4000268502499244410182807370043001A0DC
:100C50005C448544FD175CC4F5F38146014681453B
:100C60002285F93BE1BF31CDA1C9011122CC26CAB1
:100C70004AC852C406CE4EC68947B68432892E8AE7
:100C80002A846399F600585D8547630FF7047370F3
:100C9000043001A01D38185C5C5CAA896366F70209
:100CA00081444E850530F240624426854249D24453
:100CB000B249224A056182803C41C5DB7370043031
:100CC00001A07370043001A0304049E21C40DDCB2C
:100CD0001C5C7D5785071CDC3C446388E7083C446A
:100CE000854485073CC475BFEFF02FFE185C5C5C43
:100CF000AA89636DF702304071DA4844D285EF303B
:100D000080543C4058441440B307F0403E9758C4C8
:100D10006375D7005840BA975CC48947E39AF4FAE0
:100D20001C5CDDD71C5CFD171CDC5DB7304059DE58
:100D30004844D285EF3020513C4058441440B3071A
:100D4000F0403E9758C4E367D7FCD9BFDDF40844B0
:100D5000D285EF30404F1C4434405840B6971CC4F5
:100D6000E3E8E7F61C401CC4A5B77C4895C3A685FC
:100D700022855D388544E31695F2E30409F22320C9
:100D8000990005B74840EF20E0352322040089B7D9
:100D90005C508544E38707F013054402EF20A0056B
:100DA00069FD01B731CD3C4181C77370043001A0AA
:100DB0001C41B1CB011122CC26CA2A844AC84EC696
:100DC00006CE2E89EFF06FF0185C5C5CAA89814436
:100DD000637DF7001C5C7D5785071CDC3C44638900
:100DE000E7023C44854485073CC44E85EFF08FED17
:100DF000F240624426854249D244B249056182806C
:100E00007370043001A05C41D5D77370043001A029
:100E10007C4889CB8145228501388547630BF500E5
:100E20008544E1B75C50EDDF13054402EF10B07C60
:100E300065D9E30709FE85472320F900D5B7397145
:100E400006DE22DC26DA4AD84ED652D432C66309F0
:100E5000050E6381050EB6892E892A84EF20601C59
:100E600011E5B24781C77370043001A0EF20203034
:100E70001C5CC9E7B247638D07102808EF20C00A41
:100E8000FD54130A440231A8EF20A03022852938EE
:100E9000EF106036EF20A02D1C5CADE3B2476389F4
:100EA000070EEF20002FEF100010EF20402C7C40A9
:100EB00063949700232204043C4463949700232402
:100EC0000404EF20002D6C002808EF20000855E9ED
:100ED000EF20E0291C5CCDFBEF20A02B1C40BDC700
:100EE000B2455285EF10F0522285EFF0EFFBEF1084
:100EF000803031C9EF20A0271C5CCDD3CA85228564
:100F00004444EFF08FF8639B09041C5C1840FD1704
:100F10001CDC01E7EF20602C48C01C48B9EBEF2037
:100F200040270545F2506254D2544259B259225AD0
:100F3000216182803C41E38007F27370043001A09C
:100F40007370043001A0EFF06FCC6DB7EF2020225A
:100F50004840EF20000FEF20C02359B75C5044C435
:100F6000DDDF13054402EF10106955D9EFF00FCA09
:100F70007DB713050401EF1010688547E311F5FAFA
:100F8000F5B72285EFF04FF2EF10E026014559BF8B
:100F9000EF202020014579B71DC9411122C44AC064
:100FA00006C626C244412E892A84EF20C0066383E8
:100FB000A40281464A8681452285513585476300D2
:100FC000F502B2402244924402494101828073708A
:100FD000043001A05C44054585075CC4DDB75C4472
:100FE00085075CC4F9BF15CDADC9011122CC26CA55
:100FF0004AC84EC652C42A8406CE3289AE89EFF062
:10100000CFCC1C5C2A8A814485E35285EFF08FCBDC
:10101000F240624426854249D244B249224A0561DF
:1010200082807370043001A0304001CE4C445C409B
:10103000B2954CC463E4F5000C404CC44E85EF30CF
:1010400080201C5C7D57FD171CDC7C40638CE70016
:101050007C40854485077CC04DBF3C41D9D7737027
:10106000043001A01C4899E3854445B713050401E9
:10107000EF10705875D9E30909FE85472320F90060
:10108000E5B721C93C41A1CDA1CB011122CC26CA93
:101090004AC852C42A8406CE4EC62E8AEFF0EFC24A
:1010A0001C5C2A89814491CB8329C400D285228586
:1010B000EFF0AFDD8544232634014A85EFF08FC081
:1010C000F240624426854249D244B249224A05612F
:1010D00082807370043001A07370043001A0EDDFD2
:1010E0007370043001A001E57370043001A0411158
:1010F00022C42A8406C6EF208007005CEF20600926
:10110000B240228522444101828001E5737004309F
:1011100001A0411106C622C42A84EF2040051C5CB0
:10112000405C1D8CEF20E0062285B2402244410144
:10113000828019C1085D82807370043001A01DCDCA
:101140009787030093870760D843630CE502D8476D
:10115000630CE504D84B6307E504D84F6302E5044C
:10116000D853630DE502D8576308E502D85B6303E3
:10117000E502D85F630EE5006F30C006737004307F
:1011800001A001470E07BA9723A007006F30800522
:101190001D47CDBF1947FDB71547EDB71147DDB75F
:1011A0000D47CDB70947F9BF0547E9BF68458280BC
:1011B0006CC5828003450505828009C5085D13352D
:1011C000150082807370043001A019C51C5D485D54
:1011D0001D8D1335150082807370043001A0978730
:1011E000030093872756984305C3984705C7984B34
:1011F00005C7984F05C7985305C7985705C7985B0B
:1012000015C7985F15C3828001470E07BA978CC334
:10121000C8C382800547D5BF0947C5BF0D47F5B78D
:101220001147E5B71547D5B71D47C5B71947F1BFF2
:101230009787030093870751D8436308E502D8478F
:10124000630BE502D84B630AE502D84F6309E50258
:10125000D8536308E502D8576307E502D85B6308F3
:10126000E502D85F6303A702828001470E07BA97A1
:1012700023A0070082800547D5BF0947C5BF0D479A
:10128000F5B71147E5B71547D5B71D47C5B7194796
:10129000F1BF797122D426D24AD02A8406D64ECE06
:1012A00052CC56CAAE843289EF10706C7840FD572C
:1012B0006314F700232204043844FD576314F70035
:1012C00023240404EF10F06C1C5C99E74A86A68581
:1012D00013054402EF10F026EF1070693C44635C84
:1012E000F002130A4402FD590549644889C8985C14
:1012F000DC5C22C66367F7067370043001A05C50A3
:1013000099CB5285EF10302F35ED3C44FD173CC48E
:101310003C44E34CF0FCFD573CC4EF109067EF10E9
:1013200010657C406352F0021C4899CF930404017D
:101330002685EF10502C31E97C40FD177CC07C40A5
:101340006354F0001C48EDF7FD577CC0EF1070644B
:10135000B250225492540259F249624AD24A45612B
:101360008280985CE373F7FA01466C002685EFF003
:101370006FA2BC44AA8A638D3701BC448507BCC4F4
:10138000E3952AF9EF10704749B7EF1010476DB792
:10139000DC50FDD713854402EF10F02575D1DDB781
:1013A00001E57370043001A0411126C2AA840A0528
:1013B0001305950522C406C6EF20B0502A8431CD0E
:1013C000930785051CC1914744DD3CC1EF10305A9D
:1013D00034405C5C18407D56B387F602232C04022F
:1013E00070C018C430C413050401B386D740BA973F
:1013F00036975CC058C4EFF08F9113054402EFF0AC
:101400000F91EF10105923080404232A04042285A5
:10141000B24022449244410182807370043001A0A2
:10142000411122C426C24AC02A8406C62E89EF1062
:1014300010547C48814491CBEF10B055B240224407
:10144000268502499244410182801C5C8144EDF76B
:10145000232A24058544CDB77C496385B70081479D
:101460003E858280185D814765FF411122C42A8430
:1014700006C6EF10D04F232A0404EF109051B2405B
:10148000224485473E854101828001112E86814696
:101490006C0006CE02C66532F2403245056182809C
:1014A000011106CE22CC26CA02C605C12A84EFF05D
:1014B000CF811C5CAA8489EF2685EFF0AF80F240D3
:1014C00062443245D244056182807370043001A0C9
:1014D000304001CE4C445C40B2954CC463E4F5000E
:1014E0000C404CC46800EF2010561C5C7D57FD1763
:1014F0001CDC7C406386E7007C4085077CC06DBFB8
:101500001C48DDDB13050401EF10F00E75B705C5AF
:1015100079714ECE52CC06D63E8A22D426D24AD0FB
:1015200056CA5AC85EC662C4A547BA8963F8E700BE
:101530007370043001A07370043001A0AA8AAE84D5
:101540003289B68B428B6309082213050006EF200F
:1015500050372A84630D05200A09232865034A862B
:101560009305500A5A85EF20105C03C704001C58ED
:101570007119230AE40203C704003E991379C9FFD5
:1015800079C783C71400A30AF40283C71400E1C318
:1015900083C72400230BF40283C72400CDCB83C769
:1015A0003400A30BF40283C73400D5C383C74400BF
:1015B000230CF40283C74400D9CB83C75400A30C87
:1015C000F40283C75400C1C783C76400230DF4022B
:1015D00083C76400ADCF83C77400A30DF40283C733
:1015E0007400B5C783C78400230EF40283C7840048
:1015F000B9CF83C79400A30EF40283C79400A1CB94
:1016000083C7A400230FF40283C7A400A9C383C720
:10161000B400A30FF40283C7B40095CB83C7C40002
:101620002300F40483C7C4009DC383C7D400A30070
:10163000F40483C7D40081CF83C7E4002301F404FA
:1016400083C7E40089C783C7F400A301F404130B24
:1016500044005A85A30104042326340323283405B7
:10166000232A0404EFE0FFEB13058401EFE07FEB96
:10167000A947B3873741232C040400C81CCC40D0B1
:1016800023220404232E04045E86D6854A85EFE0D7
:101690007FE408C063040A0023208A0073700430CA
:1016A00017F901001309C9DD8327090097F4010028
:1016B0009384C4DE91C798409C407C4385077CC3DB
:1016C00017F70100130787DC1C43850797F6010015
:1016D00023AEF6DA9C40D5CB8327090017FA010028
:1016E000130A0AEA89EB9C40DC5763E6F90097F796
:1016F000010023A587DA97F70100938767D79843FE
:1017000097F60100938606D85C549442050717F6B5
:101710000100232FE6D438C463F6F60017F7010062
:101720002322F7D65147B387E702DA853305FA005B
:10173000EFE09FDF8327090081C79C40FC43BDE3A6
:1017400083270900054499C79C40DC5763F437019F
:10175000EFE0DFCB2285B250225492540259F24975
:10176000624AD24A424BB24B224C456182805A8532
:10177000EF2050277D54F9BF13152600EF20701479
:101780002A8BE31405DC7D54F1B797F7010023A7FA
:1017900087D0184385476301F70217FA0100130A3F
:1017A0002ADE91BF984094407C43FD177CC3FC42E5
:1017B000C1FB7360043069B7814A17FA0100130A4C
:1017C0002ADC514CA94B33858A03850A5295EFE0F8
:1017D0001FD4E39A7AFF97FB0100938BEBE65E85BB
:1017E000EFE0FFD297FA0100938A4AE75685EFE0CF
:1017F0001FD217F501001305A5E7EFE05FD117F53C
:101800000100130525E8EFE09FD017F5010013054F
:10181000A5E8EFE0DFCF97F7010023AF77C797F791
:10182000010023A957C7C1BD411122C406C626C263
:101830004AC02A847370043097F40100938444C42E
:101840009C40F9E311E497F70100938727C5804393
:10185000130944004A85EFE0BFD11C5489C7130522
:101860008401EFE0FFD0CA8517F50100130585E17B
:10187000EFE09FCB97F70100938787C1984397F7D5
:1018800001009387E7BE9C43050797F6010023A15B
:10189000E6C09840850797F6010023ABF6BC01CB64
:1018A00097F70100938787BF9843784349EF9C409F
:1018B000B1C797F70100938767BE9843630F870806
:1018C00073700430984039EB17F701001307C7BC59
:1018D00014439442A5E27D5797F6010023A8E6B889
:1018E000984009CF9843784311CB984394437C4365
:1018F000FD177CC3FC4299E373600430B24022447C
:10190000924402494101828097F70100938707B909
:1019100098439C437C4385077CC32DB794439843ED
:10192000F8420507F8C217F701001307E7B614439A
:101930009442D5D2184358475847584397F6010068
:1019400023A6E6B271BF984394437C43FD177CC342
:10195000FC42B1FF7360043099BF97F70100938791
:10196000A7B09C4381C77370043001A02244B240E9
:101970009244024941016FE07FA941C517F7010078
:101980001307C7B114438147638BA606411106C6EE
:1019900022C426C27370043097F60100938646AEC7
:1019A0009C4291C710431C437C4285077CC29C42E9
:1019B000AA84404981C71C43FC43B9E797F701005B
:1019C000938787AD9C43638B870497F701009387C8
:1019D00067AC9C436384870497F701009387C7CB68
:1019E0006309F40297F701009387C7C96301F40202
:1019F0008547B240224492443E85410182803E8523
:101A000082807370043001A0EF40E03C45BF9147F5
:101A1000CDB79C5493B717008907E1BF8947D1BF61
:101A20007370043097F70100938787A5984309EFF7
:101A300015C59C43485581CB97F70100938707A6AE
:101A40009843784315E3828017F70100130707A531
:101A500014431843F8420507F8C261FD17F7010067
:101A60001307C7A30843F1B7984394437C43FD177A
:101A70007CC3FC42E9FB736004308280411122C4C4
:101A80002A8406C6EFE07FA411E497F7010093874C
:101A9000E7A080434054EFE0FFA2B24022852244F9
:101AA00041018280A54763F5B7007370043001A03F
:101AB000011122CC06CE26CA4AC84EC652C42A8478
:101AC0007370043017F901001309899B83270900FB
:101AD000D5EF79C43C486389F50817F7010013076F
:101AE000E79B63FCB7001443638D860C184344578F
:101AF000B3B4950093C4140029A00443818C93B41B
:101B0000140058546384E70A1C4C2CC863C60700B1
:101B1000A947B385B7400CCC93172700BA9758480C
:101B200097F901009389C9A58A07CE97631BF7022D
:101B3000130A44005285EFE0BFA317F70100130713
:101B400067945C5418436376F70017F70100232B62
:101B5000F7925147B387E702D2853385F900EFE06A
:101B6000BF9C99C0EFE09F8A8327090081CB97F73C
:101B700001009387A7929C43FC439DEBF240624493
:101B8000D2444249B249224A0561828097F7010056
:101B90009387C79098439C437C4385077CC31DF87B
:101BA00097F701009387878F80432DB74CD4A9BF47
:101BB0006244F240D2444249B249224A05616F4030
:101BC000802181443DBF25C1011126CA97F401003F
:101BD0009384C48C9C4006CE22CC4AC84EC6638DEA
:101BE000A7027370043017F901001309698983276C
:101BF000090091C798409C407C4385077CC35849A5
:101C000097F70100938747A96302F702832709002A
:101C100081C79C40FC43A5EBF2406244D244424958
:101C2000B249056182807370043001A01C5517F71A
:101C300001001307E7A3E38BE7FCE9FB93094500E9
:101C40002A844E85EFE0DF9217F7010013078783A0
:101C50005C5418436376F70017F701002324F782DA
:101C60005147B387E70217F5010013056591CE854B
:101C70003E95EFE07F8B9C405854DC57E368F7F8C3
:101C8000EFE0CFF861B76244F240D2444249B24932
:101C900005616F40401415CD011122CC26CA4AC8F7
:101CA0002A8406CE4EC6EFE05F82584897F70100BF
:101CB0009387879E2A8981446300F7024A85EFE073
:101CC0007F80F240624426854249D244B249056190
:101CD00082807370043001A01C5417F501001305B5
:101CE0002599E38DA7FCF9FB97E701009387C77758
:101CF0009C43A9EB97E701009387477A9C434454A0
:101D000093094400DC574E85B3B4F400EFE05F86DE
:101D100017E70100130707775C54184393C41400B6
:101D20006376F70017E70100232EF7745147B38756
:101D3000E70217F501001305A584CE853E95EFE077
:101D4000AFFEADBF93058401EFE00FFE85BF01112B
:101D5000056506CE22CC26CA4AC84EC652C456C213
:101D60005AC0EF200036630E051AAA841305000638
:101D7000EF2020352A84630A051C05669305500A66
:101D800004D92685EF20205A04588567F117BE94A0
:101D9000B7474C4593879744130A44005CD8528553
:101DA000230C0402A30104042326040223280404B0
:101DB000232A0404EFE0EFF613058401EFE06FF649
:101DC000A947232C0404F19800C81CCC40D023223E
:101DD0000404232E04040146971500009385E5B101
:101DE0002685EFE02FEF08C07370043017E901007B
:101DF000130909698327090097E401009384046AA1
:101E000091C798409C407C4385077CC317E701003D
:101E10001307C7671C43850797E6010023A8F666EA
:101E20009C40C9C38327090097E90100938949753C
:101E300081EB9C40DC5789E797E7010023A0876688
:101E400097E701009387C762984397E6010093865E
:101E500066635C549442050717E60100232AE66096
:101E600038C463F6F60017E70100232DF7601395D9
:101E700027003E950A05D2854E95EFE0EFEA8327CD
:101E8000090081C79C40FC43DDE78327090091C31B
:101E90009C40EF10704985476305F50C59E173705C
:101EA000043001A097E7010023AA875E1843854705
:101EB00097E901009389C96CE314F7F8CE8A17EB10
:101EC0000100130B6B785685D10AEFE04FE4E31C59
:101ED0005BFF17E5010013052577EFE04FE397EA75
:101EE0000100938AAA775685EFE06FE217E50100BB
:101EF00013050578EFE0AFE117E5010013058578DC
:101F0000EFE0EFE017E5010013050579EFE02FE0C2
:101F100097E7010023A2675997E7010023AC5757C1
:101F200005B7F2406244D2444249B249224A924A39
:101F3000024B05618280984094407C43FD177CC32E
:101F4000FC42A1F77360043089B76244F240424911
:101F5000B249224A924A024B2685D24405616F203B
:101F6000602873700430FD5717E701002320F750F5
:101F7000624497E7010023A5A750F240D2444249AA
:101F8000B249224A924A024B97E7010023AE074E1C
:101F900005616FE00FB17370043097E7010023A172
:101FA000074E6FE04FBE17E701001307E74B1C43D6
:101FB00085071CC382807370043097E70100938704
:101FC000274C984305E317E701001307E74B084345
:101FD0009C4381CB97E701009387474C9843784314
:101FE00001EF828017E701001307474B14431843A2
:101FF000F8420507F8C2C1BF984394437C43FD17DC
:102000007CC3FC42F9FF736004308280411106C634
:1020100022C4EFE08FCB97E701009387E746804328
:10202000EFE04FCAB240228522444101828097E707
:1020300001009387A74588438280797106D622D410
:1020400026D24AD04ECE52CC56CA5AC85EC697E760
:102050000100938767419C43B1EF17E70100130725
:10206000A7421C43850797E6010023AFF640832A69
:102070000700638F0A0697E701009387273F9C4379
:10208000814463F1FA0897E901009389694F17EADF
:102090000100130AAA4083270A008546D8579317E0
:1020A0002700BA978A07BE9983A7090063FFF60045
:1020B000854421A897E701009387473C9C438144CE
:1020C000850717E70100232BF73A97E7010093876D
:1020D000A73A9C4391C38544B250225426850259A5
:1020E0009254F249624AD24A424BB24B45618280D5
:1020F00017E401001304443A1C409C43DDC3737091
:10210000043001A017E401001304043997E9010029
:102110009389094717EA0100130A4A3817EB0100AF
:10212000130B4B361C409C43B5C31C40DC4703A932
:10213000C70083274900930B49005E8563EEFA04CC
:10214000EFE00FC3832789021305890199C3EFE0EC
:102150002FC28327C90203270B00DE8513952700B2
:102160003E950A054E956376F70017E70100232B8D
:10217000F730EFE06FBB83270A000327C902DC5763
:10218000E362F7FA1C4085449C43C5F3FD5717E70B
:102190000100232DF72C01B717E701002328F72CA6
:1021A000DDBD17E701001307E72E1C40184397E633
:1021B000010023A3E62E17E70100232DF72C97E754
:1021C00001009387272B9C43850717E701002323F2
:1021D000F72A1C409C4399E7FD5717E70100232786
:1021E000F72851BD1C40DC47DC47DC4317E7010002
:1021F000232EF72649B597E701009387E7269843F2
:1022000001E77370043001A0011106CE22CC26CA6A
:102210004AC84EC652C456C25AC07370043097E4BE
:1022200001009384E425984061EB98437D1797E67D
:10223000010023ABE6229C43D9EB97E7010093878B
:10224000E7249C43C9C797EA0100938A6A3317EAD7
:102250000100130A2A2317E90100130929248549DB
:1022600019A83385EA00EFE02FAC83270900585402
:10227000DC576379F70483A70A0FC1CF83A7CA0F7E
:10228000C04713058401EFE0AFAE130B44005A853D
:10229000EFE00FAE5C5483260A00DA851395270021
:1022A0003E950A052A875695E3FDF6FA17E70100E1
:1022B000232AF71CEFE04FA7832709005854DC5767
:1022C000E36BF7FA97E7010023A8371B6DB70144CA
:1022D0009C4081CB97E701009387471C9C43FC43BC
:1022E00095E72285F2406244D2444249B249224AEB
:1022F000924A024B0561828017E701001307071A13
:1023000014431843F8420507F8C205B7EF30B02C64
:10231000C9BF17E40100130464161C4095C31C4098
:10232000054999CF193B09C597E7010023A6271551
:102330001C40FD1717E701002322F7141C40FDF392
:1023400097E701009387471398438547E311F7F810
:10235000EFE0CF8B0544ADBF11CD81E57370043044
:1023600001A017E70100130727101C4399C77370DA
:10237000043001A07370043001A0411122C406C6CC
:1023800014431841850617E60100232FD60C97E663
:1023900001009386660F94423304B70000C163F7CF
:1023A000E602637FE40063FD860097E70100938700
:1023B000E70E88431105EFE0AF9B2285EF30701BDD
:1023C0001D3D01C9B240224441018280E36FE4FC1B
:1023D000D9BF2244B24041016FE04F8311C917E7D2
:1023E0000100130767081C4391C77370043001A0F4
:1023F0006FE0CF81411106C622C41843AA870507A2
:1024000097E6010023A2E60697E6010093860609F7
:1024100017E7010013074707184388423304F70002
:102420001105EFE0EF942285EF30B014E93311E5A8
:102430002244B24041016FD07FFDB24022444101AD
:102440008280411122C406C697E701009387C70125
:102450009C430144850717E701002327F70097E70E
:1024600001009387A7029C4363E0F51217EE010079
:10247000130ECE1C97E201009382C20F0144014764
:10248000854F1303500A21A0311E638DC20B832791
:102490008EFFBA86F5DB8327CEFFDC43232EFEFEBC
:1024A000638AC70F03AFC700DC432A97814E232EF0
:1024B000FEFE6385C70783A8C700938748032320D0
:1024C00017015CC383A788042326F7011CC783A7D1
:1024D000C8021CCB83A70805232C07005CCB03A8EC
:1024E00008038347080063906704C287850783C693
:1024F0000700B3850741E38B66FE8981C205C18170
:10250000231EB700850E1307070263061F038327E8
:10251000CEFFDC43232EFEFEE39FC7F983274E0048
:10252000232EFEFE49BF8145231EB700850E1307EB
:102530000702E31E1FFD769413175400311EBA865E
:10254000E397C2F597E70100938707F503AE07000D
:1025500083270E00639D070E97E70100938787F39B
:1025600003AE070083270E006392071817EE0100E1
:10257000130E0E0183274E109DE383278E11639562
:10258000072019C223200600BD312285B240224413
:102590004101828083274E00232EFEFE21B7832730
:1025A0008E1017EF0100130F6F0EDC4317E70100C9
:1025B000232CF70C6380E73383A2C700DC43AA9681
:1025C000814E17E701002321F70C914F1303500AA6
:1025D0006388E70783A8C7009387480323A01601F1
:1025E000DCC283A7880423A6F6019CC683A7C80281
:1025F0009CCA83A7080523AC0600DCCA03A808030D
:10260000834708006391672AC287850703C70700CD
:10261000B3850741E30B67FE93D72500C207C1834B
:10262000239EF600850E9386060263861229832771
:102630008E10DC4317E701002328F704E39CE7F939
:1026400083270E1117E701002320F70461B78327C2
:102650004E00130F8E00D4432322DE006388E62948
:10266000B307E500D84283A2C600814E2322EE00C4
:10267000894F1303500A6306EF068328C7001387A8
:10268000480323A01701D8C303A7880423A6F70192
:1026900098C703A7C80298CB03A7080523AC070077
:1026A000D8CB03A80803034708006318671C4287B8
:1026B000050783460700B3050741E38B66FE13D782
:1026C000250042074183239EE700850E938707027A
:1026D000638D121B83264E00D8422322EE00E31E98
:1026E000EFF80327CE002322EE0041BF83274E00E0
:1026F000130F8E00DC432322FE006384E71F83A2B6
:10270000C700DC43AA96814E2322FE00894F1303A3
:10271000500A6306FF0683A8C7009387480323A0D7
:102720001601DCC283A7880423A6F6019CC683A7F2
:10273000C8029CCA83A7080523AC0600DCCA03A80C
:1027400008038347080063966710C287850703C79D
:102750000700B3850741E30B67FE93D72500C20747
:10276000C183239EF600850E93860602638B120FAB
:1027700083274E00DC432322FE00E31EFFF883275D
:10278000CE002322FE0041BF8327CE1197EE010029
:10279000938E0EF1DC4317E701002321F7F06384E9
:1027A000D71383AFC700DC433307D500014397E657
:1027B000010023A5F6EE0D4F89429308500A638766
:1027C000D707C8479307450308C35CC33C45232686
:1027D000E7011CC75C551CCB1C5599C32326570029
:1027E0003C49232C07005CCB0328050383470800E2
:1027F00063951705C287850783C60700B385074120
:10280000E38B16FF93D72500C207C183231EF70071
:10281000050313070702638AAF028327CE11DC4347
:1028200097E6010023ACF6E6E39DD7F983274E1225
:1028300097E6010023A4F6E669B78147231EF70057
:10284000050313070702E39AAFFC1A94E31C06D2B0
:1028500025BB8147239EF600850E93860602E399E9
:1028600012F117EE0100130EAED183274E107694AD
:1028700093165400E38307D01DB30147239EE7005E
:10288000850E93870702E39712E597E70100938788
:1028900067C003AE070076949316540083270E009A
:1028A000E38607CCA1B58147239EF600850E93866B
:1028B0000602E39E12D783278E1176949316540056
:1028C000E38107CCD1B583274E1217E701002327F8
:1028D000F7DCC1BD83270E1117E701002326F7DAC5
:1028E000E1B98327CE002322FE0011BD8326CE004E
:1028F0002322DE00B5B3797126D24AD04ECE52CC17
:1029000056CA5AC85EC606D622D497E901009389F2
:10291000A9B517E901001309A9C617EA0100130AAE
:102920002AB697EA0100938A6AB797EB0100938B66
:10293000EBB597E401009384A4B5054B21A883A7C8
:10294000090003244910850717E70100232EF7B07B
:102950005D3011E89C40E5F783270900E37CFBFE2E
:10296000EFD0DFAAC5BF7370043083270A00B9E334
:1029700083270911C04713054400EFD07FBF83A709
:102980000B00FD1717E701002322F7B09C40FD174D
:1029900017E70100232EF7AE83270A0089C783A714
:1029A0000A00FC4385E30858EF10D0032285EF109E
:1029B00070034DB703A70A0083A70A007C4385076D
:1029C0007CC37DB703A70A0083A60A007C43FD17DA
:1029D0007CC3FC42E9FB73600430F1B797E7010068
:1029E000938787A89C43DDE3411106C697E7010062
:1029F00023A407A817E70100130747AA1C43B7A69B
:102A0000A5A59386565A9C5B8C43639BD500D04307
:102A10006318B60094476395C600DC476388D70007
:102A200008430C4393854503EF20A07897E6010007
:102A3000938646A5904217E70100130767B411A8D3
:102A40009C42B9CB9C42FD1717E60100232CF6A24D
:102A5000904293172600B2978A07BA979C43EDD30A
:102A6000904293172600B2978A07B305F700D44126
:102A7000A107BA97D442D4C16383F602DC46B240C0
:102A800017E70100232CF7A041018280854717E753
:102A900001002323F79E82807370043001A0D14788
:102AA0003306F602D442329754C3C9BF01114AC853
:102AB00006CE22CC26CA4EC62A897370043097E40B
:102AC00001009384E49B9C4017E401001304049DDF
:102AD000D9E76314090003290400930949004E85CE
:102AE000EFD01FA98327890289C713058901EFD079
:102AF0003FA8CE8517E50100130505BAEFD0DFA288
:102B00009C4081C71C40FC43ADE31C40638B2707FE
:102B10009C409DCF737004309C40C1EB97E701004F
:102B2000938787979843184325EBFD5717E70100D4
:102B3000232EF7929C4089CF1C40FC4391CB184038
:102B400014407C43FD177CC3FC4299E3736004305E
:102B5000F2406244D2444249B24905618280184041
:102B60001C407C4385077CC3ADB7184014407C43B0
:102B7000FD177CC3FC42D1FB736004301C40E39919
:102B800027F99C40A1C397E701009387E78D9C43F9
:102B9000ADCB7370043001A09C43DC47DC47DC43C1
:102BA00017E701002324F78C71B718401C407C43C1
:102BB00085077CC397E701009387078E98431843E6
:102BC0002DD7D9BF97E701009387478C17E70100FE
:102BD0001307079B9C4303278711631DF700F240EF
:102BE000624497E7010023AB078AD2444249B249C5
:102BF000056182806244F240D2444249B249056193
:102C0000F1BB6244F240D2444249B24905616FD0FF
:102C1000EFFF3DC9411126C297E401009384048867
:102C20004AC02E898C4006C622C4E105EFD05F91D0
:102C300088401105EFD0DF93FD57630AF90497E749
:102C4000010093876784804398409C434A9440C323
:102C5000636CF40497E701009387078488438C40F2
:102C60009105EFD0FF8D97E70100938727809C4364
:102C70006376F40097D7010023AA877EB2402244EE
:102C800092440249410182807370043001A08C405B
:102C90002244B2409244024917E501001305C59F42
:102CA000910541016FD05F8897D701009387877E98
:102CB000884322448C40B24092440249910541012C
:102CC0006FD01F8811C997D701009387E7799C437C
:102CD00099E77370043001A07370043001A04111B2
:102CE00026C297D401009384647B9840AE878C40C1
:102CF000B7060080D58F06C622C41CCFE1053284FA
:102D0000EFD09F8288401105EFD09F86FD57630E5C
:102D1000F40097D70100938727778843B240924405
:102D20002295224441016F30C0048C402244B240BD
:102D3000924417E5010013052596910541016FD0D6
:102D4000AFFE25CD411126C297D4010093840475AE
:102D50004AC02E898C4006C622C4E1053284EFD0D9
:102D6000AFFC88401105EFD0BF808547630AF404AB
:102D700097D7010093874771804398409C434A94BA
:102D800040C3636CF40497D701009387E7708843CE
:102D90008C409105EFD0CFFA97D701009387076D4C
:102DA0009C436376F40097D7010023A1876CB2405F
:102DB000224492440249410182807370043001A090
:102DC0008C402244B2409244024917E501001305A9
:102DD000A58C910541016FD02FF597D701009387FE
:102DE000676B884322448C40B2409244024991056B
:102DF00041016FD0EFF4411106C622C426C25C45E2
:102E0000C04735CC930484012685EFD06FF697D761
:102E10000100938767659C43B5E7930444002685CA
:102E2000EFD00FF597D701009387C76558549C439F
:102E300063F6E70097D7010023A6E76493172700FE
:102E4000BA978A0717D5010013058573A6853E95A5
:102E5000EFD08FED97D70100938747649C43585478
:102E60000145DC5763F8E700854717D701002325A4
:102E7000F7600545B240224492444101828073705C
:102E8000043001A0A68517D501001305657EEFD09B
:102E9000AFE9C9B797D701009387075D9C4381E7E6
:102EA0007370043001A0411106C622C426C2B707C0
:102EB00000804045CD8F1CC12DC4EFD06FEB930433
:102EC00044002685EFD0CFEA97D701009387875B30
:102ED00058549C4363F6E70097D7010023A4E75AB0
:102EE00093172700BA978A0717D50100130545697C
:102EF0003E95A685EFD04FE397D701009387075AF9
:102F00009C4358540145DC5763F8E700854717D7C1
:102F100001002323F7560545B24022449244410163
:102F200082807370043001A011CD97D70100938780
:102F30006754984397D70100938707559C4318C15E
:102F40005CC182807370043001A055C1D1CD4111A4
:102F500006C622C42A877370043097D8010093886C
:102F6000285283A7080091CB97D701009387075376
:102F700094439C43FC428507FCC217D30100130312
:102F8000A3509C4103260300FD560144638FD702E2
:102F900017DE0100130E0E4E03250E000328070056
:102FA00054436305A80005446371D6023308D64034
:102FB0000544637CF80003250E00918F032603006F
:102FC000B6979CC108C350C3014483A7080081CBB6
:102FD00097D701009387874C9C43FC4381EF228560
:102FE000B2402244410182807370043001A07370AA
:102FF000043001A0EF20305EDDB7854717D7010010
:10300000232CF746828019C1684582800145828061
:1030100011C16CC5828097D70100938727488843E8
:10302000828097D701009387A7459C43054589CBAC
:1030300097D701009387474388431335150006054A
:10304000828031CD011126CA97D4010093840445B2
:103050009C4006CE22CC4AC84EC65855DC576379F0
:10306000F7021C4D63C707009C40D457A947958FB2
:103070001CCD93172700BA97584917D90100130997
:1030800029508A07CA97630DF7009C40DC575CD52E
:10309000F2406244D2444249B24905618280828052
:1030A000930945002A844E85EFD08FCC9C4017D7DA
:1030B00001001307273D1843DC575CD46376F70003
:1030C00017D701002320F73C139527003E95624453
:1030D0000A05F240D244CE854A95B249424905617B
:1030E0006FD08FC419CD411106C622C426C297D70E
:1030F00001009387A73A80436307A40073700430EC
:1031000001A0014582807C4881E77370043001A0F2
:1031100054543848FD177CC86383E60099C70145BD
:10312000B2402244924441018280930444002685A7
:10313000EFD00FC43C4817D701001307A73414433E
:1031400029471D8F5CD418CC63F6F60017D7010011
:10315000232AF7325147B387E70217D50100130539
:103160002542A6853E95EFD02FBC054555BF73700F
:10317000043097D701009387A7309C4391CB97D712
:1031800001009387A73198439C437C4385077CC308
:10319000828097D701009387A72E9C438DC397D732
:1031A00001009387A72F9843784311CB984394430A
:1031B0007C43FD177CC3FC4299E37360043082803A
:1031C00097D701009387872D904394439843A9474D
:1031D000D456084E958F1CCF828097D701009387D5
:1031E000E72B984309C79443F84A0507F8CA884370
:1031F000828079714AD006D622D426D24ECE2A8930
:103200007370043097D40100938484279C4017D4B2
:1032100001001304A428BDE31C40BC4F89E71C40F7
:103220000547F8CFD1E19C4081C71C40FC43F1EB3E
:10323000737004309C408DEF1C40A84F11C563048F
:1032400009021C4023AC07041C4023AE07049C4029
:1032500081C71C40FC438DEBB2502254925402595A
:10326000F2494561828018403C4FFD173CCFE9BFD1
:1032700018401C407C4385077CC37DBF18401C4020
:103280007C4385077CC349BF184014407C43FD172D
:103290007CC3FC42F1F373600430B2502254925468
:1032A0000259F2494561828008402EC61105EFD0CF
:1032B0002FACB245FD576380F50697D70100938781
:1032C000A71C83A9070018409C43AE99232237010D
:1032D00063ECF90497D701009387071C88430C40DF
:1032E0009105EFD0EFA597D70100938727189C434E
:1032F00063F6F90097D7010023AA3717EFD00F9193
:103300001DB7184014407C43FD177CC3FC428DF36D
:103310007360043031BF0C4017D501001305C53769
:103320009105EFD06FA0D9BF97D70100938787167B
:1033300088430C409105EFD0AFA0C9B779714AD04E
:103340004ECE06D622D426D252CC2E89B2897370A4
:10335000043097D401009384A4129C4017D4010038
:103360001304C413F9EF18408947784F630CF70032
:103370001C401345F5FFB84F798DA8CF1C40054779
:10338000F8CFADE69C4081C71C40FC43F5E3737069
:1033900004309C40B1E7638609001C40BC4F23A069
:1033A000F900184085470145784F630BF7001C4032
:1033B0001349F9FF0545B84F3379E90023AC2705D8
:1033C0001C4023AE07049C4081C71C40FC43C1E362
:1033D000B250225492540259F249624A45618280A5
:1033E00018401C407C4385077CC375B7084036C62F
:1033F0001105EFD0EF97B246FD576385F60897D7D2
:1034000001009387670803AA070018409C43369A77
:10341000232247016363FA0897D701009387C70700
:1034200088430C409105EFD0AF9197D70100938767
:10343000E7039C436370FA0697D7010023A847036C
:1034400091A818401C407C4385077CC329BF1840C5
:1034500014407C43FD177CC3FC42BDFB7360043009
:10346000B250225492540259F249624A4561828014
:10347000184014407C43FD177CC3FC4289FB7360F9
:10348000043031B70C4017D501001305E520910534
:10349000EFD08F89EFC09FF7F5B597D701009387DD
:1034A00067FF88430C409105EFD08F89E5B751C184
:1034B000411106C622C426C24AC07370043097D494
:1034C00001009384E4FB9C40B9EB99C23C4D9CC243
:1034D000B2878946704D74CD2E872A846386D706BD
:1034E00063FCF6048D456387B70091456395B7008B
:1034F0006300D60C38CC8547630FF60405449C4026
:1035000081CB97D70100938767F99C43FC43A9E3DC
:103510002285B2402244924402494101828097D7D9
:1035200001009387A7F798439C437C4385077CC39E
:1035300069BF7370043001A08546E39ED7FA3C4D05
:1035400033E7B70038CD45BF3C4D85073CCD65B767
:10355000EF20700875BF130944004A85EFD04F81F2
:1035600017D70100130707F25C5418436376F7007E
:1035700017D701002328F7F05147B387E70217D583
:1035800001001305E5FFCA853E95EFC0FFF91C5405
:1035900081C77370043001A097D70100938707F0AB
:1035A0009C435854DC57E3FBE7F4EFC03FE6B9B760
:1035B0000144B1B739CD011122CC26CA4AC84EC642
:1035C00052C456C206CEBA89368AB2842E892A845B
:1035D000EFC0BFEFAA8A63050A003C4C2320FA0023
:1035E000784C89477CCC6389F40263F4970C8D4650
:1035F0006387D40091466396D400630AF70A232CAC
:1036000024058547631EF7061C5499CB737004305C
:1036100001A07370043001A03C4C85073CCCD5B7A9
:1036200097D70100938747E49C43ADEB9304440094
:103630002685EFC0FFF317D701001307A7E45C54FA
:1036400018436376F70017D70100232DF7E251479F
:10365000B387E70217D50100130585F2A6853E95CD
:10366000EFC09FEC97D70100938747E39C435854E2
:10367000DC5763F7E70063850900854723A0F9005D
:1036800005445685EFC01FE42285F2406244D244CF
:103690004249B249224A924A0561828093058401D7
:1036A00017D501001305C5FCEFC01FE865BF014435
:1036B000C9BF8547E397F4F43C4C33E92701232C39
:1036C000240581B74DC1011122CC26CA2A844AC8DB
:1036D00006CE4EC6AE84EFC05FDF8947744C7CCC0B
:1036E0003C4C05472A8985073CCC6395E6061C546B
:1036F00081C77370043001A097D701009387C7D6A4
:103700009C43ADE7930944004E85EFC07FE617D791
:103710000100130727D75C5418436376F70017D7C7
:1037200001002321F7D65147B387E70217D50100DF
:10373000130505E5CE853E95EFC01FDF97D7010045
:103740009387C7D59C435854DC5763F5E70099C06D
:1037500085479CC06244F240D244B2494A854249FE
:1037600005616FC03FD67370043001A093058401DA
:1037700017D501001305C5EFEFC01FDBC1B7AA873E
:1037800029C57370043017D70100130767CF14439E
:103790009DE2F04F894601456315D60023AE07042C
:1037A00005451C4381CB97D70100938727CF9843CA
:1037B000784315E3828097D60100938626CE904207
:1037C00094427442850674C2E9B797D70100938783
:1037D000E7CC9C437DB7984394437C43FD177CC35F
:1037E000FC42E9FB7360043082805D71A6C2CAC0EE
:1037F00052DC56DA5AD85ED686C6A2C44EDE62D4F1
:1038000066D26AD017D90100130949CA17DB010033
:10381000130B0BC997D401009384C4C897DA010035
:10382000938A8AC8054AA54B8327090098436301F8
:103830000712DC4783A90700EFE0EFF6EFE0AFF7F0
:1038400083270B002A8C6362F50A97D7010023A90E
:10385000A7C401466370351B8840B3858941EFD00A
:103860005FA3EFE05F99630105128840814601463E
:103870002C00EFD0CFDC4DD9A247E3C807FEC249E8
:1038800083A7490189C713854900EFC07FCEEFE0C8
:103890008FF283270B002A8C636DF508A24717D798
:1038A0000100232F87BFE3E2FBFCB317FA0013F7F5
:1038B0000721631A071613F7770C6318071E93F78F
:1038C0000702C5D74E85EF00F01145B7DC47C0476A
:1038D00083AC0700930944004E85EFC07FC95C505C
:1038E000228582975C4C6384470B832709009843A9
:1038F00071FF03A70A0097D6010023A386BB97D6C2
:10390000010023A3F6BA97D7010023A1E7BAEFE09D
:103910009F8EA1BFDC47C04703AD0700930C440056
:103920006685EFC0FFC45C50228582975C4C63863D
:10393000470983270900984371FF03A70A0097D618
:10394000010023A3F6B697D7010023A1E7B6B9B7C4
:10395000EFE06FE5EFE02FE683270B002A8CE366AC
:10396000F5F883A70A00884081499043B3858941CF
:1039700017D70100232687B313361600EFD07F91A7
:10398000EFE07F87E31305EEEFC05FA8F9BD1C4CA5
:10399000CE85E69763E9FC049C4089CF02CA66CCD9
:1039A00022CEEFF00FE88840814601464C08EFD068
:1039B0002F8905FD7370043001A01C4CE685EA9741
:1039C000636CFD049C4089CF02CA6ACC22CEEFF022
:1039D0004FE58840814601464C08EFD06F8631F9AB
:1039E0007370043001A0032509005CC000C8EFC05B
:1039F0003FB5E5BDEFE03F8083270900DC47C047C6
:103A0000930C44006685EFC0BFB65C4C638F4703E0
:103A10005C502285829791BD032509005CC000C8D7
:103A2000EFC01FB239B7B24723ACF900A5CFE29778
:103A300023A2F90023A8390193854900636FFC0490
:103A400003A50A00EFC0DFAF0DB51C4C00C83387DB
:103A5000F90058C0636DEC02330C3C416363FC0217
:103A60009C4089CF02CA4ECC22CEEFF08FDB88403B
:103A7000814601464C08EFC0BFFC59F97370043011
:103A800001A003A50A00E685EFC09FAB51B703254F
:103A90000900E685EFC0DFAAA5BF03250900EFC036
:103AA0003FAAE1B37370043001A0B24783A6890135
:103AB00023A839013387D70023A2E9006364EC040B
:103AC000B307FC4063EBD70483A749024E85829776
:103AD00083A7C901E39B47D983A68901B2479840D0
:103AE000B69711CF02CA3ECC4ECEEFF08FD38840AE
:103AF000814601464C08EFC0BFF4E31805D6737049
:103B0000043001A06374FC00E370F7FC0325090096
:103B100093854900EFC0DFA289BB03A50A00938506
:103B20004900EFC0FFA191B3411122C406C626C2CD
:103B30004AC017D401001304E496EFF04FE31C4091
:103B400095CBEFF00FE51C409DC3814801488147AC
:103B5000094781461306004097D5010093850586E5
:103B6000170500001305A5C8EFD07F9A39E97370D7
:103B7000043001A017D90100130949B34A85EFC0E9
:103B80001F9997D401009384A4B32685EFC03F9872
:103B90000146B145114597D7010023A9279197D731
:103BA000010023A39790EFC0BFC417D70100232BB8
:103BB000A78E11CD97C501009385C57FEFD02FE269
:103BC00049B7B24022449244024941018280737055
:103BD000043001A0A5C9797156CAAA8A1305C0028A
:103BE00022D426D24AD04ECE52CC06D65AC85EC671
:103BF0003A89B689328AAE84E9212A8405C9EFF070
:103C00000FD797D701009387E7899C439DCFEFF0AB
:103C10004FD8130544002320540104CC232E440123
:103C20002320340323222403EFC0BF8F2285B25008
:103C3000225492540259F249624AD24A424BB24B40
:103C4000456182807370043001A097DB0100938B83
:103C5000EBA55E85EFC0BF8B17DB0100130B4BA6F6
:103C60005A85EFC0DF8A0146B145114597D701005B
:103C700023AE778397D7010023A86783EFC05FB790
:103C800017D701002320A78201C997C5010093859A
:103C90006572EFD0CFD4A5BF7370043001A039C5D1
:103CA000011122CC06CE26CA17C401001304847F5A
:103CB000832804002A88014563850802BA842EC23D
:103CC000368732C442C6954663C5B602EFF06FB57B
:103CD0008947630BF5020840814601464C00EFC05E
:103CE0003FD6F2406244D244056182807370043052
:103CF00001A04C0081463A864685EFC0DFF6F240CF
:103D00006244D244056182800840814626864C0088
:103D1000EFC01FD3F9B719C1084182807370043016
:103D200001A001E57370043001A0411106C622C450
:103D30002A84EFF0CFC348483334A000EFF06FC5BA
:103D40002285B24022444101828001E57370043033
:103D500001A0411122C42A8406C6EFF04FC10050D1
:103D6000EFF02FC3B240228522444101828001E559
:103D70007370043001A0411122C426C22E84AA848B
:103D800006C6EFF0CFBE80D02244B240924441013B
:103D90006FF02FC04111714522C406C61D262A842A
:103DA00011C5232005001105EFC06FF62285B24032
:103DB00022444101828001CDB70700FFED8F81C70A
:103DC0007370043001A099E57370043001A0737022
:103DD000043001A0011122CC4AC84EC652C456C2BA
:103DE00006CE26CABA893689B28A2E842A8AEFF08C
:103DF0004FA311E5638509007370043001A0EFE063
:103E00008F9A83240A00B37794006316090295C73A
:103E100063870A009347F4FFE58F2320FA00EFE061
:103E20008FBDF240624426854249D244B249224ABB
:103E3000924A05618280E30DF4FCE38209FEB3350A
:103E40005001E20563050900B7070004DD8D4E86C9
:103E5000C18D13054A00EFE0FFE6EFE0CFB919E1AD
:103E6000EFC0CFDAEFF0CFB593176500AA8963D81A
:103E70000700B7040001FD14B3F499005DB7EFF03B
:103E80000FAF83290A00B3773401631E090089CB81
:103E900063880A009347F4FFB3F737012320FA0041
:103EA000EFF02FAFF9B7E31DF4FEDDB701C9B70797
:103EB00000FFED8F99C77370043001A07370043058
:103EC00001A0411122C42A8406C626C24AC02E89F6
:103ED000EFF0EFA904409345F9FFB3F795001CC03C
:103EE000EFF02FABB24022442685024992444101B3
:103EF0008280411122C42A8406C6EFC00FDD004033
:103F0000EFC04FDCB240228522444101828009C9C2
:103F1000370700FFB3F7E50099C77370043001A0BD
:103F20007370043001A06F10D06CB70700FFF18FE1
:103F300081C77370043001A001E67370043001A0E2
:103F4000011122CC4AC84EC652C406CE26CA3689B2
:103F5000AE892A8A3284EFF0CF8C21E16305090013
:103F60007370043001A0EFE00F8483240A00CE8533
:103F70005285B3E49900613FB37794006307F40678
:103F800083240A00EFE02FA7F240624426854249CD
:103F9000D244B249224A05618280EFE0CF80832477
:103FA0000A00CE855285B3E434019537B3F7840017
:103FB000638D8702E30609FCB70500054A86C18DBB
:103FC00013054A00EFE01FD0EFE0EFA219E1EFC0C8
:103FD000EFC3EFF0EF9E93176500AA8463DF07003D
:103FE000B7070001FD17FD8C45B783270A0013446E
:103FF000F4FFE18F2320FA0071B7EFF04F9783248D
:104000000A00B3779400639787009347F4FFE58F26
:104010002320FA00EFF0EF97E1B7411122C406C662
:104020002A8426C2EFD03FF85C4085C30848930439
:10403000C4006316950015A0084863009502B705F3
:104040000002EFE03FE55C40E5FB2285612A224467
:10405000B240924441016FE00F9A7370043001A0A6
:1040600009C9370700FFB3F7E50099C7737004303B
:1040700001A07370043001A06F10B05701C9B707D9
:1040800000FFED8F99C77370043001A07370043086
:1040900001A0411122C426C206C62A84AE84EFF0D4
:1040A0000F8D184093C7F4FFF98F1CC02244B24013
:1040B000924441016FF0EF8D19C1084D8280014596
:1040C0008280411122C406C62A84EFD0DFED97C753
:1040D00001009387E73D9C43A1EBE56717C701000B
:1040E0001307875FF11797C6010023A9E63C17C79E
:1040F00001002323F73C17C701002321F75E97C770
:1041000001009387273B17C701002327F75C8547EA
:1041100017C701002326073A17C70100232C0738C9
:1041200017C701002326F73819E8EFE0CF8CEF100E
:10413000C00701442285B240224441018280130518
:10414000840093773500C1EFE5671307F5FFE917A2
:10415000E3EDE7FC97C60100938646369C4229A012
:10416000984311C7BE86BA87D843E36BA7FE17C72B
:10417000010013072734E38AE7FA98434146138482
:10418000870098C2D843B306A7406378D602338825
:10419000A7002322D800C8C38325480097C6010082
:1041A0009386C63111A0BA8698425043E36DB6FE9D
:1041B0002320E80023A00601D84397C70100938776
:1041C000A7329C43998F17C70100232FF730EFE0E8
:1041D0008F8231DC2285B240224441018280719974
:1041E00011059DB729C9411122C406C62A84EFD002
:1041F0009FDB930584FF0326C4FF17C70100130745
:10420000E72B11A03E871C43D443E3EDC6FE232CCD
:10421000F4FE0CC397C701009387072D98438327AB
:10422000C4FF2244B240BA9717C70100232EF72AD1
:1042300041016FD05FFC828097C701009387C72A36
:104240008843828082803367B5000D8BAA871DE783
:104250009308D6FFAA982A87AE866371150303A830
:10426000060011079106232E07FFE36A17FF934705
:10427000F5FFC697F19B9107BE95AA972A9663F31F
:10428000C70A9386450013884700B3B6D70033B8F2
:10429000050133E7F50093C61600134818000D8B8F
:1042A000B3E6060113371700758F330EF640938679
:1042B000170029CF1337AE0031EB13532E002E8891
:1042C000BE860147832808000507110823A01601B0
:1042D0009106E36967FE1377CEFFBA95BA9763023A
:1042E000EE0483C60500138717002380D700637A86
:1042F000C70283C6150013872700A380D700637207
:10430000C70203C725002381E7008280B307F64078
:10431000AE97850503C7F5FF8506238FE6FEE39A72
:10432000F5FE82808280B367C5008D8BB308C5001F
:10433000E9C36371150FB307A0408D8B1387370056
:10434000954693F5F50F130815003383A8407D16A5
:104350006373D70015476363E60CD5CF2300B50020
:104360000547638DE700A300B5000D47130825003E
:104370006396E700130835002301B5001396850006
:104380004D8E13970501518F3303F34093968501AA
:10439000D98E13562300AA97014794C305079107A6
:1043A000E36DC7FE1377C3FFB307E8006307E306B7
:1043B0002380B70013871700637C1703A380B7001F
:1043C00013872700637617032381B700138737000D
:1043D00063701703A381B70013874700637A17013F
:1043E0002382B7001387570063741701A382B700B5
:1043F000828093F5F50F13978500D98D13970501EA
:104400004D8FE37715FFAA87910723AEE7FEE3ED13
:1044100017FF828082802A8895B78280AA8749BF49
:10442000834705002A8799C7050583470500EDFFE7
:10443000198D82800145828005058347F5FF85053A
:1044400003C7F5FF91C7E389E7FE3385E740828024
:104450008147E5BFAA87850503C7F5FF8507A38FB9
:10446000E7FE75FB82808346050093070002639791
:10447000F600050583460500E38DF6FE938756FD9D
:1044800093F7D70F85C7AA87814585CE0145850754
:10449000138606FD1317250083C607003A95060507
:1044A0003295F5F699C13305A0408280938536FD9B
:1044B0008346150093B5150093071500E1FA0145F1
:1044C000D5B7014582809C412380A7009C41850788
:1044D0009CC1828097C601009386C6FE9C421757F6
:1044E00003001307272213861700BA972380A7001B
:1044F00097C5010023A8C5FCA9476308F5009307E9
:1045000000046305F6000145828075DE370610F071
:1045100005078347F7FF2320F6F09C42FD1797C558
:10452000010023A1F5FAEDF7014582804D712322A8
:10453000911423202115232A511323248113232688
:10454000111423248114232E3113232C41132328E7
:10455000611323267113232291132320A113232EE9
:10456000B111AA842E8932C6130C5002A54A834782
:10457000090063808703B9CB804011A0A1CB230041
:10458000F40080400509050480C083470900E397D3
:1045900087FF0346190093081900C686130D000211
:1045A000FD597D5A0148130550059307D6FD93F731
:1045B000F70F138916006363F52A17C70100130765
:1045C00067A48A07BA979C43BA9782878320C1144D
:1045D0000324811483244114032901148329C11362
:1045E000032A8113832A4113032B0113832BC11246
:1045F000032C8112832C4112032D0112832DC11132
:1046000071618280A14C02C4854763D50715B2470A
:104610008040938B770093F68BFF03AB060083A952
:104620004600938786003EC6668681465A85CE85BB
:10463000EF10E03E2AC8814763853723930D41017F
:10464000854B668681465A85CE85EF106007814688
:1046500066862A8BAE89EF10803CA24723A0AD006E
:1046600093861B00910D63843701B68BD9BFE37E1F
:104670009BFF63DD4601A2872380A70180407D1A4E
:10468000930714009CC03E84E3C846FF93962B001A
:104690001C08BE9631A8938777052300F40080405C
:1046A000FD1B93871B00050480C0F116E351F0EC5D
:1046B0009C42E3E2FAFE93870703C5B79C4093064A
:1046C000000332472380D7009C4093064700C14C2B
:1046D0001386170090C013068007A380C700804090
:1046E00002C4BA87050480C003AB0700814936C6FF
:1046F00025BFB24783AC0700938B470063840C1C33
:10470000635F40199307D0026319FD1683C70C003D
:1047100085C363DC09189440850C7D1A2380F6005C
:104720008040050480C083C70C00E5F7635D40014D
:104730008040930700022300F40080407D1A0504A6
:1047400080C0E31A0AFE5EC61DB502C48547A94CA7
:10475000E3CF07EBB24780409386470071B703C6AB
:104760001600CA8699B59C40930650022380D70054
:104770008040050480C0E5BBC14C02C471B5B2479E
:1047800003C61600CA8683A9070091073EC6E35EEA
:104790000AE04E8AFD5911BD03C61600130DD00262
:1047A000CA8621B59347FAFFFD8703C61600337A00
:1047B000FA00CA86DDBB03C61600130D0003CA86C5
:1047C000EDB383C51600930906FDCA86938705FDE0
:1047D0002E86E3EEFAFA93972900BE99850686099C
:1047E000AE9983C50600938909FD938705FD2E8642
:1047F000E3F3FAFE69BF32479C40144311073AC6FF
:104800002380D7008040050480C095B3854763D3DB
:10481000070BB24793867700E19A938786003EC6DE
:1048200083A946009C4263DC090A94401306D00227
:10483000B307F0402380C6008040B336F000B309D0
:104840003041050480C03E8BB389D940A94C02C4D5
:10485000E1BB03C616000508CA8681BB9C40468999
:1048600021B7E37D9BDD8547814B8546E3C547E165
:1048700031BD97CC0100938CECB4CE856685EF00FA
:10488000102A330AAA40635C400180402300A4013F
:1048900080407D1A050480C0E31A0AFE014A83C7DE
:1048A0000C00E38207EAE3C809E6FD197D57E394AB
:1048B000E9E6ADBDB247938647009C4336C693D91F
:1048C000F74195B7635640019307D002E313FDFA11
:1048D00097CC0100938C0CAF930780021DBD3E8BDB
:1048E000A94C02C4804089B34D71232E3113B709FE
:1048F00000409387F9FF2324811423229114232C51
:104900004113232A51132326111423202115232870
:10491000611323267113232481132322911323204F
:10492000A113232EB1112A8A2EC417C40100130427
:1049300064B9975A0300938AEADC97C40100938410
:10494000E4813EC693055002294513080004B706CA
:1049500010F083470A006386B704C1C71840050AF0
:1049600013061700569797C8010023ADC8B423005B
:10497000F7006382A706E31E06FD1757030013071F
:1049800067D805078347F7FF23A0F6F01C40FD1703
:1049900017C601002328F6B2EDF783470A00E39E0D
:1049A000B7FA83461A0013051A002A87930B0002F0
:1049B0007D5B7D5C014893055005A5489387D6FD36
:1049C00093F7F70F130A170063E7F5348A07A697E2
:1049D0009C43A6978287175703001307A7D255F267
:1049E0008DBF8320C114032481148324411403291F
:1049F00001148329C113032A8113832A4113032B32
:104A00000113832BC112032C8112832C4112032D1D
:104A10000112832DC11171618280A14C014D854726
:104A200063DB0719A2479D07E19B83AD070003AB3A
:104A30004700138787003AC4668681466E85DA850B
:104A4000EF00F07D2AC863066D35130941018549E1
:104A5000668681466E85DA85EF00904666868146D9
:104A6000AA8D2E8BEF00B07B2320A90085091109A8
:104A7000E3106DFFE3FE9DFD13060004B70610F082
:104A800063D189031C4013871700D69797C501008F
:104A900023AAE5A223807701630CC7047D1CE3C32E
:104AA00089FFB2476800A548B386F9008A061C084A
:104AB000BE96294813030004370610F0E384A6E8E5
:104AC0009C429305000363F4F800930570051840B9
:104AD000AE9793051700569717CE01002324BE9E6C
:104AE0002300F7006380072B638C6526F116F9B766
:104AF00017570300130707C105078347F7FF23A0D4
:104B0000F6F01C40FD1797C5010023ADF59AEDF7AF
:104B10007D1C71B71C40130600041387170097C54E
:104B2000010023A1E59AB386FA00930500032380D0
:104B3000B600630FC73C890797C6010023A4F69807
:104B40005697930680072300D700175703001307D3
:104B500067BBB70610F0639EC70005078347F7FFE2
:104B600023A0F6F01C40FD1717C60100232CF69475
:104B7000EDF7A247C14C014D91072247014B832D10
:104B800007003EC455BDA24783AC07001389470008
:104B9000638E0C3A635480219307D002639EFB2EF0
:104BA00003C70C00BA856310072025AC8547A94CC4
:104BB000014DE3C907E7A2479107C1B7A247834662
:104BC0001700528703AB070091073EC4E3580CDE81
:104BD0005A8C7D5BE5B383461700930BD002528756
:104BE000F1BB9347FCFFFD8783461700337CFC0035
:104BF0005287E9B383461700930B000352877DBBAE
:104C000003461700138B06FD5287930706FDB286F5
:104C1000E3EEF8FA93172B00DA9705078607B297A9
:104C200003460700138B07FD930706FDB286E3F3E7
:104C3000F8FE69BFA2451C4029469841938617009B
:104C4000D69717C50100232FD5862380E700138947
:104C500045006300C72A930700046387F6204AC40F
:104C6000D5B1854763DE0729A24713877700619B8B
:104C7000930787003EC4032B47001C43635A0B3045
:104C80001840130600049306170097C5010023ABD4
:104C9000D58256979305D0022300B7006387C62CB0
:104CA000B307F0403337F000330B6041BE8D330B58
:104CB000EB40A94C014D49B38346170005085287C4
:104CC000F5B9834617005287D5B91C4093060004F6
:104CD0001387170017B601002326E67ED697130622
:104CE00050022380C700E31FD7C4175703001307E0
:104CF00067A1B70610F005078347F7FF23A0F6F07A
:104D00001C40FD1717B60100232EF67AEDF71DB9EA
:104D1000C14C014D29B31C40930600042A8A138715
:104D2000170017B60100232FE678D6971306500216
:104D30002380C700E318D7C0175703001307879CC9
:104D4000B70610F005078347F7FF23A0F6F01C40D5
:104D5000FD1717B601002327F676EDF72A8ADDB690
:104D6000175703001307079A05078347F7FF232008
:104D7000F6F01C40FD1797B5010023A5F574EDF77B
:104D8000F1162DBB175703001307C797F1FDF11656
:104D900035B3E3FC9DCB8549C5B1014C03C70C007D
:104DA000BA85E30E07EAFD58294513080004B70643
:104DB00010F063570B0A1C4013861700D69717B3E1
:104DC00001002321C3702380E7006384A5066304E8
:104DD0000609850C03C70C007D1CBA8579FBE350DE
:104DE00080E91C409305000213060004B70610F08A
:104DF00021A07D1CE3050CE613871700D6972380BE
:104E0000B70017B50100232FE56ABA87E313C7FE81
:104E1000175703001307078F05078347F7FF23A0E2
:104E2000F6F01C40FD1717B50100232DF568EDF7CE
:104E3000C9B7175703001307E78C41DE05078347FF
:104E4000F7FF23A0F6F01C40FD1717B60100232B37
:104E5000F666EDF7BDBF175703001307A78AF9BF22
:104E60007D1BE31A1BF5A5BF17570300130787899E
:104E7000B70610F005078347F7FF23A0F6F01C40A4
:104E8000FD1717B60100232FF662EDF74AC45DBC8B
:104E900097BC0100938C0C53DA8566854921330C4D
:104EA000AC40E35D80EF1C4013060004B70610F031
:104EB00021A07D1CE3030CEE13871700D6972380F7
:104EC000770197B5010023AFE55EBA87E313C7FE0C
:104ED000175703001307078305078347F7FF23A02E
:104EE000F6F01C40FD1797B5010023ADF55CEDF71A
:104EF000C9B7175703001307E780BDFA4AC499B42E
:104F0000A247138747009C433AC413DBF741BDB364
:104F1000174703001307077FB70610F005078347FD
:104F2000F7FF23A0F6F01C40FD1717B60100232B56
:104F3000F658EDF7854717B701002325F758930773
:104F4000800717470300230FF77A25B163568001C6
:104F50009307D002E39EFBF297BC0100938C8C4632
:104F600013078002930580023DBD97460300938698
:104F70006679370610F0850603C7F6FF2320E6F0B2
:104F800018407D1797B5010023AEE5526DF709BBB8
:104F9000BE8DA94C014D4DB4B70710F023A0A7F268
:104FA00001A03971130341022ED29A8506CE32D464
:104FB00036D63AD83EDA42DC46DE1AC63532F24000
:104FC0000145216182805D711303810322D42AC6C9
:104FD00032DC2A841A86680006D6BEC236DEBAC023
:104FE000C2C4C6C61ACEEFF06FD4B2472380070002
:104FF0003245B250018D225461618280B70710F0B2
:1050000083A647F403A607F403A747F4E31AD7FEE1
:105010008566938606FAB29633B6C600B305E600F7
:1050200023A4D7F423A6B7F48280B70710F003A710
:1050300047F403A607F483A647F4E31AD7FE856670
:10504000938606FAB29633B6C60023A4D7F4B30506
:10505000E60023A6B7F49307000873A047308280C8
:10506000411122C406C629447D14312C75FCB2407E
:10507000224441018280411122C406C697B7010033
:105080009387C74417B401001304044498431C4099
:105090001306F07C930647069387470697B50100F1
:1050A00023A6D54297B5010023A0F5426346D6005A
:1050B000B2402244410182801307478997B701001B
:1050C00023A6E7401D2485476310F5021840856735
:1050D0009387F7760145E3DDE7FCEFF0FFEB224431
:1050E000B24041016FC03FEB17B501001305052E1B
:1050F000EFF03FEB0945EFF03FEA2244B2404101B7
:105100006FC07FE917B501001305C52D6FF07FE96A
:1051100017B501001305852D6FF0BFE8411122C4BA
:1051200026C206C6856417B401001304A42C938715
:1051300084380100FD17F5FF2285EFF09FE6C5BF1B
:10514000411106C622C4DD2017070000130787F1AE
:10515000814605469305200317B501001305052A6E
:10516000EFE05FA72A84EFC01FE52A86228522444C
:10517000B24001478146854541016FE05FB2411170
:1051800006C6A522054781476316E500B2403E8565
:105190004101828017B5010013054523EFF07FE040
:1051A000B24089473E85410182807370043001A07E
:1051B00082807370043001A0797122D426D24AD043
:1051C0004ECE52CC06D6014917B401001304443127
:1051D00097B901009389C93117BA0100130A0A303F
:1051E000854408408145EFC04FAA65DD81460146F0
:1051F0006C00EFB0DFC46306950097B7010023A9E8
:10520000072EB2476382270397B7010023A2072E18
:1052100083A70900E39797FC83270A00850717B740
:105220000100232DF72A75BF0509DDB7411101469D
:105230009145294506C622C4EFB08FDB17B40100A3
:105240001304442A08C02945EFC08F95AA87084057
:10525000BE8517B701002325F728EFC06F9C2244B5
:10526000B24081480148814701478146130600400A
:1052700097B501009385C51917050000130505F4BE
:1052800041016FC0CFA897B701009387E7249C43E3
:105290001307200385076367F70017B70100232D65
:1052A000F7228280411197B701009387A72306C692
:1052B00088438146014697B501009385A52197B79C
:1052C000010023AB0720EFB01F9A8547631CF50050
:1052D00097B70100938707209C43850717B7010004
:1052E000232AF71EB2404101828097B701009387BD
:1052F000E71E17B701001307A71D9C431843631649
:10530000F70017B701002325071E17B70100130781
:10531000271E084317B70100232CF71A8280AA958D
:10532000AA876385B70003C7070001E73385A74055
:1053300082808507FDB7814863DA05003305A04008
:10534000B337A000B305B0409D8DFD5863D906006A
:105350003306C040B337C000B306D0409D8E3288BC
:105360003683AA872E87639F061C97B60100938613
:1053700066F463F1C50C416E6377C60B130EF00F34
:105380006373CE002143335E6600F29603CE0600BF
:105390001A9E130300023303C341630C0300B39549
:1053A0006500335EC501331866003367BE00B3176E
:1053B0006500135E0801B355C70313150801418149
:1053C00093D607013376C703B305B5024206D18EE3
:1053D00063F8B600C29663E5060163F3B600C296B1
:1053E0008D8E33F7C603C207C183B3D6C603B30697
:1053F000D50213150701C98F63F8D700C29763E57B
:10540000070163F3D700C297958F33D567008145B5
:10541000638A0800B307A0403337F000B305B040FB
:105420003E85998D8280370E00014143E36DC6F5BC
:10543000614391BF01E605483358680241676373D1
:10544000E8081307F00F637307012143335768001F
:10545000BA9603C606001A96130300023303C3402C
:1054600063190306B3850541935608011315080116
:10547000418113D6070133F7D502B3D5D5024207D0
:10548000518FB305B5026378B70042976365070192
:105490006373B7004297B305B74033F7D502C2072D
:1054A000C183B3D5D502B305B50213150701C98F62
:1054B00063F8B700C29763E5070163F3B700C297CB
:1054C0008D8FA1B7370700014143E361E8F86143DD
:1054D000B5BF3318680033DEC500935E080133564C
:1054E000C500B31765003355DE03B39565004D8ED7
:1054F00093150801C181935606013377DE03338586
:10550000A5024207558F6378A7004297636507019C
:105510006373A7004297B306A74033F7D60342064A
:105520004182B3D6D6034207B386D502B365C7001E
:1055300063F8D500C29563E5050163F3D500C29514
:10554000958D1DB7E3E6D5EC416863F50605930E2E
:10555000F00F33B8DE000E0833DE060117B301008A
:10556000130343D57293834E0300130E0002C29EB1
:10557000330EDE4163170E0263E4B6006369C500B3
:10558000B307C540958D3335F5003387A5403E857B
:10559000BA85BDBD370300014148E3EF66FA6148B3
:1055A00065BF3357D601B396C601D98EB357D5011F
:1055B00033D7D501B395C501CD8F93D5060133738C
:1055C000B702139F0601135F0F0113D807013316AB
:1055D000C6013315C5013357B702420333680301CF
:1055E000B30FEF023A83637CF80136981303F7FF99
:1055F0006367D8006375F8011303E7FF3698330833
:10560000F841B37FB8023358B802C20FB3050F0395
:10561000139F0701135F0F0133EFEF014287637C94
:10562000BF00369F1307F8FF6367DF006375BF0095
:105630001307E8FF369F4203C16F3363E30093878C
:10564000FFFF13580601330FBF40B375F300135328
:105650000301F18F3387F502B307F302B385050326
:1056600033030303BE95135807012E986373F800A4
:105670007E93C167FD17935508013378F8004208FF
:105680007D8F9A9542976366BF00631BBF00637965
:10569000E5003306C7403337C700958D998D3287B3
:1056A0003307E5403335E500B305BF40898DB39737
:1056B000D5013357C70133E5E700B3D5C50189BB31
:1056C000AE87328836872A836396062097B8010012
:1056D000938848BE63FEC50A41676374E60A1307F0
:1056E000F00F3337C7000E07B356E600B69883C6EF
:1056F0000800369793060002998E99CAB397D7008F
:105700003357E5003318D600B365F7003313D500DF
:1057100013550801B3D7A502131608014182935609
:10572000030133F7A502B305F6024207D98E3E877F
:1057300063FCB600C2961387F7FF63E7060163F5C3
:10574000B6001387E7FFC2968D8EB3F7A602420319
:1057500013530301B3D6A602C20733E36700B305B0
:10576000D6023685637BB30042931385F6FF6366EA
:1057700003016374B3001385E6FF4207498F814537
:105780004DA8B70600014147E360D6F66147A9BFBF
:1057900001E6854633D8C602C166637ED808930603
:1057A000F00F63F306012147B356E800B69883C6AD
:1057B0000800BA9613070002158F49E7B38707411F
:1057C0008545135608019318080193D8080193568C
:1057D000030133F7C702B3D7C7024207D98E338517
:1057E000F8023E8763FCA600C2961387F7FF63E7C3
:1057F000060163F5A6001387E7FFC296898EB3F70B
:10580000C602420313530301B3D6C602C20733E3F1
:105810006700B388D8023685637B130142931385F2
:10582000F6FF63660301637413011385E6FF420705
:10583000498F3A858280B70600014147E366D8F672
:1058400061479DB73318E800B3D5D7003313E5009F
:10585000B356D50013550801B397E70033F7A502F7
:10586000B3E8F60093170801C18313D60801B3D536
:10587000A5024207518FB386B7022E86637CD700FC
:1058800042971386F5FF636707016375D700138698
:10589000E5FF4297B306D74033F7A602C20893D874
:1058A0000801B3D6A6024207B385D702B367170132
:1058B000368763FCB700C2971387F6FF63E70701DB
:1058C00063F5B7001387E6FFC2978D8F9315060126
:1058D000D98DC5BD63E2D514416763FEE6021308A6
:1058E000F00F3337D8000E0733D8E60097B5010024
:1058F0009385459CC29503C80500930500023A981C
:10590000B385054185E10547E3E5F6F23335C5008A
:105910001347150039BFB70500014147E3E6B6FC60
:105920006147D9B733570601B396B600D98E93DED7
:10593000060133D70701B378D703B397B7003358BD
:1059400005013363F80093970601C18313580301DF
:105950003316B6003357D703C20833E80801338F34
:10596000E7023A8E637CE8013698130EF7FF63670F
:10597000D8006375E801130EE7FF36983308E84155
:10598000B378D8033358D803C208B38E07039317EC
:105990000301C183B3E7F800428763FCD701B697E0
:1059A0001307F8FF63E7D70063F5D7011307E8FF94
:1059B000B697420EB387D741C16E3367EE001388A6
:1059C000FEFF3373070193580701337806014182C4
:1059D000330E03033388080393560E013303C302C7
:1059E00042939A96B388C80263F30601F69813D6D9
:1059F0000601B29863E01703E39317D9C167FD1757
:105A0000FD8EC206337EFE003315B500F296814549
:105A1000E371D5E27D17A5B38145014719BDB28871
:105A20003687AA872E886398061C97B6010093864E
:105A3000668863F8C50A4163637E66081303F00F46
:105A40006373C30021473353E6009A9603CE0600E2
:105A5000130300023A9E3303C341630C0300B39562
:105A60006500335EC501B31866003368BE00B31726
:105A7000650013D608013377C802139508014181E8
:105A800093D607013358C8024207D98E330805035D
:105A900063F80601C69663E5160163F30601C69630
:105AA000B386064133F7C602C207C183B3D6C60226
:105AB000B306D50213150701C98F63F8D700C6973F
:105AC00063E5170163F3D700C697958F33D5670059
:105AD00081458280370300014147E36666F66147EE
:105AE0009DB701E60546B3581603416663F3C8083F
:105AF0001306F00F63731601214733D6E800B29600
:105B000003CE0600130300023A9E3303C341631918
:105B10000306B385154113D7080113950801418188
:105B200013D60701B3F6E502B3D5E502C206D18E5E
:105B3000B305B50263F8B600C69663E5160163F3D4
:105B4000B600C696B385B640B3F6E502C207C18378
:105B5000B3D5E502B305B50213950601C98F63F805
:105B6000B700C69763E5170163F3B700C6978D8F3B
:105B7000B1BF370600014147E3E1C8F86147B5BF4F
:105B8000B398680033D7C501B3176500335EC5010C
:105B900013D50801B376A702B3956500336EBE0036
:105BA00093950801C18113560E013357A702C2060F
:105BB000D18E3387E50263F8E600C69663E51601E9
:105BC00063F3E600C6963386E640B376A602420E3D
:105BD000135E0E013356A602C2063386C502B3E534
:105BE000C60163F8C500C69563E5150163F3C500FA
:105BF000C695918D0DB7E3EED5EC416763F5E604EC
:105C0000930EF00F33B7DE000E0733D3E60097A8EC
:105C100001009388286A9A9883CE0800130E000228
:105C2000BA9E330EDE4163170E0263E4B600636969
:105C3000C500B307C540958D3335F5003388A540C1
:105C40003E85C28579B5B70800014147E3EF16FBF1
:105C5000614765BF3357D601B396C601D98EB35796
:105C6000D50133D7D501B395C501CD8F93D50601A5
:105C70003373B702139F0601135F0F0193D8070117
:105C80003316C6013315C5013357B7024203B36853
:105C900013013308EF023A8363FC0801B69813033B
:105CA000F7FF63E7D80063F508011303E7FFB69831
:105CB000B3880841B3FFB802B3D8B802C20FB30526
:105CC0001F03139F0701135F0F0133EFEF01468797
:105CD000637CBF00369F1387F8FF6367DF0063753F
:105CE000BF001387E8FF369F4203C1683363E300B8
:105CF0009387F8FF13580601330FBF40B375F300C5
:105D000013530301F18F3387F502B307F302B38511
:105D1000050333030303BE95135807012E986373DD
:105D2000F8004693C167FD17935508013378F800D2
:105D300042087D8F9A9542976366BF00631BBF0040
:105D40006379E5003306C7403337C700958D998DD9
:105D500032873307E5403335E500B305BF40898D11
:105D6000B397D5013357C70133E5E700B3D5C50174
:105D70008DB397A7010093876772944317A701001B
:105D8000130787701843C8C2637BE50017A701009B
:105D90001307477008438C4391056FA06FFA4111B8
:105DA00022C406C617A701001307076F2A840843F9
:105DB0008C439105EFA0CFF897A701009387076B5D
:105DC0009C436376F40097A7010023A1876AB24041
:105DD00022444101828097A701009387276C984352
:105DE00094437C43FD177CC3FC4299E37360043009
:105DF0008280011122CC26CA2A84AE844AC84EC6AB
:105E000052C456C206CEEFC00F9A1C4003290401AB
:105E1000B7090001B3E59700930AC4000CC08144A0
:105E2000FD19370A00021840638C2A030326090073
:105E30004A85B3654701B376360193175600758FCF
:105E40000329490063C4070001E7F1BFE39DE6FCB5
:105E50009317760063D30700D58CEFD0AF83E1B7FB
:105E600093C4F4FFF98C04C0EFC0EFB80840F240CF
:105E70006244D2444249B249224A924A0561828030
:105E8000411106C622C4EFF0AFAB17F7FFFF1307AF
:105E9000C71E814605469305400617A50100130558
:105EA0006556EFD03FD319C92A84EFC0CF902A8618
:105EB0000147814685452285EFD07FDEEFB03FE97F
:0A5EC000B2402244014541018280F6
:02000004800278
:100000005E47FEFF5C48FEFF6647FEFF5C48FEFF62
:100010005C48FEFF5C48FEFF5C48FEFF7E47FEFF3B
:100020005C48FEFF5C48FEFF9847FEFFA447FEFFCA
:100030005C48FEFFB647FEFFC247FEFFC247FEFF19
:10004000C247FEFFC247FEFFC247FEFFC247FEFF98
:10005000C247FEFFC247FEFFC247FEFF5C48FEFFED
:100060005C48FEFF5C48FEFF5C48FEFF5C48FEFF0C
:100070005C48FEFF5C48FEFF5C48FEFF5C48FEFFFC
:100080005C48FEFF5C48FEFF5C48FEFF5C48FEFFEC
:100090005C48FEFF5C48FEFF5C48FEFF5C48FEFFDC
:1000A0005C48FEFF5C48FEFF5C48FEFF5C48FEFFCC
:1000B0005C48FEFF5C48FEFF5C48FEFF5C48FEFFBC
:1000C0005C48FEFF5C48FEFF5C48FEFF5C48FEFFAC
:1000D0005C48FEFF5C48FEFF5C48FEFF5C48FEFF9C
:1000E0005C48FEFF5C48FEFF5C48FEFF5C48FEFF8C
:1000F0005C48FEFF5C48FEFF5C48FEFF5C48FEFF7C
:10010000F647FEFF0C48FEFF5C48FEFF5C48FEFF22
:100110005C48FEFF5C48FEFF5C48FEFF5C48FEFF5B
:100120005C48FEFF5248FEFF5C48FEFF5C48FEFF55
:100130000446FEFFBC46FEFF5C48FEFF5C48FEFF37
:10014000F246FEFF5C48FEFF4A47FEFF5C48FEFFAA
:100150005C48FEFF7847FEFF6A4BFEFFBE4BFEFF8A
:10016000724BFEFFBE4BFEFFBE4BFEFFBE4BFEFFC3
:10017000BE4BFEFF644AFEFFBE4BFEFFBE4BFEFFC2
:100180007E4AFEFF8A4AFEFFBE4BFEFF9C4AFEFFF0
:10019000A84AFEFFA84AFEFFA84AFEFFA84AFEFFA3
:1001A000A84AFEFFA84AFEFFA84AFEFFA84AFEFF93
:1001B000A84AFEFFBE4BFEFFBE4BFEFFBE4BFEFF3E
:1001C000BE4BFEFFBE4BFEFFBE4BFEFFBE4BFEFF17
:1001D000BE4BFEFFBE4BFEFFBE4BFEFFBE4BFEFF07
:1001E000BE4BFEFFBE4BFEFFBE4BFEFFBE4BFEFFF7
:1001F000BE4BFEFFBE4BFEFFBE4BFEFFBE4BFEFFE7
:10020000BE4BFEFFBE4BFEFFBE4BFEFFBE4BFEFFD6
:10021000BE4BFEFFBE4BFEFFBE4BFEFFBE4BFEFFC6
:10022000BE4BFEFFBE4BFEFFBE4BFEFFBE4BFEFFB6
:10023000BE4BFEFFBE4BFEFFBE4BFEFFBE4BFEFFA6
:10024000BE4BFEFFBE4BFEFFBE4BFEFFBE4BFEFF96
:10025000BE4BFEFFBE4BFEFFDC4AFEFF0A4BFEFF1D
:10026000BE4BFEFFBE4BFEFFBE4BFEFFBE4BFEFF76
:10027000BE4BFEFFBE4BFEFFBE4BFEFF604BFEFFC4
:10028000BE4BFEFFBE4BFEFFC248FEFFBC49FEFF59
:10029000BE4BFEFFBE4BFEFF2E4AFEFFBE4BFEFFD7
:1002A000544AFEFFBE4BFEFFBE4BFEFFB84BFEFFA7
:1002B000000102020303030304040404040404040D
:1002C00005050505050505050505050505050505DE
:1002D00006060606060606060606060606060606BE
:1002E00006060606060606060606060606060606AE
:1002F000070707070707070707070707070707078E
:10030000070707070707070707070707070707077D
:10031000070707070707070707070707070707076D
:10032000070707070707070707070707070707075D
:10033000080808080808080808080808080808083D
:10034000080808080808080808080808080808082D
:10035000080808080808080808080808080808081D
:10036000080808080808080808080808080808080D
:1003700008080808080808080808080808080808FD
:1003800008080808080808080808080808080808ED
:1003900008080808080808080808080808080808DD
:1003A00008080808080808080808080808080808CD
:1003B000546D725100000000546D7220537663003A
:1003C000286E756C6C2900004572726F7220696E20
:1003D00020787878207461736B73200D0A00000018
:1003E0006D69616F750A00006D69616F75320A0091
:1003F00068756E6772790A0054696D657232000023
:10040000436865636B54696D657200005365745091
:040410006F6C6C00A1
:100414001000000000000000017A5200017C01017C
:100424001B0D02001000000018000000064FFEFF24
:100434008A03000000000000100000002C000000EF
:100444007C52FEFF5E03000000000000100000006C
:1004540040000000C655FEFF5403000000000000E9
:0C04E400FC8F0100090000000100000076
:040000058000004037
:00000001FF
