:0200000480007A
:10000000B72F0000938F0F8073900F3015A8130047
:100010000000130000001300000013000000130094
:100020000000130000001300000013000000130084
:100030000000130000001300000013000000010086
:10004000970200009382020C73905230814001416C
:100050008141014281420143814301448144014580
:100060008145014681460147814701488148014950
:100070008149014A814A014B814B014C814C014D20
:10008000814D014E814E014F814F971102009381A6
:1000900061C8170502001305E54A9795030093858B
:1000A000257201461122170502001305E53E97054A
:1000B00002009385E5450146C52817A503001305F1
:1000C000657097B503009385A56F37B6ABAB130684
:1000D000B6BAD92817B103001301C16EEF503040F2
:1000E000860293D21200F512638802008242110147
:1000F0006F00001073002030824211017300203025
:10010000711116C0F3222034E3CC02FC82421101AB
:10011000130141F806C20AC40EC612C816CA1ACC88
:100120001ECE22D026D22AD42ED632D836DA3ADCC7
:100130003EDEC2C0C6C2CAC4CEC6D2C8D6CADACC97
:10014000DECEE2D0E6D2EAD4EED6F2D8F6DAFADCA7
:10015000FEDE73252034F32510340A8601A07310C7
:10016000153492402241B2414242D2426243F243AC
:10017000025492542255B2554256D2566257F25703
:10018000064896482649B649464AD64A664BF64B33
:10019000065C965C265DB65D465ED65E665FF65F83
:1001A0001301C1077300203010C16374B50011053D
:1001B000E5BF828000000000000000000000000099
:1001C000000000000000000000000000000000002F
:1001D000000000000000000000000000000000001F
:1001E000000000000000000000000000000000000F
:1001F000197106C00AC20EC412C616C81ACA1ECC8D
:1002000022CE26D02AD22ED432D636D83ADA3EDCC6
:1002100042DEC6C0CAC2CEC4D2C6D6C8DACADECC96
:10022000E2CEE6D0EAD2EED4F2D6F6D8FADAFEDCA6
:100230009702020083A2822923A02200F322103415
:1002400096DEEF00002B1701020003212128024156
:10025000F65273901234B72200009382028873A082
:10026000023082403242C2425243E24372448254DC
:100270001255A2553256C2565257E2577258864806
:100280001649A649364AC64A564BE64B764C865C1A
:10029000165DA65D365EC65E565FE65F0961730059
:1002A0002030970202009382E22923A0120023A2A9
:1002B000220023A4320023A6420023A8520023AA2E
:1002C000620023AC720023AE820023A0920223A21C
:1002D000A20223A4B20223A6C20223A8D20223AA06
:1002E000E20223ACF20223AE020323A0120523A2F2
:1002F000220523A4320523A6420523A8520523AADA
:10030000620523AC720523AE820523A0920723A2C7
:10031000A20723A4B20723A6C20723A8D20723AAB1
:10032000E20723ACF207EF40B025170102000321DA
:10033000E1190241F65273901234B7220000938201
:10034000028873A0023082403242C2425243E243EA
:10035000724482541255A2553256C2565257E25731
:10036000725886481649A649364AC64A564BE64B45
:10037000764C865C165DA65D365EC65E565FE65FB1
:10038000096173002030970202009382A21B83A0B0
:10039000020003A1420083A1820003A2C20083A243
:1003A000020103A3420183A3820103A4C20183A427
:1003B000020203A5420283A5820203A6C20283A60B
:1003C000020303A7420383A7820303A8C20383A8EF
:1003D000020403A9420483A9820403AAC20483AAD3
:1003E000020503AB420583AB820503ACC20583ACB7
:1003F000020603AD420683AD820603AEC20683AE9B
:10040000020703AFC20983AF820782807370043092
:10041000197106C00AC20EC412C616C81ACA1ECC6A
:1004200022CE26D02AD22ED432D636D83ADA3EDCA4
:1004300042DEC6C0CAC2CEC4D2C6D6C8DACADECC74
:10044000E2CEE6D0EAD2EED4F2D6F6D8FADAFEDC84
:100450009702020083A2820723A0220086DEEF20FB
:10046000402D17010200032161060241F6527390EC
:100470001234B72200009382028873A002308240B7
:100480003242C2425243E243724482541255A25550
:100490003256C2565257E257725886481649A649F4
:1004A000364AC64A564BE64B764C865C165DA65DD0
:1004B000365EC65E565FE65F09617300203073707A
:1004C000043001A07310453082807325403073F0F2
:1004D00043308280970700009387A7FE232EB5FE46
:1004E0002322C5FA232635F82320F5F8130505F84D
:1004F0008280411106C6EF40D005EF10700901E57A
:10050000B24041018280B24041016F2080229307B6
:1005100085007D575CC118C55CC51CC9232005003A
:1005200082802328050082805C41DCC1984798C501
:1005300098474CC38CC788C91C4185071CC1828061
:100540009041FD57130785006314F60039A83E87D4
:100550005C439443E37DD6FEDCC18CC798C54CC395
:1005600088C91C4185071CC1828018495C43EDB7CE
:10057000584114451C4914C71845544154C3D84325
:100580006314A7001845D8C32328050088437D15A8
:1005900088C382803041AE8701CE4C455841B29528
:1005A0004CC563E4E5000C414CC53E856F30101F1F
:1005B0008280411122C406C62A8426C2EF209010F0
:1005C0003C44635BF0025C5085CB9304440209A871
:1005D0003C44FD173CC43C446350F0025C5089CF5E
:1005E0002685EF20A0566DD5EF2080763C44FD1780
:1005F0003CC43C44E344F0FEFD573CC4EF20D00E25
:10060000EF20500C7C40635BF0021C4885CB9304C8
:10061000040109A87C40FD177CC07C406350F002B7
:100620001C4889CF2685EF2060526DD5EF2040729F
:100630007C40FD177CC07C40E344F0FEFD577CC04D
:100640002244B240924441016F20100A29C5411151
:1006500022C426C22A8406C6AE84EF20B0063440E7
:100660005C5C1840232C0402B387F6027D5670C0F0
:1006700018C430C4B386D740BA9736975CC058C404
:1006800091EC1C489DE3EF203006B2402244924496
:100690000545410182807370043001A013050401F7
:1006A000BD3513054402A535F9BF13050401EF203C
:1006B000E0498547E319F5FC913BF1B701E573701B
:1006C000043001A0011126CA4AC84EC606CE22CC6B
:1006D000B2892E89AA84A5C53305B502130555052F
:1006E000EF3080732A8435C1930745051CC144DC73
:1006F00023202405EF20007D34405C5C18407D56AB
:10070000B387F602232C040270C018C430C413054A
:100710000401B386D740BA9736975CC058C4C53B2E
:1007200013054402ED33EF20207C23083405228595
:10073000F2406244D2444249B249056182801305C5
:100740004005EF30606D2A8401E57370043001A02C
:1007500000C071BF01E57370043001A06375B5007E
:100760007370043001A0411122C409462E848145D2
:1007700006C6A93711C500DDB2402244410182807E
:100780007370043001A05D7186C6A2C4A6C2CAC03F
:100790004EDE52DC56DA5AD85ED632C6630A051CE3
:1007A0006382051C89476399F600585D8547630598
:1007B000F7007370043001A03689AE842A84EF20DC
:1007C000A05B11E5B24781C77370043001A0EF2030
:1007D000606F185C5C5C014B894BFD59130A040186
:1007E000930A44026365F70C63077919B247638182
:1007F000072463150B002808EF206048EF20C06E27
:10080000EF10C04FEF20006C7C406394370123222F
:1008100004043C446394370123240404EF20C06C97
:100820006C002808EF20C047631E051EEF2080697A
:10083000185C5C5C630CF70AEF20006BEF208068AB
:100840003C44634FF00039A85685EF20203019C191
:10085000EF2000503C44FD173CC43C446354F0007E
:100860005C50FDF323243405EF200068EF20806501
:100870007C40634FF00039A85285EF20202D19C12C
:10088000EF20004D7C40FD177CC07C406354F0009D
:100890001C48FDF323223405EF200065EF10006BA8
:1008A000054BEF202062185C5C5CE37FF7F2304080
:1008B0006305060C631F09120844A685EF30006E1D
:1008C0001C4434405840B6971CC463EAE70A1C5CD9
:1008D00014405850850714C41CDC5DC7130544023E
:1008E000EF20C02685476311F50AC9A8EF20C05F35
:1008F000B2455285EF204007EF20C05C3C44634F77
:10090000F00039A85685EF20602419C1EF2040443B
:100910003C44FD173CC43C446354F0005C50FDF380
:1009200023243405EF20405CEF20C0597C40634F06
:10093000F00039A85285EF20602119C1EF20404115
:100940007C40FD177CC07C406354F0001C48FDF3E4
:1009500023223405EF204059EF10405F31F17D3400
:10096000054B81B73C41E38F07E27370043001A06F
:100970007370043001A0304021E61C4085C71C5C28
:10098000585085071CDC39FBEF2000560545B64062
:10099000264496440649F259625AD25A425BB25BE7
:1009A000616182804840EF2040491C5C58502322FE
:1009B000040085071CDCE31307F279D5813CE9B715
:1009C0004844A685EF30805D3C4058441440B3074E
:1009D000F0403E9758C4637CD7025840BA975CC435
:1009E00009475C506306E902185C050718DCC9DF9B
:1009F000F5B54844A685EF30605A3C405844144051
:100A0000B307F0403E9758C4E37CD7FCF9B75C507D
:100A1000185C79DB185C7D1718DC185C050718DC9E
:100A2000A5D76DBD22857136EF104052014585B7BF
:100A3000EF20804B0145A1BF411126C2AA841305B6
:100A4000400522C406C6EF30203D2A8415CD232C54
:100A50000502FD577CC10547410558DC3CC42322F3
:100A60000400232004002324040023260400232060
:100A7000040423089404613C13054402493C814664
:100A800001468145228501332285B24022449244A9
:100A9000410182800DC5411122C426C206C64AC04A
:100AA000032945002A84EF20602C8144630CA900AF
:100AB000B2402244268502499244410182807370EB
:100AC000043001A05C448544FD175CC4F5F3814605
:100AD0000146814522854539E1BF31CDA1C90111CA
:100AE00022CC26CA4AC852C406CE4EC68947B6840E
:100AF00032892E8A2A846399F600585D8547630FF0
:100B0000F7047370043001A0C932185C5C5CAA89D8
:100B10006366F70281444E857532F2406244268551
:100B20004249D244B249224A056182803C41C5DB38
:100B30007370043001A07370043001A0304041E2B2
:100B40001C40D5CB1C5C7D5785071CDC3C4463876F
:100B5000E7083C44854485073CC475BFBD32185C3A
:100B60005C5CAA89636DF702304079DA4844D2852B
:100B7000EF30C0423C4058441440B307F0403E9729
:100B800058C46375D7005840BA975CC48947E39B43
:100B9000F4FA1C5CC5DB1C5CFD171CDC65B730403F
:100BA00045D24844D285EF30603F3C405844144021
:100BB000B307F0403E9758C4E367D7FCD9BFDDF4D4
:100BC0000844D285EF30803D1C4434405840B697ED
:100BD0001CC4E3E9E7F61C401CC4ADB75C50854477
:100BE0009DDB13054402EF10707615D5E30509F27D
:100BF000232099000DB74840EF2020242322040031
:100C000091B721CD3C4181C77370043001A01C41D4
:100C1000A1CB011122CC26CA2A844AC84EC606CED0
:100C20002E896530185C5C5CAA898144637DF7007D
:100C30001C5C7D5785071CDC3C446388E7023C4410
:100C4000854485073CC44E85B538F240624426850C
:100C50004249D244B249056182807370043001A0D8
:100C60005C41C5DB7370043001A05C5099E385449E
:100C7000D9BF13054402EF10706D75D9E30909FE61
:100C800085472320F900E5B7397106DE22DC26DA34
:100C90004AD84ED652D456D232C66302051C638A55
:100CA000051AB68AAE892A84EF20000D11E5B247F5
:100CB00081C77370043001A0EF20C0201C5C6392D8
:100CC0000714B247638E070A2808EF10507BFD54C3
:100CD00013094402130A0401EF200021EF1000025F
:100CE000EF20401E7C4063949700232204043C4480
:100CF0006394970023240404EF20001F6C0028084D
:100D0000EF10107A63130518EF20C01B1C5CADCFE9
:100D1000EF20801DEF20001B3C44634FF00039A8FA
:100D20004A85EF10B06219C1EF2080023C44FD17E4
:100D30003CC43C446354F0005C50FDF324C4EF20F9
:100D4000A01AEF2020187C40634FF00039A852858C
:100D5000EF10D05F19C1EF10B07F7C40FD177CC051
:100D60007C406354F0001C48FDF364C0EF20C017C2
:100D7000EF10C01DEF2000151C5CC1E7B247A9FFB2
:100D8000EF208016014555A0EF2000161C40DDC75E
:100D9000B2454A85EF10503DEF20C0123C44634FEE
:100DA000F00039A84A85EF10705A19C1EF10507A37
:100DB0003C44FD173CC43C446354F0005C50FDF3DC
:100DC00024C4EF206012EF20E00F7C40634FF0005E
:100DD00039A85285EF10905719C1EF1070777C40F9
:100DE000FD177CC07C406354F0001C48FDF364C0D8
:100DF000EF20800FEF10801531C9EF20A00C1C5C94
:100E0000B5DFCE8522854444EFF0CFF8639C0A0419
:100E10001C5C1840FD171CDC01E7EF20601148C086
:100E20001C48A1EFEF20400C0545F2506254D2540B
:100E30004259B259225A925A21618280EF20800889
:100E40004840EF107075EF20200A99B7EFF00FDCE3
:100E50006DB73C41E38707E47370043001A0737001
:100E6000043001A05C5044C4D5DF13054402EF10E8
:100E7000F04D4DD9EFF08FD975B713050401EF1080
:100E8000F04C8547E310F5FAF5B72285EFF06FF2E5
:100E9000EF10C00B014551BF1DC9411122C44AC00A
:100EA00006C626C244412E892A84EF10306C638323
:100EB000A40281464A8681452285F933854763002D
:100EC000F502B2402244924402494101828073708B
:100ED000043001A05C44054585075CC4DDB75C4473
:100EE00085075CC4F9BF15CDADC9011122CC26CA56
:100EF0004AC84EC652C42A8406CE3289AE89EFF063
:100F0000CFDC1C5C2A8A814485E35285EFF08FDBBD
:100F1000F240624426854249D244B249224A0561E0
:100F200082807370043001A0304001CE4C445C409C
:100F3000B2954CC463E4F5000C404CC44E85EF30D0
:100F4000E0051C5C7D57FD171CDC7C40638CE700D2
:100F50007C40854485077CC04DBF3C41D9D7737028
:100F6000043001A01C4899E3854445B713050401EA
:100F7000EF10D03D75D9E30909FE85472320F9001C
:100F8000E5B721C93C41A1CDA1CB011122CC26CA94
:100F90004AC852C42A8406CE4EC62E8AEFF0EFD23B
:100FA0001C5C2A89814491CB8329C400D285228587
:100FB000EFF04FDE8544232634014A85EFF08FD0D1
:100FC000F240624426854249D244B249224A056130
:100FD00082807370043001A07370043001A0EDDFD3
:100FE0007370043001A001E57370043001A0411159
:100FF00022C42A8406C6EF10F06C005CEF10D06E9D
:10100000B240228522444101828001E573700430A0
:1010100001A0411106C622C42A84EF10B06A1C5CEC
:10102000405C1D8CEF10506C2285B240224441017F
:10103000828019C1085D82807370043001A01DCDCB
:101040009787030093870774D843630CE502D8475A
:10105000630CE504D84B6307E504D84F6302E5044D
:10106000D853630DE502D8576308E502D85B6303E4
:10107000E502D85F630EE5006F20306C73700430BA
:1010800001A001470E07BA9723A007006F20F06A5E
:101090001D47CDBF1947FDB71547EDB71147DDB760
:1010A0000D47CDB70947F9BF0547E9BF68458280BD
:1010B0006CC5828003450505828009C5085D13352E
:1010C000150082807370043001A019C51C5D485D55
:1010D0001D8D1335150082807370043001A0978731
:1010E00003009387276A984305C3984705C7984B21
:1010F00005C7984F05C7985305C7985705C7985B0C
:1011000015C7985F15C3828001470E07BA978CC335
:10111000C8C382800547D5BF0947C5BF0D47F5B78E
:101120001147E5B71547D5B71D47C5B71947F1BFF3
:101130009787030093870765D8436308E502D8477C
:10114000630BE502D84B630AE502D84F6309E50259
:10115000D8536308E502D8576307E502D85B6308F4
:10116000E502D85F6303A702828001470E07BA97A2
:1011700023A0070082800547D5BF0947C5BF0D479B
:10118000F5B71147E5B71547D5B71D47C5B7194797
:10119000F1BF411122C426C24AC02A8406C6AE84C9
:1011A0003289EF1030527840FD576314F700232244
:1011B00004043844FD576314F70023240404EF109B
:1011C000B0521C5C99E74A86A68513054402EF10CD
:1011D000B00CEF10304F3C44635BF0025C5085CBA9
:1011E0009304440209A83C44FD173CC43C446350AA
:1011F000F0025C5089CF2685EF1050156DD5EF10A9
:1012000030353C44FD173CC43C44E344F0FEFD57FC
:101210003CC4EF10704DEF10F04A7C40635BF0026D
:101220001C4885CB9304040109A87C40FD177CC0B1
:101230007C406350F0021C4889CF2685EF101011C6
:101240006DD5EF10F0307C40FD177CC07C40E3444E
:10125000F0FEFD577CC02244B24092440249410155
:101260006F10904805C579714ECE52CC06D63E8A95
:1012700022D426D24AD056CA5AC85EC662C4A547EE
:10128000BA8963F8E7007370043001A0737004300A
:1012900001A0AA8AAE843289B68B428B63090822E8
:1012A00013050006EF2050372A84630D05200A0934
:1012B000232865034A869305500A5A85EF20105C5F
:1012C00003C704001C587119230AE40203C7040071
:1012D0003E991379C9FF79C783C71400A30AF402A2
:1012E00083C71400E1C383C72400230BF40283C720
:1012F0002400CDCB83C73400A30BF40283C7340092
:10130000D5C383C74400230CF40283C74400D9CB60
:1013100083C75400A30CF40283C75400C1C783C71A
:101320006400230DF40283C76400ADCF83C774004B
:10133000A30DF40283C77400B5C783C78400230ECE
:10134000F40283C78400B9CF83C79400A30EF402CC
:1013500083C79400A1CB83C7A400230FF40283C7E3
:10136000A400A9C383C7B400A30FF40283C7B400C9
:1013700095CB83C7C4002300F40483C7C4009DC376
:1013800083C7D400A300F40483C7D40081CF83C7EC
:10139000E4002301F40483C7E40089C783C7F40091
:1013A000A301F404130B44005A85A301040423266B
:1013B000340323283405232A0404EFF08F96130501
:1013C0008401EFF00F96A947B3873741232C04041B
:1013D00000C81CCC40D023220404232E04045E86C3
:1013E000D6854A85EFF00F8F08C063040A002320DA
:1013F0008A007370043017F901001309690B832701
:10140000090097F401009384640C91C798409C40B4
:101410007C4385077CC317F701001307270A1C4389
:10142000850797F6010023ABF6089C40D5CB8327B0
:10143000090017FA0100130AAA1889EB9C40DC572F
:1014400063E6F90097F7010023A2870897F70100E8
:1014500093870705984397F601009386A6055C5489
:101460009442050717F60100232CE60238C463F600
:10147000F60017F70100232FF7025147B387E70261
:10148000DA853305FA00EFF02F8A8327090081C738
:101490009C40FC43BDE383270900054499C79C4059
:1014A000DC5763F43701EFE07FF62285B250225417
:1014B00092540259F249624AD24A424BB24B224CF0
:1014C000456182805A85EF2050277D54F9BF13155E
:1014D0002600EF2070142A8BE31405DC7D54F1B74D
:1014E00097F7010023A487FE184385476301F7029D
:1014F00017FA0100130ACA0C91BF984094407C432C
:10150000FD177CC3FC42C1FB7360043069B7814A9C
:1015100017FA0100130ACA0A514CA94B33858A03F2
:10152000850A5295EFE0BFFEE39A7AFF97FB010030
:10153000938B8B155E85EFE09FFD97FA0100938AF0
:10154000EA155685EFE0BFFC17F5010013054516B7
:10155000EFE0FFFB17F501001305C516EFE03FFBB9
:1015600017F5010013054517EFE07FFA97F7010023
:1015700023AC77F597F7010023A657F5C1BD4111BC
:1015800022C406C626C24AC02A847370043097F467
:1015900001009384E4F19C40F9E311E497F7010022
:1015A0009387C7F28043130944004A85EFE05FFC4C
:1015B0001C5489C713058401EFE09FFBCA8517F50A
:1015C000010013052510EFE03FF697F70100938720
:1015D00027EF984397F70100938787EC9C43050713
:1015E00097F6010023AEE6EC9840850797F60100D8
:1015F00023A8F6EA01CB97F70100938727ED9843DC
:10160000784349EF9C40B1C797F70100938707ECF7
:101610009843630F870873700430984039EB17F7CD
:101620000100130767EA14439442A5E27D5797F639
:10163000010023A5E6E6984009CF9843784311CBF3
:10164000984394437C43FD177CC3FC4299E3736049
:101650000430B2402244924402494101828097F70B
:1016600001009387A7E698439C437C4385077CC38E
:101670002DB794439843F8420507F8C217F70100C5
:10168000130787E414439442D5D218435847584768
:10169000584397F6010023A3E6E071BF98439443B3
:1016A0007C43FD177CC3FC42B1FF7360043099BFDB
:1016B00097F70100938747DE9C4381C7737004301E
:1016C00001A02244B2409244024941016FE01FD47C
:1016D00041C517F70100130767DF14438147638B88
:1016E000A606411106C622C426C27370043097F6BE
:1016F00001009386E6DB9C4291C710431C437C4269
:1017000085077CC29C42AA84404981C71C43FC4394
:10171000B9E797F70100938727DB9C43638B870426
:1017200097F70100938707DA9C436384870497F750
:101730000100938767FA6309F40297F70100938722
:1017400067F86301F4028547B240224492443E8523
:10175000410182803E8582807370043001A0EF4099
:10176000604D45BF9147CDB79C5493B7170089078B
:10177000E1BF8947D1BF7370043097F701009387A9
:1017800027D3984309EF15C59C43485581CB97F75C
:1017900001009387A7D39843784315E3828017F716
:1017A00001001307A7D214431843F8420507F8C2F3
:1017B00061FD17F70100130767D10843F1B798439C
:1017C00094437C43FD177CC3FC42E9FB7360043007
:1017D0008280411122C42A8406C6EFE01FCF11E4A3
:1017E00097F70100938787CE80434054EFE09FCD69
:1017F000B2402285224441018280A54763F5B700AB
:101800007370043001A0011122CC06CE26CA4AC84A
:101810004EC652C42A847370043017F901001309AC
:1018200029C983270900D5EF79C43C486389F508A5
:1018300017F70100130787C963FCB7001443638DD2
:10184000860C18434457B3B4950093C4140029A0E0
:101850000443818C93B4140058546384E70A1C4CED
:101860002CC863C60700A947B385B7400CCC9317B3
:101870002700BA97584897F90100938969D48A07D5
:10188000CE97631BF702130A44005285EFE05FCE48
:1018900017F70100130707C25C5418436376F7007B
:1018A00017F701002328F7C05147B387E702D28515
:1018B0003385F900EFE05FC799C0EFE03FB58327BC
:1018C000090081CB97F70100938747C09C43FC43F5
:1018D0009DEBF2406244D2444249B249224A05613A
:1018E000828097F70100938767BE98439C437C43AF
:1018F00085077CC31DF897F70100938727BD8043B8
:101900002DB74CD4A9BF6244F240D2444249B249F7
:10191000224A05616F40003281443DBF25C101115B
:1019200026CA97F40100938464BA9C4006CE22CC68
:101930004AC84EC6638DA7027370043017F90100C0
:10194000130909B78327090091C798409C407C433D
:1019500085077CC3584997F701009387E7D763024F
:10196000F7028327090081C79C40FC43A5EBF240A6
:101970006244D2444249B2490561828073700430A6
:1019800001A01C5517F70100130787D2E38BE7FC72
:10199000E9FB930945002A844E85EFE07FBD17F7E8
:1019A0000100130727B15C5418436376F70017F75B
:1019B00001002321F7B05147B387E70217F5010073
:1019C000130505C0CE853E95EFE01FB69C405854E8
:1019D000DC57E368F7F8EFE07FA361B76244F240B9
:1019E000D2444249B24905616F40C02415CD01116E
:1019F00022CC26CA4AC82A8406CE4EC6EFE0FFACE7
:101A0000584897F70100938727CD2A8981446300BE
:101A1000F7024A85EFE01FABF24062442685424957
:101A2000D244B249056182807370043001A01C5415
:101A300017F501001305C5C7E38DA7FCF9FB97F760
:101A40000100938767A59C43A9EB97F70100938753
:101A5000E7A79C43445493094400DC574E85B3B434
:101A6000F400EFE0FFB017F701001307A7A45C54E0
:101A7000184393C414006376F70017F70100232B73
:101A8000F7A25147B387E70217F50100130545B3E5
:101A9000CE853E95EFE05FA9ADBF93058401EFE0F1
:101AA000BFA885BF0111056506CE22CC26CA4AC84B
:101AB0004EC652C456C25AC0EF200036630E051AF5
:101AC000AA8413050006EF2020352A84630A051C2A
:101AD00005669305500A04D92685EF20205A04583C
:101AE0008567F117BE94B7474C4593879744130A0F
:101AF00044005CD85285230C0402A301040423266D
:101B0000040223280404232A0404EFE09FA1130500
:101B10008401EFE01FA1A947232C0404F19800C819
:101B20001CCC40D023220404232E04040146971524
:101B300000009385E5B12685EFE0DF9908C073705A
:101B4000043017F901001309A9968327090097F4B7
:101B500001009384A49791C798409C407C438507DB
:101B60007CC317F70100130767951C43850797F699
:101B7000010023A5F6949C40C9C38327090097F967
:101B800001009389E9A381EB9C40DC5789E797F733
:101B9000010023AD879297F70100938767909843E0
:101BA00097F60100938606915C549442050717F658
:101BB00001002327E68E38C463F6F60017F701000C
:101BC000232AF78E139527003E950A05D2854E9558
:101BD000EFE09F958327090081C79C40FC43DDE728
:101BE0008327090091C39C40EF1070498547630526
:101BF000F50C59E17370043001A097F7010023A799
:101C0000878C1843854797F901009389699BE314F2
:101C1000F7F8CE8A17FB0100130B0BA75685D10AE4
:101C2000EFE0FF8EE31C5BFF17F501001305C5A570
:101C3000EFE0FF8D97FA0100938A4AA65685EFE000
:101C40001F8D17F501001305A5A6EFE05F8C17F5B2
:101C50000100130525A7EFE09F8B17F50100130581
:101C6000A5A7EFE0DF8A97F7010023AF678597F715
:101C7000010023A9578505B7F2406244D244424986
:101C8000B249224A924A024B0561828098409440B0
:101C90007C43FD177CC3FC42A1F77360043089B715
:101CA0006244F2404249B249224A924A024B268596
:101CB000D24405616F20602873700430FD5717E728
:101CC0000100232DF77C624497E7010023A2A77E41
:101CD000F240D2444249B249224A924A024B97E723
:101CE000010023AB077C05616FE0AFDB737004304C
:101CF00097E7010023AE077A6FE0EFE817E70100EE
:101D0000130787791C4385071CC3828073700430D6
:101D100097E701009387C779984305E317E7010028
:101D20001307877908439C4381CB97E7010093878A
:101D3000E7799843784301EF828017E701001307A2
:101D4000E77814431843F8420507F8C2C1BF984327
:101D500094437C43FD177CC3FC42F9FF736004305D
:101D60008280411106C622C4EFE02FF697E70100FA
:101D7000938787748043EFE0EFF4B24022852244DA
:101D80004101828097E701009387477388438280EF
:101D9000797106D622D426D24AD04ECE52CC56CA1B
:101DA0005AC85EC697E701009387076F9C43B1EF5F
:101DB00017E70100130747701C43850797E60100EA
:101DC00023ACF66E832A0700638F0A0697E70100AB
:101DD0009387C76C9C43814463F1FA0897E901003B
:101DE0009389097E17EA0100130A4A6E83270A00C5
:101DF0008546D85793172700BA978A07BE9983A7B5
:101E0000090063FFF600854421A897E70100938746
:101E1000E7699C438144850717E701002328F76899
:101E200097E70100938747689C4391C38544B2506C
:101E30002254268502599254F249624AD24A424BB0
:101E4000B24B4561828017E401001304E4671C4033
:101E50009C43DDC37370043001A017E40100130438
:101E6000A46697E901009389A97517EA0100130A8E
:101E7000EA6517EB0100130BEB631C409C43B5C3F1
:101E80001C40DC4703A9C70083274900930B490086
:101E90005E8563EEFA04EFE0AFED83278902130558
:101EA000890199C3EFE0CFEC8327C90203270B0018
:101EB000DE85139527003E950A054E956376F7005B
:101EC00017E701002328F75EEFE00FE683270A00FB
:101ED0000327C902DC57E362F7FA1C4085449C43A0
:101EE000C5F3FD5717E70100232AF75A01B717E793
:101EF00001002325F75ADDBD17E701001307875CB2
:101F00001C40184397E6010023A0E65C17E7010098
:101F1000232AF75A97E701009387C7589C43850700
:101F200017E701002320F7581C409C4399E7FD5711
:101F300017E701002324F75651BD1C40DC47DC475E
:101F4000DC4317E70100232BF75449B597E701005D
:101F500093878754984301E77370043001A00111FF
:101F600006CE22CC26CA4AC84EC652C456C25AC051
:101F70007370043097E4010093848453984061EBBC
:101F800098437D1797E6010023A8E6509C43D9EBC0
:101F900097E70100938787529C43C9C797EA0100DE
:101FA000938A0A6217EA0100130ACA5017E901006E
:101FB0001309C951854919A83385EA00EFE0CFD646
:101FC000832709005854DC576379F70483A70A0F65
:101FD000C1CF83A7CA0FC04713058401EFE04FD9D3
:101FE000130B44005A85EFE0AFD85C5483260A00F7
:101FF000DA85139527003E950A052A875695E3FD55
:10200000F6FA17E701002327F74AEFE0EFD183271D
:1020100009005854DC57E36BF7FA97E7010023A552
:1020200037496DB701449C4081CB97E70100938706
:10203000E7499C43FC4395E72285F2406244D24441
:102040004249B249224A924A024B0561828017E70F
:1020500001001307A74714431843F8420507F8C2C5
:1020600005B7EF30303DC9BF17E401001304044445
:102070001C4095C31C40054999CF193B09C597E7FA
:10208000010023A327431C40FD1717E70100232F5E
:10209000F7401C40FDF397E701009387E740984322
:1020A0008547E311F7F8EFE06FB60544ADBF11CDFA
:1020B00081E57370043001A017E701001307C73DE5
:1020C0001C4399C77370043001A07370043001A0E1
:1020D000411122C406C614431841850617E60100C3
:1020E000232CD63A97E601009386063D94423304AA
:1020F000B70000C163F7E602637FE40063FD86007A
:1021000097E701009387873C88431105EFE04FC6AE
:102110002285EF30F02B1D3D01C9B2402244410120
:102120008280E36FE4FCD9BF2244B24041016FE0FA
:10213000EFAD11C917E70100130707361C4391C71C
:102140007370043001A06FE06FAC411106C622C469
:102150001843AA87050797E6010023AFE63297E602
:1021600001009386A63617E701001307E7341843EA
:1021700088423304F7001105EFE08FBF2285EF306E
:102180003025E93311E52244B24041016FE00FA848
:10219000B240224441018280411122C406C697E721
:1021A00001009387672F9C430144850717E70100CF
:1021B0002324F72E97E70100938747309C4363E081
:1021C000F51217EE0100130E6E4B97E20100938299
:1021D000623E01440147854F1303500A21A0311E7E
:1021E000638DC20B83278EFFBA86F5DB8327CEFF74
:1021F000DC43232EFEFE638AC70F03AFC700DC4318
:102200002A97814E232EFEFE6385C70783A8C70049
:1022100093874803232017015CC383A788042326E0
:10222000F7011CC783A7C8021CCB83A70805232C72
:1022300007005CCB03A8080383470800639067048A
:10224000C287850783C60700B3850741E38B66FE17
:102250008981C205C181231EB700850E13070702BD
:1022600063061F038327CEFFDC43232EFEFEE39F7E
:10227000C7F983274E00232EFEFE49BF8145231E4A
:10228000B700850E13070702E31E1FFD7694131790
:102290005400311EBA86E397C2F597E70100938791
:1022A000A72203AE070083270E00639D070E97E762
:1022B00001009387272103AE070083270E00639256
:1022C000071817EE0100130EAE2F83274E109DE363
:1022D00083278E116395072019C223200600BD3184
:1022E0002285B24022444101828083274E00232E62
:1022F000FEFE21B783278E1017EF0100130F0F3D4D
:10230000DC4317E701002321F73C6380E73383A216
:10231000C700DC43AA96814E17E701002326F73A4F
:10232000914F1303500A6388E70783A8C700938778
:10233000480323A01601DCC283A7880423A6F60164
:102340009CC683A7C8029CCA83A7080523AC0600C5
:10235000DCCA03A80803834708006391672AC28781
:10236000850703C70700B3850741E30B67FE93D7D3
:102370002500C207C183239EF600850E93860602C0
:102380006386122983278E10DC4317E70100232D73
:10239000F732E39CE7F983270E1117E701002325A5
:1023A000F73261B783274E00130F8E00D4432322E8
:1023B000DE006388E629B307E500D84283A2C600A1
:1023C000814E2322EE00894F1303500A6306EF0665
:1023D0008328C7001387480323A01701D8C303A786
:1023E000880423A6F70198C703A7C80298CB03A7C0
:1023F000080523AC0700D8CB03A80803034708004F
:102400006318671C4287050783460700B305074129
:10241000E38B66FE13D7250042074183239EE70026
:10242000850E93870702638D121B83264E00D842C8
:102430002322EE00E31EEFF80327CE002322EE0056
:1024400041BF83274E00130F8E00DC432322FE0082
:102450006384E71F83A2C700DC43AA96814E232230
:10246000FE00894F1303500A6306FF0683A8C700C6
:102470009387480323A01601DCC283A7880423A600
:10248000F6019CC683A7C8029CCA83A7080523AC93
:102490000600DCCA03A80803834708006396671098
:1024A000C287850703C70700B3850741E30B67FEB3
:1024B00093D72500C207C183239EF600850E93861D
:1024C0000602638B120F83274E00DC432322FE009B
:1024D000E31EFFF88327CE002322FE0041BF83279F
:1024E000CE1197EE0100938EAE1FDC4317E701007B
:1024F0002326F71E6384D71383AFC700DC4333075B
:10250000D500014397E6010023AAF61C0D4F89422E
:102510009308500A6387D707C8479307450308C342
:102520005CC33C452326E7011CC75C551CCB1C55EE
:1025300099C3232657003C49232C07005CCB032872
:1025400005038347080063951705C287850783C67F
:102550000700B3850741E38B16FF93D72500C20719
:10256000C183231EF700050313070702638AAF0226
:102570008327CE11DC4397E6010023A1F616E39DE5
:10258000D7F983274E1297E6010023A9F61469B7FD
:102590008147231EF700050313070702E39AAFFCE8
:1025A0001A94E31C06D225BB8147239EF600850EB4
:1025B00093860602E39912F117EE0100130E4E0006
:1025C00083274E10769493165400E38307D01DB3EF
:1025D0000147239EE700850E93870702E39712E5E4
:1025E00097E70100938707EE03AE070076949316F2
:1025F000540083270E00E38607CCA1B58147239EB4
:10260000F600850E93860602E39E12D783278E116D
:10261000769493165400E38107CCD1B583274E12EC
:1026200017E70100232CF70AC1BD83270E1117E716
:102630000100232BF708E1B98327CE002322FE00F7
:1026400011BD8326CE002322DE00B5B3797126D2D8
:102650004AD04ECE52CC56CA5AC85EC606D622D4EE
:1026600097E90100938949E317E90100130949F546
:1026700017EA0100130ACAE397EA0100938A0AE500
:1026800097EB0100938B8BE397E40100938444E381
:10269000054B21A883A7090003244910850717E7E4
:1026A0000100232BF7DE5D3011E89C40E5F783271E
:1026B0000900E37CFBFEEFD07FD5C5BF737004300B
:1026C00083270A00B9E383270911C0471305440093
:1026D000EFD01FEA83A70B00FD1717E70100232F98
:1026E000F7DC9C40FD1717E70100232BF7DC83275D
:1026F0000A0089C783A70A00FC4385E30858EF1046
:10270000D0032285EF1070034DB703A70A0083A7FB
:102710000A007C4385077CC37DB703A70A0083A614
:102720000A007C43FD177CC3FC42E9FB7360043064
:10273000F1B797E70100938727D69C43DDE341116A
:1027400006C697E7010023A107D617E70100130784
:10275000E7D71C43B7A6A5A59386565A9C5B8C4326
:10276000639BD500D0436318B60094476395C600B9
:10277000DC476388D70008430C4393854503EF206B
:10278000E07297E601009386E6D2904217E70100D7
:10279000130707E311A89C42B9CB9C42FD1717E62B
:1027A00001002329F6D0904293172600B2978A079A
:1027B000BA979C43EDD3904293172600B2978A07AD
:1027C000B305F700D441A107BA97D442D4C16383BB
:1027D000F602DC46B24017E701002329F7CE41019B
:1027E0008280854717E701002320F7CC8280737031
:1027F000043001A0D1473306F602D442329754C3C5
:10280000C9BF01114AC806CE22CC26CA4EC62A89A3
:102810007370043097E40100938484C99C4017E4EA
:1028200001001304A4CAD9E76314090003290400B2
:10283000930949004E85EFD0BFD38327890289C70A
:1028400013058901EFD0DFD2CE8517E5010013050E
:10285000A5E8EFD07FCD9C4081C71C40FC43ADE391
:102860001C40638B27079C409DCF737004309C40B5
:10287000C1EB97E70100938727C59843184325EBE1
:10288000FD5717E70100232BF7C09C4089CF1C4060
:10289000FC4391CB184014407C43FD177CC3FC42A1
:1028A00099E373600430F2406244D2444249B24931
:1028B0000561828018401C407C4385077CC3ADB70E
:1028C000184014407C43FD177CC3FC42D1FB73606D
:1028D00004301C40E39927F99C40A1C397E701000D
:1028E000938787BB9C43ADCB7370043001A09C439E
:1028F000DC47DC47DC4317E701002321F7BA71B757
:1029000018401C407C4385077CC397E701009387F0
:10291000A7BB984318432DD7D9BF97E701009387EA
:10292000E7B917E701001307A7C99C4303278711DD
:10293000631DF700F240624497E7010023A807B83F
:10294000D2444249B249056182806244F240D24495
:102950004249B2490561F1BB6244F240D244424966
:10296000B24905616FD09FAA3DC9411126C297E4C3
:1029700001009384A4B54AC02E898C4006C622C4A7
:10298000E105EFD0FFBB88401105EFD07FBEFD57BA
:10299000630AF90497E70100938707B280439840E0
:1029A0009C434A9440C3636CF40497E70100938707
:1029B000A7B188438C409105EFD09FB897E70100FD
:1029C0009387C7AD9C436376F40097E7010023A784
:1029D00087ACB24022449244024941018280737024
:1029E000043001A08C402244B2409244024917E5D1
:1029F0000100130565CE910541016FD0FFB297E745
:102A00000100938727AC884322448C40B240924413
:102A10000249910541016FD0BFB211C997E701008A
:102A2000938787A79C4399E77370043001A0737064
:102A3000043001A0411126C297E40100938404A947
:102A40009840AE878C40B7060080D58F06C622C45A
:102A50001CCFE1053284EFD03FAD88401105EFD0A7
:102A60003FB1FD57630EF40097E701009387C7A4B9
:102A70008843B24092442295224441016F30401570
:102A80008C402244B240924417E501001305C5C4AE
:102A9000910541016FD05FA925CD411126C297E470
:102AA00001009384A4A24AC02E898C4006C622C489
:102AB000E1053284EFD05FA788401105EFD05FAB0E
:102AC0008547630AF40497E701009387E79E8043F4
:102AD00098409C434A9440C3636CF40497E7010018
:102AE0009387879E88438C409105EFD07FA597E719
:102AF00001009387A79A9C436376F40097E701004F
:102B000023AE8798B2402244924402494101828018
:102B10007370043001A08C402244B24092440249B8
:102B200017E50100130545BB910541016FD0DF9FFB
:102B300097E7010093870799884322448C40B2406D
:102B400092440249910541016FD09F9F411106C6F1
:102B500022C426C25C45C04735CC93048401268537
:102B6000EFD01FA197E70100938707939C43B5E738
:102B7000930444002685EFD0BF9F97E70100938719
:102B8000679358549C4363F6E70097E7010023A33B
:102B9000E79293172700BA978A0717E501001305F4
:102BA00025A2A6853E95EFD03F9897E70100938731
:102BB000E7919C4358540145DC5763F8E70085478B
:102BC00017E701002322F78E0545B24022449244C4
:102BD000410182807370043001A0A68517E50100D1
:102BE000130505ADEFD05F94C9B797E70100938750
:102BF000A78A9C4381E77370043001A0411106C687
:102C000022C426C2B70700804045CD8F1CC12DC409
:102C1000EFD01F96930444002685EFD07F9597E769
:102C200001009387278958549C4363F6E70097E790
:102C3000010023A1E78893172700BA978A0717E5B1
:102C400001001305E5973E95A685EFD0FF8D97E728
:102C500001009387A7879C4358540145DC5763F8CC
:102C6000E700854717E701002320F7840545B240B8
:102C700022449244410182807370043001A011CD3E
:102C800097E7010093870782984397E701009387AE
:102C9000A7829C4318C15CC182807370043001A07C
:102CA00055C1D1CD411106C622C42A8773700430A4
:102CB00097D801009388C87F83A7080091CB97E736
:102CC00001009387A78094439C43FC428507FCC284
:102CD00017D301001303437E9C4103260300FD56D6
:102CE0000144638FD70217DE0100130EAE7B03256C
:102CF0000E000328070054436305A80005446371D0
:102D0000D6023308D6400544637CF80003250E0044
:102D1000918F03260300B6979CC108C350C301449A
:102D200083A7080081CB97D701009387277A9C431C
:102D3000FC4381EF2285B2402244410182807370BE
:102D4000043001A07370043001A0EF20B06EDDB735
:102D5000854717D701002329F774828019C1684578
:102D600082800145828011C16CC5828097D70100A5
:102D70009387C7758843828097D7010093874773ED
:102D80009C43054589CB97D701009387E77088431B
:102D9000133515000605828031CD011126CA97D45E
:102DA00001009384A4729C4006CE22CC4AC84EC631
:102DB0005855DC576379F7021C4D63C707009C40E8
:102DC000D457A947958F1CCD93172700BA97584918
:102DD00017D901001309C97E8A07CA97630DF70046
:102DE0009C40DC575CD5F2406244D2444249B2492F
:102DF000056182808280930945002A844E85EFD048
:102E00002FF79C4017D701001307C76A1843DC57F8
:102E10005CD46376F70017D70100232DF76813956C
:102E200027003E9562440A05F240D244CE854A9579
:102E3000B249424905616FD02FEF19CD411106C645
:102E400022C426C297D7010093874768804363074F
:102E5000A4007370043001A0014582807C4881E7A2
:102E60007370043001A054543848FD177CC8638344
:102E7000E60099C70145B240224492444101828054
:102E8000930444002685EFD0AFEE3C4817D70100ED
:102E900013074762144329471D8F5CD418CC63F68F
:102EA000F60017D701002327F7605147B387E702E1
:102EB00017D501001305C570A6853E95EFD0CFE666
:102EC000054555BF7370043097D701009387475E5F
:102ED0009C4391CB97D701009387475F98439C43CE
:102EE0007C4385077CC3828097D701009387475C2A
:102EF0009C438DC397D701009387475D98437843E0
:102F000011CB984394437C43FD177CC3FC4299E367
:102F100073600430828097D701009387275B9043CA
:102F200094439843A947D456084E958F1CCF82806E
:102F300097D7010093878759984309C79443F84A64
:102F40000507F8CA8843828079714AD006D622D410
:102F500026D24ECE2A897370043097D40100938410
:102F600024559C4017D4010013044456BDE31C4073
:102F7000BC4F89E71C400547F8CFD1E19C4081C791
:102F80001C40FC43F1EB737004309C408DEF1C40FF
:102F9000A84F11C5630409021C4023AC07041C4060
:102FA00023AE07049C4081C71C40FC438DEBB2500C
:102FB000225492540259F2494561828018403C4F94
:102FC000FD173CCFE9BF18401C407C4385077CC3FC
:102FD0007DBF18401C407C4385077CC349BF184017
:102FE00014407C43FD177CC3FC42F1F37360043052
:102FF000B250225492540259F249456182800840ED
:103000002EC61105EFD0CFD6B245FD576380F50629
:1030100097D701009387474A83A9070018409C432C
:10302000AE992322370163ECF90497D70100938707
:10303000A74988430C409105EFD08FD097D7010066
:103040009387C7459C4363F6F90097D7010023A7F0
:103050003745EFD0AFBB1DB7184014407C43FD1778
:103060007CC3FC428DF37360043031BF0C4017D534
:103070000100130565669105EFD00FCBD9BF97D737
:1030800001009387274488430C409105EFD04FCB34
:10309000C9B779714AD04ECE06D622D426D252CCA8
:1030A0002E89B2897370043097D401009384444010
:1030B0009C4017D4010013046441F9EF184089477C
:1030C000784F630CF7001C401345F5FFB84F798D1E
:1030D000A8CF1C400547F8CFADE69C4081C71C40F7
:1030E000FC43F5E3737004309C40B1E7638609004C
:1030F0001C40BC4F23A0F900184085470145784F7C
:10310000630BF7001C401349F9FF0545B84F3379AD
:10311000E90023AC27051C4023AE07049C4081C76F
:103120001C40FC43C1E3B250225492540259F2496C
:10313000624A4561828018401C407C4385077CC3FD
:1031400075B7084036C61105EFD08FC2B246FD579D
:103150006385F60897D701009387073603AA07000F
:1031600018409C43369A232247016363FA0897D795
:1031700001009387673588430C409105EFD04FBC21
:1031800097D70100938787319C436370FA0697D7DE
:10319000010023A5473191A818401C407C438507B6
:1031A0007CC329BF184014407C43FD177CC3FC42FC
:1031B000BDFB73600430B250225492540259F2495C
:1031C000624A45618280184014407C43FD177CC3ED
:1031D000FC4289FB7360043031B70C4017D5010005
:1031E0001305854F9105EFD02FB4EFD02FA2F5B581
:1031F00097D701009387072D88430C409105EFD0A6
:103200002FB4E5B751C1411106C622C426C24AC037
:103210007370043097D40100938484299C40B9EBE7
:1032200099C23C4D9CC2B2878946704D74CD2E87A1
:103230002A846386D70663FCF6048D456387B7004E
:1032400091456395B7006300D60C38CC8547630F72
:10325000F60405449C4081CB97D70100938707274C
:103260009C43FC43A9E32285B24022449244024994
:103270004101828097D701009387472598439C435B
:103280007C4385077CC369BF7370043001A0854609
:10329000E39ED7FA3C4D33E7B70038CD45BF3C4DF0
:1032A00085073CCD65B7EF20F01875BF13094400C2
:1032B0004A85EFD0EFAB17D701001307A71F5C5467
:1032C00018436376F70017D701002325F71E5147EF
:1032D000B387E70217D501001305852ECA853E95F1
:1032E000EFD08FA41C5481C77370043001A097D70E
:1032F00001009387A71D9C435854DC57E3FBE7F478
:10330000EFD0CF90B9B70144B1B739CD011122CC7C
:1033100026CA4AC84EC652C456C206CEBA89368A92
:10332000B2842E892A84EFD04F9AAA8A63050A00B4
:103330003C4C2320FA00784C89477CCC6389F4020A
:1033400063F4970C8D466387D40091466396D4004E
:10335000630AF70A232C24058547631EF7061C54CD
:1033600099CB7370043001A07370043001A03C4C01
:1033700085073CCCD5B797D701009387E7119C43CD
:10338000ADEB930444002685EFD08F9E17D7010044
:10339000130747125C5418436376F70017D70100F0
:1033A000232AF7105147B387E70217D50100130509
:1033B0002521A6853E95EFD02F9797D701009387BB
:1033C000E7109C435854DC5763F7E7006385090016
:1033D000854723A0F90005445685EFD0AF8E22859E
:1033E000F2406244D2444249B249224A924A0561BB
:1033F00082809305840117D501001305652BEFD05A
:10340000AF9265BF0144C9BF8547E397F4F43C4CD4
:1034100033E92701232C240581B74DC1011122CCAA
:1034200026CA2A844AC806CE4EC6AE84EFD0EF899B
:103430008947744C7CCC3C4C05472A8985073CCC99
:103440006395E6061C5481C77370043001A097D7BA
:103450000100938767049C43ADE7930944004E85C0
:10346000EFD00F9117D701001307C7045C5418431E
:103470006376F70017D70100232EF7025147B38771
:10348000E70217D501001305A513CE853E95EFD0B1
:10349000AF8997D70100938767039C435854DC5743
:1034A00063F5E70099C085479CC06244F240D2446E
:1034B000B2494A85424905616FD0CF8073700430AC
:1034C00001A09305840117D501001305651EEFD0F7
:1034D000AF85C1B7AA8729C57370043017D701001B
:1034E000130707FD14439DE2F04F8946014563151C
:1034F000D60023AE070405451C4381CB97D70100B6
:103500009387C7FC9843784315E3828097D60100E0
:103510009386C6FB904294427442850674C2E9B712
:1035200097D70100938787FA9C437DB798439443CC
:103530007C43FD177CC3FC42E9FB7360043082804E
:103540005D71A6C2CAC052DC56DA5AD85ED686C6AB
:10355000A2C44EDE62D466D26AD017D90100130924
:10356000E9F717DB0100130BABF697D40100938446
:1035700064F697DA0100938A2AF6054AA54B832759
:103580000900984363010712DC4783A90700EFE0B5
:10359000EFF6EFE0AFF783270B002A8C6362F50AA2
:1035A00097D7010023A6A7F201466370351B884018
:1035B000B3858941EFD0FFBDEFE05F99630105124C
:1035C0008840814601462C00EFD00FEC4DD9A24730
:1035D000E3C807FEC24983A7490189C7138549008B
:1035E000EFC01FF9EFE08FF283270B002A8C636D89
:1035F000F508A24717D70100232C87EDE3E2FBFC77
:10360000B317FA0013F70721631A071613F7770C9D
:103610006318071E93F70702C5D74E85EF00F01118
:1036200045B7DC47C04783AC0700930944004E858B
:10363000EFC01FF45C50228582975C4C6384470B7B
:1036400083270900984371FF03A70A0097D601005A
:1036500023A086E997D6010023A0F6E897D70100BA
:1036600023AEE7E6EFE09F8EA1BFDC47C04703AD86
:103670000700930C44006685EFC09FEF5C502285E5
:1036800082975C4C6386470983270900984371FF42
:1036900003A70A0097D6010023A0F6E497D70100FC
:1036A00023AEE7E2B9B7EFE06FE5EFE02FE683275F
:1036B0000B002A8CE366F5F883A70A00884081494D
:1036C0009043B385894117D70100232387E113363F
:1036D0001600EFD01FACEFE07F87E31305EEEFC0DD
:1036E000FFD2F9BD1C4CCE85E69763E9FC049C40F3
:1036F00089CF02CA66CC22CEEFF00FE8884081461F
:1037000001464C08EFD02F8805FD7370043001A0EE
:103710001C4CE685EA97636CFD049C4089CF02CA85
:103720006ACC22CEEFF04FE58840814601464C0836
:10373000EFD06F8531F97370043001A003250900C3
:103740005CC000C8EFC0DFDFE5BDEFE03F8083274E
:103750000900DC47C047930C44006685EFC05FE179
:103760005C4C638F47035C502285829791BD032593
:1037700009005CC000C8EFC0BFDC39B7B24723AC5A
:10378000F900A5CFE29723A2F90023A83901938578
:103790004900636FFC0403A50A00EFC07FDA0DB592
:1037A0001C4C00C83387F90058C0636DEC02330C21
:1037B0003C416363FC029C4089CF02CA4ECC22CEBE
:1037C000EFF08FDB8840814601464C08EFC0BFFB1D
:1037D00059F97370043001A003A50A00E685EFC013
:1037E0003FD651B703250900E685EFC07FD5A5BFB9
:1037F00003250900EFC0DFD4E1B37370043001A0EA
:10380000B24783A6890123A839013387D70023A2B1
:10381000E9006364EC04B307FC4063EBD70483A7BF
:1038200049024E85829783A7C901E39B47D983A6A6
:103830008901B2479840B69711CF02CA3ECC4ECE0E
:10384000EFF08FD38840814601464C08EFC0BFF3AC
:10385000E31805D67370043001A06374FC00E370B4
:10386000F7FC0325090093854900EFC07FCD89BB94
:1038700003A50A0093854900EFC09FCC91B3411185
:1038800022C406C626C24AC017D40100130484C449
:10389000EFF04FE31C4095CBEFF00FE51C409DC3CC
:1038A000814801488147094781461306004097D562
:1038B00001009385A5B0170500001305A5C8EFD03A
:1038C0007F9A39E97370043001A017D901001309F8
:1038D000E9E14A85EFC0BFC397D40100938444E275
:1038E0002685EFC0DFC20146B145114597D70100DB
:1038F00023A627BF97D7010023A097BEEFC01FDCE8
:1039000017D701002328A7BC11CD97D501009385B7
:1039100065AAEFD0CFFC49B7B24022449244024995
:10392000410182807370043001A0A5C9797156CA23
:10393000AA8A1305C00222D426D24AD04ECE52CC37
:1039400006D65AC85EC63A89B689328AAE84E9215B
:103950002A8405C9EFF00FD797D70100938787B75F
:103960009C439DCFEFF04FD8130544002320540112
:1039700004CC232E44012320340323222403EFC04C
:103980005FBA2285B250225492540259F249624AD7
:10399000D24A424BB24B456182807370043001A021
:1039A00097DB0100938B8BD45E85EFC05FB617DB8E
:1039B0000100130BEBD45A85EFC07FB50146B1452A
:1039C000114597D7010023AB77B197D7010023A505
:1039D00067B1EFC0BFCE17D70100232DA7AE01C935
:1039E00097D501009385059DEFD06FEFA5BF73704C
:1039F000043001A039C5011122CC06CE26CA17D445
:103A00000100130424AD832804002A88014563853E
:103A10000802BA842EC2368732C442C6954663C5B0
:103A2000B602EFF06FB58947630BF5020840814697
:103A300001464C00EFC03FD5F2406244D2440561DC
:103A400082807370043001A04C0081463A8646851E
:103A5000EFD0AF88F2406244D244056182800840D2
:103A6000814626864C00EFC01FD2F9B719C1084124
:103A700082807370043001A001E57370043001A0EE
:103A8000411106C622C42A84EFF0CFC3484833341C
:103A9000A000EFF06FC52285B24022444101828030
:103AA00001E57370043001A0411122C42A8406C6C6
:103AB000EFF04FC10050EFF02FC3B24022852244F7
:103AC0004101828001E57370043001A0411122C4DC
:103AD00026C22E84AA8406C6EFF0CFBE80D0224430
:103AE000B240924441016FF02FC04111714522C490
:103AF00006C61D262A8411C5232005001105EFC026
:103B00001FA12285B24022444101828001CDB70726
:103B100000FFED8F81C77370043001A099E57370C9
:103B2000043001A07370043001A0011122CC4AC8F6
:103B30004EC652C456C206CE26CABA893689B28A41
:103B40002E842A8AEFF04FA311E563850900737074
:103B5000043001A0EFE08F9A83240A00B377940029
:103B60006316090295C763870A009347F4FFE58F40
:103B70002320FA00EFE08FBDF240624426854249DF
:103B8000D244B249224A924A05618280E30DF4FC94
:103B9000E38209FEB3355001E20563050900B7076A
:103BA0000004DD8D4E86C18D13054A00EFE0FFE66F
:103BB000EFE0CFB919E1EFC07F85EFF0CFB59317F4
:103BC0006500AA8963D80700B7040001FD14B3F4A7
:103BD00099005DB7EFF00FAF83290A00B377340186
:103BE000631E090089CB63880A009347F4FFB3F78B
:103BF00037012320FA00EFF02FAFF9B7E31DF4FEF1
:103C0000DDB701C9B70700FFED8F99C773700430A6
:103C100001A07370043001A0411122C42A8406C699
:103C200026C24AC02E89EFF0EFA904409345F9FF60
:103C3000B3F795001CC0EFF02FABB24022442685AD
:103C40000249924441018280411122C42A8406C65D
:103C5000EFC0BF870040EFC0FF86B24022852244FC
:103C60004101828009C9370700FFB3F7E50099C712
:103C70007370043001A07370043001A06F10507D88
:103C8000B70700FFF18F81C77370043001A001E610
:103C90007370043001A0011122CC4AC84EC652C430
:103CA00006CE26CA3689AE892A8A3284EFF0CF8CB6
:103CB00021E1630509007370043001A0EFE00F8477
:103CC00083240A00CE855285B3E49900613FB3771F
:103CD00094006307F40683240A00EFE02FA7F24064
:103CE000624426854249D244B249224A0561828013
:103CF000EFE0CF8083240A00CE855285B3E43401FF
:103D00009537B3F78400638D8702E30609FCB70596
:103D100000054A86C18D13054A00EFE01FD0EFE091
:103D2000EFA219E1EFC08FEEEFF0EF9E9317650061
:103D3000AA8463DF0700B7070001FD17FD8C45B7B4
:103D400083270A001344F4FFE18F2320FA0071B7A0
:103D5000EFF04F9783240A00B377940063978700AE
:103D60009347F4FFE58F2320FA00EFF0EF97E1B7D8
:103D7000411122C406C62A8426C2EFD03FF85C4017
:103D800085C308489304C4006316950015A008482D
:103D900063009502B7050002EFE03FE55C40E5FBFC
:103DA0002285612A2244B240924441016FE00F9A79
:103DB0007370043001A009C9370700FFB3F7E500AD
:103DC00099C77370043001A07370043001A06F10A4
:103DD000306801C9B70700FFED8F99C773700430D1
:103DE00001A07370043001A0411122C426C206C68E
:103DF0002A84AE84EFF00F8D184093C7F4FFF98F3B
:103E00001CC02244B240924441016FF0EF8D19C1B1
:103E1000084D828001458280411122C406C62A8451
:103E2000EFD0DFED97C701009387876B9C43A1EB31
:103E3000E56717D701001307278EF11797C6010012
:103E400023A6E66A17C701002320F76A17D70100E7
:103E50002326F78C97C701009387C76817D70100FF
:103E6000232CF78A854717C701002323076817C744
:103E700001002329076617C701002323F76619E805
:103E8000EFE0CF8CEF10000201442285B2402244C3
:103E9000410182801305840093773500C1EFE56707
:103EA0001307F5FFE917E3EDE7FC97C601009386DA
:103EB000E6639C4229A0984311C7BE86BA87D843BF
:103EC000E36BA7FE17C701001307C761E38AE7FA90
:103ED000984341461384870098C2D843B306A7404D
:103EE0006378D6023388A7002322D800C8C383256D
:103EF000480097C601009386665F11A0BA86984273
:103F00005043E36DB6FE2320E80023A00601D8430A
:103F100097C70100938707609C43998F17C70100DB
:103F2000232AF75EEFE08F8231DC2285B240224403
:103F300041018280719911059DB729C9411122C49F
:103F400006C62A84EFD09FDB930584FF0326C4FFB7
:103F500017C701001307875911A03E871C43D4439C
:103F6000E3EDC6FE232CF4FE0CC397C70100938734
:103F7000675A98438327C4FF2244B240BA9717C7B1
:103F800001002329F75841016FD05FFC828097C759
:103F90000100938727588843828082803367B50069
:103FA0000D8BAA871DE79308D6FFAA982A87AE86AD
:103FB0006371150303A8060011079106232E07FF5E
:103FC000E36A17FF9347F5FFC697F19B9107BE95EC
:103FD000AA972A9663F3C70A938645001388470079
:103FE000B3B6D70033B8050133E7F50093C6160022
:103FF000134818000D8BB3E6060113371700758FB1
:10400000330EF6409386170029CF1337AE0031EBFD
:1040100013532E002E88BE8601478328080005070B
:10402000110823A016019106E36967FE1377CEFFFE
:10403000BA95BA976302EE0483C60500138717008A
:104040002380D700637AC70283C615001387270031
:10405000A380D7006372C70203C725002381E7004E
:104060008280B307F640AE97850503C7F5FF850646
:10407000238FE6FEE39AF5FE82808280B367C50057
:104080008D8BB308C500E9C36371150FB307A0405A
:104090008D8B13873700954693F5F50F13081500A0
:1040A0003383A8407D166373D70015476363E60C1E
:1040B000D5CF2300B5000547638DE700A300B50009
:1040C0000D47130825006396E70013083500230108
:1040D000B500139685004D8E13970501518F33035C
:1040E000F34093968501D98E13562300AA97014772
:1040F00094C305079107E36DC7FE1377C3FFB307AA
:10410000E8006307E3062380B70013871700637C8A
:104110001703A380B7001387270063761703238153
:10412000B7001387370063701703A381B7001387A5
:104130004700637A17012382B7001387570063741F
:104140001701A382B700828093F5F50F13978500BE
:10415000D98D139705014D8FE37715FFAA87910736
:1041600023AEE7FEE3ED17FF828082802A8895B7B1
:104170008280AA8749BF834705002A8799C705051A
:1041800083470500EDFF198D82800145828005057A
:104190008347F5FF850503C7F5FF91C7E389E7FE70
:1041A0003385E74082808147E5BFAA87850503C73D
:1041B000F5FF8507A38FE7FE75FB82808346050028
:1041C000930700026397F600050583460500E38D1B
:1041D000F6FE938756FD93F7D70F85C7AA878145CB
:1041E00085CE01458507138606FD1317250083C676
:1041F00007003A9506053295F5F699C13305A040BA
:104200008280938536FD8346150093B5150093078C
:104210001500E1FA0145D5B7014582809C41238014
:10422000A7009C4185079CC1828097C601009386A8
:10423000662C9C42175703001307C75013861700BC
:10424000BA972380A70097C5010023A5C52AA947CF
:104250006308F500930700046305F60001458280BA
:1042600075DE370610F005078347F7FF2320F6F0C9
:104270009C42FD1797C5010023AEF526EDF70145D9
:1042800082804D712322911423202115232A51135A
:10429000232481132326111423248114232E311364
:1042A000232C4113232861132326711323229113F6
:1042B0002320A113232EB111AA842E8932C6130CF8
:1042C0005002A54A8347090063808703B9CB804029
:1042D00011A0A1CB2300F40080400509050480C093
:1042E00083470900E39787FF0346190093081900E5
:1042F000C686130D0002FD597D5A0148130550056D
:104300009307D6FD93F7F70F138916006363F52A19
:1043100017C70100130707CF8A07BA979C43BA97BC
:1043200082878320C1140324811483244114032928
:1043300001148329C113032A8113832A4113032BF8
:104340000113832BC112032C8112832C4112032DE4
:104350000112832DC11171618280A14C02C4854775
:1043600063D50715B2478040938B770093F68BFF98
:1043700003AB060083A94600938786003EC6668687
:1043800081465A85CE85EF10604F2AC881476385E4
:104390003723930D4101854B668681465A85CE852C
:1043A000EF10E017814666862A8BAE89EF10004D2C
:1043B000A24723A0AD0093861B00910D63843701B3
:1043C000B68BD9BFE37E9BFF63DD4601A2872380C6
:1043D000A70180407D1A930714009CC03E84E3C867
:1043E00046FF93962B001C08BE9631A8938777054D
:1043F0002300F4008040FD1B93871B00050480C050
:10440000F116E351F0EC9C42E3E2FAFE93870703D6
:10441000C5B79C409306000332472380D7009C40D9
:1044200093064700C14C1386170090C013068007FF
:10443000A380C700804002C4BA87050480C003ABD4
:104440000700814936C625BFB24783AC0700938B6E
:10445000470063840C1C635F40199307D002631903
:10446000FD1683C70C0085C363DC09189440850CD6
:104470007D1A2380F6008040050480C083C70C00AD
:10448000E5F7635D40018040930700022300F400DC
:1044900080407D1A050480C0E31A0AFE5EC61DB581
:1044A00002C48547A94CE3CF07EBB247804093860F
:1044B000470071B703C61600CA8699B59C4093069B
:1044C00050022380D7008040050480C0E5BBC14C6A
:1044D00002C471B5B24703C61600CA8683A9070095
:1044E00091073EC6E35E0AE04E8AFD5911BD03C640
:1044F0001600130DD002CA8621B59347FAFFFD8737
:1045000003C61600337AFA00CA86DDBB03C616005E
:10451000130D0003CA86EDB383C51600930906FD8B
:10452000CA86938705FD2E86E3EEFAFA9397290053
:10453000BE9985068609AE9983C50600938909FD53
:10454000938705FD2E86E3F3FAFE69BF32479C4050
:10455000144311073AC62380D7008040050480C069
:1045600095B3854763D3070BB24793867700E19AEB
:10457000938786003EC683A946009C4263DC090AF5
:1045800094401306D002B307F0402380C600804059
:10459000B336F000B3093041050480C03E8BB389C7
:1045A000D940A94C02C4E1BB03C616000508CA865F
:1045B00081BB9C40468921B7E37D9BDD8547814BCC
:1045C0008546E3C547E131BD97CC0100938C8CDF74
:1045D000CE856685EF00903A330AAA40635C4001BD
:1045E00080402300A40180407D1A050480C0E31AA6
:1045F0000AFE014A83C70C00E38207EAE3C809E622
:10460000FD197D57E394E9E6ADBDB24793864700B7
:104610009C4336C693D9F74195B76356400193073B
:10462000D002E313FDFA97CC0100938CACD9930729
:1046300080021DBD3E8BA94C02C4804089B34D71E0
:10464000232E3113B70900409387F9FF23248114E7
:1046500023229114232C4113232A511323261114AE
:10466000232021152328611323267113232481136A
:10467000232291132320A113232EB1112A8A2EC4A1
:1046800017C40100130404E7975A0300938A8A0BA6
:1046900097C40100938484AC3EC69305500229451B
:1046A00013080004B70610F083470A006386B704B6
:1046B000C1C71840050A13061700569797C801008E
:1046C00023AAC8E22300F7006382A706E31E06FDC3
:1046D000175703001307070705078347F7FF23A0B2
:1046E000F6F01C40FD1717C601002325F6E0EDF794
:1046F00083470A00E39EB7FA83461A0013051A009F
:104700002A87930B00027D5B7D5C01489305500571
:10471000A5489387D6FD93F7F70F130A170063E7B1
:10472000F5348A07A6979C43A697828717570300FC
:104730001307470155F28DBF8320C1140324811450
:1047400083244114032901148329C113032A8113EB
:10475000832A4113032B0113832BC112032C8112D3
:10476000832C4112032D0112832DC11171618280AE
:10477000A14C014D854763DB0719A2479D07E19BCB
:1047800083AD070003AB4700138787003AC46686F2
:1047900081466E85DA85EF10600E2AC863066D3596
:1047A000130941018549668681466E85DA85EF00E9
:1047B000105766868146AA8D2E8BEF10200C232081
:1047C000A90085091109E3106DFFE3FE9DFD1306A5
:1047D0000004B70610F063D189031C40138717004B
:1047E000D69797C5010023A7E5D023807701630CF6
:1047F000C7047D1CE3C389FFB2476800A548B386A0
:10480000F9008A061C08BE962948130300043706DF
:1048100010F0E384A6E89C429305000363F4F800DB
:10482000930570051840AE9793051700569717CE5D
:1048300001002321BECC2300F7006380072B638C8B
:104840006526F116F9B7175703001307A7EF0507F9
:104850008347F7FF23A0F6F01C40FD1797C5010022
:1048600023AAF5C8EDF77D1C71B71C4013060004A0
:104870001387170097C5010023AEE5C6B386FA007B
:10488000930500032380B600630FC73C890797C6D2
:10489000010023A1F6C65697930680072300D70090
:1048A00017570300130707EAB70610F0639EC70007
:1048B00005078347F7FF23A0F6F01C40FD1717C636
:1048C00001002329F6C2EDF7A247C14C014D910723
:1048D0002247014B832D07003EC455BDA24783AC40
:1048E000070013894700638E0C3A635480219307B5
:1048F000D002639EFB2E03C70C00BA85631007200D
:1049000025AC8547A94C014DE3C907E7A2479107AC
:10491000C1B7A24783461700528703AB0700910730
:104920003EC4E3580CDE5A8C7D5BE5B3834617002A
:10493000930BD0025287F1BB9347FCFFFD87834660
:104940001700337CFC005287E9B383461700930BB2
:10495000000352877DBB03461700138B06FD528769
:10496000930706FDB286E3EEF8FA93172B00DA9769
:1049700005078607B29703460700138B07FD9307C9
:1049800006FDB286E3F3F8FE69BFA2451C40294646
:10499000984193861700D69717C50100232CD5B4EC
:1049A0002380E700138945006300C72A93070004AA
:1049B0006387F6204AC4D5B1854763DE0729A2473D
:1049C00013877700619B930787003EC4032B470042
:1049D0001C43635A0B30184013060004930617005B
:1049E00097C5010023A8D5B056979305D0022300A0
:1049F000B7006387C62CB307F0403337F000330BA2
:104A00006041BE8D330BEB40A94C014D49B3834649
:104A1000170005085287F5B9834617005287D5B9A4
:104A20001C40930600041387170017C601002323B8
:104A3000E6ACD697130650022380C700E31FD7C405
:104A400017570300130707D0B70610F00507834771
:104A5000F7FF23A0F6F01C40FD1717C60100232B1B
:104A6000F6A8EDF71DB9C14C014D29B31C409306C2
:104A700000042A8A1387170017C60100232CE6A614
:104A8000D697130650022380C700E318D7C01757E4
:104A90000300130727CBB70610F005078347F7FF7E
:104AA00023A0F6F01C40FD1717C601002324F6A42E
:104AB000EDF72A8ADDB6175703001307A7C80507C5
:104AC0008347F7FF2320F6F01C40FD1797C5010030
:104AD00023A2F5A2EDF7F1162DBB1757030013071C
:104AE00067C6F1FDF11635B3E3FC9DCB8549C5B131
:104AF000014C03C70C00BA85E30E07EAFD582945AF
:104B000013080004B70610F063570B0A1C40138605
:104B10001700D69717C30100232EC39C2380E700FC
:104B20006384A50663040609850C03C70C007D1C7D
:104B3000BA8579FBE35080E91C4093050002130617
:104B40000004B70610F021A07D1CE3050CE61387D6
:104B50001700D6972380B70017C50100232CE598CE
:104B6000BA87E313C7FE175703001307A7BD05074E
:104B70008347F7FF23A0F6F01C40FD1717C501007F
:104B8000232AF596EDF7C9B717570300130787BB1C
:104B900041DE05078347F7FF23A0F6F01C40FD1711
:104BA00017C601002328F694EDF7BDBF1757030081
:104BB000130747B9F9BF7D1BE31A1BF5A5BF1757AC
:104BC0000300130727B8B70610F005078347F7FF60
:104BD00023A0F6F01C40FD1717C60100232CF69009
:104BE000EDF74AC45DBC97BC0100938CAC7DDA85BF
:104BF00066856923330CAC40E35D80EF1C401306EF
:104C00000004B70610F021A07D1CE3030CEE13870F
:104C10001700D6972380770197C5010023ACE58C58
:104C2000BA87E313C7FE175703001307A7B1050799
:104C30008347F7FF23A0F6F01C40FD1797C501003E
:104C400023AAF58AEDF7C9B717570300130787AFF3
:104C5000BDFA4AC499B4A247138747009C433AC49B
:104C600013DBF741BDB3175703001307A7ADB70612
:104C700010F005078347F7FF23A0F6F01C40FD174F
:104C800017C601002328F686EDF7854717C70100F0
:104C90002322F78693078007175703002304F7AAF8
:104CA00025B1635680019307D002E39EFBF297BCC7
:104CB0000100938C2C7113078002930580023DBD87
:104CC00097560300938606A8370610F0850603C79B
:104CD000F6FF2320E6F018407D1797C5010023ABAF
:104CE000E5806DF709BBBE8DA94C014D4DB4B707EA
:104CF00010F023A0A7F201A03971130341022ED2B4
:104D00009A8506CE32D436D63AD83EDA42DC46DE32
:104D10001AC63532F2400145216182805D7113036C
:104D2000810322D42AC632DC2A841A86680006D679
:104D3000BEC236DEBAC0C2C4C6C61ACEEFF06FD449
:104D4000B247238007003245B250018D2254616181
:104D50008280B70710F083A647F403A607F403A7E1
:104D600047F4E31AD7FE8966938686B5B29633B6C2
:104D7000C600B305E60023A4D7F423A6B7F48280C7
:104D8000B70710F003A747F403A607F483A647F478
:104D9000E31AD7FE8966938686B5B29633B6C60007
:104DA00023A4D7F4B305E60023A6B7F493070008BD
:104DB00073A047308280411122C406C697B7010014
:104DC0009387C77317B401001304047398431C40FE
:104DD0001306F07C930647069387470697B50100B4
:104DE00023AED57097B5010023A8F5706346D600B1
:104DF000B2402244410182801307478997B70100DE
:104E000023AEE76EC92C8547631FF5001840856700
:104E10009387F7760145E3DDE7FCD13D2244B240BC
:104E200041016FC0BFEC17B501001305255AE935E4
:104E30000945753D2244B24041016FC03FEB17B5B3
:104E400001001305255A4DBD17B501001305055A7C
:104E500065B5411122C426C206C6856417B4010097
:104E600013044459938784380100FD17F5FF228508
:104E70006135CDBF014525AA411106C6A92C0547BC
:104E800081476316E500B2403E854101828017B537
:104E900001001305A553EFF03FE6B24089473E8578
:104EA000410182807370043001A0828073700430ED
:104EB00001A0797106D622D426D22A8452CC4AD0B7
:104EC0004ECE56CA5AC8EFD0FFFF97B7010093875E
:104ED000A76303DA070083D70700420A850717B7DD
:104EE00001002313F762EFE02F801044135A0A41A8
:104EF000444055CA8567FD173EC693171A0097BAF6
:104F00000100938AAA60014985490D4BBE9A084069
:104F100081468145EFB05FD7630E3501104465FAD5
:104F2000EFB0CFCE1044084081468145EFB0DFD5C9
:104F3000E31635FF9840B2476303F7000549B247CF
:104F400081479CC098406387E7023247850705493F
:104F5000E379F7FE0840814601468145EFB0BF8204
:104F600005491C44139527003E950605EFD06F9C1C
:104F7000104471BF32478507E375F7FC084081464E
:104F800001468145EFB03F8009CDE31C09FCE34AAF
:104F90004BFD83D70A008507C207C1872390FA001B
:104FA000C9B705497DBF9307F00F3EC6B9B7411198
:104FB0004AC02A89314526C206C622C4EFE0DFE591
:104FC000AA842DC90D4681450545EFB02FEF88C055
:104FD000814601468145EFB00FFB9C40A1CF1145B2
:104FE000EFE09FE3C8C09307F00F1CC18148014860
:104FF00081470147A6861306004097B501009385B7
:10500000A54023A40400170500001305C5EAEFC05E
:105010006FA58148014881470147A68613060040D5
:1050200097B501009385C53E170500001305A5E857
:10503000EFC04FA33145EFE03FDE2A8435C90D466E
:1050400081450545EFB08FE708C08146014681459F
:10505000EFB06FF31C40A9CF1145EFE0FFDB856790
:1050600048C0FD171CC1130540068148014881470F
:105070004A87A2861306004097B501009385C5397B
:1050800008C417050000130505E3EFC0AF9D814874
:10509000014881474A87A2861306004097B5010060
:1050A00093850538170500001305E5E0EFC08F9BD9
:1050B000884097B5010093852537EFC04F8208409F
:1050C0002244B2409244024997B501009385C53607
:1050D00041016FC0CF8017B7010013072743035367
:1050E0000700035F0700835F270097B501009385E2
:1050F0002541835E27000396250083584700839748
:105100000500839645000395650093950F01035EA6
:105110004700C185035867000D8E93950801C1852E
:105120004203135303418D8E93150801B3876740E3
:10513000C1853336C0003306C040B336D0000D8D74
:10514000B337F00083556700F18F3307D040333514
:10515000A000F98F3305A04017B701002312E73BE9
:1051600017B70100231FD73917B70100231CC73910
:1051700017B701002319B7387D8D8280AA95AA87B9
:105180006385B70003C7070001E73385A740828026
:105190008507FDB7814863DA05003305A040B337C2
:1051A000A000B305B0409D8DFD5863D906003306BD
:1051B000C040B337C000B306D0409D8E32883683DE
:1051C000AA872E87639F061C97B601009386860EDA
:1051D00063F1C50C416E6377C60B130EF00F63735A
:1051E000CE002143335E6600F29603CE06001A9E7F
:1051F000130300023303C341630C0300B39565003E
:10520000335EC501331866003367BE00B31765000F
:10521000135E0801B355C70313150801418193D6E6
:1052200007013376C703B305B5024206D18E63F892
:10523000B600C29663E5060163F3B600C2968D8E92
:1052400033F7C603C207C183B3D6C603B306D5027C
:1052500013150701C98F63F8D700C29763E50701EB
:1052600063F3D700C297958F33D567008145638A72
:105270000800B307A0403337F000B305B0403E85C7
:10528000998D8280370E00014143E36DC6F561437D
:1052900091BF01E605483358680241676373E80827
:1052A0001307F00F63730701214333576800BA9661
:1052B00003C606001A96130300023303C3406319A2
:1052C0000306B38505419356080113150801418172
:1052D00013D6070133F7D502B3D5D5024207518F54
:1052E000B305B5026378B70042976365070163733E
:1052F000B7004297B305B74033F7D502C207C18361
:10530000B3D5D502B305B50213150701C98F63F8EC
:10531000B700C29763E5070163F3B700C2978D8FAB
:10532000A1B7370700014143E361E8F86143B5BF26
:105330003318680033DEC500935E08013356C5009C
:10534000B31765003355DE03B39565004D8E931595
:105350000801C181935606013377DE033385A50228
:105360004207558F6378A70042976365070163730F
:10537000A7004297B306A74033F7D60342064182FF
:10538000B3D6D6034207B386D502B365C70063F828
:10539000D500C29563E5050163F3D500C295958DEF
:1053A0001DB7E3E6D5EC416863F50605930EF00FF3
:1053B00033B8DE000E0833DE060117B30100130315
:1053C00063EF7293834E0300130E0002C29E330EEE
:1053D000DE4163170E0263E4B6006369C500B307DC
:1053E000C540958D3335F5003387A5403E85BA8598
:1053F000BDBD370300014148E3EF66FA614865BF70
:105400003357D601B396C601D98EB357D50133D7DA
:10541000D501B395C501CD8F93D506013373B7027E
:10542000139F0601135F0F0113D807013316C6013E
:105430003315C5013357B702420333680301B30F75
:10544000EF023A83637CF80136981303F7FF636732
:10545000D8006375F8011303E7FF36983308F84165
:10546000B37FB8023358B802C20FB3050F03139FBE
:105470000701135F0F0133EFEF014287637CBF0029
:10548000369F1307F8FF6367DF006375BF001307DC
:10549000E8FF369F4203C16F3363E3009387FFFF4A
:1054A00013580601330FBF40B375F30013530301C4
:1054B000F18F3387F502B307F302B3850503330396
:1054C0000303BE95135807012E986373F8007E936B
:1054D000C167FD17935508013378F80042087D8FA6
:1054E0009A9542976366BF00631BBF006379E5002E
:1054F0003306C7403337C700958D998D3287330700
:10550000E5403335E500B305BF40898DB397D5013C
:105510003357C70133E5E700B3D5C50189BBAE8773
:10552000328836872A836396062097B801009388CD
:1055300068D863FEC50A41676374E60A1307F00F73
:105540003337C7000E07B356E600B69883C6080087
:10555000369793060002998E99CAB397D7003357AE
:10556000E5003318D600B365F7003313D5001355A3
:105570000801B3D7A502131608014182935603010F
:1055800033F7A502B305F6024207D98E3E8763FCC6
:10559000B600C2961387F7FF63E7060163F5B6000E
:1055A0001387E7FFC2968D8EB3F7A602420313530B
:1055B0000301B3D6A602C20733E36700B305D602E0
:1055C0003685637BB30042931385F6FF6366030160
:1055D0006374B3001385E6FF4207498F81454DA8E8
:1055E000B70600014147E360D6F66147A9BF01E66F
:1055F000854633D8C602C166637ED8089306F00F8D
:1056000063F306012147B356E800B69883C6080045
:10561000BA9613070002158F49E7B38707418545FE
:10562000135608019318080193D8080193560301F3
:1056300033F7C702B3D7C7024207D98E3385F802C2
:105640003E8763FCA600C2961387F7FF63E7060157
:1056500063F5A6001387E7FFC296898EB3F7C602EB
:10566000420313530301B3D6C602C20733E36700F4
:10567000B388D8023685637B130142931385F6FF06
:1056800063660301637413011385E6FF4207498FC4
:105690003A858280B70600014147E366D8F6614744
:1056A0009DB73318E800B3D5D7003313E500B356E0
:1056B000D50013550801B397E70033F7A502B3E807
:1056C000F60093170801C18313D60801B3D5A502CC
:1056D0004207518FB386B7022E86637CD70042976C
:1056E0001386F5FF636707016375D7001386E5FF2F
:1056F0004297B306D74033F7A602C20893D80801F1
:10570000B3D6A6024207B385D702B367170136871F
:1057100063FCB700C2971387F6FF63E7070163F5E1
:10572000B7001387E6FFC2978D8F93150601D98DB9
:10573000C5BD63E2D514416763FEE6021308F00FAE
:105740003337D8000E0733D8E60097B501009385AC
:1057500065B6C29503C80500930500023A98B38563
:10576000054185E10547E3E5F6F23335C50013470A
:10577000150039BFB70500014147E3E6B6FC6147B4
:10578000D9B733570601B396B600D98E93DE06011A
:1057900033D70701B378D703B397B7003358050160
:1057A0003363F80093970601C1831358030133163E
:1057B000B6003357D703C20833E80801338FE70236
:1057C0003A8E637CE8013698130EF7FF6367D800C2
:1057D0006375E801130EE7FF36983308E841B378A4
:1057E000D8033358D803C208B38E070393170301B5
:1057F000C183B3E7F800428763FCD701B69713076C
:10580000F8FF63E7D70063F5D7011307E8FFB69702
:10581000420EB387D741C16E3367EE001388FEFF97
:105820003373070193580701337806014182330E21
:1058300003033388080393560E013303C3024293D4
:105840009A96B388C80263F30601F69813D6060148
:10585000B29863E01703E39317D9C167FD17FD8E74
:10586000C206337EFE003315B500F2968145E37122
:10587000D5E27D17A5B38145014719BDB2883687AA
:10588000AA872E886398061C97B60100938686A285
:1058900063F8C50A4163637E66081303F00F637300
:1058A000C30021473353E6009A9603CE0600130344
:1058B00000023A9E3303C341630C0300B3956500B5
:1058C000335EC501B31866003368BE00B3176500C8
:1058D00013D608013377C80213950801418193D686
:1058E00007013358C8024207D98E3308050363F80D
:1058F0000601C69663E5160163F30601C696B386F4
:10590000064133F7C602C207C183B3D6C602B30647
:10591000D50213150701C98F63F8D700C69763E551
:10592000170163F3D700C697958F33D5670081457C
:105930008280370300014147E36666F661479DB701
:1059400001E60546B3581603416663F3C80813061B
:10595000F00F63731601214733D6E800B29603CEE9
:105960000600130300023A9E3303C3416319030682
:10597000B385154113D7080113950801418113D64A
:105980000701B3F6E502B3D5E502C206D18EB30531
:10599000B50263F8B600C69663E5160163F3B60078
:1059A000C696B385B640B3F6E502C207C183B3D548
:1059B000E502B305B50213950601C98F63F8B70078
:1059C000C69763E5170163F3B700C6978D8FB1BF24
:1059D000370600014147E3E1C8F86147B5BFB39816
:1059E000680033D7C501B3176500335EC50113D511
:1059F0000801B376A702B3956500336EBE00939598
:105A00000801C18113560E013357A702C206D18E79
:105A10003387E50263F8E600C69663E5160163F393
:105A2000E600C6963386E640B376A602420E135EC3
:105A30000E013356A602C2063386C502B3E5C6017F
:105A400063F8C500C69563E5150163F3C500C69507
:105A5000918D0DB7E3EED5EC416763F5E604930E47
:105A6000F00F33B7DE000E0733D3E60097B801001E
:105A7000938848849A9883CE0800130E0002BA9E39
:105A8000330EDE4163170E0263E4B6006369C5009E
:105A9000B307C540958D3335F5003388A5403E8565
:105AA000C28579B5B70800014147E3EF16FB6147AE
:105AB00065BF3357D601B396C601D98EB357D5010A
:105AC00033D7D501B395C501CD8F93D50601337377
:105AD000B702139F0601135F0F0193D80701331616
:105AE000C6013315C5013357B7024203B36813012A
:105AF0003308EF023A8363FC0801B6981303F7FFFB
:105B000063E7D80063F508011303E7FFB698B3888D
:105B10000841B3FFB802B3D8B802C20FB3051F03E0
:105B2000139F0701135F0F0133EFEF014687637C7B
:105B3000BF00369F1387F8FF6367DF006375BF0000
:105B40001387E8FF369F4203C1683363E3009387FE
:105B5000F8FF13580601330FBF40B375F30013531A
:105B60000301F18F3387F502B307F302B385050311
:105B700033030303BE95135807012E986373F8008F
:105B80004693C167FD17935508013378F800420822
:105B90007D8F9A9542976366BF00631BBF00637950
:105BA000E5003306C7403337C700958D998D32879E
:105BB0003307E5403335E500B305BF40898DB39722
:105BC000D5013357C70133E5E700B3D5C5018DB320
:105BD00097B701009387878F944317B70100130786
:105BE000A78D1843C8C2637BE50017B701001307F0
:105BF000678D08438C4391056FA09F94411122C487
:105C000006C617B701001307278C2A8408438C4364
:105C10009105EFA0FF9297B70100938727889C43D7
:105C20006376F40097B7010023AA8786B240224426
:105C30004101828097B70100938747899843944335
:105C40007C43FD177CC3FC4299E37360043082807F
:105C5000011122CC26CA2A84AE844AC84EC652C438
:105C600056C206CEEFC08F891C4003290401B70934
:105C70000001B3E59700930AC4000CC08144FD19EC
:105C8000370A00021840638C2A03032609004A855C
:105C9000B3654701B376360193175600758F032914
:105CA000490063C4070001E7F1BFE39DE6FC9317D9
:105CB000760063D30700D58CEFC03FF3E1B793C400
:105CC000F4FFF98C04C0EFC06FA80840F2406244B2
:105CD000D2444249B249224A924A05618280411126
:105CE000014506C622C4EFF08FAC17F7FFFF13077C
:105CF000C70C814605469305400617A5010013050C
:105D0000E56FEFD09FC219C92A84EFC02F802A8681
:105D10000147814685452285EFD0DFCDEFB09FD882
:0A5D2000B240224401454101828097
:02000004800278
:10000000B444FEFFB245FEFFBC44FEFFB245FEFF16
:10001000B245FEFFB245FEFFB245FEFFD444FEFFEF
:10002000B245FEFFB245FEFFEE44FEFFFA44FEFF7E
:10003000B245FEFF0C45FEFF1845FEFF1845FEFFCA
:100040001845FEFF1845FEFF1845FEFF1845FEFF48
:100050001845FEFF1845FEFF1845FEFFB245FEFF9E
:10006000B245FEFFB245FEFFB245FEFFB245FEFFC0
:10007000B245FEFFB245FEFFB245FEFFB245FEFFB0
:10008000B245FEFFB245FEFFB245FEFFB245FEFFA0
:10009000B245FEFFB245FEFFB245FEFFB245FEFF90
:1000A000B245FEFFB245FEFFB245FEFFB245FEFF80
:1000B000B245FEFFB245FEFFB245FEFFB245FEFF70
:1000C000B245FEFFB245FEFFB245FEFFB245FEFF60
:1000D000B245FEFFB245FEFFB245FEFFB245FEFF50
:1000E000B245FEFFB245FEFFB245FEFFB245FEFF40
:1000F000B245FEFFB245FEFFB245FEFFB245FEFF30
:100100004C45FEFF6245FEFFB245FEFFB245FEFFD5
:10011000B245FEFFB245FEFFB245FEFFB245FEFF0F
:10012000B245FEFFA845FEFFB245FEFFB245FEFF09
:100130005A43FEFF1244FEFFB245FEFFB245FEFFEA
:100140004844FEFFB245FEFFA044FEFFB245FEFF5D
:10015000B245FEFFCE44FEFFC048FEFF1449FEFF3D
:10016000C848FEFF1449FEFF1449FEFF1449FEFF74
:100170001449FEFFBA47FEFF1449FEFF1449FEFF73
:10018000D447FEFFE047FEFF1449FEFFF247FEFFA3
:10019000FE47FEFFFE47FEFFFE47FEFFFE47FEFF57
:1001A000FE47FEFFFE47FEFFFE47FEFFFE47FEFF47
:1001B000FE47FEFF1449FEFF1449FEFF1449FEFFEF
:1001C0001449FEFF1449FEFF1449FEFF1449FEFFC7
:1001D0001449FEFF1449FEFF1449FEFF1449FEFFB7
:1001E0001449FEFF1449FEFF1449FEFF1449FEFFA7
:1001F0001449FEFF1449FEFF1449FEFF1449FEFF97
:100200001449FEFF1449FEFF1449FEFF1449FEFF86
:100210001449FEFF1449FEFF1449FEFF1449FEFF76
:100220001449FEFF1449FEFF1449FEFF1449FEFF66
:100230001449FEFF1449FEFF1449FEFF1449FEFF56
:100240001449FEFF1449FEFF1449FEFF1449FEFF46
:100250001449FEFF1449FEFF3248FEFF6048FEFFCE
:100260001449FEFF1449FEFF1449FEFF1449FEFF26
:100270001449FEFF1449FEFF1449FEFFB648FEFF75
:100280001449FEFF1449FEFF1846FEFF1247FEFF09
:100290001449FEFF1449FEFF8447FEFF1449FEFF88
:1002A000AA47FEFF1449FEFF1449FEFF0E49FEFF58
:1002B000000102020303030304040404040404040D
:1002C00005050505050505050505050505050505DE
:1002D00006060606060606060606060606060606BE
:1002E00006060606060606060606060606060606AE
:1002F000070707070707070707070707070707078E
:10030000070707070707070707070707070707077D
:10031000070707070707070707070707070707076D
:10032000070707070707070707070707070707075D
:10033000080808080808080808080808080808083D
:10034000080808080808080808080808080808082D
:10035000080808080808080808080808080808081D
:10036000080808080808080808080808080808080D
:1003700008080808080808080808080808080808FD
:1003800008080808080808080808080808080808ED
:1003900008080808080808080808080808080808DD
:1003A00008080808080808080808080808080808CD
:1003B000546D725100000000546D7220537663003A
:1003C000286E756C6C2900004572726F7220696E20
:1003D00020787878207461736B73200D0A00000018
:1003E0006D69616F750A00006D69616F75320A0091
:1003F00068756E6772790A00436865636B54696D4E
:1004000065720000506F6C53454D3100506F6C5356
:10041000454D3200426C6B53454D3100426C6B537D
:10042000454D3200436F756E74696E675F53656D3D
:100430005F310000436F756E74696E675F53656D61
:040440005F32000027
:100444001000000000000000017A5200017C01014C
:100454001B0D02001000000018000000344DFEFFC8
:100464008A03000000000000100000002C000000BF
:10047400AA50FEFF5E030000000000001000000010
:1004840040000000F453FEFF54030000000000008D
:08051000FC8F0100090000004E
:040000058000004037
:00000001FF
