:0200000480007A
:10000000B72F0000938F0F8073900F3015A8130047
:100010000000130000001300000013000000130094
:100020000000130000001300000013000000130084
:100030000000130000001300000013000000010086
:10004000970200009382020C73905230814001416C
:100050008141014281420143814301448144014580
:100060008145014681460147814701488148014950
:100070008149014A814A014B814B014C814C014D20
:10008000814D014E814E014F814F971102009381A6
:10009000E1CE170502001305E552979503009385FD
:1000A000257C01461122170502001305A546970578
:1000B00002009385654C0146C52817A5030013056A
:1000C000657A97B503009385A57937B6ABAB130670
:1000D000B6BAD92817B103001301C178EF60707068
:1000E000860293D21200F512638802008242110147
:1000F0006F00001073002030824211017300203025
:10010000711116C0F3222034E3CC02FC82421101AB
:10011000130141F806C20AC40EC612C816CA1ACC88
:100120001ECE22D026D22AD42ED632D836DA3ADCC7
:100130003EDEC2C0C6C2CAC4CEC6D2C8D6CADACC97
:10014000DECEE2D0E6D2EAD4EED6F2D8F6DAFADCA7
:10015000FEDE73252034F32510340A8601A07310C7
:10016000153492402241B2414242D2426243F243AC
:10017000025492542255B2554256D2566257F25703
:10018000064896482649B649464AD64A664BF64B33
:10019000065C965C265DB65D465ED65E665FF65F83
:1001A0001301C1077300203010C16374B50011053D
:1001B000E5BF828000000000000000000000000099
:1001C000000000000000000000000000000000002F
:1001D000000000000000000000000000000000001F
:1001E000000000000000000000000000000000000F
:1001F000197106C00AC20EC412C616C81ACA1ECC8D
:1002000022CE26D02AD22ED432D636D83ADA3EDCC6
:1002100042DEC6C0CAC2CEC4D2C6D6C8DACADECC96
:10022000E2CEE6D0EAD2EED4F2D6F6D8FADAFEDCA6
:100230009702020083A2423123A02200F32210344D
:1002400096DEEF00002B170102000321E12F02418F
:10025000F65273901234B72200009382028873A082
:10026000023082403242C2425243E24372448254DC
:100270001255A2553256C2565257E2577258864806
:100280001649A649364AC64A564BE64B764C865C1A
:10029000165DA65D365EC65E565FE65F0961730059
:1002A0002030970202009382E23123A0120023A2A1
:1002B000220023A4320023A6420023A8520023AA2E
:1002C000620023AC720023AE820023A0920223A21C
:1002D000A20223A4B20223A6C20223A8D20223AA06
:1002E000E20223ACF20223AE020323A0120523A2F2
:1002F000220523A4320523A6420523A8520523AADA
:10030000620523AC720523AE820523A0920723A2C7
:10031000A20723A4B20723A6C20723A8D20723AAB1
:10032000E20723ACF207EF40D025170102000321BA
:10033000A1210241F65273901234B7220000938239
:10034000028873A0023082403242C2425243E243EA
:10035000724482541255A2553256C2565257E25731
:10036000725886481649A649364AC64A564BE64B45
:10037000764C865C165DA65D365EC65E565FE65FB1
:10038000096173002030970202009382A22383A0A8
:10039000020003A1420083A1820003A2C20083A243
:1003A000020103A3420183A3820103A4C20183A427
:1003B000020203A5420283A5820203A6C20283A60B
:1003C000020303A7420383A7820303A8C20383A8EF
:1003D000020403A9420483A9820403AAC20483AAD3
:1003E000020503AB420583AB820503ACC20583ACB7
:1003F000020603AD420683AD820603AEC20683AE9B
:10040000020703AFC20983AF820782807370043092
:10041000197106C00AC20EC412C616C81ACA1ECC6A
:1004200022CE26D02AD22ED432D636D83ADA3EDCA4
:1004300042DEC6C0CAC2CEC4D2C6D6C8DACADECC74
:10044000E2CEE6D0EAD2EED4F2D6F6D8FADAFEDC84
:100450009702020083A2420F23A0220086DEEF2033
:10046000402D170102000321210E0241F652739024
:100470001234B72200009382028873A002308240B7
:100480003242C2425243E243724482541255A25550
:100490003256C2565257E257725886481649A649F4
:1004A000364AC64A564BE64B764C865C165DA65DD0
:1004B000365EC65E565FE65F09617300203073707A
:1004C000043001A07310453082807325403073F0F2
:1004D00043308280970700009387A7FE232EB5FE46
:1004E0002322C5FA232635F82320F5F8130505F84D
:1004F0008280411106C6EF40F005EF10700901E55A
:10050000B24041018280B24041016F2080229307B6
:1005100085007D575CC118C55CC51CC9232005003A
:1005200082802328050082805C41DCC1984798C501
:1005300098474CC38CC788C91C4185071CC1828061
:100540009041FD57130785006314F60039A83E87D4
:100550005C439443E37DD6FEDCC18CC798C54CC395
:1005600088C91C4185071CC1828018495C43EDB7CE
:10057000584114451C4914C71845544154C3D84325
:100580006314A7001845D8C32328050088437D15A8
:1005900088C382803041AE8701CE4C455841B29528
:1005A0004CC563E4E5000C414CC53E856F30101F1F
:1005B0008280411122C406C62A8426C2EF209010F0
:1005C0003C44635BF0025C5085CB9304440209A871
:1005D0003C44FD173CC43C446350F0025C5089CF5E
:1005E0002685EF20A0566DD5EF2080763C44FD1780
:1005F0003CC43C44E344F0FEFD573CC4EF20D00E25
:10060000EF20500C7C40635BF0021C4885CB9304C8
:10061000040109A87C40FD177CC07C406350F002B7
:100620001C4889CF2685EF2060526DD5EF2040729F
:100630007C40FD177CC07C40E344F0FEFD577CC04D
:100640002244B240924441016F20100A29C5411151
:1006500022C426C22A8406C6AE84EF20B0063440E7
:100660005C5C1840232C0402B387F6027D5670C0F0
:1006700018C430C4B386D740BA9736975CC058C404
:1006800091EC1C489DE3EF203006B2402244924496
:100690000545410182807370043001A013050401F7
:1006A000BD3513054402A535F9BF13050401EF203C
:1006B000E0498547E319F5FC913BF1B701E573701B
:1006C000043001A0011126CA4AC84EC606CE22CC6B
:1006D000B2892E89AA84A5C53305B502130555052F
:1006E000EF3080732A8435C1930745051CC144DC73
:1006F00023202405EF20007D34405C5C18407D56AB
:10070000B387F602232C040270C018C430C413054A
:100710000401B386D740BA9736975CC058C4C53B2E
:1007200013054402ED33EF20207C23083405228595
:10073000F2406244D2444249B249056182801305C5
:100740004005EF30606D2A8401E57370043001A02C
:1007500000C071BF01E57370043001A06375B5007E
:100760007370043001A0411122C409462E848145D2
:1007700006C6A93711C500DDB2402244410182807E
:100780007370043001A05D7186C6A2C4A6C2CAC03F
:100790004EDE52DC56DA5AD85ED632C6630A051CE3
:1007A0006382051C89476399F600585D8547630598
:1007B000F7007370043001A03689AE842A84EF20DC
:1007C000A05B11E5B24781C77370043001A0EF2030
:1007D000606F185C5C5C014B894BFD59130A040186
:1007E000930A44026365F70C63077919B247638182
:1007F000072463150B002808EF206048EF20C06E27
:10080000EF10C04FEF20006C7C406394370123222F
:1008100004043C446394370123240404EF20C06C97
:100820006C002808EF20C047631E051EEF2080697A
:10083000185C5C5C630CF70AEF20006BEF208068AB
:100840003C44634FF00039A85685EF20203019C191
:10085000EF2000503C44FD173CC43C446354F0007E
:100860005C50FDF323243405EF200068EF20806501
:100870007C40634FF00039A85285EF20202D19C12C
:10088000EF20004D7C40FD177CC07C406354F0009D
:100890001C48FDF323223405EF200065EF10006BA8
:1008A000054BEF202062185C5C5CE37FF7F2304080
:1008B0006305060C631F09120844A685EF30006E1D
:1008C0001C4434405840B6971CC463EAE70A1C5CD9
:1008D00014405850850714C41CDC5DC7130544023E
:1008E000EF20C02685476311F50AC9A8EF20C05F35
:1008F000B2455285EF204007EF20C05C3C44634F77
:10090000F00039A85685EF20602419C1EF2040443B
:100910003C44FD173CC43C446354F0005C50FDF380
:1009200023243405EF20405CEF20C0597C40634F06
:10093000F00039A85285EF20602119C1EF20404115
:100940007C40FD177CC07C406354F0001C48FDF3E4
:1009500023223405EF204059EF10405F31F17D3400
:10096000054B81B73C41E38F07E27370043001A06F
:100970007370043001A0304021E61C4085C71C5C28
:10098000585085071CDC39FBEF2000560545B64062
:10099000264496440649F259625AD25A425BB25BE7
:1009A000616182804840EF2040491C5C58502322FE
:1009B000040085071CDCE31307F279D5813CE9B715
:1009C0004844A685EF30805D3C4058441440B3074E
:1009D000F0403E9758C4637CD7025840BA975CC435
:1009E00009475C506306E902185C050718DCC9DF9B
:1009F000F5B54844A685EF30605A3C405844144051
:100A0000B307F0403E9758C4E37CD7FCF9B75C507D
:100A1000185C79DB185C7D1718DC185C050718DC9E
:100A2000A5D76DBD22857136EF104052014585B7BF
:100A3000EF20804B0145A1BF411126C2AA841305B6
:100A4000400522C406C6EF30203D2A8415CD232C54
:100A50000502FD577CC10547410558DC3CC42322F3
:100A60000400232004002324040023260400232060
:100A7000040423089404613C13054402493C814664
:100A800001468145228501332285B24022449244A9
:100A9000410182800DC5411122C426C206C64AC04A
:100AA000032945002A84EF20602C8144630CA900AF
:100AB000B2402244268502499244410182807370EB
:100AC000043001A05C448544FD175CC4F5F3814605
:100AD0000146814522854539E1BF31CDA1C90111CA
:100AE00022CC26CA4AC852C406CE4EC68947B6840E
:100AF00032892E8A2A846399F600585D8547630FF0
:100B0000F7047370043001A0C932185C5C5CAA89D8
:100B10006366F70281444E857532F2406244268551
:100B20004249D244B249224A056182803C41C5DB38
:100B30007370043001A07370043001A0304041E2B2
:100B40001C40D5CB1C5C7D5785071CDC3C4463876F
:100B5000E7083C44854485073CC475BFBD32185C3A
:100B60005C5CAA89636DF702304079DA4844D2852B
:100B7000EF30C0423C4058441440B307F0403E9729
:100B800058C46375D7005840BA975CC48947E39B43
:100B9000F4FA1C5CC5DB1C5CFD171CDC65B730403F
:100BA00045D24844D285EF30603F3C405844144021
:100BB000B307F0403E9758C4E367D7FCD9BFDDF4D4
:100BC0000844D285EF30803D1C4434405840B697ED
:100BD0001CC4E3E9E7F61C401CC4ADB75C50854477
:100BE0009DDB13054402EF10707615D5E30509F27D
:100BF000232099000DB74840EF2020242322040031
:100C000091B721CD3C4181C77370043001A01C41D4
:100C1000A1CB011122CC26CA2A844AC84EC606CED0
:100C20002E896530185C5C5CAA898144637DF7007D
:100C30001C5C7D5785071CDC3C446388E7023C4410
:100C4000854485073CC44E85B538F240624426850C
:100C50004249D244B249056182807370043001A0D8
:100C60005C41C5DB7370043001A05C5099E385449E
:100C7000D9BF13054402EF10706D75D9E30909FE61
:100C800085472320F900E5B7397106DE22DC26DA34
:100C90004AD84ED652D456D232C66302051C638A55
:100CA000051AB68AAE892A84EF20000D11E5B247F5
:100CB00081C77370043001A0EF20C0201C5C6392D8
:100CC0000714B247638E070A2808EF10507BFD54C3
:100CD00013094402130A0401EF200021EF1000025F
:100CE000EF20401E7C4063949700232204043C4480
:100CF0006394970023240404EF20001F6C0028084D
:100D0000EF10107A63130518EF20C01B1C5CADCFE9
:100D1000EF20801DEF20001B3C44634FF00039A8FA
:100D20004A85EF10B06219C1EF2080023C44FD17E4
:100D30003CC43C446354F0005C50FDF324C4EF20F9
:100D4000A01AEF2020187C40634FF00039A852858C
:100D5000EF10D05F19C1EF10B07F7C40FD177CC051
:100D60007C406354F0001C48FDF364C0EF20C017C2
:100D7000EF10C01DEF2000151C5CC1E7B247A9FFB2
:100D8000EF208016014555A0EF2000161C40DDC75E
:100D9000B2454A85EF10503DEF20C0123C44634FEE
:100DA000F00039A84A85EF10705A19C1EF10507A37
:100DB0003C44FD173CC43C446354F0005C50FDF3DC
:100DC00024C4EF206012EF20E00F7C40634FF0005E
:100DD00039A85285EF10905719C1EF1070777C40F9
:100DE000FD177CC07C406354F0001C48FDF364C0D8
:100DF000EF20800FEF10801531C9EF20A00C1C5C94
:100E0000B5DFCE8522854444EFF0CFF8639C0A0419
:100E10001C5C1840FD171CDC01E7EF20601148C086
:100E20001C48A1EFEF20400C0545F2506254D2540B
:100E30004259B259225A925A21618280EF20800889
:100E40004840EF107075EF20200A99B7EFF00FDCE3
:100E50006DB73C41E38707E47370043001A0737001
:100E6000043001A05C5044C4D5DF13054402EF10E8
:100E7000F04D4DD9EFF08FD975B713050401EF1080
:100E8000F04C8547E310F5FAF5B72285EFF06FF2E5
:100E9000EF10C00B014551BF1DC9411122C44AC00A
:100EA00006C626C244412E892A84EF10306C638323
:100EB000A40281464A8681452285F933854763002D
:100EC000F502B2402244924402494101828073708B
:100ED000043001A05C44054585075CC4DDB75C4473
:100EE00085075CC4F9BF15CDADC9011122CC26CA56
:100EF0004AC84EC652C42A8406CE3289AE89EFF063
:100F0000CFDC1C5C2A8A814485E35285EFF08FDBBD
:100F1000F240624426854249D244B249224A0561E0
:100F200082807370043001A0304001CE4C445C409C
:100F3000B2954CC463E4F5000C404CC44E85EF30D0
:100F4000E0051C5C7D57FD171CDC7C40638CE700D2
:100F50007C40854485077CC04DBF3C41D9D7737028
:100F6000043001A01C4899E3854445B713050401EA
:100F7000EF10D03D75D9E30909FE85472320F9001C
:100F8000E5B721C93C41A1CDA1CB011122CC26CA94
:100F90004AC852C42A8406CE4EC62E8AEFF0EFD23B
:100FA0001C5C2A89814491CB8329C400D285228587
:100FB000EFF04FDE8544232634014A85EFF08FD0D1
:100FC000F240624426854249D244B249224A056130
:100FD00082807370043001A07370043001A0EDDFD3
:100FE0007370043001A001E57370043001A0411159
:100FF00022C42A8406C6EF10F06C005CEF10D06E9D
:10100000B240228522444101828001E573700430A0
:1010100001A0411106C622C42A84EF10B06A1C5CEC
:10102000405C1D8CEF10506C2285B240224441017F
:10103000828019C1085D82807370043001A01DCDCB
:10104000978703009387077ED843630CE502D84750
:10105000630CE504D84B6307E504D84F6302E5044D
:10106000D853630DE502D8576308E502D85B6303E4
:10107000E502D85F630EE5006F20306C73700430BA
:1010800001A001470E07BA9723A007006F20F06A5E
:101090001D47CDBF1947FDB71547EDB71147DDB760
:1010A0000D47CDB70947F9BF0547E9BF68458280BD
:1010B0006CC5828003450505828009C5085D13352E
:1010C000150082807370043001A019C51C5D485D55
:1010D0001D8D1335150082807370043001A0978731
:1010E000030093872774984305C3984705C7984B17
:1010F00005C7984F05C7985305C7985705C7985B0C
:1011000015C7985F15C3828001470E07BA978CC335
:10111000C8C382800547D5BF0947C5BF0D47F5B78E
:101120001147E5B71547D5B71D47C5B71947F1BFF3
:10113000978703009387076FD8436308E502D84772
:10114000630BE502D84B630AE502D84F6309E50259
:10115000D8536308E502D8576307E502D85B6308F4
:10116000E502D85F6303A702828001470E07BA97A2
:1011700023A0070082800547D5BF0947C5BF0D479B
:10118000F5B71147E5B71547D5B71D47C5B7194797
:10119000F1BF411122C426C24AC02A8406C6AE84C9
:1011A0003289EF1030527840FD576314F700232244
:1011B00004043844FD576314F70023240404EF109B
:1011C000B0521C5C99E74A86A68513054402EF10CD
:1011D000B00CEF10304F3C44635BF0025C5085CBA9
:1011E0009304440209A83C44FD173CC43C446350AA
:1011F000F0025C5089CF2685EF1050156DD5EF10A9
:1012000030353C44FD173CC43C44E344F0FEFD57FC
:101210003CC4EF10704DEF10F04A7C40635BF0026D
:101220001C4885CB9304040109A87C40FD177CC0B1
:101230007C406350F0021C4889CF2685EF101011C6
:101240006DD5EF10F0307C40FD177CC07C40E3444E
:10125000F0FEFD577CC02244B24092440249410155
:101260006F10904805C579714ECE52CC06D63E8A95
:1012700022D426D24AD056CA5AC85EC662C4A547EE
:10128000BA8963F8E7007370043001A0737004300A
:1012900001A0AA8AAE843289B68B428B63090822E8
:1012A00013050006EF2050372A84630D05200A0934
:1012B000232865034A869305500A5A85EF20105C5F
:1012C00003C704001C587119230AE40203C7040071
:1012D0003E991379C9FF79C783C71400A30AF402A2
:1012E00083C71400E1C383C72400230BF40283C720
:1012F0002400CDCB83C73400A30BF40283C7340092
:10130000D5C383C74400230CF40283C74400D9CB60
:1013100083C75400A30CF40283C75400C1C783C71A
:101320006400230DF40283C76400ADCF83C774004B
:10133000A30DF40283C77400B5C783C78400230ECE
:10134000F40283C78400B9CF83C79400A30EF402CC
:1013500083C79400A1CB83C7A400230FF40283C7E3
:10136000A400A9C383C7B400A30FF40283C7B400C9
:1013700095CB83C7C4002300F40483C7C4009DC376
:1013800083C7D400A300F40483C7D40081CF83C7EC
:10139000E4002301F40483C7E40089C783C7F40091
:1013A000A301F404130B44005A85A301040423266B
:1013B000340323283405232A0404EFF08F96130501
:1013C0008401EFF00F96A947B3873741232C04041B
:1013D00000C81CCC40D023220404232E04045E86C3
:1013E000D6854A85EFF00F8F08C063040A002320DA
:1013F0008A007370043017F9010013092913832739
:10140000090097F401009384241491C798409C40EC
:101410007C4385077CC317F701001307E7111C43C2
:10142000850797F6010023A9F6109C40D5CB8327AA
:10143000090017FA0100130AAA2089EB9C40DC5727
:1014400063E6F90097F7010023A0871097F70100E2
:101450009387C70C984397F601009386660D5C54FA
:101460009442050717F60100232AE60A38C463F6FA
:10147000F60017F70100232DF70A5147B387E7025B
:10148000DA853305FA00EFF02F8A8327090081C738
:101490009C40FC43BDE383270900054499C79C4059
:1014A000DC5763F43701EFE07FF62285B250225417
:1014B00092540259F249624AD24A424BB24B224CF0
:1014C000456182805A85EF2050277D54F9BF13155E
:1014D0002600EF2070142A8BE31405DC7D54F1B74D
:1014E00097F7010023A28706184385476301F70297
:1014F00017FA0100130ACA1491BF984094407C4324
:10150000FD177CC3FC42C1FB7360043069B7814A9C
:1015100017FA0100130ACA12514CA94B33858A03EA
:10152000850A5295EFE0BFFEE39A7AFF97FB010030
:10153000938B8B1D5E85EFE09FFD97FA0100938AE8
:10154000EA1D5685EFE0BFFC17F501001305451EA7
:10155000EFE0FFFB17F501001305C51EEFE03FFBB1
:1015600017F501001305451FEFE07FFA97F701001B
:1015700023AA77FD97F7010023A457FDC1BD4111B0
:1015800022C406C626C24AC02A847370043097F467
:1015900001009384A4F99C40F9E311E497F701005A
:1015A000938787FA8043130944004A85EFE05FFC84
:1015B0001C5489C713058401EFE09FFBCA8517F50A
:1015C000010013052518EFE03FF697F70100938718
:1015D000E7F6984397F70100938747F49C43050784
:1015E00097F6010023ACE6F49840850797F60100D2
:1015F00023A6F6F201CB97F701009387E7F498430F
:10160000784349EF9C40B1C797F701009387C7F330
:101610009843630F870873700430984039EB17F7CD
:101620000100130727F214439442A5E27D5797F671
:10163000010023A3E6EE984009CF9843784311CBED
:10164000984394437C43FD177CC3FC4299E3736049
:101650000430B2402244924402494101828097F70B
:101660000100938767EE98439C437C4385077CC3C6
:101670002DB794439843F8420507F8C217F70100C5
:10168000130747EC14439442D5D2184358475847A0
:10169000584397F6010023A1E6E871BF98439443AD
:1016A0007C43FD177CC3FC42B1FF7360043099BFDB
:1016B00097F70100938707E69C4381C77370043056
:1016C00001A02244B2409244024941016FE01FD47C
:1016D00041C517F70100130727E714438147638BC0
:1016E000A606411106C622C426C27370043097F6BE
:1016F00001009386A6E39C4291C710431C437C42A1
:1017000085077CC29C42AA84404981C71C43FC4394
:10171000B9E797F701009387E7E29C43638B87045F
:1017200097F701009387C7E19C436384870497F789
:101730000100938767026309F40297F7010093871A
:1017400067006301F4028547B240224492443E851B
:10175000410182803E8582807370043001A0EF5089
:10176000A07D45BF9147CDB79C5493B7170089071B
:10177000E1BF8947D1BF7370043097F701009387A9
:10178000E7DA984309EF15C59C43485581CB97F795
:101790000100938767DB9843784315E3828017F74E
:1017A0000100130767DA14431843F8420507F8C22B
:1017B00061FD17F70100130727D90843F1B79843D4
:1017C00094437C43FD177CC3FC42E9FB7360043007
:1017D0008280411122C42A8406C6EFE01FCF11E4A3
:1017E00097F70100938747D680434054EFE09FCDA1
:1017F000B2402285224441018280A54763F5B700AB
:101800007370043001A0011122CC06CE26CA4AC84A
:101810004EC652C42A847370043017F901001309AC
:10182000E9D083270900D5EF79C43C486389F508DE
:1018300017F70100130747D163FCB7001443638D0A
:10184000860C18434457B3B4950093C4140029A0E0
:101850000443818C93B4140058546384E70A1C4CED
:101860002CC863C60700A947B385B7400CCC9317B3
:101870002700BA97584897F90100938969DC8A07CD
:10188000CE97631BF702130A44005285EFE05FCE48
:1018900017F701001307C7C95C5418436376F700B4
:1018A00017F701002326F7C85147B387E702D2850F
:1018B0003385F900EFE05FC799C0EFE03FB58327BC
:1018C000090081CB97F70100938707C89C43FC432D
:1018D0009DEBF2406244D2444249B249224A05613A
:1018E000828097F70100938727C698439C437C43E7
:1018F00085077CC31DF897F701009387E7C48043F1
:101900002DB74CD4A9BF6244F240D2444249B249F7
:10191000224A05616F50406281443DBF25C10111DB
:1019200026CA97F40100938424C29C4006CE22CCA0
:101930004AC84EC6638DA7027370043017F90100C0
:101940001309C9BE8327090091C798409C407C4376
:1019500085077CC3584997F701009387E7DF630247
:10196000F7028327090081C79C40FC43A5EBF240A6
:101970006244D2444249B2490561828073700430A6
:1019800001A01C5517F70100130787DAE38BE7FC6A
:10199000E9FB930945002A844E85EFE07FBD17F7E8
:1019A00001001307E7B85C5418436376F70017F794
:1019B0000100232FF7B65147B387E70217F501005F
:1019C000130505C8CE853E95EFE01FB69C405854E0
:1019D000DC57E368F7F8EFE07FA361B76244F240B9
:1019E000D2444249B24905616F50005515CD0111ED
:1019F00022CC26CA4AC82A8406CE4EC6EFE0FFACE7
:101A0000584897F70100938727D52A8981446300B6
:101A1000F7024A85EFE01FABF24062442685424957
:101A2000D244B249056182807370043001A01C5415
:101A300017F501001305C5CFE38DA7FCF9FB97F758
:101A40000100938727AD9C43A9EB97F7010093878B
:101A5000A7AF9C43445493094400DC574E85B3B46C
:101A6000F400EFE0FFB017F70100130767AC5C5418
:101A7000184393C414006376F70017F70100232975
:101A8000F7AA5147B387E70217F50100130545BBD5
:101A9000CE853E95EFE05FA9ADBF93058401EFE0F1
:101AA000BFA885BF0111056506CE22CC26CA4AC84B
:101AB0004EC652C456C25AC0EF200036630E051AF5
:101AC000AA8413050006EF2020352A84630A051C2A
:101AD00005669305500A04D92685EF20205A04583C
:101AE0008567F117BE94B7474C4593879744130A0F
:101AF00044005CD85285230C0402A301040423266D
:101B0000040223280404232A0404EFE09FA1130500
:101B10008401EFE01FA1A947232C0404F19800C819
:101B20001CCC40D023220404232E04040146971524
:101B300000009385E5B12685EFE0DF9908C073705A
:101B4000043017F901001309699E8327090097F4EF
:101B500001009384649F91C798409C407C43850713
:101B60007CC317F701001307279D1C43850797F6D1
:101B7000010023A3F69C9C40C9C38327090097F961
:101B800001009389E9AB81EB9C40DC5789E797F72B
:101B9000010023AB879A97F7010093872798984312
:101BA00097F601009386C6985C549442050717F691
:101BB00001002325E69638C463F6F60017F7010006
:101BC0002328F796139527003E950A05D2854E9552
:101BD000EFE09F958327090081C79C40FC43DDE728
:101BE0008327090091C39C40EF1070498547630526
:101BF000F50C59E17370043001A097F7010023A59B
:101C000087941843854797F90100938969A3E314E2
:101C1000F7F8CE8A17FB0100130B0BAF5685D10ADC
:101C2000EFE0FF8EE31C5BFF17F501001305C5AD68
:101C3000EFE0FF8D97FA0100938A4AAE5685EFE0F8
:101C40001F8D17F501001305A5AEEFE05F8C17F5AA
:101C50000100130525AFEFE09F8B17F50100130579
:101C6000A5AFEFE0DF8A97F7010023AD678D97F707
:101C7000010023A7578D05B7F2406244D244424980
:101C8000B249224A924A024B0561828098409440B0
:101C90007C43FD177CC3FC42A1F77360043089B715
:101CA0006244F2404249B249224A924A024B268596
:101CB000D24405616F20602873700430FD5717F718
:101CC0000100232BF784624497F7010023A0A78625
:101CD000F240D2444249B249224A924A024B97F713
:101CE000010023A9078405616FE0AFDB7370043046
:101CF00097F7010023AC07826FE0EFE817F70100C8
:101D0000130747811C4385071CC38280737004300E
:101D100097F7010093878781984305E317F7010040
:101D20001307478108439C4381CB97F701009387B2
:101D3000A7819843784301EF828017F701001307CA
:101D4000A78014431843F8420507F8C2C1BF98435F
:101D500094437C43FD177CC3FC42F9FF736004305D
:101D60008280411106C622C4EFE02FF697E70100FA
:101D70009387477C8043EFE0EFF4B2402285224412
:101D80004101828097E701009387077B8843828027
:101D9000797106D622D426D24AD04ECE52CC56CA1B
:101DA0005AC85EC697E701009387C7769C43B1EF98
:101DB00017E70100130707781C43850797E6010022
:101DC00023AAF676832A0700638F0A0697E70100A5
:101DD000938787749C43814463F1FA0897F9010063
:101DE0009389098617EA0100130A0A7683270A00F5
:101DF0008546D85793172700BA978A07BE9983A7B5
:101E0000090063FFF600854421A897E70100938746
:101E1000A7719C438144850717E701002326F770CB
:101E200097E70100938707709C4391C38544B250A4
:101E30002254268502599254F249624AD24A424BB0
:101E4000B24B4561828017E401001304A46F1C406B
:101E50009C43DDC37370043001A017E40100130438
:101E6000646E97E901009389A97D17EA0100130ABE
:101E7000AA6D17EB0100130BAB6B1C409C43B5C361
:101E80001C40DC4703A9C70083274900930B490086
:101E90005E8563EEFA04EFE0AFED83278902130558
:101EA000890199C3EFE0CFEC8327C90203270B0018
:101EB000DE85139527003E950A054E956376F7005B
:101EC00017E701002326F766EFE00FE683270A00F5
:101ED0000327C902DC57E362F7FA1C4085449C43A0
:101EE000C5F3FD5717E701002328F76201B717E78D
:101EF00001002323F762DDBD17E7010013074764E4
:101F00001C40184397E6010023AEE66217E7010084
:101F10002328F76297E70100938787609C43850732
:101F200017E70100232EF75E1C409C4399E7FD57FD
:101F300017E701002322F75E51BD1C40DC47DC4758
:101F4000DC4317E701002329F75C49B597E7010057
:101F50009387475C984301E77370043001A0011137
:101F600006CE22CC26CA4AC84EC652C456C25AC051
:101F70007370043097E401009384445B984061EBF4
:101F800098437D1797E6010023A6E6589C43D9EBBA
:101F900097E701009387475A9C43C9C797EA010016
:101FA000938A0A6A17EA0100130A8A5817E901009E
:101FB00013098959854919A83385EA00EFE0CFD67E
:101FC000832709005854DC576379F70483A70A0F65
:101FD000C1CF83A7CA0FC04713058401EFE04FD9D3
:101FE000130B44005A85EFE0AFD85C5483260A00F7
:101FF000DA85139527003E950A052A875695E3FD55
:10200000F6FA17E701002325F752EFE0EFD1832717
:1020100009005854DC57E36BF7FA97E7010023A354
:1020200037516DB701449C4081CB97E701009387FE
:10203000A7519C43FC4395E72285F2406244D24479
:102040004249B249224A924A024B0561828017E70F
:1020500001001307674F14431843F8420507F8C2FD
:1020600005B7EF40706DC9BF17E401001304C44BFE
:102070001C4095C31C40054999CF193B09C597E7FA
:10208000010023A1274B1C40FD1717E70100232D5A
:10209000F7481C40FDF397E701009387A748984352
:1020A0008547E311F7F8EFE06FB60544ADBF11CDFA
:1020B00081E57370043001A017E70100130787451D
:1020C0001C4399C77370043001A07370043001A0E1
:1020D000411122C406C614431841850617E60100C3
:1020E000232AD64297E601009386C64494423304DD
:1020F000B70000C163F7E602637FE40063FD86007A
:1021000097E701009387474488431105EFE04FC6E6
:102110002285EF40305C1D3D01C9B240224441019F
:102120008280E36FE4FCD9BF2244B24041016FE0FA
:10213000EFAD11C917E701001307C73D1C4391C755
:102140007370043001A06FE06FAC411106C622C469
:102150001843AA87050797E6010023ADE63A97E6FC
:1021600001009386663E17E701001307A73C18435A
:1021700088423304F7001105EFE08FBF2285EF405E
:102180007055E93311E52244B24041016FE00FA8D8
:10219000B240224441018280411122C406C697E721
:1021A0000100938727379C430144850717E7010007
:1021B0002322F73697E70100938707389C4363E0B3
:1021C000F51217EE0100130E6E5397E20100938291
:1021D000624601440147854F1303500A21A0311E76
:1021E000638DC20B83278EFFBA86F5DB8327CEFF74
:1021F000DC43232EFEFE638AC70F03AFC700DC4318
:102200002A97814E232EFEFE6385C70783A8C70049
:1022100093874803232017015CC383A788042326E0
:10222000F7011CC783A7C8021CCB83A70805232C72
:1022300007005CCB03A8080383470800639067048A
:10224000C287850783C60700B3850741E38B66FE17
:102250008981C205C181231EB700850E13070702BD
:1022600063061F038327CEFFDC43232EFEFEE39F7E
:10227000C7F983274E00232EFEFE49BF8145231E4A
:10228000B700850E13070702E31E1FFD7694131790
:102290005400311EBA86E397C2F597E70100938791
:1022A000672A03AE070083270E00639D070E97E79A
:1022B00001009387E72803AE070083270E0063928F
:1022C000071817EE0100130EAE3783274E109DE35B
:1022D00083278E116395072019C223200600BD3184
:1022E0002285B24022444101828083274E00232E62
:1022F000FEFE21B783278E1017EF0100130F0F4545
:10230000DC4317E701002321F7446380E73383A20E
:10231000C700DC43AA96814E17E701002326F74247
:10232000914F1303500A6388E70783A8C700938778
:10233000480323A01601DCC283A7880423A6F60164
:102340009CC683A7C8029CCA83A7080523AC0600C5
:10235000DCCA03A80803834708006391672AC28781
:10236000850703C70700B3850741E30B67FE93D7D3
:102370002500C207C183239EF600850E93860602C0
:102380006386122983278E10DC4317E70100232D73
:10239000F73AE39CE7F983270E1117E7010023259D
:1023A000F73A61B783274E00130F8E00D4432322E0
:1023B000DE006388E629B307E500D84283A2C600A1
:1023C000814E2322EE00894F1303500A6306EF0665
:1023D0008328C7001387480323A01701D8C303A786
:1023E000880423A6F70198C703A7C80298CB03A7C0
:1023F000080523AC0700D8CB03A80803034708004F
:102400006318671C4287050783460700B305074129
:10241000E38B66FE13D7250042074183239EE70026
:10242000850E93870702638D121B83264E00D842C8
:102430002322EE00E31EEFF80327CE002322EE0056
:1024400041BF83274E00130F8E00DC432322FE0082
:102450006384E71F83A2C700DC43AA96814E232230
:10246000FE00894F1303500A6306FF0683A8C700C6
:102470009387480323A01601DCC283A7880423A600
:10248000F6019CC683A7C8029CCA83A7080523AC93
:102490000600DCCA03A80803834708006396671098
:1024A000C287850703C70700B3850741E30B67FEB3
:1024B00093D72500C207C183239EF600850E93861D
:1024C0000602638B120F83274E00DC432322FE009B
:1024D000E31EFFF88327CE002322FE0041BF83279F
:1024E000CE1197EE0100938EAE27DC4317E7010073
:1024F0002326F7266384D71383AFC700DC43330753
:10250000D500014397E6010023AAF6240D4F894226
:102510009308500A6387D707C8479307450308C342
:102520005CC33C452326E7011CC75C551CCB1C55EE
:1025300099C3232657003C49232C07005CCB032872
:1025400005038347080063951705C287850783C67F
:102550000700B3850741E38B16FF93D72500C20719
:10256000C183231EF700050313070702638AAF0226
:102570008327CE11DC4397E6010023A1F61EE39DDD
:10258000D7F983274E1297E6010023A9F61C69B7F5
:102590008147231EF700050313070702E39AAFFCE8
:1025A0001A94E31C06D225BB8147239EF600850EB4
:1025B00093860602E39912F117EE0100130E4E08FE
:1025C00083274E10769493165400E38307D01DB3EF
:1025D0000147239EE700850E93870702E39712E5E4
:1025E00097E701009387C7F503AE0700769493162B
:1025F000540083270E00E38607CCA1B58147239EB4
:10260000F600850E93860602E39E12D783278E116D
:10261000769493165400E38107CCD1B583274E12EC
:1026200017E70100232CF712C1BD83270E1117E70E
:102630000100232BF710E1B98327CE002322FE00EF
:1026400011BD8326CE002322DE00B5B3797126D2D8
:102650004AD04ECE52CC56CA5AC85EC606D622D4EE
:1026600097E90100938909EB17E90100130949FD76
:1026700017EA0100130A8AEB97EA0100938ACAEC71
:1026800097EB0100938B4BEB97E40100938404EBF1
:10269000054B21A883A7090003244910850717E7E4
:1026A00001002329F7E65D3011E89C40E5F7832718
:1026B0000900E37CFBFEEFD07FD5C5BF737004300B
:1026C00083270A00B9E383270911C0471305440093
:1026D000EFD01FEA83A70B00FD1717E70100232D9A
:1026E000F7E49C40FD1717E701002329F7E483274F
:1026F0000A0089C783A70A00FC4385E30858EF1046
:10270000D0032285EF1070034DB703A70A0083A7FB
:102710000A007C4385077CC37DB703A70A0083A614
:102720000A007C43FD177CC3FC42E9FB7360043064
:10273000F1B797E701009387E7DD9C43DDE34111A3
:1027400006C697E7010023AF07DC17E70100130770
:10275000A7DF1C43B7A6A5A59386565A9C5B8C435E
:10276000639BD500D0436318B60094476395C600B9
:10277000DC476388D70008430C4393854503EF206B
:10278000607397E601009386A6DA904217E701008E
:10279000130707EB11A89C42B9CB9C42FD1717E623
:1027A00001002327F6D8904293172600B2978A0794
:1027B000BA979C43EDD3904293172600B2978A07AD
:1027C000B305F700D441A107BA97D442D4C16383BB
:1027D000F602DC46B24017E701002327F7D6410195
:1027E0008280854717E70100232EF7D2828073701D
:1027F000043001A0D1473306F602D442329754C3C5
:10280000C9BF01114AC806CE22CC26CA4EC62A89A3
:102810007370043097E40100938444D19C4017E422
:102820000100130464D2D9E76314090003290400EA
:10283000930949004E85EFD0BFD38327890289C70A
:1028400013058901EFD0DFD2CE8517E5010013050E
:10285000A5F0EFD07FCD9C4081C71C40FC43ADE389
:102860001C40638B27079C409DCF737004309C40B5
:10287000C1EB97E701009387E7CC9843184325EB1A
:10288000FD5717E701002329F7C89C4089CF1C405A
:10289000FC4391CB184014407C43FD177CC3FC42A1
:1028A00099E373600430F2406244D2444249B24931
:1028B0000561828018401C407C4385077CC3ADB70E
:1028C000184014407C43FD177CC3FC42D1FB73606D
:1028D00004301C40E39927F99C40A1C397E701000D
:1028E000938747C39C43ADCB7370043001A09C43D6
:1028F000DC47DC47DC4317E70100232FF7C071B743
:1029000018401C407C4385077CC397E701009387F0
:1029100067C3984318432DD7D9BF97E70100938722
:10292000A7C117E701001307A7D19C43032787110D
:10293000631DF700F240624497E7010023A607C039
:10294000D2444249B249056182806244F240D24495
:102950004249B2490561F1BB6244F240D244424966
:10296000B24905616FD09FAA3DC9411126C297E4C3
:102970000100938464BD4AC02E898C4006C622C4DF
:10298000E105EFD0FFBB88401105EFD07FBEFD57BA
:10299000630AF90497E701009387C7B98043984019
:1029A0009C434A9440C3636CF40497E70100938707
:1029B00067B988438C409105EFD09FB897E7010035
:1029C000938787B59C436376F40097E7010023A5BE
:1029D00087B4B2402244924402494101828073701C
:1029E000043001A08C402244B2409244024917E5D1
:1029F0000100130565D6910541016FD0FFB297E73D
:102A000001009387E7B3884322448C40B24092444C
:102A10000249910541016FD0BFB211C997E701008A
:102A2000938747AF9C4399E77370043001A073709C
:102A3000043001A0411126C297E401009384C4B080
:102A40009840AE878C40B7060080D58F06C622C45A
:102A50001CCFE1053284EFD03FAD88401105EFD0A7
:102A60003FB1FD57630EF40097E70100938787ACF1
:102A70008843B24092442295224441016F408045F0
:102A80008C402244B240924417E501001305C5CCA6
:102A9000910541016FD05FA925CD411126C297E470
:102AA0000100938464AA4AC02E898C4006C622C4C1
:102AB000E1053284EFD05FA788401105EFD05FAB0E
:102AC0008547630AF40497E701009387A7A680432C
:102AD00098409C434A9440C3636CF40497E7010018
:102AE000938747A688438C409105EFD07FA597E751
:102AF0000100938767A29C436376F40097E7010087
:102B000023AC87A0B2402244924402494101828012
:102B10007370043001A08C402244B24092440249B8
:102B200017E50100130545C3910541016FD0DF9FF3
:102B300097E701009387C7A0884322448C40B240A6
:102B400092440249910541016FD09F9F411106C6F1
:102B500022C426C25C45C04735CC93048401268537
:102B6000EFD01FA197E701009387C79A9C43B5E771
:102B7000930444002685EFD0BF9F97E70100938719
:102B8000279B58549C4363F6E70097E7010023A175
:102B9000E79A93172700BA978A0717E501001305EC
:102BA00025AAA6853E95EFD03F9897E70100938729
:102BB000A7999C4358540145DC5763F8E7008547C3
:102BC00017E701002320F7960545B24022449244BE
:102BD000410182807370043001A0A68517E50100D1
:102BE000130505B5EFD05F94C9B797E70100938748
:102BF00067929C4381E77370043001A0411106C6BF
:102C000022C426C2B70700804045CD8F1CC12DC409
:102C1000EFD01F96930444002685EFD07F9597E769
:102C200001009387E79058549C4363F6E70097E7C9
:102C3000010023AFE78E93172700BA978A0717E59D
:102C400001001305E59F3E95A685EFD0FF8D97E720
:102C500001009387678F9C4358540145DC5763F804
:102C6000E700854717E70100232EF78A0545B240A4
:102C700022449244410182807370043001A011CD3E
:102C800097E701009387C789984397E701009387E7
:102C9000678A9C4318C15CC182807370043001A0B4
:102CA00055C1D1CD411106C622C42A8773700430A4
:102CB00097E801009388888783A7080091CB97E75E
:102CC00001009387678894439C43FC428507FCC2BC
:102CD00017E30100130303869C4103260300FD56FE
:102CE0000144638FD70217EE0100130E6E83032594
:102CF0000E000328070054436305A80005446371D0
:102D0000D6023308D6400544637CF80003250E0044
:102D1000918F03260300B6979CC108C350C301449A
:102D200083A7080081CB97E701009387E7819C4345
:102D3000FC4381EF2285B2402244410182807370BE
:102D4000043001A07370043001A0EF40E01EDDB735
:102D5000854717D701002327F77C828019C1684572
:102D600082800145828011C16CC5828097D70100A5
:102D70009387877D8843828097D701009387077B5D
:102D80009C43054589CB97D701009387A778884353
:102D9000133515000605828031CD011126CA97D45E
:102DA00001009384647A9C4006CE22CC4AC84EC669
:102DB0005855DC576379F7021C4D63C707009C40E8
:102DC000D457A947958F1CCD93172700BA97584918
:102DD00017E901001309C9868A07CA97630DF7002E
:102DE0009C40DC575CD5F2406244D2444249B2492F
:102DF000056182808280930945002A844E85EFD048
:102E00002FF79C4017D70100130787721843DC5730
:102E10005CD46376F70017D70100232BF770139566
:102E200027003E9562440A05F240D244CE854A9579
:102E3000B249424905616FD02FEF19CD411106C645
:102E400022C426C297D70100938707708043630787
:102E5000A4007370043001A0014582807C4881E7A2
:102E60007370043001A054543848FD177CC8638344
:102E7000E60099C70145B240224492444101828054
:102E8000930444002685EFD0AFEE3C4817D70100ED
:102E90001307076A144329471D8F5CD418CC63F6C7
:102EA000F60017D701002325F7685147B387E702DB
:102EB00017D501001305C578A6853E95EFD0CFE65E
:102EC000054555BF7370043097D701009387076697
:102ED0009C4391CB97D701009387076798439C4306
:102EE0007C4385077CC3828097D701009387076462
:102EF0009C438DC397D70100938707659843784318
:102F000011CB984394437C43FD177CC3FC4299E367
:102F100073600430828097D701009387E762904303
:102F200094439843A947D456084E958F1CCF82806E
:102F300097D7010093874761984309C79443F84A9C
:102F40000507F8CA8843828079714AD006D622D410
:102F500026D24ECE2A897370043097D40100938410
:102F6000E45C9C4017D401001304045EBDE31C40E4
:102F7000BC4F89E71C400547F8CFD1E19C4081C791
:102F80001C40FC43F1EB737004309C408DEF1C40FF
:102F9000A84F11C5630409021C4023AC07041C4060
:102FA00023AE07049C4081C71C40FC438DEBB2500C
:102FB000225492540259F2494561828018403C4F94
:102FC000FD173CCFE9BF18401C407C4385077CC3FC
:102FD0007DBF18401C407C4385077CC349BF184017
:102FE00014407C43FD177CC3FC42F1F37360043052
:102FF000B250225492540259F249456182800840ED
:103000002EC61105EFD0CFD6B245FD576380F50629
:1030100097D701009387075283A9070018409C4364
:10302000AE992322370163ECF90497D70100938707
:10303000675188430C409105EFD08FD097D701009E
:103040009387874D9C4363F6F90097D7010023A52A
:10305000374DEFD0AFBB1DB7184014407C43FD1770
:103060007CC3FC428DF37360043031BF0C4017D534
:1030700001001305656E9105EFD00FCBD9BF97D72F
:1030800001009387E74B88430C409105EFD04FCB6D
:10309000C9B779714AD04ECE06D622D426D252CCA8
:1030A0002E89B2897370043097D401009384044848
:1030B0009C4017D4010013042449F9EF18408947B4
:1030C000784F630CF7001C401345F5FFB84F798D1E
:1030D000A8CF1C400547F8CFADE69C4081C71C40F7
:1030E000FC43F5E3737004309C40B1E7638609004C
:1030F0001C40BC4F23A0F900184085470145784F7C
:10310000630BF7001C401349F9FF0545B84F3379AD
:10311000E90023AC27051C4023AE07049C4081C76F
:103120001C40FC43C1E3B250225492540259F2496C
:10313000624A4561828018401C407C4385077CC3FD
:1031400075B7084036C61105EFD08FC2B246FD579D
:103150006385F60897D701009387C73D03AA070048
:1031600018409C43369A232247016363FA0897D795
:1031700001009387273D88430C409105EFD04FBC59
:1031800097D70100938747399C436370FA0697D716
:10319000010023A3473991A818401C407C438507B0
:1031A0007CC329BF184014407C43FD177CC3FC42FC
:1031B000BDFB73600430B250225492540259F2495C
:1031C000624A45618280184014407C43FD177CC3ED
:1031D000FC4289FB7360043031B70C4017D5010005
:1031E000130585579105EFD02FB4EFD02FA2F5B579
:1031F00097D701009387C73488430C409105EFD0DF
:103200002FB4E5B751C1411106C622C426C24AC037
:103210007370043097D40100938444319C40B9EB1F
:1032200099C23C4D9CC2B2878946704D74CD2E87A1
:103230002A846386D70663FCF6048D456387B7004E
:1032400091456395B7006300D60C38CC8547630F72
:10325000F60405449C4081CB97D701009387C72E85
:103260009C43FC43A9E32285B24022449244024994
:103270004101828097D701009387072D98439C4393
:103280007C4385077CC369BF7370043001A0854609
:10329000E39ED7FA3C4D33E7B70038CD45BF3C4DF0
:1032A00085073CCD65B7EF30304975BF1309440041
:1032B0004A85EFD0EFAB17D70100130767275C549F
:1032C00018436376F70017D701002323F7265147E9
:1032D000B387E70217D5010013058536CA853E95E9
:1032E000EFD08FA41C5481C77370043001A097D70E
:1032F0000100938767259C435854DC57E3FBE7F4B0
:10330000EFD0CF90B9B70144B1B739CD011122CC7C
:1033100026CA4AC84EC652C456C206CEBA89368A92
:10332000B2842E892A84EFD04F9AAA8A63050A00B4
:103330003C4C2320FA00784C89477CCC6389F4020A
:1033400063F4970C8D466387D40091466396D4004E
:10335000630AF70A232C24058547631EF7061C54CD
:1033600099CB7370043001A07370043001A03C4C01
:1033700085073CCCD5B797D701009387A7199C4305
:10338000ADEB930444002685EFD08F9E17D7010044
:103390001307071A5C5418436376F70017D7010028
:1033A0002328F7185147B387E70217D50100130503
:1033B0002529A6853E95EFD02F9797D701009387B3
:1033C000A7189C435854DC5763F7E700638509004E
:1033D000854723A0F90005445685EFD0AF8E22859E
:1033E000F2406244D2444249B249224A924A0561BB
:1033F00082809305840117D5010013056533EFD052
:10340000AF9265BF0144C9BF8547E397F4F43C4CD4
:1034100033E92701232C240581B74DC1011122CCAA
:1034200026CA2A844AC806CE4EC6AE84EFD0EF899B
:103430008947744C7CCC3C4C05472A8985073CCC99
:103440006395E6061C5481C77370043001A097D7BA
:1034500001009387270C9C43ADE7930944004E85F8
:10346000EFD00F9117D701001307870C5C54184356
:103470006376F70017D70100232CF70A5147B3876B
:10348000E70217D501001305A51BCE853E95EFD0A9
:10349000AF8997D701009387270B9C435854DC577B
:1034A00063F5E70099C085479CC06244F240D2446E
:1034B000B2494A85424905616FD0CF8073700430AC
:1034C00001A09305840117D5010013056526EFD0EF
:1034D000AF85C1B7AA8729C57370043017D701001B
:1034E0001307C70414439DE2F04F89460145631555
:1034F000D60023AE070405451C4381CB97D70100B6
:10350000938787049843784315E3828097D6010018
:1035100093868603904294427442850674C2E9B74A
:1035200097D70100938747029C437DB79843944304
:103530007C43FD177CC3FC42E9FB7360043082804E
:103540005D71A6C2CAC052DC56DA5AD85ED686C6AB
:10355000A2C44EDE62D466D26AD017D90100130924
:10356000A9FF17DB0100130B6BFE97D401009384B6
:1035700024FE97DA0100938AEAFD054AA54B8327CA
:103580000900984363010712DC4783A90700EFE0B5
:10359000EFF6EFE0AFF783270B002A8C6362F50AA2
:1035A00097D7010023A4A7FA01466370351B884012
:1035B000B3858941EFD0FFBDEFE05F99630105124C
:1035C0008840814601462C00EFD00FEC4DD9A24730
:1035D000E3C807FEC24983A7490189C7138549008B
:1035E000EFC01FF9EFE08FF283270B002A8C636D89
:1035F000F508A24717D70100232A87F5E3E2FBFC71
:10360000B317FA0013F70721631A071613F7770C9D
:103610006318071E93F70702C5D74E85EF00F01118
:1036200045B7DC47C04783AC0700930944004E858B
:10363000EFC01FF45C50228582975C4C6384470B7B
:1036400083270900984371FF03A70A0097D601005A
:1036500023AE86EF97D6010023AEF6EE97D7010092
:1036600023ACE7EEEFE09F8EA1BFDC47C04703AD80
:103670000700930C44006685EFC09FEF5C502285E5
:1036800082975C4C6386470983270900984371FF42
:1036900003A70A0097D6010023AEF6EA97D70100E8
:1036A00023ACE7EAB9B7EFE06FE5EFE02FE6832759
:1036B0000B002A8CE366F5F883A70A00884081494D
:1036C0009043B385894117D70100232187E9133639
:1036D0001600EFD01FACEFE07F87E31305EEEFC0DD
:1036E000FFD2F9BD1C4CCE85E69763E9FC049C40F3
:1036F00089CF02CA66CC22CEEFF00FE8884081461F
:1037000001464C08EFD02F8805FD7370043001A0EE
:103710001C4CE685EA97636CFD049C4089CF02CA85
:103720006ACC22CEEFF04FE58840814601464C0836
:10373000EFD06F8531F97370043001A003250900C3
:103740005CC000C8EFC0DFDFE5BDEFE03F8083274E
:103750000900DC47C047930C44006685EFC05FE179
:103760005C4C638F47035C502285829791BD032593
:1037700009005CC000C8EFC0BFDC39B7B24723AC5A
:10378000F900A5CFE29723A2F90023A83901938578
:103790004900636FFC0403A50A00EFC07FDA0DB592
:1037A0001C4C00C83387F90058C0636DEC02330C21
:1037B0003C416363FC029C4089CF02CA4ECC22CEBE
:1037C000EFF08FDB8840814601464C08EFC0BFFB1D
:1037D00059F97370043001A003A50A00E685EFC013
:1037E0003FD651B703250900E685EFC07FD5A5BFB9
:1037F00003250900EFC0DFD4E1B37370043001A0EA
:10380000B24783A6890123A839013387D70023A2B1
:10381000E9006364EC04B307FC4063EBD70483A7BF
:1038200049024E85829783A7C901E39B47D983A6A6
:103830008901B2479840B69711CF02CA3ECC4ECE0E
:10384000EFF08FD38840814601464C08EFC0BFF3AC
:10385000E31805D67370043001A06374FC00E370B4
:10386000F7FC0325090093854900EFC07FCD89BB94
:1038700003A50A0093854900EFC09FCC91B3411185
:1038800022C406C626C24AC017D40100130444CC81
:10389000EFF04FE31C4095CBEFF00FE51C409DC3CC
:1038A000814801488147094781461306004097D562
:1038B0000100938525B8170500001305A5C8EFD0B2
:1038C0007F9A39E97370043001A017D901001309F8
:1038D000E9E94A85EFC0BFC397D40100938444EA65
:1038E0002685EFC0DFC20146B145114597D70100DB
:1038F00023A427C797D7010023AE97C4EFC01FDCCE
:1039000017D701002326A7C411CD97D501009385B1
:10391000E5B1EFD0CFFC49B7B2402244924402490E
:10392000410182807370043001A0A5C9797156CA23
:10393000AA8A1305C00222D426D24AD04ECE52CC37
:1039400006D65AC85EC63A89B689328AAE84E9215B
:103950002A8405C9EFF00FD797D70100938747BF97
:103960009C439DCFEFF04FD8130544002320540112
:1039700004CC232E44012320340323222403EFC04C
:103980005FBA2285B250225492540259F249624AD7
:10399000D24A424BB24B456182807370043001A021
:1039A00097DB0100938B8BDC5E85EFC05FB617DB86
:1039B0000100130BEBDC5A85EFC07FB50146B14522
:1039C000114597D7010023A977B997D7010023A301
:1039D00067B9EFC0BFCE17D70100232BA7B601C927
:1039E00097D50100938585A4EFD06FEFA5BF7370C5
:1039F000043001A039C5011122CC06CE26CA17D445
:103A000001001304E4B4832804002A880145638577
:103A10000802BA842EC2368732C442C6954663C5B0
:103A2000B602EFF06FB58947630BF5020840814697
:103A300001464C00EFC03FD5F2406244D2440561DC
:103A400082807370043001A04C0081463A8646851E
:103A5000EFD0AF88F2406244D244056182800840D2
:103A6000814626864C00EFC01FD2F9B719C1084124
:103A700082807370043001A001E57370043001A0EE
:103A8000411106C622C42A84EFF0CFC3484833341C
:103A9000A000EFF06FC52285B24022444101828030
:103AA00001E57370043001A0411122C42A8406C6C6
:103AB000EFF04FC10050EFF02FC3B24022852244F7
:103AC0004101828001E57370043001A0411122C4DC
:103AD00026C22E84AA8406C6EFF0CFBE80D0224430
:103AE000B240924441016FF02FC04111714522C490
:103AF00006C61D262A8411C5232005001105EFC026
:103B00001FA12285B24022444101828001CDB70726
:103B100000FFED8F81C77370043001A099E57370C9
:103B2000043001A07370043001A0011122CC4AC8F6
:103B30004EC652C456C206CE26CABA893689B28A41
:103B40002E842A8AEFF04FA311E563850900737074
:103B5000043001A0EFE08F9A83240A00B377940029
:103B60006316090295C763870A009347F4FFE58F40
:103B70002320FA00EFE08FBDF240624426854249DF
:103B8000D244B249224A924A05618280E30DF4FC94
:103B9000E38209FEB3355001E20563050900B7076A
:103BA0000004DD8D4E86C18D13054A00EFE0FFE66F
:103BB000EFE0CFB919E1EFC07F85EFF0CFB59317F4
:103BC0006500AA8963D80700B7040001FD14B3F4A7
:103BD00099005DB7EFF00FAF83290A00B377340186
:103BE000631E090089CB63880A009347F4FFB3F78B
:103BF00037012320FA00EFF02FAFF9B7E31DF4FEF1
:103C0000DDB701C9B70700FFED8F99C773700430A6
:103C100001A07370043001A0411122C42A8406C699
:103C200026C24AC02E89EFF0EFA904409345F9FF60
:103C3000B3F795001CC0EFF02FABB24022442685AD
:103C40000249924441018280411122C42A8406C65D
:103C5000EFC0BF870040EFC0FF86B24022852244FC
:103C60004101828009C9370700FFB3F7E50099C712
:103C70007370043001A07370043001A06F30802D88
:103C8000B70700FFF18F81C77370043001A001E610
:103C90007370043001A0011122CC4AC84EC652C430
:103CA00006CE26CA3689AE892A8A3284EFF0CF8CB6
:103CB00021E1630509007370043001A0EFE00F8477
:103CC00083240A00CE855285B3E49900613FB3771F
:103CD00094006307F40683240A00EFE02FA7F24064
:103CE000624426854249D244B249224A0561828013
:103CF000EFE0CF8083240A00CE855285B3E43401FF
:103D00009537B3F78400638D8702E30609FCB70596
:103D100000054A86C18D13054A00EFE01FD0EFE091
:103D2000EFA219E1EFC08FEEEFF0EF9E9317650061
:103D3000AA8463DF0700B7070001FD17FD8C45B7B4
:103D400083270A001344F4FFE18F2320FA0071B7A0
:103D5000EFF04F9783240A00B377940063978700AE
:103D60009347F4FFE58F2320FA00EFF0EF97E1B7D8
:103D7000411122C406C62A8426C2EFD03FF85C4017
:103D800085C308489304C4006316950015A008482D
:103D900063009502B7050002EFE03FE55C40E5FBFC
:103DA0002285612A2244B240924441016FE00F9A79
:103DB0007370043001A009C9370700FFB3F7E500AD
:103DC00099C77370043001A07370043001A06F3084
:103DD000601801C9B70700FFED8F99C773700430F1
:103DE00001A07370043001A0411122C426C206C68E
:103DF0002A84AE84EFF00F8D184093C7F4FFF98F3B
:103E00001CC02244B240924441016FF0EF8D19C1B1
:103E1000084D828001458280411122C406C62A8451
:103E2000EFD0DFED97C70100938747739C43A1EB69
:103E3000E56717D7010013072796F11797C601000A
:103E400023A4E67217C70100232EF77017D70100CD
:103E50002326F79497C701009387877017D701002F
:103E6000232CF792854717C701002321077017C736
:103E700001002327076E17C701002321F76E19E8F9
:103E8000EFE0CF8CEF10800201442285B240224443
:103E9000410182801305840093773500C1EFE56707
:103EA0001307F5FFE917E3EDE7FC97C601009386DA
:103EB000A66B9C4229A0984311C7BE86BA87D843F7
:103EC000E36BA7FE17C7010013078769E38AE7FAC8
:103ED000984341461384870098C2D843B306A7404D
:103EE0006378D6023388A7002322D800C8C383256D
:103EF000480097C601009386266711A0BA869842AB
:103F00005043E36DB6FE2320E80023A00601D8430A
:103F100097C70100938707699C43998F17C70100D2
:103F20002322F768EFE08F8231DC2285B240224401
:103F300041018280719911059DB729C9411122C49F
:103F400006C62A84EFD09FDB930584FF0326C4FFB7
:103F500017C701001307476111A03E871C43D443D4
:103F6000E3EDC6FE232CF4FE0CC397C70100938734
:103F7000676398438327C4FF2244B240BA9717C7A8
:103F800001002321F76241016FD05FFC828097C757
:103F90000100938727618843828082803367B50060
:103FA0000D8BAA871DE79308D6FFAA982A87AE86AD
:103FB0006371150303A8060011079106232E07FF5E
:103FC000E36A17FF9347F5FFC697F19B9107BE95EC
:103FD000AA972A9663F3C70A938645001388470079
:103FE000B3B6D70033B8050133E7F50093C6160022
:103FF000134818000D8BB3E6060113371700758FB1
:10400000330EF6409386170029CF1337AE0031EBFD
:1040100013532E002E88BE8601478328080005070B
:10402000110823A016019106E36967FE1377CEFFFE
:10403000BA95BA976302EE0483C60500138717008A
:104040002380D700637AC70283C615001387270031
:10405000A380D7006372C70203C725002381E7004E
:104060008280B307F640AE97850503C7F5FF850646
:10407000238FE6FEE39AF5FE82808280B367C50057
:104080008D8BB308C500E9C36371150FB307A0405A
:104090008D8B13873700954693F5F50F13081500A0
:1040A0003383A8407D166373D70015476363E60C1E
:1040B000D5CF2300B5000547638DE700A300B50009
:1040C0000D47130825006396E70013083500230108
:1040D000B500139685004D8E13970501518F33035C
:1040E000F34093968501D98E13562300AA97014772
:1040F00094C305079107E36DC7FE1377C3FFB307AA
:10410000E8006307E3062380B70013871700637C8A
:104110001703A380B7001387270063761703238153
:10412000B7001387370063701703A381B7001387A5
:104130004700637A17012382B7001387570063741F
:104140001701A382B700828093F5F50F13978500BE
:10415000D98D139705014D8FE37715FFAA87910736
:1041600023AEE7FEE3ED17FF828082802A8895B7B1
:104170008280AA8749BF834705002A8799C705051A
:1041800083470500EDFF198D82800145828005057A
:104190008347F5FF850503C7F5FF91C7E389E7FE70
:1041A0003385E74082808147E5BFAA87850503C73D
:1041B000F5FF8507A38FE7FE75FB82808346050028
:1041C000930700026397F600050583460500E38D1B
:1041D000F6FE938756FD93F7D70F85C7AA878145CB
:1041E00085CE01458507138606FD1317250083C676
:1041F00007003A9506053295F5F699C13305A040BA
:104200008280938536FD8346150093B5150093078C
:104210001500E1FA0145D5B7014582809C41238014
:10422000A7009C4185079CC1828097C601009386A8
:1042300026349C42175703001307C75813861700EC
:10424000BA972380A70097C5010023A3C532A947C9
:104250006308F500930700046305F60001458280BA
:1042600075DE370610F005078347F7FF2320F6F0C9
:104270009C42FD1797C5010023ACF52EEDF70145D3
:1042800082804D712322911423202115232A51135A
:10429000232481132326111423248114232E311364
:1042A000232C4113232861132326711323229113F6
:1042B0002320A113232EB111AA842E8932C6130CF8
:1042C0005002A54A8347090063808703B9CB804029
:1042D00011A0A1CB2300F40080400509050480C093
:1042E00083470900E39787FF0346190093081900E5
:1042F000C686130D0002FD597D5A0148130550056D
:104300009307D6FD93F7F70F138916006363F52A19
:1043100017C70100130707CF8A07BA979C43BA97BC
:1043200082878320C1140324811483244114032928
:1043300001148329C113032A8113832A4113032BF8
:104340000113832BC112032C8112832C4112032DE4
:104350000112832DC11171618280A14C02C4854775
:1043600063D50715B2478040938B770093F68BFF98
:1043700003AB060083A94600938786003EC6668687
:1043800081465A85CE85EF1090382AC881476385CB
:104390003723930D4101854B668681465A85CE852C
:1043A000EF101001814666862A8BAE89EF103036F9
:1043B000A24723A0AD0093861B00910D63843701B3
:1043C000B68BD9BFE37E9BFF63DD4601A2872380C6
:1043D000A70180407D1A930714009CC03E84E3C867
:1043E00046FF93962B001C08BE9631A8938777054D
:1043F0002300F4008040FD1B93871B00050480C050
:10440000F116E351F0EC9C42E3E2FAFE93870703D6
:10441000C5B79C409306000332472380D7009C40D9
:1044200093064700C14C1386170090C013068007FF
:10443000A380C700804002C4BA87050480C003ABD4
:104440000700814936C625BFB24783AC0700938B6E
:10445000470063840C1C635F40199307D002631903
:10446000FD1683C70C0085C363DC09189440850CD6
:104470007D1A2380F6008040050480C083C70C00AD
:10448000E5F7635D40018040930700022300F400DC
:1044900080407D1A050480C0E31A0AFE5EC61DB581
:1044A00002C48547A94CE3CF07EBB247804093860F
:1044B000470071B703C61600CA8699B59C4093069B
:1044C00050022380D7008040050480C0E5BBC14C6A
:1044D00002C471B5B24703C61600CA8683A9070095
:1044E00091073EC6E35E0AE04E8AFD5911BD03C640
:1044F0001600130DD002CA8621B59347FAFFFD8737
:1045000003C61600337AFA00CA86DDBB03C616005E
:10451000130D0003CA86EDB383C51600930906FD8B
:10452000CA86938705FD2E86E3EEFAFA9397290053
:10453000BE9985068609AE9983C50600938909FD53
:10454000938705FD2E86E3F3FAFE69BF32479C4050
:10455000144311073AC62380D7008040050480C069
:1045600095B3854763D3070BB24793867700E19AEB
:10457000938786003EC683A946009C4263DC090AF5
:1045800094401306D002B307F0402380C600804059
:10459000B336F000B3093041050480C03E8BB389C7
:1045A000D940A94C02C4E1BB03C616000508CA865F
:1045B00081BB9C40468921B7E37D9BDD8547814BCC
:1045C0008546E3C547E131BD97CC0100938C0CE7EC
:1045D000CE856685EF10A023330AAA40635C4001B4
:1045E00080402300A40180407D1A050480C0E31AA6
:1045F0000AFE014A83C70C00E38207EAE3C809E622
:10460000FD197D57E394E9E6ADBDB24793864700B7
:104610009C4336C693D9F74195B76356400193073B
:10462000D002E313FDFA97CC0100938C2CE19307A1
:1046300080021DBD3E8BA94C02C4804089B34D71E0
:10464000232E3113B70900409387F9FF23248114E7
:1046500023229114232C4113232A511323261114AE
:10466000232021152328611323267113232481136A
:10467000232291132320A113232EB1112A8A2EC4A1
:1046800017C401001304C4EE975A0300938A8A13D7
:1046900097C40100938484AC3EC69305500229451B
:1046A00013080004B70610F083470A006386B704B6
:1046B000C1C71840050A13061700569797C801008E
:1046C00023A8C8EA2300F7006382A706E31E06FDBD
:1046D000175703001307070F05078347F7FF23A0AA
:1046E000F6F01C40FD1717C601002323F6E8EDF78E
:1046F00083470A00E39EB7FA83461A0013051A009F
:104700002A87930B00027D5B7D5C01489305500571
:10471000A5489387D6FD93F7F70F130A170063E7B1
:10472000F5348A07A6979C43A697828717570300FC
:104730001307470955F28DBF8320C1140324811448
:1047400083244114032901148329C113032A8113EB
:10475000832A4113032B0113832BC112032C8112D3
:10476000832C4112032D0112832DC11171618280AE
:10477000A14C014D854763DB0719A2479D07E19BCB
:1047800083AD070003AB4700138787003AC46686F2
:1047900081466E85DA85EF1080772AC863066D350D
:1047A000130941018549668681466E85DA85EF10D9
:1047B000204066868146AA8D2E8BEF1040752320FF
:1047C000A90085091109E3106DFFE3FE9DFD1306A5
:1047D0000004B70610F063D189031C40138717004B
:1047E000D69797C5010023A5E5D823807701630CF0
:1047F000C7047D1CE3C389FFB2476800A548B386A0
:10480000F9008A061C08BE962948130300043706DF
:1048100010F0E384A6E89C429305000363F4F800DB
:10482000930570051840AE9793051700569717CE5D
:104830000100232FBED22300F7006380072B638C77
:104840006526F116F9B7175703001307A7F70507F1
:104850008347F7FF23A0F6F01C40FD1797C5010022
:1048600023A8F5D0EDF77D1C71B71C40130600049A
:104870001387170097C5010023ACE5CEB386FA0075
:10488000930500032380B6006300C73E890797C6DF
:10489000010023AFF6CC5697930680072300D7007C
:1048A00017570300130707F2B70610F0639EC700FF
:1048B00005078347F7FF23A0F6F01C40FD1717C636
:1048C00001002327F6CAEDF7A247C14C014D91071D
:1048D0002247014B832D07003EC455BDA24783AC40
:1048E000070013894700638F0C3A635480219307B4
:1048F000D002639EFB2E03C70C00BA85631007200D
:1049000025AC8547A94C014DE3C907E7A2479107AC
:10491000C1B7A24783461700528703AB0700910730
:104920003EC4E3580CDE5A8C7D5BE5B3834617002A
:10493000930BD0025287F1BB9347FCFFFD87834660
:104940001700337CFC005287E9B383461700930BB2
:10495000000352877DBB03461700138B06FD528769
:10496000930706FDB286E3EEF8FA93172B00DA9769
:1049700005078607B29703460700138B07FD9307C9
:1049800006FDB286E3F3F8FE69BFA2451C40294646
:10499000984193861700D69717C50100232AD5BCE6
:1049A0002380E700138945006301C72A93070004A9
:1049B0006387F6204AC4D5B1854763DF0729A2473C
:1049C00013877700619B930787003EC4032B470042
:1049D0001C43635B0B30184013060004930617005A
:1049E00097C5010023A6D5B856979305D00223009A
:1049F000B7006388C62CB307F0403337F000330BA1
:104A00006041BE8D330BEB40A94C014D49B3834649
:104A1000170005085287F5B9834617005287D5B9A4
:104A20001C40930600041387170017C601002321BA
:104A3000E6B4D697130650022380C700E31FD7C4FD
:104A400017570300130707D8B70610F00507834769
:104A5000F7FF23A0F6F01C40FD1717C6010023291D
:104A6000F6B0EDF71DB9C14C014D29B31C409306BA
:104A700000042A8A1387170017C60100232AE6AE0E
:104A8000D697130650022380C700E318D7C01757E4
:104A90000300130727D3B70610F005078347F7FF76
:104AA00023A0F6F01C40FD1717C601002322F6AC28
:104AB000EDF72A8ADDB6175703001307A7D00507BD
:104AC0008347F7FF2320F6F01C40FD1797C5010030
:104AD00023A0F5AAEDF7F1162DBB17570300130716
:104AE00067CEF1FDF11635B3E3FC9DCB8549C5B129
:104AF000014C03C70C00BA85E30E07EAFD582945AF
:104B000013080004B70610F063570B0A1C40138605
:104B10001700D69717C30100232CC3A42380E700F6
:104B20006384A50663040609850C03C70C007D1C7D
:104B3000BA8579FBE35080E91C4093050002130617
:104B40000004B70610F021A07D1CE3050CE61387D6
:104B50001700D6972380B70017C50100232AE5A0C8
:104B6000BA87E313C7FE175703001307A7C5050746
:104B70008347F7FF23A0F6F01C40FD1717C501007F
:104B80002328F59EEDF7C9B717570300130787C30E
:104B900041DE05078347F7FF23A0F6F01C40FD1711
:104BA00017C601002326F69CEDF7BDBF175703007B
:104BB000130747C1F9BF7D1BE31A1BF5A5BF1757A4
:104BC0000300130727C0B70610F005078347F7FF58
:104BD00023A0F6F01C40FD1717C60100232AF69803
:104BE000EDF74AC45DBC97CC0100938C2C85DA8527
:104BF0006685EF00D041330CAC40E35C80EF1C4095
:104C000013060004B70610F021A07D1CE3020CEE91
:104C100013871700D6972380770197C5010023A932
:104C2000E594BA87E313C7FE17570300130787B944
:104C300005078347F7FF23A0F6F01C40FD1797C533
:104C4000010023A7F592EDF7C9B717570300130723
:104C500067B7B5FA4AC491B4A247138747009C438B
:104C60003AC413DBF741B5B317570300130787B5F1
:104C7000B70610F005078347F7FF23A0F6F01C40A6
:104C8000FD1717C601002325F68EEDF7854717C7D8
:104C90000100232FF78C9307800717570300230386
:104CA000F7B21DB1635680019307D002E39DFBF27A
:104CB00097BC0100938C8C781307800293058002C7
:104CC00035BD975603009386E6AF370610F085068C
:104CD00003C7F6FF2320E6F018407D1797C50100B3
:104CE00023A8E5886DF701BBBE8DA94C014D45B4E5
:104CF000B70710F023A0A7F201A0397113034102F6
:104D00002ED29A8506CE32D436D63AD83EDA42DC56
:104D100046DE1AC62D32F2400145216182805D7166
:104D20001303810322D42AC632DC2A841A8668003F
:104D300006D6BEC236DEBAC0C2C4C6C61ACEEFF0B0
:104D40004FD4B247238007003245B250018D225420
:104D500061618280B70710F083A647F403A607F4C9
:104D600003A747F4E31AD7FE8566938606FAB29640
:104D700033B6C600B305E60023A4D7F423A6B7F4E0
:104D80008280B70710F003A747F403A607F483A6B1
:104D900047F4E31AD7FE8566938606FAB29633B6D1
:104DA000C60023A4D7F4B305E60023A6B7F49307FF
:104DB000000873A047308280411122C406C697B70D
:104DC00001009387677B17B401001304A47A98430A
:104DD0001C401306F07C930647069387470697B559
:104DE000010023ABD57897B5010023A5F57863467C
:104DF000D600B2402244410182801307478997B709
:104E0000010023ABE776EF00300A8547631FF5000A
:104E1000184085679387F7760145E3DCE7FCC93DD9
:104E20002244B24041016FC07FEC17B50100130569
:104E30006561E13509456D3D2244B24041016FC0D5
:104E4000FFEA17B501001305A56145BD17B50100BF
:104E5000130585615DB5411122C426C206C685646D
:104E600017B401001304C460938784380100FD1750
:104E7000F5FF22855935CDBF01456F00006E411108
:104E800006C6EF007002054781476316E500B24091
:104E90003E854101828017B501001305A55AEFF048
:104EA000DFE5B24089473E8541018280737004305E
:104EB00001A082807370043001A05D7197B701007A
:104EC0009387C76B4EDE83A9070097B701009387CE
:104ED000276BCAC003A9070097B701009387876AA9
:104EE000A6C284434EC64AC826CAB247C245A2C417
:104EF00052445AD82A8B3E8586C652DC56DA5ED694
:104F0000EF102036A285EF1030202ACE814A17BA42
:104F10000100130A6A67B70B00804EC64AC826CA4A
:104F20003245C2455244EF10C033A285EF10D01D68
:104F30002ACC6245F245EF10F04093050000EF10D7
:104F4000D013634905026245F245EF10B03F832557
:104F50000A00EF10B0093325A00019E9E39F0AFA0F
:104F600083570B008507C207C1832310FB0075B769
:104F7000854A65B76245F24533C5AB00EF10903CFA
:104F800083250A00EF1090063325A000F9B75D7164
:104F900097B701009387875F4EDE83A9070097B715
:104FA00001009387E75ECAC003A9070097B7010015
:104FB0009387475EA6C284434EC64AC826CAB247F4
:104FC000C245A2C452445AD82A8B3E8586C652DCBA
:104FD00056DA5ED6EF10805BA285EF10F0122ACE73
:104FE000814A17BA0100130A2A5AB70B00804EC62D
:104FF0004AC826CA3245C2455244EF102059A285FC
:10500000EF1090102ACC6245F245EF10B0339305B3
:105010000000EF109006634905026245F245EF106B
:10502000703283250A00EF10607C3325A00019E957
:10503000E39F0AFA83570B008507C207C183231039
:10504000FB0075B7854A65B76245F24533C5AB00CD
:10505000EF10502F83250A00EF1040793325A00070
:10506000F9B71D712AC613058002A2CCA6CACEC606
:10507000D2C4D6C2DAC05EDE62DC66DA6AD86ED628
:1050800086CECAC8EFE05FD997B701009387C750B3
:1050900084432A8402C4A68D268DA68C268CA68BDA
:1050A000268BA68A268AA689930700003EC83ECA98
:1050B0003ECE7245A685EF10300508C072454249C4
:1050C000EE85EF107004CA85EF10A0192AC872454A
:1050D000EA85EF10700348C072454249E685EF103B
:1050E000B002CA85EF10E0172AC87245E285EF10BA
:1050F000B00108C472454249DE85EF10F000CA8550
:10510000EF1020162AC87245DA85EF10E07F48C4F8
:1051100072454249D685EF10207FCA85EF10601492
:105120002AC87245D285EF10207E08C872454249D0
:10513000CE85EF10607DCA85EF10A01297B70100F1
:10514000938787452AC872458C43EF10E07B97B759
:1051500001009387674448C872458C434249EF1069
:10516000A07ACA85EF10E00F97B701009387C74276
:105170002AC872458C43EF10207997B701009387B6
:10518000A74108CC72458C434249EF10E077CA85AD
:10519000EF10200D97B70100938707402AC872458A
:1051A0008C43EF10607697B701009387E73E48CCB9
:1051B00072458C434249EF102075CA85EF10600A92
:1051C00097B701009387473D2AC872458C43EF107B
:1051D000A07397B701009387273C08D08C43724592
:1051E0004249EF106072CA85EF10A00797B701001F
:1051F0009387873A2AC872458C43EF10E07097B7BF
:1052000001009387673948D072458C434249EF10BB
:10521000A06FCA85EF10E0042AC80840D245EF10FD
:1052200040042ACA4840D245EF10A0032ACA0844C5
:10523000D245EF1000032ACA4844D245EF1060025D
:105240002ACA0848D245EF10C0012ACA4848D245A8
:10525000EF1020012ACA084CD245EF1080002ACA5C
:10526000484CD245EF00F07F2ACA0850D245EF00E3
:10527000507F2ACA4850D245EF00B07E2ACA424524
:10528000D245EF10300C2ACC624593050000EF1098
:10529000C05E634C050297B701009387E72E624515
:1052A0008C43EF10A0543325A00009EDA247E39DE5
:1052B00007DE3247835707008507C207C1832310E3
:1052C000F700DDB385473EC4C5B397B701009387A8
:1052D000E72C62458C43EF10405A7D81F9B71D7170
:1052E0002AC613058002A2CCA6CACEC6D2C4D6C294
:1052F000DAC05EDE62DC66DA6AD86ED686CECAC8EE
:10530000EFE09FB197B701009387872984432A84F0
:1053100002C4A68D268DA68C268CA68B268BA68AEB
:10532000268AA689930700003EC83ECA3ECE724533
:10533000A685EF00107308C072454249EE85EF0064
:105340005072CA85EF00F0712AC87245EA85EF00F5
:10535000507148C072454249E685EF009070CA8599
:10536000EF0030702AC87245E285EF00906F08C4E4
:1053700072454249DE85EF00D06ECA85EF00706E3F
:105380002AC87245DA85EF00D06D48C4724542499B
:10539000D685EF00106DCA85EF00B06C2AC8724543
:1053A000D285EF00106C08C872454249CE85EF00E7
:1053B000506BCA85EF00F06A97B701009387471ECC
:1053C0002AC872458C43EF00D06997B701009387D4
:1053D000271D48C872458C434249EF009068CA8532
:1053E000EF00306897B701009387871B2AC8724582
:1053F0008C43EF00106797B701009387671A08CCBA
:1054000072458C434249EF00D065CA85EF00706554
:1054100097B701009387C7182AC872458C43EF00DD
:10542000506497B701009387A71748CC72458C4307
:105430004249EF001063CA85EF00B06297B70100E0
:10544000938707162AC872458C43EF00906197B77F
:1054500001009387E71408D08C4372454249EF005E
:105460005060CA85EF00F05F97B70100938747133C
:105470002AC872458C43EF00D05E97B7010093872E
:10548000271248D072458C434249EF00905DCA858F
:10549000EF00305D2AC80840D245EF00905C2ACA70
:1054A0004840D245EF00F05B2ACA0844D245EF00DD
:1054B000505B2ACA4844D245EF00B05A2ACA08486D
:1054C000D245EF00105A2ACA4848D245EF00705919
:1054D0002ACA084CD245EF00D0582ACA484CD245B7
:1054E000EF0030582ACA0850D245EF0090572ACA18
:1054F0004850D245EF00F0562ACA4245D245EF1037
:1055000060642ACC624593050000EF100037634CBD
:10551000050297B701009387270762458C43EF1078
:10552000E02C3325A00009EDA247E39D07DE3247BA
:10553000835707008507C207C1832310F700DDB337
:1055400085473EC4C5B397B70100938727056245D9
:105550008C43EF1080327D81F9B7411122C42A8734
:105560002A8481480148814797460300938686290B
:105570001306004097B501009385C5F0170500009C
:105580001305E59306C6EFB0FFCD22878148014899
:10559000814797460300938606271306004097B578
:1055A00001009385A5EE170500001305859EEFB059
:1055B0007FCB228781480148814797460300938625
:1055C000A6241306004097B501009385A5EC1705A6
:1055D0000000130505D1EFB0FFC8228781480148BC
:1055E000814797460300938646221306004097B5ED
:1055F00001009385A5EA170500001305C5A6EFB0C5
:105600007FC62287814801488147974603009386D9
:10561000E61F1306004097B501009385A5E817051E
:1056200000001305C589EFB0FFC3228781480148F8
:105630008147974603009386861D1306004097B561
:1056400001009385A5E61705000013058594EFB0CA
:105650007FC122878148014881479746030093868E
:10566000261B1306004097B501009385A5E4170596
:105670000000130505C7EFB0FFBE22872244B240E9
:105680008148014881479746030093868618130690
:10569000004097B50100938565E2170500001305EA
:1056A000859C41016FB01FBC174803000358881543
:1056B0001747030003572716174E0300035E8E1487
:1056C0009746030083D626149747030083D7871491
:1056D0001743030003532313174503000355C51352
:1056E0001746030003564612158F9748030083D8C8
:1056F000A8119745030083D545129746030083D62A
:10570000C610B3870741118D3337E00017480300F7
:105710000358A80F1746030003564610974F03007F
:1057200083DFCF0E3307E040958DB337F00033357C
:10573000A000974E030083DE6E0D9746030083D6CC
:10574000060E174F0300035F8F0CF98F3305A0403F
:105750003306F641B335B000974F030083DF2F0BBC
:10576000174703000357C70B9743030083D3430A2C
:10577000E98FB305B040B386E6413336C000174F1A
:105780000300035FEF08174503000355850997429F
:10579000030083D20208ED8F3306C0403307774001
:1057A000B336D000B306D040F18F330555403337C0
:1057B000E000F58F3307E0403335A000F98F330563
:1057C000A040174703000357C704974603002393DD
:1057D000C605974603002390660497460300239D61
:1057E000160397460300239A060397460300239760
:1057F000D603974603002394F603974603002391AC
:10580000E60397460300239EE6007D8D8280AA95DD
:10581000AA876385B70003C7070001E73385A74060
:1058200082808507FDB7814863DA05003305A04013
:10583000B337A000B305B0409D8DFD5863D9060075
:105840003306C040B337C000B306D0409D8E3288C7
:105850003683AA872E87639F061C97B6010093861E
:10586000E6AC63F1C50C416E6377C60B130EF00F07
:105870006373CE002143335E6600F29603CE0600CA
:105880001A9E130300023303C341630C0300B39554
:105890006500335EC501331866003367BE00B31779
:1058A0006500135E0801B355C70313150801418154
:1058B00093D607013376C703B305B5024206D18EEE
:1058C00063F8B600C29663E5060163F3B600C296BC
:1058D0008D8E33F7C603C207C183B3D6C603B306A2
:1058E000D50213150701C98F63F8D700C29763E586
:1058F000070163F3D700C297958F33D567008145C1
:10590000638A0800B307A0403337F000B305B04006
:105910003E85998D8280370E00014143E36DC6F5C7
:10592000614391BF01E605483358680241676373DC
:10593000E8081307F00F637307012143335768002A
:10594000BA9603C606001A96130300023303C34037
:1059500063190306B3850541935608011315080121
:10596000418113D6070133F7D502B3D5D5024207DB
:10597000518FB305B5026378B7004297636507019D
:105980006373B7004297B305B74033F7D502C20738
:10599000C183B3D5D502B305B50213150701C98F6D
:1059A00063F8B700C29763E5070163F3B700C297D6
:1059B0008D8FA1B7370700014143E361E8F86143E8
:1059C000B5BF3318680033DEC500935E0801335657
:1059D000C500B31765003355DE03B39565004D8EE2
:1059E00093150801C181935606013377DE03338591
:1059F000A5024207558F6378A700429763650701A8
:105A00006373A7004297B306A74033F7D603420655
:105A10004182B3D6D6034207B386D502B365C70029
:105A200063F8D500C29563E5050163F3D500C2951F
:105A3000958D1DB7E3E6D5EC416863F50605930E39
:105A4000F00F33B8DE000E0833DE060117B3010095
:105A50001303C38D7293834E0300130E0002C29E84
:105A6000330EDE4163170E0263E4B6006369C500BE
:105A7000B307C540958D3335F5003387A5403E8586
:105A8000BA85BDBD370300014148E3EF66FA6148BE
:105A900065BF3357D601B396C601D98EB357D5012A
:105AA00033D7D501B395C501CD8F93D50601337397
:105AB000B702139F0601135F0F0113D807013316B6
:105AC000C6013315C5013357B702420333680301DA
:105AD000B30FEF023A83637CF80136981303F7FFA4
:105AE0006367D8006375F8011303E7FF369833083E
:105AF000F841B37FB8023358B802C20FB3050F03A1
:105B0000139F0701135F0F0133EFEF014287637C9F
:105B1000BF00369F1307F8FF6367DF006375BF00A0
:105B20001307E8FF369F4203C16F3363E300938797
:105B3000FFFF13580601330FBF40B375F300135333
:105B40000301F18F3387F502B307F302B385050331
:105B500033030303BE95135807012E986373F800AF
:105B60007E93C167FD17935508013378F80042080A
:105B70007D8F9A9542976366BF00631BBF00637970
:105B8000E5003306C7403337C700958D998D3287BE
:105B90003307E5403335E500B305BF40898DB39742
:105BA000D5013357C70133E5E700B3D5C50189BB3C
:105BB000AE87328836872A836396062097A801002D
:105BC0009388C87663FEC50A41676374E60A1307C3
:105BD000F00F3337C7000E07B356E600B69883C6FA
:105BE0000800369793060002998E99CAB397D7009A
:105BF0003357E5003318D600B365F7003313D500EB
:105C000013550801B3D7A502131608014182935614
:105C1000030133F7A502B305F6024207D98E3E878A
:105C200063FCB600C2961387F7FF63E7060163F5CE
:105C3000B6001387E7FFC2968D8EB3F7A602420324
:105C400013530301B3D6A602C20733E36700B305BB
:105C5000D6023685637BB30042931385F6FF6366F5
:105C600003016374B3001385E6FF4207498F814542
:105C70004DA8B70600014147E360D6F66147A9BFCA
:105C800001E6854633D8C602C166637ED80893060E
:105C9000F00F63F306012147B356E800B69883C6B8
:105CA0000800BA9613070002158F49E7B38707412A
:105CB0008545135608019318080193D80801935697
:105CC000030133F7C702B3D7C7024207D98E338522
:105CD000F8023E8763FCA600C2961387F7FF63E7CE
:105CE000060163F5A6001387E7FFC296898EB3F716
:105CF000C602420313530301B3D6C602C20733E3FD
:105D00006700B388D8023685637B130142931385FD
:105D1000F6FF63660301637413011385E6FF420710
:105D2000498F3A858280B70600014147E366D8F67D
:105D300061479DB73318E800B3D5D7003313E500AA
:105D4000B356D50013550801B397E70033F7A50202
:105D5000B3E8F60093170801C18313D60801B3D541
:105D6000A5024207518FB386B7022E86637CD70007
:105D700042971386F5FF636707016375D7001386A3
:105D8000E5FF4297B306D74033F7A602C20893D87F
:105D90000801B3D6A6024207B385D702B36717013D
:105DA000368763FCB700C2971387F6FF63E70701E6
:105DB00063F5B7001387E6FFC2978D8F9315060131
:105DC000D98DC5BD63E2D514416763FEE6021308B1
:105DD000F00F3337D8000E0733D8E60097A501003F
:105DE0009385C554C29503C80500930500023A98EF
:105DF000B385054185E10547E3E5F6F23335C50096
:105E00001347150039BFB70500014147E3E6B6FC6B
:105E10006147D9B733570601B396B600D98E93DEE2
:105E2000060133D70701B378D703B397B7003358C8
:105E300005013363F80093970601C18313580301EA
:105E40003316B6003357D703C20833E80801338F3F
:105E5000E7023A8E637CE8013698130EF7FF63671A
:105E6000D8006375E801130EE7FF36983308E84160
:105E7000B378D8033358D803C208B38E07039317F7
:105E80000301C183B3E7F800428763FCD701B697EB
:105E90001307F8FF63E7D70063F5D7011307E8FF9F
:105EA000B697420EB387D741C16E3367EE001388B1
:105EB000FEFF3373070193580701337806014182CF
:105EC000330E03033388080393560E013303C302D2
:105ED00042939A96B388C80263F30601F69813D6E4
:105EE0000601B29863E01703E39317D9C167FD1762
:105EF000FD8EC206337EFE003315B500F296814555
:105F0000E371D5E27D17A5B38145014719BDB2887C
:105F10003687AA872E886398061C97A60100938669
:105F2000E64063F8C50A4163637E66081303F00F19
:105F30006373C30021473353E6009A9603CE0600ED
:105F4000130300023A9E3303C341630C0300B3956D
:105F50006500335EC501B31866003368BE00B31731
:105F6000650013D608013377C802139508014181F3
:105F700093D607013358C8024207D98E3308050368
:105F800063F80601C69663E5160163F30601C6963B
:105F9000B386064133F7C602C207C183B3D6C60231
:105FA000B306D50213150701C98F63F8D700C6974A
:105FB00063E5170163F3D700C697958F33D5670064
:105FC00081458280370300014147E36666F66147F9
:105FD0009DB701E60546B3581603416663F3C8084A
:105FE0001306F00F63731601214733D6E800B2960B
:105FF00003CE0600130300023A9E3303C341631924
:106000000306B385154113D7080113950801418193
:1060100013D60701B3F6E502B3D5E502C206D18E69
:10602000B305B50263F8B600C69663E5160163F3DF
:10603000B600C696B385B640B3F6E502C207C18383
:10604000B3D5E502B305B50213950601C98F63F810
:10605000B700C69763E5170163F3B700C6978D8F46
:10606000B1BF370600014147E3E1C8F86147B5BF5A
:10607000B398680033D7C501B3176500335EC50117
:1060800013D50801B376A702B3956500336EBE0041
:1060900093950801C18113560E013357A702C2061A
:1060A000D18E3387E50263F8E600C69663E51601F4
:1060B00063F3E600C6963386E640B376A602420E48
:1060C000135E0E013356A602C2063386C502B3E53F
:1060D000C60163F8C500C69563E5150163F3C50005
:1060E000C695918D0DB7E3EED5EC416763F5E604F7
:1060F000930EF00F33B7DE000E0733D3E60097A8F8
:1061000001009388A8229A9883CE0800130E0002FB
:10611000BA9E330EDE4163170E0263E4B600636974
:10612000C500B307C540958D3335F5003388A540CC
:106130003E85C28579B5B70800014147E3EF16FBFC
:10614000614765BF3357D601B396C601D98EB357A1
:10615000D50133D7D501B395C501CD8F93D50601B0
:106160003373B702139F0601135F0F0193D8070122
:106170003316C6013315C5013357B7024203B3685E
:1061800013013308EF023A8363FC0801B698130346
:10619000F7FF63E7D80063F508011303E7FFB6983C
:1061A000B3880841B3FFB802B3D8B802C20FB30531
:1061B0001F03139F0701135F0F0133EFEF014687A2
:1061C000637CBF00369F1387F8FF6367DF0063754A
:1061D000BF001387E8FF369F4203C1683363E300C3
:1061E0009387F8FF13580601330FBF40B375F300D0
:1061F00013530301F18F3387F502B307F302B3851D
:10620000050333030303BE95135807012E986373E8
:10621000F8004693C167FD17935508013378F800DD
:1062200042087D8F9A9542976366BF00631BBF004B
:106230006379E5003306C7403337C700958D998DE4
:1062400032873307E5403335E500B305BF40898D1C
:10625000B397D5013357C70133E5E700B3D5C5017F
:106260008DB3B70780004111FD1733F7A70022C493
:106270004AC0135475011359F50113D57501ED8FFB
:106280001374F40F1375F50F06C626C2FD8113169D
:1062900037008E073307A440631AB9126350E00831
:1062A00039E581EB9307F00F630FF402B287228583
:1062B00061A07D170DE7B297228513975700635DA4
:1062C000070605051307F00F630DE5243707007E69
:1062D00093F617007D178583F98FD58FB1A89306A4
:1062E000F00F631DD400B2871305F00FB1A0930621
:1062F000F00FE30AD4FEB7060004D58FED4663D451
:10630000E60085474DBF93060002998EB3D5E7009E
:10631000B397D700B337F000CD8F71BF25C705E81D
:1063200001CEFD566314D700B29741BF9306F00F1C
:106330001347F7FF6316D50213F777006304071EB0
:1063400013F7F7009146630FD71C9107E1AA930654
:10635000F00FE303D5FEB70600043307E040558E87
:10636000ED4663D4E600054721A893060002B35525
:10637000E6003387E6403317E6003337E0004D8F01
:10638000BA9725BF130514009376F50F05476346AA
:10639000D70205E001454DD263830718B2971397E2
:1063A0005700E35B07F8370700FC7D17F98F0545B9
:1063B00061B71DDA639607103DB71307F00F63024C
:1063C000E5163307F60093571700BDB76351E00693
:1063D0001DE9E38907EC7D1711EFB307F64022852D
:1063E00013975700E35A07F4B7040004FD14FD8C1B
:1063F0002A84F5A09306F00FE307D4EEED4663DCA4
:10640000E6008547D9BF9306F00FE30ED4ECB7063C
:106410000004D58FE5B793060002B3D5E7003387B4
:10642000E640B397E700B337F000CD8F7DB731CFAB
:1064300005E42E8911D2FD566315D700918F2E8960
:1064400045B79306F00F1347F7FFE307D5EEED4688
:1064500063DFE600054705A89306F00F2E89E30DDC
:10646000D5ECB70600043307E040558ECDB7930650
:1064700000023358E6003387E6403317E60033372F
:10648000E0003367E800998F5DBF130714001377AE
:10649000F70F854663CCE6020DE001E6E5E3014532
:1064A00025A0F9CF3307F64093165700918F63C7A5
:1064B000060CBA8731EB8147DDB7E31D06EEF9E341
:1064C000B70700021305F00F0149A9A8B304F6406D
:1064D00013975400635C0702B384C7402E89268556
:1064E000EF00901B6D15B394A40063438502018DEA
:1064F000050513040002B3D7A4003305A440B394E8
:10650000A400B3349000C58F01453DB5CDD4C1BFC3
:10651000B70700FCFD173305A440E58F31BDB287F6
:1065200021BD814713975700635B070005051307DB
:10653000F00F630BE504370700FC7D17F98F130795
:10654000F00F8D836316E50081C7B707400001494E
:10655000370780007D171375F50FF98F1317750135
:1065600037058080B24022447D157D8D7E09598D8E
:106570003365250192440249410182802E8969B721
:10658000B28759B72E898DB3814755BF011126CAED
:106590004EC693547501B70980004AC852C4FD190C
:1065A00006CE22CC56C293F4F40F2E8AB3F9A9007A
:1065B0001359F501A5C89307F00F6382F4088E09FB
:1065C000B7070004B3E9F900938414F8814A13551E
:1065D0007A01370480007D141375F50F337444017C
:1065E000135AFA013DC59307F00F6301F5080E0435
:1065F000B70700045D8C130515F8814793962A00B0
:10660000DD8EFD163947334649013385A440636862
:10661000D70697A501009385E5C98A06AE969842EC
:106620002E970287638409024E85EF00F0069307D8
:10663000B5FF9304A0F8B399F900898C41BF930486
:10664000F00F894AE38509F88D4A51B78144854A9C
:10665000BDBF1DC02285EF0030049307B5FF331482
:10666000F4009307A0F83385A74041BF1305F00F4E
:10667000894749D48D4759B70145854741B7131814
:10668000540063FE890A7D1581461354080133D3F3
:106690008902C167FD17B377F800C18233F7890219
:1066A0009A85B38867024207558F637C170142972A
:1066B0009305F3FF63670701637517019305E3FF14
:1066C000429733071741B358870233778702B3865F
:1066D000170393170701468763FCD700C2971387F8
:1066E000F8FF63E7070163F5D7001387E8FFC29758
:1066F00013940501958F598CB337F0005D8C130707
:10670000F5076359E0069377740099C79377F4000F
:1067100091466383D70011049317440063D80700A0
:10672000B70700F8FD177D8C130705089307E00FE6
:106730000D8063D5E70801441307F00F41A093963D
:10674000F90193D9190091B74A864E84D687094733
:10675000E383E7FE0D47638EE7040547E391E7FA1D
:1067600001440147A1A85286DDB737044000014625
:106770008D47F1BF8547998F6D47E343F7FE1305BA
:10678000E509B357F4003314A400333480005D8C62
:106790009377740099C79377F40011476383E700F8
:1067A0001104931754000D80E3DD07FA01440547F7
:1067B00031A0370440001307F00F01463705800071
:1067C0007D15698C370580807D151377F70F698CEF
:1067D0005E07598C1315F601418DF2406244D24494
:1067E0004249B249224A924A0561828037078000B5
:1067F0007D17935675013378A70013D6750193570B
:10680000F50193F6F60F1305F00F6D8F1376F60F63
:10681000FD816396A600795563080804828063159C
:10682000A600795539C78280B1E21335180011E20C
:1068300005CB01E96394B7006358D600054599E399
:106840008280FDFD7D55828063D6C6007D55EDDBDF
:1068500005458280E36407FF0145E369E8FECDB7A3
:106860000145E30F08FCD9BFE30DD6FA61F679D7ED
:10687000D1B713351800D5DE75BF370780007D17F7
:10688000935675013378A70013D675019357F50118
:1068900093F6F60F1305F00F6D8F1376F60FFD814B
:1068A0006396A60009456308080482806315A60064
:1068B000094539C78280B1E21335180011E205CBD2
:1068C00001E96394B7006358D600054599E38280D7
:1068D000FDFD7D55828063D6C6007D55EDDB054507
:1068E0008280E36407FF0145E369E8FECDB7014517
:1068F000E30F08FCD9BFE30DD6FA61F679D7D1B71B
:1069000013351800D5DE75BF011126CA4AC8B70471
:106910008000135975014EC656C2FD1406CE22CC16
:1069200052C41379F90FAE8AE98C9359F5016309C2
:1069300009069307F00F6301F9088E04B7070004F6
:10694000DD8C130919F8014A13D57A013704800048
:106950007D141375F50F3374540193DAFA0135C5BC
:106960009307F00F630FF5060E04B70700045D8C64
:10697000130515F8814693172A00D58F4A95FD1700
:10698000394733C65901130815006365F70617A781
:1069900001001307E7958A07BA979C43BA97828745
:1069A00095C02685D5299307B5FF1309A0F8B394A0
:1069B000F4003309A94041BF1309F00F094AC9D4B3
:1069C0000D4A59B70149054A41B715C02285E92149
:1069D0009307B5FF3314F4009307A0F83385A7405D
:1069E00051BF1305F00F894659D48D4669B701454B
:1069F000854651B7C1671383F7FF13D70401935638
:106A00000401B3F4640033746400B3888402B305F2
:106A100087023304D702B386960293D40801AE9658
:106A2000B69463F3B4003E94B3F76400C207B3F8BE
:106A30006800C69713976700C1803337E000E98389
:106A40002694D98F1A045D8C9317440063DC0708E1
:106A50009357140005885D8C1307F8076356E00808
:106A60009377740099C79377F40091466383D700B6
:106A700011049317440063D80700B70700F8FD1707
:106A80007D8C130708089307E00F63C4E70A935748
:106A9000340039A84E862684D2868947638BF6084F
:106AA0008D476382F608854581470147E396B6FA2C
:106AB000370480007D1437058080E18F7D15F2401A
:106AC00062441377F70FE98F5E071315F601D98F2C
:106AD000D2444249B249224A924A5D8D0561828080
:106AE000568665BF2A888DBF8547998F6D47634657
:106AF000F7041308E809B357F400331404013334DE
:106B000080005D8C9377740099C79377F4001147E8
:106B10006383E70011049317540063C2070293577D
:106B20003400014771B7B70740001307F00F014663
:106B300041B781471307F00FA5BF8147DDB78147F4
:106B40000547BDB7B7078000FD17411133F7A70010
:106B50009356750113D67501ED8F26C24AC093F680
:106B6000F60F131837001376F60F06C622C4130764
:106B7000F00F9354F50136893285FD818E0763133A
:106B8000E60099E393C515003387C64063979514D3
:106B9000635EE00629E681EB9307F00F638FF60250
:106BA000C2873685F5A87D170DE7C29736851397FE
:106BB00057006357070E05051307F00F630CE52612
:106BC0003707007E93F617007D178583F98FD58FE1
:106BD000C1A81306F00F639BC600C287A1A81306C5
:106BE000F00FE38CC6FE37060004D18F6D46635468
:106BF000E60085475DBF13060002198EB3D5E70096
:106C0000B397C700B337F000CD8F45B73DC395E6C6
:106C1000631708001307F00F6314E60821A8FD5658
:106C20006314D700C29761B79306F00F1347F7FFBD
:106C3000631FD6001305F00FA5A09306F00FE30B1A
:106C4000D6FEB70600043307E0403368D800ED46AF
:106C500063D4E600054721A8930600023356E800F6
:106C60003387E6403317E8003337E000518FBA9797
:106C70003DBF138516001376F50F05476346C7041D
:106C80009DEA0145630E08006384071AC2971397B3
:106C9000570063570700370700FC7D17F98F05453C
:106CA00013F777006309071813F7F7009146630499
:106CB000D718910749A2E30F08F685D3B70700025A
:106CC0001305F00F814485AA1307F00F6304E5163E
:106CD0003307F80093571700E1B76351E0061DEA48
:106CE000E38C07EA7D1711EFB307F8403685139759
:106CF0005700E35707FA370400047D147D8C2A8976
:106D0000C5A81306F00FE38AC6EC6D46635CE60087
:106D10008547D9BF1306F00FE381C6EC37060004A0
:106D2000D18FE5B713060002B3D5E7003307E6407D
:106D3000B397E700B337F000CD8F7DB73DC395E63D
:106D4000631608001307F00FAE84F9B5FD566316FD
:106D5000D700B3870741AE8459BF9306F00F13479E
:106D6000F7FF631ED600AE84F1B59306F00FE30C77
:106D7000D6FEB70600043307E0403368D800ED467E
:106D800063D4E600054721A8930600023356E800C5
:106D90003387E6403317E8003337E000518F998F8F
:106DA0005DBF138716001377F70F05466349E602A8
:106DB0009DE263150800F9EB014529B7F1CB3307D4
:106DC000F84093165700B387074163C1060CBA8792
:106DD00029E78147D5B7E31208EED1F7C5B53304EB
:106DE000F84013175400635C070233840741AE84F4
:106DF00022855D206D153314A400634425033305FB
:106E00002541050513070002B357A4003305A74029
:106E10003314A40033348000C18F014551B555D8D7
:106E2000C1BFB70700FCFD173305A940E18F8DBD39
:106E3000C287BDB5814713975700635B07000505FF
:106E40001307F00F6308E504370700FC7D17F98F7F
:106E50001307F00F8D836316E50081C7B707400065
:106E60008144370780007D171375F50FF98F1317CD
:106E7000750137058080B24022447D157D8DFE046A
:106E8000598D458D0249924441018280AE8471B78B
:106E9000C28761B781476DBFC1676376F50293070B
:106EA000F00FB3B7A7008E07130700021D8FB3576B
:106EB000F5001795010013056547AA9703C507005C
:106EC0003305A740828037070001C147E36EE5FC28
:106ED000E147D9BF979701009387076794431797B6
:106EE0000100130727651843C8C2637BE5001797A5
:106EF00001001307E76408438C4391056F904FE44A
:106F0000411122C406C6179701001307A7632A84FC
:106F100008438C439105EF90AFE297970100938768
:106F2000A75F9C436376F4009797010023A6875ED2
:106F3000B240224441018280979701009387C76045
:106F4000984394437C43FD177CC3FC4299E37360F0
:106F500004308280011122CC26CA2A84AE844AC819
:106F60004EC652C456C206CEEFA05FD91C400329BC
:106F70000401B7090001B3E59700930AC4000CC0EF
:106F80008144FD19370A00021840638C2A03032646
:106F900009004A85B3654701B37636019317560059
:106FA000758F0329490063C4070001E7F1BFE39D22
:106FB000E6FC9317760063D30700D58CEFB0FFC2D1
:106FC000E1B793C4F4FFF98C04C0EFA03FF8084088
:106FD000F2406244D2444249B249224A924A05618F
:106FE00082804111014506C622C4EFE00FD717E7A2
:106FF000FFFF1307A7DC814605469305400617955A
:10700000010013056547EFC05F9219C92A84EFA0FC
:10701000FFCF2A860147814685452285EFC09F9D87
:0E702000EFA05FA8B2402244014541018280EA
:02000004800278
:10000000B444FEFFB245FEFFBC44FEFFB245FEFF16
:10001000B245FEFFB245FEFFB245FEFFD444FEFFEF
:10002000B245FEFFB245FEFFEE44FEFFFA44FEFF7E
:10003000B245FEFF0C45FEFF1845FEFF1845FEFFCA
:100040001845FEFF1845FEFF1845FEFF1845FEFF48
:100050001845FEFF1845FEFF1845FEFFB245FEFF9E
:10006000B245FEFFB245FEFFB245FEFFB245FEFFC0
:10007000B245FEFFB245FEFFB245FEFFB245FEFFB0
:10008000B245FEFFB245FEFFB245FEFFB245FEFFA0
:10009000B245FEFFB245FEFFB245FEFFB245FEFF90
:1000A000B245FEFFB245FEFFB245FEFFB245FEFF80
:1000B000B245FEFFB245FEFFB245FEFFB245FEFF70
:1000C000B245FEFFB245FEFFB245FEFFB245FEFF60
:1000D000B245FEFFB245FEFFB245FEFFB245FEFF50
:1000E000B245FEFFB245FEFFB245FEFFB245FEFF40
:1000F000B245FEFFB245FEFFB245FEFFB245FEFF30
:100100004C45FEFF6245FEFFB245FEFFB245FEFFD5
:10011000B245FEFFB245FEFFB245FEFFB245FEFF0F
:10012000B245FEFFA845FEFFB245FEFFB245FEFF09
:100130005A43FEFF1244FEFFB245FEFFB245FEFFEA
:100140004844FEFFB245FEFFA044FEFFB245FEFF5D
:10015000B245FEFFCE44FEFFC048FEFF1449FEFF3D
:10016000C848FEFF1449FEFF1449FEFF1449FEFF74
:100170001449FEFFBA47FEFF1449FEFF1449FEFF73
:10018000D447FEFFE047FEFF1449FEFFF247FEFFA3
:10019000FE47FEFFFE47FEFFFE47FEFFFE47FEFF57
:1001A000FE47FEFFFE47FEFFFE47FEFFFE47FEFF47
:1001B000FE47FEFF1449FEFF1449FEFF1449FEFFEF
:1001C0001449FEFF1449FEFF1449FEFF1449FEFFC7
:1001D0001449FEFF1449FEFF1449FEFF1449FEFFB7
:1001E0001449FEFF1449FEFF1449FEFF1449FEFFA7
:1001F0001449FEFF1449FEFF1449FEFF1449FEFF97
:100200001449FEFF1449FEFF1449FEFF1449FEFF86
:100210001449FEFF1449FEFF1449FEFF1449FEFF76
:100220001449FEFF1449FEFF1449FEFF1449FEFF66
:100230001449FEFF1449FEFF1449FEFF1449FEFF56
:100240001449FEFF1449FEFF1449FEFF1449FEFF46
:100250001449FEFF1449FEFF3248FEFF6048FEFFCE
:100260001449FEFF1449FEFF1449FEFF1449FEFF26
:100270001449FEFF1449FEFF1449FEFFB648FEFF75
:100280001449FEFF1449FEFF1846FEFF1247FEFF09
:100290001449FEFF1449FEFF8447FEFF1449FEFF88
:1002A000AA47FEFF1449FEFF1449FEFF0E49FEFF58
:1002B0008664FEFFB064FEFFB664FEFFB064FEFF1E
:1002C0000265FEFFB064FEFFB664FEFF8664FEFFBB
:1002D0008664FEFF0265FEFFB664FEFF9864FEFFC3
:1002E0009864FEFF9864FEFFBA64FEFFAE67FEFFEF
:1002F000AE67FEFFF467FEFFAA67FEFFAA67FEFF78
:100300003A68FEFFF467FEFFAA67FEFF3A68FEFF49
:10031000AA67FEFFF467FEFFA867FEFFA867FEFF5F
:10032000A867FEFF3A68FEFF000102020303030311
:100330000404040404040404050505050505050575
:100340000505050505050505060606060606060655
:10035000060606060606060606060606060606063D
:100360000606060606060606070707070707070725
:10037000070707070707070707070707070707070D
:1003800007070707070707070707070707070707FD
:1003900007070707070707070707070707070707ED
:1003A00007070707070707070808080808080808D5
:1003B00008080808080808080808080808080808BD
:1003C00008080808080808080808080808080808AD
:1003D000080808080808080808080808080808089D
:1003E000080808080808080808080808080808088D
:1003F000080808080808080808080808080808087D
:10040000080808080808080808080808080808086C
:10041000080808080808080808080808080808085C
:100420000808080808080808546D72510000000008
:10043000546D722053766300286E756C6C29000031
:100440004572726F7220696E2073705F666C6F7098
:1004500073207461736B73200D0A00006D69616F06
:10046000750A00006D69616F75320A0068756E6704
:1004700072790A00436865636B54696D65720000A8
:100480004D617468310000004D61746832000000F5
:100490004D617468330000004D61746834000000E1
:1004A0004D617468350000004D61746836000000CD
:1004B0004D617468370000004D61746838000000B9
:1004C0001000000000000000017A5200017C0101D0
:1004D0001B0D020010000000180000004A53FEFF30
:1004E0008A03000000000000100000002C00000043
:1004F000C056FEFF5E030000000000001000000078
:10050000400000000A5AFEFF5403000000000000F3
:10057800D5E9F642DD9A1245358E65C46F12833A85
:10058800A4B0C2C366E4FD46A30100C0CFF7414151
:100598006F1283BA0000B040FC8F01000900000010
:040000058000004037
:00000001FF
